{
	"contracts/TwitterLikes.sol": {
		"Twitter": {
			"abi": [
				{
					"inputs": [],
					"stateMutability": "nonpayable",
					"type": "constructor"
				},
				{
					"inputs": [],
					"name": "MAX_TWEET_LENGTH",
					"outputs": [
						{
							"internalType": "uint16",
							"name": "",
							"type": "uint16"
						}
					],
					"stateMutability": "view",
					"type": "function"
				},
				{
					"inputs": [
						{
							"internalType": "address",
							"name": "author",
							"type": "address"
						},
						{
							"internalType": "uint256",
							"name": "id",
							"type": "uint256"
						}
					],
					"name": "addLike",
					"outputs": [],
					"stateMutability": "nonpayable",
					"type": "function"
				},
				{
					"inputs": [
						{
							"internalType": "uint16",
							"name": "newTweetLength",
							"type": "uint16"
						}
					],
					"name": "changeTweetLength",
					"outputs": [],
					"stateMutability": "nonpayable",
					"type": "function"
				},
				{
					"inputs": [
						{
							"internalType": "string",
							"name": "_tweet",
							"type": "string"
						}
					],
					"name": "createTweet",
					"outputs": [],
					"stateMutability": "nonpayable",
					"type": "function"
				},
				{
					"inputs": [
						{
							"internalType": "address",
							"name": "_owner",
							"type": "address"
						}
					],
					"name": "getAllTweets",
					"outputs": [
						{
							"components": [
								{
									"internalType": "address",
									"name": "author",
									"type": "address"
								},
								{
									"internalType": "string",
									"name": "content",
									"type": "string"
								},
								{
									"internalType": "uint256",
									"name": "timestamp",
									"type": "uint256"
								},
								{
									"internalType": "uint256",
									"name": "likes",
									"type": "uint256"
								},
								{
									"internalType": "uint256",
									"name": "id",
									"type": "uint256"
								}
							],
							"internalType": "struct Twitter.Tweet[]",
							"name": "",
							"type": "tuple[]"
						}
					],
					"stateMutability": "view",
					"type": "function"
				},
				{
					"inputs": [
						{
							"internalType": "uint256",
							"name": "_i",
							"type": "uint256"
						}
					],
					"name": "getTweet",
					"outputs": [
						{
							"components": [
								{
									"internalType": "address",
									"name": "author",
									"type": "address"
								},
								{
									"internalType": "string",
									"name": "content",
									"type": "string"
								},
								{
									"internalType": "uint256",
									"name": "timestamp",
									"type": "uint256"
								},
								{
									"internalType": "uint256",
									"name": "likes",
									"type": "uint256"
								},
								{
									"internalType": "uint256",
									"name": "id",
									"type": "uint256"
								}
							],
							"internalType": "struct Twitter.Tweet",
							"name": "",
							"type": "tuple"
						}
					],
					"stateMutability": "view",
					"type": "function"
				},
				{
					"inputs": [],
					"name": "owner",
					"outputs": [
						{
							"internalType": "address",
							"name": "",
							"type": "address"
						}
					],
					"stateMutability": "view",
					"type": "function"
				},
				{
					"inputs": [
						{
							"internalType": "uint256",
							"name": "id",
							"type": "uint256"
						},
						{
							"internalType": "address",
							"name": "author",
							"type": "address"
						}
					],
					"name": "removeLike",
					"outputs": [],
					"stateMutability": "nonpayable",
					"type": "function"
				},
				{
					"inputs": [
						{
							"internalType": "address",
							"name": "",
							"type": "address"
						},
						{
							"internalType": "uint256",
							"name": "",
							"type": "uint256"
						}
					],
					"name": "tweets",
					"outputs": [
						{
							"internalType": "address",
							"name": "author",
							"type": "address"
						},
						{
							"internalType": "string",
							"name": "content",
							"type": "string"
						},
						{
							"internalType": "uint256",
							"name": "timestamp",
							"type": "uint256"
						},
						{
							"internalType": "uint256",
							"name": "likes",
							"type": "uint256"
						},
						{
							"internalType": "uint256",
							"name": "id",
							"type": "uint256"
						}
					],
					"stateMutability": "view",
					"type": "function"
				}
			],
			"devdoc": {
				"kind": "dev",
				"methods": {},
				"version": 1
			},
			"evm": {
				"assembly": "    /* \"contracts/TwitterLikes.sol\":483:2280  contract Twitter {... */\n  mstore(0x40, 0x80)\n    /* \"contracts/TwitterLikes.sol\":542:545  280 */\n  0x0118\n    /* \"contracts/TwitterLikes.sol\":509:545  uint16 public MAX_TWEET_LENGTH = 280 */\n  0x00\n  dup1\n  0x0100\n  exp\n  dup2\n  sload\n  dup2\n  0xffff\n  mul\n  not\n  and\n  swap1\n  dup4\n  0xffff\n  and\n  mul\n  or\n  swap1\n  sstore\n  pop\n    /* \"contracts/TwitterLikes.sol\":782:833  constructor() {... */\n  callvalue\n  dup1\n  iszero\n  tag_1\n  jumpi\n  0x00\n  dup1\n  revert\ntag_1:\n  pop\n    /* \"contracts/TwitterLikes.sol\":815:825  msg.sender */\n  caller\n    /* \"contracts/TwitterLikes.sol\":807:812  owner */\n  0x02\n  0x00\n    /* \"contracts/TwitterLikes.sol\":807:825  owner = msg.sender */\n  0x0100\n  exp\n  dup2\n  sload\n  dup2\n  0xffffffffffffffffffffffffffffffffffffffff\n  mul\n  not\n  and\n  swap1\n  dup4\n  0xffffffffffffffffffffffffffffffffffffffff\n  and\n  mul\n  or\n  swap1\n  sstore\n  pop\n    /* \"contracts/TwitterLikes.sol\":483:2280  contract Twitter {... */\n  dataSize(sub_0)\n  dup1\n  dataOffset(sub_0)\n  0x00\n  codecopy\n  0x00\n  return\nstop\n\nsub_0: assembly {\n        /* \"contracts/TwitterLikes.sol\":483:2280  contract Twitter {... */\n      mstore(0x40, 0x80)\n      callvalue\n      dup1\n      iszero\n      tag_1\n      jumpi\n      0x00\n      dup1\n      revert\n    tag_1:\n      pop\n      jumpi(tag_2, lt(calldatasize, 0x04))\n      shr(0xe0, calldataload(0x00))\n      dup1\n      0x7a639e39\n      gt\n      tag_12\n      jumpi\n      dup1\n      0x7a639e39\n      eq\n      tag_7\n      jumpi\n      dup1\n      0x7c9cd2bc\n      eq\n      tag_8\n      jumpi\n      dup1\n      0x8da5cb5b\n      eq\n      tag_9\n      jumpi\n      dup1\n      0xc3ad5ecb\n      eq\n      tag_10\n      jumpi\n      dup1\n      0xf65a8f40\n      eq\n      tag_11\n      jumpi\n      jump(tag_2)\n    tag_12:\n      dup1\n      0x05a1b4a9\n      eq\n      tag_3\n      jumpi\n      dup1\n      0x12e7ee1c\n      eq\n      tag_4\n      jumpi\n      dup1\n      0x58bfa4ab\n      eq\n      tag_5\n      jumpi\n      dup1\n      0x6eb10797\n      eq\n      tag_6\n      jumpi\n    tag_2:\n      0x00\n      dup1\n      revert\n        /* \"contracts/TwitterLikes.sol\":704:746  mapping(address => Tweet[] ) public tweets */\n    tag_3:\n      tag_13\n      0x04\n      dup1\n      calldatasize\n      sub\n      dup2\n      add\n      swap1\n      tag_14\n      swap2\n      swap1\n      tag_15\n      jump\t// in\n    tag_14:\n      tag_16\n      jump\t// in\n    tag_13:\n      mload(0x40)\n      tag_17\n      swap6\n      swap5\n      swap4\n      swap3\n      swap2\n      swap1\n      tag_18\n      jump\t// in\n    tag_17:\n      mload(0x40)\n      dup1\n      swap2\n      sub\n      swap1\n      return\n        /* \"contracts/TwitterLikes.sol\":1610:1725  function getAllTweets(address _owner) public view returns (Tweet[] memory ){... */\n    tag_4:\n      tag_19\n      0x04\n      dup1\n      calldatasize\n      sub\n      dup2\n      add\n      swap1\n      tag_20\n      swap2\n      swap1\n      tag_21\n      jump\t// in\n    tag_20:\n      tag_22\n      jump\t// in\n    tag_19:\n      mload(0x40)\n      tag_23\n      swap2\n      swap1\n      tag_24\n      jump\t// in\n    tag_23:\n      mload(0x40)\n      dup1\n      swap2\n      sub\n      swap1\n      return\n        /* \"contracts/TwitterLikes.sol\":946:1065  function changeTweetLength(uint16 newTweetLength) public onlyOwner {... */\n    tag_5:\n      tag_25\n      0x04\n      dup1\n      calldatasize\n      sub\n      dup2\n      add\n      swap1\n      tag_26\n      swap2\n      swap1\n      tag_27\n      jump\t// in\n    tag_26:\n      tag_28\n      jump\t// in\n    tag_25:\n      stop\n        /* \"contracts/TwitterLikes.sol\":509:545  uint16 public MAX_TWEET_LENGTH = 280 */\n    tag_6:\n      tag_29\n      tag_30\n      jump\t// in\n    tag_29:\n      mload(0x40)\n      tag_31\n      swap2\n      swap1\n      tag_32\n      jump\t// in\n    tag_31:\n      mload(0x40)\n      dup1\n      swap2\n      sub\n      swap1\n      return\n        /* \"contracts/TwitterLikes.sol\":2026:2275  function removeLike (uint256 id, address author) external {... */\n    tag_7:\n      tag_33\n      0x04\n      dup1\n      calldatasize\n      sub\n      dup2\n      add\n      swap1\n      tag_34\n      swap2\n      swap1\n      tag_35\n      jump\t// in\n    tag_34:\n      tag_36\n      jump\t// in\n    tag_33:\n      stop\n        /* \"contracts/TwitterLikes.sol\":1073:1483  function createTweet(string memory _tweet) public {... */\n    tag_8:\n      tag_37\n      0x04\n      dup1\n      calldatasize\n      sub\n      dup2\n      add\n      swap1\n      tag_38\n      swap2\n      swap1\n      tag_39\n      jump\t// in\n    tag_38:\n      tag_40\n      jump\t// in\n    tag_37:\n      stop\n        /* \"contracts/TwitterLikes.sol\":753:773  address public owner */\n    tag_9:\n      tag_41\n      tag_42\n      jump\t// in\n    tag_41:\n      mload(0x40)\n      tag_43\n      swap2\n      swap1\n      tag_44\n      jump\t// in\n    tag_43:\n      mload(0x40)\n      dup1\n      swap2\n      sub\n      swap1\n      return\n        /* \"contracts/TwitterLikes.sol\":1491:1602  function getTweet( uint _i) public view returns (Tweet memory) {... */\n    tag_10:\n      tag_45\n      0x04\n      dup1\n      calldatasize\n      sub\n      dup2\n      add\n      swap1\n      tag_46\n      swap2\n      swap1\n      tag_47\n      jump\t// in\n    tag_46:\n      tag_48\n      jump\t// in\n    tag_45:\n      mload(0x40)\n      tag_49\n      swap2\n      swap1\n      tag_50\n      jump\t// in\n    tag_49:\n      mload(0x40)\n      dup1\n      swap2\n      sub\n      swap1\n      return\n        /* \"contracts/TwitterLikes.sol\":1733:2018  function addLike (address author, uint256 id) external {... */\n    tag_11:\n      tag_51\n      0x04\n      dup1\n      calldatasize\n      sub\n      dup2\n      add\n      swap1\n      tag_52\n      swap2\n      swap1\n      tag_15\n      jump\t// in\n    tag_52:\n      tag_53\n      jump\t// in\n    tag_51:\n      stop\n        /* \"contracts/TwitterLikes.sol\":704:746  mapping(address => Tweet[] ) public tweets */\n    tag_16:\n      mstore(0x20, 0x01)\n      dup2\n      0x00\n      mstore\n      keccak256(0x00, 0x40)\n      dup2\n      dup2\n      sload\n      dup2\n      lt\n      tag_54\n      jumpi\n      0x00\n      dup1\n      revert\n    tag_54:\n      swap1\n      0x00\n      mstore\n      keccak256(0x00, 0x20)\n      swap1\n      0x05\n      mul\n      add\n      0x00\n      swap2\n      pop\n      swap2\n      pop\n      pop\n      dup1\n      0x00\n      add\n      0x00\n      swap1\n      sload\n      swap1\n      0x0100\n      exp\n      swap1\n      div\n      0xffffffffffffffffffffffffffffffffffffffff\n      and\n      swap1\n      dup1\n      0x01\n      add\n      dup1\n      sload\n      tag_56\n      swap1\n      tag_57\n      jump\t// in\n    tag_56:\n      dup1\n      0x1f\n      add\n      0x20\n      dup1\n      swap2\n      div\n      mul\n      0x20\n      add\n      mload(0x40)\n      swap1\n      dup2\n      add\n      0x40\n      mstore\n      dup1\n      swap3\n      swap2\n      swap1\n      dup2\n      dup2\n      mstore\n      0x20\n      add\n      dup3\n      dup1\n      sload\n      tag_58\n      swap1\n      tag_57\n      jump\t// in\n    tag_58:\n      dup1\n      iszero\n      tag_59\n      jumpi\n      dup1\n      0x1f\n      lt\n      tag_60\n      jumpi\n      0x0100\n      dup1\n      dup4\n      sload\n      div\n      mul\n      dup4\n      mstore\n      swap2\n      0x20\n      add\n      swap2\n      jump(tag_59)\n    tag_60:\n      dup3\n      add\n      swap2\n      swap1\n      0x00\n      mstore\n      keccak256(0x00, 0x20)\n      swap1\n    tag_61:\n      dup2\n      sload\n      dup2\n      mstore\n      swap1\n      0x01\n      add\n      swap1\n      0x20\n      add\n      dup1\n      dup4\n      gt\n      tag_61\n      jumpi\n      dup3\n      swap1\n      sub\n      0x1f\n      and\n      dup3\n      add\n      swap2\n    tag_59:\n      pop\n      pop\n      pop\n      pop\n      pop\n      swap1\n      dup1\n      0x02\n      add\n      sload\n      swap1\n      dup1\n      0x03\n      add\n      sload\n      swap1\n      dup1\n      0x04\n      add\n      sload\n      swap1\n      pop\n      dup6\n      jump\t// out\n        /* \"contracts/TwitterLikes.sol\":1610:1725  function getAllTweets(address _owner) public view returns (Tweet[] memory ){... */\n    tag_22:\n        /* \"contracts/TwitterLikes.sol\":1669:1683  Tweet[] memory */\n      0x60\n        /* \"contracts/TwitterLikes.sol\":1703:1709  tweets */\n      0x01\n        /* \"contracts/TwitterLikes.sol\":1703:1717  tweets[_owner] */\n      0x00\n        /* \"contracts/TwitterLikes.sol\":1710:1716  _owner */\n      dup4\n        /* \"contracts/TwitterLikes.sol\":1703:1717  tweets[_owner] */\n      0xffffffffffffffffffffffffffffffffffffffff\n      and\n      0xffffffffffffffffffffffffffffffffffffffff\n      and\n      dup2\n      mstore\n      0x20\n      add\n      swap1\n      dup2\n      mstore\n      0x20\n      add\n      0x00\n      keccak256\n        /* \"contracts/TwitterLikes.sol\":1696:1717  return tweets[_owner] */\n      dup1\n      sload\n      dup1\n      0x20\n      mul\n      0x20\n      add\n      mload(0x40)\n      swap1\n      dup2\n      add\n      0x40\n      mstore\n      dup1\n      swap3\n      swap2\n      swap1\n      dup2\n      dup2\n      mstore\n      0x20\n      add\n      0x00\n      swap1\n    tag_63:\n      dup3\n      dup3\n      lt\n      iszero\n      tag_64\n      jumpi\n      dup4\n      dup3\n      swap1\n      0x00\n      mstore\n      keccak256(0x00, 0x20)\n      swap1\n      0x05\n      mul\n      add\n      mload(0x40)\n      dup1\n      0xa0\n      add\n      0x40\n      mstore\n      swap1\n      dup2\n      0x00\n      dup3\n      add\n      0x00\n      swap1\n      sload\n      swap1\n      0x0100\n      exp\n      swap1\n      div\n      0xffffffffffffffffffffffffffffffffffffffff\n      and\n      0xffffffffffffffffffffffffffffffffffffffff\n      and\n      0xffffffffffffffffffffffffffffffffffffffff\n      and\n      dup2\n      mstore\n      0x20\n      add\n      0x01\n      dup3\n      add\n      dup1\n      sload\n      tag_66\n      swap1\n      tag_57\n      jump\t// in\n    tag_66:\n      dup1\n      0x1f\n      add\n      0x20\n      dup1\n      swap2\n      div\n      mul\n      0x20\n      add\n      mload(0x40)\n      swap1\n      dup2\n      add\n      0x40\n      mstore\n      dup1\n      swap3\n      swap2\n      swap1\n      dup2\n      dup2\n      mstore\n      0x20\n      add\n      dup3\n      dup1\n      sload\n      tag_67\n      swap1\n      tag_57\n      jump\t// in\n    tag_67:\n      dup1\n      iszero\n      tag_68\n      jumpi\n      dup1\n      0x1f\n      lt\n      tag_69\n      jumpi\n      0x0100\n      dup1\n      dup4\n      sload\n      div\n      mul\n      dup4\n      mstore\n      swap2\n      0x20\n      add\n      swap2\n      jump(tag_68)\n    tag_69:\n      dup3\n      add\n      swap2\n      swap1\n      0x00\n      mstore\n      keccak256(0x00, 0x20)\n      swap1\n    tag_70:\n      dup2\n      sload\n      dup2\n      mstore\n      swap1\n      0x01\n      add\n      swap1\n      0x20\n      add\n      dup1\n      dup4\n      gt\n      tag_70\n      jumpi\n      dup3\n      swap1\n      sub\n      0x1f\n      and\n      dup3\n      add\n      swap2\n    tag_68:\n      pop\n      pop\n      pop\n      pop\n      pop\n      dup2\n      mstore\n      0x20\n      add\n      0x02\n      dup3\n      add\n      sload\n      dup2\n      mstore\n      0x20\n      add\n      0x03\n      dup3\n      add\n      sload\n      dup2\n      mstore\n      0x20\n      add\n      0x04\n      dup3\n      add\n      sload\n      dup2\n      mstore\n      pop\n      pop\n      dup2\n      mstore\n      0x20\n      add\n      swap1\n      0x01\n      add\n      swap1\n      jump(tag_63)\n    tag_64:\n      pop\n      pop\n      pop\n      pop\n      swap1\n      pop\n        /* \"contracts/TwitterLikes.sol\":1610:1725  function getAllTweets(address _owner) public view returns (Tweet[] memory ){... */\n      swap2\n      swap1\n      pop\n      jump\t// out\n        /* \"contracts/TwitterLikes.sol\":946:1065  function changeTweetLength(uint16 newTweetLength) public onlyOwner {... */\n    tag_28:\n        /* \"contracts/TwitterLikes.sol\":895:900  owner */\n      0x02\n      0x00\n      swap1\n      sload\n      swap1\n      0x0100\n      exp\n      swap1\n      div\n      0xffffffffffffffffffffffffffffffffffffffff\n      and\n        /* \"contracts/TwitterLikes.sol\":881:900  msg.sender == owner */\n      0xffffffffffffffffffffffffffffffffffffffff\n      and\n        /* \"contracts/TwitterLikes.sol\":881:891  msg.sender */\n      caller\n        /* \"contracts/TwitterLikes.sol\":881:900  msg.sender == owner */\n      0xffffffffffffffffffffffffffffffffffffffff\n      and\n      eq\n        /* \"contracts/TwitterLikes.sol\":873:918  require(msg.sender == owner, \"Not the owner\") */\n      tag_72\n      jumpi\n      mload(0x40)\n      0x08c379a000000000000000000000000000000000000000000000000000000000\n      dup2\n      mstore\n      0x04\n      add\n      tag_73\n      swap1\n      tag_74\n      jump\t// in\n    tag_73:\n      mload(0x40)\n      dup1\n      swap2\n      sub\n      swap1\n      revert\n    tag_72:\n        /* \"contracts/TwitterLikes.sol\":1043:1057  newTweetLength */\n      dup1\n        /* \"contracts/TwitterLikes.sol\":1024:1040  MAX_TWEET_LENGTH */\n      0x00\n      dup1\n        /* \"contracts/TwitterLikes.sol\":1024:1057  MAX_TWEET_LENGTH = newTweetLength */\n      0x0100\n      exp\n      dup2\n      sload\n      dup2\n      0xffff\n      mul\n      not\n      and\n      swap1\n      dup4\n      0xffff\n      and\n      mul\n      or\n      swap1\n      sstore\n      pop\n        /* \"contracts/TwitterLikes.sol\":946:1065  function changeTweetLength(uint16 newTweetLength) public onlyOwner {... */\n      pop\n      jump\t// out\n        /* \"contracts/TwitterLikes.sol\":509:545  uint16 public MAX_TWEET_LENGTH = 280 */\n    tag_30:\n      0x00\n      dup1\n      sload\n      swap1\n      0x0100\n      exp\n      swap1\n      div\n      0xffff\n      and\n      dup2\n      jump\t// out\n        /* \"contracts/TwitterLikes.sol\":2026:2275  function removeLike (uint256 id, address author) external {... */\n    tag_36:\n        /* \"contracts/TwitterLikes.sol\":2128:2130  id */\n      dup2\n        /* \"contracts/TwitterLikes.sol\":2103:2109  tweets */\n      0x01\n        /* \"contracts/TwitterLikes.sol\":2103:2117  tweets[author] */\n      0x00\n        /* \"contracts/TwitterLikes.sol\":2110:2116  author */\n      dup4\n        /* \"contracts/TwitterLikes.sol\":2103:2117  tweets[author] */\n      0xffffffffffffffffffffffffffffffffffffffff\n      and\n      0xffffffffffffffffffffffffffffffffffffffff\n      and\n      dup2\n      mstore\n      0x20\n      add\n      swap1\n      dup2\n      mstore\n      0x20\n      add\n      0x00\n      keccak256\n        /* \"contracts/TwitterLikes.sol\":2118:2120  id */\n      dup4\n        /* \"contracts/TwitterLikes.sol\":2103:2121  tweets[author][id] */\n      dup2\n      sload\n      dup2\n      lt\n      tag_77\n      jumpi\n      tag_78\n      tag_79\n      jump\t// in\n    tag_78:\n    tag_77:\n      swap1\n      0x00\n      mstore\n      keccak256(0x00, 0x20)\n      swap1\n      0x05\n      mul\n      add\n        /* \"contracts/TwitterLikes.sol\":2103:2124  tweets[author][id].id */\n      0x04\n      add\n      sload\n        /* \"contracts/TwitterLikes.sol\":2103:2130  tweets[author][id].id == id */\n      eq\n        /* \"contracts/TwitterLikes.sol\":2095:2156  require(tweets[author][id].id == id, \"Nie ma takiego tweetu\") */\n      tag_81\n      jumpi\n      mload(0x40)\n      0x08c379a000000000000000000000000000000000000000000000000000000000\n      dup2\n      mstore\n      0x04\n      add\n      tag_82\n      swap1\n      tag_83\n      jump\t// in\n    tag_82:\n      mload(0x40)\n      dup1\n      swap2\n      sub\n      swap1\n      revert\n    tag_81:\n        /* \"contracts/TwitterLikes.sol\":2202:2203  0 */\n      0x00\n        /* \"contracts/TwitterLikes.sol\":2175:2181  tweets */\n      0x01\n        /* \"contracts/TwitterLikes.sol\":2175:2189  tweets[author] */\n      0x00\n        /* \"contracts/TwitterLikes.sol\":2182:2188  author */\n      dup4\n        /* \"contracts/TwitterLikes.sol\":2175:2189  tweets[author] */\n      0xffffffffffffffffffffffffffffffffffffffff\n      and\n      0xffffffffffffffffffffffffffffffffffffffff\n      and\n      dup2\n      mstore\n      0x20\n      add\n      swap1\n      dup2\n      mstore\n      0x20\n      add\n      0x00\n      keccak256\n        /* \"contracts/TwitterLikes.sol\":2190:2192  id */\n      dup4\n        /* \"contracts/TwitterLikes.sol\":2175:2193  tweets[author][id] */\n      dup2\n      sload\n      dup2\n      lt\n      tag_84\n      jumpi\n      tag_85\n      tag_79\n      jump\t// in\n    tag_85:\n    tag_84:\n      swap1\n      0x00\n      mstore\n      keccak256(0x00, 0x20)\n      swap1\n      0x05\n      mul\n      add\n        /* \"contracts/TwitterLikes.sol\":2175:2199  tweets[author][id].likes */\n      0x03\n      add\n      sload\n        /* \"contracts/TwitterLikes.sol\":2175:2203  tweets[author][id].likes > 0 */\n      gt\n        /* \"contracts/TwitterLikes.sol\":2167:2230  require(tweets[author][id].likes > 0, \"Nie mozesz usunac like\") */\n      tag_87\n      jumpi\n      mload(0x40)\n      0x08c379a000000000000000000000000000000000000000000000000000000000\n      dup2\n      mstore\n      0x04\n      add\n      tag_88\n      swap1\n      tag_89\n      jump\t// in\n    tag_88:\n      mload(0x40)\n      dup1\n      swap2\n      sub\n      swap1\n      revert\n    tag_87:\n        /* \"contracts/TwitterLikes.sol\":2241:2247  tweets */\n      0x01\n        /* \"contracts/TwitterLikes.sol\":2241:2255  tweets[author] */\n      0x00\n        /* \"contracts/TwitterLikes.sol\":2248:2254  author */\n      dup3\n        /* \"contracts/TwitterLikes.sol\":2241:2255  tweets[author] */\n      0xffffffffffffffffffffffffffffffffffffffff\n      and\n      0xffffffffffffffffffffffffffffffffffffffff\n      and\n      dup2\n      mstore\n      0x20\n      add\n      swap1\n      dup2\n      mstore\n      0x20\n      add\n      0x00\n      keccak256\n        /* \"contracts/TwitterLikes.sol\":2256:2258  id */\n      dup3\n        /* \"contracts/TwitterLikes.sol\":2241:2259  tweets[author][id] */\n      dup2\n      sload\n      dup2\n      lt\n      tag_90\n      jumpi\n      tag_91\n      tag_79\n      jump\t// in\n    tag_91:\n    tag_90:\n      swap1\n      0x00\n      mstore\n      keccak256(0x00, 0x20)\n      swap1\n      0x05\n      mul\n      add\n        /* \"contracts/TwitterLikes.sol\":2241:2265  tweets[author][id].likes */\n      0x03\n      add\n      0x00\n        /* \"contracts/TwitterLikes.sol\":2241:2267  tweets[author][id].likes-- */\n      dup2\n      sload\n      dup1\n      swap3\n      swap2\n      swap1\n      tag_93\n      swap1\n      tag_94\n      jump\t// in\n    tag_93:\n      swap2\n      swap1\n      pop\n      sstore\n      pop\n        /* \"contracts/TwitterLikes.sol\":2026:2275  function removeLike (uint256 id, address author) external {... */\n      pop\n      pop\n      jump\t// out\n        /* \"contracts/TwitterLikes.sol\":1073:1483  function createTweet(string memory _tweet) public {... */\n    tag_40:\n        /* \"contracts/TwitterLikes.sol\":1166:1182  MAX_TWEET_LENGTH */\n      0x00\n      dup1\n      sload\n      swap1\n      0x0100\n      exp\n      swap1\n      div\n      0xffff\n      and\n        /* \"contracts/TwitterLikes.sol\":1142:1182  bytes(_tweet).length <= MAX_TWEET_LENGTH */\n      0xffff\n      and\n        /* \"contracts/TwitterLikes.sol\":1148:1154  _tweet */\n      dup2\n        /* \"contracts/TwitterLikes.sol\":1142:1162  bytes(_tweet).length */\n      mload\n        /* \"contracts/TwitterLikes.sol\":1142:1182  bytes(_tweet).length <= MAX_TWEET_LENGTH */\n      gt\n      iszero\n        /* \"contracts/TwitterLikes.sol\":1134:1203  require(bytes(_tweet).length <= MAX_TWEET_LENGTH, \"Message to long\" ) */\n      tag_96\n      jumpi\n      mload(0x40)\n      0x08c379a000000000000000000000000000000000000000000000000000000000\n      dup2\n      mstore\n      0x04\n      add\n      tag_97\n      swap1\n      tag_98\n      jump\t// in\n    tag_97:\n      mload(0x40)\n      dup1\n      swap2\n      sub\n      swap1\n      revert\n    tag_96:\n        /* \"contracts/TwitterLikes.sol\":1216:1237  Tweet memory newTweet */\n      0x00\n        /* \"contracts/TwitterLikes.sol\":1240:1429  Tweet({... */\n      mload(0x40)\n      dup1\n      0xa0\n      add\n      0x40\n      mstore\n      dup1\n        /* \"contracts/TwitterLikes.sol\":1269:1279  msg.sender */\n      caller\n        /* \"contracts/TwitterLikes.sol\":1240:1429  Tweet({... */\n      0xffffffffffffffffffffffffffffffffffffffff\n      and\n      dup2\n      mstore\n      0x20\n      add\n        /* \"contracts/TwitterLikes.sol\":1303:1309  _tweet */\n      dup4\n        /* \"contracts/TwitterLikes.sol\":1240:1429  Tweet({... */\n      dup2\n      mstore\n      0x20\n      add\n        /* \"contracts/TwitterLikes.sol\":1335:1350  block.timestamp */\n      timestamp\n        /* \"contracts/TwitterLikes.sol\":1240:1429  Tweet({... */\n      dup2\n      mstore\n      0x20\n      add\n        /* \"contracts/TwitterLikes.sol\":1372:1373  0 */\n      0x00\n        /* \"contracts/TwitterLikes.sol\":1240:1429  Tweet({... */\n      dup2\n      mstore\n      0x20\n      add\n        /* \"contracts/TwitterLikes.sol\":1392:1398  tweets */\n      0x01\n        /* \"contracts/TwitterLikes.sol\":1392:1410  tweets[msg.sender] */\n      0x00\n        /* \"contracts/TwitterLikes.sol\":1399:1409  msg.sender */\n      caller\n        /* \"contracts/TwitterLikes.sol\":1392:1410  tweets[msg.sender] */\n      0xffffffffffffffffffffffffffffffffffffffff\n      and\n      0xffffffffffffffffffffffffffffffffffffffff\n      and\n      dup2\n      mstore\n      0x20\n      add\n      swap1\n      dup2\n      mstore\n      0x20\n      add\n      0x00\n      keccak256\n        /* \"contracts/TwitterLikes.sol\":1392:1417  tweets[msg.sender].length */\n      dup1\n      sload\n      swap1\n      pop\n        /* \"contracts/TwitterLikes.sol\":1240:1429  Tweet({... */\n      dup2\n      mstore\n      pop\n        /* \"contracts/TwitterLikes.sol\":1216:1429  Tweet memory newTweet = Tweet({... */\n      swap1\n      pop\n        /* \"contracts/TwitterLikes.sol\":1442:1448  tweets */\n      0x01\n        /* \"contracts/TwitterLikes.sol\":1442:1460  tweets[msg.sender] */\n      0x00\n        /* \"contracts/TwitterLikes.sol\":1449:1459  msg.sender */\n      caller\n        /* \"contracts/TwitterLikes.sol\":1442:1460  tweets[msg.sender] */\n      0xffffffffffffffffffffffffffffffffffffffff\n      and\n      0xffffffffffffffffffffffffffffffffffffffff\n      and\n      dup2\n      mstore\n      0x20\n      add\n      swap1\n      dup2\n      mstore\n      0x20\n      add\n      0x00\n      keccak256\n        /* \"contracts/TwitterLikes.sol\":1466:1474  newTweet */\n      dup2\n        /* \"contracts/TwitterLikes.sol\":1442:1475  tweets[msg.sender].push(newTweet) */\n      swap1\n      dup1\n      0x01\n      dup2\n      sload\n      add\n      dup1\n      dup3\n      sstore\n      dup1\n      swap2\n      pop\n      pop\n      0x01\n      swap1\n      sub\n      swap1\n      0x00\n      mstore\n      keccak256(0x00, 0x20)\n      swap1\n      0x05\n      mul\n      add\n      0x00\n      swap1\n      swap2\n      swap1\n      swap2\n      swap1\n      swap2\n      pop\n      0x00\n      dup3\n      add\n      mload\n      dup2\n      0x00\n      add\n      exp(0x0100, 0x00)\n      dup2\n      sload\n      dup2\n      0xffffffffffffffffffffffffffffffffffffffff\n      mul\n      not\n      and\n      swap1\n      dup4\n      0xffffffffffffffffffffffffffffffffffffffff\n      and\n      mul\n      or\n      swap1\n      sstore\n      pop\n      0x20\n      dup3\n      add\n      mload\n      dup2\n      0x01\n      add\n      swap1\n      dup2\n      tag_100\n      swap2\n      swap1\n      tag_101\n      jump\t// in\n    tag_100:\n      pop\n      0x40\n      dup3\n      add\n      mload\n      dup2\n      0x02\n      add\n      sstore\n      0x60\n      dup3\n      add\n      mload\n      dup2\n      0x03\n      add\n      sstore\n      0x80\n      dup3\n      add\n      mload\n      dup2\n      0x04\n      add\n      sstore\n      pop\n      pop\n        /* \"contracts/TwitterLikes.sol\":1123:1483  {... */\n      pop\n        /* \"contracts/TwitterLikes.sol\":1073:1483  function createTweet(string memory _tweet) public {... */\n      pop\n      jump\t// out\n        /* \"contracts/TwitterLikes.sol\":753:773  address public owner */\n    tag_42:\n      0x02\n      0x00\n      swap1\n      sload\n      swap1\n      0x0100\n      exp\n      swap1\n      div\n      0xffffffffffffffffffffffffffffffffffffffff\n      and\n      dup2\n      jump\t// out\n        /* \"contracts/TwitterLikes.sol\":1491:1602  function getTweet( uint _i) public view returns (Tweet memory) {... */\n    tag_48:\n        /* \"contracts/TwitterLikes.sol\":1540:1552  Tweet memory */\n      tag_102\n      tag_103\n      jump\t// in\n    tag_102:\n        /* \"contracts/TwitterLikes.sol\":1572:1578  tweets */\n      0x01\n        /* \"contracts/TwitterLikes.sol\":1572:1590  tweets[msg.sender] */\n      0x00\n        /* \"contracts/TwitterLikes.sol\":1579:1589  msg.sender */\n      caller\n        /* \"contracts/TwitterLikes.sol\":1572:1590  tweets[msg.sender] */\n      0xffffffffffffffffffffffffffffffffffffffff\n      and\n      0xffffffffffffffffffffffffffffffffffffffff\n      and\n      dup2\n      mstore\n      0x20\n      add\n      swap1\n      dup2\n      mstore\n      0x20\n      add\n      0x00\n      keccak256\n        /* \"contracts/TwitterLikes.sol\":1591:1593  _i */\n      dup3\n        /* \"contracts/TwitterLikes.sol\":1572:1594  tweets[msg.sender][_i] */\n      dup2\n      sload\n      dup2\n      lt\n      tag_105\n      jumpi\n      tag_106\n      tag_79\n      jump\t// in\n    tag_106:\n    tag_105:\n      swap1\n      0x00\n      mstore\n      keccak256(0x00, 0x20)\n      swap1\n      0x05\n      mul\n      add\n        /* \"contracts/TwitterLikes.sol\":1565:1594  return tweets[msg.sender][_i] */\n      mload(0x40)\n      dup1\n      0xa0\n      add\n      0x40\n      mstore\n      swap1\n      dup2\n      0x00\n      dup3\n      add\n      0x00\n      swap1\n      sload\n      swap1\n      0x0100\n      exp\n      swap1\n      div\n      0xffffffffffffffffffffffffffffffffffffffff\n      and\n      0xffffffffffffffffffffffffffffffffffffffff\n      and\n      0xffffffffffffffffffffffffffffffffffffffff\n      and\n      dup2\n      mstore\n      0x20\n      add\n      0x01\n      dup3\n      add\n      dup1\n      sload\n      tag_108\n      swap1\n      tag_57\n      jump\t// in\n    tag_108:\n      dup1\n      0x1f\n      add\n      0x20\n      dup1\n      swap2\n      div\n      mul\n      0x20\n      add\n      mload(0x40)\n      swap1\n      dup2\n      add\n      0x40\n      mstore\n      dup1\n      swap3\n      swap2\n      swap1\n      dup2\n      dup2\n      mstore\n      0x20\n      add\n      dup3\n      dup1\n      sload\n      tag_109\n      swap1\n      tag_57\n      jump\t// in\n    tag_109:\n      dup1\n      iszero\n      tag_110\n      jumpi\n      dup1\n      0x1f\n      lt\n      tag_111\n      jumpi\n      0x0100\n      dup1\n      dup4\n      sload\n      div\n      mul\n      dup4\n      mstore\n      swap2\n      0x20\n      add\n      swap2\n      jump(tag_110)\n    tag_111:\n      dup3\n      add\n      swap2\n      swap1\n      0x00\n      mstore\n      keccak256(0x00, 0x20)\n      swap1\n    tag_112:\n      dup2\n      sload\n      dup2\n      mstore\n      swap1\n      0x01\n      add\n      swap1\n      0x20\n      add\n      dup1\n      dup4\n      gt\n      tag_112\n      jumpi\n      dup3\n      swap1\n      sub\n      0x1f\n      and\n      dup3\n      add\n      swap2\n    tag_110:\n      pop\n      pop\n      pop\n      pop\n      pop\n      dup2\n      mstore\n      0x20\n      add\n      0x02\n      dup3\n      add\n      sload\n      dup2\n      mstore\n      0x20\n      add\n      0x03\n      dup3\n      add\n      sload\n      dup2\n      mstore\n      0x20\n      add\n      0x04\n      dup3\n      add\n      sload\n      dup2\n      mstore\n      pop\n      pop\n      swap1\n      pop\n        /* \"contracts/TwitterLikes.sol\":1491:1602  function getTweet( uint _i) public view returns (Tweet memory) {... */\n      swap2\n      swap1\n      pop\n      jump\t// out\n        /* \"contracts/TwitterLikes.sol\":1733:2018  function addLike (address author, uint256 id) external {... */\n    tag_53:\n        /* \"contracts/TwitterLikes.sol\":1836:1841  owner */\n      0x02\n      0x00\n      swap1\n      sload\n      swap1\n      0x0100\n      exp\n      swap1\n      div\n      0xffffffffffffffffffffffffffffffffffffffff\n      and\n        /* \"contracts/TwitterLikes.sol\":1807:1841  tweets[author][id].author != owner */\n      0xffffffffffffffffffffffffffffffffffffffff\n      and\n        /* \"contracts/TwitterLikes.sol\":1807:1813  tweets */\n      0x01\n        /* \"contracts/TwitterLikes.sol\":1807:1821  tweets[author] */\n      0x00\n        /* \"contracts/TwitterLikes.sol\":1814:1820  author */\n      dup5\n        /* \"contracts/TwitterLikes.sol\":1807:1821  tweets[author] */\n      0xffffffffffffffffffffffffffffffffffffffff\n      and\n      0xffffffffffffffffffffffffffffffffffffffff\n      and\n      dup2\n      mstore\n      0x20\n      add\n      swap1\n      dup2\n      mstore\n      0x20\n      add\n      0x00\n      keccak256\n        /* \"contracts/TwitterLikes.sol\":1822:1824  id */\n      dup3\n        /* \"contracts/TwitterLikes.sol\":1807:1825  tweets[author][id] */\n      dup2\n      sload\n      dup2\n      lt\n      tag_114\n      jumpi\n      tag_115\n      tag_79\n      jump\t// in\n    tag_115:\n    tag_114:\n      swap1\n      0x00\n      mstore\n      keccak256(0x00, 0x20)\n      swap1\n      0x05\n      mul\n      add\n        /* \"contracts/TwitterLikes.sol\":1807:1832  tweets[author][id].author */\n      0x00\n      add\n      0x00\n      swap1\n      sload\n      swap1\n      0x0100\n      exp\n      swap1\n      div\n      0xffffffffffffffffffffffffffffffffffffffff\n      and\n        /* \"contracts/TwitterLikes.sol\":1807:1841  tweets[author][id].author != owner */\n      0xffffffffffffffffffffffffffffffffffffffff\n      and\n      sub\n        /* \"contracts/TwitterLikes.sol\":1799:1901  require(tweets[author][id].author != owner, \"Jestes wlasciwosciem, nie mozesz likowac wlasnego posta\") */\n      tag_117\n      jumpi\n      mload(0x40)\n      0x08c379a000000000000000000000000000000000000000000000000000000000\n      dup2\n      mstore\n      0x04\n      add\n      tag_118\n      swap1\n      tag_119\n      jump\t// in\n    tag_118:\n      mload(0x40)\n      dup1\n      swap2\n      sub\n      swap1\n      revert\n    tag_117:\n        /* \"contracts/TwitterLikes.sol\":1945:1947  id */\n      dup1\n        /* \"contracts/TwitterLikes.sol\":1920:1926  tweets */\n      0x01\n        /* \"contracts/TwitterLikes.sol\":1920:1934  tweets[author] */\n      0x00\n        /* \"contracts/TwitterLikes.sol\":1927:1933  author */\n      dup5\n        /* \"contracts/TwitterLikes.sol\":1920:1934  tweets[author] */\n      0xffffffffffffffffffffffffffffffffffffffff\n      and\n      0xffffffffffffffffffffffffffffffffffffffff\n      and\n      dup2\n      mstore\n      0x20\n      add\n      swap1\n      dup2\n      mstore\n      0x20\n      add\n      0x00\n      keccak256\n        /* \"contracts/TwitterLikes.sol\":1935:1937  id */\n      dup3\n        /* \"contracts/TwitterLikes.sol\":1920:1938  tweets[author][id] */\n      dup2\n      sload\n      dup2\n      lt\n      tag_120\n      jumpi\n      tag_121\n      tag_79\n      jump\t// in\n    tag_121:\n    tag_120:\n      swap1\n      0x00\n      mstore\n      keccak256(0x00, 0x20)\n      swap1\n      0x05\n      mul\n      add\n        /* \"contracts/TwitterLikes.sol\":1920:1941  tweets[author][id].id */\n      0x04\n      add\n      sload\n        /* \"contracts/TwitterLikes.sol\":1920:1947  tweets[author][id].id == id */\n      eq\n        /* \"contracts/TwitterLikes.sol\":1912:1973  require(tweets[author][id].id == id, \"Nie ma takiego tweetu\") */\n      tag_123\n      jumpi\n      mload(0x40)\n      0x08c379a000000000000000000000000000000000000000000000000000000000\n      dup2\n      mstore\n      0x04\n      add\n      tag_124\n      swap1\n      tag_83\n      jump\t// in\n    tag_124:\n      mload(0x40)\n      dup1\n      swap2\n      sub\n      swap1\n      revert\n    tag_123:\n        /* \"contracts/TwitterLikes.sol\":1984:1990  tweets */\n      0x01\n        /* \"contracts/TwitterLikes.sol\":1984:1998  tweets[author] */\n      0x00\n        /* \"contracts/TwitterLikes.sol\":1991:1997  author */\n      dup4\n        /* \"contracts/TwitterLikes.sol\":1984:1998  tweets[author] */\n      0xffffffffffffffffffffffffffffffffffffffff\n      and\n      0xffffffffffffffffffffffffffffffffffffffff\n      and\n      dup2\n      mstore\n      0x20\n      add\n      swap1\n      dup2\n      mstore\n      0x20\n      add\n      0x00\n      keccak256\n        /* \"contracts/TwitterLikes.sol\":1999:2001  id */\n      dup2\n        /* \"contracts/TwitterLikes.sol\":1984:2002  tweets[author][id] */\n      dup2\n      sload\n      dup2\n      lt\n      tag_125\n      jumpi\n      tag_126\n      tag_79\n      jump\t// in\n    tag_126:\n    tag_125:\n      swap1\n      0x00\n      mstore\n      keccak256(0x00, 0x20)\n      swap1\n      0x05\n      mul\n      add\n        /* \"contracts/TwitterLikes.sol\":1984:2008  tweets[author][id].likes */\n      0x03\n      add\n      0x00\n        /* \"contracts/TwitterLikes.sol\":1984:2010  tweets[author][id].likes++ */\n      dup2\n      sload\n      dup1\n      swap3\n      swap2\n      swap1\n      tag_128\n      swap1\n      tag_129\n      jump\t// in\n    tag_128:\n      swap2\n      swap1\n      pop\n      sstore\n      pop\n        /* \"contracts/TwitterLikes.sol\":1733:2018  function addLike (address author, uint256 id) external {... */\n      pop\n      pop\n      jump\t// out\n    tag_103:\n      mload(0x40)\n      dup1\n      0xa0\n      add\n      0x40\n      mstore\n      dup1\n      and(0xffffffffffffffffffffffffffffffffffffffff, 0x00)\n      dup2\n      mstore\n      0x20\n      add\n      0x60\n      dup2\n      mstore\n      0x20\n      add\n      0x00\n      dup2\n      mstore\n      0x20\n      add\n      0x00\n      dup2\n      mstore\n      0x20\n      add\n      0x00\n      dup2\n      mstore\n      pop\n      swap1\n      jump\t// out\n        /* \"#utility.yul\":7:82   */\n    tag_130:\n        /* \"#utility.yul\":40:46   */\n      0x00\n        /* \"#utility.yul\":73:75   */\n      0x40\n        /* \"#utility.yul\":67:76   */\n      mload\n        /* \"#utility.yul\":57:76   */\n      swap1\n      pop\n        /* \"#utility.yul\":7:82   */\n      swap1\n      jump\t// out\n        /* \"#utility.yul\":88:205   */\n    tag_131:\n        /* \"#utility.yul\":197:198   */\n      0x00\n        /* \"#utility.yul\":194:195   */\n      dup1\n        /* \"#utility.yul\":187:199   */\n      revert\n        /* \"#utility.yul\":211:328   */\n    tag_132:\n        /* \"#utility.yul\":320:321   */\n      0x00\n        /* \"#utility.yul\":317:318   */\n      dup1\n        /* \"#utility.yul\":310:322   */\n      revert\n        /* \"#utility.yul\":334:460   */\n    tag_133:\n        /* \"#utility.yul\":371:378   */\n      0x00\n        /* \"#utility.yul\":411:453   */\n      0xffffffffffffffffffffffffffffffffffffffff\n        /* \"#utility.yul\":404:409   */\n      dup3\n        /* \"#utility.yul\":400:454   */\n      and\n        /* \"#utility.yul\":389:454   */\n      swap1\n      pop\n        /* \"#utility.yul\":334:460   */\n      swap2\n      swap1\n      pop\n      jump\t// out\n        /* \"#utility.yul\":466:562   */\n    tag_134:\n        /* \"#utility.yul\":503:510   */\n      0x00\n        /* \"#utility.yul\":532:556   */\n      tag_205\n        /* \"#utility.yul\":550:555   */\n      dup3\n        /* \"#utility.yul\":532:556   */\n      tag_133\n      jump\t// in\n    tag_205:\n        /* \"#utility.yul\":521:556   */\n      swap1\n      pop\n        /* \"#utility.yul\":466:562   */\n      swap2\n      swap1\n      pop\n      jump\t// out\n        /* \"#utility.yul\":568:690   */\n    tag_135:\n        /* \"#utility.yul\":641:665   */\n      tag_207\n        /* \"#utility.yul\":659:664   */\n      dup2\n        /* \"#utility.yul\":641:665   */\n      tag_134\n      jump\t// in\n    tag_207:\n        /* \"#utility.yul\":634:639   */\n      dup2\n        /* \"#utility.yul\":631:666   */\n      eq\n        /* \"#utility.yul\":621:684   */\n      tag_208\n      jumpi\n        /* \"#utility.yul\":680:681   */\n      0x00\n        /* \"#utility.yul\":677:678   */\n      dup1\n        /* \"#utility.yul\":670:682   */\n      revert\n        /* \"#utility.yul\":621:684   */\n    tag_208:\n        /* \"#utility.yul\":568:690   */\n      pop\n      jump\t// out\n        /* \"#utility.yul\":696:835   */\n    tag_136:\n        /* \"#utility.yul\":742:747   */\n      0x00\n        /* \"#utility.yul\":780:786   */\n      dup2\n        /* \"#utility.yul\":767:787   */\n      calldataload\n        /* \"#utility.yul\":758:787   */\n      swap1\n      pop\n        /* \"#utility.yul\":796:829   */\n      tag_210\n        /* \"#utility.yul\":823:828   */\n      dup2\n        /* \"#utility.yul\":796:829   */\n      tag_135\n      jump\t// in\n    tag_210:\n        /* \"#utility.yul\":696:835   */\n      swap3\n      swap2\n      pop\n      pop\n      jump\t// out\n        /* \"#utility.yul\":841:918   */\n    tag_137:\n        /* \"#utility.yul\":878:885   */\n      0x00\n        /* \"#utility.yul\":907:912   */\n      dup2\n        /* \"#utility.yul\":896:912   */\n      swap1\n      pop\n        /* \"#utility.yul\":841:918   */\n      swap2\n      swap1\n      pop\n      jump\t// out\n        /* \"#utility.yul\":924:1046   */\n    tag_138:\n        /* \"#utility.yul\":997:1021   */\n      tag_213\n        /* \"#utility.yul\":1015:1020   */\n      dup2\n        /* \"#utility.yul\":997:1021   */\n      tag_137\n      jump\t// in\n    tag_213:\n        /* \"#utility.yul\":990:995   */\n      dup2\n        /* \"#utility.yul\":987:1022   */\n      eq\n        /* \"#utility.yul\":977:1040   */\n      tag_214\n      jumpi\n        /* \"#utility.yul\":1036:1037   */\n      0x00\n        /* \"#utility.yul\":1033:1034   */\n      dup1\n        /* \"#utility.yul\":1026:1038   */\n      revert\n        /* \"#utility.yul\":977:1040   */\n    tag_214:\n        /* \"#utility.yul\":924:1046   */\n      pop\n      jump\t// out\n        /* \"#utility.yul\":1052:1191   */\n    tag_139:\n        /* \"#utility.yul\":1098:1103   */\n      0x00\n        /* \"#utility.yul\":1136:1142   */\n      dup2\n        /* \"#utility.yul\":1123:1143   */\n      calldataload\n        /* \"#utility.yul\":1114:1143   */\n      swap1\n      pop\n        /* \"#utility.yul\":1152:1185   */\n      tag_216\n        /* \"#utility.yul\":1179:1184   */\n      dup2\n        /* \"#utility.yul\":1152:1185   */\n      tag_138\n      jump\t// in\n    tag_216:\n        /* \"#utility.yul\":1052:1191   */\n      swap3\n      swap2\n      pop\n      pop\n      jump\t// out\n        /* \"#utility.yul\":1197:1671   */\n    tag_15:\n        /* \"#utility.yul\":1265:1271   */\n      0x00\n        /* \"#utility.yul\":1273:1279   */\n      dup1\n        /* \"#utility.yul\":1322:1324   */\n      0x40\n        /* \"#utility.yul\":1310:1319   */\n      dup4\n        /* \"#utility.yul\":1301:1308   */\n      dup6\n        /* \"#utility.yul\":1297:1320   */\n      sub\n        /* \"#utility.yul\":1293:1325   */\n      slt\n        /* \"#utility.yul\":1290:1409   */\n      iszero\n      tag_218\n      jumpi\n        /* \"#utility.yul\":1328:1407   */\n      tag_219\n      tag_131\n      jump\t// in\n    tag_219:\n        /* \"#utility.yul\":1290:1409   */\n    tag_218:\n        /* \"#utility.yul\":1448:1449   */\n      0x00\n        /* \"#utility.yul\":1473:1526   */\n      tag_220\n        /* \"#utility.yul\":1518:1525   */\n      dup6\n        /* \"#utility.yul\":1509:1515   */\n      dup3\n        /* \"#utility.yul\":1498:1507   */\n      dup7\n        /* \"#utility.yul\":1494:1516   */\n      add\n        /* \"#utility.yul\":1473:1526   */\n      tag_136\n      jump\t// in\n    tag_220:\n        /* \"#utility.yul\":1463:1526   */\n      swap3\n      pop\n        /* \"#utility.yul\":1419:1536   */\n      pop\n        /* \"#utility.yul\":1575:1577   */\n      0x20\n        /* \"#utility.yul\":1601:1654   */\n      tag_221\n        /* \"#utility.yul\":1646:1653   */\n      dup6\n        /* \"#utility.yul\":1637:1643   */\n      dup3\n        /* \"#utility.yul\":1626:1635   */\n      dup7\n        /* \"#utility.yul\":1622:1644   */\n      add\n        /* \"#utility.yul\":1601:1654   */\n      tag_139\n      jump\t// in\n    tag_221:\n        /* \"#utility.yul\":1591:1654   */\n      swap2\n      pop\n        /* \"#utility.yul\":1546:1664   */\n      pop\n        /* \"#utility.yul\":1197:1671   */\n      swap3\n      pop\n      swap3\n      swap1\n      pop\n      jump\t// out\n        /* \"#utility.yul\":1677:1795   */\n    tag_140:\n        /* \"#utility.yul\":1764:1788   */\n      tag_223\n        /* \"#utility.yul\":1782:1787   */\n      dup2\n        /* \"#utility.yul\":1764:1788   */\n      tag_134\n      jump\t// in\n    tag_223:\n        /* \"#utility.yul\":1759:1762   */\n      dup3\n        /* \"#utility.yul\":1752:1789   */\n      mstore\n        /* \"#utility.yul\":1677:1795   */\n      pop\n      pop\n      jump\t// out\n        /* \"#utility.yul\":1801:1900   */\n    tag_141:\n        /* \"#utility.yul\":1853:1859   */\n      0x00\n        /* \"#utility.yul\":1887:1892   */\n      dup2\n        /* \"#utility.yul\":1881:1893   */\n      mload\n        /* \"#utility.yul\":1871:1893   */\n      swap1\n      pop\n        /* \"#utility.yul\":1801:1900   */\n      swap2\n      swap1\n      pop\n      jump\t// out\n        /* \"#utility.yul\":1906:2075   */\n    tag_142:\n        /* \"#utility.yul\":1990:2001   */\n      0x00\n        /* \"#utility.yul\":2024:2030   */\n      dup3\n        /* \"#utility.yul\":2019:2022   */\n      dup3\n        /* \"#utility.yul\":2012:2031   */\n      mstore\n        /* \"#utility.yul\":2064:2068   */\n      0x20\n        /* \"#utility.yul\":2059:2062   */\n      dup3\n        /* \"#utility.yul\":2055:2069   */\n      add\n        /* \"#utility.yul\":2040:2069   */\n      swap1\n      pop\n        /* \"#utility.yul\":1906:2075   */\n      swap3\n      swap2\n      pop\n      pop\n      jump\t// out\n        /* \"#utility.yul\":2081:2220   */\n    tag_143:\n        /* \"#utility.yul\":2170:2176   */\n      dup3\n        /* \"#utility.yul\":2165:2168   */\n      dup2\n        /* \"#utility.yul\":2160:2163   */\n      dup4\n        /* \"#utility.yul\":2154:2177   */\n      mcopy\n        /* \"#utility.yul\":2211:2212   */\n      0x00\n        /* \"#utility.yul\":2202:2208   */\n      dup4\n        /* \"#utility.yul\":2197:2200   */\n      dup4\n        /* \"#utility.yul\":2193:2209   */\n      add\n        /* \"#utility.yul\":2186:2213   */\n      mstore\n        /* \"#utility.yul\":2081:2220   */\n      pop\n      pop\n      pop\n      jump\t// out\n        /* \"#utility.yul\":2226:2328   */\n    tag_144:\n        /* \"#utility.yul\":2267:2273   */\n      0x00\n        /* \"#utility.yul\":2318:2320   */\n      0x1f\n        /* \"#utility.yul\":2314:2321   */\n      not\n        /* \"#utility.yul\":2309:2311   */\n      0x1f\n        /* \"#utility.yul\":2302:2307   */\n      dup4\n        /* \"#utility.yul\":2298:2312   */\n      add\n        /* \"#utility.yul\":2294:2322   */\n      and\n        /* \"#utility.yul\":2284:2322   */\n      swap1\n      pop\n        /* \"#utility.yul\":2226:2328   */\n      swap2\n      swap1\n      pop\n      jump\t// out\n        /* \"#utility.yul\":2334:2711   */\n    tag_145:\n        /* \"#utility.yul\":2422:2425   */\n      0x00\n        /* \"#utility.yul\":2450:2489   */\n      tag_229\n        /* \"#utility.yul\":2483:2488   */\n      dup3\n        /* \"#utility.yul\":2450:2489   */\n      tag_141\n      jump\t// in\n    tag_229:\n        /* \"#utility.yul\":2505:2576   */\n      tag_230\n        /* \"#utility.yul\":2569:2575   */\n      dup2\n        /* \"#utility.yul\":2564:2567   */\n      dup6\n        /* \"#utility.yul\":2505:2576   */\n      tag_142\n      jump\t// in\n    tag_230:\n        /* \"#utility.yul\":2498:2576   */\n      swap4\n      pop\n        /* \"#utility.yul\":2585:2650   */\n      tag_231\n        /* \"#utility.yul\":2643:2649   */\n      dup2\n        /* \"#utility.yul\":2638:2641   */\n      dup6\n        /* \"#utility.yul\":2631:2635   */\n      0x20\n        /* \"#utility.yul\":2624:2629   */\n      dup7\n        /* \"#utility.yul\":2620:2636   */\n      add\n        /* \"#utility.yul\":2585:2650   */\n      tag_143\n      jump\t// in\n    tag_231:\n        /* \"#utility.yul\":2675:2704   */\n      tag_232\n        /* \"#utility.yul\":2697:2703   */\n      dup2\n        /* \"#utility.yul\":2675:2704   */\n      tag_144\n      jump\t// in\n    tag_232:\n        /* \"#utility.yul\":2670:2673   */\n      dup5\n        /* \"#utility.yul\":2666:2705   */\n      add\n        /* \"#utility.yul\":2659:2705   */\n      swap2\n      pop\n        /* \"#utility.yul\":2426:2711   */\n      pop\n        /* \"#utility.yul\":2334:2711   */\n      swap3\n      swap2\n      pop\n      pop\n      jump\t// out\n        /* \"#utility.yul\":2717:2835   */\n    tag_146:\n        /* \"#utility.yul\":2804:2828   */\n      tag_234\n        /* \"#utility.yul\":2822:2827   */\n      dup2\n        /* \"#utility.yul\":2804:2828   */\n      tag_137\n      jump\t// in\n    tag_234:\n        /* \"#utility.yul\":2799:2802   */\n      dup3\n        /* \"#utility.yul\":2792:2829   */\n      mstore\n        /* \"#utility.yul\":2717:2835   */\n      pop\n      pop\n      jump\t// out\n        /* \"#utility.yul\":2841:3596   */\n    tag_18:\n        /* \"#utility.yul\":3066:3070   */\n      0x00\n        /* \"#utility.yul\":3104:3107   */\n      0xa0\n        /* \"#utility.yul\":3093:3102   */\n      dup3\n        /* \"#utility.yul\":3089:3108   */\n      add\n        /* \"#utility.yul\":3081:3108   */\n      swap1\n      pop\n        /* \"#utility.yul\":3118:3189   */\n      tag_236\n        /* \"#utility.yul\":3186:3187   */\n      0x00\n        /* \"#utility.yul\":3175:3184   */\n      dup4\n        /* \"#utility.yul\":3171:3188   */\n      add\n        /* \"#utility.yul\":3162:3168   */\n      dup9\n        /* \"#utility.yul\":3118:3189   */\n      tag_140\n      jump\t// in\n    tag_236:\n        /* \"#utility.yul\":3236:3245   */\n      dup2\n        /* \"#utility.yul\":3230:3234   */\n      dup2\n        /* \"#utility.yul\":3226:3246   */\n      sub\n        /* \"#utility.yul\":3221:3223   */\n      0x20\n        /* \"#utility.yul\":3210:3219   */\n      dup4\n        /* \"#utility.yul\":3206:3224   */\n      add\n        /* \"#utility.yul\":3199:3247   */\n      mstore\n        /* \"#utility.yul\":3264:3342   */\n      tag_237\n        /* \"#utility.yul\":3337:3341   */\n      dup2\n        /* \"#utility.yul\":3328:3334   */\n      dup8\n        /* \"#utility.yul\":3264:3342   */\n      tag_145\n      jump\t// in\n    tag_237:\n        /* \"#utility.yul\":3256:3342   */\n      swap1\n      pop\n        /* \"#utility.yul\":3352:3424   */\n      tag_238\n        /* \"#utility.yul\":3420:3422   */\n      0x40\n        /* \"#utility.yul\":3409:3418   */\n      dup4\n        /* \"#utility.yul\":3405:3423   */\n      add\n        /* \"#utility.yul\":3396:3402   */\n      dup7\n        /* \"#utility.yul\":3352:3424   */\n      tag_146\n      jump\t// in\n    tag_238:\n        /* \"#utility.yul\":3434:3506   */\n      tag_239\n        /* \"#utility.yul\":3502:3504   */\n      0x60\n        /* \"#utility.yul\":3491:3500   */\n      dup4\n        /* \"#utility.yul\":3487:3505   */\n      add\n        /* \"#utility.yul\":3478:3484   */\n      dup6\n        /* \"#utility.yul\":3434:3506   */\n      tag_146\n      jump\t// in\n    tag_239:\n        /* \"#utility.yul\":3516:3589   */\n      tag_240\n        /* \"#utility.yul\":3584:3587   */\n      0x80\n        /* \"#utility.yul\":3573:3582   */\n      dup4\n        /* \"#utility.yul\":3569:3588   */\n      add\n        /* \"#utility.yul\":3560:3566   */\n      dup5\n        /* \"#utility.yul\":3516:3589   */\n      tag_146\n      jump\t// in\n    tag_240:\n        /* \"#utility.yul\":2841:3596   */\n      swap7\n      swap6\n      pop\n      pop\n      pop\n      pop\n      pop\n      pop\n      jump\t// out\n        /* \"#utility.yul\":3602:3931   */\n    tag_21:\n        /* \"#utility.yul\":3661:3667   */\n      0x00\n        /* \"#utility.yul\":3710:3712   */\n      0x20\n        /* \"#utility.yul\":3698:3707   */\n      dup3\n        /* \"#utility.yul\":3689:3696   */\n      dup5\n        /* \"#utility.yul\":3685:3708   */\n      sub\n        /* \"#utility.yul\":3681:3713   */\n      slt\n        /* \"#utility.yul\":3678:3797   */\n      iszero\n      tag_242\n      jumpi\n        /* \"#utility.yul\":3716:3795   */\n      tag_243\n      tag_131\n      jump\t// in\n    tag_243:\n        /* \"#utility.yul\":3678:3797   */\n    tag_242:\n        /* \"#utility.yul\":3836:3837   */\n      0x00\n        /* \"#utility.yul\":3861:3914   */\n      tag_244\n        /* \"#utility.yul\":3906:3913   */\n      dup5\n        /* \"#utility.yul\":3897:3903   */\n      dup3\n        /* \"#utility.yul\":3886:3895   */\n      dup6\n        /* \"#utility.yul\":3882:3904   */\n      add\n        /* \"#utility.yul\":3861:3914   */\n      tag_136\n      jump\t// in\n    tag_244:\n        /* \"#utility.yul\":3851:3914   */\n      swap2\n      pop\n        /* \"#utility.yul\":3807:3924   */\n      pop\n        /* \"#utility.yul\":3602:3931   */\n      swap3\n      swap2\n      pop\n      pop\n      jump\t// out\n        /* \"#utility.yul\":3937:4072   */\n    tag_147:\n        /* \"#utility.yul\":4025:4031   */\n      0x00\n        /* \"#utility.yul\":4059:4064   */\n      dup2\n        /* \"#utility.yul\":4053:4065   */\n      mload\n        /* \"#utility.yul\":4043:4065   */\n      swap1\n      pop\n        /* \"#utility.yul\":3937:4072   */\n      swap2\n      swap1\n      pop\n      jump\t// out\n        /* \"#utility.yul\":4078:4283   */\n    tag_148:\n        /* \"#utility.yul\":4198:4209   */\n      0x00\n        /* \"#utility.yul\":4232:4238   */\n      dup3\n        /* \"#utility.yul\":4227:4230   */\n      dup3\n        /* \"#utility.yul\":4220:4239   */\n      mstore\n        /* \"#utility.yul\":4272:4276   */\n      0x20\n        /* \"#utility.yul\":4267:4270   */\n      dup3\n        /* \"#utility.yul\":4263:4277   */\n      add\n        /* \"#utility.yul\":4248:4277   */\n      swap1\n      pop\n        /* \"#utility.yul\":4078:4283   */\n      swap3\n      swap2\n      pop\n      pop\n      jump\t// out\n        /* \"#utility.yul\":4289:4442   */\n    tag_149:\n        /* \"#utility.yul\":4377:4381   */\n      0x00\n        /* \"#utility.yul\":4400:4403   */\n      dup2\n        /* \"#utility.yul\":4392:4403   */\n      swap1\n      pop\n        /* \"#utility.yul\":4430:4434   */\n      0x20\n        /* \"#utility.yul\":4425:4428   */\n      dup3\n        /* \"#utility.yul\":4421:4435   */\n      add\n        /* \"#utility.yul\":4413:4435   */\n      swap1\n      pop\n        /* \"#utility.yul\":4289:4442   */\n      swap2\n      swap1\n      pop\n      jump\t// out\n        /* \"#utility.yul\":4448:4556   */\n    tag_150:\n        /* \"#utility.yul\":4525:4549   */\n      tag_249\n        /* \"#utility.yul\":4543:4548   */\n      dup2\n        /* \"#utility.yul\":4525:4549   */\n      tag_134\n      jump\t// in\n    tag_249:\n        /* \"#utility.yul\":4520:4523   */\n      dup3\n        /* \"#utility.yul\":4513:4550   */\n      mstore\n        /* \"#utility.yul\":4448:4556   */\n      pop\n      pop\n      jump\t// out\n        /* \"#utility.yul\":4562:4721   */\n    tag_151:\n        /* \"#utility.yul\":4636:4647   */\n      0x00\n        /* \"#utility.yul\":4670:4676   */\n      dup3\n        /* \"#utility.yul\":4665:4668   */\n      dup3\n        /* \"#utility.yul\":4658:4677   */\n      mstore\n        /* \"#utility.yul\":4710:4714   */\n      0x20\n        /* \"#utility.yul\":4705:4708   */\n      dup3\n        /* \"#utility.yul\":4701:4715   */\n      add\n        /* \"#utility.yul\":4686:4715   */\n      swap1\n      pop\n        /* \"#utility.yul\":4562:4721   */\n      swap3\n      swap2\n      pop\n      pop\n      jump\t// out\n        /* \"#utility.yul\":4727:5084   */\n    tag_152:\n        /* \"#utility.yul\":4805:4808   */\n      0x00\n        /* \"#utility.yul\":4833:4872   */\n      tag_252\n        /* \"#utility.yul\":4866:4871   */\n      dup3\n        /* \"#utility.yul\":4833:4872   */\n      tag_141\n      jump\t// in\n    tag_252:\n        /* \"#utility.yul\":4888:4949   */\n      tag_253\n        /* \"#utility.yul\":4942:4948   */\n      dup2\n        /* \"#utility.yul\":4937:4940   */\n      dup6\n        /* \"#utility.yul\":4888:4949   */\n      tag_151\n      jump\t// in\n    tag_253:\n        /* \"#utility.yul\":4881:4949   */\n      swap4\n      pop\n        /* \"#utility.yul\":4958:5023   */\n      tag_254\n        /* \"#utility.yul\":5016:5022   */\n      dup2\n        /* \"#utility.yul\":5011:5014   */\n      dup6\n        /* \"#utility.yul\":5004:5008   */\n      0x20\n        /* \"#utility.yul\":4997:5002   */\n      dup7\n        /* \"#utility.yul\":4993:5009   */\n      add\n        /* \"#utility.yul\":4958:5023   */\n      tag_143\n      jump\t// in\n    tag_254:\n        /* \"#utility.yul\":5048:5077   */\n      tag_255\n        /* \"#utility.yul\":5070:5076   */\n      dup2\n        /* \"#utility.yul\":5048:5077   */\n      tag_144\n      jump\t// in\n    tag_255:\n        /* \"#utility.yul\":5043:5046   */\n      dup5\n        /* \"#utility.yul\":5039:5078   */\n      add\n        /* \"#utility.yul\":5032:5078   */\n      swap2\n      pop\n        /* \"#utility.yul\":4809:5084   */\n      pop\n        /* \"#utility.yul\":4727:5084   */\n      swap3\n      swap2\n      pop\n      pop\n      jump\t// out\n        /* \"#utility.yul\":5090:5198   */\n    tag_153:\n        /* \"#utility.yul\":5167:5191   */\n      tag_257\n        /* \"#utility.yul\":5185:5190   */\n      dup2\n        /* \"#utility.yul\":5167:5191   */\n      tag_137\n      jump\t// in\n    tag_257:\n        /* \"#utility.yul\":5162:5165   */\n      dup3\n        /* \"#utility.yul\":5155:5192   */\n      mstore\n        /* \"#utility.yul\":5090:5198   */\n      pop\n      pop\n      jump\t// out\n        /* \"#utility.yul\":5256:6375   */\n    tag_154:\n        /* \"#utility.yul\":5357:5360   */\n      0x00\n        /* \"#utility.yul\":5393:5397   */\n      0xa0\n        /* \"#utility.yul\":5388:5391   */\n      dup4\n        /* \"#utility.yul\":5384:5398   */\n      add\n        /* \"#utility.yul\":5482:5486   */\n      0x00\n        /* \"#utility.yul\":5475:5480   */\n      dup4\n        /* \"#utility.yul\":5471:5487   */\n      add\n        /* \"#utility.yul\":5465:5488   */\n      mload\n        /* \"#utility.yul\":5501:5564   */\n      tag_259\n        /* \"#utility.yul\":5558:5562   */\n      0x00\n        /* \"#utility.yul\":5553:5556   */\n      dup7\n        /* \"#utility.yul\":5549:5563   */\n      add\n        /* \"#utility.yul\":5535:5547   */\n      dup3\n        /* \"#utility.yul\":5501:5564   */\n      tag_150\n      jump\t// in\n    tag_259:\n        /* \"#utility.yul\":5408:5574   */\n      pop\n        /* \"#utility.yul\":5659:5663   */\n      0x20\n        /* \"#utility.yul\":5652:5657   */\n      dup4\n        /* \"#utility.yul\":5648:5664   */\n      add\n        /* \"#utility.yul\":5642:5665   */\n      mload\n        /* \"#utility.yul\":5712:5715   */\n      dup5\n        /* \"#utility.yul\":5706:5710   */\n      dup3\n        /* \"#utility.yul\":5702:5716   */\n      sub\n        /* \"#utility.yul\":5695:5699   */\n      0x20\n        /* \"#utility.yul\":5690:5693   */\n      dup7\n        /* \"#utility.yul\":5686:5700   */\n      add\n        /* \"#utility.yul\":5679:5717   */\n      mstore\n        /* \"#utility.yul\":5738:5811   */\n      tag_260\n        /* \"#utility.yul\":5806:5810   */\n      dup3\n        /* \"#utility.yul\":5792:5804   */\n      dup3\n        /* \"#utility.yul\":5738:5811   */\n      tag_152\n      jump\t// in\n    tag_260:\n        /* \"#utility.yul\":5730:5811   */\n      swap2\n      pop\n        /* \"#utility.yul\":5584:5822   */\n      pop\n        /* \"#utility.yul\":5909:5913   */\n      0x40\n        /* \"#utility.yul\":5902:5907   */\n      dup4\n        /* \"#utility.yul\":5898:5914   */\n      add\n        /* \"#utility.yul\":5892:5915   */\n      mload\n        /* \"#utility.yul\":5928:5991   */\n      tag_261\n        /* \"#utility.yul\":5985:5989   */\n      0x40\n        /* \"#utility.yul\":5980:5983   */\n      dup7\n        /* \"#utility.yul\":5976:5990   */\n      add\n        /* \"#utility.yul\":5962:5974   */\n      dup3\n        /* \"#utility.yul\":5928:5991   */\n      tag_153\n      jump\t// in\n    tag_261:\n        /* \"#utility.yul\":5832:6001   */\n      pop\n        /* \"#utility.yul\":6084:6088   */\n      0x60\n        /* \"#utility.yul\":6077:6082   */\n      dup4\n        /* \"#utility.yul\":6073:6089   */\n      add\n        /* \"#utility.yul\":6067:6090   */\n      mload\n        /* \"#utility.yul\":6103:6166   */\n      tag_262\n        /* \"#utility.yul\":6160:6164   */\n      0x60\n        /* \"#utility.yul\":6155:6158   */\n      dup7\n        /* \"#utility.yul\":6151:6165   */\n      add\n        /* \"#utility.yul\":6137:6149   */\n      dup3\n        /* \"#utility.yul\":6103:6166   */\n      tag_153\n      jump\t// in\n    tag_262:\n        /* \"#utility.yul\":6011:6176   */\n      pop\n        /* \"#utility.yul\":6256:6260   */\n      0x80\n        /* \"#utility.yul\":6249:6254   */\n      dup4\n        /* \"#utility.yul\":6245:6261   */\n      add\n        /* \"#utility.yul\":6239:6262   */\n      mload\n        /* \"#utility.yul\":6275:6338   */\n      tag_263\n        /* \"#utility.yul\":6332:6336   */\n      0x80\n        /* \"#utility.yul\":6327:6330   */\n      dup7\n        /* \"#utility.yul\":6323:6337   */\n      add\n        /* \"#utility.yul\":6309:6321   */\n      dup3\n        /* \"#utility.yul\":6275:6338   */\n      tag_153\n      jump\t// in\n    tag_263:\n        /* \"#utility.yul\":6186:6348   */\n      pop\n        /* \"#utility.yul\":6365:6369   */\n      dup1\n        /* \"#utility.yul\":6358:6369   */\n      swap2\n      pop\n        /* \"#utility.yul\":5362:6375   */\n      pop\n        /* \"#utility.yul\":5256:6375   */\n      swap3\n      swap2\n      pop\n      pop\n      jump\t// out\n        /* \"#utility.yul\":6381:6621   */\n    tag_155:\n        /* \"#utility.yul\":6492:6502   */\n      0x00\n        /* \"#utility.yul\":6527:6615   */\n      tag_265\n        /* \"#utility.yul\":6611:6614   */\n      dup4\n        /* \"#utility.yul\":6603:6609   */\n      dup4\n        /* \"#utility.yul\":6527:6615   */\n      tag_154\n      jump\t// in\n    tag_265:\n        /* \"#utility.yul\":6513:6615   */\n      swap1\n      pop\n        /* \"#utility.yul\":6381:6621   */\n      swap3\n      swap2\n      pop\n      pop\n      jump\t// out\n        /* \"#utility.yul\":6627:6761   */\n    tag_156:\n        /* \"#utility.yul\":6718:6722   */\n      0x00\n        /* \"#utility.yul\":6750:6754   */\n      0x20\n        /* \"#utility.yul\":6745:6748   */\n      dup3\n        /* \"#utility.yul\":6741:6755   */\n      add\n        /* \"#utility.yul\":6733:6755   */\n      swap1\n      pop\n        /* \"#utility.yul\":6627:6761   */\n      swap2\n      swap1\n      pop\n      jump\t// out\n        /* \"#utility.yul\":6823:7902   */\n    tag_157:\n        /* \"#utility.yul\":6984:6987   */\n      0x00\n        /* \"#utility.yul\":7013:7088   */\n      tag_268\n        /* \"#utility.yul\":7082:7087   */\n      dup3\n        /* \"#utility.yul\":7013:7088   */\n      tag_147\n      jump\t// in\n    tag_268:\n        /* \"#utility.yul\":7104:7211   */\n      tag_269\n        /* \"#utility.yul\":7204:7210   */\n      dup2\n        /* \"#utility.yul\":7199:7202   */\n      dup6\n        /* \"#utility.yul\":7104:7211   */\n      tag_148\n      jump\t// in\n    tag_269:\n        /* \"#utility.yul\":7097:7211   */\n      swap4\n      pop\n        /* \"#utility.yul\":7237:7240   */\n      dup4\n        /* \"#utility.yul\":7282:7286   */\n      0x20\n        /* \"#utility.yul\":7274:7280   */\n      dup3\n        /* \"#utility.yul\":7270:7287   */\n      mul\n        /* \"#utility.yul\":7265:7268   */\n      dup6\n        /* \"#utility.yul\":7261:7288   */\n      add\n        /* \"#utility.yul\":7312:7389   */\n      tag_270\n        /* \"#utility.yul\":7383:7388   */\n      dup6\n        /* \"#utility.yul\":7312:7389   */\n      tag_149\n      jump\t// in\n    tag_270:\n        /* \"#utility.yul\":7412:7419   */\n      dup1\n        /* \"#utility.yul\":7443:7444   */\n      0x00\n        /* \"#utility.yul\":7428:7857   */\n    tag_271:\n        /* \"#utility.yul\":7453:7459   */\n      dup6\n        /* \"#utility.yul\":7450:7451   */\n      dup2\n        /* \"#utility.yul\":7447:7460   */\n      lt\n        /* \"#utility.yul\":7428:7857   */\n      iszero\n      tag_273\n      jumpi\n        /* \"#utility.yul\":7524:7533   */\n      dup5\n        /* \"#utility.yul\":7518:7522   */\n      dup5\n        /* \"#utility.yul\":7514:7534   */\n      sub\n        /* \"#utility.yul\":7509:7512   */\n      dup10\n        /* \"#utility.yul\":7502:7535   */\n      mstore\n        /* \"#utility.yul\":7575:7581   */\n      dup2\n        /* \"#utility.yul\":7569:7582   */\n      mload\n        /* \"#utility.yul\":7603:7709   */\n      tag_274\n        /* \"#utility.yul\":7704:7708   */\n      dup6\n        /* \"#utility.yul\":7689:7702   */\n      dup3\n        /* \"#utility.yul\":7603:7709   */\n      tag_155\n      jump\t// in\n    tag_274:\n        /* \"#utility.yul\":7595:7709   */\n      swap5\n      pop\n        /* \"#utility.yul\":7732:7813   */\n      tag_275\n        /* \"#utility.yul\":7806:7812   */\n      dup4\n        /* \"#utility.yul\":7732:7813   */\n      tag_156\n      jump\t// in\n    tag_275:\n        /* \"#utility.yul\":7722:7813   */\n      swap3\n      pop\n        /* \"#utility.yul\":7842:7846   */\n      0x20\n        /* \"#utility.yul\":7837:7840   */\n      dup11\n        /* \"#utility.yul\":7833:7847   */\n      add\n        /* \"#utility.yul\":7826:7847   */\n      swap10\n      pop\n        /* \"#utility.yul\":7488:7857   */\n      pop\n        /* \"#utility.yul\":7475:7476   */\n      0x01\n        /* \"#utility.yul\":7472:7473   */\n      dup2\n        /* \"#utility.yul\":7468:7477   */\n      add\n        /* \"#utility.yul\":7463:7477   */\n      swap1\n      pop\n        /* \"#utility.yul\":7428:7857   */\n      jump(tag_271)\n    tag_273:\n        /* \"#utility.yul\":7432:7446   */\n      pop\n        /* \"#utility.yul\":7873:7877   */\n      dup3\n        /* \"#utility.yul\":7866:7877   */\n      swap8\n      pop\n        /* \"#utility.yul\":7893:7896   */\n      dup8\n        /* \"#utility.yul\":7886:7896   */\n      swap6\n      pop\n        /* \"#utility.yul\":6989:7902   */\n      pop\n      pop\n      pop\n      pop\n      pop\n        /* \"#utility.yul\":6823:7902   */\n      swap3\n      swap2\n      pop\n      pop\n      jump\t// out\n        /* \"#utility.yul\":7908:8365   */\n    tag_24:\n        /* \"#utility.yul\":8093:8097   */\n      0x00\n        /* \"#utility.yul\":8131:8133   */\n      0x20\n        /* \"#utility.yul\":8120:8129   */\n      dup3\n        /* \"#utility.yul\":8116:8134   */\n      add\n        /* \"#utility.yul\":8108:8134   */\n      swap1\n      pop\n        /* \"#utility.yul\":8180:8189   */\n      dup2\n        /* \"#utility.yul\":8174:8178   */\n      dup2\n        /* \"#utility.yul\":8170:8190   */\n      sub\n        /* \"#utility.yul\":8166:8167   */\n      0x00\n        /* \"#utility.yul\":8155:8164   */\n      dup4\n        /* \"#utility.yul\":8151:8168   */\n      add\n        /* \"#utility.yul\":8144:8191   */\n      mstore\n        /* \"#utility.yul\":8208:8358   */\n      tag_277\n        /* \"#utility.yul\":8353:8357   */\n      dup2\n        /* \"#utility.yul\":8344:8350   */\n      dup5\n        /* \"#utility.yul\":8208:8358   */\n      tag_157\n      jump\t// in\n    tag_277:\n        /* \"#utility.yul\":8200:8358   */\n      swap1\n      pop\n        /* \"#utility.yul\":7908:8365   */\n      swap3\n      swap2\n      pop\n      pop\n      jump\t// out\n        /* \"#utility.yul\":8371:8460   */\n    tag_158:\n        /* \"#utility.yul\":8407:8414   */\n      0x00\n        /* \"#utility.yul\":8447:8453   */\n      0xffff\n        /* \"#utility.yul\":8440:8445   */\n      dup3\n        /* \"#utility.yul\":8436:8454   */\n      and\n        /* \"#utility.yul\":8425:8454   */\n      swap1\n      pop\n        /* \"#utility.yul\":8371:8460   */\n      swap2\n      swap1\n      pop\n      jump\t// out\n        /* \"#utility.yul\":8466:8586   */\n    tag_159:\n        /* \"#utility.yul\":8538:8561   */\n      tag_280\n        /* \"#utility.yul\":8555:8560   */\n      dup2\n        /* \"#utility.yul\":8538:8561   */\n      tag_158\n      jump\t// in\n    tag_280:\n        /* \"#utility.yul\":8531:8536   */\n      dup2\n        /* \"#utility.yul\":8528:8562   */\n      eq\n        /* \"#utility.yul\":8518:8580   */\n      tag_281\n      jumpi\n        /* \"#utility.yul\":8576:8577   */\n      0x00\n        /* \"#utility.yul\":8573:8574   */\n      dup1\n        /* \"#utility.yul\":8566:8578   */\n      revert\n        /* \"#utility.yul\":8518:8580   */\n    tag_281:\n        /* \"#utility.yul\":8466:8586   */\n      pop\n      jump\t// out\n        /* \"#utility.yul\":8592:8729   */\n    tag_160:\n        /* \"#utility.yul\":8637:8642   */\n      0x00\n        /* \"#utility.yul\":8675:8681   */\n      dup2\n        /* \"#utility.yul\":8662:8682   */\n      calldataload\n        /* \"#utility.yul\":8653:8682   */\n      swap1\n      pop\n        /* \"#utility.yul\":8691:8723   */\n      tag_283\n        /* \"#utility.yul\":8717:8722   */\n      dup2\n        /* \"#utility.yul\":8691:8723   */\n      tag_159\n      jump\t// in\n    tag_283:\n        /* \"#utility.yul\":8592:8729   */\n      swap3\n      swap2\n      pop\n      pop\n      jump\t// out\n        /* \"#utility.yul\":8735:9062   */\n    tag_27:\n        /* \"#utility.yul\":8793:8799   */\n      0x00\n        /* \"#utility.yul\":8842:8844   */\n      0x20\n        /* \"#utility.yul\":8830:8839   */\n      dup3\n        /* \"#utility.yul\":8821:8828   */\n      dup5\n        /* \"#utility.yul\":8817:8840   */\n      sub\n        /* \"#utility.yul\":8813:8845   */\n      slt\n        /* \"#utility.yul\":8810:8929   */\n      iszero\n      tag_285\n      jumpi\n        /* \"#utility.yul\":8848:8927   */\n      tag_286\n      tag_131\n      jump\t// in\n    tag_286:\n        /* \"#utility.yul\":8810:8929   */\n    tag_285:\n        /* \"#utility.yul\":8968:8969   */\n      0x00\n        /* \"#utility.yul\":8993:9045   */\n      tag_287\n        /* \"#utility.yul\":9037:9044   */\n      dup5\n        /* \"#utility.yul\":9028:9034   */\n      dup3\n        /* \"#utility.yul\":9017:9026   */\n      dup6\n        /* \"#utility.yul\":9013:9035   */\n      add\n        /* \"#utility.yul\":8993:9045   */\n      tag_160\n      jump\t// in\n    tag_287:\n        /* \"#utility.yul\":8983:9045   */\n      swap2\n      pop\n        /* \"#utility.yul\":8939:9055   */\n      pop\n        /* \"#utility.yul\":8735:9062   */\n      swap3\n      swap2\n      pop\n      pop\n      jump\t// out\n        /* \"#utility.yul\":9068:9183   */\n    tag_161:\n        /* \"#utility.yul\":9153:9176   */\n      tag_289\n        /* \"#utility.yul\":9170:9175   */\n      dup2\n        /* \"#utility.yul\":9153:9176   */\n      tag_158\n      jump\t// in\n    tag_289:\n        /* \"#utility.yul\":9148:9151   */\n      dup3\n        /* \"#utility.yul\":9141:9177   */\n      mstore\n        /* \"#utility.yul\":9068:9183   */\n      pop\n      pop\n      jump\t// out\n        /* \"#utility.yul\":9189:9407   */\n    tag_32:\n        /* \"#utility.yul\":9280:9284   */\n      0x00\n        /* \"#utility.yul\":9318:9320   */\n      0x20\n        /* \"#utility.yul\":9307:9316   */\n      dup3\n        /* \"#utility.yul\":9303:9321   */\n      add\n        /* \"#utility.yul\":9295:9321   */\n      swap1\n      pop\n        /* \"#utility.yul\":9331:9400   */\n      tag_291\n        /* \"#utility.yul\":9397:9398   */\n      0x00\n        /* \"#utility.yul\":9386:9395   */\n      dup4\n        /* \"#utility.yul\":9382:9399   */\n      add\n        /* \"#utility.yul\":9373:9379   */\n      dup5\n        /* \"#utility.yul\":9331:9400   */\n      tag_161\n      jump\t// in\n    tag_291:\n        /* \"#utility.yul\":9189:9407   */\n      swap3\n      swap2\n      pop\n      pop\n      jump\t// out\n        /* \"#utility.yul\":9413:9887   */\n    tag_35:\n        /* \"#utility.yul\":9481:9487   */\n      0x00\n        /* \"#utility.yul\":9489:9495   */\n      dup1\n        /* \"#utility.yul\":9538:9540   */\n      0x40\n        /* \"#utility.yul\":9526:9535   */\n      dup4\n        /* \"#utility.yul\":9517:9524   */\n      dup6\n        /* \"#utility.yul\":9513:9536   */\n      sub\n        /* \"#utility.yul\":9509:9541   */\n      slt\n        /* \"#utility.yul\":9506:9625   */\n      iszero\n      tag_293\n      jumpi\n        /* \"#utility.yul\":9544:9623   */\n      tag_294\n      tag_131\n      jump\t// in\n    tag_294:\n        /* \"#utility.yul\":9506:9625   */\n    tag_293:\n        /* \"#utility.yul\":9664:9665   */\n      0x00\n        /* \"#utility.yul\":9689:9742   */\n      tag_295\n        /* \"#utility.yul\":9734:9741   */\n      dup6\n        /* \"#utility.yul\":9725:9731   */\n      dup3\n        /* \"#utility.yul\":9714:9723   */\n      dup7\n        /* \"#utility.yul\":9710:9732   */\n      add\n        /* \"#utility.yul\":9689:9742   */\n      tag_139\n      jump\t// in\n    tag_295:\n        /* \"#utility.yul\":9679:9742   */\n      swap3\n      pop\n        /* \"#utility.yul\":9635:9752   */\n      pop\n        /* \"#utility.yul\":9791:9793   */\n      0x20\n        /* \"#utility.yul\":9817:9870   */\n      tag_296\n        /* \"#utility.yul\":9862:9869   */\n      dup6\n        /* \"#utility.yul\":9853:9859   */\n      dup3\n        /* \"#utility.yul\":9842:9851   */\n      dup7\n        /* \"#utility.yul\":9838:9860   */\n      add\n        /* \"#utility.yul\":9817:9870   */\n      tag_136\n      jump\t// in\n    tag_296:\n        /* \"#utility.yul\":9807:9870   */\n      swap2\n      pop\n        /* \"#utility.yul\":9762:9880   */\n      pop\n        /* \"#utility.yul\":9413:9887   */\n      swap3\n      pop\n      swap3\n      swap1\n      pop\n      jump\t// out\n        /* \"#utility.yul\":9893:10010   */\n    tag_162:\n        /* \"#utility.yul\":10002:10003   */\n      0x00\n        /* \"#utility.yul\":9999:10000   */\n      dup1\n        /* \"#utility.yul\":9992:10004   */\n      revert\n        /* \"#utility.yul\":10016:10133   */\n    tag_163:\n        /* \"#utility.yul\":10125:10126   */\n      0x00\n        /* \"#utility.yul\":10122:10123   */\n      dup1\n        /* \"#utility.yul\":10115:10127   */\n      revert\n        /* \"#utility.yul\":10139:10319   */\n    tag_164:\n        /* \"#utility.yul\":10187:10264   */\n      0x4e487b7100000000000000000000000000000000000000000000000000000000\n        /* \"#utility.yul\":10184:10185   */\n      0x00\n        /* \"#utility.yul\":10177:10265   */\n      mstore\n        /* \"#utility.yul\":10284:10288   */\n      0x41\n        /* \"#utility.yul\":10281:10282   */\n      0x04\n        /* \"#utility.yul\":10274:10289   */\n      mstore\n        /* \"#utility.yul\":10308:10312   */\n      0x24\n        /* \"#utility.yul\":10305:10306   */\n      0x00\n        /* \"#utility.yul\":10298:10313   */\n      revert\n        /* \"#utility.yul\":10325:10606   */\n    tag_165:\n        /* \"#utility.yul\":10408:10435   */\n      tag_301\n        /* \"#utility.yul\":10430:10434   */\n      dup3\n        /* \"#utility.yul\":10408:10435   */\n      tag_144\n      jump\t// in\n    tag_301:\n        /* \"#utility.yul\":10400:10406   */\n      dup2\n        /* \"#utility.yul\":10396:10436   */\n      add\n        /* \"#utility.yul\":10538:10544   */\n      dup2\n        /* \"#utility.yul\":10526:10536   */\n      dup2\n        /* \"#utility.yul\":10523:10545   */\n      lt\n        /* \"#utility.yul\":10502:10520   */\n      0xffffffffffffffff\n        /* \"#utility.yul\":10490:10500   */\n      dup3\n        /* \"#utility.yul\":10487:10521   */\n      gt\n        /* \"#utility.yul\":10484:10546   */\n      or\n        /* \"#utility.yul\":10481:10569   */\n      iszero\n      tag_302\n      jumpi\n        /* \"#utility.yul\":10549:10567   */\n      tag_303\n      tag_164\n      jump\t// in\n    tag_303:\n        /* \"#utility.yul\":10481:10569   */\n    tag_302:\n        /* \"#utility.yul\":10589:10599   */\n      dup1\n        /* \"#utility.yul\":10585:10587   */\n      0x40\n        /* \"#utility.yul\":10578:10600   */\n      mstore\n        /* \"#utility.yul\":10368:10606   */\n      pop\n        /* \"#utility.yul\":10325:10606   */\n      pop\n      pop\n      jump\t// out\n        /* \"#utility.yul\":10612:10741   */\n    tag_166:\n        /* \"#utility.yul\":10646:10652   */\n      0x00\n        /* \"#utility.yul\":10673:10693   */\n      tag_305\n      tag_130\n      jump\t// in\n    tag_305:\n        /* \"#utility.yul\":10663:10693   */\n      swap1\n      pop\n        /* \"#utility.yul\":10702:10735   */\n      tag_306\n        /* \"#utility.yul\":10730:10734   */\n      dup3\n        /* \"#utility.yul\":10722:10728   */\n      dup3\n        /* \"#utility.yul\":10702:10735   */\n      tag_165\n      jump\t// in\n    tag_306:\n        /* \"#utility.yul\":10612:10741   */\n      swap2\n      swap1\n      pop\n      jump\t// out\n        /* \"#utility.yul\":10747:11055   */\n    tag_167:\n        /* \"#utility.yul\":10809:10813   */\n      0x00\n        /* \"#utility.yul\":10899:10917   */\n      0xffffffffffffffff\n        /* \"#utility.yul\":10891:10897   */\n      dup3\n        /* \"#utility.yul\":10888:10918   */\n      gt\n        /* \"#utility.yul\":10885:10941   */\n      iszero\n      tag_308\n      jumpi\n        /* \"#utility.yul\":10921:10939   */\n      tag_309\n      tag_164\n      jump\t// in\n    tag_309:\n        /* \"#utility.yul\":10885:10941   */\n    tag_308:\n        /* \"#utility.yul\":10959:10988   */\n      tag_310\n        /* \"#utility.yul\":10981:10987   */\n      dup3\n        /* \"#utility.yul\":10959:10988   */\n      tag_144\n      jump\t// in\n    tag_310:\n        /* \"#utility.yul\":10951:10988   */\n      swap1\n      pop\n        /* \"#utility.yul\":11043:11047   */\n      0x20\n        /* \"#utility.yul\":11037:11041   */\n      dup2\n        /* \"#utility.yul\":11033:11048   */\n      add\n        /* \"#utility.yul\":11025:11048   */\n      swap1\n      pop\n        /* \"#utility.yul\":10747:11055   */\n      swap2\n      swap1\n      pop\n      jump\t// out\n        /* \"#utility.yul\":11061:11209   */\n    tag_168:\n        /* \"#utility.yul\":11159:11165   */\n      dup3\n        /* \"#utility.yul\":11154:11157   */\n      dup2\n        /* \"#utility.yul\":11149:11152   */\n      dup4\n        /* \"#utility.yul\":11136:11166   */\n      calldatacopy\n        /* \"#utility.yul\":11200:11201   */\n      0x00\n        /* \"#utility.yul\":11191:11197   */\n      dup4\n        /* \"#utility.yul\":11186:11189   */\n      dup4\n        /* \"#utility.yul\":11182:11198   */\n      add\n        /* \"#utility.yul\":11175:11202   */\n      mstore\n        /* \"#utility.yul\":11061:11209   */\n      pop\n      pop\n      pop\n      jump\t// out\n        /* \"#utility.yul\":11215:11640   */\n    tag_169:\n        /* \"#utility.yul\":11293:11298   */\n      0x00\n        /* \"#utility.yul\":11318:11384   */\n      tag_313\n        /* \"#utility.yul\":11334:11383   */\n      tag_314\n        /* \"#utility.yul\":11376:11382   */\n      dup5\n        /* \"#utility.yul\":11334:11383   */\n      tag_167\n      jump\t// in\n    tag_314:\n        /* \"#utility.yul\":11318:11384   */\n      tag_166\n      jump\t// in\n    tag_313:\n        /* \"#utility.yul\":11309:11384   */\n      swap1\n      pop\n        /* \"#utility.yul\":11407:11413   */\n      dup3\n        /* \"#utility.yul\":11400:11405   */\n      dup2\n        /* \"#utility.yul\":11393:11414   */\n      mstore\n        /* \"#utility.yul\":11445:11449   */\n      0x20\n        /* \"#utility.yul\":11438:11443   */\n      dup2\n        /* \"#utility.yul\":11434:11450   */\n      add\n        /* \"#utility.yul\":11483:11486   */\n      dup5\n        /* \"#utility.yul\":11474:11480   */\n      dup5\n        /* \"#utility.yul\":11469:11472   */\n      dup5\n        /* \"#utility.yul\":11465:11481   */\n      add\n        /* \"#utility.yul\":11462:11487   */\n      gt\n        /* \"#utility.yul\":11459:11571   */\n      iszero\n      tag_315\n      jumpi\n        /* \"#utility.yul\":11490:11569   */\n      tag_316\n      tag_163\n      jump\t// in\n    tag_316:\n        /* \"#utility.yul\":11459:11571   */\n    tag_315:\n        /* \"#utility.yul\":11580:11634   */\n      tag_317\n        /* \"#utility.yul\":11627:11633   */\n      dup5\n        /* \"#utility.yul\":11622:11625   */\n      dup3\n        /* \"#utility.yul\":11617:11620   */\n      dup6\n        /* \"#utility.yul\":11580:11634   */\n      tag_168\n      jump\t// in\n    tag_317:\n        /* \"#utility.yul\":11299:11640   */\n      pop\n        /* \"#utility.yul\":11215:11640   */\n      swap4\n      swap3\n      pop\n      pop\n      pop\n      jump\t// out\n        /* \"#utility.yul\":11660:12000   */\n    tag_170:\n        /* \"#utility.yul\":11716:11721   */\n      0x00\n        /* \"#utility.yul\":11765:11768   */\n      dup3\n        /* \"#utility.yul\":11758:11762   */\n      0x1f\n        /* \"#utility.yul\":11750:11756   */\n      dup4\n        /* \"#utility.yul\":11746:11763   */\n      add\n        /* \"#utility.yul\":11742:11769   */\n      slt\n        /* \"#utility.yul\":11732:11854   */\n      tag_319\n      jumpi\n        /* \"#utility.yul\":11773:11852   */\n      tag_320\n      tag_162\n      jump\t// in\n    tag_320:\n        /* \"#utility.yul\":11732:11854   */\n    tag_319:\n        /* \"#utility.yul\":11890:11896   */\n      dup2\n        /* \"#utility.yul\":11877:11897   */\n      calldataload\n        /* \"#utility.yul\":11915:11994   */\n      tag_321\n        /* \"#utility.yul\":11990:11993   */\n      dup5\n        /* \"#utility.yul\":11982:11988   */\n      dup3\n        /* \"#utility.yul\":11975:11979   */\n      0x20\n        /* \"#utility.yul\":11967:11973   */\n      dup7\n        /* \"#utility.yul\":11963:11980   */\n      add\n        /* \"#utility.yul\":11915:11994   */\n      tag_169\n      jump\t// in\n    tag_321:\n        /* \"#utility.yul\":11906:11994   */\n      swap2\n      pop\n        /* \"#utility.yul\":11722:12000   */\n      pop\n        /* \"#utility.yul\":11660:12000   */\n      swap3\n      swap2\n      pop\n      pop\n      jump\t// out\n        /* \"#utility.yul\":12006:12515   */\n    tag_39:\n        /* \"#utility.yul\":12075:12081   */\n      0x00\n        /* \"#utility.yul\":12124:12126   */\n      0x20\n        /* \"#utility.yul\":12112:12121   */\n      dup3\n        /* \"#utility.yul\":12103:12110   */\n      dup5\n        /* \"#utility.yul\":12099:12122   */\n      sub\n        /* \"#utility.yul\":12095:12127   */\n      slt\n        /* \"#utility.yul\":12092:12211   */\n      iszero\n      tag_323\n      jumpi\n        /* \"#utility.yul\":12130:12209   */\n      tag_324\n      tag_131\n      jump\t// in\n    tag_324:\n        /* \"#utility.yul\":12092:12211   */\n    tag_323:\n        /* \"#utility.yul\":12278:12279   */\n      0x00\n        /* \"#utility.yul\":12267:12276   */\n      dup3\n        /* \"#utility.yul\":12263:12280   */\n      add\n        /* \"#utility.yul\":12250:12281   */\n      calldataload\n        /* \"#utility.yul\":12308:12326   */\n      0xffffffffffffffff\n        /* \"#utility.yul\":12300:12306   */\n      dup2\n        /* \"#utility.yul\":12297:12327   */\n      gt\n        /* \"#utility.yul\":12294:12411   */\n      iszero\n      tag_325\n      jumpi\n        /* \"#utility.yul\":12330:12409   */\n      tag_326\n      tag_132\n      jump\t// in\n    tag_326:\n        /* \"#utility.yul\":12294:12411   */\n    tag_325:\n        /* \"#utility.yul\":12435:12498   */\n      tag_327\n        /* \"#utility.yul\":12490:12497   */\n      dup5\n        /* \"#utility.yul\":12481:12487   */\n      dup3\n        /* \"#utility.yul\":12470:12479   */\n      dup6\n        /* \"#utility.yul\":12466:12488   */\n      add\n        /* \"#utility.yul\":12435:12498   */\n      tag_170\n      jump\t// in\n    tag_327:\n        /* \"#utility.yul\":12425:12498   */\n      swap2\n      pop\n        /* \"#utility.yul\":12221:12508   */\n      pop\n        /* \"#utility.yul\":12006:12515   */\n      swap3\n      swap2\n      pop\n      pop\n      jump\t// out\n        /* \"#utility.yul\":12521:12743   */\n    tag_44:\n        /* \"#utility.yul\":12614:12618   */\n      0x00\n        /* \"#utility.yul\":12652:12654   */\n      0x20\n        /* \"#utility.yul\":12641:12650   */\n      dup3\n        /* \"#utility.yul\":12637:12655   */\n      add\n        /* \"#utility.yul\":12629:12655   */\n      swap1\n      pop\n        /* \"#utility.yul\":12665:12736   */\n      tag_329\n        /* \"#utility.yul\":12733:12734   */\n      0x00\n        /* \"#utility.yul\":12722:12731   */\n      dup4\n        /* \"#utility.yul\":12718:12735   */\n      add\n        /* \"#utility.yul\":12709:12715   */\n      dup5\n        /* \"#utility.yul\":12665:12736   */\n      tag_140\n      jump\t// in\n    tag_329:\n        /* \"#utility.yul\":12521:12743   */\n      swap3\n      swap2\n      pop\n      pop\n      jump\t// out\n        /* \"#utility.yul\":12749:13078   */\n    tag_47:\n        /* \"#utility.yul\":12808:12814   */\n      0x00\n        /* \"#utility.yul\":12857:12859   */\n      0x20\n        /* \"#utility.yul\":12845:12854   */\n      dup3\n        /* \"#utility.yul\":12836:12843   */\n      dup5\n        /* \"#utility.yul\":12832:12855   */\n      sub\n        /* \"#utility.yul\":12828:12860   */\n      slt\n        /* \"#utility.yul\":12825:12944   */\n      iszero\n      tag_331\n      jumpi\n        /* \"#utility.yul\":12863:12942   */\n      tag_332\n      tag_131\n      jump\t// in\n    tag_332:\n        /* \"#utility.yul\":12825:12944   */\n    tag_331:\n        /* \"#utility.yul\":12983:12984   */\n      0x00\n        /* \"#utility.yul\":13008:13061   */\n      tag_333\n        /* \"#utility.yul\":13053:13060   */\n      dup5\n        /* \"#utility.yul\":13044:13050   */\n      dup3\n        /* \"#utility.yul\":13033:13042   */\n      dup6\n        /* \"#utility.yul\":13029:13051   */\n      add\n        /* \"#utility.yul\":13008:13061   */\n      tag_139\n      jump\t// in\n    tag_333:\n        /* \"#utility.yul\":12998:13061   */\n      swap2\n      pop\n        /* \"#utility.yul\":12954:13071   */\n      pop\n        /* \"#utility.yul\":12749:13078   */\n      swap3\n      swap2\n      pop\n      pop\n      jump\t// out\n        /* \"#utility.yul\":13136:14265   */\n    tag_171:\n        /* \"#utility.yul\":13247:13250   */\n      0x00\n        /* \"#utility.yul\":13283:13287   */\n      0xa0\n        /* \"#utility.yul\":13278:13281   */\n      dup4\n        /* \"#utility.yul\":13274:13288   */\n      add\n        /* \"#utility.yul\":13372:13376   */\n      0x00\n        /* \"#utility.yul\":13365:13370   */\n      dup4\n        /* \"#utility.yul\":13361:13377   */\n      add\n        /* \"#utility.yul\":13355:13378   */\n      mload\n        /* \"#utility.yul\":13391:13454   */\n      tag_335\n        /* \"#utility.yul\":13448:13452   */\n      0x00\n        /* \"#utility.yul\":13443:13446   */\n      dup7\n        /* \"#utility.yul\":13439:13453   */\n      add\n        /* \"#utility.yul\":13425:13437   */\n      dup3\n        /* \"#utility.yul\":13391:13454   */\n      tag_150\n      jump\t// in\n    tag_335:\n        /* \"#utility.yul\":13298:13464   */\n      pop\n        /* \"#utility.yul\":13549:13553   */\n      0x20\n        /* \"#utility.yul\":13542:13547   */\n      dup4\n        /* \"#utility.yul\":13538:13554   */\n      add\n        /* \"#utility.yul\":13532:13555   */\n      mload\n        /* \"#utility.yul\":13602:13605   */\n      dup5\n        /* \"#utility.yul\":13596:13600   */\n      dup3\n        /* \"#utility.yul\":13592:13606   */\n      sub\n        /* \"#utility.yul\":13585:13589   */\n      0x20\n        /* \"#utility.yul\":13580:13583   */\n      dup7\n        /* \"#utility.yul\":13576:13590   */\n      add\n        /* \"#utility.yul\":13569:13607   */\n      mstore\n        /* \"#utility.yul\":13628:13701   */\n      tag_336\n        /* \"#utility.yul\":13696:13700   */\n      dup3\n        /* \"#utility.yul\":13682:13694   */\n      dup3\n        /* \"#utility.yul\":13628:13701   */\n      tag_152\n      jump\t// in\n    tag_336:\n        /* \"#utility.yul\":13620:13701   */\n      swap2\n      pop\n        /* \"#utility.yul\":13474:13712   */\n      pop\n        /* \"#utility.yul\":13799:13803   */\n      0x40\n        /* \"#utility.yul\":13792:13797   */\n      dup4\n        /* \"#utility.yul\":13788:13804   */\n      add\n        /* \"#utility.yul\":13782:13805   */\n      mload\n        /* \"#utility.yul\":13818:13881   */\n      tag_337\n        /* \"#utility.yul\":13875:13879   */\n      0x40\n        /* \"#utility.yul\":13870:13873   */\n      dup7\n        /* \"#utility.yul\":13866:13880   */\n      add\n        /* \"#utility.yul\":13852:13864   */\n      dup3\n        /* \"#utility.yul\":13818:13881   */\n      tag_153\n      jump\t// in\n    tag_337:\n        /* \"#utility.yul\":13722:13891   */\n      pop\n        /* \"#utility.yul\":13974:13978   */\n      0x60\n        /* \"#utility.yul\":13967:13972   */\n      dup4\n        /* \"#utility.yul\":13963:13979   */\n      add\n        /* \"#utility.yul\":13957:13980   */\n      mload\n        /* \"#utility.yul\":13993:14056   */\n      tag_338\n        /* \"#utility.yul\":14050:14054   */\n      0x60\n        /* \"#utility.yul\":14045:14048   */\n      dup7\n        /* \"#utility.yul\":14041:14055   */\n      add\n        /* \"#utility.yul\":14027:14039   */\n      dup3\n        /* \"#utility.yul\":13993:14056   */\n      tag_153\n      jump\t// in\n    tag_338:\n        /* \"#utility.yul\":13901:14066   */\n      pop\n        /* \"#utility.yul\":14146:14150   */\n      0x80\n        /* \"#utility.yul\":14139:14144   */\n      dup4\n        /* \"#utility.yul\":14135:14151   */\n      add\n        /* \"#utility.yul\":14129:14152   */\n      mload\n        /* \"#utility.yul\":14165:14228   */\n      tag_339\n        /* \"#utility.yul\":14222:14226   */\n      0x80\n        /* \"#utility.yul\":14217:14220   */\n      dup7\n        /* \"#utility.yul\":14213:14227   */\n      add\n        /* \"#utility.yul\":14199:14211   */\n      dup3\n        /* \"#utility.yul\":14165:14228   */\n      tag_153\n      jump\t// in\n    tag_339:\n        /* \"#utility.yul\":14076:14238   */\n      pop\n        /* \"#utility.yul\":14255:14259   */\n      dup1\n        /* \"#utility.yul\":14248:14259   */\n      swap2\n      pop\n        /* \"#utility.yul\":13252:14265   */\n      pop\n        /* \"#utility.yul\":13136:14265   */\n      swap3\n      swap2\n      pop\n      pop\n      jump\t// out\n        /* \"#utility.yul\":14271:14628   */\n    tag_50:\n        /* \"#utility.yul\":14406:14410   */\n      0x00\n        /* \"#utility.yul\":14444:14446   */\n      0x20\n        /* \"#utility.yul\":14433:14442   */\n      dup3\n        /* \"#utility.yul\":14429:14447   */\n      add\n        /* \"#utility.yul\":14421:14447   */\n      swap1\n      pop\n        /* \"#utility.yul\":14493:14502   */\n      dup2\n        /* \"#utility.yul\":14487:14491   */\n      dup2\n        /* \"#utility.yul\":14483:14503   */\n      sub\n        /* \"#utility.yul\":14479:14480   */\n      0x00\n        /* \"#utility.yul\":14468:14477   */\n      dup4\n        /* \"#utility.yul\":14464:14481   */\n      add\n        /* \"#utility.yul\":14457:14504   */\n      mstore\n        /* \"#utility.yul\":14521:14621   */\n      tag_341\n        /* \"#utility.yul\":14616:14620   */\n      dup2\n        /* \"#utility.yul\":14607:14613   */\n      dup5\n        /* \"#utility.yul\":14521:14621   */\n      tag_171\n      jump\t// in\n    tag_341:\n        /* \"#utility.yul\":14513:14621   */\n      swap1\n      pop\n        /* \"#utility.yul\":14271:14628   */\n      swap3\n      swap2\n      pop\n      pop\n      jump\t// out\n        /* \"#utility.yul\":14634:14814   */\n    tag_172:\n        /* \"#utility.yul\":14682:14759   */\n      0x4e487b7100000000000000000000000000000000000000000000000000000000\n        /* \"#utility.yul\":14679:14680   */\n      0x00\n        /* \"#utility.yul\":14672:14760   */\n      mstore\n        /* \"#utility.yul\":14779:14783   */\n      0x22\n        /* \"#utility.yul\":14776:14777   */\n      0x04\n        /* \"#utility.yul\":14769:14784   */\n      mstore\n        /* \"#utility.yul\":14803:14807   */\n      0x24\n        /* \"#utility.yul\":14800:14801   */\n      0x00\n        /* \"#utility.yul\":14793:14808   */\n      revert\n        /* \"#utility.yul\":14820:15140   */\n    tag_57:\n        /* \"#utility.yul\":14864:14870   */\n      0x00\n        /* \"#utility.yul\":14901:14902   */\n      0x02\n        /* \"#utility.yul\":14895:14899   */\n      dup3\n        /* \"#utility.yul\":14891:14903   */\n      div\n        /* \"#utility.yul\":14881:14903   */\n      swap1\n      pop\n        /* \"#utility.yul\":14948:14949   */\n      0x01\n        /* \"#utility.yul\":14942:14946   */\n      dup3\n        /* \"#utility.yul\":14938:14950   */\n      and\n        /* \"#utility.yul\":14969:14987   */\n      dup1\n        /* \"#utility.yul\":14959:15040   */\n      tag_344\n      jumpi\n        /* \"#utility.yul\":15025:15029   */\n      0x7f\n        /* \"#utility.yul\":15017:15023   */\n      dup3\n        /* \"#utility.yul\":15013:15030   */\n      and\n        /* \"#utility.yul\":15003:15030   */\n      swap2\n      pop\n        /* \"#utility.yul\":14959:15040   */\n    tag_344:\n        /* \"#utility.yul\":15087:15089   */\n      0x20\n        /* \"#utility.yul\":15079:15085   */\n      dup3\n        /* \"#utility.yul\":15076:15090   */\n      lt\n        /* \"#utility.yul\":15056:15074   */\n      dup2\n        /* \"#utility.yul\":15053:15091   */\n      sub\n        /* \"#utility.yul\":15050:15134   */\n      tag_345\n      jumpi\n        /* \"#utility.yul\":15106:15124   */\n      tag_346\n      tag_172\n      jump\t// in\n    tag_346:\n        /* \"#utility.yul\":15050:15134   */\n    tag_345:\n        /* \"#utility.yul\":14871:15140   */\n      pop\n        /* \"#utility.yul\":14820:15140   */\n      swap2\n      swap1\n      pop\n      jump\t// out\n        /* \"#utility.yul\":15146:15309   */\n    tag_173:\n        /* \"#utility.yul\":15286:15301   */\n      0x4e6f7420746865206f776e657200000000000000000000000000000000000000\n        /* \"#utility.yul\":15282:15283   */\n      0x00\n        /* \"#utility.yul\":15274:15280   */\n      dup3\n        /* \"#utility.yul\":15270:15284   */\n      add\n        /* \"#utility.yul\":15263:15302   */\n      mstore\n        /* \"#utility.yul\":15146:15309   */\n      pop\n      jump\t// out\n        /* \"#utility.yul\":15315:15681   */\n    tag_174:\n        /* \"#utility.yul\":15457:15460   */\n      0x00\n        /* \"#utility.yul\":15478:15545   */\n      tag_349\n        /* \"#utility.yul\":15542:15544   */\n      0x0d\n        /* \"#utility.yul\":15537:15540   */\n      dup4\n        /* \"#utility.yul\":15478:15545   */\n      tag_142\n      jump\t// in\n    tag_349:\n        /* \"#utility.yul\":15471:15545   */\n      swap2\n      pop\n        /* \"#utility.yul\":15554:15647   */\n      tag_350\n        /* \"#utility.yul\":15643:15646   */\n      dup3\n        /* \"#utility.yul\":15554:15647   */\n      tag_173\n      jump\t// in\n    tag_350:\n        /* \"#utility.yul\":15672:15674   */\n      0x20\n        /* \"#utility.yul\":15667:15670   */\n      dup3\n        /* \"#utility.yul\":15663:15675   */\n      add\n        /* \"#utility.yul\":15656:15675   */\n      swap1\n      pop\n        /* \"#utility.yul\":15315:15681   */\n      swap2\n      swap1\n      pop\n      jump\t// out\n        /* \"#utility.yul\":15687:16106   */\n    tag_74:\n        /* \"#utility.yul\":15853:15857   */\n      0x00\n        /* \"#utility.yul\":15891:15893   */\n      0x20\n        /* \"#utility.yul\":15880:15889   */\n      dup3\n        /* \"#utility.yul\":15876:15894   */\n      add\n        /* \"#utility.yul\":15868:15894   */\n      swap1\n      pop\n        /* \"#utility.yul\":15940:15949   */\n      dup2\n        /* \"#utility.yul\":15934:15938   */\n      dup2\n        /* \"#utility.yul\":15930:15950   */\n      sub\n        /* \"#utility.yul\":15926:15927   */\n      0x00\n        /* \"#utility.yul\":15915:15924   */\n      dup4\n        /* \"#utility.yul\":15911:15928   */\n      add\n        /* \"#utility.yul\":15904:15951   */\n      mstore\n        /* \"#utility.yul\":15968:16099   */\n      tag_352\n        /* \"#utility.yul\":16094:16098   */\n      dup2\n        /* \"#utility.yul\":15968:16099   */\n      tag_174\n      jump\t// in\n    tag_352:\n        /* \"#utility.yul\":15960:16099   */\n      swap1\n      pop\n        /* \"#utility.yul\":15687:16106   */\n      swap2\n      swap1\n      pop\n      jump\t// out\n        /* \"#utility.yul\":16112:16292   */\n    tag_79:\n        /* \"#utility.yul\":16160:16237   */\n      0x4e487b7100000000000000000000000000000000000000000000000000000000\n        /* \"#utility.yul\":16157:16158   */\n      0x00\n        /* \"#utility.yul\":16150:16238   */\n      mstore\n        /* \"#utility.yul\":16257:16261   */\n      0x32\n        /* \"#utility.yul\":16254:16255   */\n      0x04\n        /* \"#utility.yul\":16247:16262   */\n      mstore\n        /* \"#utility.yul\":16281:16285   */\n      0x24\n        /* \"#utility.yul\":16278:16279   */\n      0x00\n        /* \"#utility.yul\":16271:16286   */\n      revert\n        /* \"#utility.yul\":16298:16469   */\n    tag_175:\n        /* \"#utility.yul\":16438:16461   */\n      0x4e6965206d612074616b6965676f207477656574750000000000000000000000\n        /* \"#utility.yul\":16434:16435   */\n      0x00\n        /* \"#utility.yul\":16426:16432   */\n      dup3\n        /* \"#utility.yul\":16422:16436   */\n      add\n        /* \"#utility.yul\":16415:16462   */\n      mstore\n        /* \"#utility.yul\":16298:16469   */\n      pop\n      jump\t// out\n        /* \"#utility.yul\":16475:16841   */\n    tag_176:\n        /* \"#utility.yul\":16617:16620   */\n      0x00\n        /* \"#utility.yul\":16638:16705   */\n      tag_356\n        /* \"#utility.yul\":16702:16704   */\n      0x15\n        /* \"#utility.yul\":16697:16700   */\n      dup4\n        /* \"#utility.yul\":16638:16705   */\n      tag_142\n      jump\t// in\n    tag_356:\n        /* \"#utility.yul\":16631:16705   */\n      swap2\n      pop\n        /* \"#utility.yul\":16714:16807   */\n      tag_357\n        /* \"#utility.yul\":16803:16806   */\n      dup3\n        /* \"#utility.yul\":16714:16807   */\n      tag_175\n      jump\t// in\n    tag_357:\n        /* \"#utility.yul\":16832:16834   */\n      0x20\n        /* \"#utility.yul\":16827:16830   */\n      dup3\n        /* \"#utility.yul\":16823:16835   */\n      add\n        /* \"#utility.yul\":16816:16835   */\n      swap1\n      pop\n        /* \"#utility.yul\":16475:16841   */\n      swap2\n      swap1\n      pop\n      jump\t// out\n        /* \"#utility.yul\":16847:17266   */\n    tag_83:\n        /* \"#utility.yul\":17013:17017   */\n      0x00\n        /* \"#utility.yul\":17051:17053   */\n      0x20\n        /* \"#utility.yul\":17040:17049   */\n      dup3\n        /* \"#utility.yul\":17036:17054   */\n      add\n        /* \"#utility.yul\":17028:17054   */\n      swap1\n      pop\n        /* \"#utility.yul\":17100:17109   */\n      dup2\n        /* \"#utility.yul\":17094:17098   */\n      dup2\n        /* \"#utility.yul\":17090:17110   */\n      sub\n        /* \"#utility.yul\":17086:17087   */\n      0x00\n        /* \"#utility.yul\":17075:17084   */\n      dup4\n        /* \"#utility.yul\":17071:17088   */\n      add\n        /* \"#utility.yul\":17064:17111   */\n      mstore\n        /* \"#utility.yul\":17128:17259   */\n      tag_359\n        /* \"#utility.yul\":17254:17258   */\n      dup2\n        /* \"#utility.yul\":17128:17259   */\n      tag_176\n      jump\t// in\n    tag_359:\n        /* \"#utility.yul\":17120:17259   */\n      swap1\n      pop\n        /* \"#utility.yul\":16847:17266   */\n      swap2\n      swap1\n      pop\n      jump\t// out\n        /* \"#utility.yul\":17272:17444   */\n    tag_177:\n        /* \"#utility.yul\":17412:17436   */\n      0x4e6965206d6f7a65737a207573756e6163206c696b6500000000000000000000\n        /* \"#utility.yul\":17408:17409   */\n      0x00\n        /* \"#utility.yul\":17400:17406   */\n      dup3\n        /* \"#utility.yul\":17396:17410   */\n      add\n        /* \"#utility.yul\":17389:17437   */\n      mstore\n        /* \"#utility.yul\":17272:17444   */\n      pop\n      jump\t// out\n        /* \"#utility.yul\":17450:17816   */\n    tag_178:\n        /* \"#utility.yul\":17592:17595   */\n      0x00\n        /* \"#utility.yul\":17613:17680   */\n      tag_362\n        /* \"#utility.yul\":17677:17679   */\n      0x16\n        /* \"#utility.yul\":17672:17675   */\n      dup4\n        /* \"#utility.yul\":17613:17680   */\n      tag_142\n      jump\t// in\n    tag_362:\n        /* \"#utility.yul\":17606:17680   */\n      swap2\n      pop\n        /* \"#utility.yul\":17689:17782   */\n      tag_363\n        /* \"#utility.yul\":17778:17781   */\n      dup3\n        /* \"#utility.yul\":17689:17782   */\n      tag_177\n      jump\t// in\n    tag_363:\n        /* \"#utility.yul\":17807:17809   */\n      0x20\n        /* \"#utility.yul\":17802:17805   */\n      dup3\n        /* \"#utility.yul\":17798:17810   */\n      add\n        /* \"#utility.yul\":17791:17810   */\n      swap1\n      pop\n        /* \"#utility.yul\":17450:17816   */\n      swap2\n      swap1\n      pop\n      jump\t// out\n        /* \"#utility.yul\":17822:18241   */\n    tag_89:\n        /* \"#utility.yul\":17988:17992   */\n      0x00\n        /* \"#utility.yul\":18026:18028   */\n      0x20\n        /* \"#utility.yul\":18015:18024   */\n      dup3\n        /* \"#utility.yul\":18011:18029   */\n      add\n        /* \"#utility.yul\":18003:18029   */\n      swap1\n      pop\n        /* \"#utility.yul\":18075:18084   */\n      dup2\n        /* \"#utility.yul\":18069:18073   */\n      dup2\n        /* \"#utility.yul\":18065:18085   */\n      sub\n        /* \"#utility.yul\":18061:18062   */\n      0x00\n        /* \"#utility.yul\":18050:18059   */\n      dup4\n        /* \"#utility.yul\":18046:18063   */\n      add\n        /* \"#utility.yul\":18039:18086   */\n      mstore\n        /* \"#utility.yul\":18103:18234   */\n      tag_365\n        /* \"#utility.yul\":18229:18233   */\n      dup2\n        /* \"#utility.yul\":18103:18234   */\n      tag_178\n      jump\t// in\n    tag_365:\n        /* \"#utility.yul\":18095:18234   */\n      swap1\n      pop\n        /* \"#utility.yul\":17822:18241   */\n      swap2\n      swap1\n      pop\n      jump\t// out\n        /* \"#utility.yul\":18247:18427   */\n    tag_179:\n        /* \"#utility.yul\":18295:18372   */\n      0x4e487b7100000000000000000000000000000000000000000000000000000000\n        /* \"#utility.yul\":18292:18293   */\n      0x00\n        /* \"#utility.yul\":18285:18373   */\n      mstore\n        /* \"#utility.yul\":18392:18396   */\n      0x11\n        /* \"#utility.yul\":18389:18390   */\n      0x04\n        /* \"#utility.yul\":18382:18397   */\n      mstore\n        /* \"#utility.yul\":18416:18420   */\n      0x24\n        /* \"#utility.yul\":18413:18414   */\n      0x00\n        /* \"#utility.yul\":18406:18421   */\n      revert\n        /* \"#utility.yul\":18433:18604   */\n    tag_94:\n        /* \"#utility.yul\":18472:18475   */\n      0x00\n        /* \"#utility.yul\":18495:18519   */\n      tag_368\n        /* \"#utility.yul\":18513:18518   */\n      dup3\n        /* \"#utility.yul\":18495:18519   */\n      tag_137\n      jump\t// in\n    tag_368:\n        /* \"#utility.yul\":18486:18519   */\n      swap2\n      pop\n        /* \"#utility.yul\":18541:18545   */\n      0x00\n        /* \"#utility.yul\":18534:18539   */\n      dup3\n        /* \"#utility.yul\":18531:18546   */\n      sub\n        /* \"#utility.yul\":18528:18569   */\n      tag_369\n      jumpi\n        /* \"#utility.yul\":18549:18567   */\n      tag_370\n      tag_179\n      jump\t// in\n    tag_370:\n        /* \"#utility.yul\":18528:18569   */\n    tag_369:\n        /* \"#utility.yul\":18596:18597   */\n      0x01\n        /* \"#utility.yul\":18589:18594   */\n      dup3\n        /* \"#utility.yul\":18585:18598   */\n      sub\n        /* \"#utility.yul\":18578:18598   */\n      swap1\n      pop\n        /* \"#utility.yul\":18433:18604   */\n      swap2\n      swap1\n      pop\n      jump\t// out\n        /* \"#utility.yul\":18610:18775   */\n    tag_180:\n        /* \"#utility.yul\":18750:18767   */\n      0x4d65737361676520746f206c6f6e670000000000000000000000000000000000\n        /* \"#utility.yul\":18746:18747   */\n      0x00\n        /* \"#utility.yul\":18738:18744   */\n      dup3\n        /* \"#utility.yul\":18734:18748   */\n      add\n        /* \"#utility.yul\":18727:18768   */\n      mstore\n        /* \"#utility.yul\":18610:18775   */\n      pop\n      jump\t// out\n        /* \"#utility.yul\":18781:19147   */\n    tag_181:\n        /* \"#utility.yul\":18923:18926   */\n      0x00\n        /* \"#utility.yul\":18944:19011   */\n      tag_373\n        /* \"#utility.yul\":19008:19010   */\n      0x0f\n        /* \"#utility.yul\":19003:19006   */\n      dup4\n        /* \"#utility.yul\":18944:19011   */\n      tag_142\n      jump\t// in\n    tag_373:\n        /* \"#utility.yul\":18937:19011   */\n      swap2\n      pop\n        /* \"#utility.yul\":19020:19113   */\n      tag_374\n        /* \"#utility.yul\":19109:19112   */\n      dup3\n        /* \"#utility.yul\":19020:19113   */\n      tag_180\n      jump\t// in\n    tag_374:\n        /* \"#utility.yul\":19138:19140   */\n      0x20\n        /* \"#utility.yul\":19133:19136   */\n      dup3\n        /* \"#utility.yul\":19129:19141   */\n      add\n        /* \"#utility.yul\":19122:19141   */\n      swap1\n      pop\n        /* \"#utility.yul\":18781:19147   */\n      swap2\n      swap1\n      pop\n      jump\t// out\n        /* \"#utility.yul\":19153:19572   */\n    tag_98:\n        /* \"#utility.yul\":19319:19323   */\n      0x00\n        /* \"#utility.yul\":19357:19359   */\n      0x20\n        /* \"#utility.yul\":19346:19355   */\n      dup3\n        /* \"#utility.yul\":19342:19360   */\n      add\n        /* \"#utility.yul\":19334:19360   */\n      swap1\n      pop\n        /* \"#utility.yul\":19406:19415   */\n      dup2\n        /* \"#utility.yul\":19400:19404   */\n      dup2\n        /* \"#utility.yul\":19396:19416   */\n      sub\n        /* \"#utility.yul\":19392:19393   */\n      0x00\n        /* \"#utility.yul\":19381:19390   */\n      dup4\n        /* \"#utility.yul\":19377:19394   */\n      add\n        /* \"#utility.yul\":19370:19417   */\n      mstore\n        /* \"#utility.yul\":19434:19565   */\n      tag_376\n        /* \"#utility.yul\":19560:19564   */\n      dup2\n        /* \"#utility.yul\":19434:19565   */\n      tag_181\n      jump\t// in\n    tag_376:\n        /* \"#utility.yul\":19426:19565   */\n      swap1\n      pop\n        /* \"#utility.yul\":19153:19572   */\n      swap2\n      swap1\n      pop\n      jump\t// out\n        /* \"#utility.yul\":19578:19719   */\n    tag_182:\n        /* \"#utility.yul\":19627:19631   */\n      0x00\n        /* \"#utility.yul\":19650:19653   */\n      dup2\n        /* \"#utility.yul\":19642:19653   */\n      swap1\n      pop\n        /* \"#utility.yul\":19673:19676   */\n      dup2\n        /* \"#utility.yul\":19670:19671   */\n      0x00\n        /* \"#utility.yul\":19663:19677   */\n      mstore\n        /* \"#utility.yul\":19707:19711   */\n      0x20\n        /* \"#utility.yul\":19704:19705   */\n      0x00\n        /* \"#utility.yul\":19694:19712   */\n      keccak256\n        /* \"#utility.yul\":19686:19712   */\n      swap1\n      pop\n        /* \"#utility.yul\":19578:19719   */\n      swap2\n      swap1\n      pop\n      jump\t// out\n        /* \"#utility.yul\":19725:19818   */\n    tag_183:\n        /* \"#utility.yul\":19762:19768   */\n      0x00\n        /* \"#utility.yul\":19809:19811   */\n      0x20\n        /* \"#utility.yul\":19804:19806   */\n      0x1f\n        /* \"#utility.yul\":19797:19802   */\n      dup4\n        /* \"#utility.yul\":19793:19807   */\n      add\n        /* \"#utility.yul\":19789:19812   */\n      div\n        /* \"#utility.yul\":19779:19812   */\n      swap1\n      pop\n        /* \"#utility.yul\":19725:19818   */\n      swap2\n      swap1\n      pop\n      jump\t// out\n        /* \"#utility.yul\":19824:19931   */\n    tag_184:\n        /* \"#utility.yul\":19868:19876   */\n      0x00\n        /* \"#utility.yul\":19918:19923   */\n      dup3\n        /* \"#utility.yul\":19912:19916   */\n      dup3\n        /* \"#utility.yul\":19908:19924   */\n      shl\n        /* \"#utility.yul\":19887:19924   */\n      swap1\n      pop\n        /* \"#utility.yul\":19824:19931   */\n      swap3\n      swap2\n      pop\n      pop\n      jump\t// out\n        /* \"#utility.yul\":19937:20330   */\n    tag_185:\n        /* \"#utility.yul\":20006:20012   */\n      0x00\n        /* \"#utility.yul\":20056:20057   */\n      0x08\n        /* \"#utility.yul\":20044:20054   */\n      dup4\n        /* \"#utility.yul\":20040:20058   */\n      mul\n        /* \"#utility.yul\":20079:20176   */\n      tag_381\n        /* \"#utility.yul\":20109:20175   */\n      0xffffffffffffffffffffffffffffffffffffffffffffffffffffffffffffffff\n        /* \"#utility.yul\":20098:20107   */\n      dup3\n        /* \"#utility.yul\":20079:20176   */\n      tag_184\n      jump\t// in\n    tag_381:\n        /* \"#utility.yul\":20197:20236   */\n      tag_382\n        /* \"#utility.yul\":20227:20235   */\n      dup7\n        /* \"#utility.yul\":20216:20225   */\n      dup4\n        /* \"#utility.yul\":20197:20236   */\n      tag_184\n      jump\t// in\n    tag_382:\n        /* \"#utility.yul\":20185:20236   */\n      swap6\n      pop\n        /* \"#utility.yul\":20269:20273   */\n      dup1\n        /* \"#utility.yul\":20265:20274   */\n      not\n        /* \"#utility.yul\":20258:20263   */\n      dup5\n        /* \"#utility.yul\":20254:20275   */\n      and\n        /* \"#utility.yul\":20245:20275   */\n      swap4\n      pop\n        /* \"#utility.yul\":20318:20322   */\n      dup1\n        /* \"#utility.yul\":20308:20316   */\n      dup7\n        /* \"#utility.yul\":20304:20323   */\n      and\n        /* \"#utility.yul\":20297:20302   */\n      dup5\n        /* \"#utility.yul\":20294:20324   */\n      or\n        /* \"#utility.yul\":20284:20324   */\n      swap3\n      pop\n        /* \"#utility.yul\":20013:20330   */\n      pop\n      pop\n        /* \"#utility.yul\":19937:20330   */\n      swap4\n      swap3\n      pop\n      pop\n      pop\n      jump\t// out\n        /* \"#utility.yul\":20336:20396   */\n    tag_186:\n        /* \"#utility.yul\":20364:20367   */\n      0x00\n        /* \"#utility.yul\":20385:20390   */\n      dup2\n        /* \"#utility.yul\":20378:20390   */\n      swap1\n      pop\n        /* \"#utility.yul\":20336:20396   */\n      swap2\n      swap1\n      pop\n      jump\t// out\n        /* \"#utility.yul\":20402:20544   */\n    tag_187:\n        /* \"#utility.yul\":20452:20461   */\n      0x00\n        /* \"#utility.yul\":20485:20538   */\n      tag_385\n        /* \"#utility.yul\":20503:20537   */\n      tag_386\n        /* \"#utility.yul\":20512:20536   */\n      tag_387\n        /* \"#utility.yul\":20530:20535   */\n      dup5\n        /* \"#utility.yul\":20512:20536   */\n      tag_137\n      jump\t// in\n    tag_387:\n        /* \"#utility.yul\":20503:20537   */\n      tag_186\n      jump\t// in\n    tag_386:\n        /* \"#utility.yul\":20485:20538   */\n      tag_137\n      jump\t// in\n    tag_385:\n        /* \"#utility.yul\":20472:20538   */\n      swap1\n      pop\n        /* \"#utility.yul\":20402:20544   */\n      swap2\n      swap1\n      pop\n      jump\t// out\n        /* \"#utility.yul\":20550:20625   */\n    tag_188:\n        /* \"#utility.yul\":20593:20596   */\n      0x00\n        /* \"#utility.yul\":20614:20619   */\n      dup2\n        /* \"#utility.yul\":20607:20619   */\n      swap1\n      pop\n        /* \"#utility.yul\":20550:20625   */\n      swap2\n      swap1\n      pop\n      jump\t// out\n        /* \"#utility.yul\":20631:20900   */\n    tag_189:\n        /* \"#utility.yul\":20741:20780   */\n      tag_390\n        /* \"#utility.yul\":20772:20779   */\n      dup4\n        /* \"#utility.yul\":20741:20780   */\n      tag_187\n      jump\t// in\n    tag_390:\n        /* \"#utility.yul\":20802:20893   */\n      tag_391\n        /* \"#utility.yul\":20851:20892   */\n      tag_392\n        /* \"#utility.yul\":20875:20891   */\n      dup3\n        /* \"#utility.yul\":20851:20892   */\n      tag_188\n      jump\t// in\n    tag_392:\n        /* \"#utility.yul\":20843:20849   */\n      dup5\n        /* \"#utility.yul\":20836:20840   */\n      dup5\n        /* \"#utility.yul\":20830:20841   */\n      sload\n        /* \"#utility.yul\":20802:20893   */\n      tag_185\n      jump\t// in\n    tag_391:\n        /* \"#utility.yul\":20796:20800   */\n      dup3\n        /* \"#utility.yul\":20789:20894   */\n      sstore\n        /* \"#utility.yul\":20707:20900   */\n      pop\n        /* \"#utility.yul\":20631:20900   */\n      pop\n      pop\n      pop\n      jump\t// out\n        /* \"#utility.yul\":20906:20979   */\n    tag_190:\n        /* \"#utility.yul\":20951:20954   */\n      0x00\n        /* \"#utility.yul\":20906:20979   */\n      swap1\n      jump\t// out\n        /* \"#utility.yul\":20985:21174   */\n    tag_191:\n        /* \"#utility.yul\":21062:21094   */\n      tag_395\n      tag_190\n      jump\t// in\n    tag_395:\n        /* \"#utility.yul\":21103:21168   */\n      tag_396\n        /* \"#utility.yul\":21161:21167   */\n      dup2\n        /* \"#utility.yul\":21153:21159   */\n      dup5\n        /* \"#utility.yul\":21147:21151   */\n      dup5\n        /* \"#utility.yul\":21103:21168   */\n      tag_189\n      jump\t// in\n    tag_396:\n        /* \"#utility.yul\":21038:21174   */\n      pop\n        /* \"#utility.yul\":20985:21174   */\n      pop\n      pop\n      jump\t// out\n        /* \"#utility.yul\":21180:21366   */\n    tag_192:\n        /* \"#utility.yul\":21240:21360   */\n    tag_398:\n        /* \"#utility.yul\":21257:21260   */\n      dup2\n        /* \"#utility.yul\":21250:21255   */\n      dup2\n        /* \"#utility.yul\":21247:21261   */\n      lt\n        /* \"#utility.yul\":21240:21360   */\n      iszero\n      tag_400\n      jumpi\n        /* \"#utility.yul\":21311:21350   */\n      tag_401\n        /* \"#utility.yul\":21348:21349   */\n      0x00\n        /* \"#utility.yul\":21341:21346   */\n      dup3\n        /* \"#utility.yul\":21311:21350   */\n      tag_191\n      jump\t// in\n    tag_401:\n        /* \"#utility.yul\":21284:21285   */\n      0x01\n        /* \"#utility.yul\":21277:21282   */\n      dup2\n        /* \"#utility.yul\":21273:21286   */\n      add\n        /* \"#utility.yul\":21264:21286   */\n      swap1\n      pop\n        /* \"#utility.yul\":21240:21360   */\n      jump(tag_398)\n    tag_400:\n        /* \"#utility.yul\":21180:21366   */\n      pop\n      pop\n      jump\t// out\n        /* \"#utility.yul\":21372:21915   */\n    tag_193:\n        /* \"#utility.yul\":21473:21475   */\n      0x1f\n        /* \"#utility.yul\":21468:21471   */\n      dup3\n        /* \"#utility.yul\":21465:21476   */\n      gt\n        /* \"#utility.yul\":21462:21908   */\n      iszero\n      tag_403\n      jumpi\n        /* \"#utility.yul\":21507:21545   */\n      tag_404\n        /* \"#utility.yul\":21539:21544   */\n      dup2\n        /* \"#utility.yul\":21507:21545   */\n      tag_182\n      jump\t// in\n    tag_404:\n        /* \"#utility.yul\":21591:21620   */\n      tag_405\n        /* \"#utility.yul\":21609:21619   */\n      dup5\n        /* \"#utility.yul\":21591:21620   */\n      tag_183\n      jump\t// in\n    tag_405:\n        /* \"#utility.yul\":21581:21589   */\n      dup2\n        /* \"#utility.yul\":21577:21621   */\n      add\n        /* \"#utility.yul\":21774:21776   */\n      0x20\n        /* \"#utility.yul\":21762:21772   */\n      dup6\n        /* \"#utility.yul\":21759:21777   */\n      lt\n        /* \"#utility.yul\":21756:21805   */\n      iszero\n      tag_406\n      jumpi\n        /* \"#utility.yul\":21795:21803   */\n      dup2\n        /* \"#utility.yul\":21780:21803   */\n      swap1\n      pop\n        /* \"#utility.yul\":21756:21805   */\n    tag_406:\n        /* \"#utility.yul\":21818:21898   */\n      tag_407\n        /* \"#utility.yul\":21874:21896   */\n      tag_408\n        /* \"#utility.yul\":21892:21895   */\n      dup6\n        /* \"#utility.yul\":21874:21896   */\n      tag_183\n      jump\t// in\n    tag_408:\n        /* \"#utility.yul\":21864:21872   */\n      dup4\n        /* \"#utility.yul\":21860:21897   */\n      add\n        /* \"#utility.yul\":21847:21858   */\n      dup3\n        /* \"#utility.yul\":21818:21898   */\n      tag_192\n      jump\t// in\n    tag_407:\n        /* \"#utility.yul\":21477:21908   */\n      pop\n      pop\n        /* \"#utility.yul\":21462:21908   */\n    tag_403:\n        /* \"#utility.yul\":21372:21915   */\n      pop\n      pop\n      pop\n      jump\t// out\n        /* \"#utility.yul\":21921:22038   */\n    tag_194:\n        /* \"#utility.yul\":21975:21983   */\n      0x00\n        /* \"#utility.yul\":22025:22030   */\n      dup3\n        /* \"#utility.yul\":22019:22023   */\n      dup3\n        /* \"#utility.yul\":22015:22031   */\n      shr\n        /* \"#utility.yul\":21994:22031   */\n      swap1\n      pop\n        /* \"#utility.yul\":21921:22038   */\n      swap3\n      swap2\n      pop\n      pop\n      jump\t// out\n        /* \"#utility.yul\":22044:22213   */\n    tag_195:\n        /* \"#utility.yul\":22088:22094   */\n      0x00\n        /* \"#utility.yul\":22121:22172   */\n      tag_411\n        /* \"#utility.yul\":22169:22170   */\n      0x00\n        /* \"#utility.yul\":22165:22171   */\n      not\n        /* \"#utility.yul\":22157:22162   */\n      dup5\n        /* \"#utility.yul\":22154:22155   */\n      0x08\n        /* \"#utility.yul\":22150:22163   */\n      mul\n        /* \"#utility.yul\":22121:22172   */\n      tag_194\n      jump\t// in\n    tag_411:\n        /* \"#utility.yul\":22117:22173   */\n      not\n        /* \"#utility.yul\":22202:22206   */\n      dup1\n        /* \"#utility.yul\":22196:22200   */\n      dup4\n        /* \"#utility.yul\":22192:22207   */\n      and\n        /* \"#utility.yul\":22182:22207   */\n      swap2\n      pop\n        /* \"#utility.yul\":22095:22213   */\n      pop\n        /* \"#utility.yul\":22044:22213   */\n      swap3\n      swap2\n      pop\n      pop\n      jump\t// out\n        /* \"#utility.yul\":22218:22513   */\n    tag_196:\n        /* \"#utility.yul\":22294:22298   */\n      0x00\n        /* \"#utility.yul\":22440:22469   */\n      tag_413\n        /* \"#utility.yul\":22465:22468   */\n      dup4\n        /* \"#utility.yul\":22459:22463   */\n      dup4\n        /* \"#utility.yul\":22440:22469   */\n      tag_195\n      jump\t// in\n    tag_413:\n        /* \"#utility.yul\":22432:22469   */\n      swap2\n      pop\n        /* \"#utility.yul\":22502:22505   */\n      dup3\n        /* \"#utility.yul\":22499:22500   */\n      0x02\n        /* \"#utility.yul\":22495:22506   */\n      mul\n        /* \"#utility.yul\":22489:22493   */\n      dup3\n        /* \"#utility.yul\":22486:22507   */\n      or\n        /* \"#utility.yul\":22478:22507   */\n      swap1\n      pop\n        /* \"#utility.yul\":22218:22513   */\n      swap3\n      swap2\n      pop\n      pop\n      jump\t// out\n        /* \"#utility.yul\":22518:23913   */\n    tag_101:\n        /* \"#utility.yul\":22635:22672   */\n      tag_415\n        /* \"#utility.yul\":22668:22671   */\n      dup3\n        /* \"#utility.yul\":22635:22672   */\n      tag_141\n      jump\t// in\n    tag_415:\n        /* \"#utility.yul\":22737:22755   */\n      0xffffffffffffffff\n        /* \"#utility.yul\":22729:22735   */\n      dup2\n        /* \"#utility.yul\":22726:22756   */\n      gt\n        /* \"#utility.yul\":22723:22779   */\n      iszero\n      tag_416\n      jumpi\n        /* \"#utility.yul\":22759:22777   */\n      tag_417\n      tag_164\n      jump\t// in\n    tag_417:\n        /* \"#utility.yul\":22723:22779   */\n    tag_416:\n        /* \"#utility.yul\":22803:22841   */\n      tag_418\n        /* \"#utility.yul\":22835:22839   */\n      dup3\n        /* \"#utility.yul\":22829:22840   */\n      sload\n        /* \"#utility.yul\":22803:22841   */\n      tag_57\n      jump\t// in\n    tag_418:\n        /* \"#utility.yul\":22888:22955   */\n      tag_419\n        /* \"#utility.yul\":22948:22954   */\n      dup3\n        /* \"#utility.yul\":22940:22946   */\n      dup3\n        /* \"#utility.yul\":22934:22938   */\n      dup6\n        /* \"#utility.yul\":22888:22955   */\n      tag_193\n      jump\t// in\n    tag_419:\n        /* \"#utility.yul\":22982:22983   */\n      0x00\n        /* \"#utility.yul\":23006:23010   */\n      0x20\n        /* \"#utility.yul\":22993:23010   */\n      swap1\n      pop\n        /* \"#utility.yul\":23038:23040   */\n      0x1f\n        /* \"#utility.yul\":23030:23036   */\n      dup4\n        /* \"#utility.yul\":23027:23041   */\n      gt\n        /* \"#utility.yul\":23055:23056   */\n      0x01\n        /* \"#utility.yul\":23050:23668   */\n      dup2\n      eq\n      tag_421\n      jumpi\n        /* \"#utility.yul\":23712:23713   */\n      0x00\n        /* \"#utility.yul\":23729:23735   */\n      dup5\n        /* \"#utility.yul\":23726:23803   */\n      iszero\n      tag_422\n      jumpi\n        /* \"#utility.yul\":23778:23787   */\n      dup3\n        /* \"#utility.yul\":23773:23776   */\n      dup8\n        /* \"#utility.yul\":23769:23788   */\n      add\n        /* \"#utility.yul\":23763:23789   */\n      mload\n        /* \"#utility.yul\":23754:23789   */\n      swap1\n      pop\n        /* \"#utility.yul\":23726:23803   */\n    tag_422:\n        /* \"#utility.yul\":23829:23896   */\n      tag_423\n        /* \"#utility.yul\":23889:23895   */\n      dup6\n        /* \"#utility.yul\":23882:23887   */\n      dup3\n        /* \"#utility.yul\":23829:23896   */\n      tag_196\n      jump\t// in\n    tag_423:\n        /* \"#utility.yul\":23823:23827   */\n      dup7\n        /* \"#utility.yul\":23816:23897   */\n      sstore\n        /* \"#utility.yul\":23685:23907   */\n      pop\n        /* \"#utility.yul\":23020:23907   */\n      jump(tag_420)\n        /* \"#utility.yul\":23050:23668   */\n    tag_421:\n        /* \"#utility.yul\":23102:23106   */\n      0x1f\n        /* \"#utility.yul\":23098:23107   */\n      not\n        /* \"#utility.yul\":23090:23096   */\n      dup5\n        /* \"#utility.yul\":23086:23108   */\n      and\n        /* \"#utility.yul\":23136:23173   */\n      tag_424\n        /* \"#utility.yul\":23168:23172   */\n      dup7\n        /* \"#utility.yul\":23136:23173   */\n      tag_182\n      jump\t// in\n    tag_424:\n        /* \"#utility.yul\":23195:23196   */\n      0x00\n        /* \"#utility.yul\":23209:23417   */\n    tag_425:\n        /* \"#utility.yul\":23223:23230   */\n      dup3\n        /* \"#utility.yul\":23220:23221   */\n      dup2\n        /* \"#utility.yul\":23217:23231   */\n      lt\n        /* \"#utility.yul\":23209:23417   */\n      iszero\n      tag_427\n      jumpi\n        /* \"#utility.yul\":23302:23311   */\n      dup5\n        /* \"#utility.yul\":23297:23300   */\n      dup10\n        /* \"#utility.yul\":23293:23312   */\n      add\n        /* \"#utility.yul\":23287:23313   */\n      mload\n        /* \"#utility.yul\":23279:23285   */\n      dup3\n        /* \"#utility.yul\":23272:23314   */\n      sstore\n        /* \"#utility.yul\":23353:23354   */\n      0x01\n        /* \"#utility.yul\":23345:23351   */\n      dup3\n        /* \"#utility.yul\":23341:23355   */\n      add\n        /* \"#utility.yul\":23331:23355   */\n      swap2\n      pop\n        /* \"#utility.yul\":23400:23402   */\n      0x20\n        /* \"#utility.yul\":23389:23398   */\n      dup6\n        /* \"#utility.yul\":23385:23403   */\n      add\n        /* \"#utility.yul\":23372:23403   */\n      swap5\n      pop\n        /* \"#utility.yul\":23246:23250   */\n      0x20\n        /* \"#utility.yul\":23243:23244   */\n      dup2\n        /* \"#utility.yul\":23239:23251   */\n      add\n        /* \"#utility.yul\":23234:23251   */\n      swap1\n      pop\n        /* \"#utility.yul\":23209:23417   */\n      jump(tag_425)\n    tag_427:\n        /* \"#utility.yul\":23445:23451   */\n      dup7\n        /* \"#utility.yul\":23436:23443   */\n      dup4\n        /* \"#utility.yul\":23433:23452   */\n      lt\n        /* \"#utility.yul\":23430:23609   */\n      iszero\n      tag_428\n      jumpi\n        /* \"#utility.yul\":23503:23512   */\n      dup5\n        /* \"#utility.yul\":23498:23501   */\n      dup10\n        /* \"#utility.yul\":23494:23513   */\n      add\n        /* \"#utility.yul\":23488:23514   */\n      mload\n        /* \"#utility.yul\":23546:23594   */\n      tag_429\n        /* \"#utility.yul\":23588:23592   */\n      0x1f\n        /* \"#utility.yul\":23580:23586   */\n      dup10\n        /* \"#utility.yul\":23576:23593   */\n      and\n        /* \"#utility.yul\":23565:23574   */\n      dup3\n        /* \"#utility.yul\":23546:23594   */\n      tag_195\n      jump\t// in\n    tag_429:\n        /* \"#utility.yul\":23538:23544   */\n      dup4\n        /* \"#utility.yul\":23531:23595   */\n      sstore\n        /* \"#utility.yul\":23453:23609   */\n      pop\n        /* \"#utility.yul\":23430:23609   */\n    tag_428:\n        /* \"#utility.yul\":23655:23656   */\n      0x01\n        /* \"#utility.yul\":23651:23652   */\n      0x02\n        /* \"#utility.yul\":23643:23649   */\n      dup9\n        /* \"#utility.yul\":23639:23653   */\n      mul\n        /* \"#utility.yul\":23635:23657   */\n      add\n        /* \"#utility.yul\":23629:23633   */\n      dup9\n        /* \"#utility.yul\":23622:23658   */\n      sstore\n        /* \"#utility.yul\":23057:23668   */\n      pop\n      pop\n      pop\n        /* \"#utility.yul\":23020:23907   */\n    tag_420:\n      pop\n        /* \"#utility.yul\":22610:23913   */\n      pop\n      pop\n      pop\n        /* \"#utility.yul\":22518:23913   */\n      pop\n      pop\n      jump\t// out\n        /* \"#utility.yul\":23919:24161   */\n    tag_197:\n        /* \"#utility.yul\":24059:24093   */\n      0x4a657374657320776c61736369776f736369656d2c206e6965206d6f7a65737a\n        /* \"#utility.yul\":24055:24056   */\n      0x00\n        /* \"#utility.yul\":24047:24053   */\n      dup3\n        /* \"#utility.yul\":24043:24057   */\n      add\n        /* \"#utility.yul\":24036:24094   */\n      mstore\n        /* \"#utility.yul\":24128:24153   */\n      0x206c696b6f77616320776c61736e65676f20706f737461000000000000000000\n        /* \"#utility.yul\":24123:24125   */\n      0x20\n        /* \"#utility.yul\":24115:24121   */\n      dup3\n        /* \"#utility.yul\":24111:24126   */\n      add\n        /* \"#utility.yul\":24104:24154   */\n      mstore\n        /* \"#utility.yul\":23919:24161   */\n      pop\n      jump\t// out\n        /* \"#utility.yul\":24167:24533   */\n    tag_198:\n        /* \"#utility.yul\":24309:24312   */\n      0x00\n        /* \"#utility.yul\":24330:24397   */\n      tag_432\n        /* \"#utility.yul\":24394:24396   */\n      0x37\n        /* \"#utility.yul\":24389:24392   */\n      dup4\n        /* \"#utility.yul\":24330:24397   */\n      tag_142\n      jump\t// in\n    tag_432:\n        /* \"#utility.yul\":24323:24397   */\n      swap2\n      pop\n        /* \"#utility.yul\":24406:24499   */\n      tag_433\n        /* \"#utility.yul\":24495:24498   */\n      dup3\n        /* \"#utility.yul\":24406:24499   */\n      tag_197\n      jump\t// in\n    tag_433:\n        /* \"#utility.yul\":24524:24526   */\n      0x40\n        /* \"#utility.yul\":24519:24522   */\n      dup3\n        /* \"#utility.yul\":24515:24527   */\n      add\n        /* \"#utility.yul\":24508:24527   */\n      swap1\n      pop\n        /* \"#utility.yul\":24167:24533   */\n      swap2\n      swap1\n      pop\n      jump\t// out\n        /* \"#utility.yul\":24539:24958   */\n    tag_119:\n        /* \"#utility.yul\":24705:24709   */\n      0x00\n        /* \"#utility.yul\":24743:24745   */\n      0x20\n        /* \"#utility.yul\":24732:24741   */\n      dup3\n        /* \"#utility.yul\":24728:24746   */\n      add\n        /* \"#utility.yul\":24720:24746   */\n      swap1\n      pop\n        /* \"#utility.yul\":24792:24801   */\n      dup2\n        /* \"#utility.yul\":24786:24790   */\n      dup2\n        /* \"#utility.yul\":24782:24802   */\n      sub\n        /* \"#utility.yul\":24778:24779   */\n      0x00\n        /* \"#utility.yul\":24767:24776   */\n      dup4\n        /* \"#utility.yul\":24763:24780   */\n      add\n        /* \"#utility.yul\":24756:24803   */\n      mstore\n        /* \"#utility.yul\":24820:24951   */\n      tag_435\n        /* \"#utility.yul\":24946:24950   */\n      dup2\n        /* \"#utility.yul\":24820:24951   */\n      tag_198\n      jump\t// in\n    tag_435:\n        /* \"#utility.yul\":24812:24951   */\n      swap1\n      pop\n        /* \"#utility.yul\":24539:24958   */\n      swap2\n      swap1\n      pop\n      jump\t// out\n        /* \"#utility.yul\":24964:25197   */\n    tag_129:\n        /* \"#utility.yul\":25003:25006   */\n      0x00\n        /* \"#utility.yul\":25026:25050   */\n      tag_437\n        /* \"#utility.yul\":25044:25049   */\n      dup3\n        /* \"#utility.yul\":25026:25050   */\n      tag_137\n      jump\t// in\n    tag_437:\n        /* \"#utility.yul\":25017:25050   */\n      swap2\n      pop\n        /* \"#utility.yul\":25072:25138   */\n      0xffffffffffffffffffffffffffffffffffffffffffffffffffffffffffffffff\n        /* \"#utility.yul\":25065:25070   */\n      dup3\n        /* \"#utility.yul\":25062:25139   */\n      sub\n        /* \"#utility.yul\":25059:25162   */\n      tag_438\n      jumpi\n        /* \"#utility.yul\":25142:25160   */\n      tag_439\n      tag_179\n      jump\t// in\n    tag_439:\n        /* \"#utility.yul\":25059:25162   */\n    tag_438:\n        /* \"#utility.yul\":25189:25190   */\n      0x01\n        /* \"#utility.yul\":25182:25187   */\n      dup3\n        /* \"#utility.yul\":25178:25191   */\n      add\n        /* \"#utility.yul\":25171:25191   */\n      swap1\n      pop\n        /* \"#utility.yul\":24964:25197   */\n      swap2\n      swap1\n      pop\n      jump\t// out\n\n    auxdata: 0xa26469706673582212204f76b8d0767a0ab337c81deadb1376cc9929b597c03f30acfd3a3c2bc37a7ac964736f6c634300081a0033\n}\n",
				"bytecode": {
					"linkReferences": {},
					"object": "60806040526101185f806101000a81548161ffff021916908361ffff160217905550348015602b575f80fd5b503360025f6101000a81548173ffffffffffffffffffffffffffffffffffffffff021916908373ffffffffffffffffffffffffffffffffffffffff160217905550611934806100795f395ff3fe608060405234801561000f575f80fd5b5060043610610091575f3560e01c80637a639e39116100645780637a639e39146101335780637c9cd2bc1461014f5780638da5cb5b1461016b578063c3ad5ecb14610189578063f65a8f40146101b957610091565b806305a1b4a91461009557806312e7ee1c146100c957806358bfa4ab146100f95780636eb1079714610115575b5f80fd5b6100af60048036038101906100aa9190610d2a565b6101d5565b6040516100c0959493929190610df6565b60405180910390f35b6100e360048036038101906100de9190610e4e565b6102c6565b6040516100f0919061100d565b60405180910390f35b610113600480360381019061010e9190611064565b610461565b005b61011d61050e565b60405161012a919061109e565b60405180910390f35b61014d600480360381019061014891906110b7565b61051f565b005b61016960048036038101906101649190611221565b6106d6565b005b61017361088d565b6040516101809190611268565b60405180910390f35b6101a3600480360381019061019e9190611281565b6108b2565b6040516101b0919061131f565b60405180910390f35b6101d360048036038101906101ce9190610d2a565b610a29565b005b6001602052815f5260405f2081815481106101ee575f80fd5b905f5260205f2090600502015f9150915050805f015f9054906101000a900473ffffffffffffffffffffffffffffffffffffffff16908060010180546102339061136c565b80601f016020809104026020016040519081016040528092919081815260200182805461025f9061136c565b80156102aa5780601f10610281576101008083540402835291602001916102aa565b820191905f5260205f20905b81548152906001019060200180831161028d57829003601f168201915b5050505050908060020154908060030154908060040154905085565b606060015f8373ffffffffffffffffffffffffffffffffffffffff1673ffffffffffffffffffffffffffffffffffffffff1681526020019081526020015f20805480602002602001604051908101604052809291908181526020015f905b82821015610456578382905f5260205f2090600502016040518060a00160405290815f82015f9054906101000a900473ffffffffffffffffffffffffffffffffffffffff1673ffffffffffffffffffffffffffffffffffffffff1673ffffffffffffffffffffffffffffffffffffffff1681526020016001820180546103a99061136c565b80601f01602080910402602001604051908101604052809291908181526020018280546103d59061136c565b80156104205780601f106103f757610100808354040283529160200191610420565b820191905f5260205f20905b81548152906001019060200180831161040357829003601f168201915b50505050508152602001600282015481526020016003820154815260200160048201548152505081526020019060010190610324565b505050509050919050565b60025f9054906101000a900473ffffffffffffffffffffffffffffffffffffffff1673ffffffffffffffffffffffffffffffffffffffff163373ffffffffffffffffffffffffffffffffffffffff16146104f0576040517f08c379a00000000000000000000000000000000000000000000000000000000081526004016104e7906113e6565b60405180910390fd5b805f806101000a81548161ffff021916908361ffff16021790555050565b5f8054906101000a900461ffff1681565b8160015f8373ffffffffffffffffffffffffffffffffffffffff1673ffffffffffffffffffffffffffffffffffffffff1681526020019081526020015f20838154811061056f5761056e611404565b5b905f5260205f20906005020160040154146105bf576040517f08c379a00000000000000000000000000000000000000000000000000000000081526004016105b69061147b565b60405180910390fd5b5f60015f8373ffffffffffffffffffffffffffffffffffffffff1673ffffffffffffffffffffffffffffffffffffffff1681526020019081526020015f20838154811061060f5761060e611404565b5b905f5260205f209060050201600301541161065f576040517f08c379a0000000000000000000000000000000000000000000000000000000008152600401610656906114e3565b60405180910390fd5b60015f8273ffffffffffffffffffffffffffffffffffffffff1673ffffffffffffffffffffffffffffffffffffffff1681526020019081526020015f2082815481106106ae576106ad611404565b5b905f5260205f2090600502016003015f8154809291906106cd9061152e565b91905055505050565b5f8054906101000a900461ffff1661ffff168151111561072b576040517f08c379a00000000000000000000000000000000000000000000000000000000081526004016107229061159f565b60405180910390fd5b5f6040518060a001604052803373ffffffffffffffffffffffffffffffffffffffff1681526020018381526020014281526020015f815260200160015f3373ffffffffffffffffffffffffffffffffffffffff1673ffffffffffffffffffffffffffffffffffffffff1681526020019081526020015f2080549050815250905060015f3373ffffffffffffffffffffffffffffffffffffffff1673ffffffffffffffffffffffffffffffffffffffff1681526020019081526020015f2081908060018154018082558091505060019003905f5260205f2090600502015f909190919091505f820151815f015f6101000a81548173ffffffffffffffffffffffffffffffffffffffff021916908373ffffffffffffffffffffffffffffffffffffffff1602179055506020820151816001019081610868919061175a565b5060408201518160020155606082015181600301556080820151816004015550505050565b60025f9054906101000a900473ffffffffffffffffffffffffffffffffffffffff1681565b6108ba610c4b565b60015f3373ffffffffffffffffffffffffffffffffffffffff1673ffffffffffffffffffffffffffffffffffffffff1681526020019081526020015f20828154811061090957610908611404565b5b905f5260205f2090600502016040518060a00160405290815f82015f9054906101000a900473ffffffffffffffffffffffffffffffffffffffff1673ffffffffffffffffffffffffffffffffffffffff1673ffffffffffffffffffffffffffffffffffffffff1681526020016001820180546109849061136c565b80601f01602080910402602001604051908101604052809291908181526020018280546109b09061136c565b80156109fb5780601f106109d2576101008083540402835291602001916109fb565b820191905f5260205f20905b8154815290600101906020018083116109de57829003601f168201915b5050505050815260200160028201548152602001600382015481526020016004820154815250509050919050565b60025f9054906101000a900473ffffffffffffffffffffffffffffffffffffffff1673ffffffffffffffffffffffffffffffffffffffff1660015f8473ffffffffffffffffffffffffffffffffffffffff1673ffffffffffffffffffffffffffffffffffffffff1681526020019081526020015f208281548110610ab057610aaf611404565b5b905f5260205f2090600502015f015f9054906101000a900473ffffffffffffffffffffffffffffffffffffffff1673ffffffffffffffffffffffffffffffffffffffff1603610b34576040517f08c379a0000000000000000000000000000000000000000000000000000000008152600401610b2b90611899565b60405180910390fd5b8060015f8473ffffffffffffffffffffffffffffffffffffffff1673ffffffffffffffffffffffffffffffffffffffff1681526020019081526020015f208281548110610b8457610b83611404565b5b905f5260205f2090600502016004015414610bd4576040517f08c379a0000000000000000000000000000000000000000000000000000000008152600401610bcb9061147b565b60405180910390fd5b60015f8373ffffffffffffffffffffffffffffffffffffffff1673ffffffffffffffffffffffffffffffffffffffff1681526020019081526020015f208181548110610c2357610c22611404565b5b905f5260205f2090600502016003015f815480929190610c42906118b7565b91905055505050565b6040518060a001604052805f73ffffffffffffffffffffffffffffffffffffffff168152602001606081526020015f81526020015f81526020015f81525090565b5f604051905090565b5f80fd5b5f80fd5b5f73ffffffffffffffffffffffffffffffffffffffff82169050919050565b5f610cc682610c9d565b9050919050565b610cd681610cbc565b8114610ce0575f80fd5b50565b5f81359050610cf181610ccd565b92915050565b5f819050919050565b610d0981610cf7565b8114610d13575f80fd5b50565b5f81359050610d2481610d00565b92915050565b5f8060408385031215610d4057610d3f610c95565b5b5f610d4d85828601610ce3565b9250506020610d5e85828601610d16565b9150509250929050565b610d7181610cbc565b82525050565b5f81519050919050565b5f82825260208201905092915050565b8281835e5f83830152505050565b5f601f19601f8301169050919050565b5f610db982610d77565b610dc38185610d81565b9350610dd3818560208601610d91565b610ddc81610d9f565b840191505092915050565b610df081610cf7565b82525050565b5f60a082019050610e095f830188610d68565b8181036020830152610e1b8187610daf565b9050610e2a6040830186610de7565b610e376060830185610de7565b610e446080830184610de7565b9695505050505050565b5f60208284031215610e6357610e62610c95565b5b5f610e7084828501610ce3565b91505092915050565b5f81519050919050565b5f82825260208201905092915050565b5f819050602082019050919050565b610eab81610cbc565b82525050565b5f82825260208201905092915050565b5f610ecb82610d77565b610ed58185610eb1565b9350610ee5818560208601610d91565b610eee81610d9f565b840191505092915050565b610f0281610cf7565b82525050565b5f60a083015f830151610f1d5f860182610ea2565b5060208301518482036020860152610f358282610ec1565b9150506040830151610f4a6040860182610ef9565b506060830151610f5d6060860182610ef9565b506080830151610f706080860182610ef9565b508091505092915050565b5f610f868383610f08565b905092915050565b5f602082019050919050565b5f610fa482610e79565b610fae8185610e83565b935083602082028501610fc085610e93565b805f5b85811015610ffb5784840389528151610fdc8582610f7b565b9450610fe783610f8e565b925060208a01995050600181019050610fc3565b50829750879550505050505092915050565b5f6020820190508181035f8301526110258184610f9a565b905092915050565b5f61ffff82169050919050565b6110438161102d565b811461104d575f80fd5b50565b5f8135905061105e8161103a565b92915050565b5f6020828403121561107957611078610c95565b5b5f61108684828501611050565b91505092915050565b6110988161102d565b82525050565b5f6020820190506110b15f83018461108f565b92915050565b5f80604083850312156110cd576110cc610c95565b5b5f6110da85828601610d16565b92505060206110eb85828601610ce3565b9150509250929050565b5f80fd5b5f80fd5b7f4e487b71000000000000000000000000000000000000000000000000000000005f52604160045260245ffd5b61113382610d9f565b810181811067ffffffffffffffff82111715611152576111516110fd565b5b80604052505050565b5f611164610c8c565b9050611170828261112a565b919050565b5f67ffffffffffffffff82111561118f5761118e6110fd565b5b61119882610d9f565b9050602081019050919050565b828183375f83830152505050565b5f6111c56111c084611175565b61115b565b9050828152602081018484840111156111e1576111e06110f9565b5b6111ec8482856111a5565b509392505050565b5f82601f830112611208576112076110f5565b5b81356112188482602086016111b3565b91505092915050565b5f6020828403121561123657611235610c95565b5b5f82013567ffffffffffffffff81111561125357611252610c99565b5b61125f848285016111f4565b91505092915050565b5f60208201905061127b5f830184610d68565b92915050565b5f6020828403121561129657611295610c95565b5b5f6112a384828501610d16565b91505092915050565b5f60a083015f8301516112c15f860182610ea2565b50602083015184820360208601526112d98282610ec1565b91505060408301516112ee6040860182610ef9565b5060608301516113016060860182610ef9565b5060808301516113146080860182610ef9565b508091505092915050565b5f6020820190508181035f83015261133781846112ac565b905092915050565b7f4e487b71000000000000000000000000000000000000000000000000000000005f52602260045260245ffd5b5f600282049050600182168061138357607f821691505b6020821081036113965761139561133f565b5b50919050565b7f4e6f7420746865206f776e6572000000000000000000000000000000000000005f82015250565b5f6113d0600d83610d81565b91506113db8261139c565b602082019050919050565b5f6020820190508181035f8301526113fd816113c4565b9050919050565b7f4e487b71000000000000000000000000000000000000000000000000000000005f52603260045260245ffd5b7f4e6965206d612074616b6965676f2074776565747500000000000000000000005f82015250565b5f611465601583610d81565b915061147082611431565b602082019050919050565b5f6020820190508181035f83015261149281611459565b9050919050565b7f4e6965206d6f7a65737a207573756e6163206c696b65000000000000000000005f82015250565b5f6114cd601683610d81565b91506114d882611499565b602082019050919050565b5f6020820190508181035f8301526114fa816114c1565b9050919050565b7f4e487b71000000000000000000000000000000000000000000000000000000005f52601160045260245ffd5b5f61153882610cf7565b91505f820361154a57611549611501565b5b600182039050919050565b7f4d65737361676520746f206c6f6e6700000000000000000000000000000000005f82015250565b5f611589600f83610d81565b915061159482611555565b602082019050919050565b5f6020820190508181035f8301526115b68161157d565b9050919050565b5f819050815f5260205f209050919050565b5f6020601f8301049050919050565b5f82821b905092915050565b5f600883026116197fffffffffffffffffffffffffffffffffffffffffffffffffffffffffffffffff826115de565b61162386836115de565b95508019841693508086168417925050509392505050565b5f819050919050565b5f61165e61165961165484610cf7565b61163b565b610cf7565b9050919050565b5f819050919050565b61167783611644565b61168b61168382611665565b8484546115ea565b825550505050565b5f90565b61169f611693565b6116aa81848461166e565b505050565b5b818110156116cd576116c25f82611697565b6001810190506116b0565b5050565b601f821115611712576116e3816115bd565b6116ec846115cf565b810160208510156116fb578190505b61170f611707856115cf565b8301826116af565b50505b505050565b5f82821c905092915050565b5f6117325f1984600802611717565b1980831691505092915050565b5f61174a8383611723565b9150826002028217905092915050565b61176382610d77565b67ffffffffffffffff81111561177c5761177b6110fd565b5b611786825461136c565b6117918282856116d1565b5f60209050601f8311600181146117c2575f84156117b0578287015190505b6117ba858261173f565b865550611821565b601f1984166117d0866115bd565b5f5b828110156117f7578489015182556001820191506020850194506020810190506117d2565b868310156118145784890151611810601f891682611723565b8355505b6001600288020188555050505b505050505050565b7f4a657374657320776c61736369776f736369656d2c206e6965206d6f7a65737a5f8201527f206c696b6f77616320776c61736e65676f20706f737461000000000000000000602082015250565b5f611883603783610d81565b915061188e82611829565b604082019050919050565b5f6020820190508181035f8301526118b081611877565b9050919050565b5f6118c182610cf7565b91507fffffffffffffffffffffffffffffffffffffffffffffffffffffffffffffffff82036118f3576118f2611501565b5b60018201905091905056fea26469706673582212204f76b8d0767a0ab337c81deadb1376cc9929b597c03f30acfd3a3c2bc37a7ac964736f6c634300081a0033",
					"opcodes": "PUSH1 0x80 PUSH1 0x40 MSTORE PUSH2 0x118 PUSH0 DUP1 PUSH2 0x100 EXP DUP2 SLOAD DUP2 PUSH2 0xFFFF MUL NOT AND SWAP1 DUP4 PUSH2 0xFFFF AND MUL OR SWAP1 SSTORE POP CALLVALUE DUP1 ISZERO PUSH1 0x2B JUMPI PUSH0 DUP1 REVERT JUMPDEST POP CALLER PUSH1 0x2 PUSH0 PUSH2 0x100 EXP DUP2 SLOAD DUP2 PUSH20 0xFFFFFFFFFFFFFFFFFFFFFFFFFFFFFFFFFFFFFFFF MUL NOT AND SWAP1 DUP4 PUSH20 0xFFFFFFFFFFFFFFFFFFFFFFFFFFFFFFFFFFFFFFFF AND MUL OR SWAP1 SSTORE POP PUSH2 0x1934 DUP1 PUSH2 0x79 PUSH0 CODECOPY PUSH0 RETURN INVALID PUSH1 0x80 PUSH1 0x40 MSTORE CALLVALUE DUP1 ISZERO PUSH2 0xF JUMPI PUSH0 DUP1 REVERT JUMPDEST POP PUSH1 0x4 CALLDATASIZE LT PUSH2 0x91 JUMPI PUSH0 CALLDATALOAD PUSH1 0xE0 SHR DUP1 PUSH4 0x7A639E39 GT PUSH2 0x64 JUMPI DUP1 PUSH4 0x7A639E39 EQ PUSH2 0x133 JUMPI DUP1 PUSH4 0x7C9CD2BC EQ PUSH2 0x14F JUMPI DUP1 PUSH4 0x8DA5CB5B EQ PUSH2 0x16B JUMPI DUP1 PUSH4 0xC3AD5ECB EQ PUSH2 0x189 JUMPI DUP1 PUSH4 0xF65A8F40 EQ PUSH2 0x1B9 JUMPI PUSH2 0x91 JUMP JUMPDEST DUP1 PUSH4 0x5A1B4A9 EQ PUSH2 0x95 JUMPI DUP1 PUSH4 0x12E7EE1C EQ PUSH2 0xC9 JUMPI DUP1 PUSH4 0x58BFA4AB EQ PUSH2 0xF9 JUMPI DUP1 PUSH4 0x6EB10797 EQ PUSH2 0x115 JUMPI JUMPDEST PUSH0 DUP1 REVERT JUMPDEST PUSH2 0xAF PUSH1 0x4 DUP1 CALLDATASIZE SUB DUP2 ADD SWAP1 PUSH2 0xAA SWAP2 SWAP1 PUSH2 0xD2A JUMP JUMPDEST PUSH2 0x1D5 JUMP JUMPDEST PUSH1 0x40 MLOAD PUSH2 0xC0 SWAP6 SWAP5 SWAP4 SWAP3 SWAP2 SWAP1 PUSH2 0xDF6 JUMP JUMPDEST PUSH1 0x40 MLOAD DUP1 SWAP2 SUB SWAP1 RETURN JUMPDEST PUSH2 0xE3 PUSH1 0x4 DUP1 CALLDATASIZE SUB DUP2 ADD SWAP1 PUSH2 0xDE SWAP2 SWAP1 PUSH2 0xE4E JUMP JUMPDEST PUSH2 0x2C6 JUMP JUMPDEST PUSH1 0x40 MLOAD PUSH2 0xF0 SWAP2 SWAP1 PUSH2 0x100D JUMP JUMPDEST PUSH1 0x40 MLOAD DUP1 SWAP2 SUB SWAP1 RETURN JUMPDEST PUSH2 0x113 PUSH1 0x4 DUP1 CALLDATASIZE SUB DUP2 ADD SWAP1 PUSH2 0x10E SWAP2 SWAP1 PUSH2 0x1064 JUMP JUMPDEST PUSH2 0x461 JUMP JUMPDEST STOP JUMPDEST PUSH2 0x11D PUSH2 0x50E JUMP JUMPDEST PUSH1 0x40 MLOAD PUSH2 0x12A SWAP2 SWAP1 PUSH2 0x109E JUMP JUMPDEST PUSH1 0x40 MLOAD DUP1 SWAP2 SUB SWAP1 RETURN JUMPDEST PUSH2 0x14D PUSH1 0x4 DUP1 CALLDATASIZE SUB DUP2 ADD SWAP1 PUSH2 0x148 SWAP2 SWAP1 PUSH2 0x10B7 JUMP JUMPDEST PUSH2 0x51F JUMP JUMPDEST STOP JUMPDEST PUSH2 0x169 PUSH1 0x4 DUP1 CALLDATASIZE SUB DUP2 ADD SWAP1 PUSH2 0x164 SWAP2 SWAP1 PUSH2 0x1221 JUMP JUMPDEST PUSH2 0x6D6 JUMP JUMPDEST STOP JUMPDEST PUSH2 0x173 PUSH2 0x88D JUMP JUMPDEST PUSH1 0x40 MLOAD PUSH2 0x180 SWAP2 SWAP1 PUSH2 0x1268 JUMP JUMPDEST PUSH1 0x40 MLOAD DUP1 SWAP2 SUB SWAP1 RETURN JUMPDEST PUSH2 0x1A3 PUSH1 0x4 DUP1 CALLDATASIZE SUB DUP2 ADD SWAP1 PUSH2 0x19E SWAP2 SWAP1 PUSH2 0x1281 JUMP JUMPDEST PUSH2 0x8B2 JUMP JUMPDEST PUSH1 0x40 MLOAD PUSH2 0x1B0 SWAP2 SWAP1 PUSH2 0x131F JUMP JUMPDEST PUSH1 0x40 MLOAD DUP1 SWAP2 SUB SWAP1 RETURN JUMPDEST PUSH2 0x1D3 PUSH1 0x4 DUP1 CALLDATASIZE SUB DUP2 ADD SWAP1 PUSH2 0x1CE SWAP2 SWAP1 PUSH2 0xD2A JUMP JUMPDEST PUSH2 0xA29 JUMP JUMPDEST STOP JUMPDEST PUSH1 0x1 PUSH1 0x20 MSTORE DUP2 PUSH0 MSTORE PUSH1 0x40 PUSH0 KECCAK256 DUP2 DUP2 SLOAD DUP2 LT PUSH2 0x1EE JUMPI PUSH0 DUP1 REVERT JUMPDEST SWAP1 PUSH0 MSTORE PUSH1 0x20 PUSH0 KECCAK256 SWAP1 PUSH1 0x5 MUL ADD PUSH0 SWAP2 POP SWAP2 POP POP DUP1 PUSH0 ADD PUSH0 SWAP1 SLOAD SWAP1 PUSH2 0x100 EXP SWAP1 DIV PUSH20 0xFFFFFFFFFFFFFFFFFFFFFFFFFFFFFFFFFFFFFFFF AND SWAP1 DUP1 PUSH1 0x1 ADD DUP1 SLOAD PUSH2 0x233 SWAP1 PUSH2 0x136C JUMP JUMPDEST DUP1 PUSH1 0x1F ADD PUSH1 0x20 DUP1 SWAP2 DIV MUL PUSH1 0x20 ADD PUSH1 0x40 MLOAD SWAP1 DUP2 ADD PUSH1 0x40 MSTORE DUP1 SWAP3 SWAP2 SWAP1 DUP2 DUP2 MSTORE PUSH1 0x20 ADD DUP3 DUP1 SLOAD PUSH2 0x25F SWAP1 PUSH2 0x136C JUMP JUMPDEST DUP1 ISZERO PUSH2 0x2AA JUMPI DUP1 PUSH1 0x1F LT PUSH2 0x281 JUMPI PUSH2 0x100 DUP1 DUP4 SLOAD DIV MUL DUP4 MSTORE SWAP2 PUSH1 0x20 ADD SWAP2 PUSH2 0x2AA JUMP JUMPDEST DUP3 ADD SWAP2 SWAP1 PUSH0 MSTORE PUSH1 0x20 PUSH0 KECCAK256 SWAP1 JUMPDEST DUP2 SLOAD DUP2 MSTORE SWAP1 PUSH1 0x1 ADD SWAP1 PUSH1 0x20 ADD DUP1 DUP4 GT PUSH2 0x28D JUMPI DUP3 SWAP1 SUB PUSH1 0x1F AND DUP3 ADD SWAP2 JUMPDEST POP POP POP POP POP SWAP1 DUP1 PUSH1 0x2 ADD SLOAD SWAP1 DUP1 PUSH1 0x3 ADD SLOAD SWAP1 DUP1 PUSH1 0x4 ADD SLOAD SWAP1 POP DUP6 JUMP JUMPDEST PUSH1 0x60 PUSH1 0x1 PUSH0 DUP4 PUSH20 0xFFFFFFFFFFFFFFFFFFFFFFFFFFFFFFFFFFFFFFFF AND PUSH20 0xFFFFFFFFFFFFFFFFFFFFFFFFFFFFFFFFFFFFFFFF AND DUP2 MSTORE PUSH1 0x20 ADD SWAP1 DUP2 MSTORE PUSH1 0x20 ADD PUSH0 KECCAK256 DUP1 SLOAD DUP1 PUSH1 0x20 MUL PUSH1 0x20 ADD PUSH1 0x40 MLOAD SWAP1 DUP2 ADD PUSH1 0x40 MSTORE DUP1 SWAP3 SWAP2 SWAP1 DUP2 DUP2 MSTORE PUSH1 0x20 ADD PUSH0 SWAP1 JUMPDEST DUP3 DUP3 LT ISZERO PUSH2 0x456 JUMPI DUP4 DUP3 SWAP1 PUSH0 MSTORE PUSH1 0x20 PUSH0 KECCAK256 SWAP1 PUSH1 0x5 MUL ADD PUSH1 0x40 MLOAD DUP1 PUSH1 0xA0 ADD PUSH1 0x40 MSTORE SWAP1 DUP2 PUSH0 DUP3 ADD PUSH0 SWAP1 SLOAD SWAP1 PUSH2 0x100 EXP SWAP1 DIV PUSH20 0xFFFFFFFFFFFFFFFFFFFFFFFFFFFFFFFFFFFFFFFF AND PUSH20 0xFFFFFFFFFFFFFFFFFFFFFFFFFFFFFFFFFFFFFFFF AND PUSH20 0xFFFFFFFFFFFFFFFFFFFFFFFFFFFFFFFFFFFFFFFF AND DUP2 MSTORE PUSH1 0x20 ADD PUSH1 0x1 DUP3 ADD DUP1 SLOAD PUSH2 0x3A9 SWAP1 PUSH2 0x136C JUMP JUMPDEST DUP1 PUSH1 0x1F ADD PUSH1 0x20 DUP1 SWAP2 DIV MUL PUSH1 0x20 ADD PUSH1 0x40 MLOAD SWAP1 DUP2 ADD PUSH1 0x40 MSTORE DUP1 SWAP3 SWAP2 SWAP1 DUP2 DUP2 MSTORE PUSH1 0x20 ADD DUP3 DUP1 SLOAD PUSH2 0x3D5 SWAP1 PUSH2 0x136C JUMP JUMPDEST DUP1 ISZERO PUSH2 0x420 JUMPI DUP1 PUSH1 0x1F LT PUSH2 0x3F7 JUMPI PUSH2 0x100 DUP1 DUP4 SLOAD DIV MUL DUP4 MSTORE SWAP2 PUSH1 0x20 ADD SWAP2 PUSH2 0x420 JUMP JUMPDEST DUP3 ADD SWAP2 SWAP1 PUSH0 MSTORE PUSH1 0x20 PUSH0 KECCAK256 SWAP1 JUMPDEST DUP2 SLOAD DUP2 MSTORE SWAP1 PUSH1 0x1 ADD SWAP1 PUSH1 0x20 ADD DUP1 DUP4 GT PUSH2 0x403 JUMPI DUP3 SWAP1 SUB PUSH1 0x1F AND DUP3 ADD SWAP2 JUMPDEST POP POP POP POP POP DUP2 MSTORE PUSH1 0x20 ADD PUSH1 0x2 DUP3 ADD SLOAD DUP2 MSTORE PUSH1 0x20 ADD PUSH1 0x3 DUP3 ADD SLOAD DUP2 MSTORE PUSH1 0x20 ADD PUSH1 0x4 DUP3 ADD SLOAD DUP2 MSTORE POP POP DUP2 MSTORE PUSH1 0x20 ADD SWAP1 PUSH1 0x1 ADD SWAP1 PUSH2 0x324 JUMP JUMPDEST POP POP POP POP SWAP1 POP SWAP2 SWAP1 POP JUMP JUMPDEST PUSH1 0x2 PUSH0 SWAP1 SLOAD SWAP1 PUSH2 0x100 EXP SWAP1 DIV PUSH20 0xFFFFFFFFFFFFFFFFFFFFFFFFFFFFFFFFFFFFFFFF AND PUSH20 0xFFFFFFFFFFFFFFFFFFFFFFFFFFFFFFFFFFFFFFFF AND CALLER PUSH20 0xFFFFFFFFFFFFFFFFFFFFFFFFFFFFFFFFFFFFFFFF AND EQ PUSH2 0x4F0 JUMPI PUSH1 0x40 MLOAD PUSH32 0x8C379A000000000000000000000000000000000000000000000000000000000 DUP2 MSTORE PUSH1 0x4 ADD PUSH2 0x4E7 SWAP1 PUSH2 0x13E6 JUMP JUMPDEST PUSH1 0x40 MLOAD DUP1 SWAP2 SUB SWAP1 REVERT JUMPDEST DUP1 PUSH0 DUP1 PUSH2 0x100 EXP DUP2 SLOAD DUP2 PUSH2 0xFFFF MUL NOT AND SWAP1 DUP4 PUSH2 0xFFFF AND MUL OR SWAP1 SSTORE POP POP JUMP JUMPDEST PUSH0 DUP1 SLOAD SWAP1 PUSH2 0x100 EXP SWAP1 DIV PUSH2 0xFFFF AND DUP2 JUMP JUMPDEST DUP2 PUSH1 0x1 PUSH0 DUP4 PUSH20 0xFFFFFFFFFFFFFFFFFFFFFFFFFFFFFFFFFFFFFFFF AND PUSH20 0xFFFFFFFFFFFFFFFFFFFFFFFFFFFFFFFFFFFFFFFF AND DUP2 MSTORE PUSH1 0x20 ADD SWAP1 DUP2 MSTORE PUSH1 0x20 ADD PUSH0 KECCAK256 DUP4 DUP2 SLOAD DUP2 LT PUSH2 0x56F JUMPI PUSH2 0x56E PUSH2 0x1404 JUMP JUMPDEST JUMPDEST SWAP1 PUSH0 MSTORE PUSH1 0x20 PUSH0 KECCAK256 SWAP1 PUSH1 0x5 MUL ADD PUSH1 0x4 ADD SLOAD EQ PUSH2 0x5BF JUMPI PUSH1 0x40 MLOAD PUSH32 0x8C379A000000000000000000000000000000000000000000000000000000000 DUP2 MSTORE PUSH1 0x4 ADD PUSH2 0x5B6 SWAP1 PUSH2 0x147B JUMP JUMPDEST PUSH1 0x40 MLOAD DUP1 SWAP2 SUB SWAP1 REVERT JUMPDEST PUSH0 PUSH1 0x1 PUSH0 DUP4 PUSH20 0xFFFFFFFFFFFFFFFFFFFFFFFFFFFFFFFFFFFFFFFF AND PUSH20 0xFFFFFFFFFFFFFFFFFFFFFFFFFFFFFFFFFFFFFFFF AND DUP2 MSTORE PUSH1 0x20 ADD SWAP1 DUP2 MSTORE PUSH1 0x20 ADD PUSH0 KECCAK256 DUP4 DUP2 SLOAD DUP2 LT PUSH2 0x60F JUMPI PUSH2 0x60E PUSH2 0x1404 JUMP JUMPDEST JUMPDEST SWAP1 PUSH0 MSTORE PUSH1 0x20 PUSH0 KECCAK256 SWAP1 PUSH1 0x5 MUL ADD PUSH1 0x3 ADD SLOAD GT PUSH2 0x65F JUMPI PUSH1 0x40 MLOAD PUSH32 0x8C379A000000000000000000000000000000000000000000000000000000000 DUP2 MSTORE PUSH1 0x4 ADD PUSH2 0x656 SWAP1 PUSH2 0x14E3 JUMP JUMPDEST PUSH1 0x40 MLOAD DUP1 SWAP2 SUB SWAP1 REVERT JUMPDEST PUSH1 0x1 PUSH0 DUP3 PUSH20 0xFFFFFFFFFFFFFFFFFFFFFFFFFFFFFFFFFFFFFFFF AND PUSH20 0xFFFFFFFFFFFFFFFFFFFFFFFFFFFFFFFFFFFFFFFF AND DUP2 MSTORE PUSH1 0x20 ADD SWAP1 DUP2 MSTORE PUSH1 0x20 ADD PUSH0 KECCAK256 DUP3 DUP2 SLOAD DUP2 LT PUSH2 0x6AE JUMPI PUSH2 0x6AD PUSH2 0x1404 JUMP JUMPDEST JUMPDEST SWAP1 PUSH0 MSTORE PUSH1 0x20 PUSH0 KECCAK256 SWAP1 PUSH1 0x5 MUL ADD PUSH1 0x3 ADD PUSH0 DUP2 SLOAD DUP1 SWAP3 SWAP2 SWAP1 PUSH2 0x6CD SWAP1 PUSH2 0x152E JUMP JUMPDEST SWAP2 SWAP1 POP SSTORE POP POP POP JUMP JUMPDEST PUSH0 DUP1 SLOAD SWAP1 PUSH2 0x100 EXP SWAP1 DIV PUSH2 0xFFFF AND PUSH2 0xFFFF AND DUP2 MLOAD GT ISZERO PUSH2 0x72B JUMPI PUSH1 0x40 MLOAD PUSH32 0x8C379A000000000000000000000000000000000000000000000000000000000 DUP2 MSTORE PUSH1 0x4 ADD PUSH2 0x722 SWAP1 PUSH2 0x159F JUMP JUMPDEST PUSH1 0x40 MLOAD DUP1 SWAP2 SUB SWAP1 REVERT JUMPDEST PUSH0 PUSH1 0x40 MLOAD DUP1 PUSH1 0xA0 ADD PUSH1 0x40 MSTORE DUP1 CALLER PUSH20 0xFFFFFFFFFFFFFFFFFFFFFFFFFFFFFFFFFFFFFFFF AND DUP2 MSTORE PUSH1 0x20 ADD DUP4 DUP2 MSTORE PUSH1 0x20 ADD TIMESTAMP DUP2 MSTORE PUSH1 0x20 ADD PUSH0 DUP2 MSTORE PUSH1 0x20 ADD PUSH1 0x1 PUSH0 CALLER PUSH20 0xFFFFFFFFFFFFFFFFFFFFFFFFFFFFFFFFFFFFFFFF AND PUSH20 0xFFFFFFFFFFFFFFFFFFFFFFFFFFFFFFFFFFFFFFFF AND DUP2 MSTORE PUSH1 0x20 ADD SWAP1 DUP2 MSTORE PUSH1 0x20 ADD PUSH0 KECCAK256 DUP1 SLOAD SWAP1 POP DUP2 MSTORE POP SWAP1 POP PUSH1 0x1 PUSH0 CALLER PUSH20 0xFFFFFFFFFFFFFFFFFFFFFFFFFFFFFFFFFFFFFFFF AND PUSH20 0xFFFFFFFFFFFFFFFFFFFFFFFFFFFFFFFFFFFFFFFF AND DUP2 MSTORE PUSH1 0x20 ADD SWAP1 DUP2 MSTORE PUSH1 0x20 ADD PUSH0 KECCAK256 DUP2 SWAP1 DUP1 PUSH1 0x1 DUP2 SLOAD ADD DUP1 DUP3 SSTORE DUP1 SWAP2 POP POP PUSH1 0x1 SWAP1 SUB SWAP1 PUSH0 MSTORE PUSH1 0x20 PUSH0 KECCAK256 SWAP1 PUSH1 0x5 MUL ADD PUSH0 SWAP1 SWAP2 SWAP1 SWAP2 SWAP1 SWAP2 POP PUSH0 DUP3 ADD MLOAD DUP2 PUSH0 ADD PUSH0 PUSH2 0x100 EXP DUP2 SLOAD DUP2 PUSH20 0xFFFFFFFFFFFFFFFFFFFFFFFFFFFFFFFFFFFFFFFF MUL NOT AND SWAP1 DUP4 PUSH20 0xFFFFFFFFFFFFFFFFFFFFFFFFFFFFFFFFFFFFFFFF AND MUL OR SWAP1 SSTORE POP PUSH1 0x20 DUP3 ADD MLOAD DUP2 PUSH1 0x1 ADD SWAP1 DUP2 PUSH2 0x868 SWAP2 SWAP1 PUSH2 0x175A JUMP JUMPDEST POP PUSH1 0x40 DUP3 ADD MLOAD DUP2 PUSH1 0x2 ADD SSTORE PUSH1 0x60 DUP3 ADD MLOAD DUP2 PUSH1 0x3 ADD SSTORE PUSH1 0x80 DUP3 ADD MLOAD DUP2 PUSH1 0x4 ADD SSTORE POP POP POP POP JUMP JUMPDEST PUSH1 0x2 PUSH0 SWAP1 SLOAD SWAP1 PUSH2 0x100 EXP SWAP1 DIV PUSH20 0xFFFFFFFFFFFFFFFFFFFFFFFFFFFFFFFFFFFFFFFF AND DUP2 JUMP JUMPDEST PUSH2 0x8BA PUSH2 0xC4B JUMP JUMPDEST PUSH1 0x1 PUSH0 CALLER PUSH20 0xFFFFFFFFFFFFFFFFFFFFFFFFFFFFFFFFFFFFFFFF AND PUSH20 0xFFFFFFFFFFFFFFFFFFFFFFFFFFFFFFFFFFFFFFFF AND DUP2 MSTORE PUSH1 0x20 ADD SWAP1 DUP2 MSTORE PUSH1 0x20 ADD PUSH0 KECCAK256 DUP3 DUP2 SLOAD DUP2 LT PUSH2 0x909 JUMPI PUSH2 0x908 PUSH2 0x1404 JUMP JUMPDEST JUMPDEST SWAP1 PUSH0 MSTORE PUSH1 0x20 PUSH0 KECCAK256 SWAP1 PUSH1 0x5 MUL ADD PUSH1 0x40 MLOAD DUP1 PUSH1 0xA0 ADD PUSH1 0x40 MSTORE SWAP1 DUP2 PUSH0 DUP3 ADD PUSH0 SWAP1 SLOAD SWAP1 PUSH2 0x100 EXP SWAP1 DIV PUSH20 0xFFFFFFFFFFFFFFFFFFFFFFFFFFFFFFFFFFFFFFFF AND PUSH20 0xFFFFFFFFFFFFFFFFFFFFFFFFFFFFFFFFFFFFFFFF AND PUSH20 0xFFFFFFFFFFFFFFFFFFFFFFFFFFFFFFFFFFFFFFFF AND DUP2 MSTORE PUSH1 0x20 ADD PUSH1 0x1 DUP3 ADD DUP1 SLOAD PUSH2 0x984 SWAP1 PUSH2 0x136C JUMP JUMPDEST DUP1 PUSH1 0x1F ADD PUSH1 0x20 DUP1 SWAP2 DIV MUL PUSH1 0x20 ADD PUSH1 0x40 MLOAD SWAP1 DUP2 ADD PUSH1 0x40 MSTORE DUP1 SWAP3 SWAP2 SWAP1 DUP2 DUP2 MSTORE PUSH1 0x20 ADD DUP3 DUP1 SLOAD PUSH2 0x9B0 SWAP1 PUSH2 0x136C JUMP JUMPDEST DUP1 ISZERO PUSH2 0x9FB JUMPI DUP1 PUSH1 0x1F LT PUSH2 0x9D2 JUMPI PUSH2 0x100 DUP1 DUP4 SLOAD DIV MUL DUP4 MSTORE SWAP2 PUSH1 0x20 ADD SWAP2 PUSH2 0x9FB JUMP JUMPDEST DUP3 ADD SWAP2 SWAP1 PUSH0 MSTORE PUSH1 0x20 PUSH0 KECCAK256 SWAP1 JUMPDEST DUP2 SLOAD DUP2 MSTORE SWAP1 PUSH1 0x1 ADD SWAP1 PUSH1 0x20 ADD DUP1 DUP4 GT PUSH2 0x9DE JUMPI DUP3 SWAP1 SUB PUSH1 0x1F AND DUP3 ADD SWAP2 JUMPDEST POP POP POP POP POP DUP2 MSTORE PUSH1 0x20 ADD PUSH1 0x2 DUP3 ADD SLOAD DUP2 MSTORE PUSH1 0x20 ADD PUSH1 0x3 DUP3 ADD SLOAD DUP2 MSTORE PUSH1 0x20 ADD PUSH1 0x4 DUP3 ADD SLOAD DUP2 MSTORE POP POP SWAP1 POP SWAP2 SWAP1 POP JUMP JUMPDEST PUSH1 0x2 PUSH0 SWAP1 SLOAD SWAP1 PUSH2 0x100 EXP SWAP1 DIV PUSH20 0xFFFFFFFFFFFFFFFFFFFFFFFFFFFFFFFFFFFFFFFF AND PUSH20 0xFFFFFFFFFFFFFFFFFFFFFFFFFFFFFFFFFFFFFFFF AND PUSH1 0x1 PUSH0 DUP5 PUSH20 0xFFFFFFFFFFFFFFFFFFFFFFFFFFFFFFFFFFFFFFFF AND PUSH20 0xFFFFFFFFFFFFFFFFFFFFFFFFFFFFFFFFFFFFFFFF AND DUP2 MSTORE PUSH1 0x20 ADD SWAP1 DUP2 MSTORE PUSH1 0x20 ADD PUSH0 KECCAK256 DUP3 DUP2 SLOAD DUP2 LT PUSH2 0xAB0 JUMPI PUSH2 0xAAF PUSH2 0x1404 JUMP JUMPDEST JUMPDEST SWAP1 PUSH0 MSTORE PUSH1 0x20 PUSH0 KECCAK256 SWAP1 PUSH1 0x5 MUL ADD PUSH0 ADD PUSH0 SWAP1 SLOAD SWAP1 PUSH2 0x100 EXP SWAP1 DIV PUSH20 0xFFFFFFFFFFFFFFFFFFFFFFFFFFFFFFFFFFFFFFFF AND PUSH20 0xFFFFFFFFFFFFFFFFFFFFFFFFFFFFFFFFFFFFFFFF AND SUB PUSH2 0xB34 JUMPI PUSH1 0x40 MLOAD PUSH32 0x8C379A000000000000000000000000000000000000000000000000000000000 DUP2 MSTORE PUSH1 0x4 ADD PUSH2 0xB2B SWAP1 PUSH2 0x1899 JUMP JUMPDEST PUSH1 0x40 MLOAD DUP1 SWAP2 SUB SWAP1 REVERT JUMPDEST DUP1 PUSH1 0x1 PUSH0 DUP5 PUSH20 0xFFFFFFFFFFFFFFFFFFFFFFFFFFFFFFFFFFFFFFFF AND PUSH20 0xFFFFFFFFFFFFFFFFFFFFFFFFFFFFFFFFFFFFFFFF AND DUP2 MSTORE PUSH1 0x20 ADD SWAP1 DUP2 MSTORE PUSH1 0x20 ADD PUSH0 KECCAK256 DUP3 DUP2 SLOAD DUP2 LT PUSH2 0xB84 JUMPI PUSH2 0xB83 PUSH2 0x1404 JUMP JUMPDEST JUMPDEST SWAP1 PUSH0 MSTORE PUSH1 0x20 PUSH0 KECCAK256 SWAP1 PUSH1 0x5 MUL ADD PUSH1 0x4 ADD SLOAD EQ PUSH2 0xBD4 JUMPI PUSH1 0x40 MLOAD PUSH32 0x8C379A000000000000000000000000000000000000000000000000000000000 DUP2 MSTORE PUSH1 0x4 ADD PUSH2 0xBCB SWAP1 PUSH2 0x147B JUMP JUMPDEST PUSH1 0x40 MLOAD DUP1 SWAP2 SUB SWAP1 REVERT JUMPDEST PUSH1 0x1 PUSH0 DUP4 PUSH20 0xFFFFFFFFFFFFFFFFFFFFFFFFFFFFFFFFFFFFFFFF AND PUSH20 0xFFFFFFFFFFFFFFFFFFFFFFFFFFFFFFFFFFFFFFFF AND DUP2 MSTORE PUSH1 0x20 ADD SWAP1 DUP2 MSTORE PUSH1 0x20 ADD PUSH0 KECCAK256 DUP2 DUP2 SLOAD DUP2 LT PUSH2 0xC23 JUMPI PUSH2 0xC22 PUSH2 0x1404 JUMP JUMPDEST JUMPDEST SWAP1 PUSH0 MSTORE PUSH1 0x20 PUSH0 KECCAK256 SWAP1 PUSH1 0x5 MUL ADD PUSH1 0x3 ADD PUSH0 DUP2 SLOAD DUP1 SWAP3 SWAP2 SWAP1 PUSH2 0xC42 SWAP1 PUSH2 0x18B7 JUMP JUMPDEST SWAP2 SWAP1 POP SSTORE POP POP POP JUMP JUMPDEST PUSH1 0x40 MLOAD DUP1 PUSH1 0xA0 ADD PUSH1 0x40 MSTORE DUP1 PUSH0 PUSH20 0xFFFFFFFFFFFFFFFFFFFFFFFFFFFFFFFFFFFFFFFF AND DUP2 MSTORE PUSH1 0x20 ADD PUSH1 0x60 DUP2 MSTORE PUSH1 0x20 ADD PUSH0 DUP2 MSTORE PUSH1 0x20 ADD PUSH0 DUP2 MSTORE PUSH1 0x20 ADD PUSH0 DUP2 MSTORE POP SWAP1 JUMP JUMPDEST PUSH0 PUSH1 0x40 MLOAD SWAP1 POP SWAP1 JUMP JUMPDEST PUSH0 DUP1 REVERT JUMPDEST PUSH0 DUP1 REVERT JUMPDEST PUSH0 PUSH20 0xFFFFFFFFFFFFFFFFFFFFFFFFFFFFFFFFFFFFFFFF DUP3 AND SWAP1 POP SWAP2 SWAP1 POP JUMP JUMPDEST PUSH0 PUSH2 0xCC6 DUP3 PUSH2 0xC9D JUMP JUMPDEST SWAP1 POP SWAP2 SWAP1 POP JUMP JUMPDEST PUSH2 0xCD6 DUP2 PUSH2 0xCBC JUMP JUMPDEST DUP2 EQ PUSH2 0xCE0 JUMPI PUSH0 DUP1 REVERT JUMPDEST POP JUMP JUMPDEST PUSH0 DUP2 CALLDATALOAD SWAP1 POP PUSH2 0xCF1 DUP2 PUSH2 0xCCD JUMP JUMPDEST SWAP3 SWAP2 POP POP JUMP JUMPDEST PUSH0 DUP2 SWAP1 POP SWAP2 SWAP1 POP JUMP JUMPDEST PUSH2 0xD09 DUP2 PUSH2 0xCF7 JUMP JUMPDEST DUP2 EQ PUSH2 0xD13 JUMPI PUSH0 DUP1 REVERT JUMPDEST POP JUMP JUMPDEST PUSH0 DUP2 CALLDATALOAD SWAP1 POP PUSH2 0xD24 DUP2 PUSH2 0xD00 JUMP JUMPDEST SWAP3 SWAP2 POP POP JUMP JUMPDEST PUSH0 DUP1 PUSH1 0x40 DUP4 DUP6 SUB SLT ISZERO PUSH2 0xD40 JUMPI PUSH2 0xD3F PUSH2 0xC95 JUMP JUMPDEST JUMPDEST PUSH0 PUSH2 0xD4D DUP6 DUP3 DUP7 ADD PUSH2 0xCE3 JUMP JUMPDEST SWAP3 POP POP PUSH1 0x20 PUSH2 0xD5E DUP6 DUP3 DUP7 ADD PUSH2 0xD16 JUMP JUMPDEST SWAP2 POP POP SWAP3 POP SWAP3 SWAP1 POP JUMP JUMPDEST PUSH2 0xD71 DUP2 PUSH2 0xCBC JUMP JUMPDEST DUP3 MSTORE POP POP JUMP JUMPDEST PUSH0 DUP2 MLOAD SWAP1 POP SWAP2 SWAP1 POP JUMP JUMPDEST PUSH0 DUP3 DUP3 MSTORE PUSH1 0x20 DUP3 ADD SWAP1 POP SWAP3 SWAP2 POP POP JUMP JUMPDEST DUP3 DUP2 DUP4 MCOPY PUSH0 DUP4 DUP4 ADD MSTORE POP POP POP JUMP JUMPDEST PUSH0 PUSH1 0x1F NOT PUSH1 0x1F DUP4 ADD AND SWAP1 POP SWAP2 SWAP1 POP JUMP JUMPDEST PUSH0 PUSH2 0xDB9 DUP3 PUSH2 0xD77 JUMP JUMPDEST PUSH2 0xDC3 DUP2 DUP6 PUSH2 0xD81 JUMP JUMPDEST SWAP4 POP PUSH2 0xDD3 DUP2 DUP6 PUSH1 0x20 DUP7 ADD PUSH2 0xD91 JUMP JUMPDEST PUSH2 0xDDC DUP2 PUSH2 0xD9F JUMP JUMPDEST DUP5 ADD SWAP2 POP POP SWAP3 SWAP2 POP POP JUMP JUMPDEST PUSH2 0xDF0 DUP2 PUSH2 0xCF7 JUMP JUMPDEST DUP3 MSTORE POP POP JUMP JUMPDEST PUSH0 PUSH1 0xA0 DUP3 ADD SWAP1 POP PUSH2 0xE09 PUSH0 DUP4 ADD DUP9 PUSH2 0xD68 JUMP JUMPDEST DUP2 DUP2 SUB PUSH1 0x20 DUP4 ADD MSTORE PUSH2 0xE1B DUP2 DUP8 PUSH2 0xDAF JUMP JUMPDEST SWAP1 POP PUSH2 0xE2A PUSH1 0x40 DUP4 ADD DUP7 PUSH2 0xDE7 JUMP JUMPDEST PUSH2 0xE37 PUSH1 0x60 DUP4 ADD DUP6 PUSH2 0xDE7 JUMP JUMPDEST PUSH2 0xE44 PUSH1 0x80 DUP4 ADD DUP5 PUSH2 0xDE7 JUMP JUMPDEST SWAP7 SWAP6 POP POP POP POP POP POP JUMP JUMPDEST PUSH0 PUSH1 0x20 DUP3 DUP5 SUB SLT ISZERO PUSH2 0xE63 JUMPI PUSH2 0xE62 PUSH2 0xC95 JUMP JUMPDEST JUMPDEST PUSH0 PUSH2 0xE70 DUP5 DUP3 DUP6 ADD PUSH2 0xCE3 JUMP JUMPDEST SWAP2 POP POP SWAP3 SWAP2 POP POP JUMP JUMPDEST PUSH0 DUP2 MLOAD SWAP1 POP SWAP2 SWAP1 POP JUMP JUMPDEST PUSH0 DUP3 DUP3 MSTORE PUSH1 0x20 DUP3 ADD SWAP1 POP SWAP3 SWAP2 POP POP JUMP JUMPDEST PUSH0 DUP2 SWAP1 POP PUSH1 0x20 DUP3 ADD SWAP1 POP SWAP2 SWAP1 POP JUMP JUMPDEST PUSH2 0xEAB DUP2 PUSH2 0xCBC JUMP JUMPDEST DUP3 MSTORE POP POP JUMP JUMPDEST PUSH0 DUP3 DUP3 MSTORE PUSH1 0x20 DUP3 ADD SWAP1 POP SWAP3 SWAP2 POP POP JUMP JUMPDEST PUSH0 PUSH2 0xECB DUP3 PUSH2 0xD77 JUMP JUMPDEST PUSH2 0xED5 DUP2 DUP6 PUSH2 0xEB1 JUMP JUMPDEST SWAP4 POP PUSH2 0xEE5 DUP2 DUP6 PUSH1 0x20 DUP7 ADD PUSH2 0xD91 JUMP JUMPDEST PUSH2 0xEEE DUP2 PUSH2 0xD9F JUMP JUMPDEST DUP5 ADD SWAP2 POP POP SWAP3 SWAP2 POP POP JUMP JUMPDEST PUSH2 0xF02 DUP2 PUSH2 0xCF7 JUMP JUMPDEST DUP3 MSTORE POP POP JUMP JUMPDEST PUSH0 PUSH1 0xA0 DUP4 ADD PUSH0 DUP4 ADD MLOAD PUSH2 0xF1D PUSH0 DUP7 ADD DUP3 PUSH2 0xEA2 JUMP JUMPDEST POP PUSH1 0x20 DUP4 ADD MLOAD DUP5 DUP3 SUB PUSH1 0x20 DUP7 ADD MSTORE PUSH2 0xF35 DUP3 DUP3 PUSH2 0xEC1 JUMP JUMPDEST SWAP2 POP POP PUSH1 0x40 DUP4 ADD MLOAD PUSH2 0xF4A PUSH1 0x40 DUP7 ADD DUP3 PUSH2 0xEF9 JUMP JUMPDEST POP PUSH1 0x60 DUP4 ADD MLOAD PUSH2 0xF5D PUSH1 0x60 DUP7 ADD DUP3 PUSH2 0xEF9 JUMP JUMPDEST POP PUSH1 0x80 DUP4 ADD MLOAD PUSH2 0xF70 PUSH1 0x80 DUP7 ADD DUP3 PUSH2 0xEF9 JUMP JUMPDEST POP DUP1 SWAP2 POP POP SWAP3 SWAP2 POP POP JUMP JUMPDEST PUSH0 PUSH2 0xF86 DUP4 DUP4 PUSH2 0xF08 JUMP JUMPDEST SWAP1 POP SWAP3 SWAP2 POP POP JUMP JUMPDEST PUSH0 PUSH1 0x20 DUP3 ADD SWAP1 POP SWAP2 SWAP1 POP JUMP JUMPDEST PUSH0 PUSH2 0xFA4 DUP3 PUSH2 0xE79 JUMP JUMPDEST PUSH2 0xFAE DUP2 DUP6 PUSH2 0xE83 JUMP JUMPDEST SWAP4 POP DUP4 PUSH1 0x20 DUP3 MUL DUP6 ADD PUSH2 0xFC0 DUP6 PUSH2 0xE93 JUMP JUMPDEST DUP1 PUSH0 JUMPDEST DUP6 DUP2 LT ISZERO PUSH2 0xFFB JUMPI DUP5 DUP5 SUB DUP10 MSTORE DUP2 MLOAD PUSH2 0xFDC DUP6 DUP3 PUSH2 0xF7B JUMP JUMPDEST SWAP5 POP PUSH2 0xFE7 DUP4 PUSH2 0xF8E JUMP JUMPDEST SWAP3 POP PUSH1 0x20 DUP11 ADD SWAP10 POP POP PUSH1 0x1 DUP2 ADD SWAP1 POP PUSH2 0xFC3 JUMP JUMPDEST POP DUP3 SWAP8 POP DUP8 SWAP6 POP POP POP POP POP POP SWAP3 SWAP2 POP POP JUMP JUMPDEST PUSH0 PUSH1 0x20 DUP3 ADD SWAP1 POP DUP2 DUP2 SUB PUSH0 DUP4 ADD MSTORE PUSH2 0x1025 DUP2 DUP5 PUSH2 0xF9A JUMP JUMPDEST SWAP1 POP SWAP3 SWAP2 POP POP JUMP JUMPDEST PUSH0 PUSH2 0xFFFF DUP3 AND SWAP1 POP SWAP2 SWAP1 POP JUMP JUMPDEST PUSH2 0x1043 DUP2 PUSH2 0x102D JUMP JUMPDEST DUP2 EQ PUSH2 0x104D JUMPI PUSH0 DUP1 REVERT JUMPDEST POP JUMP JUMPDEST PUSH0 DUP2 CALLDATALOAD SWAP1 POP PUSH2 0x105E DUP2 PUSH2 0x103A JUMP JUMPDEST SWAP3 SWAP2 POP POP JUMP JUMPDEST PUSH0 PUSH1 0x20 DUP3 DUP5 SUB SLT ISZERO PUSH2 0x1079 JUMPI PUSH2 0x1078 PUSH2 0xC95 JUMP JUMPDEST JUMPDEST PUSH0 PUSH2 0x1086 DUP5 DUP3 DUP6 ADD PUSH2 0x1050 JUMP JUMPDEST SWAP2 POP POP SWAP3 SWAP2 POP POP JUMP JUMPDEST PUSH2 0x1098 DUP2 PUSH2 0x102D JUMP JUMPDEST DUP3 MSTORE POP POP JUMP JUMPDEST PUSH0 PUSH1 0x20 DUP3 ADD SWAP1 POP PUSH2 0x10B1 PUSH0 DUP4 ADD DUP5 PUSH2 0x108F JUMP JUMPDEST SWAP3 SWAP2 POP POP JUMP JUMPDEST PUSH0 DUP1 PUSH1 0x40 DUP4 DUP6 SUB SLT ISZERO PUSH2 0x10CD JUMPI PUSH2 0x10CC PUSH2 0xC95 JUMP JUMPDEST JUMPDEST PUSH0 PUSH2 0x10DA DUP6 DUP3 DUP7 ADD PUSH2 0xD16 JUMP JUMPDEST SWAP3 POP POP PUSH1 0x20 PUSH2 0x10EB DUP6 DUP3 DUP7 ADD PUSH2 0xCE3 JUMP JUMPDEST SWAP2 POP POP SWAP3 POP SWAP3 SWAP1 POP JUMP JUMPDEST PUSH0 DUP1 REVERT JUMPDEST PUSH0 DUP1 REVERT JUMPDEST PUSH32 0x4E487B7100000000000000000000000000000000000000000000000000000000 PUSH0 MSTORE PUSH1 0x41 PUSH1 0x4 MSTORE PUSH1 0x24 PUSH0 REVERT JUMPDEST PUSH2 0x1133 DUP3 PUSH2 0xD9F JUMP JUMPDEST DUP2 ADD DUP2 DUP2 LT PUSH8 0xFFFFFFFFFFFFFFFF DUP3 GT OR ISZERO PUSH2 0x1152 JUMPI PUSH2 0x1151 PUSH2 0x10FD JUMP JUMPDEST JUMPDEST DUP1 PUSH1 0x40 MSTORE POP POP POP JUMP JUMPDEST PUSH0 PUSH2 0x1164 PUSH2 0xC8C JUMP JUMPDEST SWAP1 POP PUSH2 0x1170 DUP3 DUP3 PUSH2 0x112A JUMP JUMPDEST SWAP2 SWAP1 POP JUMP JUMPDEST PUSH0 PUSH8 0xFFFFFFFFFFFFFFFF DUP3 GT ISZERO PUSH2 0x118F JUMPI PUSH2 0x118E PUSH2 0x10FD JUMP JUMPDEST JUMPDEST PUSH2 0x1198 DUP3 PUSH2 0xD9F JUMP JUMPDEST SWAP1 POP PUSH1 0x20 DUP2 ADD SWAP1 POP SWAP2 SWAP1 POP JUMP JUMPDEST DUP3 DUP2 DUP4 CALLDATACOPY PUSH0 DUP4 DUP4 ADD MSTORE POP POP POP JUMP JUMPDEST PUSH0 PUSH2 0x11C5 PUSH2 0x11C0 DUP5 PUSH2 0x1175 JUMP JUMPDEST PUSH2 0x115B JUMP JUMPDEST SWAP1 POP DUP3 DUP2 MSTORE PUSH1 0x20 DUP2 ADD DUP5 DUP5 DUP5 ADD GT ISZERO PUSH2 0x11E1 JUMPI PUSH2 0x11E0 PUSH2 0x10F9 JUMP JUMPDEST JUMPDEST PUSH2 0x11EC DUP5 DUP3 DUP6 PUSH2 0x11A5 JUMP JUMPDEST POP SWAP4 SWAP3 POP POP POP JUMP JUMPDEST PUSH0 DUP3 PUSH1 0x1F DUP4 ADD SLT PUSH2 0x1208 JUMPI PUSH2 0x1207 PUSH2 0x10F5 JUMP JUMPDEST JUMPDEST DUP2 CALLDATALOAD PUSH2 0x1218 DUP5 DUP3 PUSH1 0x20 DUP7 ADD PUSH2 0x11B3 JUMP JUMPDEST SWAP2 POP POP SWAP3 SWAP2 POP POP JUMP JUMPDEST PUSH0 PUSH1 0x20 DUP3 DUP5 SUB SLT ISZERO PUSH2 0x1236 JUMPI PUSH2 0x1235 PUSH2 0xC95 JUMP JUMPDEST JUMPDEST PUSH0 DUP3 ADD CALLDATALOAD PUSH8 0xFFFFFFFFFFFFFFFF DUP2 GT ISZERO PUSH2 0x1253 JUMPI PUSH2 0x1252 PUSH2 0xC99 JUMP JUMPDEST JUMPDEST PUSH2 0x125F DUP5 DUP3 DUP6 ADD PUSH2 0x11F4 JUMP JUMPDEST SWAP2 POP POP SWAP3 SWAP2 POP POP JUMP JUMPDEST PUSH0 PUSH1 0x20 DUP3 ADD SWAP1 POP PUSH2 0x127B PUSH0 DUP4 ADD DUP5 PUSH2 0xD68 JUMP JUMPDEST SWAP3 SWAP2 POP POP JUMP JUMPDEST PUSH0 PUSH1 0x20 DUP3 DUP5 SUB SLT ISZERO PUSH2 0x1296 JUMPI PUSH2 0x1295 PUSH2 0xC95 JUMP JUMPDEST JUMPDEST PUSH0 PUSH2 0x12A3 DUP5 DUP3 DUP6 ADD PUSH2 0xD16 JUMP JUMPDEST SWAP2 POP POP SWAP3 SWAP2 POP POP JUMP JUMPDEST PUSH0 PUSH1 0xA0 DUP4 ADD PUSH0 DUP4 ADD MLOAD PUSH2 0x12C1 PUSH0 DUP7 ADD DUP3 PUSH2 0xEA2 JUMP JUMPDEST POP PUSH1 0x20 DUP4 ADD MLOAD DUP5 DUP3 SUB PUSH1 0x20 DUP7 ADD MSTORE PUSH2 0x12D9 DUP3 DUP3 PUSH2 0xEC1 JUMP JUMPDEST SWAP2 POP POP PUSH1 0x40 DUP4 ADD MLOAD PUSH2 0x12EE PUSH1 0x40 DUP7 ADD DUP3 PUSH2 0xEF9 JUMP JUMPDEST POP PUSH1 0x60 DUP4 ADD MLOAD PUSH2 0x1301 PUSH1 0x60 DUP7 ADD DUP3 PUSH2 0xEF9 JUMP JUMPDEST POP PUSH1 0x80 DUP4 ADD MLOAD PUSH2 0x1314 PUSH1 0x80 DUP7 ADD DUP3 PUSH2 0xEF9 JUMP JUMPDEST POP DUP1 SWAP2 POP POP SWAP3 SWAP2 POP POP JUMP JUMPDEST PUSH0 PUSH1 0x20 DUP3 ADD SWAP1 POP DUP2 DUP2 SUB PUSH0 DUP4 ADD MSTORE PUSH2 0x1337 DUP2 DUP5 PUSH2 0x12AC JUMP JUMPDEST SWAP1 POP SWAP3 SWAP2 POP POP JUMP JUMPDEST PUSH32 0x4E487B7100000000000000000000000000000000000000000000000000000000 PUSH0 MSTORE PUSH1 0x22 PUSH1 0x4 MSTORE PUSH1 0x24 PUSH0 REVERT JUMPDEST PUSH0 PUSH1 0x2 DUP3 DIV SWAP1 POP PUSH1 0x1 DUP3 AND DUP1 PUSH2 0x1383 JUMPI PUSH1 0x7F DUP3 AND SWAP2 POP JUMPDEST PUSH1 0x20 DUP3 LT DUP2 SUB PUSH2 0x1396 JUMPI PUSH2 0x1395 PUSH2 0x133F JUMP JUMPDEST JUMPDEST POP SWAP2 SWAP1 POP JUMP JUMPDEST PUSH32 0x4E6F7420746865206F776E657200000000000000000000000000000000000000 PUSH0 DUP3 ADD MSTORE POP JUMP JUMPDEST PUSH0 PUSH2 0x13D0 PUSH1 0xD DUP4 PUSH2 0xD81 JUMP JUMPDEST SWAP2 POP PUSH2 0x13DB DUP3 PUSH2 0x139C JUMP JUMPDEST PUSH1 0x20 DUP3 ADD SWAP1 POP SWAP2 SWAP1 POP JUMP JUMPDEST PUSH0 PUSH1 0x20 DUP3 ADD SWAP1 POP DUP2 DUP2 SUB PUSH0 DUP4 ADD MSTORE PUSH2 0x13FD DUP2 PUSH2 0x13C4 JUMP JUMPDEST SWAP1 POP SWAP2 SWAP1 POP JUMP JUMPDEST PUSH32 0x4E487B7100000000000000000000000000000000000000000000000000000000 PUSH0 MSTORE PUSH1 0x32 PUSH1 0x4 MSTORE PUSH1 0x24 PUSH0 REVERT JUMPDEST PUSH32 0x4E6965206D612074616B6965676F207477656574750000000000000000000000 PUSH0 DUP3 ADD MSTORE POP JUMP JUMPDEST PUSH0 PUSH2 0x1465 PUSH1 0x15 DUP4 PUSH2 0xD81 JUMP JUMPDEST SWAP2 POP PUSH2 0x1470 DUP3 PUSH2 0x1431 JUMP JUMPDEST PUSH1 0x20 DUP3 ADD SWAP1 POP SWAP2 SWAP1 POP JUMP JUMPDEST PUSH0 PUSH1 0x20 DUP3 ADD SWAP1 POP DUP2 DUP2 SUB PUSH0 DUP4 ADD MSTORE PUSH2 0x1492 DUP2 PUSH2 0x1459 JUMP JUMPDEST SWAP1 POP SWAP2 SWAP1 POP JUMP JUMPDEST PUSH32 0x4E6965206D6F7A65737A207573756E6163206C696B6500000000000000000000 PUSH0 DUP3 ADD MSTORE POP JUMP JUMPDEST PUSH0 PUSH2 0x14CD PUSH1 0x16 DUP4 PUSH2 0xD81 JUMP JUMPDEST SWAP2 POP PUSH2 0x14D8 DUP3 PUSH2 0x1499 JUMP JUMPDEST PUSH1 0x20 DUP3 ADD SWAP1 POP SWAP2 SWAP1 POP JUMP JUMPDEST PUSH0 PUSH1 0x20 DUP3 ADD SWAP1 POP DUP2 DUP2 SUB PUSH0 DUP4 ADD MSTORE PUSH2 0x14FA DUP2 PUSH2 0x14C1 JUMP JUMPDEST SWAP1 POP SWAP2 SWAP1 POP JUMP JUMPDEST PUSH32 0x4E487B7100000000000000000000000000000000000000000000000000000000 PUSH0 MSTORE PUSH1 0x11 PUSH1 0x4 MSTORE PUSH1 0x24 PUSH0 REVERT JUMPDEST PUSH0 PUSH2 0x1538 DUP3 PUSH2 0xCF7 JUMP JUMPDEST SWAP2 POP PUSH0 DUP3 SUB PUSH2 0x154A JUMPI PUSH2 0x1549 PUSH2 0x1501 JUMP JUMPDEST JUMPDEST PUSH1 0x1 DUP3 SUB SWAP1 POP SWAP2 SWAP1 POP JUMP JUMPDEST PUSH32 0x4D65737361676520746F206C6F6E670000000000000000000000000000000000 PUSH0 DUP3 ADD MSTORE POP JUMP JUMPDEST PUSH0 PUSH2 0x1589 PUSH1 0xF DUP4 PUSH2 0xD81 JUMP JUMPDEST SWAP2 POP PUSH2 0x1594 DUP3 PUSH2 0x1555 JUMP JUMPDEST PUSH1 0x20 DUP3 ADD SWAP1 POP SWAP2 SWAP1 POP JUMP JUMPDEST PUSH0 PUSH1 0x20 DUP3 ADD SWAP1 POP DUP2 DUP2 SUB PUSH0 DUP4 ADD MSTORE PUSH2 0x15B6 DUP2 PUSH2 0x157D JUMP JUMPDEST SWAP1 POP SWAP2 SWAP1 POP JUMP JUMPDEST PUSH0 DUP2 SWAP1 POP DUP2 PUSH0 MSTORE PUSH1 0x20 PUSH0 KECCAK256 SWAP1 POP SWAP2 SWAP1 POP JUMP JUMPDEST PUSH0 PUSH1 0x20 PUSH1 0x1F DUP4 ADD DIV SWAP1 POP SWAP2 SWAP1 POP JUMP JUMPDEST PUSH0 DUP3 DUP3 SHL SWAP1 POP SWAP3 SWAP2 POP POP JUMP JUMPDEST PUSH0 PUSH1 0x8 DUP4 MUL PUSH2 0x1619 PUSH32 0xFFFFFFFFFFFFFFFFFFFFFFFFFFFFFFFFFFFFFFFFFFFFFFFFFFFFFFFFFFFFFFFF DUP3 PUSH2 0x15DE JUMP JUMPDEST PUSH2 0x1623 DUP7 DUP4 PUSH2 0x15DE JUMP JUMPDEST SWAP6 POP DUP1 NOT DUP5 AND SWAP4 POP DUP1 DUP7 AND DUP5 OR SWAP3 POP POP POP SWAP4 SWAP3 POP POP POP JUMP JUMPDEST PUSH0 DUP2 SWAP1 POP SWAP2 SWAP1 POP JUMP JUMPDEST PUSH0 PUSH2 0x165E PUSH2 0x1659 PUSH2 0x1654 DUP5 PUSH2 0xCF7 JUMP JUMPDEST PUSH2 0x163B JUMP JUMPDEST PUSH2 0xCF7 JUMP JUMPDEST SWAP1 POP SWAP2 SWAP1 POP JUMP JUMPDEST PUSH0 DUP2 SWAP1 POP SWAP2 SWAP1 POP JUMP JUMPDEST PUSH2 0x1677 DUP4 PUSH2 0x1644 JUMP JUMPDEST PUSH2 0x168B PUSH2 0x1683 DUP3 PUSH2 0x1665 JUMP JUMPDEST DUP5 DUP5 SLOAD PUSH2 0x15EA JUMP JUMPDEST DUP3 SSTORE POP POP POP POP JUMP JUMPDEST PUSH0 SWAP1 JUMP JUMPDEST PUSH2 0x169F PUSH2 0x1693 JUMP JUMPDEST PUSH2 0x16AA DUP2 DUP5 DUP5 PUSH2 0x166E JUMP JUMPDEST POP POP POP JUMP JUMPDEST JUMPDEST DUP2 DUP2 LT ISZERO PUSH2 0x16CD JUMPI PUSH2 0x16C2 PUSH0 DUP3 PUSH2 0x1697 JUMP JUMPDEST PUSH1 0x1 DUP2 ADD SWAP1 POP PUSH2 0x16B0 JUMP JUMPDEST POP POP JUMP JUMPDEST PUSH1 0x1F DUP3 GT ISZERO PUSH2 0x1712 JUMPI PUSH2 0x16E3 DUP2 PUSH2 0x15BD JUMP JUMPDEST PUSH2 0x16EC DUP5 PUSH2 0x15CF JUMP JUMPDEST DUP2 ADD PUSH1 0x20 DUP6 LT ISZERO PUSH2 0x16FB JUMPI DUP2 SWAP1 POP JUMPDEST PUSH2 0x170F PUSH2 0x1707 DUP6 PUSH2 0x15CF JUMP JUMPDEST DUP4 ADD DUP3 PUSH2 0x16AF JUMP JUMPDEST POP POP JUMPDEST POP POP POP JUMP JUMPDEST PUSH0 DUP3 DUP3 SHR SWAP1 POP SWAP3 SWAP2 POP POP JUMP JUMPDEST PUSH0 PUSH2 0x1732 PUSH0 NOT DUP5 PUSH1 0x8 MUL PUSH2 0x1717 JUMP JUMPDEST NOT DUP1 DUP4 AND SWAP2 POP POP SWAP3 SWAP2 POP POP JUMP JUMPDEST PUSH0 PUSH2 0x174A DUP4 DUP4 PUSH2 0x1723 JUMP JUMPDEST SWAP2 POP DUP3 PUSH1 0x2 MUL DUP3 OR SWAP1 POP SWAP3 SWAP2 POP POP JUMP JUMPDEST PUSH2 0x1763 DUP3 PUSH2 0xD77 JUMP JUMPDEST PUSH8 0xFFFFFFFFFFFFFFFF DUP2 GT ISZERO PUSH2 0x177C JUMPI PUSH2 0x177B PUSH2 0x10FD JUMP JUMPDEST JUMPDEST PUSH2 0x1786 DUP3 SLOAD PUSH2 0x136C JUMP JUMPDEST PUSH2 0x1791 DUP3 DUP3 DUP6 PUSH2 0x16D1 JUMP JUMPDEST PUSH0 PUSH1 0x20 SWAP1 POP PUSH1 0x1F DUP4 GT PUSH1 0x1 DUP2 EQ PUSH2 0x17C2 JUMPI PUSH0 DUP5 ISZERO PUSH2 0x17B0 JUMPI DUP3 DUP8 ADD MLOAD SWAP1 POP JUMPDEST PUSH2 0x17BA DUP6 DUP3 PUSH2 0x173F JUMP JUMPDEST DUP7 SSTORE POP PUSH2 0x1821 JUMP JUMPDEST PUSH1 0x1F NOT DUP5 AND PUSH2 0x17D0 DUP7 PUSH2 0x15BD JUMP JUMPDEST PUSH0 JUMPDEST DUP3 DUP2 LT ISZERO PUSH2 0x17F7 JUMPI DUP5 DUP10 ADD MLOAD DUP3 SSTORE PUSH1 0x1 DUP3 ADD SWAP2 POP PUSH1 0x20 DUP6 ADD SWAP5 POP PUSH1 0x20 DUP2 ADD SWAP1 POP PUSH2 0x17D2 JUMP JUMPDEST DUP7 DUP4 LT ISZERO PUSH2 0x1814 JUMPI DUP5 DUP10 ADD MLOAD PUSH2 0x1810 PUSH1 0x1F DUP10 AND DUP3 PUSH2 0x1723 JUMP JUMPDEST DUP4 SSTORE POP JUMPDEST PUSH1 0x1 PUSH1 0x2 DUP9 MUL ADD DUP9 SSTORE POP POP POP JUMPDEST POP POP POP POP POP POP JUMP JUMPDEST PUSH32 0x4A657374657320776C61736369776F736369656D2C206E6965206D6F7A65737A PUSH0 DUP3 ADD MSTORE PUSH32 0x206C696B6F77616320776C61736E65676F20706F737461000000000000000000 PUSH1 0x20 DUP3 ADD MSTORE POP JUMP JUMPDEST PUSH0 PUSH2 0x1883 PUSH1 0x37 DUP4 PUSH2 0xD81 JUMP JUMPDEST SWAP2 POP PUSH2 0x188E DUP3 PUSH2 0x1829 JUMP JUMPDEST PUSH1 0x40 DUP3 ADD SWAP1 POP SWAP2 SWAP1 POP JUMP JUMPDEST PUSH0 PUSH1 0x20 DUP3 ADD SWAP1 POP DUP2 DUP2 SUB PUSH0 DUP4 ADD MSTORE PUSH2 0x18B0 DUP2 PUSH2 0x1877 JUMP JUMPDEST SWAP1 POP SWAP2 SWAP1 POP JUMP JUMPDEST PUSH0 PUSH2 0x18C1 DUP3 PUSH2 0xCF7 JUMP JUMPDEST SWAP2 POP PUSH32 0xFFFFFFFFFFFFFFFFFFFFFFFFFFFFFFFFFFFFFFFFFFFFFFFFFFFFFFFFFFFFFFFF DUP3 SUB PUSH2 0x18F3 JUMPI PUSH2 0x18F2 PUSH2 0x1501 JUMP JUMPDEST JUMPDEST PUSH1 0x1 DUP3 ADD SWAP1 POP SWAP2 SWAP1 POP JUMP INVALID LOG2 PUSH5 0x6970667358 0x22 SLT KECCAK256 0x4F PUSH23 0xB8D0767A0AB337C81DEADB1376CC9929B597C03F30ACFD GASPRICE EXTCODECOPY 0x2B 0xC3 PUSH27 0x7AC964736F6C634300081A00330000000000000000000000000000 "
				},
				"gasEstimates": {
					"creation": {
						"codeDepositCost": "1290400",
						"executionCost": "49871",
						"totalCost": "1340271"
					},
					"external": {
						"MAX_TWEET_LENGTH()": "2530",
						"addLike(address,uint256)": "infinite",
						"changeTweetLength(uint16)": "26887",
						"createTweet(string)": "infinite",
						"getAllTweets(address)": "infinite",
						"getTweet(uint256)": "infinite",
						"owner()": "2552",
						"removeLike(uint256,address)": "infinite",
						"tweets(address,uint256)": "infinite"
					}
				},
				"methodIdentifiers": {
					"MAX_TWEET_LENGTH()": "6eb10797",
					"addLike(address,uint256)": "f65a8f40",
					"changeTweetLength(uint16)": "58bfa4ab",
					"createTweet(string)": "7c9cd2bc",
					"getAllTweets(address)": "12e7ee1c",
					"getTweet(uint256)": "c3ad5ecb",
					"owner()": "8da5cb5b",
					"removeLike(uint256,address)": "7a639e39",
					"tweets(address,uint256)": "05a1b4a9"
				}
			},
			"storageLayout": {
				"storage": [
					{
						"astId": 4,
						"contract": "contracts/TwitterLikes.sol:Twitter",
						"label": "MAX_TWEET_LENGTH",
						"offset": 0,
						"slot": "0",
						"type": "t_uint16"
					},
					{
						"astId": 21,
						"contract": "contracts/TwitterLikes.sol:Twitter",
						"label": "tweets",
						"offset": 0,
						"slot": "1",
						"type": "t_mapping(t_address,t_array(t_struct(Tweet)15_storage)dyn_storage)"
					},
					{
						"astId": 23,
						"contract": "contracts/TwitterLikes.sol:Twitter",
						"label": "owner",
						"offset": 0,
						"slot": "2",
						"type": "t_address"
					}
				],
				"types": {
					"t_address": {
						"encoding": "inplace",
						"label": "address",
						"numberOfBytes": "20"
					},
					"t_array(t_struct(Tweet)15_storage)dyn_storage": {
						"base": "t_struct(Tweet)15_storage",
						"encoding": "dynamic_array",
						"label": "struct Twitter.Tweet[]",
						"numberOfBytes": "32"
					},
					"t_mapping(t_address,t_array(t_struct(Tweet)15_storage)dyn_storage)": {
						"encoding": "mapping",
						"key": "t_address",
						"label": "mapping(address => struct Twitter.Tweet[])",
						"numberOfBytes": "32",
						"value": "t_array(t_struct(Tweet)15_storage)dyn_storage"
					},
					"t_string_storage": {
						"encoding": "bytes",
						"label": "string",
						"numberOfBytes": "32"
					},
					"t_struct(Tweet)15_storage": {
						"encoding": "inplace",
						"label": "struct Twitter.Tweet",
						"members": [
							{
								"astId": 6,
								"contract": "contracts/TwitterLikes.sol:Twitter",
								"label": "author",
								"offset": 0,
								"slot": "0",
								"type": "t_address"
							},
							{
								"astId": 8,
								"contract": "contracts/TwitterLikes.sol:Twitter",
								"label": "content",
								"offset": 0,
								"slot": "1",
								"type": "t_string_storage"
							},
							{
								"astId": 10,
								"contract": "contracts/TwitterLikes.sol:Twitter",
								"label": "timestamp",
								"offset": 0,
								"slot": "2",
								"type": "t_uint256"
							},
							{
								"astId": 12,
								"contract": "contracts/TwitterLikes.sol:Twitter",
								"label": "likes",
								"offset": 0,
								"slot": "3",
								"type": "t_uint256"
							},
							{
								"astId": 14,
								"contract": "contracts/TwitterLikes.sol:Twitter",
								"label": "id",
								"offset": 0,
								"slot": "4",
								"type": "t_uint256"
							}
						],
						"numberOfBytes": "160"
					},
					"t_uint16": {
						"encoding": "inplace",
						"label": "uint16",
						"numberOfBytes": "2"
					},
					"t_uint256": {
						"encoding": "inplace",
						"label": "uint256",
						"numberOfBytes": "32"
					}
				}
			},
			"userdoc": {
				"kind": "user",
				"methods": {},
				"version": 1
			}
		}
	}
}