{
	"practice/26_TwitterInheritance.sol": {
		"Twitter": {
			"abi": [
				{
					"inputs": [],
					"stateMutability": "nonpayable",
					"type": "constructor"
				},
				{
					"inputs": [
						{
							"internalType": "address",
							"name": "owner",
							"type": "address"
						}
					],
					"name": "OwnableInvalidOwner",
					"type": "error"
				},
				{
					"inputs": [
						{
							"internalType": "address",
							"name": "account",
							"type": "address"
						}
					],
					"name": "OwnableUnauthorizedAccount",
					"type": "error"
				},
				{
					"anonymous": false,
					"inputs": [
						{
							"indexed": true,
							"internalType": "address",
							"name": "previousOwner",
							"type": "address"
						},
						{
							"indexed": true,
							"internalType": "address",
							"name": "newOwner",
							"type": "address"
						}
					],
					"name": "OwnershipTransferred",
					"type": "event"
				},
				{
					"anonymous": false,
					"inputs": [
						{
							"indexed": false,
							"internalType": "uint256",
							"name": "id",
							"type": "uint256"
						},
						{
							"indexed": false,
							"internalType": "address",
							"name": "author",
							"type": "address"
						},
						{
							"indexed": false,
							"internalType": "string",
							"name": "content",
							"type": "string"
						},
						{
							"indexed": false,
							"internalType": "uint256",
							"name": "timestamp",
							"type": "uint256"
						}
					],
					"name": "TweetCreated",
					"type": "event"
				},
				{
					"anonymous": false,
					"inputs": [
						{
							"indexed": false,
							"internalType": "address",
							"name": "liker",
							"type": "address"
						},
						{
							"indexed": false,
							"internalType": "address",
							"name": "tweetAuthor",
							"type": "address"
						},
						{
							"indexed": false,
							"internalType": "uint256",
							"name": "tweetId",
							"type": "uint256"
						},
						{
							"indexed": false,
							"internalType": "uint256",
							"name": "newLikeCount",
							"type": "uint256"
						}
					],
					"name": "TweetLiked",
					"type": "event"
				},
				{
					"anonymous": false,
					"inputs": [
						{
							"indexed": false,
							"internalType": "address",
							"name": "unliker",
							"type": "address"
						},
						{
							"indexed": false,
							"internalType": "address",
							"name": "tweetAuthor",
							"type": "address"
						},
						{
							"indexed": false,
							"internalType": "uint256",
							"name": "tweetId",
							"type": "uint256"
						},
						{
							"indexed": false,
							"internalType": "uint256",
							"name": "newLikeCount",
							"type": "uint256"
						}
					],
					"name": "TweetUnliked",
					"type": "event"
				},
				{
					"inputs": [],
					"name": "MAX_TWEET_LENGTH",
					"outputs": [
						{
							"internalType": "uint16",
							"name": "",
							"type": "uint16"
						}
					],
					"stateMutability": "view",
					"type": "function"
				},
				{
					"inputs": [
						{
							"internalType": "address",
							"name": "author",
							"type": "address"
						},
						{
							"internalType": "uint256",
							"name": "id",
							"type": "uint256"
						}
					],
					"name": "addLike",
					"outputs": [],
					"stateMutability": "nonpayable",
					"type": "function"
				},
				{
					"inputs": [
						{
							"internalType": "uint16",
							"name": "newTweetLength",
							"type": "uint16"
						}
					],
					"name": "changeTweetLength",
					"outputs": [],
					"stateMutability": "nonpayable",
					"type": "function"
				},
				{
					"inputs": [
						{
							"internalType": "string",
							"name": "_tweet",
							"type": "string"
						}
					],
					"name": "createTweet",
					"outputs": [],
					"stateMutability": "nonpayable",
					"type": "function"
				},
				{
					"inputs": [
						{
							"internalType": "address",
							"name": "_owner",
							"type": "address"
						}
					],
					"name": "getAllTweets",
					"outputs": [
						{
							"components": [
								{
									"internalType": "address",
									"name": "author",
									"type": "address"
								},
								{
									"internalType": "string",
									"name": "content",
									"type": "string"
								},
								{
									"internalType": "uint256",
									"name": "timestamp",
									"type": "uint256"
								},
								{
									"internalType": "uint256",
									"name": "likes",
									"type": "uint256"
								},
								{
									"internalType": "uint256",
									"name": "id",
									"type": "uint256"
								}
							],
							"internalType": "struct Twitter.Tweet[]",
							"name": "",
							"type": "tuple[]"
						}
					],
					"stateMutability": "view",
					"type": "function"
				},
				{
					"inputs": [
						{
							"internalType": "address",
							"name": "_author",
							"type": "address"
						}
					],
					"name": "getTotalLikes",
					"outputs": [
						{
							"internalType": "uint256",
							"name": "",
							"type": "uint256"
						}
					],
					"stateMutability": "nonpayable",
					"type": "function"
				},
				{
					"inputs": [
						{
							"internalType": "uint256",
							"name": "_i",
							"type": "uint256"
						}
					],
					"name": "getTweet",
					"outputs": [
						{
							"components": [
								{
									"internalType": "address",
									"name": "author",
									"type": "address"
								},
								{
									"internalType": "string",
									"name": "content",
									"type": "string"
								},
								{
									"internalType": "uint256",
									"name": "timestamp",
									"type": "uint256"
								},
								{
									"internalType": "uint256",
									"name": "likes",
									"type": "uint256"
								},
								{
									"internalType": "uint256",
									"name": "id",
									"type": "uint256"
								}
							],
							"internalType": "struct Twitter.Tweet",
							"name": "",
							"type": "tuple"
						}
					],
					"stateMutability": "view",
					"type": "function"
				},
				{
					"inputs": [],
					"name": "owner",
					"outputs": [
						{
							"internalType": "address",
							"name": "",
							"type": "address"
						}
					],
					"stateMutability": "view",
					"type": "function"
				},
				{
					"inputs": [
						{
							"internalType": "uint256",
							"name": "id",
							"type": "uint256"
						},
						{
							"internalType": "address",
							"name": "author",
							"type": "address"
						}
					],
					"name": "removeLike",
					"outputs": [],
					"stateMutability": "nonpayable",
					"type": "function"
				},
				{
					"inputs": [],
					"name": "renounceOwnership",
					"outputs": [],
					"stateMutability": "nonpayable",
					"type": "function"
				},
				{
					"inputs": [
						{
							"internalType": "address",
							"name": "newOwner",
							"type": "address"
						}
					],
					"name": "transferOwnership",
					"outputs": [],
					"stateMutability": "nonpayable",
					"type": "function"
				},
				{
					"inputs": [
						{
							"internalType": "address",
							"name": "",
							"type": "address"
						},
						{
							"internalType": "uint256",
							"name": "",
							"type": "uint256"
						}
					],
					"name": "tweets",
					"outputs": [
						{
							"internalType": "address",
							"name": "author",
							"type": "address"
						},
						{
							"internalType": "string",
							"name": "content",
							"type": "string"
						},
						{
							"internalType": "uint256",
							"name": "timestamp",
							"type": "uint256"
						},
						{
							"internalType": "uint256",
							"name": "likes",
							"type": "uint256"
						},
						{
							"internalType": "uint256",
							"name": "id",
							"type": "uint256"
						}
					],
					"stateMutability": "view",
					"type": "function"
				}
			],
			"devdoc": {
				"errors": {
					"OwnableInvalidOwner(address)": [
						{
							"details": "The owner is not a valid owner account. (eg. `address(0)`)"
						}
					],
					"OwnableUnauthorizedAccount(address)": [
						{
							"details": "The caller account is not authorized to perform an operation."
						}
					]
				},
				"kind": "dev",
				"methods": {
					"owner()": {
						"details": "Returns the address of the current owner."
					},
					"renounceOwnership()": {
						"details": "Leaves the contract without owner. It will not be possible to call `onlyOwner` functions. Can only be called by the current owner. NOTE: Renouncing ownership will leave the contract without an owner, thereby disabling any functionality that is only available to the owner."
					},
					"transferOwnership(address)": {
						"details": "Transfers ownership of the contract to a new account (`newOwner`). Can only be called by the current owner."
					}
				},
				"version": 1
			},
			"evm": {
				"assembly": "    /* \"practice/26_TwitterInheritance.sol\":254:2639  contract Twitter is Ownable {... */\n  mstore(0x40, 0x80)\n    /* \"practice/26_TwitterInheritance.sol\":324:327  280 */\n  0x0118\n    /* \"practice/26_TwitterInheritance.sol\":291:327  uint16 public MAX_TWEET_LENGTH = 280 */\n  0x00\n  exp(0x0100, 0x14)\n  dup2\n  sload\n  dup2\n  0xffff\n  mul\n  not\n  and\n  swap1\n  dup4\n  0xffff\n  and\n  mul\n  or\n  swap1\n  sstore\n  pop\n    /* \"practice/26_TwitterInheritance.sol\":830:866  constructor() Ownable(msg.sender) {} */\n  callvalue\n  dup1\n  iszero\n  tag_1\n  jumpi\n  0x00\n  dup1\n  revert\ntag_1:\n  pop\n    /* \"practice/26_TwitterInheritance.sol\":852:862  msg.sender */\n  caller\n    /* \"@openzeppelin/contracts/access/Ownable.sol\":1297:1298  0 */\n  0x00\n    /* \"@openzeppelin/contracts/access/Ownable.sol\":1273:1299  initialOwner == address(0) */\n  0xffffffffffffffffffffffffffffffffffffffff\n  and\n    /* \"@openzeppelin/contracts/access/Ownable.sol\":1273:1285  initialOwner */\n  dup2\n    /* \"@openzeppelin/contracts/access/Ownable.sol\":1273:1299  initialOwner == address(0) */\n  0xffffffffffffffffffffffffffffffffffffffff\n  and\n  sub\n    /* \"@openzeppelin/contracts/access/Ownable.sol\":1269:1364  if (initialOwner == address(0)) {... */\n  tag_5\n  jumpi\n    /* \"@openzeppelin/contracts/access/Ownable.sol\":1350:1351  0 */\n  0x00\n    /* \"@openzeppelin/contracts/access/Ownable.sol\":1322:1353  OwnableInvalidOwner(address(0)) */\n  mload(0x40)\n  0x1e4fbdf700000000000000000000000000000000000000000000000000000000\n  dup2\n  mstore\n  0x04\n  add\n  tag_6\n  swap2\n  swap1\n  tag_7\n  jump\t// in\ntag_6:\n  mload(0x40)\n  dup1\n  swap2\n  sub\n  swap1\n  revert\n    /* \"@openzeppelin/contracts/access/Ownable.sol\":1269:1364  if (initialOwner == address(0)) {... */\ntag_5:\n    /* \"@openzeppelin/contracts/access/Ownable.sol\":1373:1405  _transferOwnership(initialOwner) */\n  tag_8\n    /* \"@openzeppelin/contracts/access/Ownable.sol\":1392:1404  initialOwner */\n  dup2\n    /* \"@openzeppelin/contracts/access/Ownable.sol\":1373:1391  _transferOwnership */\n  shl(0x20, tag_9)\n    /* \"@openzeppelin/contracts/access/Ownable.sol\":1373:1405  _transferOwnership(initialOwner) */\n  0x20\n  shr\n  jump\t// in\ntag_8:\n    /* \"@openzeppelin/contracts/access/Ownable.sol\":1225:1412  constructor(address initialOwner) {... */\n  pop\n    /* \"practice/26_TwitterInheritance.sol\":254:2639  contract Twitter is Ownable {... */\n  jump(tag_11)\n    /* \"@openzeppelin/contracts/access/Ownable.sol\":2912:3099  function _transferOwnership(address newOwner) internal virtual {... */\ntag_9:\n    /* \"@openzeppelin/contracts/access/Ownable.sol\":2985:3001  address oldOwner */\n  0x00\n    /* \"@openzeppelin/contracts/access/Ownable.sol\":3004:3010  _owner */\n  dup1\n  0x00\n  swap1\n  sload\n  swap1\n  0x0100\n  exp\n  swap1\n  div\n  0xffffffffffffffffffffffffffffffffffffffff\n  and\n    /* \"@openzeppelin/contracts/access/Ownable.sol\":2985:3010  address oldOwner = _owner */\n  swap1\n  pop\n    /* \"@openzeppelin/contracts/access/Ownable.sol\":3029:3037  newOwner */\n  dup2\n    /* \"@openzeppelin/contracts/access/Ownable.sol\":3020:3026  _owner */\n  0x00\n  dup1\n    /* \"@openzeppelin/contracts/access/Ownable.sol\":3020:3037  _owner = newOwner */\n  0x0100\n  exp\n  dup2\n  sload\n  dup2\n  0xffffffffffffffffffffffffffffffffffffffff\n  mul\n  not\n  and\n  swap1\n  dup4\n  0xffffffffffffffffffffffffffffffffffffffff\n  and\n  mul\n  or\n  swap1\n  sstore\n  pop\n    /* \"@openzeppelin/contracts/access/Ownable.sol\":3083:3091  newOwner */\n  dup2\n    /* \"@openzeppelin/contracts/access/Ownable.sol\":3052:3092  OwnershipTransferred(oldOwner, newOwner) */\n  0xffffffffffffffffffffffffffffffffffffffff\n  and\n    /* \"@openzeppelin/contracts/access/Ownable.sol\":3073:3081  oldOwner */\n  dup2\n    /* \"@openzeppelin/contracts/access/Ownable.sol\":3052:3092  OwnershipTransferred(oldOwner, newOwner) */\n  0xffffffffffffffffffffffffffffffffffffffff\n  and\n  0x8be0079c531659141344cd1fd0a4f28419497f9722a3daafe3b4186f6b6457e0\n  mload(0x40)\n  mload(0x40)\n  dup1\n  swap2\n  sub\n  swap1\n  log3\n    /* \"@openzeppelin/contracts/access/Ownable.sol\":2975:3099  {... */\n  pop\n    /* \"@openzeppelin/contracts/access/Ownable.sol\":2912:3099  function _transferOwnership(address newOwner) internal virtual {... */\n  pop\n  jump\t// out\n    /* \"#utility.yul\":7:133   */\ntag_13:\n    /* \"#utility.yul\":44:51   */\n  0x00\n    /* \"#utility.yul\":84:126   */\n  0xffffffffffffffffffffffffffffffffffffffff\n    /* \"#utility.yul\":77:82   */\n  dup3\n    /* \"#utility.yul\":73:127   */\n  and\n    /* \"#utility.yul\":62:127   */\n  swap1\n  pop\n    /* \"#utility.yul\":7:133   */\n  swap2\n  swap1\n  pop\n  jump\t// out\n    /* \"#utility.yul\":139:235   */\ntag_14:\n    /* \"#utility.yul\":176:183   */\n  0x00\n    /* \"#utility.yul\":205:229   */\n  tag_19\n    /* \"#utility.yul\":223:228   */\n  dup3\n    /* \"#utility.yul\":205:229   */\n  tag_13\n  jump\t// in\ntag_19:\n    /* \"#utility.yul\":194:229   */\n  swap1\n  pop\n    /* \"#utility.yul\":139:235   */\n  swap2\n  swap1\n  pop\n  jump\t// out\n    /* \"#utility.yul\":241:359   */\ntag_15:\n    /* \"#utility.yul\":328:352   */\n  tag_21\n    /* \"#utility.yul\":346:351   */\n  dup2\n    /* \"#utility.yul\":328:352   */\n  tag_14\n  jump\t// in\ntag_21:\n    /* \"#utility.yul\":323:326   */\n  dup3\n    /* \"#utility.yul\":316:353   */\n  mstore\n    /* \"#utility.yul\":241:359   */\n  pop\n  pop\n  jump\t// out\n    /* \"#utility.yul\":365:587   */\ntag_7:\n    /* \"#utility.yul\":458:462   */\n  0x00\n    /* \"#utility.yul\":496:498   */\n  0x20\n    /* \"#utility.yul\":485:494   */\n  dup3\n    /* \"#utility.yul\":481:499   */\n  add\n    /* \"#utility.yul\":473:499   */\n  swap1\n  pop\n    /* \"#utility.yul\":509:580   */\n  tag_23\n    /* \"#utility.yul\":577:578   */\n  0x00\n    /* \"#utility.yul\":566:575   */\n  dup4\n    /* \"#utility.yul\":562:579   */\n  add\n    /* \"#utility.yul\":553:559   */\n  dup5\n    /* \"#utility.yul\":509:580   */\n  tag_15\n  jump\t// in\ntag_23:\n    /* \"#utility.yul\":365:587   */\n  swap3\n  swap2\n  pop\n  pop\n  jump\t// out\n    /* \"practice/26_TwitterInheritance.sol\":254:2639  contract Twitter is Ownable {... */\ntag_11:\n  dataSize(sub_0)\n  dup1\n  dataOffset(sub_0)\n  0x00\n  codecopy\n  0x00\n  return\nstop\n\nsub_0: assembly {\n        /* \"practice/26_TwitterInheritance.sol\":254:2639  contract Twitter is Ownable {... */\n      mstore(0x40, 0x80)\n      callvalue\n      dup1\n      iszero\n      tag_1\n      jumpi\n      0x00\n      dup1\n      revert\n    tag_1:\n      pop\n      jumpi(tag_2, lt(calldatasize, 0x04))\n      shr(0xe0, calldataload(0x00))\n      dup1\n      0x7c9cd2bc\n      gt\n      tag_15\n      jumpi\n      dup1\n      0x7c9cd2bc\n      eq\n      tag_9\n      jumpi\n      dup1\n      0x820785cc\n      eq\n      tag_10\n      jumpi\n      dup1\n      0x8da5cb5b\n      eq\n      tag_11\n      jumpi\n      dup1\n      0xc3ad5ecb\n      eq\n      tag_12\n      jumpi\n      dup1\n      0xf2fde38b\n      eq\n      tag_13\n      jumpi\n      dup1\n      0xf65a8f40\n      eq\n      tag_14\n      jumpi\n      jump(tag_2)\n    tag_15:\n      dup1\n      0x05a1b4a9\n      eq\n      tag_3\n      jumpi\n      dup1\n      0x12e7ee1c\n      eq\n      tag_4\n      jumpi\n      dup1\n      0x58bfa4ab\n      eq\n      tag_5\n      jumpi\n      dup1\n      0x6eb10797\n      eq\n      tag_6\n      jumpi\n      dup1\n      0x715018a6\n      eq\n      tag_7\n      jumpi\n      dup1\n      0x7a639e39\n      eq\n      tag_8\n      jumpi\n    tag_2:\n      0x00\n      dup1\n      revert\n        /* \"practice/26_TwitterInheritance.sol\":486:528  mapping(address => Tweet[] ) public tweets */\n    tag_3:\n      tag_16\n      0x04\n      dup1\n      calldatasize\n      sub\n      dup2\n      add\n      swap1\n      tag_17\n      swap2\n      swap1\n      tag_18\n      jump\t// in\n    tag_17:\n      tag_19\n      jump\t// in\n    tag_16:\n      mload(0x40)\n      tag_20\n      swap6\n      swap5\n      swap4\n      swap3\n      swap2\n      swap1\n      tag_21\n      jump\t// in\n    tag_20:\n      mload(0x40)\n      dup1\n      swap2\n      sub\n      swap1\n      return\n        /* \"practice/26_TwitterInheritance.sol\":1661:1776  function getAllTweets(address _owner) public view returns (Tweet[] memory ){... */\n    tag_4:\n      tag_22\n      0x04\n      dup1\n      calldatasize\n      sub\n      dup2\n      add\n      swap1\n      tag_23\n      swap2\n      swap1\n      tag_24\n      jump\t// in\n    tag_23:\n      tag_25\n      jump\t// in\n    tag_22:\n      mload(0x40)\n      tag_26\n      swap2\n      swap1\n      tag_27\n      jump\t// in\n    tag_26:\n      mload(0x40)\n      dup1\n      swap2\n      sub\n      swap1\n      return\n        /* \"practice/26_TwitterInheritance.sol\":874:993  function changeTweetLength(uint16 newTweetLength) public onlyOwner {... */\n    tag_5:\n      tag_28\n      0x04\n      dup1\n      calldatasize\n      sub\n      dup2\n      add\n      swap1\n      tag_29\n      swap2\n      swap1\n      tag_30\n      jump\t// in\n    tag_29:\n      tag_31\n      jump\t// in\n    tag_28:\n      stop\n        /* \"practice/26_TwitterInheritance.sol\":291:327  uint16 public MAX_TWEET_LENGTH = 280 */\n    tag_6:\n      tag_32\n      tag_33\n      jump\t// in\n    tag_32:\n      mload(0x40)\n      tag_34\n      swap2\n      swap1\n      tag_35\n      jump\t// in\n    tag_34:\n      mload(0x40)\n      dup1\n      swap2\n      sub\n      swap1\n      return\n        /* \"@openzeppelin/contracts/access/Ownable.sol\":2293:2394  function renounceOwnership() public virtual onlyOwner {... */\n    tag_7:\n      tag_36\n      tag_37\n      jump\t// in\n    tag_36:\n      stop\n        /* \"practice/26_TwitterInheritance.sol\":2043:2372  function removeLike (uint256 id, address author) external {... */\n    tag_8:\n      tag_38\n      0x04\n      dup1\n      calldatasize\n      sub\n      dup2\n      add\n      swap1\n      tag_39\n      swap2\n      swap1\n      tag_40\n      jump\t// in\n    tag_39:\n      tag_41\n      jump\t// in\n    tag_38:\n      stop\n        /* \"practice/26_TwitterInheritance.sol\":1001:1534  function createTweet(string memory _tweet) public {... */\n    tag_9:\n      tag_42\n      0x04\n      dup1\n      calldatasize\n      sub\n      dup2\n      add\n      swap1\n      tag_43\n      swap2\n      swap1\n      tag_44\n      jump\t// in\n    tag_43:\n      tag_45\n      jump\t// in\n    tag_42:\n      stop\n        /* \"practice/26_TwitterInheritance.sol\":2405:2628  function getTotalLikes (address _author) external returns(uint) {... */\n    tag_10:\n      tag_46\n      0x04\n      dup1\n      calldatasize\n      sub\n      dup2\n      add\n      swap1\n      tag_47\n      swap2\n      swap1\n      tag_24\n      jump\t// in\n    tag_47:\n      tag_48\n      jump\t// in\n    tag_46:\n      mload(0x40)\n      tag_49\n      swap2\n      swap1\n      tag_50\n      jump\t// in\n    tag_49:\n      mload(0x40)\n      dup1\n      swap2\n      sub\n      swap1\n      return\n        /* \"@openzeppelin/contracts/access/Ownable.sol\":1638:1723  function owner() public view virtual returns (address) {... */\n    tag_11:\n      tag_51\n      tag_52\n      jump\t// in\n    tag_51:\n      mload(0x40)\n      tag_53\n      swap2\n      swap1\n      tag_54\n      jump\t// in\n    tag_53:\n      mload(0x40)\n      dup1\n      swap2\n      sub\n      swap1\n      return\n        /* \"practice/26_TwitterInheritance.sol\":1542:1653  function getTweet( uint _i) public view returns (Tweet memory) {... */\n    tag_12:\n      tag_55\n      0x04\n      dup1\n      calldatasize\n      sub\n      dup2\n      add\n      swap1\n      tag_56\n      swap2\n      swap1\n      tag_57\n      jump\t// in\n    tag_56:\n      tag_58\n      jump\t// in\n    tag_55:\n      mload(0x40)\n      tag_59\n      swap2\n      swap1\n      tag_60\n      jump\t// in\n    tag_59:\n      mload(0x40)\n      dup1\n      swap2\n      sub\n      swap1\n      return\n        /* \"@openzeppelin/contracts/access/Ownable.sol\":2543:2758  function transferOwnership(address newOwner) public virtual onlyOwner {... */\n    tag_13:\n      tag_61\n      0x04\n      dup1\n      calldatasize\n      sub\n      dup2\n      add\n      swap1\n      tag_62\n      swap2\n      swap1\n      tag_24\n      jump\t// in\n    tag_62:\n      tag_63\n      jump\t// in\n    tag_61:\n      stop\n        /* \"practice/26_TwitterInheritance.sol\":1784:2035  function addLike (address author, uint256 id) external {... */\n    tag_14:\n      tag_64\n      0x04\n      dup1\n      calldatasize\n      sub\n      dup2\n      add\n      swap1\n      tag_65\n      swap2\n      swap1\n      tag_18\n      jump\t// in\n    tag_65:\n      tag_66\n      jump\t// in\n    tag_64:\n      stop\n        /* \"practice/26_TwitterInheritance.sol\":486:528  mapping(address => Tweet[] ) public tweets */\n    tag_19:\n      mstore(0x20, 0x01)\n      dup2\n      0x00\n      mstore\n      keccak256(0x00, 0x40)\n      dup2\n      dup2\n      sload\n      dup2\n      lt\n      tag_67\n      jumpi\n      0x00\n      dup1\n      revert\n    tag_67:\n      swap1\n      0x00\n      mstore\n      keccak256(0x00, 0x20)\n      swap1\n      0x05\n      mul\n      add\n      0x00\n      swap2\n      pop\n      swap2\n      pop\n      pop\n      dup1\n      0x00\n      add\n      0x00\n      swap1\n      sload\n      swap1\n      0x0100\n      exp\n      swap1\n      div\n      0xffffffffffffffffffffffffffffffffffffffff\n      and\n      swap1\n      dup1\n      0x01\n      add\n      dup1\n      sload\n      tag_69\n      swap1\n      tag_70\n      jump\t// in\n    tag_69:\n      dup1\n      0x1f\n      add\n      0x20\n      dup1\n      swap2\n      div\n      mul\n      0x20\n      add\n      mload(0x40)\n      swap1\n      dup2\n      add\n      0x40\n      mstore\n      dup1\n      swap3\n      swap2\n      swap1\n      dup2\n      dup2\n      mstore\n      0x20\n      add\n      dup3\n      dup1\n      sload\n      tag_71\n      swap1\n      tag_70\n      jump\t// in\n    tag_71:\n      dup1\n      iszero\n      tag_72\n      jumpi\n      dup1\n      0x1f\n      lt\n      tag_73\n      jumpi\n      0x0100\n      dup1\n      dup4\n      sload\n      div\n      mul\n      dup4\n      mstore\n      swap2\n      0x20\n      add\n      swap2\n      jump(tag_72)\n    tag_73:\n      dup3\n      add\n      swap2\n      swap1\n      0x00\n      mstore\n      keccak256(0x00, 0x20)\n      swap1\n    tag_74:\n      dup2\n      sload\n      dup2\n      mstore\n      swap1\n      0x01\n      add\n      swap1\n      0x20\n      add\n      dup1\n      dup4\n      gt\n      tag_74\n      jumpi\n      dup3\n      swap1\n      sub\n      0x1f\n      and\n      dup3\n      add\n      swap2\n    tag_72:\n      pop\n      pop\n      pop\n      pop\n      pop\n      swap1\n      dup1\n      0x02\n      add\n      sload\n      swap1\n      dup1\n      0x03\n      add\n      sload\n      swap1\n      dup1\n      0x04\n      add\n      sload\n      swap1\n      pop\n      dup6\n      jump\t// out\n        /* \"practice/26_TwitterInheritance.sol\":1661:1776  function getAllTweets(address _owner) public view returns (Tweet[] memory ){... */\n    tag_25:\n        /* \"practice/26_TwitterInheritance.sol\":1720:1734  Tweet[] memory */\n      0x60\n        /* \"practice/26_TwitterInheritance.sol\":1754:1760  tweets */\n      0x01\n        /* \"practice/26_TwitterInheritance.sol\":1754:1768  tweets[_owner] */\n      0x00\n        /* \"practice/26_TwitterInheritance.sol\":1761:1767  _owner */\n      dup4\n        /* \"practice/26_TwitterInheritance.sol\":1754:1768  tweets[_owner] */\n      0xffffffffffffffffffffffffffffffffffffffff\n      and\n      0xffffffffffffffffffffffffffffffffffffffff\n      and\n      dup2\n      mstore\n      0x20\n      add\n      swap1\n      dup2\n      mstore\n      0x20\n      add\n      0x00\n      keccak256\n        /* \"practice/26_TwitterInheritance.sol\":1747:1768  return tweets[_owner] */\n      dup1\n      sload\n      dup1\n      0x20\n      mul\n      0x20\n      add\n      mload(0x40)\n      swap1\n      dup2\n      add\n      0x40\n      mstore\n      dup1\n      swap3\n      swap2\n      swap1\n      dup2\n      dup2\n      mstore\n      0x20\n      add\n      0x00\n      swap1\n    tag_76:\n      dup3\n      dup3\n      lt\n      iszero\n      tag_77\n      jumpi\n      dup4\n      dup3\n      swap1\n      0x00\n      mstore\n      keccak256(0x00, 0x20)\n      swap1\n      0x05\n      mul\n      add\n      mload(0x40)\n      dup1\n      0xa0\n      add\n      0x40\n      mstore\n      swap1\n      dup2\n      0x00\n      dup3\n      add\n      0x00\n      swap1\n      sload\n      swap1\n      0x0100\n      exp\n      swap1\n      div\n      0xffffffffffffffffffffffffffffffffffffffff\n      and\n      0xffffffffffffffffffffffffffffffffffffffff\n      and\n      0xffffffffffffffffffffffffffffffffffffffff\n      and\n      dup2\n      mstore\n      0x20\n      add\n      0x01\n      dup3\n      add\n      dup1\n      sload\n      tag_79\n      swap1\n      tag_70\n      jump\t// in\n    tag_79:\n      dup1\n      0x1f\n      add\n      0x20\n      dup1\n      swap2\n      div\n      mul\n      0x20\n      add\n      mload(0x40)\n      swap1\n      dup2\n      add\n      0x40\n      mstore\n      dup1\n      swap3\n      swap2\n      swap1\n      dup2\n      dup2\n      mstore\n      0x20\n      add\n      dup3\n      dup1\n      sload\n      tag_80\n      swap1\n      tag_70\n      jump\t// in\n    tag_80:\n      dup1\n      iszero\n      tag_81\n      jumpi\n      dup1\n      0x1f\n      lt\n      tag_82\n      jumpi\n      0x0100\n      dup1\n      dup4\n      sload\n      div\n      mul\n      dup4\n      mstore\n      swap2\n      0x20\n      add\n      swap2\n      jump(tag_81)\n    tag_82:\n      dup3\n      add\n      swap2\n      swap1\n      0x00\n      mstore\n      keccak256(0x00, 0x20)\n      swap1\n    tag_83:\n      dup2\n      sload\n      dup2\n      mstore\n      swap1\n      0x01\n      add\n      swap1\n      0x20\n      add\n      dup1\n      dup4\n      gt\n      tag_83\n      jumpi\n      dup3\n      swap1\n      sub\n      0x1f\n      and\n      dup3\n      add\n      swap2\n    tag_81:\n      pop\n      pop\n      pop\n      pop\n      pop\n      dup2\n      mstore\n      0x20\n      add\n      0x02\n      dup3\n      add\n      sload\n      dup2\n      mstore\n      0x20\n      add\n      0x03\n      dup3\n      add\n      sload\n      dup2\n      mstore\n      0x20\n      add\n      0x04\n      dup3\n      add\n      sload\n      dup2\n      mstore\n      pop\n      pop\n      dup2\n      mstore\n      0x20\n      add\n      swap1\n      0x01\n      add\n      swap1\n      jump(tag_76)\n    tag_77:\n      pop\n      pop\n      pop\n      pop\n      swap1\n      pop\n        /* \"practice/26_TwitterInheritance.sol\":1661:1776  function getAllTweets(address _owner) public view returns (Tweet[] memory ){... */\n      swap2\n      swap1\n      pop\n      jump\t// out\n        /* \"practice/26_TwitterInheritance.sol\":874:993  function changeTweetLength(uint16 newTweetLength) public onlyOwner {... */\n    tag_31:\n        /* \"@openzeppelin/contracts/access/Ownable.sol\":1531:1544  _checkOwner() */\n      tag_85\n        /* \"@openzeppelin/contracts/access/Ownable.sol\":1531:1542  _checkOwner */\n      tag_86\n        /* \"@openzeppelin/contracts/access/Ownable.sol\":1531:1544  _checkOwner() */\n      jump\t// in\n    tag_85:\n        /* \"practice/26_TwitterInheritance.sol\":971:985  newTweetLength */\n      dup1\n        /* \"practice/26_TwitterInheritance.sol\":952:968  MAX_TWEET_LENGTH */\n      0x00\n      0x14\n        /* \"practice/26_TwitterInheritance.sol\":952:985  MAX_TWEET_LENGTH = newTweetLength */\n      0x0100\n      exp\n      dup2\n      sload\n      dup2\n      0xffff\n      mul\n      not\n      and\n      swap1\n      dup4\n      0xffff\n      and\n      mul\n      or\n      swap1\n      sstore\n      pop\n        /* \"practice/26_TwitterInheritance.sol\":874:993  function changeTweetLength(uint16 newTweetLength) public onlyOwner {... */\n      pop\n      jump\t// out\n        /* \"practice/26_TwitterInheritance.sol\":291:327  uint16 public MAX_TWEET_LENGTH = 280 */\n    tag_33:\n      0x00\n      0x14\n      swap1\n      sload\n      swap1\n      0x0100\n      exp\n      swap1\n      div\n      0xffff\n      and\n      dup2\n      jump\t// out\n        /* \"@openzeppelin/contracts/access/Ownable.sol\":2293:2394  function renounceOwnership() public virtual onlyOwner {... */\n    tag_37:\n        /* \"@openzeppelin/contracts/access/Ownable.sol\":1531:1544  _checkOwner() */\n      tag_89\n        /* \"@openzeppelin/contracts/access/Ownable.sol\":1531:1542  _checkOwner */\n      tag_86\n        /* \"@openzeppelin/contracts/access/Ownable.sol\":1531:1544  _checkOwner() */\n      jump\t// in\n    tag_89:\n        /* \"@openzeppelin/contracts/access/Ownable.sol\":2357:2387  _transferOwnership(address(0)) */\n      tag_91\n        /* \"@openzeppelin/contracts/access/Ownable.sol\":2384:2385  0 */\n      0x00\n        /* \"@openzeppelin/contracts/access/Ownable.sol\":2357:2375  _transferOwnership */\n      tag_92\n        /* \"@openzeppelin/contracts/access/Ownable.sol\":2357:2387  _transferOwnership(address(0)) */\n      jump\t// in\n    tag_91:\n        /* \"@openzeppelin/contracts/access/Ownable.sol\":2293:2394  function renounceOwnership() public virtual onlyOwner {... */\n      jump\t// out\n        /* \"practice/26_TwitterInheritance.sol\":2043:2372  function removeLike (uint256 id, address author) external {... */\n    tag_41:\n        /* \"practice/26_TwitterInheritance.sol\":2145:2147  id */\n      dup2\n        /* \"practice/26_TwitterInheritance.sol\":2120:2126  tweets */\n      0x01\n        /* \"practice/26_TwitterInheritance.sol\":2120:2134  tweets[author] */\n      0x00\n        /* \"practice/26_TwitterInheritance.sol\":2127:2133  author */\n      dup4\n        /* \"practice/26_TwitterInheritance.sol\":2120:2134  tweets[author] */\n      0xffffffffffffffffffffffffffffffffffffffff\n      and\n      0xffffffffffffffffffffffffffffffffffffffff\n      and\n      dup2\n      mstore\n      0x20\n      add\n      swap1\n      dup2\n      mstore\n      0x20\n      add\n      0x00\n      keccak256\n        /* \"practice/26_TwitterInheritance.sol\":2135:2137  id */\n      dup4\n        /* \"practice/26_TwitterInheritance.sol\":2120:2138  tweets[author][id] */\n      dup2\n      sload\n      dup2\n      lt\n      tag_94\n      jumpi\n      tag_95\n      tag_96\n      jump\t// in\n    tag_95:\n    tag_94:\n      swap1\n      0x00\n      mstore\n      keccak256(0x00, 0x20)\n      swap1\n      0x05\n      mul\n      add\n        /* \"practice/26_TwitterInheritance.sol\":2120:2141  tweets[author][id].id */\n      0x04\n      add\n      sload\n        /* \"practice/26_TwitterInheritance.sol\":2120:2147  tweets[author][id].id == id */\n      eq\n        /* \"practice/26_TwitterInheritance.sol\":2112:2173  require(tweets[author][id].id == id, \"Nie ma takiego tweetu\") */\n      tag_98\n      jumpi\n      mload(0x40)\n      0x08c379a000000000000000000000000000000000000000000000000000000000\n      dup2\n      mstore\n      0x04\n      add\n      tag_99\n      swap1\n      tag_100\n      jump\t// in\n    tag_99:\n      mload(0x40)\n      dup1\n      swap2\n      sub\n      swap1\n      revert\n    tag_98:\n        /* \"practice/26_TwitterInheritance.sol\":2219:2220  0 */\n      0x00\n        /* \"practice/26_TwitterInheritance.sol\":2192:2198  tweets */\n      0x01\n        /* \"practice/26_TwitterInheritance.sol\":2192:2206  tweets[author] */\n      0x00\n        /* \"practice/26_TwitterInheritance.sol\":2199:2205  author */\n      dup4\n        /* \"practice/26_TwitterInheritance.sol\":2192:2206  tweets[author] */\n      0xffffffffffffffffffffffffffffffffffffffff\n      and\n      0xffffffffffffffffffffffffffffffffffffffff\n      and\n      dup2\n      mstore\n      0x20\n      add\n      swap1\n      dup2\n      mstore\n      0x20\n      add\n      0x00\n      keccak256\n        /* \"practice/26_TwitterInheritance.sol\":2207:2209  id */\n      dup4\n        /* \"practice/26_TwitterInheritance.sol\":2192:2210  tweets[author][id] */\n      dup2\n      sload\n      dup2\n      lt\n      tag_101\n      jumpi\n      tag_102\n      tag_96\n      jump\t// in\n    tag_102:\n    tag_101:\n      swap1\n      0x00\n      mstore\n      keccak256(0x00, 0x20)\n      swap1\n      0x05\n      mul\n      add\n        /* \"practice/26_TwitterInheritance.sol\":2192:2216  tweets[author][id].likes */\n      0x03\n      add\n      sload\n        /* \"practice/26_TwitterInheritance.sol\":2192:2220  tweets[author][id].likes > 0 */\n      gt\n        /* \"practice/26_TwitterInheritance.sol\":2184:2247  require(tweets[author][id].likes > 0, \"Nie mozesz usunac like\") */\n      tag_104\n      jumpi\n      mload(0x40)\n      0x08c379a000000000000000000000000000000000000000000000000000000000\n      dup2\n      mstore\n      0x04\n      add\n      tag_105\n      swap1\n      tag_106\n      jump\t// in\n    tag_105:\n      mload(0x40)\n      dup1\n      swap2\n      sub\n      swap1\n      revert\n    tag_104:\n        /* \"practice/26_TwitterInheritance.sol\":2258:2264  tweets */\n      0x01\n        /* \"practice/26_TwitterInheritance.sol\":2258:2272  tweets[author] */\n      0x00\n        /* \"practice/26_TwitterInheritance.sol\":2265:2271  author */\n      dup3\n        /* \"practice/26_TwitterInheritance.sol\":2258:2272  tweets[author] */\n      0xffffffffffffffffffffffffffffffffffffffff\n      and\n      0xffffffffffffffffffffffffffffffffffffffff\n      and\n      dup2\n      mstore\n      0x20\n      add\n      swap1\n      dup2\n      mstore\n      0x20\n      add\n      0x00\n      keccak256\n        /* \"practice/26_TwitterInheritance.sol\":2273:2275  id */\n      dup3\n        /* \"practice/26_TwitterInheritance.sol\":2258:2276  tweets[author][id] */\n      dup2\n      sload\n      dup2\n      lt\n      tag_107\n      jumpi\n      tag_108\n      tag_96\n      jump\t// in\n    tag_108:\n    tag_107:\n      swap1\n      0x00\n      mstore\n      keccak256(0x00, 0x20)\n      swap1\n      0x05\n      mul\n      add\n        /* \"practice/26_TwitterInheritance.sol\":2258:2282  tweets[author][id].likes */\n      0x03\n      add\n      0x00\n        /* \"practice/26_TwitterInheritance.sol\":2258:2284  tweets[author][id].likes-- */\n      dup2\n      sload\n      dup1\n      swap3\n      swap2\n      swap1\n      tag_110\n      swap1\n      tag_111\n      jump\t// in\n    tag_110:\n      swap2\n      swap1\n      pop\n      sstore\n      pop\n        /* \"practice/26_TwitterInheritance.sol\":2302:2364  TweetUnliked(msg.sender, author, id, tweets[author][id].likes) */\n      0x762c2616349603ac16eba0de8e6141b79129a07ab63bd99e0a80b3a471716943\n        /* \"practice/26_TwitterInheritance.sol\":2315:2325  msg.sender */\n      caller\n        /* \"practice/26_TwitterInheritance.sol\":2327:2333  author */\n      dup3\n        /* \"practice/26_TwitterInheritance.sol\":2335:2337  id */\n      dup5\n        /* \"practice/26_TwitterInheritance.sol\":2339:2345  tweets */\n      0x01\n        /* \"practice/26_TwitterInheritance.sol\":2339:2353  tweets[author] */\n      0x00\n        /* \"practice/26_TwitterInheritance.sol\":2346:2352  author */\n      dup7\n        /* \"practice/26_TwitterInheritance.sol\":2339:2353  tweets[author] */\n      0xffffffffffffffffffffffffffffffffffffffff\n      and\n      0xffffffffffffffffffffffffffffffffffffffff\n      and\n      dup2\n      mstore\n      0x20\n      add\n      swap1\n      dup2\n      mstore\n      0x20\n      add\n      0x00\n      keccak256\n        /* \"practice/26_TwitterInheritance.sol\":2354:2356  id */\n      dup7\n        /* \"practice/26_TwitterInheritance.sol\":2339:2357  tweets[author][id] */\n      dup2\n      sload\n      dup2\n      lt\n      tag_112\n      jumpi\n      tag_113\n      tag_96\n      jump\t// in\n    tag_113:\n    tag_112:\n      swap1\n      0x00\n      mstore\n      keccak256(0x00, 0x20)\n      swap1\n      0x05\n      mul\n      add\n        /* \"practice/26_TwitterInheritance.sol\":2339:2363  tweets[author][id].likes */\n      0x03\n      add\n      sload\n        /* \"practice/26_TwitterInheritance.sol\":2302:2364  TweetUnliked(msg.sender, author, id, tweets[author][id].likes) */\n      mload(0x40)\n      tag_115\n      swap5\n      swap4\n      swap3\n      swap2\n      swap1\n      tag_116\n      jump\t// in\n    tag_115:\n      mload(0x40)\n      dup1\n      swap2\n      sub\n      swap1\n      log1\n        /* \"practice/26_TwitterInheritance.sol\":2043:2372  function removeLike (uint256 id, address author) external {... */\n      pop\n      pop\n      jump\t// out\n        /* \"practice/26_TwitterInheritance.sol\":1001:1534  function createTweet(string memory _tweet) public {... */\n    tag_45:\n        /* \"practice/26_TwitterInheritance.sol\":1094:1110  MAX_TWEET_LENGTH */\n      0x00\n      0x14\n      swap1\n      sload\n      swap1\n      0x0100\n      exp\n      swap1\n      div\n      0xffff\n      and\n        /* \"practice/26_TwitterInheritance.sol\":1070:1110  bytes(_tweet).length <= MAX_TWEET_LENGTH */\n      0xffff\n      and\n        /* \"practice/26_TwitterInheritance.sol\":1076:1082  _tweet */\n      dup2\n        /* \"practice/26_TwitterInheritance.sol\":1070:1090  bytes(_tweet).length */\n      mload\n        /* \"practice/26_TwitterInheritance.sol\":1070:1110  bytes(_tweet).length <= MAX_TWEET_LENGTH */\n      gt\n      iszero\n        /* \"practice/26_TwitterInheritance.sol\":1062:1131  require(bytes(_tweet).length <= MAX_TWEET_LENGTH, \"Message to long\" ) */\n      tag_118\n      jumpi\n      mload(0x40)\n      0x08c379a000000000000000000000000000000000000000000000000000000000\n      dup2\n      mstore\n      0x04\n      add\n      tag_119\n      swap1\n      tag_120\n      jump\t// in\n    tag_119:\n      mload(0x40)\n      dup1\n      swap2\n      sub\n      swap1\n      revert\n    tag_118:\n        /* \"practice/26_TwitterInheritance.sol\":1144:1165  Tweet memory newTweet */\n      0x00\n        /* \"practice/26_TwitterInheritance.sol\":1168:1357  Tweet({... */\n      mload(0x40)\n      dup1\n      0xa0\n      add\n      0x40\n      mstore\n      dup1\n        /* \"practice/26_TwitterInheritance.sol\":1197:1207  msg.sender */\n      caller\n        /* \"practice/26_TwitterInheritance.sol\":1168:1357  Tweet({... */\n      0xffffffffffffffffffffffffffffffffffffffff\n      and\n      dup2\n      mstore\n      0x20\n      add\n        /* \"practice/26_TwitterInheritance.sol\":1231:1237  _tweet */\n      dup4\n        /* \"practice/26_TwitterInheritance.sol\":1168:1357  Tweet({... */\n      dup2\n      mstore\n      0x20\n      add\n        /* \"practice/26_TwitterInheritance.sol\":1263:1278  block.timestamp */\n      timestamp\n        /* \"practice/26_TwitterInheritance.sol\":1168:1357  Tweet({... */\n      dup2\n      mstore\n      0x20\n      add\n        /* \"practice/26_TwitterInheritance.sol\":1300:1301  0 */\n      0x00\n        /* \"practice/26_TwitterInheritance.sol\":1168:1357  Tweet({... */\n      dup2\n      mstore\n      0x20\n      add\n        /* \"practice/26_TwitterInheritance.sol\":1320:1326  tweets */\n      0x01\n        /* \"practice/26_TwitterInheritance.sol\":1320:1338  tweets[msg.sender] */\n      0x00\n        /* \"practice/26_TwitterInheritance.sol\":1327:1337  msg.sender */\n      caller\n        /* \"practice/26_TwitterInheritance.sol\":1320:1338  tweets[msg.sender] */\n      0xffffffffffffffffffffffffffffffffffffffff\n      and\n      0xffffffffffffffffffffffffffffffffffffffff\n      and\n      dup2\n      mstore\n      0x20\n      add\n      swap1\n      dup2\n      mstore\n      0x20\n      add\n      0x00\n      keccak256\n        /* \"practice/26_TwitterInheritance.sol\":1320:1345  tweets[msg.sender].length */\n      dup1\n      sload\n      swap1\n      pop\n        /* \"practice/26_TwitterInheritance.sol\":1168:1357  Tweet({... */\n      dup2\n      mstore\n      pop\n        /* \"practice/26_TwitterInheritance.sol\":1144:1357  Tweet memory newTweet = Tweet({... */\n      swap1\n      pop\n        /* \"practice/26_TwitterInheritance.sol\":1394:1400  tweets */\n      0x01\n        /* \"practice/26_TwitterInheritance.sol\":1394:1412  tweets[msg.sender] */\n      0x00\n        /* \"practice/26_TwitterInheritance.sol\":1401:1411  msg.sender */\n      caller\n        /* \"practice/26_TwitterInheritance.sol\":1394:1412  tweets[msg.sender] */\n      0xffffffffffffffffffffffffffffffffffffffff\n      and\n      0xffffffffffffffffffffffffffffffffffffffff\n      and\n      dup2\n      mstore\n      0x20\n      add\n      swap1\n      dup2\n      mstore\n      0x20\n      add\n      0x00\n      keccak256\n        /* \"practice/26_TwitterInheritance.sol\":1418:1426  newTweet */\n      dup2\n        /* \"practice/26_TwitterInheritance.sol\":1394:1427  tweets[msg.sender].push(newTweet) */\n      swap1\n      dup1\n      0x01\n      dup2\n      sload\n      add\n      dup1\n      dup3\n      sstore\n      dup1\n      swap2\n      pop\n      pop\n      0x01\n      swap1\n      sub\n      swap1\n      0x00\n      mstore\n      keccak256(0x00, 0x20)\n      swap1\n      0x05\n      mul\n      add\n      0x00\n      swap1\n      swap2\n      swap1\n      swap2\n      swap1\n      swap2\n      pop\n      0x00\n      dup3\n      add\n      mload\n      dup2\n      0x00\n      add\n      exp(0x0100, 0x00)\n      dup2\n      sload\n      dup2\n      0xffffffffffffffffffffffffffffffffffffffff\n      mul\n      not\n      and\n      swap1\n      dup4\n      0xffffffffffffffffffffffffffffffffffffffff\n      and\n      mul\n      or\n      swap1\n      sstore\n      pop\n      0x20\n      dup3\n      add\n      mload\n      dup2\n      0x01\n      add\n      swap1\n      dup2\n      tag_122\n      swap2\n      swap1\n      tag_123\n      jump\t// in\n    tag_122:\n      pop\n      0x40\n      dup3\n      add\n      mload\n      dup2\n      0x02\n      add\n      sstore\n      0x60\n      dup3\n      add\n      mload\n      dup2\n      0x03\n      add\n      sstore\n      0x80\n      dup3\n      add\n      mload\n      dup2\n      0x04\n      add\n      sstore\n      pop\n      pop\n        /* \"practice/26_TwitterInheritance.sol\":1445:1526  TweetCreated (newTweet.id, newTweet.author, newTweet.content, newTweet.timestamp) */\n      0x16fd3c13e9d46923e0a8bce11c7b473ec508a72e6c96cd2404b29ce972afc29e\n        /* \"practice/26_TwitterInheritance.sol\":1459:1467  newTweet */\n      dup2\n        /* \"practice/26_TwitterInheritance.sol\":1459:1470  newTweet.id */\n      0x80\n      add\n      mload\n        /* \"practice/26_TwitterInheritance.sol\":1472:1480  newTweet */\n      dup3\n        /* \"practice/26_TwitterInheritance.sol\":1472:1487  newTweet.author */\n      0x00\n      add\n      mload\n        /* \"practice/26_TwitterInheritance.sol\":1489:1497  newTweet */\n      dup4\n        /* \"practice/26_TwitterInheritance.sol\":1489:1505  newTweet.content */\n      0x20\n      add\n      mload\n        /* \"practice/26_TwitterInheritance.sol\":1507:1515  newTweet */\n      dup5\n        /* \"practice/26_TwitterInheritance.sol\":1507:1525  newTweet.timestamp */\n      0x40\n      add\n      mload\n        /* \"practice/26_TwitterInheritance.sol\":1445:1526  TweetCreated (newTweet.id, newTweet.author, newTweet.content, newTweet.timestamp) */\n      mload(0x40)\n      tag_124\n      swap5\n      swap4\n      swap3\n      swap2\n      swap1\n      tag_125\n      jump\t// in\n    tag_124:\n      mload(0x40)\n      dup1\n      swap2\n      sub\n      swap1\n      log1\n        /* \"practice/26_TwitterInheritance.sol\":1051:1534  {... */\n      pop\n        /* \"practice/26_TwitterInheritance.sol\":1001:1534  function createTweet(string memory _tweet) public {... */\n      pop\n      jump\t// out\n        /* \"practice/26_TwitterInheritance.sol\":2405:2628  function getTotalLikes (address _author) external returns(uint) {... */\n    tag_48:\n        /* \"practice/26_TwitterInheritance.sol\":2463:2467  uint */\n      0x00\n        /* \"practice/26_TwitterInheritance.sol\":2484:2490  uint i */\n      dup1\n        /* \"practice/26_TwitterInheritance.sol\":2493:2494  0 */\n      0x00\n        /* \"practice/26_TwitterInheritance.sol\":2484:2494  uint i = 0 */\n      swap1\n      pop\n        /* \"practice/26_TwitterInheritance.sol\":2480:2593  for(uint i = 0; i < tweets[_author].length; i++){... */\n    tag_127:\n        /* \"practice/26_TwitterInheritance.sol\":2500:2506  tweets */\n      0x01\n        /* \"practice/26_TwitterInheritance.sol\":2500:2515  tweets[_author] */\n      0x00\n        /* \"practice/26_TwitterInheritance.sol\":2507:2514  _author */\n      dup5\n        /* \"practice/26_TwitterInheritance.sol\":2500:2515  tweets[_author] */\n      0xffffffffffffffffffffffffffffffffffffffff\n      and\n      0xffffffffffffffffffffffffffffffffffffffff\n      and\n      dup2\n      mstore\n      0x20\n      add\n      swap1\n      dup2\n      mstore\n      0x20\n      add\n      0x00\n      keccak256\n        /* \"practice/26_TwitterInheritance.sol\":2500:2522  tweets[_author].length */\n      dup1\n      sload\n      swap1\n      pop\n        /* \"practice/26_TwitterInheritance.sol\":2496:2497  i */\n      dup2\n        /* \"practice/26_TwitterInheritance.sol\":2496:2522  i < tweets[_author].length */\n      lt\n        /* \"practice/26_TwitterInheritance.sol\":2480:2593  for(uint i = 0; i < tweets[_author].length; i++){... */\n      iszero\n      tag_128\n      jumpi\n        /* \"practice/26_TwitterInheritance.sol\":2557:2563  tweets */\n      0x01\n        /* \"practice/26_TwitterInheritance.sol\":2557:2572  tweets[_author] */\n      0x00\n        /* \"practice/26_TwitterInheritance.sol\":2564:2571  _author */\n      dup5\n        /* \"practice/26_TwitterInheritance.sol\":2557:2572  tweets[_author] */\n      0xffffffffffffffffffffffffffffffffffffffff\n      and\n      0xffffffffffffffffffffffffffffffffffffffff\n      and\n      dup2\n      mstore\n      0x20\n      add\n      swap1\n      dup2\n      mstore\n      0x20\n      add\n      0x00\n      keccak256\n        /* \"practice/26_TwitterInheritance.sol\":2573:2574  i */\n      dup2\n        /* \"practice/26_TwitterInheritance.sol\":2557:2575  tweets[_author][i] */\n      dup2\n      sload\n      dup2\n      lt\n      tag_130\n      jumpi\n      tag_131\n      tag_96\n      jump\t// in\n    tag_131:\n    tag_130:\n      swap1\n      0x00\n      mstore\n      keccak256(0x00, 0x20)\n      swap1\n      0x05\n      mul\n      add\n        /* \"practice/26_TwitterInheritance.sol\":2557:2581  tweets[_author][i].likes */\n      0x03\n      add\n      sload\n        /* \"practice/26_TwitterInheritance.sol\":2543:2553  totalLikes */\n      0x02\n      0x00\n        /* \"practice/26_TwitterInheritance.sol\":2543:2581  totalLikes += tweets[_author][i].likes */\n      dup3\n      dup3\n      sload\n      tag_133\n      swap2\n      swap1\n      tag_134\n      jump\t// in\n    tag_133:\n      swap3\n      pop\n      pop\n      dup2\n      swap1\n      sstore\n      pop\n        /* \"practice/26_TwitterInheritance.sol\":2524:2527  i++ */\n      dup1\n      dup1\n      0x01\n      add\n      swap2\n      pop\n      pop\n        /* \"practice/26_TwitterInheritance.sol\":2480:2593  for(uint i = 0; i < tweets[_author].length; i++){... */\n      jump(tag_127)\n    tag_128:\n      pop\n        /* \"practice/26_TwitterInheritance.sol\":2610:2620  totalLikes */\n      sload(0x02)\n        /* \"practice/26_TwitterInheritance.sol\":2603:2620  return totalLikes */\n      swap1\n      pop\n        /* \"practice/26_TwitterInheritance.sol\":2405:2628  function getTotalLikes (address _author) external returns(uint) {... */\n      swap2\n      swap1\n      pop\n      jump\t// out\n        /* \"@openzeppelin/contracts/access/Ownable.sol\":1638:1723  function owner() public view virtual returns (address) {... */\n    tag_52:\n        /* \"@openzeppelin/contracts/access/Ownable.sol\":1684:1691  address */\n      0x00\n        /* \"@openzeppelin/contracts/access/Ownable.sol\":1710:1716  _owner */\n      dup1\n      0x00\n      swap1\n      sload\n      swap1\n      0x0100\n      exp\n      swap1\n      div\n      0xffffffffffffffffffffffffffffffffffffffff\n      and\n        /* \"@openzeppelin/contracts/access/Ownable.sol\":1703:1716  return _owner */\n      swap1\n      pop\n        /* \"@openzeppelin/contracts/access/Ownable.sol\":1638:1723  function owner() public view virtual returns (address) {... */\n      swap1\n      jump\t// out\n        /* \"practice/26_TwitterInheritance.sol\":1542:1653  function getTweet( uint _i) public view returns (Tweet memory) {... */\n    tag_58:\n        /* \"practice/26_TwitterInheritance.sol\":1591:1603  Tweet memory */\n      tag_136\n      tag_137\n      jump\t// in\n    tag_136:\n        /* \"practice/26_TwitterInheritance.sol\":1623:1629  tweets */\n      0x01\n        /* \"practice/26_TwitterInheritance.sol\":1623:1641  tweets[msg.sender] */\n      0x00\n        /* \"practice/26_TwitterInheritance.sol\":1630:1640  msg.sender */\n      caller\n        /* \"practice/26_TwitterInheritance.sol\":1623:1641  tweets[msg.sender] */\n      0xffffffffffffffffffffffffffffffffffffffff\n      and\n      0xffffffffffffffffffffffffffffffffffffffff\n      and\n      dup2\n      mstore\n      0x20\n      add\n      swap1\n      dup2\n      mstore\n      0x20\n      add\n      0x00\n      keccak256\n        /* \"practice/26_TwitterInheritance.sol\":1642:1644  _i */\n      dup3\n        /* \"practice/26_TwitterInheritance.sol\":1623:1645  tweets[msg.sender][_i] */\n      dup2\n      sload\n      dup2\n      lt\n      tag_139\n      jumpi\n      tag_140\n      tag_96\n      jump\t// in\n    tag_140:\n    tag_139:\n      swap1\n      0x00\n      mstore\n      keccak256(0x00, 0x20)\n      swap1\n      0x05\n      mul\n      add\n        /* \"practice/26_TwitterInheritance.sol\":1616:1645  return tweets[msg.sender][_i] */\n      mload(0x40)\n      dup1\n      0xa0\n      add\n      0x40\n      mstore\n      swap1\n      dup2\n      0x00\n      dup3\n      add\n      0x00\n      swap1\n      sload\n      swap1\n      0x0100\n      exp\n      swap1\n      div\n      0xffffffffffffffffffffffffffffffffffffffff\n      and\n      0xffffffffffffffffffffffffffffffffffffffff\n      and\n      0xffffffffffffffffffffffffffffffffffffffff\n      and\n      dup2\n      mstore\n      0x20\n      add\n      0x01\n      dup3\n      add\n      dup1\n      sload\n      tag_142\n      swap1\n      tag_70\n      jump\t// in\n    tag_142:\n      dup1\n      0x1f\n      add\n      0x20\n      dup1\n      swap2\n      div\n      mul\n      0x20\n      add\n      mload(0x40)\n      swap1\n      dup2\n      add\n      0x40\n      mstore\n      dup1\n      swap3\n      swap2\n      swap1\n      dup2\n      dup2\n      mstore\n      0x20\n      add\n      dup3\n      dup1\n      sload\n      tag_143\n      swap1\n      tag_70\n      jump\t// in\n    tag_143:\n      dup1\n      iszero\n      tag_144\n      jumpi\n      dup1\n      0x1f\n      lt\n      tag_145\n      jumpi\n      0x0100\n      dup1\n      dup4\n      sload\n      div\n      mul\n      dup4\n      mstore\n      swap2\n      0x20\n      add\n      swap2\n      jump(tag_144)\n    tag_145:\n      dup3\n      add\n      swap2\n      swap1\n      0x00\n      mstore\n      keccak256(0x00, 0x20)\n      swap1\n    tag_146:\n      dup2\n      sload\n      dup2\n      mstore\n      swap1\n      0x01\n      add\n      swap1\n      0x20\n      add\n      dup1\n      dup4\n      gt\n      tag_146\n      jumpi\n      dup3\n      swap1\n      sub\n      0x1f\n      and\n      dup3\n      add\n      swap2\n    tag_144:\n      pop\n      pop\n      pop\n      pop\n      pop\n      dup2\n      mstore\n      0x20\n      add\n      0x02\n      dup3\n      add\n      sload\n      dup2\n      mstore\n      0x20\n      add\n      0x03\n      dup3\n      add\n      sload\n      dup2\n      mstore\n      0x20\n      add\n      0x04\n      dup3\n      add\n      sload\n      dup2\n      mstore\n      pop\n      pop\n      swap1\n      pop\n        /* \"practice/26_TwitterInheritance.sol\":1542:1653  function getTweet( uint _i) public view returns (Tweet memory) {... */\n      swap2\n      swap1\n      pop\n      jump\t// out\n        /* \"@openzeppelin/contracts/access/Ownable.sol\":2543:2758  function transferOwnership(address newOwner) public virtual onlyOwner {... */\n    tag_63:\n        /* \"@openzeppelin/contracts/access/Ownable.sol\":1531:1544  _checkOwner() */\n      tag_148\n        /* \"@openzeppelin/contracts/access/Ownable.sol\":1531:1542  _checkOwner */\n      tag_86\n        /* \"@openzeppelin/contracts/access/Ownable.sol\":1531:1544  _checkOwner() */\n      jump\t// in\n    tag_148:\n        /* \"@openzeppelin/contracts/access/Ownable.sol\":2647:2648  0 */\n      0x00\n        /* \"@openzeppelin/contracts/access/Ownable.sol\":2627:2649  newOwner == address(0) */\n      0xffffffffffffffffffffffffffffffffffffffff\n      and\n        /* \"@openzeppelin/contracts/access/Ownable.sol\":2627:2635  newOwner */\n      dup2\n        /* \"@openzeppelin/contracts/access/Ownable.sol\":2627:2649  newOwner == address(0) */\n      0xffffffffffffffffffffffffffffffffffffffff\n      and\n      sub\n        /* \"@openzeppelin/contracts/access/Ownable.sol\":2623:2714  if (newOwner == address(0)) {... */\n      tag_150\n      jumpi\n        /* \"@openzeppelin/contracts/access/Ownable.sol\":2700:2701  0 */\n      0x00\n        /* \"@openzeppelin/contracts/access/Ownable.sol\":2672:2703  OwnableInvalidOwner(address(0)) */\n      mload(0x40)\n      0x1e4fbdf700000000000000000000000000000000000000000000000000000000\n      dup2\n      mstore\n      0x04\n      add\n      tag_151\n      swap2\n      swap1\n      tag_54\n      jump\t// in\n    tag_151:\n      mload(0x40)\n      dup1\n      swap2\n      sub\n      swap1\n      revert\n        /* \"@openzeppelin/contracts/access/Ownable.sol\":2623:2714  if (newOwner == address(0)) {... */\n    tag_150:\n        /* \"@openzeppelin/contracts/access/Ownable.sol\":2723:2751  _transferOwnership(newOwner) */\n      tag_152\n        /* \"@openzeppelin/contracts/access/Ownable.sol\":2742:2750  newOwner */\n      dup2\n        /* \"@openzeppelin/contracts/access/Ownable.sol\":2723:2741  _transferOwnership */\n      tag_92\n        /* \"@openzeppelin/contracts/access/Ownable.sol\":2723:2751  _transferOwnership(newOwner) */\n      jump\t// in\n    tag_152:\n        /* \"@openzeppelin/contracts/access/Ownable.sol\":2543:2758  function transferOwnership(address newOwner) public virtual onlyOwner {... */\n      pop\n      jump\t// out\n        /* \"practice/26_TwitterInheritance.sol\":1784:2035  function addLike (address author, uint256 id) external {... */\n    tag_66:\n        /* \"practice/26_TwitterInheritance.sol\":1883:1885  id */\n      dup1\n        /* \"practice/26_TwitterInheritance.sol\":1858:1864  tweets */\n      0x01\n        /* \"practice/26_TwitterInheritance.sol\":1858:1872  tweets[author] */\n      0x00\n        /* \"practice/26_TwitterInheritance.sol\":1865:1871  author */\n      dup5\n        /* \"practice/26_TwitterInheritance.sol\":1858:1872  tweets[author] */\n      0xffffffffffffffffffffffffffffffffffffffff\n      and\n      0xffffffffffffffffffffffffffffffffffffffff\n      and\n      dup2\n      mstore\n      0x20\n      add\n      swap1\n      dup2\n      mstore\n      0x20\n      add\n      0x00\n      keccak256\n        /* \"practice/26_TwitterInheritance.sol\":1873:1875  id */\n      dup3\n        /* \"practice/26_TwitterInheritance.sol\":1858:1876  tweets[author][id] */\n      dup2\n      sload\n      dup2\n      lt\n      tag_154\n      jumpi\n      tag_155\n      tag_96\n      jump\t// in\n    tag_155:\n    tag_154:\n      swap1\n      0x00\n      mstore\n      keccak256(0x00, 0x20)\n      swap1\n      0x05\n      mul\n      add\n        /* \"practice/26_TwitterInheritance.sol\":1858:1879  tweets[author][id].id */\n      0x04\n      add\n      sload\n        /* \"practice/26_TwitterInheritance.sol\":1858:1885  tweets[author][id].id == id */\n      eq\n        /* \"practice/26_TwitterInheritance.sol\":1850:1911  require(tweets[author][id].id == id, \"Nie ma takiego tweetu\") */\n      tag_157\n      jumpi\n      mload(0x40)\n      0x08c379a000000000000000000000000000000000000000000000000000000000\n      dup2\n      mstore\n      0x04\n      add\n      tag_158\n      swap1\n      tag_100\n      jump\t// in\n    tag_158:\n      mload(0x40)\n      dup1\n      swap2\n      sub\n      swap1\n      revert\n    tag_157:\n        /* \"practice/26_TwitterInheritance.sol\":1922:1928  tweets */\n      0x01\n        /* \"practice/26_TwitterInheritance.sol\":1922:1936  tweets[author] */\n      0x00\n        /* \"practice/26_TwitterInheritance.sol\":1929:1935  author */\n      dup4\n        /* \"practice/26_TwitterInheritance.sol\":1922:1936  tweets[author] */\n      0xffffffffffffffffffffffffffffffffffffffff\n      and\n      0xffffffffffffffffffffffffffffffffffffffff\n      and\n      dup2\n      mstore\n      0x20\n      add\n      swap1\n      dup2\n      mstore\n      0x20\n      add\n      0x00\n      keccak256\n        /* \"practice/26_TwitterInheritance.sol\":1937:1939  id */\n      dup2\n        /* \"practice/26_TwitterInheritance.sol\":1922:1940  tweets[author][id] */\n      dup2\n      sload\n      dup2\n      lt\n      tag_159\n      jumpi\n      tag_160\n      tag_96\n      jump\t// in\n    tag_160:\n    tag_159:\n      swap1\n      0x00\n      mstore\n      keccak256(0x00, 0x20)\n      swap1\n      0x05\n      mul\n      add\n        /* \"practice/26_TwitterInheritance.sol\":1922:1946  tweets[author][id].likes */\n      0x03\n      add\n      0x00\n        /* \"practice/26_TwitterInheritance.sol\":1922:1948  tweets[author][id].likes++ */\n      dup2\n      sload\n      dup1\n      swap3\n      swap2\n      swap1\n      tag_162\n      swap1\n      tag_163\n      jump\t// in\n    tag_162:\n      swap2\n      swap1\n      pop\n      sstore\n      pop\n        /* \"practice/26_TwitterInheritance.sol\":1966:2027  TweetLiked (msg.sender, author, id, tweets[author][id].likes) */\n      0xe8a76fc0f16d11a00d1e93b689b63d76cf60af914dd3d915375dc41d01a0c3c8\n        /* \"practice/26_TwitterInheritance.sol\":1978:1988  msg.sender */\n      caller\n        /* \"practice/26_TwitterInheritance.sol\":1990:1996  author */\n      dup4\n        /* \"practice/26_TwitterInheritance.sol\":1998:2000  id */\n      dup4\n        /* \"practice/26_TwitterInheritance.sol\":2002:2008  tweets */\n      0x01\n        /* \"practice/26_TwitterInheritance.sol\":2002:2016  tweets[author] */\n      0x00\n        /* \"practice/26_TwitterInheritance.sol\":2009:2015  author */\n      dup8\n        /* \"practice/26_TwitterInheritance.sol\":2002:2016  tweets[author] */\n      0xffffffffffffffffffffffffffffffffffffffff\n      and\n      0xffffffffffffffffffffffffffffffffffffffff\n      and\n      dup2\n      mstore\n      0x20\n      add\n      swap1\n      dup2\n      mstore\n      0x20\n      add\n      0x00\n      keccak256\n        /* \"practice/26_TwitterInheritance.sol\":2017:2019  id */\n      dup6\n        /* \"practice/26_TwitterInheritance.sol\":2002:2020  tweets[author][id] */\n      dup2\n      sload\n      dup2\n      lt\n      tag_164\n      jumpi\n      tag_165\n      tag_96\n      jump\t// in\n    tag_165:\n    tag_164:\n      swap1\n      0x00\n      mstore\n      keccak256(0x00, 0x20)\n      swap1\n      0x05\n      mul\n      add\n        /* \"practice/26_TwitterInheritance.sol\":2002:2026  tweets[author][id].likes */\n      0x03\n      add\n      sload\n        /* \"practice/26_TwitterInheritance.sol\":1966:2027  TweetLiked (msg.sender, author, id, tweets[author][id].likes) */\n      mload(0x40)\n      tag_167\n      swap5\n      swap4\n      swap3\n      swap2\n      swap1\n      tag_116\n      jump\t// in\n    tag_167:\n      mload(0x40)\n      dup1\n      swap2\n      sub\n      swap1\n      log1\n        /* \"practice/26_TwitterInheritance.sol\":1784:2035  function addLike (address author, uint256 id) external {... */\n      pop\n      pop\n      jump\t// out\n        /* \"@openzeppelin/contracts/access/Ownable.sol\":1796:1958  function _checkOwner() internal view virtual {... */\n    tag_86:\n        /* \"@openzeppelin/contracts/access/Ownable.sol\":1866:1878  _msgSender() */\n      tag_169\n        /* \"@openzeppelin/contracts/access/Ownable.sol\":1866:1876  _msgSender */\n      tag_170\n        /* \"@openzeppelin/contracts/access/Ownable.sol\":1866:1878  _msgSender() */\n      jump\t// in\n    tag_169:\n        /* \"@openzeppelin/contracts/access/Ownable.sol\":1855:1878  owner() != _msgSender() */\n      0xffffffffffffffffffffffffffffffffffffffff\n      and\n        /* \"@openzeppelin/contracts/access/Ownable.sol\":1855:1862  owner() */\n      tag_171\n        /* \"@openzeppelin/contracts/access/Ownable.sol\":1855:1860  owner */\n      tag_52\n        /* \"@openzeppelin/contracts/access/Ownable.sol\":1855:1862  owner() */\n      jump\t// in\n    tag_171:\n        /* \"@openzeppelin/contracts/access/Ownable.sol\":1855:1878  owner() != _msgSender() */\n      0xffffffffffffffffffffffffffffffffffffffff\n      and\n      eq\n        /* \"@openzeppelin/contracts/access/Ownable.sol\":1851:1952  if (owner() != _msgSender()) {... */\n      tag_172\n      jumpi\n        /* \"@openzeppelin/contracts/access/Ownable.sol\":1928:1940  _msgSender() */\n      tag_173\n        /* \"@openzeppelin/contracts/access/Ownable.sol\":1928:1938  _msgSender */\n      tag_170\n        /* \"@openzeppelin/contracts/access/Ownable.sol\":1928:1940  _msgSender() */\n      jump\t// in\n    tag_173:\n        /* \"@openzeppelin/contracts/access/Ownable.sol\":1901:1941  OwnableUnauthorizedAccount(_msgSender()) */\n      mload(0x40)\n      0x118cdaa700000000000000000000000000000000000000000000000000000000\n      dup2\n      mstore\n      0x04\n      add\n      tag_174\n      swap2\n      swap1\n      tag_54\n      jump\t// in\n    tag_174:\n      mload(0x40)\n      dup1\n      swap2\n      sub\n      swap1\n      revert\n        /* \"@openzeppelin/contracts/access/Ownable.sol\":1851:1952  if (owner() != _msgSender()) {... */\n    tag_172:\n        /* \"@openzeppelin/contracts/access/Ownable.sol\":1796:1958  function _checkOwner() internal view virtual {... */\n      jump\t// out\n        /* \"@openzeppelin/contracts/access/Ownable.sol\":2912:3099  function _transferOwnership(address newOwner) internal virtual {... */\n    tag_92:\n        /* \"@openzeppelin/contracts/access/Ownable.sol\":2985:3001  address oldOwner */\n      0x00\n        /* \"@openzeppelin/contracts/access/Ownable.sol\":3004:3010  _owner */\n      dup1\n      0x00\n      swap1\n      sload\n      swap1\n      0x0100\n      exp\n      swap1\n      div\n      0xffffffffffffffffffffffffffffffffffffffff\n      and\n        /* \"@openzeppelin/contracts/access/Ownable.sol\":2985:3010  address oldOwner = _owner */\n      swap1\n      pop\n        /* \"@openzeppelin/contracts/access/Ownable.sol\":3029:3037  newOwner */\n      dup2\n        /* \"@openzeppelin/contracts/access/Ownable.sol\":3020:3026  _owner */\n      0x00\n      dup1\n        /* \"@openzeppelin/contracts/access/Ownable.sol\":3020:3037  _owner = newOwner */\n      0x0100\n      exp\n      dup2\n      sload\n      dup2\n      0xffffffffffffffffffffffffffffffffffffffff\n      mul\n      not\n      and\n      swap1\n      dup4\n      0xffffffffffffffffffffffffffffffffffffffff\n      and\n      mul\n      or\n      swap1\n      sstore\n      pop\n        /* \"@openzeppelin/contracts/access/Ownable.sol\":3083:3091  newOwner */\n      dup2\n        /* \"@openzeppelin/contracts/access/Ownable.sol\":3052:3092  OwnershipTransferred(oldOwner, newOwner) */\n      0xffffffffffffffffffffffffffffffffffffffff\n      and\n        /* \"@openzeppelin/contracts/access/Ownable.sol\":3073:3081  oldOwner */\n      dup2\n        /* \"@openzeppelin/contracts/access/Ownable.sol\":3052:3092  OwnershipTransferred(oldOwner, newOwner) */\n      0xffffffffffffffffffffffffffffffffffffffff\n      and\n      0x8be0079c531659141344cd1fd0a4f28419497f9722a3daafe3b4186f6b6457e0\n      mload(0x40)\n      mload(0x40)\n      dup1\n      swap2\n      sub\n      swap1\n      log3\n        /* \"@openzeppelin/contracts/access/Ownable.sol\":2975:3099  {... */\n      pop\n        /* \"@openzeppelin/contracts/access/Ownable.sol\":2912:3099  function _transferOwnership(address newOwner) internal virtual {... */\n      pop\n      jump\t// out\n        /* \"@openzeppelin/contracts/utils/Context.sol\":656:752  function _msgSender() internal view virtual returns (address) {... */\n    tag_170:\n        /* \"@openzeppelin/contracts/utils/Context.sol\":709:716  address */\n      0x00\n        /* \"@openzeppelin/contracts/utils/Context.sol\":735:745  msg.sender */\n      caller\n        /* \"@openzeppelin/contracts/utils/Context.sol\":728:745  return msg.sender */\n      swap1\n      pop\n        /* \"@openzeppelin/contracts/utils/Context.sol\":656:752  function _msgSender() internal view virtual returns (address) {... */\n      swap1\n      jump\t// out\n    tag_137:\n      mload(0x40)\n      dup1\n      0xa0\n      add\n      0x40\n      mstore\n      dup1\n      and(0xffffffffffffffffffffffffffffffffffffffff, 0x00)\n      dup2\n      mstore\n      0x20\n      add\n      0x60\n      dup2\n      mstore\n      0x20\n      add\n      0x00\n      dup2\n      mstore\n      0x20\n      add\n      0x00\n      dup2\n      mstore\n      0x20\n      add\n      0x00\n      dup2\n      mstore\n      pop\n      swap1\n      jump\t// out\n        /* \"#utility.yul\":7:82   */\n    tag_177:\n        /* \"#utility.yul\":40:46   */\n      0x00\n        /* \"#utility.yul\":73:75   */\n      0x40\n        /* \"#utility.yul\":67:76   */\n      mload\n        /* \"#utility.yul\":57:76   */\n      swap1\n      pop\n        /* \"#utility.yul\":7:82   */\n      swap1\n      jump\t// out\n        /* \"#utility.yul\":88:205   */\n    tag_178:\n        /* \"#utility.yul\":197:198   */\n      0x00\n        /* \"#utility.yul\":194:195   */\n      dup1\n        /* \"#utility.yul\":187:199   */\n      revert\n        /* \"#utility.yul\":211:328   */\n    tag_179:\n        /* \"#utility.yul\":320:321   */\n      0x00\n        /* \"#utility.yul\":317:318   */\n      dup1\n        /* \"#utility.yul\":310:322   */\n      revert\n        /* \"#utility.yul\":334:460   */\n    tag_180:\n        /* \"#utility.yul\":371:378   */\n      0x00\n        /* \"#utility.yul\":411:453   */\n      0xffffffffffffffffffffffffffffffffffffffff\n        /* \"#utility.yul\":404:409   */\n      dup3\n        /* \"#utility.yul\":400:454   */\n      and\n        /* \"#utility.yul\":389:454   */\n      swap1\n      pop\n        /* \"#utility.yul\":334:460   */\n      swap2\n      swap1\n      pop\n      jump\t// out\n        /* \"#utility.yul\":466:562   */\n    tag_181:\n        /* \"#utility.yul\":503:510   */\n      0x00\n        /* \"#utility.yul\":532:556   */\n      tag_248\n        /* \"#utility.yul\":550:555   */\n      dup3\n        /* \"#utility.yul\":532:556   */\n      tag_180\n      jump\t// in\n    tag_248:\n        /* \"#utility.yul\":521:556   */\n      swap1\n      pop\n        /* \"#utility.yul\":466:562   */\n      swap2\n      swap1\n      pop\n      jump\t// out\n        /* \"#utility.yul\":568:690   */\n    tag_182:\n        /* \"#utility.yul\":641:665   */\n      tag_250\n        /* \"#utility.yul\":659:664   */\n      dup2\n        /* \"#utility.yul\":641:665   */\n      tag_181\n      jump\t// in\n    tag_250:\n        /* \"#utility.yul\":634:639   */\n      dup2\n        /* \"#utility.yul\":631:666   */\n      eq\n        /* \"#utility.yul\":621:684   */\n      tag_251\n      jumpi\n        /* \"#utility.yul\":680:681   */\n      0x00\n        /* \"#utility.yul\":677:678   */\n      dup1\n        /* \"#utility.yul\":670:682   */\n      revert\n        /* \"#utility.yul\":621:684   */\n    tag_251:\n        /* \"#utility.yul\":568:690   */\n      pop\n      jump\t// out\n        /* \"#utility.yul\":696:835   */\n    tag_183:\n        /* \"#utility.yul\":742:747   */\n      0x00\n        /* \"#utility.yul\":780:786   */\n      dup2\n        /* \"#utility.yul\":767:787   */\n      calldataload\n        /* \"#utility.yul\":758:787   */\n      swap1\n      pop\n        /* \"#utility.yul\":796:829   */\n      tag_253\n        /* \"#utility.yul\":823:828   */\n      dup2\n        /* \"#utility.yul\":796:829   */\n      tag_182\n      jump\t// in\n    tag_253:\n        /* \"#utility.yul\":696:835   */\n      swap3\n      swap2\n      pop\n      pop\n      jump\t// out\n        /* \"#utility.yul\":841:918   */\n    tag_184:\n        /* \"#utility.yul\":878:885   */\n      0x00\n        /* \"#utility.yul\":907:912   */\n      dup2\n        /* \"#utility.yul\":896:912   */\n      swap1\n      pop\n        /* \"#utility.yul\":841:918   */\n      swap2\n      swap1\n      pop\n      jump\t// out\n        /* \"#utility.yul\":924:1046   */\n    tag_185:\n        /* \"#utility.yul\":997:1021   */\n      tag_256\n        /* \"#utility.yul\":1015:1020   */\n      dup2\n        /* \"#utility.yul\":997:1021   */\n      tag_184\n      jump\t// in\n    tag_256:\n        /* \"#utility.yul\":990:995   */\n      dup2\n        /* \"#utility.yul\":987:1022   */\n      eq\n        /* \"#utility.yul\":977:1040   */\n      tag_257\n      jumpi\n        /* \"#utility.yul\":1036:1037   */\n      0x00\n        /* \"#utility.yul\":1033:1034   */\n      dup1\n        /* \"#utility.yul\":1026:1038   */\n      revert\n        /* \"#utility.yul\":977:1040   */\n    tag_257:\n        /* \"#utility.yul\":924:1046   */\n      pop\n      jump\t// out\n        /* \"#utility.yul\":1052:1191   */\n    tag_186:\n        /* \"#utility.yul\":1098:1103   */\n      0x00\n        /* \"#utility.yul\":1136:1142   */\n      dup2\n        /* \"#utility.yul\":1123:1143   */\n      calldataload\n        /* \"#utility.yul\":1114:1143   */\n      swap1\n      pop\n        /* \"#utility.yul\":1152:1185   */\n      tag_259\n        /* \"#utility.yul\":1179:1184   */\n      dup2\n        /* \"#utility.yul\":1152:1185   */\n      tag_185\n      jump\t// in\n    tag_259:\n        /* \"#utility.yul\":1052:1191   */\n      swap3\n      swap2\n      pop\n      pop\n      jump\t// out\n        /* \"#utility.yul\":1197:1671   */\n    tag_18:\n        /* \"#utility.yul\":1265:1271   */\n      0x00\n        /* \"#utility.yul\":1273:1279   */\n      dup1\n        /* \"#utility.yul\":1322:1324   */\n      0x40\n        /* \"#utility.yul\":1310:1319   */\n      dup4\n        /* \"#utility.yul\":1301:1308   */\n      dup6\n        /* \"#utility.yul\":1297:1320   */\n      sub\n        /* \"#utility.yul\":1293:1325   */\n      slt\n        /* \"#utility.yul\":1290:1409   */\n      iszero\n      tag_261\n      jumpi\n        /* \"#utility.yul\":1328:1407   */\n      tag_262\n      tag_178\n      jump\t// in\n    tag_262:\n        /* \"#utility.yul\":1290:1409   */\n    tag_261:\n        /* \"#utility.yul\":1448:1449   */\n      0x00\n        /* \"#utility.yul\":1473:1526   */\n      tag_263\n        /* \"#utility.yul\":1518:1525   */\n      dup6\n        /* \"#utility.yul\":1509:1515   */\n      dup3\n        /* \"#utility.yul\":1498:1507   */\n      dup7\n        /* \"#utility.yul\":1494:1516   */\n      add\n        /* \"#utility.yul\":1473:1526   */\n      tag_183\n      jump\t// in\n    tag_263:\n        /* \"#utility.yul\":1463:1526   */\n      swap3\n      pop\n        /* \"#utility.yul\":1419:1536   */\n      pop\n        /* \"#utility.yul\":1575:1577   */\n      0x20\n        /* \"#utility.yul\":1601:1654   */\n      tag_264\n        /* \"#utility.yul\":1646:1653   */\n      dup6\n        /* \"#utility.yul\":1637:1643   */\n      dup3\n        /* \"#utility.yul\":1626:1635   */\n      dup7\n        /* \"#utility.yul\":1622:1644   */\n      add\n        /* \"#utility.yul\":1601:1654   */\n      tag_186\n      jump\t// in\n    tag_264:\n        /* \"#utility.yul\":1591:1654   */\n      swap2\n      pop\n        /* \"#utility.yul\":1546:1664   */\n      pop\n        /* \"#utility.yul\":1197:1671   */\n      swap3\n      pop\n      swap3\n      swap1\n      pop\n      jump\t// out\n        /* \"#utility.yul\":1677:1795   */\n    tag_187:\n        /* \"#utility.yul\":1764:1788   */\n      tag_266\n        /* \"#utility.yul\":1782:1787   */\n      dup2\n        /* \"#utility.yul\":1764:1788   */\n      tag_181\n      jump\t// in\n    tag_266:\n        /* \"#utility.yul\":1759:1762   */\n      dup3\n        /* \"#utility.yul\":1752:1789   */\n      mstore\n        /* \"#utility.yul\":1677:1795   */\n      pop\n      pop\n      jump\t// out\n        /* \"#utility.yul\":1801:1900   */\n    tag_188:\n        /* \"#utility.yul\":1853:1859   */\n      0x00\n        /* \"#utility.yul\":1887:1892   */\n      dup2\n        /* \"#utility.yul\":1881:1893   */\n      mload\n        /* \"#utility.yul\":1871:1893   */\n      swap1\n      pop\n        /* \"#utility.yul\":1801:1900   */\n      swap2\n      swap1\n      pop\n      jump\t// out\n        /* \"#utility.yul\":1906:2075   */\n    tag_189:\n        /* \"#utility.yul\":1990:2001   */\n      0x00\n        /* \"#utility.yul\":2024:2030   */\n      dup3\n        /* \"#utility.yul\":2019:2022   */\n      dup3\n        /* \"#utility.yul\":2012:2031   */\n      mstore\n        /* \"#utility.yul\":2064:2068   */\n      0x20\n        /* \"#utility.yul\":2059:2062   */\n      dup3\n        /* \"#utility.yul\":2055:2069   */\n      add\n        /* \"#utility.yul\":2040:2069   */\n      swap1\n      pop\n        /* \"#utility.yul\":1906:2075   */\n      swap3\n      swap2\n      pop\n      pop\n      jump\t// out\n        /* \"#utility.yul\":2081:2220   */\n    tag_190:\n        /* \"#utility.yul\":2170:2176   */\n      dup3\n        /* \"#utility.yul\":2165:2168   */\n      dup2\n        /* \"#utility.yul\":2160:2163   */\n      dup4\n        /* \"#utility.yul\":2154:2177   */\n      mcopy\n        /* \"#utility.yul\":2211:2212   */\n      0x00\n        /* \"#utility.yul\":2202:2208   */\n      dup4\n        /* \"#utility.yul\":2197:2200   */\n      dup4\n        /* \"#utility.yul\":2193:2209   */\n      add\n        /* \"#utility.yul\":2186:2213   */\n      mstore\n        /* \"#utility.yul\":2081:2220   */\n      pop\n      pop\n      pop\n      jump\t// out\n        /* \"#utility.yul\":2226:2328   */\n    tag_191:\n        /* \"#utility.yul\":2267:2273   */\n      0x00\n        /* \"#utility.yul\":2318:2320   */\n      0x1f\n        /* \"#utility.yul\":2314:2321   */\n      not\n        /* \"#utility.yul\":2309:2311   */\n      0x1f\n        /* \"#utility.yul\":2302:2307   */\n      dup4\n        /* \"#utility.yul\":2298:2312   */\n      add\n        /* \"#utility.yul\":2294:2322   */\n      and\n        /* \"#utility.yul\":2284:2322   */\n      swap1\n      pop\n        /* \"#utility.yul\":2226:2328   */\n      swap2\n      swap1\n      pop\n      jump\t// out\n        /* \"#utility.yul\":2334:2711   */\n    tag_192:\n        /* \"#utility.yul\":2422:2425   */\n      0x00\n        /* \"#utility.yul\":2450:2489   */\n      tag_272\n        /* \"#utility.yul\":2483:2488   */\n      dup3\n        /* \"#utility.yul\":2450:2489   */\n      tag_188\n      jump\t// in\n    tag_272:\n        /* \"#utility.yul\":2505:2576   */\n      tag_273\n        /* \"#utility.yul\":2569:2575   */\n      dup2\n        /* \"#utility.yul\":2564:2567   */\n      dup6\n        /* \"#utility.yul\":2505:2576   */\n      tag_189\n      jump\t// in\n    tag_273:\n        /* \"#utility.yul\":2498:2576   */\n      swap4\n      pop\n        /* \"#utility.yul\":2585:2650   */\n      tag_274\n        /* \"#utility.yul\":2643:2649   */\n      dup2\n        /* \"#utility.yul\":2638:2641   */\n      dup6\n        /* \"#utility.yul\":2631:2635   */\n      0x20\n        /* \"#utility.yul\":2624:2629   */\n      dup7\n        /* \"#utility.yul\":2620:2636   */\n      add\n        /* \"#utility.yul\":2585:2650   */\n      tag_190\n      jump\t// in\n    tag_274:\n        /* \"#utility.yul\":2675:2704   */\n      tag_275\n        /* \"#utility.yul\":2697:2703   */\n      dup2\n        /* \"#utility.yul\":2675:2704   */\n      tag_191\n      jump\t// in\n    tag_275:\n        /* \"#utility.yul\":2670:2673   */\n      dup5\n        /* \"#utility.yul\":2666:2705   */\n      add\n        /* \"#utility.yul\":2659:2705   */\n      swap2\n      pop\n        /* \"#utility.yul\":2426:2711   */\n      pop\n        /* \"#utility.yul\":2334:2711   */\n      swap3\n      swap2\n      pop\n      pop\n      jump\t// out\n        /* \"#utility.yul\":2717:2835   */\n    tag_193:\n        /* \"#utility.yul\":2804:2828   */\n      tag_277\n        /* \"#utility.yul\":2822:2827   */\n      dup2\n        /* \"#utility.yul\":2804:2828   */\n      tag_184\n      jump\t// in\n    tag_277:\n        /* \"#utility.yul\":2799:2802   */\n      dup3\n        /* \"#utility.yul\":2792:2829   */\n      mstore\n        /* \"#utility.yul\":2717:2835   */\n      pop\n      pop\n      jump\t// out\n        /* \"#utility.yul\":2841:3596   */\n    tag_21:\n        /* \"#utility.yul\":3066:3070   */\n      0x00\n        /* \"#utility.yul\":3104:3107   */\n      0xa0\n        /* \"#utility.yul\":3093:3102   */\n      dup3\n        /* \"#utility.yul\":3089:3108   */\n      add\n        /* \"#utility.yul\":3081:3108   */\n      swap1\n      pop\n        /* \"#utility.yul\":3118:3189   */\n      tag_279\n        /* \"#utility.yul\":3186:3187   */\n      0x00\n        /* \"#utility.yul\":3175:3184   */\n      dup4\n        /* \"#utility.yul\":3171:3188   */\n      add\n        /* \"#utility.yul\":3162:3168   */\n      dup9\n        /* \"#utility.yul\":3118:3189   */\n      tag_187\n      jump\t// in\n    tag_279:\n        /* \"#utility.yul\":3236:3245   */\n      dup2\n        /* \"#utility.yul\":3230:3234   */\n      dup2\n        /* \"#utility.yul\":3226:3246   */\n      sub\n        /* \"#utility.yul\":3221:3223   */\n      0x20\n        /* \"#utility.yul\":3210:3219   */\n      dup4\n        /* \"#utility.yul\":3206:3224   */\n      add\n        /* \"#utility.yul\":3199:3247   */\n      mstore\n        /* \"#utility.yul\":3264:3342   */\n      tag_280\n        /* \"#utility.yul\":3337:3341   */\n      dup2\n        /* \"#utility.yul\":3328:3334   */\n      dup8\n        /* \"#utility.yul\":3264:3342   */\n      tag_192\n      jump\t// in\n    tag_280:\n        /* \"#utility.yul\":3256:3342   */\n      swap1\n      pop\n        /* \"#utility.yul\":3352:3424   */\n      tag_281\n        /* \"#utility.yul\":3420:3422   */\n      0x40\n        /* \"#utility.yul\":3409:3418   */\n      dup4\n        /* \"#utility.yul\":3405:3423   */\n      add\n        /* \"#utility.yul\":3396:3402   */\n      dup7\n        /* \"#utility.yul\":3352:3424   */\n      tag_193\n      jump\t// in\n    tag_281:\n        /* \"#utility.yul\":3434:3506   */\n      tag_282\n        /* \"#utility.yul\":3502:3504   */\n      0x60\n        /* \"#utility.yul\":3491:3500   */\n      dup4\n        /* \"#utility.yul\":3487:3505   */\n      add\n        /* \"#utility.yul\":3478:3484   */\n      dup6\n        /* \"#utility.yul\":3434:3506   */\n      tag_193\n      jump\t// in\n    tag_282:\n        /* \"#utility.yul\":3516:3589   */\n      tag_283\n        /* \"#utility.yul\":3584:3587   */\n      0x80\n        /* \"#utility.yul\":3573:3582   */\n      dup4\n        /* \"#utility.yul\":3569:3588   */\n      add\n        /* \"#utility.yul\":3560:3566   */\n      dup5\n        /* \"#utility.yul\":3516:3589   */\n      tag_193\n      jump\t// in\n    tag_283:\n        /* \"#utility.yul\":2841:3596   */\n      swap7\n      swap6\n      pop\n      pop\n      pop\n      pop\n      pop\n      pop\n      jump\t// out\n        /* \"#utility.yul\":3602:3931   */\n    tag_24:\n        /* \"#utility.yul\":3661:3667   */\n      0x00\n        /* \"#utility.yul\":3710:3712   */\n      0x20\n        /* \"#utility.yul\":3698:3707   */\n      dup3\n        /* \"#utility.yul\":3689:3696   */\n      dup5\n        /* \"#utility.yul\":3685:3708   */\n      sub\n        /* \"#utility.yul\":3681:3713   */\n      slt\n        /* \"#utility.yul\":3678:3797   */\n      iszero\n      tag_285\n      jumpi\n        /* \"#utility.yul\":3716:3795   */\n      tag_286\n      tag_178\n      jump\t// in\n    tag_286:\n        /* \"#utility.yul\":3678:3797   */\n    tag_285:\n        /* \"#utility.yul\":3836:3837   */\n      0x00\n        /* \"#utility.yul\":3861:3914   */\n      tag_287\n        /* \"#utility.yul\":3906:3913   */\n      dup5\n        /* \"#utility.yul\":3897:3903   */\n      dup3\n        /* \"#utility.yul\":3886:3895   */\n      dup6\n        /* \"#utility.yul\":3882:3904   */\n      add\n        /* \"#utility.yul\":3861:3914   */\n      tag_183\n      jump\t// in\n    tag_287:\n        /* \"#utility.yul\":3851:3914   */\n      swap2\n      pop\n        /* \"#utility.yul\":3807:3924   */\n      pop\n        /* \"#utility.yul\":3602:3931   */\n      swap3\n      swap2\n      pop\n      pop\n      jump\t// out\n        /* \"#utility.yul\":3937:4073   */\n    tag_194:\n        /* \"#utility.yul\":4026:4032   */\n      0x00\n        /* \"#utility.yul\":4060:4065   */\n      dup2\n        /* \"#utility.yul\":4054:4066   */\n      mload\n        /* \"#utility.yul\":4044:4066   */\n      swap1\n      pop\n        /* \"#utility.yul\":3937:4073   */\n      swap2\n      swap1\n      pop\n      jump\t// out\n        /* \"#utility.yul\":4079:4285   */\n    tag_195:\n        /* \"#utility.yul\":4200:4211   */\n      0x00\n        /* \"#utility.yul\":4234:4240   */\n      dup3\n        /* \"#utility.yul\":4229:4232   */\n      dup3\n        /* \"#utility.yul\":4222:4241   */\n      mstore\n        /* \"#utility.yul\":4274:4278   */\n      0x20\n        /* \"#utility.yul\":4269:4272   */\n      dup3\n        /* \"#utility.yul\":4265:4279   */\n      add\n        /* \"#utility.yul\":4250:4279   */\n      swap1\n      pop\n        /* \"#utility.yul\":4079:4285   */\n      swap3\n      swap2\n      pop\n      pop\n      jump\t// out\n        /* \"#utility.yul\":4291:4445   */\n    tag_196:\n        /* \"#utility.yul\":4380:4384   */\n      0x00\n        /* \"#utility.yul\":4403:4406   */\n      dup2\n        /* \"#utility.yul\":4395:4406   */\n      swap1\n      pop\n        /* \"#utility.yul\":4433:4437   */\n      0x20\n        /* \"#utility.yul\":4428:4431   */\n      dup3\n        /* \"#utility.yul\":4424:4438   */\n      add\n        /* \"#utility.yul\":4416:4438   */\n      swap1\n      pop\n        /* \"#utility.yul\":4291:4445   */\n      swap2\n      swap1\n      pop\n      jump\t// out\n        /* \"#utility.yul\":4451:4559   */\n    tag_197:\n        /* \"#utility.yul\":4528:4552   */\n      tag_292\n        /* \"#utility.yul\":4546:4551   */\n      dup2\n        /* \"#utility.yul\":4528:4552   */\n      tag_181\n      jump\t// in\n    tag_292:\n        /* \"#utility.yul\":4523:4526   */\n      dup3\n        /* \"#utility.yul\":4516:4553   */\n      mstore\n        /* \"#utility.yul\":4451:4559   */\n      pop\n      pop\n      jump\t// out\n        /* \"#utility.yul\":4565:4724   */\n    tag_198:\n        /* \"#utility.yul\":4639:4650   */\n      0x00\n        /* \"#utility.yul\":4673:4679   */\n      dup3\n        /* \"#utility.yul\":4668:4671   */\n      dup3\n        /* \"#utility.yul\":4661:4680   */\n      mstore\n        /* \"#utility.yul\":4713:4717   */\n      0x20\n        /* \"#utility.yul\":4708:4711   */\n      dup3\n        /* \"#utility.yul\":4704:4718   */\n      add\n        /* \"#utility.yul\":4689:4718   */\n      swap1\n      pop\n        /* \"#utility.yul\":4565:4724   */\n      swap3\n      swap2\n      pop\n      pop\n      jump\t// out\n        /* \"#utility.yul\":4730:5087   */\n    tag_199:\n        /* \"#utility.yul\":4808:4811   */\n      0x00\n        /* \"#utility.yul\":4836:4875   */\n      tag_295\n        /* \"#utility.yul\":4869:4874   */\n      dup3\n        /* \"#utility.yul\":4836:4875   */\n      tag_188\n      jump\t// in\n    tag_295:\n        /* \"#utility.yul\":4891:4952   */\n      tag_296\n        /* \"#utility.yul\":4945:4951   */\n      dup2\n        /* \"#utility.yul\":4940:4943   */\n      dup6\n        /* \"#utility.yul\":4891:4952   */\n      tag_198\n      jump\t// in\n    tag_296:\n        /* \"#utility.yul\":4884:4952   */\n      swap4\n      pop\n        /* \"#utility.yul\":4961:5026   */\n      tag_297\n        /* \"#utility.yul\":5019:5025   */\n      dup2\n        /* \"#utility.yul\":5014:5017   */\n      dup6\n        /* \"#utility.yul\":5007:5011   */\n      0x20\n        /* \"#utility.yul\":5000:5005   */\n      dup7\n        /* \"#utility.yul\":4996:5012   */\n      add\n        /* \"#utility.yul\":4961:5026   */\n      tag_190\n      jump\t// in\n    tag_297:\n        /* \"#utility.yul\":5051:5080   */\n      tag_298\n        /* \"#utility.yul\":5073:5079   */\n      dup2\n        /* \"#utility.yul\":5051:5080   */\n      tag_191\n      jump\t// in\n    tag_298:\n        /* \"#utility.yul\":5046:5049   */\n      dup5\n        /* \"#utility.yul\":5042:5081   */\n      add\n        /* \"#utility.yul\":5035:5081   */\n      swap2\n      pop\n        /* \"#utility.yul\":4812:5087   */\n      pop\n        /* \"#utility.yul\":4730:5087   */\n      swap3\n      swap2\n      pop\n      pop\n      jump\t// out\n        /* \"#utility.yul\":5093:5201   */\n    tag_200:\n        /* \"#utility.yul\":5170:5194   */\n      tag_300\n        /* \"#utility.yul\":5188:5193   */\n      dup2\n        /* \"#utility.yul\":5170:5194   */\n      tag_184\n      jump\t// in\n    tag_300:\n        /* \"#utility.yul\":5165:5168   */\n      dup3\n        /* \"#utility.yul\":5158:5195   */\n      mstore\n        /* \"#utility.yul\":5093:5201   */\n      pop\n      pop\n      jump\t// out\n        /* \"#utility.yul\":5259:6380   */\n    tag_201:\n        /* \"#utility.yul\":5362:5365   */\n      0x00\n        /* \"#utility.yul\":5398:5402   */\n      0xa0\n        /* \"#utility.yul\":5393:5396   */\n      dup4\n        /* \"#utility.yul\":5389:5403   */\n      add\n        /* \"#utility.yul\":5487:5491   */\n      0x00\n        /* \"#utility.yul\":5480:5485   */\n      dup4\n        /* \"#utility.yul\":5476:5492   */\n      add\n        /* \"#utility.yul\":5470:5493   */\n      mload\n        /* \"#utility.yul\":5506:5569   */\n      tag_302\n        /* \"#utility.yul\":5563:5567   */\n      0x00\n        /* \"#utility.yul\":5558:5561   */\n      dup7\n        /* \"#utility.yul\":5554:5568   */\n      add\n        /* \"#utility.yul\":5540:5552   */\n      dup3\n        /* \"#utility.yul\":5506:5569   */\n      tag_197\n      jump\t// in\n    tag_302:\n        /* \"#utility.yul\":5413:5579   */\n      pop\n        /* \"#utility.yul\":5664:5668   */\n      0x20\n        /* \"#utility.yul\":5657:5662   */\n      dup4\n        /* \"#utility.yul\":5653:5669   */\n      add\n        /* \"#utility.yul\":5647:5670   */\n      mload\n        /* \"#utility.yul\":5717:5720   */\n      dup5\n        /* \"#utility.yul\":5711:5715   */\n      dup3\n        /* \"#utility.yul\":5707:5721   */\n      sub\n        /* \"#utility.yul\":5700:5704   */\n      0x20\n        /* \"#utility.yul\":5695:5698   */\n      dup7\n        /* \"#utility.yul\":5691:5705   */\n      add\n        /* \"#utility.yul\":5684:5722   */\n      mstore\n        /* \"#utility.yul\":5743:5816   */\n      tag_303\n        /* \"#utility.yul\":5811:5815   */\n      dup3\n        /* \"#utility.yul\":5797:5809   */\n      dup3\n        /* \"#utility.yul\":5743:5816   */\n      tag_199\n      jump\t// in\n    tag_303:\n        /* \"#utility.yul\":5735:5816   */\n      swap2\n      pop\n        /* \"#utility.yul\":5589:5827   */\n      pop\n        /* \"#utility.yul\":5914:5918   */\n      0x40\n        /* \"#utility.yul\":5907:5912   */\n      dup4\n        /* \"#utility.yul\":5903:5919   */\n      add\n        /* \"#utility.yul\":5897:5920   */\n      mload\n        /* \"#utility.yul\":5933:5996   */\n      tag_304\n        /* \"#utility.yul\":5990:5994   */\n      0x40\n        /* \"#utility.yul\":5985:5988   */\n      dup7\n        /* \"#utility.yul\":5981:5995   */\n      add\n        /* \"#utility.yul\":5967:5979   */\n      dup3\n        /* \"#utility.yul\":5933:5996   */\n      tag_200\n      jump\t// in\n    tag_304:\n        /* \"#utility.yul\":5837:6006   */\n      pop\n        /* \"#utility.yul\":6089:6093   */\n      0x60\n        /* \"#utility.yul\":6082:6087   */\n      dup4\n        /* \"#utility.yul\":6078:6094   */\n      add\n        /* \"#utility.yul\":6072:6095   */\n      mload\n        /* \"#utility.yul\":6108:6171   */\n      tag_305\n        /* \"#utility.yul\":6165:6169   */\n      0x60\n        /* \"#utility.yul\":6160:6163   */\n      dup7\n        /* \"#utility.yul\":6156:6170   */\n      add\n        /* \"#utility.yul\":6142:6154   */\n      dup3\n        /* \"#utility.yul\":6108:6171   */\n      tag_200\n      jump\t// in\n    tag_305:\n        /* \"#utility.yul\":6016:6181   */\n      pop\n        /* \"#utility.yul\":6261:6265   */\n      0x80\n        /* \"#utility.yul\":6254:6259   */\n      dup4\n        /* \"#utility.yul\":6250:6266   */\n      add\n        /* \"#utility.yul\":6244:6267   */\n      mload\n        /* \"#utility.yul\":6280:6343   */\n      tag_306\n        /* \"#utility.yul\":6337:6341   */\n      0x80\n        /* \"#utility.yul\":6332:6335   */\n      dup7\n        /* \"#utility.yul\":6328:6342   */\n      add\n        /* \"#utility.yul\":6314:6326   */\n      dup3\n        /* \"#utility.yul\":6280:6343   */\n      tag_200\n      jump\t// in\n    tag_306:\n        /* \"#utility.yul\":6191:6353   */\n      pop\n        /* \"#utility.yul\":6370:6374   */\n      dup1\n        /* \"#utility.yul\":6363:6374   */\n      swap2\n      pop\n        /* \"#utility.yul\":5367:6380   */\n      pop\n        /* \"#utility.yul\":5259:6380   */\n      swap3\n      swap2\n      pop\n      pop\n      jump\t// out\n        /* \"#utility.yul\":6386:6630   */\n    tag_202:\n        /* \"#utility.yul\":6499:6509   */\n      0x00\n        /* \"#utility.yul\":6534:6624   */\n      tag_308\n        /* \"#utility.yul\":6620:6623   */\n      dup4\n        /* \"#utility.yul\":6612:6618   */\n      dup4\n        /* \"#utility.yul\":6534:6624   */\n      tag_201\n      jump\t// in\n    tag_308:\n        /* \"#utility.yul\":6520:6624   */\n      swap1\n      pop\n        /* \"#utility.yul\":6386:6630   */\n      swap3\n      swap2\n      pop\n      pop\n      jump\t// out\n        /* \"#utility.yul\":6636:6771   */\n    tag_203:\n        /* \"#utility.yul\":6728:6732   */\n      0x00\n        /* \"#utility.yul\":6760:6764   */\n      0x20\n        /* \"#utility.yul\":6755:6758   */\n      dup3\n        /* \"#utility.yul\":6751:6765   */\n      add\n        /* \"#utility.yul\":6743:6765   */\n      swap1\n      pop\n        /* \"#utility.yul\":6636:6771   */\n      swap2\n      swap1\n      pop\n      jump\t// out\n        /* \"#utility.yul\":6833:7920   */\n    tag_204:\n        /* \"#utility.yul\":6996:6999   */\n      0x00\n        /* \"#utility.yul\":7025:7101   */\n      tag_311\n        /* \"#utility.yul\":7095:7100   */\n      dup3\n        /* \"#utility.yul\":7025:7101   */\n      tag_194\n      jump\t// in\n    tag_311:\n        /* \"#utility.yul\":7117:7225   */\n      tag_312\n        /* \"#utility.yul\":7218:7224   */\n      dup2\n        /* \"#utility.yul\":7213:7216   */\n      dup6\n        /* \"#utility.yul\":7117:7225   */\n      tag_195\n      jump\t// in\n    tag_312:\n        /* \"#utility.yul\":7110:7225   */\n      swap4\n      pop\n        /* \"#utility.yul\":7251:7254   */\n      dup4\n        /* \"#utility.yul\":7296:7300   */\n      0x20\n        /* \"#utility.yul\":7288:7294   */\n      dup3\n        /* \"#utility.yul\":7284:7301   */\n      mul\n        /* \"#utility.yul\":7279:7282   */\n      dup6\n        /* \"#utility.yul\":7275:7302   */\n      add\n        /* \"#utility.yul\":7326:7404   */\n      tag_313\n        /* \"#utility.yul\":7398:7403   */\n      dup6\n        /* \"#utility.yul\":7326:7404   */\n      tag_196\n      jump\t// in\n    tag_313:\n        /* \"#utility.yul\":7427:7434   */\n      dup1\n        /* \"#utility.yul\":7458:7459   */\n      0x00\n        /* \"#utility.yul\":7443:7875   */\n    tag_314:\n        /* \"#utility.yul\":7468:7474   */\n      dup6\n        /* \"#utility.yul\":7465:7466   */\n      dup2\n        /* \"#utility.yul\":7462:7475   */\n      lt\n        /* \"#utility.yul\":7443:7875   */\n      iszero\n      tag_316\n      jumpi\n        /* \"#utility.yul\":7539:7548   */\n      dup5\n        /* \"#utility.yul\":7533:7537   */\n      dup5\n        /* \"#utility.yul\":7529:7549   */\n      sub\n        /* \"#utility.yul\":7524:7527   */\n      dup10\n        /* \"#utility.yul\":7517:7550   */\n      mstore\n        /* \"#utility.yul\":7590:7596   */\n      dup2\n        /* \"#utility.yul\":7584:7597   */\n      mload\n        /* \"#utility.yul\":7618:7726   */\n      tag_317\n        /* \"#utility.yul\":7721:7725   */\n      dup6\n        /* \"#utility.yul\":7706:7719   */\n      dup3\n        /* \"#utility.yul\":7618:7726   */\n      tag_202\n      jump\t// in\n    tag_317:\n        /* \"#utility.yul\":7610:7726   */\n      swap5\n      pop\n        /* \"#utility.yul\":7749:7831   */\n      tag_318\n        /* \"#utility.yul\":7824:7830   */\n      dup4\n        /* \"#utility.yul\":7749:7831   */\n      tag_203\n      jump\t// in\n    tag_318:\n        /* \"#utility.yul\":7739:7831   */\n      swap3\n      pop\n        /* \"#utility.yul\":7860:7864   */\n      0x20\n        /* \"#utility.yul\":7855:7858   */\n      dup11\n        /* \"#utility.yul\":7851:7865   */\n      add\n        /* \"#utility.yul\":7844:7865   */\n      swap10\n      pop\n        /* \"#utility.yul\":7503:7875   */\n      pop\n        /* \"#utility.yul\":7490:7491   */\n      0x01\n        /* \"#utility.yul\":7487:7488   */\n      dup2\n        /* \"#utility.yul\":7483:7492   */\n      add\n        /* \"#utility.yul\":7478:7492   */\n      swap1\n      pop\n        /* \"#utility.yul\":7443:7875   */\n      jump(tag_314)\n    tag_316:\n        /* \"#utility.yul\":7447:7461   */\n      pop\n        /* \"#utility.yul\":7891:7895   */\n      dup3\n        /* \"#utility.yul\":7884:7895   */\n      swap8\n      pop\n        /* \"#utility.yul\":7911:7914   */\n      dup8\n        /* \"#utility.yul\":7904:7914   */\n      swap6\n      pop\n        /* \"#utility.yul\":7001:7920   */\n      pop\n      pop\n      pop\n      pop\n      pop\n        /* \"#utility.yul\":6833:7920   */\n      swap3\n      swap2\n      pop\n      pop\n      jump\t// out\n        /* \"#utility.yul\":7926:8387   */\n    tag_27:\n        /* \"#utility.yul\":8113:8117   */\n      0x00\n        /* \"#utility.yul\":8151:8153   */\n      0x20\n        /* \"#utility.yul\":8140:8149   */\n      dup3\n        /* \"#utility.yul\":8136:8154   */\n      add\n        /* \"#utility.yul\":8128:8154   */\n      swap1\n      pop\n        /* \"#utility.yul\":8200:8209   */\n      dup2\n        /* \"#utility.yul\":8194:8198   */\n      dup2\n        /* \"#utility.yul\":8190:8210   */\n      sub\n        /* \"#utility.yul\":8186:8187   */\n      0x00\n        /* \"#utility.yul\":8175:8184   */\n      dup4\n        /* \"#utility.yul\":8171:8188   */\n      add\n        /* \"#utility.yul\":8164:8211   */\n      mstore\n        /* \"#utility.yul\":8228:8380   */\n      tag_320\n        /* \"#utility.yul\":8375:8379   */\n      dup2\n        /* \"#utility.yul\":8366:8372   */\n      dup5\n        /* \"#utility.yul\":8228:8380   */\n      tag_204\n      jump\t// in\n    tag_320:\n        /* \"#utility.yul\":8220:8380   */\n      swap1\n      pop\n        /* \"#utility.yul\":7926:8387   */\n      swap3\n      swap2\n      pop\n      pop\n      jump\t// out\n        /* \"#utility.yul\":8393:8482   */\n    tag_205:\n        /* \"#utility.yul\":8429:8436   */\n      0x00\n        /* \"#utility.yul\":8469:8475   */\n      0xffff\n        /* \"#utility.yul\":8462:8467   */\n      dup3\n        /* \"#utility.yul\":8458:8476   */\n      and\n        /* \"#utility.yul\":8447:8476   */\n      swap1\n      pop\n        /* \"#utility.yul\":8393:8482   */\n      swap2\n      swap1\n      pop\n      jump\t// out\n        /* \"#utility.yul\":8488:8608   */\n    tag_206:\n        /* \"#utility.yul\":8560:8583   */\n      tag_323\n        /* \"#utility.yul\":8577:8582   */\n      dup2\n        /* \"#utility.yul\":8560:8583   */\n      tag_205\n      jump\t// in\n    tag_323:\n        /* \"#utility.yul\":8553:8558   */\n      dup2\n        /* \"#utility.yul\":8550:8584   */\n      eq\n        /* \"#utility.yul\":8540:8602   */\n      tag_324\n      jumpi\n        /* \"#utility.yul\":8598:8599   */\n      0x00\n        /* \"#utility.yul\":8595:8596   */\n      dup1\n        /* \"#utility.yul\":8588:8600   */\n      revert\n        /* \"#utility.yul\":8540:8602   */\n    tag_324:\n        /* \"#utility.yul\":8488:8608   */\n      pop\n      jump\t// out\n        /* \"#utility.yul\":8614:8751   */\n    tag_207:\n        /* \"#utility.yul\":8659:8664   */\n      0x00\n        /* \"#utility.yul\":8697:8703   */\n      dup2\n        /* \"#utility.yul\":8684:8704   */\n      calldataload\n        /* \"#utility.yul\":8675:8704   */\n      swap1\n      pop\n        /* \"#utility.yul\":8713:8745   */\n      tag_326\n        /* \"#utility.yul\":8739:8744   */\n      dup2\n        /* \"#utility.yul\":8713:8745   */\n      tag_206\n      jump\t// in\n    tag_326:\n        /* \"#utility.yul\":8614:8751   */\n      swap3\n      swap2\n      pop\n      pop\n      jump\t// out\n        /* \"#utility.yul\":8757:9084   */\n    tag_30:\n        /* \"#utility.yul\":8815:8821   */\n      0x00\n        /* \"#utility.yul\":8864:8866   */\n      0x20\n        /* \"#utility.yul\":8852:8861   */\n      dup3\n        /* \"#utility.yul\":8843:8850   */\n      dup5\n        /* \"#utility.yul\":8839:8862   */\n      sub\n        /* \"#utility.yul\":8835:8867   */\n      slt\n        /* \"#utility.yul\":8832:8951   */\n      iszero\n      tag_328\n      jumpi\n        /* \"#utility.yul\":8870:8949   */\n      tag_329\n      tag_178\n      jump\t// in\n    tag_329:\n        /* \"#utility.yul\":8832:8951   */\n    tag_328:\n        /* \"#utility.yul\":8990:8991   */\n      0x00\n        /* \"#utility.yul\":9015:9067   */\n      tag_330\n        /* \"#utility.yul\":9059:9066   */\n      dup5\n        /* \"#utility.yul\":9050:9056   */\n      dup3\n        /* \"#utility.yul\":9039:9048   */\n      dup6\n        /* \"#utility.yul\":9035:9057   */\n      add\n        /* \"#utility.yul\":9015:9067   */\n      tag_207\n      jump\t// in\n    tag_330:\n        /* \"#utility.yul\":9005:9067   */\n      swap2\n      pop\n        /* \"#utility.yul\":8961:9077   */\n      pop\n        /* \"#utility.yul\":8757:9084   */\n      swap3\n      swap2\n      pop\n      pop\n      jump\t// out\n        /* \"#utility.yul\":9090:9205   */\n    tag_208:\n        /* \"#utility.yul\":9175:9198   */\n      tag_332\n        /* \"#utility.yul\":9192:9197   */\n      dup2\n        /* \"#utility.yul\":9175:9198   */\n      tag_205\n      jump\t// in\n    tag_332:\n        /* \"#utility.yul\":9170:9173   */\n      dup3\n        /* \"#utility.yul\":9163:9199   */\n      mstore\n        /* \"#utility.yul\":9090:9205   */\n      pop\n      pop\n      jump\t// out\n        /* \"#utility.yul\":9211:9429   */\n    tag_35:\n        /* \"#utility.yul\":9302:9306   */\n      0x00\n        /* \"#utility.yul\":9340:9342   */\n      0x20\n        /* \"#utility.yul\":9329:9338   */\n      dup3\n        /* \"#utility.yul\":9325:9343   */\n      add\n        /* \"#utility.yul\":9317:9343   */\n      swap1\n      pop\n        /* \"#utility.yul\":9353:9422   */\n      tag_334\n        /* \"#utility.yul\":9419:9420   */\n      0x00\n        /* \"#utility.yul\":9408:9417   */\n      dup4\n        /* \"#utility.yul\":9404:9421   */\n      add\n        /* \"#utility.yul\":9395:9401   */\n      dup5\n        /* \"#utility.yul\":9353:9422   */\n      tag_208\n      jump\t// in\n    tag_334:\n        /* \"#utility.yul\":9211:9429   */\n      swap3\n      swap2\n      pop\n      pop\n      jump\t// out\n        /* \"#utility.yul\":9435:9909   */\n    tag_40:\n        /* \"#utility.yul\":9503:9509   */\n      0x00\n        /* \"#utility.yul\":9511:9517   */\n      dup1\n        /* \"#utility.yul\":9560:9562   */\n      0x40\n        /* \"#utility.yul\":9548:9557   */\n      dup4\n        /* \"#utility.yul\":9539:9546   */\n      dup6\n        /* \"#utility.yul\":9535:9558   */\n      sub\n        /* \"#utility.yul\":9531:9563   */\n      slt\n        /* \"#utility.yul\":9528:9647   */\n      iszero\n      tag_336\n      jumpi\n        /* \"#utility.yul\":9566:9645   */\n      tag_337\n      tag_178\n      jump\t// in\n    tag_337:\n        /* \"#utility.yul\":9528:9647   */\n    tag_336:\n        /* \"#utility.yul\":9686:9687   */\n      0x00\n        /* \"#utility.yul\":9711:9764   */\n      tag_338\n        /* \"#utility.yul\":9756:9763   */\n      dup6\n        /* \"#utility.yul\":9747:9753   */\n      dup3\n        /* \"#utility.yul\":9736:9745   */\n      dup7\n        /* \"#utility.yul\":9732:9754   */\n      add\n        /* \"#utility.yul\":9711:9764   */\n      tag_186\n      jump\t// in\n    tag_338:\n        /* \"#utility.yul\":9701:9764   */\n      swap3\n      pop\n        /* \"#utility.yul\":9657:9774   */\n      pop\n        /* \"#utility.yul\":9813:9815   */\n      0x20\n        /* \"#utility.yul\":9839:9892   */\n      tag_339\n        /* \"#utility.yul\":9884:9891   */\n      dup6\n        /* \"#utility.yul\":9875:9881   */\n      dup3\n        /* \"#utility.yul\":9864:9873   */\n      dup7\n        /* \"#utility.yul\":9860:9882   */\n      add\n        /* \"#utility.yul\":9839:9892   */\n      tag_183\n      jump\t// in\n    tag_339:\n        /* \"#utility.yul\":9829:9892   */\n      swap2\n      pop\n        /* \"#utility.yul\":9784:9902   */\n      pop\n        /* \"#utility.yul\":9435:9909   */\n      swap3\n      pop\n      swap3\n      swap1\n      pop\n      jump\t// out\n        /* \"#utility.yul\":9915:10032   */\n    tag_209:\n        /* \"#utility.yul\":10024:10025   */\n      0x00\n        /* \"#utility.yul\":10021:10022   */\n      dup1\n        /* \"#utility.yul\":10014:10026   */\n      revert\n        /* \"#utility.yul\":10038:10155   */\n    tag_210:\n        /* \"#utility.yul\":10147:10148   */\n      0x00\n        /* \"#utility.yul\":10144:10145   */\n      dup1\n        /* \"#utility.yul\":10137:10149   */\n      revert\n        /* \"#utility.yul\":10161:10341   */\n    tag_211:\n        /* \"#utility.yul\":10209:10286   */\n      0x4e487b7100000000000000000000000000000000000000000000000000000000\n        /* \"#utility.yul\":10206:10207   */\n      0x00\n        /* \"#utility.yul\":10199:10287   */\n      mstore\n        /* \"#utility.yul\":10306:10310   */\n      0x41\n        /* \"#utility.yul\":10303:10304   */\n      0x04\n        /* \"#utility.yul\":10296:10311   */\n      mstore\n        /* \"#utility.yul\":10330:10334   */\n      0x24\n        /* \"#utility.yul\":10327:10328   */\n      0x00\n        /* \"#utility.yul\":10320:10335   */\n      revert\n        /* \"#utility.yul\":10347:10628   */\n    tag_212:\n        /* \"#utility.yul\":10430:10457   */\n      tag_344\n        /* \"#utility.yul\":10452:10456   */\n      dup3\n        /* \"#utility.yul\":10430:10457   */\n      tag_191\n      jump\t// in\n    tag_344:\n        /* \"#utility.yul\":10422:10428   */\n      dup2\n        /* \"#utility.yul\":10418:10458   */\n      add\n        /* \"#utility.yul\":10560:10566   */\n      dup2\n        /* \"#utility.yul\":10548:10558   */\n      dup2\n        /* \"#utility.yul\":10545:10567   */\n      lt\n        /* \"#utility.yul\":10524:10542   */\n      0xffffffffffffffff\n        /* \"#utility.yul\":10512:10522   */\n      dup3\n        /* \"#utility.yul\":10509:10543   */\n      gt\n        /* \"#utility.yul\":10506:10568   */\n      or\n        /* \"#utility.yul\":10503:10591   */\n      iszero\n      tag_345\n      jumpi\n        /* \"#utility.yul\":10571:10589   */\n      tag_346\n      tag_211\n      jump\t// in\n    tag_346:\n        /* \"#utility.yul\":10503:10591   */\n    tag_345:\n        /* \"#utility.yul\":10611:10621   */\n      dup1\n        /* \"#utility.yul\":10607:10609   */\n      0x40\n        /* \"#utility.yul\":10600:10622   */\n      mstore\n        /* \"#utility.yul\":10390:10628   */\n      pop\n        /* \"#utility.yul\":10347:10628   */\n      pop\n      pop\n      jump\t// out\n        /* \"#utility.yul\":10634:10763   */\n    tag_213:\n        /* \"#utility.yul\":10668:10674   */\n      0x00\n        /* \"#utility.yul\":10695:10715   */\n      tag_348\n      tag_177\n      jump\t// in\n    tag_348:\n        /* \"#utility.yul\":10685:10715   */\n      swap1\n      pop\n        /* \"#utility.yul\":10724:10757   */\n      tag_349\n        /* \"#utility.yul\":10752:10756   */\n      dup3\n        /* \"#utility.yul\":10744:10750   */\n      dup3\n        /* \"#utility.yul\":10724:10757   */\n      tag_212\n      jump\t// in\n    tag_349:\n        /* \"#utility.yul\":10634:10763   */\n      swap2\n      swap1\n      pop\n      jump\t// out\n        /* \"#utility.yul\":10769:11077   */\n    tag_214:\n        /* \"#utility.yul\":10831:10835   */\n      0x00\n        /* \"#utility.yul\":10921:10939   */\n      0xffffffffffffffff\n        /* \"#utility.yul\":10913:10919   */\n      dup3\n        /* \"#utility.yul\":10910:10940   */\n      gt\n        /* \"#utility.yul\":10907:10963   */\n      iszero\n      tag_351\n      jumpi\n        /* \"#utility.yul\":10943:10961   */\n      tag_352\n      tag_211\n      jump\t// in\n    tag_352:\n        /* \"#utility.yul\":10907:10963   */\n    tag_351:\n        /* \"#utility.yul\":10981:11010   */\n      tag_353\n        /* \"#utility.yul\":11003:11009   */\n      dup3\n        /* \"#utility.yul\":10981:11010   */\n      tag_191\n      jump\t// in\n    tag_353:\n        /* \"#utility.yul\":10973:11010   */\n      swap1\n      pop\n        /* \"#utility.yul\":11065:11069   */\n      0x20\n        /* \"#utility.yul\":11059:11063   */\n      dup2\n        /* \"#utility.yul\":11055:11070   */\n      add\n        /* \"#utility.yul\":11047:11070   */\n      swap1\n      pop\n        /* \"#utility.yul\":10769:11077   */\n      swap2\n      swap1\n      pop\n      jump\t// out\n        /* \"#utility.yul\":11083:11231   */\n    tag_215:\n        /* \"#utility.yul\":11181:11187   */\n      dup3\n        /* \"#utility.yul\":11176:11179   */\n      dup2\n        /* \"#utility.yul\":11171:11174   */\n      dup4\n        /* \"#utility.yul\":11158:11188   */\n      calldatacopy\n        /* \"#utility.yul\":11222:11223   */\n      0x00\n        /* \"#utility.yul\":11213:11219   */\n      dup4\n        /* \"#utility.yul\":11208:11211   */\n      dup4\n        /* \"#utility.yul\":11204:11220   */\n      add\n        /* \"#utility.yul\":11197:11224   */\n      mstore\n        /* \"#utility.yul\":11083:11231   */\n      pop\n      pop\n      pop\n      jump\t// out\n        /* \"#utility.yul\":11237:11662   */\n    tag_216:\n        /* \"#utility.yul\":11315:11320   */\n      0x00\n        /* \"#utility.yul\":11340:11406   */\n      tag_356\n        /* \"#utility.yul\":11356:11405   */\n      tag_357\n        /* \"#utility.yul\":11398:11404   */\n      dup5\n        /* \"#utility.yul\":11356:11405   */\n      tag_214\n      jump\t// in\n    tag_357:\n        /* \"#utility.yul\":11340:11406   */\n      tag_213\n      jump\t// in\n    tag_356:\n        /* \"#utility.yul\":11331:11406   */\n      swap1\n      pop\n        /* \"#utility.yul\":11429:11435   */\n      dup3\n        /* \"#utility.yul\":11422:11427   */\n      dup2\n        /* \"#utility.yul\":11415:11436   */\n      mstore\n        /* \"#utility.yul\":11467:11471   */\n      0x20\n        /* \"#utility.yul\":11460:11465   */\n      dup2\n        /* \"#utility.yul\":11456:11472   */\n      add\n        /* \"#utility.yul\":11505:11508   */\n      dup5\n        /* \"#utility.yul\":11496:11502   */\n      dup5\n        /* \"#utility.yul\":11491:11494   */\n      dup5\n        /* \"#utility.yul\":11487:11503   */\n      add\n        /* \"#utility.yul\":11484:11509   */\n      gt\n        /* \"#utility.yul\":11481:11593   */\n      iszero\n      tag_358\n      jumpi\n        /* \"#utility.yul\":11512:11591   */\n      tag_359\n      tag_210\n      jump\t// in\n    tag_359:\n        /* \"#utility.yul\":11481:11593   */\n    tag_358:\n        /* \"#utility.yul\":11602:11656   */\n      tag_360\n        /* \"#utility.yul\":11649:11655   */\n      dup5\n        /* \"#utility.yul\":11644:11647   */\n      dup3\n        /* \"#utility.yul\":11639:11642   */\n      dup6\n        /* \"#utility.yul\":11602:11656   */\n      tag_215\n      jump\t// in\n    tag_360:\n        /* \"#utility.yul\":11321:11662   */\n      pop\n        /* \"#utility.yul\":11237:11662   */\n      swap4\n      swap3\n      pop\n      pop\n      pop\n      jump\t// out\n        /* \"#utility.yul\":11682:12022   */\n    tag_217:\n        /* \"#utility.yul\":11738:11743   */\n      0x00\n        /* \"#utility.yul\":11787:11790   */\n      dup3\n        /* \"#utility.yul\":11780:11784   */\n      0x1f\n        /* \"#utility.yul\":11772:11778   */\n      dup4\n        /* \"#utility.yul\":11768:11785   */\n      add\n        /* \"#utility.yul\":11764:11791   */\n      slt\n        /* \"#utility.yul\":11754:11876   */\n      tag_362\n      jumpi\n        /* \"#utility.yul\":11795:11874   */\n      tag_363\n      tag_209\n      jump\t// in\n    tag_363:\n        /* \"#utility.yul\":11754:11876   */\n    tag_362:\n        /* \"#utility.yul\":11912:11918   */\n      dup2\n        /* \"#utility.yul\":11899:11919   */\n      calldataload\n        /* \"#utility.yul\":11937:12016   */\n      tag_364\n        /* \"#utility.yul\":12012:12015   */\n      dup5\n        /* \"#utility.yul\":12004:12010   */\n      dup3\n        /* \"#utility.yul\":11997:12001   */\n      0x20\n        /* \"#utility.yul\":11989:11995   */\n      dup7\n        /* \"#utility.yul\":11985:12002   */\n      add\n        /* \"#utility.yul\":11937:12016   */\n      tag_216\n      jump\t// in\n    tag_364:\n        /* \"#utility.yul\":11928:12016   */\n      swap2\n      pop\n        /* \"#utility.yul\":11744:12022   */\n      pop\n        /* \"#utility.yul\":11682:12022   */\n      swap3\n      swap2\n      pop\n      pop\n      jump\t// out\n        /* \"#utility.yul\":12028:12537   */\n    tag_44:\n        /* \"#utility.yul\":12097:12103   */\n      0x00\n        /* \"#utility.yul\":12146:12148   */\n      0x20\n        /* \"#utility.yul\":12134:12143   */\n      dup3\n        /* \"#utility.yul\":12125:12132   */\n      dup5\n        /* \"#utility.yul\":12121:12144   */\n      sub\n        /* \"#utility.yul\":12117:12149   */\n      slt\n        /* \"#utility.yul\":12114:12233   */\n      iszero\n      tag_366\n      jumpi\n        /* \"#utility.yul\":12152:12231   */\n      tag_367\n      tag_178\n      jump\t// in\n    tag_367:\n        /* \"#utility.yul\":12114:12233   */\n    tag_366:\n        /* \"#utility.yul\":12300:12301   */\n      0x00\n        /* \"#utility.yul\":12289:12298   */\n      dup3\n        /* \"#utility.yul\":12285:12302   */\n      add\n        /* \"#utility.yul\":12272:12303   */\n      calldataload\n        /* \"#utility.yul\":12330:12348   */\n      0xffffffffffffffff\n        /* \"#utility.yul\":12322:12328   */\n      dup2\n        /* \"#utility.yul\":12319:12349   */\n      gt\n        /* \"#utility.yul\":12316:12433   */\n      iszero\n      tag_368\n      jumpi\n        /* \"#utility.yul\":12352:12431   */\n      tag_369\n      tag_179\n      jump\t// in\n    tag_369:\n        /* \"#utility.yul\":12316:12433   */\n    tag_368:\n        /* \"#utility.yul\":12457:12520   */\n      tag_370\n        /* \"#utility.yul\":12512:12519   */\n      dup5\n        /* \"#utility.yul\":12503:12509   */\n      dup3\n        /* \"#utility.yul\":12492:12501   */\n      dup6\n        /* \"#utility.yul\":12488:12510   */\n      add\n        /* \"#utility.yul\":12457:12520   */\n      tag_217\n      jump\t// in\n    tag_370:\n        /* \"#utility.yul\":12447:12520   */\n      swap2\n      pop\n        /* \"#utility.yul\":12243:12530   */\n      pop\n        /* \"#utility.yul\":12028:12537   */\n      swap3\n      swap2\n      pop\n      pop\n      jump\t// out\n        /* \"#utility.yul\":12543:12765   */\n    tag_50:\n        /* \"#utility.yul\":12636:12640   */\n      0x00\n        /* \"#utility.yul\":12674:12676   */\n      0x20\n        /* \"#utility.yul\":12663:12672   */\n      dup3\n        /* \"#utility.yul\":12659:12677   */\n      add\n        /* \"#utility.yul\":12651:12677   */\n      swap1\n      pop\n        /* \"#utility.yul\":12687:12758   */\n      tag_372\n        /* \"#utility.yul\":12755:12756   */\n      0x00\n        /* \"#utility.yul\":12744:12753   */\n      dup4\n        /* \"#utility.yul\":12740:12757   */\n      add\n        /* \"#utility.yul\":12731:12737   */\n      dup5\n        /* \"#utility.yul\":12687:12758   */\n      tag_193\n      jump\t// in\n    tag_372:\n        /* \"#utility.yul\":12543:12765   */\n      swap3\n      swap2\n      pop\n      pop\n      jump\t// out\n        /* \"#utility.yul\":12771:12993   */\n    tag_54:\n        /* \"#utility.yul\":12864:12868   */\n      0x00\n        /* \"#utility.yul\":12902:12904   */\n      0x20\n        /* \"#utility.yul\":12891:12900   */\n      dup3\n        /* \"#utility.yul\":12887:12905   */\n      add\n        /* \"#utility.yul\":12879:12905   */\n      swap1\n      pop\n        /* \"#utility.yul\":12915:12986   */\n      tag_374\n        /* \"#utility.yul\":12983:12984   */\n      0x00\n        /* \"#utility.yul\":12972:12981   */\n      dup4\n        /* \"#utility.yul\":12968:12985   */\n      add\n        /* \"#utility.yul\":12959:12965   */\n      dup5\n        /* \"#utility.yul\":12915:12986   */\n      tag_187\n      jump\t// in\n    tag_374:\n        /* \"#utility.yul\":12771:12993   */\n      swap3\n      swap2\n      pop\n      pop\n      jump\t// out\n        /* \"#utility.yul\":12999:13328   */\n    tag_57:\n        /* \"#utility.yul\":13058:13064   */\n      0x00\n        /* \"#utility.yul\":13107:13109   */\n      0x20\n        /* \"#utility.yul\":13095:13104   */\n      dup3\n        /* \"#utility.yul\":13086:13093   */\n      dup5\n        /* \"#utility.yul\":13082:13105   */\n      sub\n        /* \"#utility.yul\":13078:13110   */\n      slt\n        /* \"#utility.yul\":13075:13194   */\n      iszero\n      tag_376\n      jumpi\n        /* \"#utility.yul\":13113:13192   */\n      tag_377\n      tag_178\n      jump\t// in\n    tag_377:\n        /* \"#utility.yul\":13075:13194   */\n    tag_376:\n        /* \"#utility.yul\":13233:13234   */\n      0x00\n        /* \"#utility.yul\":13258:13311   */\n      tag_378\n        /* \"#utility.yul\":13303:13310   */\n      dup5\n        /* \"#utility.yul\":13294:13300   */\n      dup3\n        /* \"#utility.yul\":13283:13292   */\n      dup6\n        /* \"#utility.yul\":13279:13301   */\n      add\n        /* \"#utility.yul\":13258:13311   */\n      tag_186\n      jump\t// in\n    tag_378:\n        /* \"#utility.yul\":13248:13311   */\n      swap2\n      pop\n        /* \"#utility.yul\":13204:13321   */\n      pop\n        /* \"#utility.yul\":12999:13328   */\n      swap3\n      swap2\n      pop\n      pop\n      jump\t// out\n        /* \"#utility.yul\":13386:14517   */\n    tag_218:\n        /* \"#utility.yul\":13499:13502   */\n      0x00\n        /* \"#utility.yul\":13535:13539   */\n      0xa0\n        /* \"#utility.yul\":13530:13533   */\n      dup4\n        /* \"#utility.yul\":13526:13540   */\n      add\n        /* \"#utility.yul\":13624:13628   */\n      0x00\n        /* \"#utility.yul\":13617:13622   */\n      dup4\n        /* \"#utility.yul\":13613:13629   */\n      add\n        /* \"#utility.yul\":13607:13630   */\n      mload\n        /* \"#utility.yul\":13643:13706   */\n      tag_380\n        /* \"#utility.yul\":13700:13704   */\n      0x00\n        /* \"#utility.yul\":13695:13698   */\n      dup7\n        /* \"#utility.yul\":13691:13705   */\n      add\n        /* \"#utility.yul\":13677:13689   */\n      dup3\n        /* \"#utility.yul\":13643:13706   */\n      tag_197\n      jump\t// in\n    tag_380:\n        /* \"#utility.yul\":13550:13716   */\n      pop\n        /* \"#utility.yul\":13801:13805   */\n      0x20\n        /* \"#utility.yul\":13794:13799   */\n      dup4\n        /* \"#utility.yul\":13790:13806   */\n      add\n        /* \"#utility.yul\":13784:13807   */\n      mload\n        /* \"#utility.yul\":13854:13857   */\n      dup5\n        /* \"#utility.yul\":13848:13852   */\n      dup3\n        /* \"#utility.yul\":13844:13858   */\n      sub\n        /* \"#utility.yul\":13837:13841   */\n      0x20\n        /* \"#utility.yul\":13832:13835   */\n      dup7\n        /* \"#utility.yul\":13828:13842   */\n      add\n        /* \"#utility.yul\":13821:13859   */\n      mstore\n        /* \"#utility.yul\":13880:13953   */\n      tag_381\n        /* \"#utility.yul\":13948:13952   */\n      dup3\n        /* \"#utility.yul\":13934:13946   */\n      dup3\n        /* \"#utility.yul\":13880:13953   */\n      tag_199\n      jump\t// in\n    tag_381:\n        /* \"#utility.yul\":13872:13953   */\n      swap2\n      pop\n        /* \"#utility.yul\":13726:13964   */\n      pop\n        /* \"#utility.yul\":14051:14055   */\n      0x40\n        /* \"#utility.yul\":14044:14049   */\n      dup4\n        /* \"#utility.yul\":14040:14056   */\n      add\n        /* \"#utility.yul\":14034:14057   */\n      mload\n        /* \"#utility.yul\":14070:14133   */\n      tag_382\n        /* \"#utility.yul\":14127:14131   */\n      0x40\n        /* \"#utility.yul\":14122:14125   */\n      dup7\n        /* \"#utility.yul\":14118:14132   */\n      add\n        /* \"#utility.yul\":14104:14116   */\n      dup3\n        /* \"#utility.yul\":14070:14133   */\n      tag_200\n      jump\t// in\n    tag_382:\n        /* \"#utility.yul\":13974:14143   */\n      pop\n        /* \"#utility.yul\":14226:14230   */\n      0x60\n        /* \"#utility.yul\":14219:14224   */\n      dup4\n        /* \"#utility.yul\":14215:14231   */\n      add\n        /* \"#utility.yul\":14209:14232   */\n      mload\n        /* \"#utility.yul\":14245:14308   */\n      tag_383\n        /* \"#utility.yul\":14302:14306   */\n      0x60\n        /* \"#utility.yul\":14297:14300   */\n      dup7\n        /* \"#utility.yul\":14293:14307   */\n      add\n        /* \"#utility.yul\":14279:14291   */\n      dup3\n        /* \"#utility.yul\":14245:14308   */\n      tag_200\n      jump\t// in\n    tag_383:\n        /* \"#utility.yul\":14153:14318   */\n      pop\n        /* \"#utility.yul\":14398:14402   */\n      0x80\n        /* \"#utility.yul\":14391:14396   */\n      dup4\n        /* \"#utility.yul\":14387:14403   */\n      add\n        /* \"#utility.yul\":14381:14404   */\n      mload\n        /* \"#utility.yul\":14417:14480   */\n      tag_384\n        /* \"#utility.yul\":14474:14478   */\n      0x80\n        /* \"#utility.yul\":14469:14472   */\n      dup7\n        /* \"#utility.yul\":14465:14479   */\n      add\n        /* \"#utility.yul\":14451:14463   */\n      dup3\n        /* \"#utility.yul\":14417:14480   */\n      tag_200\n      jump\t// in\n    tag_384:\n        /* \"#utility.yul\":14328:14490   */\n      pop\n        /* \"#utility.yul\":14507:14511   */\n      dup1\n        /* \"#utility.yul\":14500:14511   */\n      swap2\n      pop\n        /* \"#utility.yul\":13504:14517   */\n      pop\n        /* \"#utility.yul\":13386:14517   */\n      swap3\n      swap2\n      pop\n      pop\n      jump\t// out\n        /* \"#utility.yul\":14523:14884   */\n    tag_60:\n        /* \"#utility.yul\":14660:14664   */\n      0x00\n        /* \"#utility.yul\":14698:14700   */\n      0x20\n        /* \"#utility.yul\":14687:14696   */\n      dup3\n        /* \"#utility.yul\":14683:14701   */\n      add\n        /* \"#utility.yul\":14675:14701   */\n      swap1\n      pop\n        /* \"#utility.yul\":14747:14756   */\n      dup2\n        /* \"#utility.yul\":14741:14745   */\n      dup2\n        /* \"#utility.yul\":14737:14757   */\n      sub\n        /* \"#utility.yul\":14733:14734   */\n      0x00\n        /* \"#utility.yul\":14722:14731   */\n      dup4\n        /* \"#utility.yul\":14718:14735   */\n      add\n        /* \"#utility.yul\":14711:14758   */\n      mstore\n        /* \"#utility.yul\":14775:14877   */\n      tag_386\n        /* \"#utility.yul\":14872:14876   */\n      dup2\n        /* \"#utility.yul\":14863:14869   */\n      dup5\n        /* \"#utility.yul\":14775:14877   */\n      tag_218\n      jump\t// in\n    tag_386:\n        /* \"#utility.yul\":14767:14877   */\n      swap1\n      pop\n        /* \"#utility.yul\":14523:14884   */\n      swap3\n      swap2\n      pop\n      pop\n      jump\t// out\n        /* \"#utility.yul\":14890:15070   */\n    tag_219:\n        /* \"#utility.yul\":14938:15015   */\n      0x4e487b7100000000000000000000000000000000000000000000000000000000\n        /* \"#utility.yul\":14935:14936   */\n      0x00\n        /* \"#utility.yul\":14928:15016   */\n      mstore\n        /* \"#utility.yul\":15035:15039   */\n      0x22\n        /* \"#utility.yul\":15032:15033   */\n      0x04\n        /* \"#utility.yul\":15025:15040   */\n      mstore\n        /* \"#utility.yul\":15059:15063   */\n      0x24\n        /* \"#utility.yul\":15056:15057   */\n      0x00\n        /* \"#utility.yul\":15049:15064   */\n      revert\n        /* \"#utility.yul\":15076:15396   */\n    tag_70:\n        /* \"#utility.yul\":15120:15126   */\n      0x00\n        /* \"#utility.yul\":15157:15158   */\n      0x02\n        /* \"#utility.yul\":15151:15155   */\n      dup3\n        /* \"#utility.yul\":15147:15159   */\n      div\n        /* \"#utility.yul\":15137:15159   */\n      swap1\n      pop\n        /* \"#utility.yul\":15204:15205   */\n      0x01\n        /* \"#utility.yul\":15198:15202   */\n      dup3\n        /* \"#utility.yul\":15194:15206   */\n      and\n        /* \"#utility.yul\":15225:15243   */\n      dup1\n        /* \"#utility.yul\":15215:15296   */\n      tag_389\n      jumpi\n        /* \"#utility.yul\":15281:15285   */\n      0x7f\n        /* \"#utility.yul\":15273:15279   */\n      dup3\n        /* \"#utility.yul\":15269:15286   */\n      and\n        /* \"#utility.yul\":15259:15286   */\n      swap2\n      pop\n        /* \"#utility.yul\":15215:15296   */\n    tag_389:\n        /* \"#utility.yul\":15343:15345   */\n      0x20\n        /* \"#utility.yul\":15335:15341   */\n      dup3\n        /* \"#utility.yul\":15332:15346   */\n      lt\n        /* \"#utility.yul\":15312:15330   */\n      dup2\n        /* \"#utility.yul\":15309:15347   */\n      sub\n        /* \"#utility.yul\":15306:15390   */\n      tag_390\n      jumpi\n        /* \"#utility.yul\":15362:15380   */\n      tag_391\n      tag_219\n      jump\t// in\n    tag_391:\n        /* \"#utility.yul\":15306:15390   */\n    tag_390:\n        /* \"#utility.yul\":15127:15396   */\n      pop\n        /* \"#utility.yul\":15076:15396   */\n      swap2\n      swap1\n      pop\n      jump\t// out\n        /* \"#utility.yul\":15402:15582   */\n    tag_96:\n        /* \"#utility.yul\":15450:15527   */\n      0x4e487b7100000000000000000000000000000000000000000000000000000000\n        /* \"#utility.yul\":15447:15448   */\n      0x00\n        /* \"#utility.yul\":15440:15528   */\n      mstore\n        /* \"#utility.yul\":15547:15551   */\n      0x32\n        /* \"#utility.yul\":15544:15545   */\n      0x04\n        /* \"#utility.yul\":15537:15552   */\n      mstore\n        /* \"#utility.yul\":15571:15575   */\n      0x24\n        /* \"#utility.yul\":15568:15569   */\n      0x00\n        /* \"#utility.yul\":15561:15576   */\n      revert\n        /* \"#utility.yul\":15588:15759   */\n    tag_220:\n        /* \"#utility.yul\":15728:15751   */\n      0x4e6965206d612074616b6965676f207477656574750000000000000000000000\n        /* \"#utility.yul\":15724:15725   */\n      0x00\n        /* \"#utility.yul\":15716:15722   */\n      dup3\n        /* \"#utility.yul\":15712:15726   */\n      add\n        /* \"#utility.yul\":15705:15752   */\n      mstore\n        /* \"#utility.yul\":15588:15759   */\n      pop\n      jump\t// out\n        /* \"#utility.yul\":15765:16131   */\n    tag_221:\n        /* \"#utility.yul\":15907:15910   */\n      0x00\n        /* \"#utility.yul\":15928:15995   */\n      tag_395\n        /* \"#utility.yul\":15992:15994   */\n      0x15\n        /* \"#utility.yul\":15987:15990   */\n      dup4\n        /* \"#utility.yul\":15928:15995   */\n      tag_189\n      jump\t// in\n    tag_395:\n        /* \"#utility.yul\":15921:15995   */\n      swap2\n      pop\n        /* \"#utility.yul\":16004:16097   */\n      tag_396\n        /* \"#utility.yul\":16093:16096   */\n      dup3\n        /* \"#utility.yul\":16004:16097   */\n      tag_220\n      jump\t// in\n    tag_396:\n        /* \"#utility.yul\":16122:16124   */\n      0x20\n        /* \"#utility.yul\":16117:16120   */\n      dup3\n        /* \"#utility.yul\":16113:16125   */\n      add\n        /* \"#utility.yul\":16106:16125   */\n      swap1\n      pop\n        /* \"#utility.yul\":15765:16131   */\n      swap2\n      swap1\n      pop\n      jump\t// out\n        /* \"#utility.yul\":16137:16556   */\n    tag_100:\n        /* \"#utility.yul\":16303:16307   */\n      0x00\n        /* \"#utility.yul\":16341:16343   */\n      0x20\n        /* \"#utility.yul\":16330:16339   */\n      dup3\n        /* \"#utility.yul\":16326:16344   */\n      add\n        /* \"#utility.yul\":16318:16344   */\n      swap1\n      pop\n        /* \"#utility.yul\":16390:16399   */\n      dup2\n        /* \"#utility.yul\":16384:16388   */\n      dup2\n        /* \"#utility.yul\":16380:16400   */\n      sub\n        /* \"#utility.yul\":16376:16377   */\n      0x00\n        /* \"#utility.yul\":16365:16374   */\n      dup4\n        /* \"#utility.yul\":16361:16378   */\n      add\n        /* \"#utility.yul\":16354:16401   */\n      mstore\n        /* \"#utility.yul\":16418:16549   */\n      tag_398\n        /* \"#utility.yul\":16544:16548   */\n      dup2\n        /* \"#utility.yul\":16418:16549   */\n      tag_221\n      jump\t// in\n    tag_398:\n        /* \"#utility.yul\":16410:16549   */\n      swap1\n      pop\n        /* \"#utility.yul\":16137:16556   */\n      swap2\n      swap1\n      pop\n      jump\t// out\n        /* \"#utility.yul\":16562:16734   */\n    tag_222:\n        /* \"#utility.yul\":16702:16726   */\n      0x4e6965206d6f7a65737a207573756e6163206c696b6500000000000000000000\n        /* \"#utility.yul\":16698:16699   */\n      0x00\n        /* \"#utility.yul\":16690:16696   */\n      dup3\n        /* \"#utility.yul\":16686:16700   */\n      add\n        /* \"#utility.yul\":16679:16727   */\n      mstore\n        /* \"#utility.yul\":16562:16734   */\n      pop\n      jump\t// out\n        /* \"#utility.yul\":16740:17106   */\n    tag_223:\n        /* \"#utility.yul\":16882:16885   */\n      0x00\n        /* \"#utility.yul\":16903:16970   */\n      tag_401\n        /* \"#utility.yul\":16967:16969   */\n      0x16\n        /* \"#utility.yul\":16962:16965   */\n      dup4\n        /* \"#utility.yul\":16903:16970   */\n      tag_189\n      jump\t// in\n    tag_401:\n        /* \"#utility.yul\":16896:16970   */\n      swap2\n      pop\n        /* \"#utility.yul\":16979:17072   */\n      tag_402\n        /* \"#utility.yul\":17068:17071   */\n      dup3\n        /* \"#utility.yul\":16979:17072   */\n      tag_222\n      jump\t// in\n    tag_402:\n        /* \"#utility.yul\":17097:17099   */\n      0x20\n        /* \"#utility.yul\":17092:17095   */\n      dup3\n        /* \"#utility.yul\":17088:17100   */\n      add\n        /* \"#utility.yul\":17081:17100   */\n      swap1\n      pop\n        /* \"#utility.yul\":16740:17106   */\n      swap2\n      swap1\n      pop\n      jump\t// out\n        /* \"#utility.yul\":17112:17531   */\n    tag_106:\n        /* \"#utility.yul\":17278:17282   */\n      0x00\n        /* \"#utility.yul\":17316:17318   */\n      0x20\n        /* \"#utility.yul\":17305:17314   */\n      dup3\n        /* \"#utility.yul\":17301:17319   */\n      add\n        /* \"#utility.yul\":17293:17319   */\n      swap1\n      pop\n        /* \"#utility.yul\":17365:17374   */\n      dup2\n        /* \"#utility.yul\":17359:17363   */\n      dup2\n        /* \"#utility.yul\":17355:17375   */\n      sub\n        /* \"#utility.yul\":17351:17352   */\n      0x00\n        /* \"#utility.yul\":17340:17349   */\n      dup4\n        /* \"#utility.yul\":17336:17353   */\n      add\n        /* \"#utility.yul\":17329:17376   */\n      mstore\n        /* \"#utility.yul\":17393:17524   */\n      tag_404\n        /* \"#utility.yul\":17519:17523   */\n      dup2\n        /* \"#utility.yul\":17393:17524   */\n      tag_223\n      jump\t// in\n    tag_404:\n        /* \"#utility.yul\":17385:17524   */\n      swap1\n      pop\n        /* \"#utility.yul\":17112:17531   */\n      swap2\n      swap1\n      pop\n      jump\t// out\n        /* \"#utility.yul\":17537:17717   */\n    tag_224:\n        /* \"#utility.yul\":17585:17662   */\n      0x4e487b7100000000000000000000000000000000000000000000000000000000\n        /* \"#utility.yul\":17582:17583   */\n      0x00\n        /* \"#utility.yul\":17575:17663   */\n      mstore\n        /* \"#utility.yul\":17682:17686   */\n      0x11\n        /* \"#utility.yul\":17679:17680   */\n      0x04\n        /* \"#utility.yul\":17672:17687   */\n      mstore\n        /* \"#utility.yul\":17706:17710   */\n      0x24\n        /* \"#utility.yul\":17703:17704   */\n      0x00\n        /* \"#utility.yul\":17696:17711   */\n      revert\n        /* \"#utility.yul\":17723:17894   */\n    tag_111:\n        /* \"#utility.yul\":17762:17765   */\n      0x00\n        /* \"#utility.yul\":17785:17809   */\n      tag_407\n        /* \"#utility.yul\":17803:17808   */\n      dup3\n        /* \"#utility.yul\":17785:17809   */\n      tag_184\n      jump\t// in\n    tag_407:\n        /* \"#utility.yul\":17776:17809   */\n      swap2\n      pop\n        /* \"#utility.yul\":17831:17835   */\n      0x00\n        /* \"#utility.yul\":17824:17829   */\n      dup3\n        /* \"#utility.yul\":17821:17836   */\n      sub\n        /* \"#utility.yul\":17818:17859   */\n      tag_408\n      jumpi\n        /* \"#utility.yul\":17839:17857   */\n      tag_409\n      tag_224\n      jump\t// in\n    tag_409:\n        /* \"#utility.yul\":17818:17859   */\n    tag_408:\n        /* \"#utility.yul\":17886:17887   */\n      0x01\n        /* \"#utility.yul\":17879:17884   */\n      dup3\n        /* \"#utility.yul\":17875:17888   */\n      sub\n        /* \"#utility.yul\":17868:17888   */\n      swap1\n      pop\n        /* \"#utility.yul\":17723:17894   */\n      swap2\n      swap1\n      pop\n      jump\t// out\n        /* \"#utility.yul\":17900:18453   */\n    tag_116:\n        /* \"#utility.yul\":18077:18081   */\n      0x00\n        /* \"#utility.yul\":18115:18118   */\n      0x80\n        /* \"#utility.yul\":18104:18113   */\n      dup3\n        /* \"#utility.yul\":18100:18119   */\n      add\n        /* \"#utility.yul\":18092:18119   */\n      swap1\n      pop\n        /* \"#utility.yul\":18129:18200   */\n      tag_411\n        /* \"#utility.yul\":18197:18198   */\n      0x00\n        /* \"#utility.yul\":18186:18195   */\n      dup4\n        /* \"#utility.yul\":18182:18199   */\n      add\n        /* \"#utility.yul\":18173:18179   */\n      dup8\n        /* \"#utility.yul\":18129:18200   */\n      tag_187\n      jump\t// in\n    tag_411:\n        /* \"#utility.yul\":18210:18282   */\n      tag_412\n        /* \"#utility.yul\":18278:18280   */\n      0x20\n        /* \"#utility.yul\":18267:18276   */\n      dup4\n        /* \"#utility.yul\":18263:18281   */\n      add\n        /* \"#utility.yul\":18254:18260   */\n      dup7\n        /* \"#utility.yul\":18210:18282   */\n      tag_187\n      jump\t// in\n    tag_412:\n        /* \"#utility.yul\":18292:18364   */\n      tag_413\n        /* \"#utility.yul\":18360:18362   */\n      0x40\n        /* \"#utility.yul\":18349:18358   */\n      dup4\n        /* \"#utility.yul\":18345:18363   */\n      add\n        /* \"#utility.yul\":18336:18342   */\n      dup6\n        /* \"#utility.yul\":18292:18364   */\n      tag_193\n      jump\t// in\n    tag_413:\n        /* \"#utility.yul\":18374:18446   */\n      tag_414\n        /* \"#utility.yul\":18442:18444   */\n      0x60\n        /* \"#utility.yul\":18431:18440   */\n      dup4\n        /* \"#utility.yul\":18427:18445   */\n      add\n        /* \"#utility.yul\":18418:18424   */\n      dup5\n        /* \"#utility.yul\":18374:18446   */\n      tag_193\n      jump\t// in\n    tag_414:\n        /* \"#utility.yul\":17900:18453   */\n      swap6\n      swap5\n      pop\n      pop\n      pop\n      pop\n      pop\n      jump\t// out\n        /* \"#utility.yul\":18459:18624   */\n    tag_225:\n        /* \"#utility.yul\":18599:18616   */\n      0x4d65737361676520746f206c6f6e670000000000000000000000000000000000\n        /* \"#utility.yul\":18595:18596   */\n      0x00\n        /* \"#utility.yul\":18587:18593   */\n      dup3\n        /* \"#utility.yul\":18583:18597   */\n      add\n        /* \"#utility.yul\":18576:18617   */\n      mstore\n        /* \"#utility.yul\":18459:18624   */\n      pop\n      jump\t// out\n        /* \"#utility.yul\":18630:18996   */\n    tag_226:\n        /* \"#utility.yul\":18772:18775   */\n      0x00\n        /* \"#utility.yul\":18793:18860   */\n      tag_417\n        /* \"#utility.yul\":18857:18859   */\n      0x0f\n        /* \"#utility.yul\":18852:18855   */\n      dup4\n        /* \"#utility.yul\":18793:18860   */\n      tag_189\n      jump\t// in\n    tag_417:\n        /* \"#utility.yul\":18786:18860   */\n      swap2\n      pop\n        /* \"#utility.yul\":18869:18962   */\n      tag_418\n        /* \"#utility.yul\":18958:18961   */\n      dup3\n        /* \"#utility.yul\":18869:18962   */\n      tag_225\n      jump\t// in\n    tag_418:\n        /* \"#utility.yul\":18987:18989   */\n      0x20\n        /* \"#utility.yul\":18982:18985   */\n      dup3\n        /* \"#utility.yul\":18978:18990   */\n      add\n        /* \"#utility.yul\":18971:18990   */\n      swap1\n      pop\n        /* \"#utility.yul\":18630:18996   */\n      swap2\n      swap1\n      pop\n      jump\t// out\n        /* \"#utility.yul\":19002:19421   */\n    tag_120:\n        /* \"#utility.yul\":19168:19172   */\n      0x00\n        /* \"#utility.yul\":19206:19208   */\n      0x20\n        /* \"#utility.yul\":19195:19204   */\n      dup3\n        /* \"#utility.yul\":19191:19209   */\n      add\n        /* \"#utility.yul\":19183:19209   */\n      swap1\n      pop\n        /* \"#utility.yul\":19255:19264   */\n      dup2\n        /* \"#utility.yul\":19249:19253   */\n      dup2\n        /* \"#utility.yul\":19245:19265   */\n      sub\n        /* \"#utility.yul\":19241:19242   */\n      0x00\n        /* \"#utility.yul\":19230:19239   */\n      dup4\n        /* \"#utility.yul\":19226:19243   */\n      add\n        /* \"#utility.yul\":19219:19266   */\n      mstore\n        /* \"#utility.yul\":19283:19414   */\n      tag_420\n        /* \"#utility.yul\":19409:19413   */\n      dup2\n        /* \"#utility.yul\":19283:19414   */\n      tag_226\n      jump\t// in\n    tag_420:\n        /* \"#utility.yul\":19275:19414   */\n      swap1\n      pop\n        /* \"#utility.yul\":19002:19421   */\n      swap2\n      swap1\n      pop\n      jump\t// out\n        /* \"#utility.yul\":19427:19568   */\n    tag_227:\n        /* \"#utility.yul\":19476:19480   */\n      0x00\n        /* \"#utility.yul\":19499:19502   */\n      dup2\n        /* \"#utility.yul\":19491:19502   */\n      swap1\n      pop\n        /* \"#utility.yul\":19522:19525   */\n      dup2\n        /* \"#utility.yul\":19519:19520   */\n      0x00\n        /* \"#utility.yul\":19512:19526   */\n      mstore\n        /* \"#utility.yul\":19556:19560   */\n      0x20\n        /* \"#utility.yul\":19553:19554   */\n      0x00\n        /* \"#utility.yul\":19543:19561   */\n      keccak256\n        /* \"#utility.yul\":19535:19561   */\n      swap1\n      pop\n        /* \"#utility.yul\":19427:19568   */\n      swap2\n      swap1\n      pop\n      jump\t// out\n        /* \"#utility.yul\":19574:19667   */\n    tag_228:\n        /* \"#utility.yul\":19611:19617   */\n      0x00\n        /* \"#utility.yul\":19658:19660   */\n      0x20\n        /* \"#utility.yul\":19653:19655   */\n      0x1f\n        /* \"#utility.yul\":19646:19651   */\n      dup4\n        /* \"#utility.yul\":19642:19656   */\n      add\n        /* \"#utility.yul\":19638:19661   */\n      div\n        /* \"#utility.yul\":19628:19661   */\n      swap1\n      pop\n        /* \"#utility.yul\":19574:19667   */\n      swap2\n      swap1\n      pop\n      jump\t// out\n        /* \"#utility.yul\":19673:19780   */\n    tag_229:\n        /* \"#utility.yul\":19717:19725   */\n      0x00\n        /* \"#utility.yul\":19767:19772   */\n      dup3\n        /* \"#utility.yul\":19761:19765   */\n      dup3\n        /* \"#utility.yul\":19757:19773   */\n      shl\n        /* \"#utility.yul\":19736:19773   */\n      swap1\n      pop\n        /* \"#utility.yul\":19673:19780   */\n      swap3\n      swap2\n      pop\n      pop\n      jump\t// out\n        /* \"#utility.yul\":19786:20179   */\n    tag_230:\n        /* \"#utility.yul\":19855:19861   */\n      0x00\n        /* \"#utility.yul\":19905:19906   */\n      0x08\n        /* \"#utility.yul\":19893:19903   */\n      dup4\n        /* \"#utility.yul\":19889:19907   */\n      mul\n        /* \"#utility.yul\":19928:20025   */\n      tag_425\n        /* \"#utility.yul\":19958:20024   */\n      0xffffffffffffffffffffffffffffffffffffffffffffffffffffffffffffffff\n        /* \"#utility.yul\":19947:19956   */\n      dup3\n        /* \"#utility.yul\":19928:20025   */\n      tag_229\n      jump\t// in\n    tag_425:\n        /* \"#utility.yul\":20046:20085   */\n      tag_426\n        /* \"#utility.yul\":20076:20084   */\n      dup7\n        /* \"#utility.yul\":20065:20074   */\n      dup4\n        /* \"#utility.yul\":20046:20085   */\n      tag_229\n      jump\t// in\n    tag_426:\n        /* \"#utility.yul\":20034:20085   */\n      swap6\n      pop\n        /* \"#utility.yul\":20118:20122   */\n      dup1\n        /* \"#utility.yul\":20114:20123   */\n      not\n        /* \"#utility.yul\":20107:20112   */\n      dup5\n        /* \"#utility.yul\":20103:20124   */\n      and\n        /* \"#utility.yul\":20094:20124   */\n      swap4\n      pop\n        /* \"#utility.yul\":20167:20171   */\n      dup1\n        /* \"#utility.yul\":20157:20165   */\n      dup7\n        /* \"#utility.yul\":20153:20172   */\n      and\n        /* \"#utility.yul\":20146:20151   */\n      dup5\n        /* \"#utility.yul\":20143:20173   */\n      or\n        /* \"#utility.yul\":20133:20173   */\n      swap3\n      pop\n        /* \"#utility.yul\":19862:20179   */\n      pop\n      pop\n        /* \"#utility.yul\":19786:20179   */\n      swap4\n      swap3\n      pop\n      pop\n      pop\n      jump\t// out\n        /* \"#utility.yul\":20185:20245   */\n    tag_231:\n        /* \"#utility.yul\":20213:20216   */\n      0x00\n        /* \"#utility.yul\":20234:20239   */\n      dup2\n        /* \"#utility.yul\":20227:20239   */\n      swap1\n      pop\n        /* \"#utility.yul\":20185:20245   */\n      swap2\n      swap1\n      pop\n      jump\t// out\n        /* \"#utility.yul\":20251:20393   */\n    tag_232:\n        /* \"#utility.yul\":20301:20310   */\n      0x00\n        /* \"#utility.yul\":20334:20387   */\n      tag_429\n        /* \"#utility.yul\":20352:20386   */\n      tag_430\n        /* \"#utility.yul\":20361:20385   */\n      tag_431\n        /* \"#utility.yul\":20379:20384   */\n      dup5\n        /* \"#utility.yul\":20361:20385   */\n      tag_184\n      jump\t// in\n    tag_431:\n        /* \"#utility.yul\":20352:20386   */\n      tag_231\n      jump\t// in\n    tag_430:\n        /* \"#utility.yul\":20334:20387   */\n      tag_184\n      jump\t// in\n    tag_429:\n        /* \"#utility.yul\":20321:20387   */\n      swap1\n      pop\n        /* \"#utility.yul\":20251:20393   */\n      swap2\n      swap1\n      pop\n      jump\t// out\n        /* \"#utility.yul\":20399:20474   */\n    tag_233:\n        /* \"#utility.yul\":20442:20445   */\n      0x00\n        /* \"#utility.yul\":20463:20468   */\n      dup2\n        /* \"#utility.yul\":20456:20468   */\n      swap1\n      pop\n        /* \"#utility.yul\":20399:20474   */\n      swap2\n      swap1\n      pop\n      jump\t// out\n        /* \"#utility.yul\":20480:20749   */\n    tag_234:\n        /* \"#utility.yul\":20590:20629   */\n      tag_434\n        /* \"#utility.yul\":20621:20628   */\n      dup4\n        /* \"#utility.yul\":20590:20629   */\n      tag_232\n      jump\t// in\n    tag_434:\n        /* \"#utility.yul\":20651:20742   */\n      tag_435\n        /* \"#utility.yul\":20700:20741   */\n      tag_436\n        /* \"#utility.yul\":20724:20740   */\n      dup3\n        /* \"#utility.yul\":20700:20741   */\n      tag_233\n      jump\t// in\n    tag_436:\n        /* \"#utility.yul\":20692:20698   */\n      dup5\n        /* \"#utility.yul\":20685:20689   */\n      dup5\n        /* \"#utility.yul\":20679:20690   */\n      sload\n        /* \"#utility.yul\":20651:20742   */\n      tag_230\n      jump\t// in\n    tag_435:\n        /* \"#utility.yul\":20645:20649   */\n      dup3\n        /* \"#utility.yul\":20638:20743   */\n      sstore\n        /* \"#utility.yul\":20556:20749   */\n      pop\n        /* \"#utility.yul\":20480:20749   */\n      pop\n      pop\n      pop\n      jump\t// out\n        /* \"#utility.yul\":20755:20828   */\n    tag_235:\n        /* \"#utility.yul\":20800:20803   */\n      0x00\n        /* \"#utility.yul\":20755:20828   */\n      swap1\n      jump\t// out\n        /* \"#utility.yul\":20834:21023   */\n    tag_236:\n        /* \"#utility.yul\":20911:20943   */\n      tag_439\n      tag_235\n      jump\t// in\n    tag_439:\n        /* \"#utility.yul\":20952:21017   */\n      tag_440\n        /* \"#utility.yul\":21010:21016   */\n      dup2\n        /* \"#utility.yul\":21002:21008   */\n      dup5\n        /* \"#utility.yul\":20996:21000   */\n      dup5\n        /* \"#utility.yul\":20952:21017   */\n      tag_234\n      jump\t// in\n    tag_440:\n        /* \"#utility.yul\":20887:21023   */\n      pop\n        /* \"#utility.yul\":20834:21023   */\n      pop\n      pop\n      jump\t// out\n        /* \"#utility.yul\":21029:21215   */\n    tag_237:\n        /* \"#utility.yul\":21089:21209   */\n    tag_442:\n        /* \"#utility.yul\":21106:21109   */\n      dup2\n        /* \"#utility.yul\":21099:21104   */\n      dup2\n        /* \"#utility.yul\":21096:21110   */\n      lt\n        /* \"#utility.yul\":21089:21209   */\n      iszero\n      tag_444\n      jumpi\n        /* \"#utility.yul\":21160:21199   */\n      tag_445\n        /* \"#utility.yul\":21197:21198   */\n      0x00\n        /* \"#utility.yul\":21190:21195   */\n      dup3\n        /* \"#utility.yul\":21160:21199   */\n      tag_236\n      jump\t// in\n    tag_445:\n        /* \"#utility.yul\":21133:21134   */\n      0x01\n        /* \"#utility.yul\":21126:21131   */\n      dup2\n        /* \"#utility.yul\":21122:21135   */\n      add\n        /* \"#utility.yul\":21113:21135   */\n      swap1\n      pop\n        /* \"#utility.yul\":21089:21209   */\n      jump(tag_442)\n    tag_444:\n        /* \"#utility.yul\":21029:21215   */\n      pop\n      pop\n      jump\t// out\n        /* \"#utility.yul\":21221:21764   */\n    tag_238:\n        /* \"#utility.yul\":21322:21324   */\n      0x1f\n        /* \"#utility.yul\":21317:21320   */\n      dup3\n        /* \"#utility.yul\":21314:21325   */\n      gt\n        /* \"#utility.yul\":21311:21757   */\n      iszero\n      tag_447\n      jumpi\n        /* \"#utility.yul\":21356:21394   */\n      tag_448\n        /* \"#utility.yul\":21388:21393   */\n      dup2\n        /* \"#utility.yul\":21356:21394   */\n      tag_227\n      jump\t// in\n    tag_448:\n        /* \"#utility.yul\":21440:21469   */\n      tag_449\n        /* \"#utility.yul\":21458:21468   */\n      dup5\n        /* \"#utility.yul\":21440:21469   */\n      tag_228\n      jump\t// in\n    tag_449:\n        /* \"#utility.yul\":21430:21438   */\n      dup2\n        /* \"#utility.yul\":21426:21470   */\n      add\n        /* \"#utility.yul\":21623:21625   */\n      0x20\n        /* \"#utility.yul\":21611:21621   */\n      dup6\n        /* \"#utility.yul\":21608:21626   */\n      lt\n        /* \"#utility.yul\":21605:21654   */\n      iszero\n      tag_450\n      jumpi\n        /* \"#utility.yul\":21644:21652   */\n      dup2\n        /* \"#utility.yul\":21629:21652   */\n      swap1\n      pop\n        /* \"#utility.yul\":21605:21654   */\n    tag_450:\n        /* \"#utility.yul\":21667:21747   */\n      tag_451\n        /* \"#utility.yul\":21723:21745   */\n      tag_452\n        /* \"#utility.yul\":21741:21744   */\n      dup6\n        /* \"#utility.yul\":21723:21745   */\n      tag_228\n      jump\t// in\n    tag_452:\n        /* \"#utility.yul\":21713:21721   */\n      dup4\n        /* \"#utility.yul\":21709:21746   */\n      add\n        /* \"#utility.yul\":21696:21707   */\n      dup3\n        /* \"#utility.yul\":21667:21747   */\n      tag_237\n      jump\t// in\n    tag_451:\n        /* \"#utility.yul\":21326:21757   */\n      pop\n      pop\n        /* \"#utility.yul\":21311:21757   */\n    tag_447:\n        /* \"#utility.yul\":21221:21764   */\n      pop\n      pop\n      pop\n      jump\t// out\n        /* \"#utility.yul\":21770:21887   */\n    tag_239:\n        /* \"#utility.yul\":21824:21832   */\n      0x00\n        /* \"#utility.yul\":21874:21879   */\n      dup3\n        /* \"#utility.yul\":21868:21872   */\n      dup3\n        /* \"#utility.yul\":21864:21880   */\n      shr\n        /* \"#utility.yul\":21843:21880   */\n      swap1\n      pop\n        /* \"#utility.yul\":21770:21887   */\n      swap3\n      swap2\n      pop\n      pop\n      jump\t// out\n        /* \"#utility.yul\":21893:22062   */\n    tag_240:\n        /* \"#utility.yul\":21937:21943   */\n      0x00\n        /* \"#utility.yul\":21970:22021   */\n      tag_455\n        /* \"#utility.yul\":22018:22019   */\n      0x00\n        /* \"#utility.yul\":22014:22020   */\n      not\n        /* \"#utility.yul\":22006:22011   */\n      dup5\n        /* \"#utility.yul\":22003:22004   */\n      0x08\n        /* \"#utility.yul\":21999:22012   */\n      mul\n        /* \"#utility.yul\":21970:22021   */\n      tag_239\n      jump\t// in\n    tag_455:\n        /* \"#utility.yul\":21966:22022   */\n      not\n        /* \"#utility.yul\":22051:22055   */\n      dup1\n        /* \"#utility.yul\":22045:22049   */\n      dup4\n        /* \"#utility.yul\":22041:22056   */\n      and\n        /* \"#utility.yul\":22031:22056   */\n      swap2\n      pop\n        /* \"#utility.yul\":21944:22062   */\n      pop\n        /* \"#utility.yul\":21893:22062   */\n      swap3\n      swap2\n      pop\n      pop\n      jump\t// out\n        /* \"#utility.yul\":22067:22362   */\n    tag_241:\n        /* \"#utility.yul\":22143:22147   */\n      0x00\n        /* \"#utility.yul\":22289:22318   */\n      tag_457\n        /* \"#utility.yul\":22314:22317   */\n      dup4\n        /* \"#utility.yul\":22308:22312   */\n      dup4\n        /* \"#utility.yul\":22289:22318   */\n      tag_240\n      jump\t// in\n    tag_457:\n        /* \"#utility.yul\":22281:22318   */\n      swap2\n      pop\n        /* \"#utility.yul\":22351:22354   */\n      dup3\n        /* \"#utility.yul\":22348:22349   */\n      0x02\n        /* \"#utility.yul\":22344:22355   */\n      mul\n        /* \"#utility.yul\":22338:22342   */\n      dup3\n        /* \"#utility.yul\":22335:22356   */\n      or\n        /* \"#utility.yul\":22327:22356   */\n      swap1\n      pop\n        /* \"#utility.yul\":22067:22362   */\n      swap3\n      swap2\n      pop\n      pop\n      jump\t// out\n        /* \"#utility.yul\":22367:23762   */\n    tag_123:\n        /* \"#utility.yul\":22484:22521   */\n      tag_459\n        /* \"#utility.yul\":22517:22520   */\n      dup3\n        /* \"#utility.yul\":22484:22521   */\n      tag_188\n      jump\t// in\n    tag_459:\n        /* \"#utility.yul\":22586:22604   */\n      0xffffffffffffffff\n        /* \"#utility.yul\":22578:22584   */\n      dup2\n        /* \"#utility.yul\":22575:22605   */\n      gt\n        /* \"#utility.yul\":22572:22628   */\n      iszero\n      tag_460\n      jumpi\n        /* \"#utility.yul\":22608:22626   */\n      tag_461\n      tag_211\n      jump\t// in\n    tag_461:\n        /* \"#utility.yul\":22572:22628   */\n    tag_460:\n        /* \"#utility.yul\":22652:22690   */\n      tag_462\n        /* \"#utility.yul\":22684:22688   */\n      dup3\n        /* \"#utility.yul\":22678:22689   */\n      sload\n        /* \"#utility.yul\":22652:22690   */\n      tag_70\n      jump\t// in\n    tag_462:\n        /* \"#utility.yul\":22737:22804   */\n      tag_463\n        /* \"#utility.yul\":22797:22803   */\n      dup3\n        /* \"#utility.yul\":22789:22795   */\n      dup3\n        /* \"#utility.yul\":22783:22787   */\n      dup6\n        /* \"#utility.yul\":22737:22804   */\n      tag_238\n      jump\t// in\n    tag_463:\n        /* \"#utility.yul\":22831:22832   */\n      0x00\n        /* \"#utility.yul\":22855:22859   */\n      0x20\n        /* \"#utility.yul\":22842:22859   */\n      swap1\n      pop\n        /* \"#utility.yul\":22887:22889   */\n      0x1f\n        /* \"#utility.yul\":22879:22885   */\n      dup4\n        /* \"#utility.yul\":22876:22890   */\n      gt\n        /* \"#utility.yul\":22904:22905   */\n      0x01\n        /* \"#utility.yul\":22899:23517   */\n      dup2\n      eq\n      tag_465\n      jumpi\n        /* \"#utility.yul\":23561:23562   */\n      0x00\n        /* \"#utility.yul\":23578:23584   */\n      dup5\n        /* \"#utility.yul\":23575:23652   */\n      iszero\n      tag_466\n      jumpi\n        /* \"#utility.yul\":23627:23636   */\n      dup3\n        /* \"#utility.yul\":23622:23625   */\n      dup8\n        /* \"#utility.yul\":23618:23637   */\n      add\n        /* \"#utility.yul\":23612:23638   */\n      mload\n        /* \"#utility.yul\":23603:23638   */\n      swap1\n      pop\n        /* \"#utility.yul\":23575:23652   */\n    tag_466:\n        /* \"#utility.yul\":23678:23745   */\n      tag_467\n        /* \"#utility.yul\":23738:23744   */\n      dup6\n        /* \"#utility.yul\":23731:23736   */\n      dup3\n        /* \"#utility.yul\":23678:23745   */\n      tag_241\n      jump\t// in\n    tag_467:\n        /* \"#utility.yul\":23672:23676   */\n      dup7\n        /* \"#utility.yul\":23665:23746   */\n      sstore\n        /* \"#utility.yul\":23534:23756   */\n      pop\n        /* \"#utility.yul\":22869:23756   */\n      jump(tag_464)\n        /* \"#utility.yul\":22899:23517   */\n    tag_465:\n        /* \"#utility.yul\":22951:22955   */\n      0x1f\n        /* \"#utility.yul\":22947:22956   */\n      not\n        /* \"#utility.yul\":22939:22945   */\n      dup5\n        /* \"#utility.yul\":22935:22957   */\n      and\n        /* \"#utility.yul\":22985:23022   */\n      tag_468\n        /* \"#utility.yul\":23017:23021   */\n      dup7\n        /* \"#utility.yul\":22985:23022   */\n      tag_227\n      jump\t// in\n    tag_468:\n        /* \"#utility.yul\":23044:23045   */\n      0x00\n        /* \"#utility.yul\":23058:23266   */\n    tag_469:\n        /* \"#utility.yul\":23072:23079   */\n      dup3\n        /* \"#utility.yul\":23069:23070   */\n      dup2\n        /* \"#utility.yul\":23066:23080   */\n      lt\n        /* \"#utility.yul\":23058:23266   */\n      iszero\n      tag_471\n      jumpi\n        /* \"#utility.yul\":23151:23160   */\n      dup5\n        /* \"#utility.yul\":23146:23149   */\n      dup10\n        /* \"#utility.yul\":23142:23161   */\n      add\n        /* \"#utility.yul\":23136:23162   */\n      mload\n        /* \"#utility.yul\":23128:23134   */\n      dup3\n        /* \"#utility.yul\":23121:23163   */\n      sstore\n        /* \"#utility.yul\":23202:23203   */\n      0x01\n        /* \"#utility.yul\":23194:23200   */\n      dup3\n        /* \"#utility.yul\":23190:23204   */\n      add\n        /* \"#utility.yul\":23180:23204   */\n      swap2\n      pop\n        /* \"#utility.yul\":23249:23251   */\n      0x20\n        /* \"#utility.yul\":23238:23247   */\n      dup6\n        /* \"#utility.yul\":23234:23252   */\n      add\n        /* \"#utility.yul\":23221:23252   */\n      swap5\n      pop\n        /* \"#utility.yul\":23095:23099   */\n      0x20\n        /* \"#utility.yul\":23092:23093   */\n      dup2\n        /* \"#utility.yul\":23088:23100   */\n      add\n        /* \"#utility.yul\":23083:23100   */\n      swap1\n      pop\n        /* \"#utility.yul\":23058:23266   */\n      jump(tag_469)\n    tag_471:\n        /* \"#utility.yul\":23294:23300   */\n      dup7\n        /* \"#utility.yul\":23285:23292   */\n      dup4\n        /* \"#utility.yul\":23282:23301   */\n      lt\n        /* \"#utility.yul\":23279:23458   */\n      iszero\n      tag_472\n      jumpi\n        /* \"#utility.yul\":23352:23361   */\n      dup5\n        /* \"#utility.yul\":23347:23350   */\n      dup10\n        /* \"#utility.yul\":23343:23362   */\n      add\n        /* \"#utility.yul\":23337:23363   */\n      mload\n        /* \"#utility.yul\":23395:23443   */\n      tag_473\n        /* \"#utility.yul\":23437:23441   */\n      0x1f\n        /* \"#utility.yul\":23429:23435   */\n      dup10\n        /* \"#utility.yul\":23425:23442   */\n      and\n        /* \"#utility.yul\":23414:23423   */\n      dup3\n        /* \"#utility.yul\":23395:23443   */\n      tag_240\n      jump\t// in\n    tag_473:\n        /* \"#utility.yul\":23387:23393   */\n      dup4\n        /* \"#utility.yul\":23380:23444   */\n      sstore\n        /* \"#utility.yul\":23302:23458   */\n      pop\n        /* \"#utility.yul\":23279:23458   */\n    tag_472:\n        /* \"#utility.yul\":23504:23505   */\n      0x01\n        /* \"#utility.yul\":23500:23501   */\n      0x02\n        /* \"#utility.yul\":23492:23498   */\n      dup9\n        /* \"#utility.yul\":23488:23502   */\n      mul\n        /* \"#utility.yul\":23484:23506   */\n      add\n        /* \"#utility.yul\":23478:23482   */\n      dup9\n        /* \"#utility.yul\":23471:23507   */\n      sstore\n        /* \"#utility.yul\":22906:23517   */\n      pop\n      pop\n      pop\n        /* \"#utility.yul\":22869:23756   */\n    tag_464:\n      pop\n        /* \"#utility.yul\":22459:23762   */\n      pop\n      pop\n      pop\n        /* \"#utility.yul\":22367:23762   */\n      pop\n      pop\n      jump\t// out\n        /* \"#utility.yul\":23768:24412   */\n    tag_125:\n        /* \"#utility.yul\":23965:23969   */\n      0x00\n        /* \"#utility.yul\":24003:24006   */\n      0x80\n        /* \"#utility.yul\":23992:24001   */\n      dup3\n        /* \"#utility.yul\":23988:24007   */\n      add\n        /* \"#utility.yul\":23980:24007   */\n      swap1\n      pop\n        /* \"#utility.yul\":24017:24088   */\n      tag_475\n        /* \"#utility.yul\":24085:24086   */\n      0x00\n        /* \"#utility.yul\":24074:24083   */\n      dup4\n        /* \"#utility.yul\":24070:24087   */\n      add\n        /* \"#utility.yul\":24061:24067   */\n      dup8\n        /* \"#utility.yul\":24017:24088   */\n      tag_193\n      jump\t// in\n    tag_475:\n        /* \"#utility.yul\":24098:24170   */\n      tag_476\n        /* \"#utility.yul\":24166:24168   */\n      0x20\n        /* \"#utility.yul\":24155:24164   */\n      dup4\n        /* \"#utility.yul\":24151:24169   */\n      add\n        /* \"#utility.yul\":24142:24148   */\n      dup7\n        /* \"#utility.yul\":24098:24170   */\n      tag_187\n      jump\t// in\n    tag_476:\n        /* \"#utility.yul\":24217:24226   */\n      dup2\n        /* \"#utility.yul\":24211:24215   */\n      dup2\n        /* \"#utility.yul\":24207:24227   */\n      sub\n        /* \"#utility.yul\":24202:24204   */\n      0x40\n        /* \"#utility.yul\":24191:24200   */\n      dup4\n        /* \"#utility.yul\":24187:24205   */\n      add\n        /* \"#utility.yul\":24180:24228   */\n      mstore\n        /* \"#utility.yul\":24245:24323   */\n      tag_477\n        /* \"#utility.yul\":24318:24322   */\n      dup2\n        /* \"#utility.yul\":24309:24315   */\n      dup6\n        /* \"#utility.yul\":24245:24323   */\n      tag_192\n      jump\t// in\n    tag_477:\n        /* \"#utility.yul\":24237:24323   */\n      swap1\n      pop\n        /* \"#utility.yul\":24333:24405   */\n      tag_478\n        /* \"#utility.yul\":24401:24403   */\n      0x60\n        /* \"#utility.yul\":24390:24399   */\n      dup4\n        /* \"#utility.yul\":24386:24404   */\n      add\n        /* \"#utility.yul\":24377:24383   */\n      dup5\n        /* \"#utility.yul\":24333:24405   */\n      tag_193\n      jump\t// in\n    tag_478:\n        /* \"#utility.yul\":23768:24412   */\n      swap6\n      swap5\n      pop\n      pop\n      pop\n      pop\n      pop\n      jump\t// out\n        /* \"#utility.yul\":24418:24609   */\n    tag_134:\n        /* \"#utility.yul\":24458:24461   */\n      0x00\n        /* \"#utility.yul\":24477:24497   */\n      tag_480\n        /* \"#utility.yul\":24495:24496   */\n      dup3\n        /* \"#utility.yul\":24477:24497   */\n      tag_184\n      jump\t// in\n    tag_480:\n        /* \"#utility.yul\":24472:24497   */\n      swap2\n      pop\n        /* \"#utility.yul\":24511:24531   */\n      tag_481\n        /* \"#utility.yul\":24529:24530   */\n      dup4\n        /* \"#utility.yul\":24511:24531   */\n      tag_184\n      jump\t// in\n    tag_481:\n        /* \"#utility.yul\":24506:24531   */\n      swap3\n      pop\n        /* \"#utility.yul\":24554:24555   */\n      dup3\n        /* \"#utility.yul\":24551:24552   */\n      dup3\n        /* \"#utility.yul\":24547:24556   */\n      add\n        /* \"#utility.yul\":24540:24556   */\n      swap1\n      pop\n        /* \"#utility.yul\":24575:24578   */\n      dup1\n        /* \"#utility.yul\":24572:24573   */\n      dup3\n        /* \"#utility.yul\":24569:24579   */\n      gt\n        /* \"#utility.yul\":24566:24602   */\n      iszero\n      tag_482\n      jumpi\n        /* \"#utility.yul\":24582:24600   */\n      tag_483\n      tag_224\n      jump\t// in\n    tag_483:\n        /* \"#utility.yul\":24566:24602   */\n    tag_482:\n        /* \"#utility.yul\":24418:24609   */\n      swap3\n      swap2\n      pop\n      pop\n      jump\t// out\n        /* \"#utility.yul\":24615:24848   */\n    tag_163:\n        /* \"#utility.yul\":24654:24657   */\n      0x00\n        /* \"#utility.yul\":24677:24701   */\n      tag_485\n        /* \"#utility.yul\":24695:24700   */\n      dup3\n        /* \"#utility.yul\":24677:24701   */\n      tag_184\n      jump\t// in\n    tag_485:\n        /* \"#utility.yul\":24668:24701   */\n      swap2\n      pop\n        /* \"#utility.yul\":24723:24789   */\n      0xffffffffffffffffffffffffffffffffffffffffffffffffffffffffffffffff\n        /* \"#utility.yul\":24716:24721   */\n      dup3\n        /* \"#utility.yul\":24713:24790   */\n      sub\n        /* \"#utility.yul\":24710:24813   */\n      tag_486\n      jumpi\n        /* \"#utility.yul\":24793:24811   */\n      tag_487\n      tag_224\n      jump\t// in\n    tag_487:\n        /* \"#utility.yul\":24710:24813   */\n    tag_486:\n        /* \"#utility.yul\":24840:24841   */\n      0x01\n        /* \"#utility.yul\":24833:24838   */\n      dup3\n        /* \"#utility.yul\":24829:24842   */\n      add\n        /* \"#utility.yul\":24822:24842   */\n      swap1\n      pop\n        /* \"#utility.yul\":24615:24848   */\n      swap2\n      swap1\n      pop\n      jump\t// out\n\n    auxdata: 0xa2646970667358221220393fe75ec913d29c65e4f3b683697584a147f4aba0ef727e88c73fa57770d57a64736f6c634300081a0033\n}\n",
				"bytecode": {
					"linkReferences": {},
					"object": "60806040526101185f60146101000a81548161ffff021916908361ffff16021790555034801561002d575f80fd5b50335f73ffffffffffffffffffffffffffffffffffffffff168173ffffffffffffffffffffffffffffffffffffffff160361009f575f6040517f1e4fbdf700000000000000000000000000000000000000000000000000000000815260040161009691906101b4565b60405180910390fd5b6100ae816100b460201b60201c565b506101cd565b5f805f9054906101000a900473ffffffffffffffffffffffffffffffffffffffff169050815f806101000a81548173ffffffffffffffffffffffffffffffffffffffff021916908373ffffffffffffffffffffffffffffffffffffffff1602179055508173ffffffffffffffffffffffffffffffffffffffff168173ffffffffffffffffffffffffffffffffffffffff167f8be0079c531659141344cd1fd0a4f28419497f9722a3daafe3b4186f6b6457e060405160405180910390a35050565b5f73ffffffffffffffffffffffffffffffffffffffff82169050919050565b5f61019e82610175565b9050919050565b6101ae81610194565b82525050565b5f6020820190506101c75f8301846101a5565b92915050565b611c47806101da5f395ff3fe608060405234801561000f575f80fd5b50600436106100b2575f3560e01c80637c9cd2bc1161006f5780637c9cd2bc1461017a578063820785cc146101965780638da5cb5b146101c6578063c3ad5ecb146101e4578063f2fde38b14610214578063f65a8f4014610230576100b2565b806305a1b4a9146100b657806312e7ee1c146100ea57806358bfa4ab1461011a5780636eb1079714610136578063715018a6146101545780637a639e391461015e575b5f80fd5b6100d060048036038101906100cb919061105a565b61024c565b6040516100e1959493929190611126565b60405180910390f35b61010460048036038101906100ff919061117e565b61033d565b604051610111919061133d565b60405180910390f35b610134600480360381019061012f9190611394565b6104d8565b005b61013e6104ff565b60405161014b91906113ce565b60405180910390f35b61015c610512565b005b610178600480360381019061017391906113e7565b610525565b005b610194600480360381019061018f9190611551565b610777565b005b6101b060048036038101906101ab919061117e565b61097c565b6040516101bd9190611598565b60405180910390f35b6101ce610a58565b6040516101db91906115b1565b60405180910390f35b6101fe60048036038101906101f991906115ca565b610a7f565b60405161020b9190611668565b60405180910390f35b61022e6004803603810190610229919061117e565b610bf6565b005b61024a6004803603810190610245919061105a565b610c7a565b005b6001602052815f5260405f208181548110610265575f80fd5b905f5260205f2090600502015f9150915050805f015f9054906101000a900473ffffffffffffffffffffffffffffffffffffffff16908060010180546102aa906116b5565b80601f01602080910402602001604051908101604052809291908181526020018280546102d6906116b5565b80156103215780601f106102f857610100808354040283529160200191610321565b820191905f5260205f20905b81548152906001019060200180831161030457829003601f168201915b5050505050908060020154908060030154908060040154905085565b606060015f8373ffffffffffffffffffffffffffffffffffffffff1673ffffffffffffffffffffffffffffffffffffffff1681526020019081526020015f20805480602002602001604051908101604052809291908181526020015f905b828210156104cd578382905f5260205f2090600502016040518060a00160405290815f82015f9054906101000a900473ffffffffffffffffffffffffffffffffffffffff1673ffffffffffffffffffffffffffffffffffffffff1673ffffffffffffffffffffffffffffffffffffffff168152602001600182018054610420906116b5565b80601f016020809104026020016040519081016040528092919081815260200182805461044c906116b5565b80156104975780601f1061046e57610100808354040283529160200191610497565b820191905f5260205f20905b81548152906001019060200180831161047a57829003601f168201915b5050505050815260200160028201548152602001600382015481526020016004820154815250508152602001906001019061039b565b505050509050919050565b6104e0610e2c565b805f60146101000a81548161ffff021916908361ffff16021790555050565b5f60149054906101000a900461ffff1681565b61051a610e2c565b6105235f610eb3565b565b8160015f8373ffffffffffffffffffffffffffffffffffffffff1673ffffffffffffffffffffffffffffffffffffffff1681526020019081526020015f208381548110610575576105746116e5565b5b905f5260205f20906005020160040154146105c5576040517f08c379a00000000000000000000000000000000000000000000000000000000081526004016105bc9061175c565b60405180910390fd5b5f60015f8373ffffffffffffffffffffffffffffffffffffffff1673ffffffffffffffffffffffffffffffffffffffff1681526020019081526020015f208381548110610615576106146116e5565b5b905f5260205f2090600502016003015411610665576040517f08c379a000000000000000000000000000000000000000000000000000000000815260040161065c906117c4565b60405180910390fd5b60015f8273ffffffffffffffffffffffffffffffffffffffff1673ffffffffffffffffffffffffffffffffffffffff1681526020019081526020015f2082815481106106b4576106b36116e5565b5b905f5260205f2090600502016003015f8154809291906106d39061180f565b91905055507f762c2616349603ac16eba0de8e6141b79129a07ab63bd99e0a80b3a47171694333828460015f8673ffffffffffffffffffffffffffffffffffffffff1673ffffffffffffffffffffffffffffffffffffffff1681526020019081526020015f20868154811061074b5761074a6116e5565b5b905f5260205f2090600502016003015460405161076b9493929190611836565b60405180910390a15050565b5f60149054906101000a900461ffff1661ffff16815111156107ce576040517f08c379a00000000000000000000000000000000000000000000000000000000081526004016107c5906118c3565b60405180910390fd5b5f6040518060a001604052803373ffffffffffffffffffffffffffffffffffffffff1681526020018381526020014281526020015f815260200160015f3373ffffffffffffffffffffffffffffffffffffffff1673ffffffffffffffffffffffffffffffffffffffff1681526020019081526020015f2080549050815250905060015f3373ffffffffffffffffffffffffffffffffffffffff1673ffffffffffffffffffffffffffffffffffffffff1681526020019081526020015f2081908060018154018082558091505060019003905f5260205f2090600502015f909190919091505f820151815f015f6101000a81548173ffffffffffffffffffffffffffffffffffffffff021916908373ffffffffffffffffffffffffffffffffffffffff160217905550602082015181600101908161090b9190611a7e565b5060408201518160020155606082015181600301556080820151816004015550507f16fd3c13e9d46923e0a8bce11c7b473ec508a72e6c96cd2404b29ce972afc29e8160800151825f0151836020015184604001516040516109709493929190611b4d565b60405180910390a15050565b5f805f90505b60015f8473ffffffffffffffffffffffffffffffffffffffff1673ffffffffffffffffffffffffffffffffffffffff1681526020019081526020015f2080549050811015610a4d5760015f8473ffffffffffffffffffffffffffffffffffffffff1673ffffffffffffffffffffffffffffffffffffffff1681526020019081526020015f208181548110610a1957610a186116e5565b5b905f5260205f2090600502016003015460025f828254610a399190611b97565b925050819055508080600101915050610982565b506002549050919050565b5f805f9054906101000a900473ffffffffffffffffffffffffffffffffffffffff16905090565b610a87610f7b565b60015f3373ffffffffffffffffffffffffffffffffffffffff1673ffffffffffffffffffffffffffffffffffffffff1681526020019081526020015f208281548110610ad657610ad56116e5565b5b905f5260205f2090600502016040518060a00160405290815f82015f9054906101000a900473ffffffffffffffffffffffffffffffffffffffff1673ffffffffffffffffffffffffffffffffffffffff1673ffffffffffffffffffffffffffffffffffffffff168152602001600182018054610b51906116b5565b80601f0160208091040260200160405190810160405280929190818152602001828054610b7d906116b5565b8015610bc85780601f10610b9f57610100808354040283529160200191610bc8565b820191905f5260205f20905b815481529060010190602001808311610bab57829003601f168201915b5050505050815260200160028201548152602001600382015481526020016004820154815250509050919050565b610bfe610e2c565b5f73ffffffffffffffffffffffffffffffffffffffff168173ffffffffffffffffffffffffffffffffffffffff1603610c6e575f6040517f1e4fbdf7000000000000000000000000000000000000000000000000000000008152600401610c6591906115b1565b60405180910390fd5b610c7781610eb3565b50565b8060015f8473ffffffffffffffffffffffffffffffffffffffff1673ffffffffffffffffffffffffffffffffffffffff1681526020019081526020015f208281548110610cca57610cc96116e5565b5b905f5260205f2090600502016004015414610d1a576040517f08c379a0000000000000000000000000000000000000000000000000000000008152600401610d119061175c565b60405180910390fd5b60015f8373ffffffffffffffffffffffffffffffffffffffff1673ffffffffffffffffffffffffffffffffffffffff1681526020019081526020015f208181548110610d6957610d686116e5565b5b905f5260205f2090600502016003015f815480929190610d8890611bca565b91905055507fe8a76fc0f16d11a00d1e93b689b63d76cf60af914dd3d915375dc41d01a0c3c833838360015f8773ffffffffffffffffffffffffffffffffffffffff1673ffffffffffffffffffffffffffffffffffffffff1681526020019081526020015f208581548110610e0057610dff6116e5565b5b905f5260205f20906005020160030154604051610e209493929190611836565b60405180910390a15050565b610e34610f74565b73ffffffffffffffffffffffffffffffffffffffff16610e52610a58565b73ffffffffffffffffffffffffffffffffffffffff1614610eb157610e75610f74565b6040517f118cdaa7000000000000000000000000000000000000000000000000000000008152600401610ea891906115b1565b60405180910390fd5b565b5f805f9054906101000a900473ffffffffffffffffffffffffffffffffffffffff169050815f806101000a81548173ffffffffffffffffffffffffffffffffffffffff021916908373ffffffffffffffffffffffffffffffffffffffff1602179055508173ffffffffffffffffffffffffffffffffffffffff168173ffffffffffffffffffffffffffffffffffffffff167f8be0079c531659141344cd1fd0a4f28419497f9722a3daafe3b4186f6b6457e060405160405180910390a35050565b5f33905090565b6040518060a001604052805f73ffffffffffffffffffffffffffffffffffffffff168152602001606081526020015f81526020015f81526020015f81525090565b5f604051905090565b5f80fd5b5f80fd5b5f73ffffffffffffffffffffffffffffffffffffffff82169050919050565b5f610ff682610fcd565b9050919050565b61100681610fec565b8114611010575f80fd5b50565b5f8135905061102181610ffd565b92915050565b5f819050919050565b61103981611027565b8114611043575f80fd5b50565b5f8135905061105481611030565b92915050565b5f80604083850312156110705761106f610fc5565b5b5f61107d85828601611013565b925050602061108e85828601611046565b9150509250929050565b6110a181610fec565b82525050565b5f81519050919050565b5f82825260208201905092915050565b8281835e5f83830152505050565b5f601f19601f8301169050919050565b5f6110e9826110a7565b6110f381856110b1565b93506111038185602086016110c1565b61110c816110cf565b840191505092915050565b61112081611027565b82525050565b5f60a0820190506111395f830188611098565b818103602083015261114b81876110df565b905061115a6040830186611117565b6111676060830185611117565b6111746080830184611117565b9695505050505050565b5f6020828403121561119357611192610fc5565b5b5f6111a084828501611013565b91505092915050565b5f81519050919050565b5f82825260208201905092915050565b5f819050602082019050919050565b6111db81610fec565b82525050565b5f82825260208201905092915050565b5f6111fb826110a7565b61120581856111e1565b93506112158185602086016110c1565b61121e816110cf565b840191505092915050565b61123281611027565b82525050565b5f60a083015f83015161124d5f8601826111d2565b506020830151848203602086015261126582826111f1565b915050604083015161127a6040860182611229565b50606083015161128d6060860182611229565b5060808301516112a06080860182611229565b508091505092915050565b5f6112b68383611238565b905092915050565b5f602082019050919050565b5f6112d4826111a9565b6112de81856111b3565b9350836020820285016112f0856111c3565b805f5b8581101561132b578484038952815161130c85826112ab565b9450611317836112be565b925060208a019950506001810190506112f3565b50829750879550505050505092915050565b5f6020820190508181035f83015261135581846112ca565b905092915050565b5f61ffff82169050919050565b6113738161135d565b811461137d575f80fd5b50565b5f8135905061138e8161136a565b92915050565b5f602082840312156113a9576113a8610fc5565b5b5f6113b684828501611380565b91505092915050565b6113c88161135d565b82525050565b5f6020820190506113e15f8301846113bf565b92915050565b5f80604083850312156113fd576113fc610fc5565b5b5f61140a85828601611046565b925050602061141b85828601611013565b9150509250929050565b5f80fd5b5f80fd5b7f4e487b71000000000000000000000000000000000000000000000000000000005f52604160045260245ffd5b611463826110cf565b810181811067ffffffffffffffff821117156114825761148161142d565b5b80604052505050565b5f611494610fbc565b90506114a0828261145a565b919050565b5f67ffffffffffffffff8211156114bf576114be61142d565b5b6114c8826110cf565b9050602081019050919050565b828183375f83830152505050565b5f6114f56114f0846114a5565b61148b565b90508281526020810184848401111561151157611510611429565b5b61151c8482856114d5565b509392505050565b5f82601f83011261153857611537611425565b5b81356115488482602086016114e3565b91505092915050565b5f6020828403121561156657611565610fc5565b5b5f82013567ffffffffffffffff81111561158357611582610fc9565b5b61158f84828501611524565b91505092915050565b5f6020820190506115ab5f830184611117565b92915050565b5f6020820190506115c45f830184611098565b92915050565b5f602082840312156115df576115de610fc5565b5b5f6115ec84828501611046565b91505092915050565b5f60a083015f83015161160a5f8601826111d2565b506020830151848203602086015261162282826111f1565b91505060408301516116376040860182611229565b50606083015161164a6060860182611229565b50608083015161165d6080860182611229565b508091505092915050565b5f6020820190508181035f83015261168081846115f5565b905092915050565b7f4e487b71000000000000000000000000000000000000000000000000000000005f52602260045260245ffd5b5f60028204905060018216806116cc57607f821691505b6020821081036116df576116de611688565b5b50919050565b7f4e487b71000000000000000000000000000000000000000000000000000000005f52603260045260245ffd5b7f4e6965206d612074616b6965676f2074776565747500000000000000000000005f82015250565b5f6117466015836110b1565b915061175182611712565b602082019050919050565b5f6020820190508181035f8301526117738161173a565b9050919050565b7f4e6965206d6f7a65737a207573756e6163206c696b65000000000000000000005f82015250565b5f6117ae6016836110b1565b91506117b98261177a565b602082019050919050565b5f6020820190508181035f8301526117db816117a2565b9050919050565b7f4e487b71000000000000000000000000000000000000000000000000000000005f52601160045260245ffd5b5f61181982611027565b91505f820361182b5761182a6117e2565b5b600182039050919050565b5f6080820190506118495f830187611098565b6118566020830186611098565b6118636040830185611117565b6118706060830184611117565b95945050505050565b7f4d65737361676520746f206c6f6e6700000000000000000000000000000000005f82015250565b5f6118ad600f836110b1565b91506118b882611879565b602082019050919050565b5f6020820190508181035f8301526118da816118a1565b9050919050565b5f819050815f5260205f209050919050565b5f6020601f8301049050919050565b5f82821b905092915050565b5f6008830261193d7fffffffffffffffffffffffffffffffffffffffffffffffffffffffffffffffff82611902565b6119478683611902565b95508019841693508086168417925050509392505050565b5f819050919050565b5f61198261197d61197884611027565b61195f565b611027565b9050919050565b5f819050919050565b61199b83611968565b6119af6119a782611989565b84845461190e565b825550505050565b5f90565b6119c36119b7565b6119ce818484611992565b505050565b5b818110156119f1576119e65f826119bb565b6001810190506119d4565b5050565b601f821115611a3657611a07816118e1565b611a10846118f3565b81016020851015611a1f578190505b611a33611a2b856118f3565b8301826119d3565b50505b505050565b5f82821c905092915050565b5f611a565f1984600802611a3b565b1980831691505092915050565b5f611a6e8383611a47565b9150826002028217905092915050565b611a87826110a7565b67ffffffffffffffff811115611aa057611a9f61142d565b5b611aaa82546116b5565b611ab58282856119f5565b5f60209050601f831160018114611ae6575f8415611ad4578287015190505b611ade8582611a63565b865550611b45565b601f198416611af4866118e1565b5f5b82811015611b1b57848901518255600182019150602085019450602081019050611af6565b86831015611b385784890151611b34601f891682611a47565b8355505b6001600288020188555050505b505050505050565b5f608082019050611b605f830187611117565b611b6d6020830186611098565b8181036040830152611b7f81856110df565b9050611b8e6060830184611117565b95945050505050565b5f611ba182611027565b9150611bac83611027565b9250828201905080821115611bc457611bc36117e2565b5b92915050565b5f611bd482611027565b91507fffffffffffffffffffffffffffffffffffffffffffffffffffffffffffffffff8203611c0657611c056117e2565b5b60018201905091905056fea2646970667358221220393fe75ec913d29c65e4f3b683697584a147f4aba0ef727e88c73fa57770d57a64736f6c634300081a0033",
					"opcodes": "PUSH1 0x80 PUSH1 0x40 MSTORE PUSH2 0x118 PUSH0 PUSH1 0x14 PUSH2 0x100 EXP DUP2 SLOAD DUP2 PUSH2 0xFFFF MUL NOT AND SWAP1 DUP4 PUSH2 0xFFFF AND MUL OR SWAP1 SSTORE POP CALLVALUE DUP1 ISZERO PUSH2 0x2D JUMPI PUSH0 DUP1 REVERT JUMPDEST POP CALLER PUSH0 PUSH20 0xFFFFFFFFFFFFFFFFFFFFFFFFFFFFFFFFFFFFFFFF AND DUP2 PUSH20 0xFFFFFFFFFFFFFFFFFFFFFFFFFFFFFFFFFFFFFFFF AND SUB PUSH2 0x9F JUMPI PUSH0 PUSH1 0x40 MLOAD PUSH32 0x1E4FBDF700000000000000000000000000000000000000000000000000000000 DUP2 MSTORE PUSH1 0x4 ADD PUSH2 0x96 SWAP2 SWAP1 PUSH2 0x1B4 JUMP JUMPDEST PUSH1 0x40 MLOAD DUP1 SWAP2 SUB SWAP1 REVERT JUMPDEST PUSH2 0xAE DUP2 PUSH2 0xB4 PUSH1 0x20 SHL PUSH1 0x20 SHR JUMP JUMPDEST POP PUSH2 0x1CD JUMP JUMPDEST PUSH0 DUP1 PUSH0 SWAP1 SLOAD SWAP1 PUSH2 0x100 EXP SWAP1 DIV PUSH20 0xFFFFFFFFFFFFFFFFFFFFFFFFFFFFFFFFFFFFFFFF AND SWAP1 POP DUP2 PUSH0 DUP1 PUSH2 0x100 EXP DUP2 SLOAD DUP2 PUSH20 0xFFFFFFFFFFFFFFFFFFFFFFFFFFFFFFFFFFFFFFFF MUL NOT AND SWAP1 DUP4 PUSH20 0xFFFFFFFFFFFFFFFFFFFFFFFFFFFFFFFFFFFFFFFF AND MUL OR SWAP1 SSTORE POP DUP2 PUSH20 0xFFFFFFFFFFFFFFFFFFFFFFFFFFFFFFFFFFFFFFFF AND DUP2 PUSH20 0xFFFFFFFFFFFFFFFFFFFFFFFFFFFFFFFFFFFFFFFF AND PUSH32 0x8BE0079C531659141344CD1FD0A4F28419497F9722A3DAAFE3B4186F6B6457E0 PUSH1 0x40 MLOAD PUSH1 0x40 MLOAD DUP1 SWAP2 SUB SWAP1 LOG3 POP POP JUMP JUMPDEST PUSH0 PUSH20 0xFFFFFFFFFFFFFFFFFFFFFFFFFFFFFFFFFFFFFFFF DUP3 AND SWAP1 POP SWAP2 SWAP1 POP JUMP JUMPDEST PUSH0 PUSH2 0x19E DUP3 PUSH2 0x175 JUMP JUMPDEST SWAP1 POP SWAP2 SWAP1 POP JUMP JUMPDEST PUSH2 0x1AE DUP2 PUSH2 0x194 JUMP JUMPDEST DUP3 MSTORE POP POP JUMP JUMPDEST PUSH0 PUSH1 0x20 DUP3 ADD SWAP1 POP PUSH2 0x1C7 PUSH0 DUP4 ADD DUP5 PUSH2 0x1A5 JUMP JUMPDEST SWAP3 SWAP2 POP POP JUMP JUMPDEST PUSH2 0x1C47 DUP1 PUSH2 0x1DA PUSH0 CODECOPY PUSH0 RETURN INVALID PUSH1 0x80 PUSH1 0x40 MSTORE CALLVALUE DUP1 ISZERO PUSH2 0xF JUMPI PUSH0 DUP1 REVERT JUMPDEST POP PUSH1 0x4 CALLDATASIZE LT PUSH2 0xB2 JUMPI PUSH0 CALLDATALOAD PUSH1 0xE0 SHR DUP1 PUSH4 0x7C9CD2BC GT PUSH2 0x6F JUMPI DUP1 PUSH4 0x7C9CD2BC EQ PUSH2 0x17A JUMPI DUP1 PUSH4 0x820785CC EQ PUSH2 0x196 JUMPI DUP1 PUSH4 0x8DA5CB5B EQ PUSH2 0x1C6 JUMPI DUP1 PUSH4 0xC3AD5ECB EQ PUSH2 0x1E4 JUMPI DUP1 PUSH4 0xF2FDE38B EQ PUSH2 0x214 JUMPI DUP1 PUSH4 0xF65A8F40 EQ PUSH2 0x230 JUMPI PUSH2 0xB2 JUMP JUMPDEST DUP1 PUSH4 0x5A1B4A9 EQ PUSH2 0xB6 JUMPI DUP1 PUSH4 0x12E7EE1C EQ PUSH2 0xEA JUMPI DUP1 PUSH4 0x58BFA4AB EQ PUSH2 0x11A JUMPI DUP1 PUSH4 0x6EB10797 EQ PUSH2 0x136 JUMPI DUP1 PUSH4 0x715018A6 EQ PUSH2 0x154 JUMPI DUP1 PUSH4 0x7A639E39 EQ PUSH2 0x15E JUMPI JUMPDEST PUSH0 DUP1 REVERT JUMPDEST PUSH2 0xD0 PUSH1 0x4 DUP1 CALLDATASIZE SUB DUP2 ADD SWAP1 PUSH2 0xCB SWAP2 SWAP1 PUSH2 0x105A JUMP JUMPDEST PUSH2 0x24C JUMP JUMPDEST PUSH1 0x40 MLOAD PUSH2 0xE1 SWAP6 SWAP5 SWAP4 SWAP3 SWAP2 SWAP1 PUSH2 0x1126 JUMP JUMPDEST PUSH1 0x40 MLOAD DUP1 SWAP2 SUB SWAP1 RETURN JUMPDEST PUSH2 0x104 PUSH1 0x4 DUP1 CALLDATASIZE SUB DUP2 ADD SWAP1 PUSH2 0xFF SWAP2 SWAP1 PUSH2 0x117E JUMP JUMPDEST PUSH2 0x33D JUMP JUMPDEST PUSH1 0x40 MLOAD PUSH2 0x111 SWAP2 SWAP1 PUSH2 0x133D JUMP JUMPDEST PUSH1 0x40 MLOAD DUP1 SWAP2 SUB SWAP1 RETURN JUMPDEST PUSH2 0x134 PUSH1 0x4 DUP1 CALLDATASIZE SUB DUP2 ADD SWAP1 PUSH2 0x12F SWAP2 SWAP1 PUSH2 0x1394 JUMP JUMPDEST PUSH2 0x4D8 JUMP JUMPDEST STOP JUMPDEST PUSH2 0x13E PUSH2 0x4FF JUMP JUMPDEST PUSH1 0x40 MLOAD PUSH2 0x14B SWAP2 SWAP1 PUSH2 0x13CE JUMP JUMPDEST PUSH1 0x40 MLOAD DUP1 SWAP2 SUB SWAP1 RETURN JUMPDEST PUSH2 0x15C PUSH2 0x512 JUMP JUMPDEST STOP JUMPDEST PUSH2 0x178 PUSH1 0x4 DUP1 CALLDATASIZE SUB DUP2 ADD SWAP1 PUSH2 0x173 SWAP2 SWAP1 PUSH2 0x13E7 JUMP JUMPDEST PUSH2 0x525 JUMP JUMPDEST STOP JUMPDEST PUSH2 0x194 PUSH1 0x4 DUP1 CALLDATASIZE SUB DUP2 ADD SWAP1 PUSH2 0x18F SWAP2 SWAP1 PUSH2 0x1551 JUMP JUMPDEST PUSH2 0x777 JUMP JUMPDEST STOP JUMPDEST PUSH2 0x1B0 PUSH1 0x4 DUP1 CALLDATASIZE SUB DUP2 ADD SWAP1 PUSH2 0x1AB SWAP2 SWAP1 PUSH2 0x117E JUMP JUMPDEST PUSH2 0x97C JUMP JUMPDEST PUSH1 0x40 MLOAD PUSH2 0x1BD SWAP2 SWAP1 PUSH2 0x1598 JUMP JUMPDEST PUSH1 0x40 MLOAD DUP1 SWAP2 SUB SWAP1 RETURN JUMPDEST PUSH2 0x1CE PUSH2 0xA58 JUMP JUMPDEST PUSH1 0x40 MLOAD PUSH2 0x1DB SWAP2 SWAP1 PUSH2 0x15B1 JUMP JUMPDEST PUSH1 0x40 MLOAD DUP1 SWAP2 SUB SWAP1 RETURN JUMPDEST PUSH2 0x1FE PUSH1 0x4 DUP1 CALLDATASIZE SUB DUP2 ADD SWAP1 PUSH2 0x1F9 SWAP2 SWAP1 PUSH2 0x15CA JUMP JUMPDEST PUSH2 0xA7F JUMP JUMPDEST PUSH1 0x40 MLOAD PUSH2 0x20B SWAP2 SWAP1 PUSH2 0x1668 JUMP JUMPDEST PUSH1 0x40 MLOAD DUP1 SWAP2 SUB SWAP1 RETURN JUMPDEST PUSH2 0x22E PUSH1 0x4 DUP1 CALLDATASIZE SUB DUP2 ADD SWAP1 PUSH2 0x229 SWAP2 SWAP1 PUSH2 0x117E JUMP JUMPDEST PUSH2 0xBF6 JUMP JUMPDEST STOP JUMPDEST PUSH2 0x24A PUSH1 0x4 DUP1 CALLDATASIZE SUB DUP2 ADD SWAP1 PUSH2 0x245 SWAP2 SWAP1 PUSH2 0x105A JUMP JUMPDEST PUSH2 0xC7A JUMP JUMPDEST STOP JUMPDEST PUSH1 0x1 PUSH1 0x20 MSTORE DUP2 PUSH0 MSTORE PUSH1 0x40 PUSH0 KECCAK256 DUP2 DUP2 SLOAD DUP2 LT PUSH2 0x265 JUMPI PUSH0 DUP1 REVERT JUMPDEST SWAP1 PUSH0 MSTORE PUSH1 0x20 PUSH0 KECCAK256 SWAP1 PUSH1 0x5 MUL ADD PUSH0 SWAP2 POP SWAP2 POP POP DUP1 PUSH0 ADD PUSH0 SWAP1 SLOAD SWAP1 PUSH2 0x100 EXP SWAP1 DIV PUSH20 0xFFFFFFFFFFFFFFFFFFFFFFFFFFFFFFFFFFFFFFFF AND SWAP1 DUP1 PUSH1 0x1 ADD DUP1 SLOAD PUSH2 0x2AA SWAP1 PUSH2 0x16B5 JUMP JUMPDEST DUP1 PUSH1 0x1F ADD PUSH1 0x20 DUP1 SWAP2 DIV MUL PUSH1 0x20 ADD PUSH1 0x40 MLOAD SWAP1 DUP2 ADD PUSH1 0x40 MSTORE DUP1 SWAP3 SWAP2 SWAP1 DUP2 DUP2 MSTORE PUSH1 0x20 ADD DUP3 DUP1 SLOAD PUSH2 0x2D6 SWAP1 PUSH2 0x16B5 JUMP JUMPDEST DUP1 ISZERO PUSH2 0x321 JUMPI DUP1 PUSH1 0x1F LT PUSH2 0x2F8 JUMPI PUSH2 0x100 DUP1 DUP4 SLOAD DIV MUL DUP4 MSTORE SWAP2 PUSH1 0x20 ADD SWAP2 PUSH2 0x321 JUMP JUMPDEST DUP3 ADD SWAP2 SWAP1 PUSH0 MSTORE PUSH1 0x20 PUSH0 KECCAK256 SWAP1 JUMPDEST DUP2 SLOAD DUP2 MSTORE SWAP1 PUSH1 0x1 ADD SWAP1 PUSH1 0x20 ADD DUP1 DUP4 GT PUSH2 0x304 JUMPI DUP3 SWAP1 SUB PUSH1 0x1F AND DUP3 ADD SWAP2 JUMPDEST POP POP POP POP POP SWAP1 DUP1 PUSH1 0x2 ADD SLOAD SWAP1 DUP1 PUSH1 0x3 ADD SLOAD SWAP1 DUP1 PUSH1 0x4 ADD SLOAD SWAP1 POP DUP6 JUMP JUMPDEST PUSH1 0x60 PUSH1 0x1 PUSH0 DUP4 PUSH20 0xFFFFFFFFFFFFFFFFFFFFFFFFFFFFFFFFFFFFFFFF AND PUSH20 0xFFFFFFFFFFFFFFFFFFFFFFFFFFFFFFFFFFFFFFFF AND DUP2 MSTORE PUSH1 0x20 ADD SWAP1 DUP2 MSTORE PUSH1 0x20 ADD PUSH0 KECCAK256 DUP1 SLOAD DUP1 PUSH1 0x20 MUL PUSH1 0x20 ADD PUSH1 0x40 MLOAD SWAP1 DUP2 ADD PUSH1 0x40 MSTORE DUP1 SWAP3 SWAP2 SWAP1 DUP2 DUP2 MSTORE PUSH1 0x20 ADD PUSH0 SWAP1 JUMPDEST DUP3 DUP3 LT ISZERO PUSH2 0x4CD JUMPI DUP4 DUP3 SWAP1 PUSH0 MSTORE PUSH1 0x20 PUSH0 KECCAK256 SWAP1 PUSH1 0x5 MUL ADD PUSH1 0x40 MLOAD DUP1 PUSH1 0xA0 ADD PUSH1 0x40 MSTORE SWAP1 DUP2 PUSH0 DUP3 ADD PUSH0 SWAP1 SLOAD SWAP1 PUSH2 0x100 EXP SWAP1 DIV PUSH20 0xFFFFFFFFFFFFFFFFFFFFFFFFFFFFFFFFFFFFFFFF AND PUSH20 0xFFFFFFFFFFFFFFFFFFFFFFFFFFFFFFFFFFFFFFFF AND PUSH20 0xFFFFFFFFFFFFFFFFFFFFFFFFFFFFFFFFFFFFFFFF AND DUP2 MSTORE PUSH1 0x20 ADD PUSH1 0x1 DUP3 ADD DUP1 SLOAD PUSH2 0x420 SWAP1 PUSH2 0x16B5 JUMP JUMPDEST DUP1 PUSH1 0x1F ADD PUSH1 0x20 DUP1 SWAP2 DIV MUL PUSH1 0x20 ADD PUSH1 0x40 MLOAD SWAP1 DUP2 ADD PUSH1 0x40 MSTORE DUP1 SWAP3 SWAP2 SWAP1 DUP2 DUP2 MSTORE PUSH1 0x20 ADD DUP3 DUP1 SLOAD PUSH2 0x44C SWAP1 PUSH2 0x16B5 JUMP JUMPDEST DUP1 ISZERO PUSH2 0x497 JUMPI DUP1 PUSH1 0x1F LT PUSH2 0x46E JUMPI PUSH2 0x100 DUP1 DUP4 SLOAD DIV MUL DUP4 MSTORE SWAP2 PUSH1 0x20 ADD SWAP2 PUSH2 0x497 JUMP JUMPDEST DUP3 ADD SWAP2 SWAP1 PUSH0 MSTORE PUSH1 0x20 PUSH0 KECCAK256 SWAP1 JUMPDEST DUP2 SLOAD DUP2 MSTORE SWAP1 PUSH1 0x1 ADD SWAP1 PUSH1 0x20 ADD DUP1 DUP4 GT PUSH2 0x47A JUMPI DUP3 SWAP1 SUB PUSH1 0x1F AND DUP3 ADD SWAP2 JUMPDEST POP POP POP POP POP DUP2 MSTORE PUSH1 0x20 ADD PUSH1 0x2 DUP3 ADD SLOAD DUP2 MSTORE PUSH1 0x20 ADD PUSH1 0x3 DUP3 ADD SLOAD DUP2 MSTORE PUSH1 0x20 ADD PUSH1 0x4 DUP3 ADD SLOAD DUP2 MSTORE POP POP DUP2 MSTORE PUSH1 0x20 ADD SWAP1 PUSH1 0x1 ADD SWAP1 PUSH2 0x39B JUMP JUMPDEST POP POP POP POP SWAP1 POP SWAP2 SWAP1 POP JUMP JUMPDEST PUSH2 0x4E0 PUSH2 0xE2C JUMP JUMPDEST DUP1 PUSH0 PUSH1 0x14 PUSH2 0x100 EXP DUP2 SLOAD DUP2 PUSH2 0xFFFF MUL NOT AND SWAP1 DUP4 PUSH2 0xFFFF AND MUL OR SWAP1 SSTORE POP POP JUMP JUMPDEST PUSH0 PUSH1 0x14 SWAP1 SLOAD SWAP1 PUSH2 0x100 EXP SWAP1 DIV PUSH2 0xFFFF AND DUP2 JUMP JUMPDEST PUSH2 0x51A PUSH2 0xE2C JUMP JUMPDEST PUSH2 0x523 PUSH0 PUSH2 0xEB3 JUMP JUMPDEST JUMP JUMPDEST DUP2 PUSH1 0x1 PUSH0 DUP4 PUSH20 0xFFFFFFFFFFFFFFFFFFFFFFFFFFFFFFFFFFFFFFFF AND PUSH20 0xFFFFFFFFFFFFFFFFFFFFFFFFFFFFFFFFFFFFFFFF AND DUP2 MSTORE PUSH1 0x20 ADD SWAP1 DUP2 MSTORE PUSH1 0x20 ADD PUSH0 KECCAK256 DUP4 DUP2 SLOAD DUP2 LT PUSH2 0x575 JUMPI PUSH2 0x574 PUSH2 0x16E5 JUMP JUMPDEST JUMPDEST SWAP1 PUSH0 MSTORE PUSH1 0x20 PUSH0 KECCAK256 SWAP1 PUSH1 0x5 MUL ADD PUSH1 0x4 ADD SLOAD EQ PUSH2 0x5C5 JUMPI PUSH1 0x40 MLOAD PUSH32 0x8C379A000000000000000000000000000000000000000000000000000000000 DUP2 MSTORE PUSH1 0x4 ADD PUSH2 0x5BC SWAP1 PUSH2 0x175C JUMP JUMPDEST PUSH1 0x40 MLOAD DUP1 SWAP2 SUB SWAP1 REVERT JUMPDEST PUSH0 PUSH1 0x1 PUSH0 DUP4 PUSH20 0xFFFFFFFFFFFFFFFFFFFFFFFFFFFFFFFFFFFFFFFF AND PUSH20 0xFFFFFFFFFFFFFFFFFFFFFFFFFFFFFFFFFFFFFFFF AND DUP2 MSTORE PUSH1 0x20 ADD SWAP1 DUP2 MSTORE PUSH1 0x20 ADD PUSH0 KECCAK256 DUP4 DUP2 SLOAD DUP2 LT PUSH2 0x615 JUMPI PUSH2 0x614 PUSH2 0x16E5 JUMP JUMPDEST JUMPDEST SWAP1 PUSH0 MSTORE PUSH1 0x20 PUSH0 KECCAK256 SWAP1 PUSH1 0x5 MUL ADD PUSH1 0x3 ADD SLOAD GT PUSH2 0x665 JUMPI PUSH1 0x40 MLOAD PUSH32 0x8C379A000000000000000000000000000000000000000000000000000000000 DUP2 MSTORE PUSH1 0x4 ADD PUSH2 0x65C SWAP1 PUSH2 0x17C4 JUMP JUMPDEST PUSH1 0x40 MLOAD DUP1 SWAP2 SUB SWAP1 REVERT JUMPDEST PUSH1 0x1 PUSH0 DUP3 PUSH20 0xFFFFFFFFFFFFFFFFFFFFFFFFFFFFFFFFFFFFFFFF AND PUSH20 0xFFFFFFFFFFFFFFFFFFFFFFFFFFFFFFFFFFFFFFFF AND DUP2 MSTORE PUSH1 0x20 ADD SWAP1 DUP2 MSTORE PUSH1 0x20 ADD PUSH0 KECCAK256 DUP3 DUP2 SLOAD DUP2 LT PUSH2 0x6B4 JUMPI PUSH2 0x6B3 PUSH2 0x16E5 JUMP JUMPDEST JUMPDEST SWAP1 PUSH0 MSTORE PUSH1 0x20 PUSH0 KECCAK256 SWAP1 PUSH1 0x5 MUL ADD PUSH1 0x3 ADD PUSH0 DUP2 SLOAD DUP1 SWAP3 SWAP2 SWAP1 PUSH2 0x6D3 SWAP1 PUSH2 0x180F JUMP JUMPDEST SWAP2 SWAP1 POP SSTORE POP PUSH32 0x762C2616349603AC16EBA0DE8E6141B79129A07AB63BD99E0A80B3A471716943 CALLER DUP3 DUP5 PUSH1 0x1 PUSH0 DUP7 PUSH20 0xFFFFFFFFFFFFFFFFFFFFFFFFFFFFFFFFFFFFFFFF AND PUSH20 0xFFFFFFFFFFFFFFFFFFFFFFFFFFFFFFFFFFFFFFFF AND DUP2 MSTORE PUSH1 0x20 ADD SWAP1 DUP2 MSTORE PUSH1 0x20 ADD PUSH0 KECCAK256 DUP7 DUP2 SLOAD DUP2 LT PUSH2 0x74B JUMPI PUSH2 0x74A PUSH2 0x16E5 JUMP JUMPDEST JUMPDEST SWAP1 PUSH0 MSTORE PUSH1 0x20 PUSH0 KECCAK256 SWAP1 PUSH1 0x5 MUL ADD PUSH1 0x3 ADD SLOAD PUSH1 0x40 MLOAD PUSH2 0x76B SWAP5 SWAP4 SWAP3 SWAP2 SWAP1 PUSH2 0x1836 JUMP JUMPDEST PUSH1 0x40 MLOAD DUP1 SWAP2 SUB SWAP1 LOG1 POP POP JUMP JUMPDEST PUSH0 PUSH1 0x14 SWAP1 SLOAD SWAP1 PUSH2 0x100 EXP SWAP1 DIV PUSH2 0xFFFF AND PUSH2 0xFFFF AND DUP2 MLOAD GT ISZERO PUSH2 0x7CE JUMPI PUSH1 0x40 MLOAD PUSH32 0x8C379A000000000000000000000000000000000000000000000000000000000 DUP2 MSTORE PUSH1 0x4 ADD PUSH2 0x7C5 SWAP1 PUSH2 0x18C3 JUMP JUMPDEST PUSH1 0x40 MLOAD DUP1 SWAP2 SUB SWAP1 REVERT JUMPDEST PUSH0 PUSH1 0x40 MLOAD DUP1 PUSH1 0xA0 ADD PUSH1 0x40 MSTORE DUP1 CALLER PUSH20 0xFFFFFFFFFFFFFFFFFFFFFFFFFFFFFFFFFFFFFFFF AND DUP2 MSTORE PUSH1 0x20 ADD DUP4 DUP2 MSTORE PUSH1 0x20 ADD TIMESTAMP DUP2 MSTORE PUSH1 0x20 ADD PUSH0 DUP2 MSTORE PUSH1 0x20 ADD PUSH1 0x1 PUSH0 CALLER PUSH20 0xFFFFFFFFFFFFFFFFFFFFFFFFFFFFFFFFFFFFFFFF AND PUSH20 0xFFFFFFFFFFFFFFFFFFFFFFFFFFFFFFFFFFFFFFFF AND DUP2 MSTORE PUSH1 0x20 ADD SWAP1 DUP2 MSTORE PUSH1 0x20 ADD PUSH0 KECCAK256 DUP1 SLOAD SWAP1 POP DUP2 MSTORE POP SWAP1 POP PUSH1 0x1 PUSH0 CALLER PUSH20 0xFFFFFFFFFFFFFFFFFFFFFFFFFFFFFFFFFFFFFFFF AND PUSH20 0xFFFFFFFFFFFFFFFFFFFFFFFFFFFFFFFFFFFFFFFF AND DUP2 MSTORE PUSH1 0x20 ADD SWAP1 DUP2 MSTORE PUSH1 0x20 ADD PUSH0 KECCAK256 DUP2 SWAP1 DUP1 PUSH1 0x1 DUP2 SLOAD ADD DUP1 DUP3 SSTORE DUP1 SWAP2 POP POP PUSH1 0x1 SWAP1 SUB SWAP1 PUSH0 MSTORE PUSH1 0x20 PUSH0 KECCAK256 SWAP1 PUSH1 0x5 MUL ADD PUSH0 SWAP1 SWAP2 SWAP1 SWAP2 SWAP1 SWAP2 POP PUSH0 DUP3 ADD MLOAD DUP2 PUSH0 ADD PUSH0 PUSH2 0x100 EXP DUP2 SLOAD DUP2 PUSH20 0xFFFFFFFFFFFFFFFFFFFFFFFFFFFFFFFFFFFFFFFF MUL NOT AND SWAP1 DUP4 PUSH20 0xFFFFFFFFFFFFFFFFFFFFFFFFFFFFFFFFFFFFFFFF AND MUL OR SWAP1 SSTORE POP PUSH1 0x20 DUP3 ADD MLOAD DUP2 PUSH1 0x1 ADD SWAP1 DUP2 PUSH2 0x90B SWAP2 SWAP1 PUSH2 0x1A7E JUMP JUMPDEST POP PUSH1 0x40 DUP3 ADD MLOAD DUP2 PUSH1 0x2 ADD SSTORE PUSH1 0x60 DUP3 ADD MLOAD DUP2 PUSH1 0x3 ADD SSTORE PUSH1 0x80 DUP3 ADD MLOAD DUP2 PUSH1 0x4 ADD SSTORE POP POP PUSH32 0x16FD3C13E9D46923E0A8BCE11C7B473EC508A72E6C96CD2404B29CE972AFC29E DUP2 PUSH1 0x80 ADD MLOAD DUP3 PUSH0 ADD MLOAD DUP4 PUSH1 0x20 ADD MLOAD DUP5 PUSH1 0x40 ADD MLOAD PUSH1 0x40 MLOAD PUSH2 0x970 SWAP5 SWAP4 SWAP3 SWAP2 SWAP1 PUSH2 0x1B4D JUMP JUMPDEST PUSH1 0x40 MLOAD DUP1 SWAP2 SUB SWAP1 LOG1 POP POP JUMP JUMPDEST PUSH0 DUP1 PUSH0 SWAP1 POP JUMPDEST PUSH1 0x1 PUSH0 DUP5 PUSH20 0xFFFFFFFFFFFFFFFFFFFFFFFFFFFFFFFFFFFFFFFF AND PUSH20 0xFFFFFFFFFFFFFFFFFFFFFFFFFFFFFFFFFFFFFFFF AND DUP2 MSTORE PUSH1 0x20 ADD SWAP1 DUP2 MSTORE PUSH1 0x20 ADD PUSH0 KECCAK256 DUP1 SLOAD SWAP1 POP DUP2 LT ISZERO PUSH2 0xA4D JUMPI PUSH1 0x1 PUSH0 DUP5 PUSH20 0xFFFFFFFFFFFFFFFFFFFFFFFFFFFFFFFFFFFFFFFF AND PUSH20 0xFFFFFFFFFFFFFFFFFFFFFFFFFFFFFFFFFFFFFFFF AND DUP2 MSTORE PUSH1 0x20 ADD SWAP1 DUP2 MSTORE PUSH1 0x20 ADD PUSH0 KECCAK256 DUP2 DUP2 SLOAD DUP2 LT PUSH2 0xA19 JUMPI PUSH2 0xA18 PUSH2 0x16E5 JUMP JUMPDEST JUMPDEST SWAP1 PUSH0 MSTORE PUSH1 0x20 PUSH0 KECCAK256 SWAP1 PUSH1 0x5 MUL ADD PUSH1 0x3 ADD SLOAD PUSH1 0x2 PUSH0 DUP3 DUP3 SLOAD PUSH2 0xA39 SWAP2 SWAP1 PUSH2 0x1B97 JUMP JUMPDEST SWAP3 POP POP DUP2 SWAP1 SSTORE POP DUP1 DUP1 PUSH1 0x1 ADD SWAP2 POP POP PUSH2 0x982 JUMP JUMPDEST POP PUSH1 0x2 SLOAD SWAP1 POP SWAP2 SWAP1 POP JUMP JUMPDEST PUSH0 DUP1 PUSH0 SWAP1 SLOAD SWAP1 PUSH2 0x100 EXP SWAP1 DIV PUSH20 0xFFFFFFFFFFFFFFFFFFFFFFFFFFFFFFFFFFFFFFFF AND SWAP1 POP SWAP1 JUMP JUMPDEST PUSH2 0xA87 PUSH2 0xF7B JUMP JUMPDEST PUSH1 0x1 PUSH0 CALLER PUSH20 0xFFFFFFFFFFFFFFFFFFFFFFFFFFFFFFFFFFFFFFFF AND PUSH20 0xFFFFFFFFFFFFFFFFFFFFFFFFFFFFFFFFFFFFFFFF AND DUP2 MSTORE PUSH1 0x20 ADD SWAP1 DUP2 MSTORE PUSH1 0x20 ADD PUSH0 KECCAK256 DUP3 DUP2 SLOAD DUP2 LT PUSH2 0xAD6 JUMPI PUSH2 0xAD5 PUSH2 0x16E5 JUMP JUMPDEST JUMPDEST SWAP1 PUSH0 MSTORE PUSH1 0x20 PUSH0 KECCAK256 SWAP1 PUSH1 0x5 MUL ADD PUSH1 0x40 MLOAD DUP1 PUSH1 0xA0 ADD PUSH1 0x40 MSTORE SWAP1 DUP2 PUSH0 DUP3 ADD PUSH0 SWAP1 SLOAD SWAP1 PUSH2 0x100 EXP SWAP1 DIV PUSH20 0xFFFFFFFFFFFFFFFFFFFFFFFFFFFFFFFFFFFFFFFF AND PUSH20 0xFFFFFFFFFFFFFFFFFFFFFFFFFFFFFFFFFFFFFFFF AND PUSH20 0xFFFFFFFFFFFFFFFFFFFFFFFFFFFFFFFFFFFFFFFF AND DUP2 MSTORE PUSH1 0x20 ADD PUSH1 0x1 DUP3 ADD DUP1 SLOAD PUSH2 0xB51 SWAP1 PUSH2 0x16B5 JUMP JUMPDEST DUP1 PUSH1 0x1F ADD PUSH1 0x20 DUP1 SWAP2 DIV MUL PUSH1 0x20 ADD PUSH1 0x40 MLOAD SWAP1 DUP2 ADD PUSH1 0x40 MSTORE DUP1 SWAP3 SWAP2 SWAP1 DUP2 DUP2 MSTORE PUSH1 0x20 ADD DUP3 DUP1 SLOAD PUSH2 0xB7D SWAP1 PUSH2 0x16B5 JUMP JUMPDEST DUP1 ISZERO PUSH2 0xBC8 JUMPI DUP1 PUSH1 0x1F LT PUSH2 0xB9F JUMPI PUSH2 0x100 DUP1 DUP4 SLOAD DIV MUL DUP4 MSTORE SWAP2 PUSH1 0x20 ADD SWAP2 PUSH2 0xBC8 JUMP JUMPDEST DUP3 ADD SWAP2 SWAP1 PUSH0 MSTORE PUSH1 0x20 PUSH0 KECCAK256 SWAP1 JUMPDEST DUP2 SLOAD DUP2 MSTORE SWAP1 PUSH1 0x1 ADD SWAP1 PUSH1 0x20 ADD DUP1 DUP4 GT PUSH2 0xBAB JUMPI DUP3 SWAP1 SUB PUSH1 0x1F AND DUP3 ADD SWAP2 JUMPDEST POP POP POP POP POP DUP2 MSTORE PUSH1 0x20 ADD PUSH1 0x2 DUP3 ADD SLOAD DUP2 MSTORE PUSH1 0x20 ADD PUSH1 0x3 DUP3 ADD SLOAD DUP2 MSTORE PUSH1 0x20 ADD PUSH1 0x4 DUP3 ADD SLOAD DUP2 MSTORE POP POP SWAP1 POP SWAP2 SWAP1 POP JUMP JUMPDEST PUSH2 0xBFE PUSH2 0xE2C JUMP JUMPDEST PUSH0 PUSH20 0xFFFFFFFFFFFFFFFFFFFFFFFFFFFFFFFFFFFFFFFF AND DUP2 PUSH20 0xFFFFFFFFFFFFFFFFFFFFFFFFFFFFFFFFFFFFFFFF AND SUB PUSH2 0xC6E JUMPI PUSH0 PUSH1 0x40 MLOAD PUSH32 0x1E4FBDF700000000000000000000000000000000000000000000000000000000 DUP2 MSTORE PUSH1 0x4 ADD PUSH2 0xC65 SWAP2 SWAP1 PUSH2 0x15B1 JUMP JUMPDEST PUSH1 0x40 MLOAD DUP1 SWAP2 SUB SWAP1 REVERT JUMPDEST PUSH2 0xC77 DUP2 PUSH2 0xEB3 JUMP JUMPDEST POP JUMP JUMPDEST DUP1 PUSH1 0x1 PUSH0 DUP5 PUSH20 0xFFFFFFFFFFFFFFFFFFFFFFFFFFFFFFFFFFFFFFFF AND PUSH20 0xFFFFFFFFFFFFFFFFFFFFFFFFFFFFFFFFFFFFFFFF AND DUP2 MSTORE PUSH1 0x20 ADD SWAP1 DUP2 MSTORE PUSH1 0x20 ADD PUSH0 KECCAK256 DUP3 DUP2 SLOAD DUP2 LT PUSH2 0xCCA JUMPI PUSH2 0xCC9 PUSH2 0x16E5 JUMP JUMPDEST JUMPDEST SWAP1 PUSH0 MSTORE PUSH1 0x20 PUSH0 KECCAK256 SWAP1 PUSH1 0x5 MUL ADD PUSH1 0x4 ADD SLOAD EQ PUSH2 0xD1A JUMPI PUSH1 0x40 MLOAD PUSH32 0x8C379A000000000000000000000000000000000000000000000000000000000 DUP2 MSTORE PUSH1 0x4 ADD PUSH2 0xD11 SWAP1 PUSH2 0x175C JUMP JUMPDEST PUSH1 0x40 MLOAD DUP1 SWAP2 SUB SWAP1 REVERT JUMPDEST PUSH1 0x1 PUSH0 DUP4 PUSH20 0xFFFFFFFFFFFFFFFFFFFFFFFFFFFFFFFFFFFFFFFF AND PUSH20 0xFFFFFFFFFFFFFFFFFFFFFFFFFFFFFFFFFFFFFFFF AND DUP2 MSTORE PUSH1 0x20 ADD SWAP1 DUP2 MSTORE PUSH1 0x20 ADD PUSH0 KECCAK256 DUP2 DUP2 SLOAD DUP2 LT PUSH2 0xD69 JUMPI PUSH2 0xD68 PUSH2 0x16E5 JUMP JUMPDEST JUMPDEST SWAP1 PUSH0 MSTORE PUSH1 0x20 PUSH0 KECCAK256 SWAP1 PUSH1 0x5 MUL ADD PUSH1 0x3 ADD PUSH0 DUP2 SLOAD DUP1 SWAP3 SWAP2 SWAP1 PUSH2 0xD88 SWAP1 PUSH2 0x1BCA JUMP JUMPDEST SWAP2 SWAP1 POP SSTORE POP PUSH32 0xE8A76FC0F16D11A00D1E93B689B63D76CF60AF914DD3D915375DC41D01A0C3C8 CALLER DUP4 DUP4 PUSH1 0x1 PUSH0 DUP8 PUSH20 0xFFFFFFFFFFFFFFFFFFFFFFFFFFFFFFFFFFFFFFFF AND PUSH20 0xFFFFFFFFFFFFFFFFFFFFFFFFFFFFFFFFFFFFFFFF AND DUP2 MSTORE PUSH1 0x20 ADD SWAP1 DUP2 MSTORE PUSH1 0x20 ADD PUSH0 KECCAK256 DUP6 DUP2 SLOAD DUP2 LT PUSH2 0xE00 JUMPI PUSH2 0xDFF PUSH2 0x16E5 JUMP JUMPDEST JUMPDEST SWAP1 PUSH0 MSTORE PUSH1 0x20 PUSH0 KECCAK256 SWAP1 PUSH1 0x5 MUL ADD PUSH1 0x3 ADD SLOAD PUSH1 0x40 MLOAD PUSH2 0xE20 SWAP5 SWAP4 SWAP3 SWAP2 SWAP1 PUSH2 0x1836 JUMP JUMPDEST PUSH1 0x40 MLOAD DUP1 SWAP2 SUB SWAP1 LOG1 POP POP JUMP JUMPDEST PUSH2 0xE34 PUSH2 0xF74 JUMP JUMPDEST PUSH20 0xFFFFFFFFFFFFFFFFFFFFFFFFFFFFFFFFFFFFFFFF AND PUSH2 0xE52 PUSH2 0xA58 JUMP JUMPDEST PUSH20 0xFFFFFFFFFFFFFFFFFFFFFFFFFFFFFFFFFFFFFFFF AND EQ PUSH2 0xEB1 JUMPI PUSH2 0xE75 PUSH2 0xF74 JUMP JUMPDEST PUSH1 0x40 MLOAD PUSH32 0x118CDAA700000000000000000000000000000000000000000000000000000000 DUP2 MSTORE PUSH1 0x4 ADD PUSH2 0xEA8 SWAP2 SWAP1 PUSH2 0x15B1 JUMP JUMPDEST PUSH1 0x40 MLOAD DUP1 SWAP2 SUB SWAP1 REVERT JUMPDEST JUMP JUMPDEST PUSH0 DUP1 PUSH0 SWAP1 SLOAD SWAP1 PUSH2 0x100 EXP SWAP1 DIV PUSH20 0xFFFFFFFFFFFFFFFFFFFFFFFFFFFFFFFFFFFFFFFF AND SWAP1 POP DUP2 PUSH0 DUP1 PUSH2 0x100 EXP DUP2 SLOAD DUP2 PUSH20 0xFFFFFFFFFFFFFFFFFFFFFFFFFFFFFFFFFFFFFFFF MUL NOT AND SWAP1 DUP4 PUSH20 0xFFFFFFFFFFFFFFFFFFFFFFFFFFFFFFFFFFFFFFFF AND MUL OR SWAP1 SSTORE POP DUP2 PUSH20 0xFFFFFFFFFFFFFFFFFFFFFFFFFFFFFFFFFFFFFFFF AND DUP2 PUSH20 0xFFFFFFFFFFFFFFFFFFFFFFFFFFFFFFFFFFFFFFFF AND PUSH32 0x8BE0079C531659141344CD1FD0A4F28419497F9722A3DAAFE3B4186F6B6457E0 PUSH1 0x40 MLOAD PUSH1 0x40 MLOAD DUP1 SWAP2 SUB SWAP1 LOG3 POP POP JUMP JUMPDEST PUSH0 CALLER SWAP1 POP SWAP1 JUMP JUMPDEST PUSH1 0x40 MLOAD DUP1 PUSH1 0xA0 ADD PUSH1 0x40 MSTORE DUP1 PUSH0 PUSH20 0xFFFFFFFFFFFFFFFFFFFFFFFFFFFFFFFFFFFFFFFF AND DUP2 MSTORE PUSH1 0x20 ADD PUSH1 0x60 DUP2 MSTORE PUSH1 0x20 ADD PUSH0 DUP2 MSTORE PUSH1 0x20 ADD PUSH0 DUP2 MSTORE PUSH1 0x20 ADD PUSH0 DUP2 MSTORE POP SWAP1 JUMP JUMPDEST PUSH0 PUSH1 0x40 MLOAD SWAP1 POP SWAP1 JUMP JUMPDEST PUSH0 DUP1 REVERT JUMPDEST PUSH0 DUP1 REVERT JUMPDEST PUSH0 PUSH20 0xFFFFFFFFFFFFFFFFFFFFFFFFFFFFFFFFFFFFFFFF DUP3 AND SWAP1 POP SWAP2 SWAP1 POP JUMP JUMPDEST PUSH0 PUSH2 0xFF6 DUP3 PUSH2 0xFCD JUMP JUMPDEST SWAP1 POP SWAP2 SWAP1 POP JUMP JUMPDEST PUSH2 0x1006 DUP2 PUSH2 0xFEC JUMP JUMPDEST DUP2 EQ PUSH2 0x1010 JUMPI PUSH0 DUP1 REVERT JUMPDEST POP JUMP JUMPDEST PUSH0 DUP2 CALLDATALOAD SWAP1 POP PUSH2 0x1021 DUP2 PUSH2 0xFFD JUMP JUMPDEST SWAP3 SWAP2 POP POP JUMP JUMPDEST PUSH0 DUP2 SWAP1 POP SWAP2 SWAP1 POP JUMP JUMPDEST PUSH2 0x1039 DUP2 PUSH2 0x1027 JUMP JUMPDEST DUP2 EQ PUSH2 0x1043 JUMPI PUSH0 DUP1 REVERT JUMPDEST POP JUMP JUMPDEST PUSH0 DUP2 CALLDATALOAD SWAP1 POP PUSH2 0x1054 DUP2 PUSH2 0x1030 JUMP JUMPDEST SWAP3 SWAP2 POP POP JUMP JUMPDEST PUSH0 DUP1 PUSH1 0x40 DUP4 DUP6 SUB SLT ISZERO PUSH2 0x1070 JUMPI PUSH2 0x106F PUSH2 0xFC5 JUMP JUMPDEST JUMPDEST PUSH0 PUSH2 0x107D DUP6 DUP3 DUP7 ADD PUSH2 0x1013 JUMP JUMPDEST SWAP3 POP POP PUSH1 0x20 PUSH2 0x108E DUP6 DUP3 DUP7 ADD PUSH2 0x1046 JUMP JUMPDEST SWAP2 POP POP SWAP3 POP SWAP3 SWAP1 POP JUMP JUMPDEST PUSH2 0x10A1 DUP2 PUSH2 0xFEC JUMP JUMPDEST DUP3 MSTORE POP POP JUMP JUMPDEST PUSH0 DUP2 MLOAD SWAP1 POP SWAP2 SWAP1 POP JUMP JUMPDEST PUSH0 DUP3 DUP3 MSTORE PUSH1 0x20 DUP3 ADD SWAP1 POP SWAP3 SWAP2 POP POP JUMP JUMPDEST DUP3 DUP2 DUP4 MCOPY PUSH0 DUP4 DUP4 ADD MSTORE POP POP POP JUMP JUMPDEST PUSH0 PUSH1 0x1F NOT PUSH1 0x1F DUP4 ADD AND SWAP1 POP SWAP2 SWAP1 POP JUMP JUMPDEST PUSH0 PUSH2 0x10E9 DUP3 PUSH2 0x10A7 JUMP JUMPDEST PUSH2 0x10F3 DUP2 DUP6 PUSH2 0x10B1 JUMP JUMPDEST SWAP4 POP PUSH2 0x1103 DUP2 DUP6 PUSH1 0x20 DUP7 ADD PUSH2 0x10C1 JUMP JUMPDEST PUSH2 0x110C DUP2 PUSH2 0x10CF JUMP JUMPDEST DUP5 ADD SWAP2 POP POP SWAP3 SWAP2 POP POP JUMP JUMPDEST PUSH2 0x1120 DUP2 PUSH2 0x1027 JUMP JUMPDEST DUP3 MSTORE POP POP JUMP JUMPDEST PUSH0 PUSH1 0xA0 DUP3 ADD SWAP1 POP PUSH2 0x1139 PUSH0 DUP4 ADD DUP9 PUSH2 0x1098 JUMP JUMPDEST DUP2 DUP2 SUB PUSH1 0x20 DUP4 ADD MSTORE PUSH2 0x114B DUP2 DUP8 PUSH2 0x10DF JUMP JUMPDEST SWAP1 POP PUSH2 0x115A PUSH1 0x40 DUP4 ADD DUP7 PUSH2 0x1117 JUMP JUMPDEST PUSH2 0x1167 PUSH1 0x60 DUP4 ADD DUP6 PUSH2 0x1117 JUMP JUMPDEST PUSH2 0x1174 PUSH1 0x80 DUP4 ADD DUP5 PUSH2 0x1117 JUMP JUMPDEST SWAP7 SWAP6 POP POP POP POP POP POP JUMP JUMPDEST PUSH0 PUSH1 0x20 DUP3 DUP5 SUB SLT ISZERO PUSH2 0x1193 JUMPI PUSH2 0x1192 PUSH2 0xFC5 JUMP JUMPDEST JUMPDEST PUSH0 PUSH2 0x11A0 DUP5 DUP3 DUP6 ADD PUSH2 0x1013 JUMP JUMPDEST SWAP2 POP POP SWAP3 SWAP2 POP POP JUMP JUMPDEST PUSH0 DUP2 MLOAD SWAP1 POP SWAP2 SWAP1 POP JUMP JUMPDEST PUSH0 DUP3 DUP3 MSTORE PUSH1 0x20 DUP3 ADD SWAP1 POP SWAP3 SWAP2 POP POP JUMP JUMPDEST PUSH0 DUP2 SWAP1 POP PUSH1 0x20 DUP3 ADD SWAP1 POP SWAP2 SWAP1 POP JUMP JUMPDEST PUSH2 0x11DB DUP2 PUSH2 0xFEC JUMP JUMPDEST DUP3 MSTORE POP POP JUMP JUMPDEST PUSH0 DUP3 DUP3 MSTORE PUSH1 0x20 DUP3 ADD SWAP1 POP SWAP3 SWAP2 POP POP JUMP JUMPDEST PUSH0 PUSH2 0x11FB DUP3 PUSH2 0x10A7 JUMP JUMPDEST PUSH2 0x1205 DUP2 DUP6 PUSH2 0x11E1 JUMP JUMPDEST SWAP4 POP PUSH2 0x1215 DUP2 DUP6 PUSH1 0x20 DUP7 ADD PUSH2 0x10C1 JUMP JUMPDEST PUSH2 0x121E DUP2 PUSH2 0x10CF JUMP JUMPDEST DUP5 ADD SWAP2 POP POP SWAP3 SWAP2 POP POP JUMP JUMPDEST PUSH2 0x1232 DUP2 PUSH2 0x1027 JUMP JUMPDEST DUP3 MSTORE POP POP JUMP JUMPDEST PUSH0 PUSH1 0xA0 DUP4 ADD PUSH0 DUP4 ADD MLOAD PUSH2 0x124D PUSH0 DUP7 ADD DUP3 PUSH2 0x11D2 JUMP JUMPDEST POP PUSH1 0x20 DUP4 ADD MLOAD DUP5 DUP3 SUB PUSH1 0x20 DUP7 ADD MSTORE PUSH2 0x1265 DUP3 DUP3 PUSH2 0x11F1 JUMP JUMPDEST SWAP2 POP POP PUSH1 0x40 DUP4 ADD MLOAD PUSH2 0x127A PUSH1 0x40 DUP7 ADD DUP3 PUSH2 0x1229 JUMP JUMPDEST POP PUSH1 0x60 DUP4 ADD MLOAD PUSH2 0x128D PUSH1 0x60 DUP7 ADD DUP3 PUSH2 0x1229 JUMP JUMPDEST POP PUSH1 0x80 DUP4 ADD MLOAD PUSH2 0x12A0 PUSH1 0x80 DUP7 ADD DUP3 PUSH2 0x1229 JUMP JUMPDEST POP DUP1 SWAP2 POP POP SWAP3 SWAP2 POP POP JUMP JUMPDEST PUSH0 PUSH2 0x12B6 DUP4 DUP4 PUSH2 0x1238 JUMP JUMPDEST SWAP1 POP SWAP3 SWAP2 POP POP JUMP JUMPDEST PUSH0 PUSH1 0x20 DUP3 ADD SWAP1 POP SWAP2 SWAP1 POP JUMP JUMPDEST PUSH0 PUSH2 0x12D4 DUP3 PUSH2 0x11A9 JUMP JUMPDEST PUSH2 0x12DE DUP2 DUP6 PUSH2 0x11B3 JUMP JUMPDEST SWAP4 POP DUP4 PUSH1 0x20 DUP3 MUL DUP6 ADD PUSH2 0x12F0 DUP6 PUSH2 0x11C3 JUMP JUMPDEST DUP1 PUSH0 JUMPDEST DUP6 DUP2 LT ISZERO PUSH2 0x132B JUMPI DUP5 DUP5 SUB DUP10 MSTORE DUP2 MLOAD PUSH2 0x130C DUP6 DUP3 PUSH2 0x12AB JUMP JUMPDEST SWAP5 POP PUSH2 0x1317 DUP4 PUSH2 0x12BE JUMP JUMPDEST SWAP3 POP PUSH1 0x20 DUP11 ADD SWAP10 POP POP PUSH1 0x1 DUP2 ADD SWAP1 POP PUSH2 0x12F3 JUMP JUMPDEST POP DUP3 SWAP8 POP DUP8 SWAP6 POP POP POP POP POP POP SWAP3 SWAP2 POP POP JUMP JUMPDEST PUSH0 PUSH1 0x20 DUP3 ADD SWAP1 POP DUP2 DUP2 SUB PUSH0 DUP4 ADD MSTORE PUSH2 0x1355 DUP2 DUP5 PUSH2 0x12CA JUMP JUMPDEST SWAP1 POP SWAP3 SWAP2 POP POP JUMP JUMPDEST PUSH0 PUSH2 0xFFFF DUP3 AND SWAP1 POP SWAP2 SWAP1 POP JUMP JUMPDEST PUSH2 0x1373 DUP2 PUSH2 0x135D JUMP JUMPDEST DUP2 EQ PUSH2 0x137D JUMPI PUSH0 DUP1 REVERT JUMPDEST POP JUMP JUMPDEST PUSH0 DUP2 CALLDATALOAD SWAP1 POP PUSH2 0x138E DUP2 PUSH2 0x136A JUMP JUMPDEST SWAP3 SWAP2 POP POP JUMP JUMPDEST PUSH0 PUSH1 0x20 DUP3 DUP5 SUB SLT ISZERO PUSH2 0x13A9 JUMPI PUSH2 0x13A8 PUSH2 0xFC5 JUMP JUMPDEST JUMPDEST PUSH0 PUSH2 0x13B6 DUP5 DUP3 DUP6 ADD PUSH2 0x1380 JUMP JUMPDEST SWAP2 POP POP SWAP3 SWAP2 POP POP JUMP JUMPDEST PUSH2 0x13C8 DUP2 PUSH2 0x135D JUMP JUMPDEST DUP3 MSTORE POP POP JUMP JUMPDEST PUSH0 PUSH1 0x20 DUP3 ADD SWAP1 POP PUSH2 0x13E1 PUSH0 DUP4 ADD DUP5 PUSH2 0x13BF JUMP JUMPDEST SWAP3 SWAP2 POP POP JUMP JUMPDEST PUSH0 DUP1 PUSH1 0x40 DUP4 DUP6 SUB SLT ISZERO PUSH2 0x13FD JUMPI PUSH2 0x13FC PUSH2 0xFC5 JUMP JUMPDEST JUMPDEST PUSH0 PUSH2 0x140A DUP6 DUP3 DUP7 ADD PUSH2 0x1046 JUMP JUMPDEST SWAP3 POP POP PUSH1 0x20 PUSH2 0x141B DUP6 DUP3 DUP7 ADD PUSH2 0x1013 JUMP JUMPDEST SWAP2 POP POP SWAP3 POP SWAP3 SWAP1 POP JUMP JUMPDEST PUSH0 DUP1 REVERT JUMPDEST PUSH0 DUP1 REVERT JUMPDEST PUSH32 0x4E487B7100000000000000000000000000000000000000000000000000000000 PUSH0 MSTORE PUSH1 0x41 PUSH1 0x4 MSTORE PUSH1 0x24 PUSH0 REVERT JUMPDEST PUSH2 0x1463 DUP3 PUSH2 0x10CF JUMP JUMPDEST DUP2 ADD DUP2 DUP2 LT PUSH8 0xFFFFFFFFFFFFFFFF DUP3 GT OR ISZERO PUSH2 0x1482 JUMPI PUSH2 0x1481 PUSH2 0x142D JUMP JUMPDEST JUMPDEST DUP1 PUSH1 0x40 MSTORE POP POP POP JUMP JUMPDEST PUSH0 PUSH2 0x1494 PUSH2 0xFBC JUMP JUMPDEST SWAP1 POP PUSH2 0x14A0 DUP3 DUP3 PUSH2 0x145A JUMP JUMPDEST SWAP2 SWAP1 POP JUMP JUMPDEST PUSH0 PUSH8 0xFFFFFFFFFFFFFFFF DUP3 GT ISZERO PUSH2 0x14BF JUMPI PUSH2 0x14BE PUSH2 0x142D JUMP JUMPDEST JUMPDEST PUSH2 0x14C8 DUP3 PUSH2 0x10CF JUMP JUMPDEST SWAP1 POP PUSH1 0x20 DUP2 ADD SWAP1 POP SWAP2 SWAP1 POP JUMP JUMPDEST DUP3 DUP2 DUP4 CALLDATACOPY PUSH0 DUP4 DUP4 ADD MSTORE POP POP POP JUMP JUMPDEST PUSH0 PUSH2 0x14F5 PUSH2 0x14F0 DUP5 PUSH2 0x14A5 JUMP JUMPDEST PUSH2 0x148B JUMP JUMPDEST SWAP1 POP DUP3 DUP2 MSTORE PUSH1 0x20 DUP2 ADD DUP5 DUP5 DUP5 ADD GT ISZERO PUSH2 0x1511 JUMPI PUSH2 0x1510 PUSH2 0x1429 JUMP JUMPDEST JUMPDEST PUSH2 0x151C DUP5 DUP3 DUP6 PUSH2 0x14D5 JUMP JUMPDEST POP SWAP4 SWAP3 POP POP POP JUMP JUMPDEST PUSH0 DUP3 PUSH1 0x1F DUP4 ADD SLT PUSH2 0x1538 JUMPI PUSH2 0x1537 PUSH2 0x1425 JUMP JUMPDEST JUMPDEST DUP2 CALLDATALOAD PUSH2 0x1548 DUP5 DUP3 PUSH1 0x20 DUP7 ADD PUSH2 0x14E3 JUMP JUMPDEST SWAP2 POP POP SWAP3 SWAP2 POP POP JUMP JUMPDEST PUSH0 PUSH1 0x20 DUP3 DUP5 SUB SLT ISZERO PUSH2 0x1566 JUMPI PUSH2 0x1565 PUSH2 0xFC5 JUMP JUMPDEST JUMPDEST PUSH0 DUP3 ADD CALLDATALOAD PUSH8 0xFFFFFFFFFFFFFFFF DUP2 GT ISZERO PUSH2 0x1583 JUMPI PUSH2 0x1582 PUSH2 0xFC9 JUMP JUMPDEST JUMPDEST PUSH2 0x158F DUP5 DUP3 DUP6 ADD PUSH2 0x1524 JUMP JUMPDEST SWAP2 POP POP SWAP3 SWAP2 POP POP JUMP JUMPDEST PUSH0 PUSH1 0x20 DUP3 ADD SWAP1 POP PUSH2 0x15AB PUSH0 DUP4 ADD DUP5 PUSH2 0x1117 JUMP JUMPDEST SWAP3 SWAP2 POP POP JUMP JUMPDEST PUSH0 PUSH1 0x20 DUP3 ADD SWAP1 POP PUSH2 0x15C4 PUSH0 DUP4 ADD DUP5 PUSH2 0x1098 JUMP JUMPDEST SWAP3 SWAP2 POP POP JUMP JUMPDEST PUSH0 PUSH1 0x20 DUP3 DUP5 SUB SLT ISZERO PUSH2 0x15DF JUMPI PUSH2 0x15DE PUSH2 0xFC5 JUMP JUMPDEST JUMPDEST PUSH0 PUSH2 0x15EC DUP5 DUP3 DUP6 ADD PUSH2 0x1046 JUMP JUMPDEST SWAP2 POP POP SWAP3 SWAP2 POP POP JUMP JUMPDEST PUSH0 PUSH1 0xA0 DUP4 ADD PUSH0 DUP4 ADD MLOAD PUSH2 0x160A PUSH0 DUP7 ADD DUP3 PUSH2 0x11D2 JUMP JUMPDEST POP PUSH1 0x20 DUP4 ADD MLOAD DUP5 DUP3 SUB PUSH1 0x20 DUP7 ADD MSTORE PUSH2 0x1622 DUP3 DUP3 PUSH2 0x11F1 JUMP JUMPDEST SWAP2 POP POP PUSH1 0x40 DUP4 ADD MLOAD PUSH2 0x1637 PUSH1 0x40 DUP7 ADD DUP3 PUSH2 0x1229 JUMP JUMPDEST POP PUSH1 0x60 DUP4 ADD MLOAD PUSH2 0x164A PUSH1 0x60 DUP7 ADD DUP3 PUSH2 0x1229 JUMP JUMPDEST POP PUSH1 0x80 DUP4 ADD MLOAD PUSH2 0x165D PUSH1 0x80 DUP7 ADD DUP3 PUSH2 0x1229 JUMP JUMPDEST POP DUP1 SWAP2 POP POP SWAP3 SWAP2 POP POP JUMP JUMPDEST PUSH0 PUSH1 0x20 DUP3 ADD SWAP1 POP DUP2 DUP2 SUB PUSH0 DUP4 ADD MSTORE PUSH2 0x1680 DUP2 DUP5 PUSH2 0x15F5 JUMP JUMPDEST SWAP1 POP SWAP3 SWAP2 POP POP JUMP JUMPDEST PUSH32 0x4E487B7100000000000000000000000000000000000000000000000000000000 PUSH0 MSTORE PUSH1 0x22 PUSH1 0x4 MSTORE PUSH1 0x24 PUSH0 REVERT JUMPDEST PUSH0 PUSH1 0x2 DUP3 DIV SWAP1 POP PUSH1 0x1 DUP3 AND DUP1 PUSH2 0x16CC JUMPI PUSH1 0x7F DUP3 AND SWAP2 POP JUMPDEST PUSH1 0x20 DUP3 LT DUP2 SUB PUSH2 0x16DF JUMPI PUSH2 0x16DE PUSH2 0x1688 JUMP JUMPDEST JUMPDEST POP SWAP2 SWAP1 POP JUMP JUMPDEST PUSH32 0x4E487B7100000000000000000000000000000000000000000000000000000000 PUSH0 MSTORE PUSH1 0x32 PUSH1 0x4 MSTORE PUSH1 0x24 PUSH0 REVERT JUMPDEST PUSH32 0x4E6965206D612074616B6965676F207477656574750000000000000000000000 PUSH0 DUP3 ADD MSTORE POP JUMP JUMPDEST PUSH0 PUSH2 0x1746 PUSH1 0x15 DUP4 PUSH2 0x10B1 JUMP JUMPDEST SWAP2 POP PUSH2 0x1751 DUP3 PUSH2 0x1712 JUMP JUMPDEST PUSH1 0x20 DUP3 ADD SWAP1 POP SWAP2 SWAP1 POP JUMP JUMPDEST PUSH0 PUSH1 0x20 DUP3 ADD SWAP1 POP DUP2 DUP2 SUB PUSH0 DUP4 ADD MSTORE PUSH2 0x1773 DUP2 PUSH2 0x173A JUMP JUMPDEST SWAP1 POP SWAP2 SWAP1 POP JUMP JUMPDEST PUSH32 0x4E6965206D6F7A65737A207573756E6163206C696B6500000000000000000000 PUSH0 DUP3 ADD MSTORE POP JUMP JUMPDEST PUSH0 PUSH2 0x17AE PUSH1 0x16 DUP4 PUSH2 0x10B1 JUMP JUMPDEST SWAP2 POP PUSH2 0x17B9 DUP3 PUSH2 0x177A JUMP JUMPDEST PUSH1 0x20 DUP3 ADD SWAP1 POP SWAP2 SWAP1 POP JUMP JUMPDEST PUSH0 PUSH1 0x20 DUP3 ADD SWAP1 POP DUP2 DUP2 SUB PUSH0 DUP4 ADD MSTORE PUSH2 0x17DB DUP2 PUSH2 0x17A2 JUMP JUMPDEST SWAP1 POP SWAP2 SWAP1 POP JUMP JUMPDEST PUSH32 0x4E487B7100000000000000000000000000000000000000000000000000000000 PUSH0 MSTORE PUSH1 0x11 PUSH1 0x4 MSTORE PUSH1 0x24 PUSH0 REVERT JUMPDEST PUSH0 PUSH2 0x1819 DUP3 PUSH2 0x1027 JUMP JUMPDEST SWAP2 POP PUSH0 DUP3 SUB PUSH2 0x182B JUMPI PUSH2 0x182A PUSH2 0x17E2 JUMP JUMPDEST JUMPDEST PUSH1 0x1 DUP3 SUB SWAP1 POP SWAP2 SWAP1 POP JUMP JUMPDEST PUSH0 PUSH1 0x80 DUP3 ADD SWAP1 POP PUSH2 0x1849 PUSH0 DUP4 ADD DUP8 PUSH2 0x1098 JUMP JUMPDEST PUSH2 0x1856 PUSH1 0x20 DUP4 ADD DUP7 PUSH2 0x1098 JUMP JUMPDEST PUSH2 0x1863 PUSH1 0x40 DUP4 ADD DUP6 PUSH2 0x1117 JUMP JUMPDEST PUSH2 0x1870 PUSH1 0x60 DUP4 ADD DUP5 PUSH2 0x1117 JUMP JUMPDEST SWAP6 SWAP5 POP POP POP POP POP JUMP JUMPDEST PUSH32 0x4D65737361676520746F206C6F6E670000000000000000000000000000000000 PUSH0 DUP3 ADD MSTORE POP JUMP JUMPDEST PUSH0 PUSH2 0x18AD PUSH1 0xF DUP4 PUSH2 0x10B1 JUMP JUMPDEST SWAP2 POP PUSH2 0x18B8 DUP3 PUSH2 0x1879 JUMP JUMPDEST PUSH1 0x20 DUP3 ADD SWAP1 POP SWAP2 SWAP1 POP JUMP JUMPDEST PUSH0 PUSH1 0x20 DUP3 ADD SWAP1 POP DUP2 DUP2 SUB PUSH0 DUP4 ADD MSTORE PUSH2 0x18DA DUP2 PUSH2 0x18A1 JUMP JUMPDEST SWAP1 POP SWAP2 SWAP1 POP JUMP JUMPDEST PUSH0 DUP2 SWAP1 POP DUP2 PUSH0 MSTORE PUSH1 0x20 PUSH0 KECCAK256 SWAP1 POP SWAP2 SWAP1 POP JUMP JUMPDEST PUSH0 PUSH1 0x20 PUSH1 0x1F DUP4 ADD DIV SWAP1 POP SWAP2 SWAP1 POP JUMP JUMPDEST PUSH0 DUP3 DUP3 SHL SWAP1 POP SWAP3 SWAP2 POP POP JUMP JUMPDEST PUSH0 PUSH1 0x8 DUP4 MUL PUSH2 0x193D PUSH32 0xFFFFFFFFFFFFFFFFFFFFFFFFFFFFFFFFFFFFFFFFFFFFFFFFFFFFFFFFFFFFFFFF DUP3 PUSH2 0x1902 JUMP JUMPDEST PUSH2 0x1947 DUP7 DUP4 PUSH2 0x1902 JUMP JUMPDEST SWAP6 POP DUP1 NOT DUP5 AND SWAP4 POP DUP1 DUP7 AND DUP5 OR SWAP3 POP POP POP SWAP4 SWAP3 POP POP POP JUMP JUMPDEST PUSH0 DUP2 SWAP1 POP SWAP2 SWAP1 POP JUMP JUMPDEST PUSH0 PUSH2 0x1982 PUSH2 0x197D PUSH2 0x1978 DUP5 PUSH2 0x1027 JUMP JUMPDEST PUSH2 0x195F JUMP JUMPDEST PUSH2 0x1027 JUMP JUMPDEST SWAP1 POP SWAP2 SWAP1 POP JUMP JUMPDEST PUSH0 DUP2 SWAP1 POP SWAP2 SWAP1 POP JUMP JUMPDEST PUSH2 0x199B DUP4 PUSH2 0x1968 JUMP JUMPDEST PUSH2 0x19AF PUSH2 0x19A7 DUP3 PUSH2 0x1989 JUMP JUMPDEST DUP5 DUP5 SLOAD PUSH2 0x190E JUMP JUMPDEST DUP3 SSTORE POP POP POP POP JUMP JUMPDEST PUSH0 SWAP1 JUMP JUMPDEST PUSH2 0x19C3 PUSH2 0x19B7 JUMP JUMPDEST PUSH2 0x19CE DUP2 DUP5 DUP5 PUSH2 0x1992 JUMP JUMPDEST POP POP POP JUMP JUMPDEST JUMPDEST DUP2 DUP2 LT ISZERO PUSH2 0x19F1 JUMPI PUSH2 0x19E6 PUSH0 DUP3 PUSH2 0x19BB JUMP JUMPDEST PUSH1 0x1 DUP2 ADD SWAP1 POP PUSH2 0x19D4 JUMP JUMPDEST POP POP JUMP JUMPDEST PUSH1 0x1F DUP3 GT ISZERO PUSH2 0x1A36 JUMPI PUSH2 0x1A07 DUP2 PUSH2 0x18E1 JUMP JUMPDEST PUSH2 0x1A10 DUP5 PUSH2 0x18F3 JUMP JUMPDEST DUP2 ADD PUSH1 0x20 DUP6 LT ISZERO PUSH2 0x1A1F JUMPI DUP2 SWAP1 POP JUMPDEST PUSH2 0x1A33 PUSH2 0x1A2B DUP6 PUSH2 0x18F3 JUMP JUMPDEST DUP4 ADD DUP3 PUSH2 0x19D3 JUMP JUMPDEST POP POP JUMPDEST POP POP POP JUMP JUMPDEST PUSH0 DUP3 DUP3 SHR SWAP1 POP SWAP3 SWAP2 POP POP JUMP JUMPDEST PUSH0 PUSH2 0x1A56 PUSH0 NOT DUP5 PUSH1 0x8 MUL PUSH2 0x1A3B JUMP JUMPDEST NOT DUP1 DUP4 AND SWAP2 POP POP SWAP3 SWAP2 POP POP JUMP JUMPDEST PUSH0 PUSH2 0x1A6E DUP4 DUP4 PUSH2 0x1A47 JUMP JUMPDEST SWAP2 POP DUP3 PUSH1 0x2 MUL DUP3 OR SWAP1 POP SWAP3 SWAP2 POP POP JUMP JUMPDEST PUSH2 0x1A87 DUP3 PUSH2 0x10A7 JUMP JUMPDEST PUSH8 0xFFFFFFFFFFFFFFFF DUP2 GT ISZERO PUSH2 0x1AA0 JUMPI PUSH2 0x1A9F PUSH2 0x142D JUMP JUMPDEST JUMPDEST PUSH2 0x1AAA DUP3 SLOAD PUSH2 0x16B5 JUMP JUMPDEST PUSH2 0x1AB5 DUP3 DUP3 DUP6 PUSH2 0x19F5 JUMP JUMPDEST PUSH0 PUSH1 0x20 SWAP1 POP PUSH1 0x1F DUP4 GT PUSH1 0x1 DUP2 EQ PUSH2 0x1AE6 JUMPI PUSH0 DUP5 ISZERO PUSH2 0x1AD4 JUMPI DUP3 DUP8 ADD MLOAD SWAP1 POP JUMPDEST PUSH2 0x1ADE DUP6 DUP3 PUSH2 0x1A63 JUMP JUMPDEST DUP7 SSTORE POP PUSH2 0x1B45 JUMP JUMPDEST PUSH1 0x1F NOT DUP5 AND PUSH2 0x1AF4 DUP7 PUSH2 0x18E1 JUMP JUMPDEST PUSH0 JUMPDEST DUP3 DUP2 LT ISZERO PUSH2 0x1B1B JUMPI DUP5 DUP10 ADD MLOAD DUP3 SSTORE PUSH1 0x1 DUP3 ADD SWAP2 POP PUSH1 0x20 DUP6 ADD SWAP5 POP PUSH1 0x20 DUP2 ADD SWAP1 POP PUSH2 0x1AF6 JUMP JUMPDEST DUP7 DUP4 LT ISZERO PUSH2 0x1B38 JUMPI DUP5 DUP10 ADD MLOAD PUSH2 0x1B34 PUSH1 0x1F DUP10 AND DUP3 PUSH2 0x1A47 JUMP JUMPDEST DUP4 SSTORE POP JUMPDEST PUSH1 0x1 PUSH1 0x2 DUP9 MUL ADD DUP9 SSTORE POP POP POP JUMPDEST POP POP POP POP POP POP JUMP JUMPDEST PUSH0 PUSH1 0x80 DUP3 ADD SWAP1 POP PUSH2 0x1B60 PUSH0 DUP4 ADD DUP8 PUSH2 0x1117 JUMP JUMPDEST PUSH2 0x1B6D PUSH1 0x20 DUP4 ADD DUP7 PUSH2 0x1098 JUMP JUMPDEST DUP2 DUP2 SUB PUSH1 0x40 DUP4 ADD MSTORE PUSH2 0x1B7F DUP2 DUP6 PUSH2 0x10DF JUMP JUMPDEST SWAP1 POP PUSH2 0x1B8E PUSH1 0x60 DUP4 ADD DUP5 PUSH2 0x1117 JUMP JUMPDEST SWAP6 SWAP5 POP POP POP POP POP JUMP JUMPDEST PUSH0 PUSH2 0x1BA1 DUP3 PUSH2 0x1027 JUMP JUMPDEST SWAP2 POP PUSH2 0x1BAC DUP4 PUSH2 0x1027 JUMP JUMPDEST SWAP3 POP DUP3 DUP3 ADD SWAP1 POP DUP1 DUP3 GT ISZERO PUSH2 0x1BC4 JUMPI PUSH2 0x1BC3 PUSH2 0x17E2 JUMP JUMPDEST JUMPDEST SWAP3 SWAP2 POP POP JUMP JUMPDEST PUSH0 PUSH2 0x1BD4 DUP3 PUSH2 0x1027 JUMP JUMPDEST SWAP2 POP PUSH32 0xFFFFFFFFFFFFFFFFFFFFFFFFFFFFFFFFFFFFFFFFFFFFFFFFFFFFFFFFFFFFFFFF DUP3 SUB PUSH2 0x1C06 JUMPI PUSH2 0x1C05 PUSH2 0x17E2 JUMP JUMPDEST JUMPDEST PUSH1 0x1 DUP3 ADD SWAP1 POP SWAP2 SWAP1 POP JUMP INVALID LOG2 PUSH5 0x6970667358 0x22 SLT KECCAK256 CODECOPY EXTCODEHASH 0xE7 MCOPY 0xC9 SGT 0xD2 SWAP13 PUSH6 0xE4F3B6836975 DUP5 LOG1 SELFBALANCE DELEGATECALL 0xAB LOG0 0xEF PUSH19 0x7E88C73FA57770D57A64736F6C634300081A00 CALLER "
				},
				"gasEstimates": {
					"creation": {
						"codeDepositCost": "1447800",
						"executionCost": "infinite",
						"totalCost": "infinite"
					},
					"external": {
						"MAX_TWEET_LENGTH()": "2583",
						"addLike(address,uint256)": "infinite",
						"changeTweetLength(uint16)": "infinite",
						"createTweet(string)": "infinite",
						"getAllTweets(address)": "infinite",
						"getTotalLikes(address)": "infinite",
						"getTweet(uint256)": "infinite",
						"owner()": "2559",
						"removeLike(uint256,address)": "infinite",
						"renounceOwnership()": "infinite",
						"transferOwnership(address)": "infinite",
						"tweets(address,uint256)": "infinite"
					}
				},
				"methodIdentifiers": {
					"MAX_TWEET_LENGTH()": "6eb10797",
					"addLike(address,uint256)": "f65a8f40",
					"changeTweetLength(uint16)": "58bfa4ab",
					"createTweet(string)": "7c9cd2bc",
					"getAllTweets(address)": "12e7ee1c",
					"getTotalLikes(address)": "820785cc",
					"getTweet(uint256)": "c3ad5ecb",
					"owner()": "8da5cb5b",
					"removeLike(uint256,address)": "7a639e39",
					"renounceOwnership()": "715018a6",
					"transferOwnership(address)": "f2fde38b",
					"tweets(address,uint256)": "05a1b4a9"
				}
			},
			"storageLayout": {
				"storage": [
					{
						"astId": 8,
						"contract": "practice/26_TwitterInheritance.sol:Twitter",
						"label": "_owner",
						"offset": 0,
						"slot": "0",
						"type": "t_address"
					},
					{
						"astId": 185,
						"contract": "practice/26_TwitterInheritance.sol:Twitter",
						"label": "MAX_TWEET_LENGTH",
						"offset": 20,
						"slot": "0",
						"type": "t_uint16"
					},
					{
						"astId": 202,
						"contract": "practice/26_TwitterInheritance.sol:Twitter",
						"label": "tweets",
						"offset": 0,
						"slot": "1",
						"type": "t_mapping(t_address,t_array(t_struct(Tweet)196_storage)dyn_storage)"
					},
					{
						"astId": 431,
						"contract": "practice/26_TwitterInheritance.sol:Twitter",
						"label": "totalLikes",
						"offset": 0,
						"slot": "2",
						"type": "t_uint256"
					}
				],
				"types": {
					"t_address": {
						"encoding": "inplace",
						"label": "address",
						"numberOfBytes": "20"
					},
					"t_array(t_struct(Tweet)196_storage)dyn_storage": {
						"base": "t_struct(Tweet)196_storage",
						"encoding": "dynamic_array",
						"label": "struct Twitter.Tweet[]",
						"numberOfBytes": "32"
					},
					"t_mapping(t_address,t_array(t_struct(Tweet)196_storage)dyn_storage)": {
						"encoding": "mapping",
						"key": "t_address",
						"label": "mapping(address => struct Twitter.Tweet[])",
						"numberOfBytes": "32",
						"value": "t_array(t_struct(Tweet)196_storage)dyn_storage"
					},
					"t_string_storage": {
						"encoding": "bytes",
						"label": "string",
						"numberOfBytes": "32"
					},
					"t_struct(Tweet)196_storage": {
						"encoding": "inplace",
						"label": "struct Twitter.Tweet",
						"members": [
							{
								"astId": 187,
								"contract": "practice/26_TwitterInheritance.sol:Twitter",
								"label": "author",
								"offset": 0,
								"slot": "0",
								"type": "t_address"
							},
							{
								"astId": 189,
								"contract": "practice/26_TwitterInheritance.sol:Twitter",
								"label": "content",
								"offset": 0,
								"slot": "1",
								"type": "t_string_storage"
							},
							{
								"astId": 191,
								"contract": "practice/26_TwitterInheritance.sol:Twitter",
								"label": "timestamp",
								"offset": 0,
								"slot": "2",
								"type": "t_uint256"
							},
							{
								"astId": 193,
								"contract": "practice/26_TwitterInheritance.sol:Twitter",
								"label": "likes",
								"offset": 0,
								"slot": "3",
								"type": "t_uint256"
							},
							{
								"astId": 195,
								"contract": "practice/26_TwitterInheritance.sol:Twitter",
								"label": "id",
								"offset": 0,
								"slot": "4",
								"type": "t_uint256"
							}
						],
						"numberOfBytes": "160"
					},
					"t_uint16": {
						"encoding": "inplace",
						"label": "uint16",
						"numberOfBytes": "2"
					},
					"t_uint256": {
						"encoding": "inplace",
						"label": "uint256",
						"numberOfBytes": "32"
					}
				}
			},
			"userdoc": {
				"kind": "user",
				"methods": {},
				"version": 1
			}
		}
	}
}