{
	"contracts/21_TwitterEvent.sol": {
		"Twitter": {
			"abi": [
				{
					"inputs": [],
					"stateMutability": "nonpayable",
					"type": "constructor"
				},
				{
					"anonymous": false,
					"inputs": [
						{
							"indexed": false,
							"internalType": "uint256",
							"name": "id",
							"type": "uint256"
						},
						{
							"indexed": false,
							"internalType": "address",
							"name": "author",
							"type": "address"
						},
						{
							"indexed": false,
							"internalType": "string",
							"name": "content",
							"type": "string"
						},
						{
							"indexed": false,
							"internalType": "uint256",
							"name": "timestamp",
							"type": "uint256"
						}
					],
					"name": "TweetCreated",
					"type": "event"
				},
				{
					"anonymous": false,
					"inputs": [
						{
							"indexed": false,
							"internalType": "address",
							"name": "liker",
							"type": "address"
						},
						{
							"indexed": false,
							"internalType": "address",
							"name": "tweetAuthor",
							"type": "address"
						},
						{
							"indexed": false,
							"internalType": "uint256",
							"name": "tweetId",
							"type": "uint256"
						},
						{
							"indexed": false,
							"internalType": "uint256",
							"name": "newLikeCount",
							"type": "uint256"
						}
					],
					"name": "TweetLiked",
					"type": "event"
				},
				{
					"anonymous": false,
					"inputs": [
						{
							"indexed": false,
							"internalType": "address",
							"name": "unliker",
							"type": "address"
						},
						{
							"indexed": false,
							"internalType": "address",
							"name": "tweetAuthor",
							"type": "address"
						},
						{
							"indexed": false,
							"internalType": "uint256",
							"name": "tweetId",
							"type": "uint256"
						},
						{
							"indexed": false,
							"internalType": "uint256",
							"name": "newLikeCount",
							"type": "uint256"
						}
					],
					"name": "TweetUnliked",
					"type": "event"
				},
				{
					"inputs": [],
					"name": "MAX_TWEET_LENGTH",
					"outputs": [
						{
							"internalType": "uint16",
							"name": "",
							"type": "uint16"
						}
					],
					"stateMutability": "view",
					"type": "function"
				},
				{
					"inputs": [
						{
							"internalType": "address",
							"name": "author",
							"type": "address"
						},
						{
							"internalType": "uint256",
							"name": "id",
							"type": "uint256"
						}
					],
					"name": "addLike",
					"outputs": [],
					"stateMutability": "nonpayable",
					"type": "function"
				},
				{
					"inputs": [
						{
							"internalType": "uint16",
							"name": "newTweetLength",
							"type": "uint16"
						}
					],
					"name": "changeTweetLength",
					"outputs": [],
					"stateMutability": "nonpayable",
					"type": "function"
				},
				{
					"inputs": [
						{
							"internalType": "string",
							"name": "_tweet",
							"type": "string"
						}
					],
					"name": "createTweet",
					"outputs": [],
					"stateMutability": "nonpayable",
					"type": "function"
				},
				{
					"inputs": [
						{
							"internalType": "address",
							"name": "_owner",
							"type": "address"
						}
					],
					"name": "getAllTweets",
					"outputs": [
						{
							"components": [
								{
									"internalType": "address",
									"name": "author",
									"type": "address"
								},
								{
									"internalType": "string",
									"name": "content",
									"type": "string"
								},
								{
									"internalType": "uint256",
									"name": "timestamp",
									"type": "uint256"
								},
								{
									"internalType": "uint256",
									"name": "likes",
									"type": "uint256"
								},
								{
									"internalType": "uint256",
									"name": "id",
									"type": "uint256"
								}
							],
							"internalType": "struct Twitter.Tweet[]",
							"name": "",
							"type": "tuple[]"
						}
					],
					"stateMutability": "view",
					"type": "function"
				},
				{
					"inputs": [
						{
							"internalType": "uint256",
							"name": "_i",
							"type": "uint256"
						}
					],
					"name": "getTweet",
					"outputs": [
						{
							"components": [
								{
									"internalType": "address",
									"name": "author",
									"type": "address"
								},
								{
									"internalType": "string",
									"name": "content",
									"type": "string"
								},
								{
									"internalType": "uint256",
									"name": "timestamp",
									"type": "uint256"
								},
								{
									"internalType": "uint256",
									"name": "likes",
									"type": "uint256"
								},
								{
									"internalType": "uint256",
									"name": "id",
									"type": "uint256"
								}
							],
							"internalType": "struct Twitter.Tweet",
							"name": "",
							"type": "tuple"
						}
					],
					"stateMutability": "view",
					"type": "function"
				},
				{
					"inputs": [],
					"name": "owner",
					"outputs": [
						{
							"internalType": "address",
							"name": "",
							"type": "address"
						}
					],
					"stateMutability": "view",
					"type": "function"
				},
				{
					"inputs": [
						{
							"internalType": "uint256",
							"name": "id",
							"type": "uint256"
						},
						{
							"internalType": "address",
							"name": "author",
							"type": "address"
						}
					],
					"name": "removeLike",
					"outputs": [],
					"stateMutability": "nonpayable",
					"type": "function"
				},
				{
					"inputs": [
						{
							"internalType": "address",
							"name": "",
							"type": "address"
						},
						{
							"internalType": "uint256",
							"name": "",
							"type": "uint256"
						}
					],
					"name": "tweets",
					"outputs": [
						{
							"internalType": "address",
							"name": "author",
							"type": "address"
						},
						{
							"internalType": "string",
							"name": "content",
							"type": "string"
						},
						{
							"internalType": "uint256",
							"name": "timestamp",
							"type": "uint256"
						},
						{
							"internalType": "uint256",
							"name": "likes",
							"type": "uint256"
						},
						{
							"internalType": "uint256",
							"name": "id",
							"type": "uint256"
						}
					],
					"stateMutability": "view",
					"type": "function"
				}
			],
			"devdoc": {
				"kind": "dev",
				"methods": {},
				"version": 1
			},
			"evm": {
				"assembly": "    /* \"contracts/21_TwitterEvent.sol\":445:2950  contract Twitter {... */\n  mstore(0x40, 0x80)\n    /* \"contracts/21_TwitterEvent.sol\":504:507  280 */\n  0x0118\n    /* \"contracts/21_TwitterEvent.sol\":471:507  uint16 public MAX_TWEET_LENGTH = 280 */\n  0x00\n  dup1\n  0x0100\n  exp\n  dup2\n  sload\n  dup2\n  0xffff\n  mul\n  not\n  and\n  swap1\n  dup4\n  0xffff\n  and\n  mul\n  or\n  swap1\n  sstore\n  pop\n    /* \"contracts/21_TwitterEvent.sol\":744:795  constructor() {... */\n  callvalue\n  dup1\n  iszero\n  tag_1\n  jumpi\n  0x00\n  dup1\n  revert\ntag_1:\n  pop\n    /* \"contracts/21_TwitterEvent.sol\":777:787  msg.sender */\n  caller\n    /* \"contracts/21_TwitterEvent.sol\":769:774  owner */\n  0x02\n  0x00\n    /* \"contracts/21_TwitterEvent.sol\":769:787  owner = msg.sender */\n  0x0100\n  exp\n  dup2\n  sload\n  dup2\n  0xffffffffffffffffffffffffffffffffffffffff\n  mul\n  not\n  and\n  swap1\n  dup4\n  0xffffffffffffffffffffffffffffffffffffffff\n  and\n  mul\n  or\n  swap1\n  sstore\n  pop\n    /* \"contracts/21_TwitterEvent.sol\":445:2950  contract Twitter {... */\n  dataSize(sub_0)\n  dup1\n  dataOffset(sub_0)\n  0x00\n  codecopy\n  0x00\n  return\nstop\n\nsub_0: assembly {\n        /* \"contracts/21_TwitterEvent.sol\":445:2950  contract Twitter {... */\n      mstore(0x40, 0x80)\n      callvalue\n      dup1\n      iszero\n      tag_1\n      jumpi\n      0x00\n      dup1\n      revert\n    tag_1:\n      pop\n      jumpi(tag_2, lt(calldatasize, 0x04))\n      shr(0xe0, calldataload(0x00))\n      dup1\n      0x7a639e39\n      gt\n      tag_12\n      jumpi\n      dup1\n      0x7a639e39\n      eq\n      tag_7\n      jumpi\n      dup1\n      0x7c9cd2bc\n      eq\n      tag_8\n      jumpi\n      dup1\n      0x8da5cb5b\n      eq\n      tag_9\n      jumpi\n      dup1\n      0xc3ad5ecb\n      eq\n      tag_10\n      jumpi\n      dup1\n      0xf65a8f40\n      eq\n      tag_11\n      jumpi\n      jump(tag_2)\n    tag_12:\n      dup1\n      0x05a1b4a9\n      eq\n      tag_3\n      jumpi\n      dup1\n      0x12e7ee1c\n      eq\n      tag_4\n      jumpi\n      dup1\n      0x58bfa4ab\n      eq\n      tag_5\n      jumpi\n      dup1\n      0x6eb10797\n      eq\n      tag_6\n      jumpi\n    tag_2:\n      0x00\n      dup1\n      revert\n        /* \"contracts/21_TwitterEvent.sol\":666:708  mapping(address => Tweet[] ) public tweets */\n    tag_3:\n      tag_13\n      0x04\n      dup1\n      calldatasize\n      sub\n      dup2\n      add\n      swap1\n      tag_14\n      swap2\n      swap1\n      tag_15\n      jump\t// in\n    tag_14:\n      tag_16\n      jump\t// in\n    tag_13:\n      mload(0x40)\n      tag_17\n      swap6\n      swap5\n      swap4\n      swap3\n      swap2\n      swap1\n      tag_18\n      jump\t// in\n    tag_17:\n      mload(0x40)\n      dup1\n      swap2\n      sub\n      swap1\n      return\n        /* \"contracts/21_TwitterEvent.sol\":2041:2156  function getAllTweets(address _owner) public view returns (Tweet[] memory ){... */\n    tag_4:\n      tag_19\n      0x04\n      dup1\n      calldatasize\n      sub\n      dup2\n      add\n      swap1\n      tag_20\n      swap2\n      swap1\n      tag_21\n      jump\t// in\n    tag_20:\n      tag_22\n      jump\t// in\n    tag_19:\n      mload(0x40)\n      tag_23\n      swap2\n      swap1\n      tag_24\n      jump\t// in\n    tag_23:\n      mload(0x40)\n      dup1\n      swap2\n      sub\n      swap1\n      return\n        /* \"contracts/21_TwitterEvent.sol\":1205:1324  function changeTweetLength(uint16 newTweetLength) public onlyOwner {... */\n    tag_5:\n      tag_25\n      0x04\n      dup1\n      calldatasize\n      sub\n      dup2\n      add\n      swap1\n      tag_26\n      swap2\n      swap1\n      tag_27\n      jump\t// in\n    tag_26:\n      tag_28\n      jump\t// in\n    tag_25:\n      stop\n        /* \"contracts/21_TwitterEvent.sol\":471:507  uint16 public MAX_TWEET_LENGTH = 280 */\n    tag_6:\n      tag_29\n      tag_30\n      jump\t// in\n    tag_29:\n      mload(0x40)\n      tag_31\n      swap2\n      swap1\n      tag_32\n      jump\t// in\n    tag_31:\n      mload(0x40)\n      dup1\n      swap2\n      sub\n      swap1\n      return\n        /* \"contracts/21_TwitterEvent.sol\":2616:2945  function removeLike (uint256 id, address author) external {... */\n    tag_7:\n      tag_33\n      0x04\n      dup1\n      calldatasize\n      sub\n      dup2\n      add\n      swap1\n      tag_34\n      swap2\n      swap1\n      tag_35\n      jump\t// in\n    tag_34:\n      tag_36\n      jump\t// in\n    tag_33:\n      stop\n        /* \"contracts/21_TwitterEvent.sol\":1332:1914  function createTweet(string memory _tweet) public {... */\n    tag_8:\n      tag_37\n      0x04\n      dup1\n      calldatasize\n      sub\n      dup2\n      add\n      swap1\n      tag_38\n      swap2\n      swap1\n      tag_39\n      jump\t// in\n    tag_38:\n      tag_40\n      jump\t// in\n    tag_37:\n      stop\n        /* \"contracts/21_TwitterEvent.sol\":715:735  address public owner */\n    tag_9:\n      tag_41\n      tag_42\n      jump\t// in\n    tag_41:\n      mload(0x40)\n      tag_43\n      swap2\n      swap1\n      tag_44\n      jump\t// in\n    tag_43:\n      mload(0x40)\n      dup1\n      swap2\n      sub\n      swap1\n      return\n        /* \"contracts/21_TwitterEvent.sol\":1922:2033  function getTweet( uint _i) public view returns (Tweet memory) {... */\n    tag_10:\n      tag_45\n      0x04\n      dup1\n      calldatasize\n      sub\n      dup2\n      add\n      swap1\n      tag_46\n      swap2\n      swap1\n      tag_47\n      jump\t// in\n    tag_46:\n      tag_48\n      jump\t// in\n    tag_45:\n      mload(0x40)\n      tag_49\n      swap2\n      swap1\n      tag_50\n      jump\t// in\n    tag_49:\n      mload(0x40)\n      dup1\n      swap2\n      sub\n      swap1\n      return\n        /* \"contracts/21_TwitterEvent.sol\":2164:2608  function addLike (address author, uint256 id) external {... */\n    tag_11:\n      tag_51\n      0x04\n      dup1\n      calldatasize\n      sub\n      dup2\n      add\n      swap1\n      tag_52\n      swap2\n      swap1\n      tag_15\n      jump\t// in\n    tag_52:\n      tag_53\n      jump\t// in\n    tag_51:\n      stop\n        /* \"contracts/21_TwitterEvent.sol\":666:708  mapping(address => Tweet[] ) public tweets */\n    tag_16:\n      mstore(0x20, 0x01)\n      dup2\n      0x00\n      mstore\n      keccak256(0x00, 0x40)\n      dup2\n      dup2\n      sload\n      dup2\n      lt\n      tag_54\n      jumpi\n      0x00\n      dup1\n      revert\n    tag_54:\n      swap1\n      0x00\n      mstore\n      keccak256(0x00, 0x20)\n      swap1\n      0x05\n      mul\n      add\n      0x00\n      swap2\n      pop\n      swap2\n      pop\n      pop\n      dup1\n      0x00\n      add\n      0x00\n      swap1\n      sload\n      swap1\n      0x0100\n      exp\n      swap1\n      div\n      0xffffffffffffffffffffffffffffffffffffffff\n      and\n      swap1\n      dup1\n      0x01\n      add\n      dup1\n      sload\n      tag_56\n      swap1\n      tag_57\n      jump\t// in\n    tag_56:\n      dup1\n      0x1f\n      add\n      0x20\n      dup1\n      swap2\n      div\n      mul\n      0x20\n      add\n      mload(0x40)\n      swap1\n      dup2\n      add\n      0x40\n      mstore\n      dup1\n      swap3\n      swap2\n      swap1\n      dup2\n      dup2\n      mstore\n      0x20\n      add\n      dup3\n      dup1\n      sload\n      tag_58\n      swap1\n      tag_57\n      jump\t// in\n    tag_58:\n      dup1\n      iszero\n      tag_59\n      jumpi\n      dup1\n      0x1f\n      lt\n      tag_60\n      jumpi\n      0x0100\n      dup1\n      dup4\n      sload\n      div\n      mul\n      dup4\n      mstore\n      swap2\n      0x20\n      add\n      swap2\n      jump(tag_59)\n    tag_60:\n      dup3\n      add\n      swap2\n      swap1\n      0x00\n      mstore\n      keccak256(0x00, 0x20)\n      swap1\n    tag_61:\n      dup2\n      sload\n      dup2\n      mstore\n      swap1\n      0x01\n      add\n      swap1\n      0x20\n      add\n      dup1\n      dup4\n      gt\n      tag_61\n      jumpi\n      dup3\n      swap1\n      sub\n      0x1f\n      and\n      dup3\n      add\n      swap2\n    tag_59:\n      pop\n      pop\n      pop\n      pop\n      pop\n      swap1\n      dup1\n      0x02\n      add\n      sload\n      swap1\n      dup1\n      0x03\n      add\n      sload\n      swap1\n      dup1\n      0x04\n      add\n      sload\n      swap1\n      pop\n      dup6\n      jump\t// out\n        /* \"contracts/21_TwitterEvent.sol\":2041:2156  function getAllTweets(address _owner) public view returns (Tweet[] memory ){... */\n    tag_22:\n        /* \"contracts/21_TwitterEvent.sol\":2100:2114  Tweet[] memory */\n      0x60\n        /* \"contracts/21_TwitterEvent.sol\":2134:2140  tweets */\n      0x01\n        /* \"contracts/21_TwitterEvent.sol\":2134:2148  tweets[_owner] */\n      0x00\n        /* \"contracts/21_TwitterEvent.sol\":2141:2147  _owner */\n      dup4\n        /* \"contracts/21_TwitterEvent.sol\":2134:2148  tweets[_owner] */\n      0xffffffffffffffffffffffffffffffffffffffff\n      and\n      0xffffffffffffffffffffffffffffffffffffffff\n      and\n      dup2\n      mstore\n      0x20\n      add\n      swap1\n      dup2\n      mstore\n      0x20\n      add\n      0x00\n      keccak256\n        /* \"contracts/21_TwitterEvent.sol\":2127:2148  return tweets[_owner] */\n      dup1\n      sload\n      dup1\n      0x20\n      mul\n      0x20\n      add\n      mload(0x40)\n      swap1\n      dup2\n      add\n      0x40\n      mstore\n      dup1\n      swap3\n      swap2\n      swap1\n      dup2\n      dup2\n      mstore\n      0x20\n      add\n      0x00\n      swap1\n    tag_63:\n      dup3\n      dup3\n      lt\n      iszero\n      tag_64\n      jumpi\n      dup4\n      dup3\n      swap1\n      0x00\n      mstore\n      keccak256(0x00, 0x20)\n      swap1\n      0x05\n      mul\n      add\n      mload(0x40)\n      dup1\n      0xa0\n      add\n      0x40\n      mstore\n      swap1\n      dup2\n      0x00\n      dup3\n      add\n      0x00\n      swap1\n      sload\n      swap1\n      0x0100\n      exp\n      swap1\n      div\n      0xffffffffffffffffffffffffffffffffffffffff\n      and\n      0xffffffffffffffffffffffffffffffffffffffff\n      and\n      0xffffffffffffffffffffffffffffffffffffffff\n      and\n      dup2\n      mstore\n      0x20\n      add\n      0x01\n      dup3\n      add\n      dup1\n      sload\n      tag_66\n      swap1\n      tag_57\n      jump\t// in\n    tag_66:\n      dup1\n      0x1f\n      add\n      0x20\n      dup1\n      swap2\n      div\n      mul\n      0x20\n      add\n      mload(0x40)\n      swap1\n      dup2\n      add\n      0x40\n      mstore\n      dup1\n      swap3\n      swap2\n      swap1\n      dup2\n      dup2\n      mstore\n      0x20\n      add\n      dup3\n      dup1\n      sload\n      tag_67\n      swap1\n      tag_57\n      jump\t// in\n    tag_67:\n      dup1\n      iszero\n      tag_68\n      jumpi\n      dup1\n      0x1f\n      lt\n      tag_69\n      jumpi\n      0x0100\n      dup1\n      dup4\n      sload\n      div\n      mul\n      dup4\n      mstore\n      swap2\n      0x20\n      add\n      swap2\n      jump(tag_68)\n    tag_69:\n      dup3\n      add\n      swap2\n      swap1\n      0x00\n      mstore\n      keccak256(0x00, 0x20)\n      swap1\n    tag_70:\n      dup2\n      sload\n      dup2\n      mstore\n      swap1\n      0x01\n      add\n      swap1\n      0x20\n      add\n      dup1\n      dup4\n      gt\n      tag_70\n      jumpi\n      dup3\n      swap1\n      sub\n      0x1f\n      and\n      dup3\n      add\n      swap2\n    tag_68:\n      pop\n      pop\n      pop\n      pop\n      pop\n      dup2\n      mstore\n      0x20\n      add\n      0x02\n      dup3\n      add\n      sload\n      dup2\n      mstore\n      0x20\n      add\n      0x03\n      dup3\n      add\n      sload\n      dup2\n      mstore\n      0x20\n      add\n      0x04\n      dup3\n      add\n      sload\n      dup2\n      mstore\n      pop\n      pop\n      dup2\n      mstore\n      0x20\n      add\n      swap1\n      0x01\n      add\n      swap1\n      jump(tag_63)\n    tag_64:\n      pop\n      pop\n      pop\n      pop\n      swap1\n      pop\n        /* \"contracts/21_TwitterEvent.sol\":2041:2156  function getAllTweets(address _owner) public view returns (Tweet[] memory ){... */\n      swap2\n      swap1\n      pop\n      jump\t// out\n        /* \"contracts/21_TwitterEvent.sol\":1205:1324  function changeTweetLength(uint16 newTweetLength) public onlyOwner {... */\n    tag_28:\n        /* \"contracts/21_TwitterEvent.sol\":1154:1159  owner */\n      0x02\n      0x00\n      swap1\n      sload\n      swap1\n      0x0100\n      exp\n      swap1\n      div\n      0xffffffffffffffffffffffffffffffffffffffff\n      and\n        /* \"contracts/21_TwitterEvent.sol\":1140:1159  msg.sender == owner */\n      0xffffffffffffffffffffffffffffffffffffffff\n      and\n        /* \"contracts/21_TwitterEvent.sol\":1140:1150  msg.sender */\n      caller\n        /* \"contracts/21_TwitterEvent.sol\":1140:1159  msg.sender == owner */\n      0xffffffffffffffffffffffffffffffffffffffff\n      and\n      eq\n        /* \"contracts/21_TwitterEvent.sol\":1132:1177  require(msg.sender == owner, \"Not the owner\") */\n      tag_72\n      jumpi\n      mload(0x40)\n      0x08c379a000000000000000000000000000000000000000000000000000000000\n      dup2\n      mstore\n      0x04\n      add\n      tag_73\n      swap1\n      tag_74\n      jump\t// in\n    tag_73:\n      mload(0x40)\n      dup1\n      swap2\n      sub\n      swap1\n      revert\n    tag_72:\n        /* \"contracts/21_TwitterEvent.sol\":1302:1316  newTweetLength */\n      dup1\n        /* \"contracts/21_TwitterEvent.sol\":1283:1299  MAX_TWEET_LENGTH */\n      0x00\n      dup1\n        /* \"contracts/21_TwitterEvent.sol\":1283:1316  MAX_TWEET_LENGTH = newTweetLength */\n      0x0100\n      exp\n      dup2\n      sload\n      dup2\n      0xffff\n      mul\n      not\n      and\n      swap1\n      dup4\n      0xffff\n      and\n      mul\n      or\n      swap1\n      sstore\n      pop\n        /* \"contracts/21_TwitterEvent.sol\":1205:1324  function changeTweetLength(uint16 newTweetLength) public onlyOwner {... */\n      pop\n      jump\t// out\n        /* \"contracts/21_TwitterEvent.sol\":471:507  uint16 public MAX_TWEET_LENGTH = 280 */\n    tag_30:\n      0x00\n      dup1\n      sload\n      swap1\n      0x0100\n      exp\n      swap1\n      div\n      0xffff\n      and\n      dup2\n      jump\t// out\n        /* \"contracts/21_TwitterEvent.sol\":2616:2945  function removeLike (uint256 id, address author) external {... */\n    tag_36:\n        /* \"contracts/21_TwitterEvent.sol\":2718:2720  id */\n      dup2\n        /* \"contracts/21_TwitterEvent.sol\":2693:2699  tweets */\n      0x01\n        /* \"contracts/21_TwitterEvent.sol\":2693:2707  tweets[author] */\n      0x00\n        /* \"contracts/21_TwitterEvent.sol\":2700:2706  author */\n      dup4\n        /* \"contracts/21_TwitterEvent.sol\":2693:2707  tweets[author] */\n      0xffffffffffffffffffffffffffffffffffffffff\n      and\n      0xffffffffffffffffffffffffffffffffffffffff\n      and\n      dup2\n      mstore\n      0x20\n      add\n      swap1\n      dup2\n      mstore\n      0x20\n      add\n      0x00\n      keccak256\n        /* \"contracts/21_TwitterEvent.sol\":2708:2710  id */\n      dup4\n        /* \"contracts/21_TwitterEvent.sol\":2693:2711  tweets[author][id] */\n      dup2\n      sload\n      dup2\n      lt\n      tag_77\n      jumpi\n      tag_78\n      tag_79\n      jump\t// in\n    tag_78:\n    tag_77:\n      swap1\n      0x00\n      mstore\n      keccak256(0x00, 0x20)\n      swap1\n      0x05\n      mul\n      add\n        /* \"contracts/21_TwitterEvent.sol\":2693:2714  tweets[author][id].id */\n      0x04\n      add\n      sload\n        /* \"contracts/21_TwitterEvent.sol\":2693:2720  tweets[author][id].id == id */\n      eq\n        /* \"contracts/21_TwitterEvent.sol\":2685:2746  require(tweets[author][id].id == id, \"Nie ma takiego tweetu\") */\n      tag_81\n      jumpi\n      mload(0x40)\n      0x08c379a000000000000000000000000000000000000000000000000000000000\n      dup2\n      mstore\n      0x04\n      add\n      tag_82\n      swap1\n      tag_83\n      jump\t// in\n    tag_82:\n      mload(0x40)\n      dup1\n      swap2\n      sub\n      swap1\n      revert\n    tag_81:\n        /* \"contracts/21_TwitterEvent.sol\":2792:2793  0 */\n      0x00\n        /* \"contracts/21_TwitterEvent.sol\":2765:2771  tweets */\n      0x01\n        /* \"contracts/21_TwitterEvent.sol\":2765:2779  tweets[author] */\n      0x00\n        /* \"contracts/21_TwitterEvent.sol\":2772:2778  author */\n      dup4\n        /* \"contracts/21_TwitterEvent.sol\":2765:2779  tweets[author] */\n      0xffffffffffffffffffffffffffffffffffffffff\n      and\n      0xffffffffffffffffffffffffffffffffffffffff\n      and\n      dup2\n      mstore\n      0x20\n      add\n      swap1\n      dup2\n      mstore\n      0x20\n      add\n      0x00\n      keccak256\n        /* \"contracts/21_TwitterEvent.sol\":2780:2782  id */\n      dup4\n        /* \"contracts/21_TwitterEvent.sol\":2765:2783  tweets[author][id] */\n      dup2\n      sload\n      dup2\n      lt\n      tag_84\n      jumpi\n      tag_85\n      tag_79\n      jump\t// in\n    tag_85:\n    tag_84:\n      swap1\n      0x00\n      mstore\n      keccak256(0x00, 0x20)\n      swap1\n      0x05\n      mul\n      add\n        /* \"contracts/21_TwitterEvent.sol\":2765:2789  tweets[author][id].likes */\n      0x03\n      add\n      sload\n        /* \"contracts/21_TwitterEvent.sol\":2765:2793  tweets[author][id].likes > 0 */\n      gt\n        /* \"contracts/21_TwitterEvent.sol\":2757:2820  require(tweets[author][id].likes > 0, \"Nie mozesz usunac like\") */\n      tag_87\n      jumpi\n      mload(0x40)\n      0x08c379a000000000000000000000000000000000000000000000000000000000\n      dup2\n      mstore\n      0x04\n      add\n      tag_88\n      swap1\n      tag_89\n      jump\t// in\n    tag_88:\n      mload(0x40)\n      dup1\n      swap2\n      sub\n      swap1\n      revert\n    tag_87:\n        /* \"contracts/21_TwitterEvent.sol\":2831:2837  tweets */\n      0x01\n        /* \"contracts/21_TwitterEvent.sol\":2831:2845  tweets[author] */\n      0x00\n        /* \"contracts/21_TwitterEvent.sol\":2838:2844  author */\n      dup3\n        /* \"contracts/21_TwitterEvent.sol\":2831:2845  tweets[author] */\n      0xffffffffffffffffffffffffffffffffffffffff\n      and\n      0xffffffffffffffffffffffffffffffffffffffff\n      and\n      dup2\n      mstore\n      0x20\n      add\n      swap1\n      dup2\n      mstore\n      0x20\n      add\n      0x00\n      keccak256\n        /* \"contracts/21_TwitterEvent.sol\":2846:2848  id */\n      dup3\n        /* \"contracts/21_TwitterEvent.sol\":2831:2849  tweets[author][id] */\n      dup2\n      sload\n      dup2\n      lt\n      tag_90\n      jumpi\n      tag_91\n      tag_79\n      jump\t// in\n    tag_91:\n    tag_90:\n      swap1\n      0x00\n      mstore\n      keccak256(0x00, 0x20)\n      swap1\n      0x05\n      mul\n      add\n        /* \"contracts/21_TwitterEvent.sol\":2831:2855  tweets[author][id].likes */\n      0x03\n      add\n      0x00\n        /* \"contracts/21_TwitterEvent.sol\":2831:2857  tweets[author][id].likes-- */\n      dup2\n      sload\n      dup1\n      swap3\n      swap2\n      swap1\n      tag_93\n      swap1\n      tag_94\n      jump\t// in\n    tag_93:\n      swap2\n      swap1\n      pop\n      sstore\n      pop\n        /* \"contracts/21_TwitterEvent.sol\":2875:2937  TweetUnliked(msg.sender, author, id, tweets[author][id].likes) */\n      0x762c2616349603ac16eba0de8e6141b79129a07ab63bd99e0a80b3a471716943\n        /* \"contracts/21_TwitterEvent.sol\":2888:2898  msg.sender */\n      caller\n        /* \"contracts/21_TwitterEvent.sol\":2900:2906  author */\n      dup3\n        /* \"contracts/21_TwitterEvent.sol\":2908:2910  id */\n      dup5\n        /* \"contracts/21_TwitterEvent.sol\":2912:2918  tweets */\n      0x01\n        /* \"contracts/21_TwitterEvent.sol\":2912:2926  tweets[author] */\n      0x00\n        /* \"contracts/21_TwitterEvent.sol\":2919:2925  author */\n      dup7\n        /* \"contracts/21_TwitterEvent.sol\":2912:2926  tweets[author] */\n      0xffffffffffffffffffffffffffffffffffffffff\n      and\n      0xffffffffffffffffffffffffffffffffffffffff\n      and\n      dup2\n      mstore\n      0x20\n      add\n      swap1\n      dup2\n      mstore\n      0x20\n      add\n      0x00\n      keccak256\n        /* \"contracts/21_TwitterEvent.sol\":2927:2929  id */\n      dup7\n        /* \"contracts/21_TwitterEvent.sol\":2912:2930  tweets[author][id] */\n      dup2\n      sload\n      dup2\n      lt\n      tag_95\n      jumpi\n      tag_96\n      tag_79\n      jump\t// in\n    tag_96:\n    tag_95:\n      swap1\n      0x00\n      mstore\n      keccak256(0x00, 0x20)\n      swap1\n      0x05\n      mul\n      add\n        /* \"contracts/21_TwitterEvent.sol\":2912:2936  tweets[author][id].likes */\n      0x03\n      add\n      sload\n        /* \"contracts/21_TwitterEvent.sol\":2875:2937  TweetUnliked(msg.sender, author, id, tweets[author][id].likes) */\n      mload(0x40)\n      tag_98\n      swap5\n      swap4\n      swap3\n      swap2\n      swap1\n      tag_99\n      jump\t// in\n    tag_98:\n      mload(0x40)\n      dup1\n      swap2\n      sub\n      swap1\n      log1\n        /* \"contracts/21_TwitterEvent.sol\":2616:2945  function removeLike (uint256 id, address author) external {... */\n      pop\n      pop\n      jump\t// out\n        /* \"contracts/21_TwitterEvent.sol\":1332:1914  function createTweet(string memory _tweet) public {... */\n    tag_40:\n        /* \"contracts/21_TwitterEvent.sol\":1425:1441  MAX_TWEET_LENGTH */\n      0x00\n      dup1\n      sload\n      swap1\n      0x0100\n      exp\n      swap1\n      div\n      0xffff\n      and\n        /* \"contracts/21_TwitterEvent.sol\":1401:1441  bytes(_tweet).length <= MAX_TWEET_LENGTH */\n      0xffff\n      and\n        /* \"contracts/21_TwitterEvent.sol\":1407:1413  _tweet */\n      dup2\n        /* \"contracts/21_TwitterEvent.sol\":1401:1421  bytes(_tweet).length */\n      mload\n        /* \"contracts/21_TwitterEvent.sol\":1401:1441  bytes(_tweet).length <= MAX_TWEET_LENGTH */\n      gt\n      iszero\n        /* \"contracts/21_TwitterEvent.sol\":1393:1462  require(bytes(_tweet).length <= MAX_TWEET_LENGTH, \"Message to long\" ) */\n      tag_101\n      jumpi\n      mload(0x40)\n      0x08c379a000000000000000000000000000000000000000000000000000000000\n      dup2\n      mstore\n      0x04\n      add\n      tag_102\n      swap1\n      tag_103\n      jump\t// in\n    tag_102:\n      mload(0x40)\n      dup1\n      swap2\n      sub\n      swap1\n      revert\n    tag_101:\n        /* \"contracts/21_TwitterEvent.sol\":1475:1496  Tweet memory newTweet */\n      0x00\n        /* \"contracts/21_TwitterEvent.sol\":1499:1688  Tweet({... */\n      mload(0x40)\n      dup1\n      0xa0\n      add\n      0x40\n      mstore\n      dup1\n        /* \"contracts/21_TwitterEvent.sol\":1528:1538  msg.sender */\n      caller\n        /* \"contracts/21_TwitterEvent.sol\":1499:1688  Tweet({... */\n      0xffffffffffffffffffffffffffffffffffffffff\n      and\n      dup2\n      mstore\n      0x20\n      add\n        /* \"contracts/21_TwitterEvent.sol\":1562:1568  _tweet */\n      dup4\n        /* \"contracts/21_TwitterEvent.sol\":1499:1688  Tweet({... */\n      dup2\n      mstore\n      0x20\n      add\n        /* \"contracts/21_TwitterEvent.sol\":1594:1609  block.timestamp */\n      timestamp\n        /* \"contracts/21_TwitterEvent.sol\":1499:1688  Tweet({... */\n      dup2\n      mstore\n      0x20\n      add\n        /* \"contracts/21_TwitterEvent.sol\":1631:1632  0 */\n      0x00\n        /* \"contracts/21_TwitterEvent.sol\":1499:1688  Tweet({... */\n      dup2\n      mstore\n      0x20\n      add\n        /* \"contracts/21_TwitterEvent.sol\":1651:1657  tweets */\n      0x01\n        /* \"contracts/21_TwitterEvent.sol\":1651:1669  tweets[msg.sender] */\n      0x00\n        /* \"contracts/21_TwitterEvent.sol\":1658:1668  msg.sender */\n      caller\n        /* \"contracts/21_TwitterEvent.sol\":1651:1669  tweets[msg.sender] */\n      0xffffffffffffffffffffffffffffffffffffffff\n      and\n      0xffffffffffffffffffffffffffffffffffffffff\n      and\n      dup2\n      mstore\n      0x20\n      add\n      swap1\n      dup2\n      mstore\n      0x20\n      add\n      0x00\n      keccak256\n        /* \"contracts/21_TwitterEvent.sol\":1651:1676  tweets[msg.sender].length */\n      dup1\n      sload\n      swap1\n      pop\n        /* \"contracts/21_TwitterEvent.sol\":1499:1688  Tweet({... */\n      dup2\n      mstore\n      pop\n        /* \"contracts/21_TwitterEvent.sol\":1475:1688  Tweet memory newTweet = Tweet({... */\n      swap1\n      pop\n        /* \"contracts/21_TwitterEvent.sol\":1701:1707  tweets */\n      0x01\n        /* \"contracts/21_TwitterEvent.sol\":1701:1719  tweets[msg.sender] */\n      0x00\n        /* \"contracts/21_TwitterEvent.sol\":1708:1718  msg.sender */\n      caller\n        /* \"contracts/21_TwitterEvent.sol\":1701:1719  tweets[msg.sender] */\n      0xffffffffffffffffffffffffffffffffffffffff\n      and\n      0xffffffffffffffffffffffffffffffffffffffff\n      and\n      dup2\n      mstore\n      0x20\n      add\n      swap1\n      dup2\n      mstore\n      0x20\n      add\n      0x00\n      keccak256\n        /* \"contracts/21_TwitterEvent.sol\":1725:1733  newTweet */\n      dup2\n        /* \"contracts/21_TwitterEvent.sol\":1701:1734  tweets[msg.sender].push(newTweet) */\n      swap1\n      dup1\n      0x01\n      dup2\n      sload\n      add\n      dup1\n      dup3\n      sstore\n      dup1\n      swap2\n      pop\n      pop\n      0x01\n      swap1\n      sub\n      swap1\n      0x00\n      mstore\n      keccak256(0x00, 0x20)\n      swap1\n      0x05\n      mul\n      add\n      0x00\n      swap1\n      swap2\n      swap1\n      swap2\n      swap1\n      swap2\n      pop\n      0x00\n      dup3\n      add\n      mload\n      dup2\n      0x00\n      add\n      exp(0x0100, 0x00)\n      dup2\n      sload\n      dup2\n      0xffffffffffffffffffffffffffffffffffffffff\n      mul\n      not\n      and\n      swap1\n      dup4\n      0xffffffffffffffffffffffffffffffffffffffff\n      and\n      mul\n      or\n      swap1\n      sstore\n      pop\n      0x20\n      dup3\n      add\n      mload\n      dup2\n      0x01\n      add\n      swap1\n      dup2\n      tag_105\n      swap2\n      swap1\n      tag_106\n      jump\t// in\n    tag_105:\n      pop\n      0x40\n      dup3\n      add\n      mload\n      dup2\n      0x02\n      add\n      sstore\n      0x60\n      dup3\n      add\n      mload\n      dup2\n      0x03\n      add\n      sstore\n      0x80\n      dup3\n      add\n      mload\n      dup2\n      0x04\n      add\n      sstore\n      pop\n      pop\n        /* \"contracts/21_TwitterEvent.sol\":1825:1906  TweetCreated (newTweet.id, newTweet.author, newTweet.content, newTweet.timestamp) */\n      0x16fd3c13e9d46923e0a8bce11c7b473ec508a72e6c96cd2404b29ce972afc29e\n        /* \"contracts/21_TwitterEvent.sol\":1839:1847  newTweet */\n      dup2\n        /* \"contracts/21_TwitterEvent.sol\":1839:1850  newTweet.id */\n      0x80\n      add\n      mload\n        /* \"contracts/21_TwitterEvent.sol\":1852:1860  newTweet */\n      dup3\n        /* \"contracts/21_TwitterEvent.sol\":1852:1867  newTweet.author */\n      0x00\n      add\n      mload\n        /* \"contracts/21_TwitterEvent.sol\":1869:1877  newTweet */\n      dup4\n        /* \"contracts/21_TwitterEvent.sol\":1869:1885  newTweet.content */\n      0x20\n      add\n      mload\n        /* \"contracts/21_TwitterEvent.sol\":1887:1895  newTweet */\n      dup5\n        /* \"contracts/21_TwitterEvent.sol\":1887:1905  newTweet.timestamp */\n      0x40\n      add\n      mload\n        /* \"contracts/21_TwitterEvent.sol\":1825:1906  TweetCreated (newTweet.id, newTweet.author, newTweet.content, newTweet.timestamp) */\n      mload(0x40)\n      tag_107\n      swap5\n      swap4\n      swap3\n      swap2\n      swap1\n      tag_108\n      jump\t// in\n    tag_107:\n      mload(0x40)\n      dup1\n      swap2\n      sub\n      swap1\n      log1\n        /* \"contracts/21_TwitterEvent.sol\":1382:1914  {... */\n      pop\n        /* \"contracts/21_TwitterEvent.sol\":1332:1914  function createTweet(string memory _tweet) public {... */\n      pop\n      jump\t// out\n        /* \"contracts/21_TwitterEvent.sol\":715:735  address public owner */\n    tag_42:\n      0x02\n      0x00\n      swap1\n      sload\n      swap1\n      0x0100\n      exp\n      swap1\n      div\n      0xffffffffffffffffffffffffffffffffffffffff\n      and\n      dup2\n      jump\t// out\n        /* \"contracts/21_TwitterEvent.sol\":1922:2033  function getTweet( uint _i) public view returns (Tweet memory) {... */\n    tag_48:\n        /* \"contracts/21_TwitterEvent.sol\":1971:1983  Tweet memory */\n      tag_109\n      tag_110\n      jump\t// in\n    tag_109:\n        /* \"contracts/21_TwitterEvent.sol\":2003:2009  tweets */\n      0x01\n        /* \"contracts/21_TwitterEvent.sol\":2003:2021  tweets[msg.sender] */\n      0x00\n        /* \"contracts/21_TwitterEvent.sol\":2010:2020  msg.sender */\n      caller\n        /* \"contracts/21_TwitterEvent.sol\":2003:2021  tweets[msg.sender] */\n      0xffffffffffffffffffffffffffffffffffffffff\n      and\n      0xffffffffffffffffffffffffffffffffffffffff\n      and\n      dup2\n      mstore\n      0x20\n      add\n      swap1\n      dup2\n      mstore\n      0x20\n      add\n      0x00\n      keccak256\n        /* \"contracts/21_TwitterEvent.sol\":2022:2024  _i */\n      dup3\n        /* \"contracts/21_TwitterEvent.sol\":2003:2025  tweets[msg.sender][_i] */\n      dup2\n      sload\n      dup2\n      lt\n      tag_112\n      jumpi\n      tag_113\n      tag_79\n      jump\t// in\n    tag_113:\n    tag_112:\n      swap1\n      0x00\n      mstore\n      keccak256(0x00, 0x20)\n      swap1\n      0x05\n      mul\n      add\n        /* \"contracts/21_TwitterEvent.sol\":1996:2025  return tweets[msg.sender][_i] */\n      mload(0x40)\n      dup1\n      0xa0\n      add\n      0x40\n      mstore\n      swap1\n      dup2\n      0x00\n      dup3\n      add\n      0x00\n      swap1\n      sload\n      swap1\n      0x0100\n      exp\n      swap1\n      div\n      0xffffffffffffffffffffffffffffffffffffffff\n      and\n      0xffffffffffffffffffffffffffffffffffffffff\n      and\n      0xffffffffffffffffffffffffffffffffffffffff\n      and\n      dup2\n      mstore\n      0x20\n      add\n      0x01\n      dup3\n      add\n      dup1\n      sload\n      tag_115\n      swap1\n      tag_57\n      jump\t// in\n    tag_115:\n      dup1\n      0x1f\n      add\n      0x20\n      dup1\n      swap2\n      div\n      mul\n      0x20\n      add\n      mload(0x40)\n      swap1\n      dup2\n      add\n      0x40\n      mstore\n      dup1\n      swap3\n      swap2\n      swap1\n      dup2\n      dup2\n      mstore\n      0x20\n      add\n      dup3\n      dup1\n      sload\n      tag_116\n      swap1\n      tag_57\n      jump\t// in\n    tag_116:\n      dup1\n      iszero\n      tag_117\n      jumpi\n      dup1\n      0x1f\n      lt\n      tag_118\n      jumpi\n      0x0100\n      dup1\n      dup4\n      sload\n      div\n      mul\n      dup4\n      mstore\n      swap2\n      0x20\n      add\n      swap2\n      jump(tag_117)\n    tag_118:\n      dup3\n      add\n      swap2\n      swap1\n      0x00\n      mstore\n      keccak256(0x00, 0x20)\n      swap1\n    tag_119:\n      dup2\n      sload\n      dup2\n      mstore\n      swap1\n      0x01\n      add\n      swap1\n      0x20\n      add\n      dup1\n      dup4\n      gt\n      tag_119\n      jumpi\n      dup3\n      swap1\n      sub\n      0x1f\n      and\n      dup3\n      add\n      swap2\n    tag_117:\n      pop\n      pop\n      pop\n      pop\n      pop\n      dup2\n      mstore\n      0x20\n      add\n      0x02\n      dup3\n      add\n      sload\n      dup2\n      mstore\n      0x20\n      add\n      0x03\n      dup3\n      add\n      sload\n      dup2\n      mstore\n      0x20\n      add\n      0x04\n      dup3\n      add\n      sload\n      dup2\n      mstore\n      pop\n      pop\n      swap1\n      pop\n        /* \"contracts/21_TwitterEvent.sol\":1922:2033  function getTweet( uint _i) public view returns (Tweet memory) {... */\n      swap2\n      swap1\n      pop\n      jump\t// out\n        /* \"contracts/21_TwitterEvent.sol\":2164:2608  function addLike (address author, uint256 id) external {... */\n    tag_53:\n        /* \"contracts/21_TwitterEvent.sol\":2267:2272  owner */\n      0x02\n      0x00\n      swap1\n      sload\n      swap1\n      0x0100\n      exp\n      swap1\n      div\n      0xffffffffffffffffffffffffffffffffffffffff\n      and\n        /* \"contracts/21_TwitterEvent.sol\":2238:2272  tweets[author][id].author != owner */\n      0xffffffffffffffffffffffffffffffffffffffff\n      and\n        /* \"contracts/21_TwitterEvent.sol\":2238:2244  tweets */\n      0x01\n        /* \"contracts/21_TwitterEvent.sol\":2238:2252  tweets[author] */\n      0x00\n        /* \"contracts/21_TwitterEvent.sol\":2245:2251  author */\n      dup5\n        /* \"contracts/21_TwitterEvent.sol\":2238:2252  tweets[author] */\n      0xffffffffffffffffffffffffffffffffffffffff\n      and\n      0xffffffffffffffffffffffffffffffffffffffff\n      and\n      dup2\n      mstore\n      0x20\n      add\n      swap1\n      dup2\n      mstore\n      0x20\n      add\n      0x00\n      keccak256\n        /* \"contracts/21_TwitterEvent.sol\":2253:2255  id */\n      dup3\n        /* \"contracts/21_TwitterEvent.sol\":2238:2256  tweets[author][id] */\n      dup2\n      sload\n      dup2\n      lt\n      tag_121\n      jumpi\n      tag_122\n      tag_79\n      jump\t// in\n    tag_122:\n    tag_121:\n      swap1\n      0x00\n      mstore\n      keccak256(0x00, 0x20)\n      swap1\n      0x05\n      mul\n      add\n        /* \"contracts/21_TwitterEvent.sol\":2238:2263  tweets[author][id].author */\n      0x00\n      add\n      0x00\n      swap1\n      sload\n      swap1\n      0x0100\n      exp\n      swap1\n      div\n      0xffffffffffffffffffffffffffffffffffffffff\n      and\n        /* \"contracts/21_TwitterEvent.sol\":2238:2272  tweets[author][id].author != owner */\n      0xffffffffffffffffffffffffffffffffffffffff\n      and\n      sub\n        /* \"contracts/21_TwitterEvent.sol\":2230:2332  require(tweets[author][id].author != owner, \"Jestes wlasciwosciem, nie mozesz likowac wlasnego posta\") */\n      tag_124\n      jumpi\n      mload(0x40)\n      0x08c379a000000000000000000000000000000000000000000000000000000000\n      dup2\n      mstore\n      0x04\n      add\n      tag_125\n      swap1\n      tag_126\n      jump\t// in\n    tag_125:\n      mload(0x40)\n      dup1\n      swap2\n      sub\n      swap1\n      revert\n    tag_124:\n        /* \"contracts/21_TwitterEvent.sol\":2376:2378  id */\n      dup1\n        /* \"contracts/21_TwitterEvent.sol\":2351:2357  tweets */\n      0x01\n        /* \"contracts/21_TwitterEvent.sol\":2351:2365  tweets[author] */\n      0x00\n        /* \"contracts/21_TwitterEvent.sol\":2358:2364  author */\n      dup5\n        /* \"contracts/21_TwitterEvent.sol\":2351:2365  tweets[author] */\n      0xffffffffffffffffffffffffffffffffffffffff\n      and\n      0xffffffffffffffffffffffffffffffffffffffff\n      and\n      dup2\n      mstore\n      0x20\n      add\n      swap1\n      dup2\n      mstore\n      0x20\n      add\n      0x00\n      keccak256\n        /* \"contracts/21_TwitterEvent.sol\":2366:2368  id */\n      dup3\n        /* \"contracts/21_TwitterEvent.sol\":2351:2369  tweets[author][id] */\n      dup2\n      sload\n      dup2\n      lt\n      tag_127\n      jumpi\n      tag_128\n      tag_79\n      jump\t// in\n    tag_128:\n    tag_127:\n      swap1\n      0x00\n      mstore\n      keccak256(0x00, 0x20)\n      swap1\n      0x05\n      mul\n      add\n        /* \"contracts/21_TwitterEvent.sol\":2351:2372  tweets[author][id].id */\n      0x04\n      add\n      sload\n        /* \"contracts/21_TwitterEvent.sol\":2351:2378  tweets[author][id].id == id */\n      eq\n        /* \"contracts/21_TwitterEvent.sol\":2343:2404  require(tweets[author][id].id == id, \"Nie ma takiego tweetu\") */\n      tag_130\n      jumpi\n      mload(0x40)\n      0x08c379a000000000000000000000000000000000000000000000000000000000\n      dup2\n      mstore\n      0x04\n      add\n      tag_131\n      swap1\n      tag_83\n      jump\t// in\n    tag_131:\n      mload(0x40)\n      dup1\n      swap2\n      sub\n      swap1\n      revert\n    tag_130:\n        /* \"contracts/21_TwitterEvent.sol\":2415:2421  tweets */\n      0x01\n        /* \"contracts/21_TwitterEvent.sol\":2415:2429  tweets[author] */\n      0x00\n        /* \"contracts/21_TwitterEvent.sol\":2422:2428  author */\n      dup4\n        /* \"contracts/21_TwitterEvent.sol\":2415:2429  tweets[author] */\n      0xffffffffffffffffffffffffffffffffffffffff\n      and\n      0xffffffffffffffffffffffffffffffffffffffff\n      and\n      dup2\n      mstore\n      0x20\n      add\n      swap1\n      dup2\n      mstore\n      0x20\n      add\n      0x00\n      keccak256\n        /* \"contracts/21_TwitterEvent.sol\":2430:2432  id */\n      dup2\n        /* \"contracts/21_TwitterEvent.sol\":2415:2433  tweets[author][id] */\n      dup2\n      sload\n      dup2\n      lt\n      tag_132\n      jumpi\n      tag_133\n      tag_79\n      jump\t// in\n    tag_133:\n    tag_132:\n      swap1\n      0x00\n      mstore\n      keccak256(0x00, 0x20)\n      swap1\n      0x05\n      mul\n      add\n        /* \"contracts/21_TwitterEvent.sol\":2415:2439  tweets[author][id].likes */\n      0x03\n      add\n      0x00\n        /* \"contracts/21_TwitterEvent.sol\":2415:2441  tweets[author][id].likes++ */\n      dup2\n      sload\n      dup1\n      swap3\n      swap2\n      swap1\n      tag_135\n      swap1\n      tag_136\n      jump\t// in\n    tag_135:\n      swap2\n      swap1\n      pop\n      sstore\n      pop\n        /* \"contracts/21_TwitterEvent.sol\":2539:2600  TweetLiked (msg.sender, author, id, tweets[author][id].likes) */\n      0xe8a76fc0f16d11a00d1e93b689b63d76cf60af914dd3d915375dc41d01a0c3c8\n        /* \"contracts/21_TwitterEvent.sol\":2551:2561  msg.sender */\n      caller\n        /* \"contracts/21_TwitterEvent.sol\":2563:2569  author */\n      dup4\n        /* \"contracts/21_TwitterEvent.sol\":2571:2573  id */\n      dup4\n        /* \"contracts/21_TwitterEvent.sol\":2575:2581  tweets */\n      0x01\n        /* \"contracts/21_TwitterEvent.sol\":2575:2589  tweets[author] */\n      0x00\n        /* \"contracts/21_TwitterEvent.sol\":2582:2588  author */\n      dup8\n        /* \"contracts/21_TwitterEvent.sol\":2575:2589  tweets[author] */\n      0xffffffffffffffffffffffffffffffffffffffff\n      and\n      0xffffffffffffffffffffffffffffffffffffffff\n      and\n      dup2\n      mstore\n      0x20\n      add\n      swap1\n      dup2\n      mstore\n      0x20\n      add\n      0x00\n      keccak256\n        /* \"contracts/21_TwitterEvent.sol\":2590:2592  id */\n      dup6\n        /* \"contracts/21_TwitterEvent.sol\":2575:2593  tweets[author][id] */\n      dup2\n      sload\n      dup2\n      lt\n      tag_137\n      jumpi\n      tag_138\n      tag_79\n      jump\t// in\n    tag_138:\n    tag_137:\n      swap1\n      0x00\n      mstore\n      keccak256(0x00, 0x20)\n      swap1\n      0x05\n      mul\n      add\n        /* \"contracts/21_TwitterEvent.sol\":2575:2599  tweets[author][id].likes */\n      0x03\n      add\n      sload\n        /* \"contracts/21_TwitterEvent.sol\":2539:2600  TweetLiked (msg.sender, author, id, tweets[author][id].likes) */\n      mload(0x40)\n      tag_140\n      swap5\n      swap4\n      swap3\n      swap2\n      swap1\n      tag_99\n      jump\t// in\n    tag_140:\n      mload(0x40)\n      dup1\n      swap2\n      sub\n      swap1\n      log1\n        /* \"contracts/21_TwitterEvent.sol\":2164:2608  function addLike (address author, uint256 id) external {... */\n      pop\n      pop\n      jump\t// out\n    tag_110:\n      mload(0x40)\n      dup1\n      0xa0\n      add\n      0x40\n      mstore\n      dup1\n      and(0xffffffffffffffffffffffffffffffffffffffff, 0x00)\n      dup2\n      mstore\n      0x20\n      add\n      0x60\n      dup2\n      mstore\n      0x20\n      add\n      0x00\n      dup2\n      mstore\n      0x20\n      add\n      0x00\n      dup2\n      mstore\n      0x20\n      add\n      0x00\n      dup2\n      mstore\n      pop\n      swap1\n      jump\t// out\n        /* \"#utility.yul\":7:82   */\n    tag_141:\n        /* \"#utility.yul\":40:46   */\n      0x00\n        /* \"#utility.yul\":73:75   */\n      0x40\n        /* \"#utility.yul\":67:76   */\n      mload\n        /* \"#utility.yul\":57:76   */\n      swap1\n      pop\n        /* \"#utility.yul\":7:82   */\n      swap1\n      jump\t// out\n        /* \"#utility.yul\":88:205   */\n    tag_142:\n        /* \"#utility.yul\":197:198   */\n      0x00\n        /* \"#utility.yul\":194:195   */\n      dup1\n        /* \"#utility.yul\":187:199   */\n      revert\n        /* \"#utility.yul\":211:328   */\n    tag_143:\n        /* \"#utility.yul\":320:321   */\n      0x00\n        /* \"#utility.yul\":317:318   */\n      dup1\n        /* \"#utility.yul\":310:322   */\n      revert\n        /* \"#utility.yul\":334:460   */\n    tag_144:\n        /* \"#utility.yul\":371:378   */\n      0x00\n        /* \"#utility.yul\":411:453   */\n      0xffffffffffffffffffffffffffffffffffffffff\n        /* \"#utility.yul\":404:409   */\n      dup3\n        /* \"#utility.yul\":400:454   */\n      and\n        /* \"#utility.yul\":389:454   */\n      swap1\n      pop\n        /* \"#utility.yul\":334:460   */\n      swap2\n      swap1\n      pop\n      jump\t// out\n        /* \"#utility.yul\":466:562   */\n    tag_145:\n        /* \"#utility.yul\":503:510   */\n      0x00\n        /* \"#utility.yul\":532:556   */\n      tag_216\n        /* \"#utility.yul\":550:555   */\n      dup3\n        /* \"#utility.yul\":532:556   */\n      tag_144\n      jump\t// in\n    tag_216:\n        /* \"#utility.yul\":521:556   */\n      swap1\n      pop\n        /* \"#utility.yul\":466:562   */\n      swap2\n      swap1\n      pop\n      jump\t// out\n        /* \"#utility.yul\":568:690   */\n    tag_146:\n        /* \"#utility.yul\":641:665   */\n      tag_218\n        /* \"#utility.yul\":659:664   */\n      dup2\n        /* \"#utility.yul\":641:665   */\n      tag_145\n      jump\t// in\n    tag_218:\n        /* \"#utility.yul\":634:639   */\n      dup2\n        /* \"#utility.yul\":631:666   */\n      eq\n        /* \"#utility.yul\":621:684   */\n      tag_219\n      jumpi\n        /* \"#utility.yul\":680:681   */\n      0x00\n        /* \"#utility.yul\":677:678   */\n      dup1\n        /* \"#utility.yul\":670:682   */\n      revert\n        /* \"#utility.yul\":621:684   */\n    tag_219:\n        /* \"#utility.yul\":568:690   */\n      pop\n      jump\t// out\n        /* \"#utility.yul\":696:835   */\n    tag_147:\n        /* \"#utility.yul\":742:747   */\n      0x00\n        /* \"#utility.yul\":780:786   */\n      dup2\n        /* \"#utility.yul\":767:787   */\n      calldataload\n        /* \"#utility.yul\":758:787   */\n      swap1\n      pop\n        /* \"#utility.yul\":796:829   */\n      tag_221\n        /* \"#utility.yul\":823:828   */\n      dup2\n        /* \"#utility.yul\":796:829   */\n      tag_146\n      jump\t// in\n    tag_221:\n        /* \"#utility.yul\":696:835   */\n      swap3\n      swap2\n      pop\n      pop\n      jump\t// out\n        /* \"#utility.yul\":841:918   */\n    tag_148:\n        /* \"#utility.yul\":878:885   */\n      0x00\n        /* \"#utility.yul\":907:912   */\n      dup2\n        /* \"#utility.yul\":896:912   */\n      swap1\n      pop\n        /* \"#utility.yul\":841:918   */\n      swap2\n      swap1\n      pop\n      jump\t// out\n        /* \"#utility.yul\":924:1046   */\n    tag_149:\n        /* \"#utility.yul\":997:1021   */\n      tag_224\n        /* \"#utility.yul\":1015:1020   */\n      dup2\n        /* \"#utility.yul\":997:1021   */\n      tag_148\n      jump\t// in\n    tag_224:\n        /* \"#utility.yul\":990:995   */\n      dup2\n        /* \"#utility.yul\":987:1022   */\n      eq\n        /* \"#utility.yul\":977:1040   */\n      tag_225\n      jumpi\n        /* \"#utility.yul\":1036:1037   */\n      0x00\n        /* \"#utility.yul\":1033:1034   */\n      dup1\n        /* \"#utility.yul\":1026:1038   */\n      revert\n        /* \"#utility.yul\":977:1040   */\n    tag_225:\n        /* \"#utility.yul\":924:1046   */\n      pop\n      jump\t// out\n        /* \"#utility.yul\":1052:1191   */\n    tag_150:\n        /* \"#utility.yul\":1098:1103   */\n      0x00\n        /* \"#utility.yul\":1136:1142   */\n      dup2\n        /* \"#utility.yul\":1123:1143   */\n      calldataload\n        /* \"#utility.yul\":1114:1143   */\n      swap1\n      pop\n        /* \"#utility.yul\":1152:1185   */\n      tag_227\n        /* \"#utility.yul\":1179:1184   */\n      dup2\n        /* \"#utility.yul\":1152:1185   */\n      tag_149\n      jump\t// in\n    tag_227:\n        /* \"#utility.yul\":1052:1191   */\n      swap3\n      swap2\n      pop\n      pop\n      jump\t// out\n        /* \"#utility.yul\":1197:1671   */\n    tag_15:\n        /* \"#utility.yul\":1265:1271   */\n      0x00\n        /* \"#utility.yul\":1273:1279   */\n      dup1\n        /* \"#utility.yul\":1322:1324   */\n      0x40\n        /* \"#utility.yul\":1310:1319   */\n      dup4\n        /* \"#utility.yul\":1301:1308   */\n      dup6\n        /* \"#utility.yul\":1297:1320   */\n      sub\n        /* \"#utility.yul\":1293:1325   */\n      slt\n        /* \"#utility.yul\":1290:1409   */\n      iszero\n      tag_229\n      jumpi\n        /* \"#utility.yul\":1328:1407   */\n      tag_230\n      tag_142\n      jump\t// in\n    tag_230:\n        /* \"#utility.yul\":1290:1409   */\n    tag_229:\n        /* \"#utility.yul\":1448:1449   */\n      0x00\n        /* \"#utility.yul\":1473:1526   */\n      tag_231\n        /* \"#utility.yul\":1518:1525   */\n      dup6\n        /* \"#utility.yul\":1509:1515   */\n      dup3\n        /* \"#utility.yul\":1498:1507   */\n      dup7\n        /* \"#utility.yul\":1494:1516   */\n      add\n        /* \"#utility.yul\":1473:1526   */\n      tag_147\n      jump\t// in\n    tag_231:\n        /* \"#utility.yul\":1463:1526   */\n      swap3\n      pop\n        /* \"#utility.yul\":1419:1536   */\n      pop\n        /* \"#utility.yul\":1575:1577   */\n      0x20\n        /* \"#utility.yul\":1601:1654   */\n      tag_232\n        /* \"#utility.yul\":1646:1653   */\n      dup6\n        /* \"#utility.yul\":1637:1643   */\n      dup3\n        /* \"#utility.yul\":1626:1635   */\n      dup7\n        /* \"#utility.yul\":1622:1644   */\n      add\n        /* \"#utility.yul\":1601:1654   */\n      tag_150\n      jump\t// in\n    tag_232:\n        /* \"#utility.yul\":1591:1654   */\n      swap2\n      pop\n        /* \"#utility.yul\":1546:1664   */\n      pop\n        /* \"#utility.yul\":1197:1671   */\n      swap3\n      pop\n      swap3\n      swap1\n      pop\n      jump\t// out\n        /* \"#utility.yul\":1677:1795   */\n    tag_151:\n        /* \"#utility.yul\":1764:1788   */\n      tag_234\n        /* \"#utility.yul\":1782:1787   */\n      dup2\n        /* \"#utility.yul\":1764:1788   */\n      tag_145\n      jump\t// in\n    tag_234:\n        /* \"#utility.yul\":1759:1762   */\n      dup3\n        /* \"#utility.yul\":1752:1789   */\n      mstore\n        /* \"#utility.yul\":1677:1795   */\n      pop\n      pop\n      jump\t// out\n        /* \"#utility.yul\":1801:1900   */\n    tag_152:\n        /* \"#utility.yul\":1853:1859   */\n      0x00\n        /* \"#utility.yul\":1887:1892   */\n      dup2\n        /* \"#utility.yul\":1881:1893   */\n      mload\n        /* \"#utility.yul\":1871:1893   */\n      swap1\n      pop\n        /* \"#utility.yul\":1801:1900   */\n      swap2\n      swap1\n      pop\n      jump\t// out\n        /* \"#utility.yul\":1906:2075   */\n    tag_153:\n        /* \"#utility.yul\":1990:2001   */\n      0x00\n        /* \"#utility.yul\":2024:2030   */\n      dup3\n        /* \"#utility.yul\":2019:2022   */\n      dup3\n        /* \"#utility.yul\":2012:2031   */\n      mstore\n        /* \"#utility.yul\":2064:2068   */\n      0x20\n        /* \"#utility.yul\":2059:2062   */\n      dup3\n        /* \"#utility.yul\":2055:2069   */\n      add\n        /* \"#utility.yul\":2040:2069   */\n      swap1\n      pop\n        /* \"#utility.yul\":1906:2075   */\n      swap3\n      swap2\n      pop\n      pop\n      jump\t// out\n        /* \"#utility.yul\":2081:2220   */\n    tag_154:\n        /* \"#utility.yul\":2170:2176   */\n      dup3\n        /* \"#utility.yul\":2165:2168   */\n      dup2\n        /* \"#utility.yul\":2160:2163   */\n      dup4\n        /* \"#utility.yul\":2154:2177   */\n      mcopy\n        /* \"#utility.yul\":2211:2212   */\n      0x00\n        /* \"#utility.yul\":2202:2208   */\n      dup4\n        /* \"#utility.yul\":2197:2200   */\n      dup4\n        /* \"#utility.yul\":2193:2209   */\n      add\n        /* \"#utility.yul\":2186:2213   */\n      mstore\n        /* \"#utility.yul\":2081:2220   */\n      pop\n      pop\n      pop\n      jump\t// out\n        /* \"#utility.yul\":2226:2328   */\n    tag_155:\n        /* \"#utility.yul\":2267:2273   */\n      0x00\n        /* \"#utility.yul\":2318:2320   */\n      0x1f\n        /* \"#utility.yul\":2314:2321   */\n      not\n        /* \"#utility.yul\":2309:2311   */\n      0x1f\n        /* \"#utility.yul\":2302:2307   */\n      dup4\n        /* \"#utility.yul\":2298:2312   */\n      add\n        /* \"#utility.yul\":2294:2322   */\n      and\n        /* \"#utility.yul\":2284:2322   */\n      swap1\n      pop\n        /* \"#utility.yul\":2226:2328   */\n      swap2\n      swap1\n      pop\n      jump\t// out\n        /* \"#utility.yul\":2334:2711   */\n    tag_156:\n        /* \"#utility.yul\":2422:2425   */\n      0x00\n        /* \"#utility.yul\":2450:2489   */\n      tag_240\n        /* \"#utility.yul\":2483:2488   */\n      dup3\n        /* \"#utility.yul\":2450:2489   */\n      tag_152\n      jump\t// in\n    tag_240:\n        /* \"#utility.yul\":2505:2576   */\n      tag_241\n        /* \"#utility.yul\":2569:2575   */\n      dup2\n        /* \"#utility.yul\":2564:2567   */\n      dup6\n        /* \"#utility.yul\":2505:2576   */\n      tag_153\n      jump\t// in\n    tag_241:\n        /* \"#utility.yul\":2498:2576   */\n      swap4\n      pop\n        /* \"#utility.yul\":2585:2650   */\n      tag_242\n        /* \"#utility.yul\":2643:2649   */\n      dup2\n        /* \"#utility.yul\":2638:2641   */\n      dup6\n        /* \"#utility.yul\":2631:2635   */\n      0x20\n        /* \"#utility.yul\":2624:2629   */\n      dup7\n        /* \"#utility.yul\":2620:2636   */\n      add\n        /* \"#utility.yul\":2585:2650   */\n      tag_154\n      jump\t// in\n    tag_242:\n        /* \"#utility.yul\":2675:2704   */\n      tag_243\n        /* \"#utility.yul\":2697:2703   */\n      dup2\n        /* \"#utility.yul\":2675:2704   */\n      tag_155\n      jump\t// in\n    tag_243:\n        /* \"#utility.yul\":2670:2673   */\n      dup5\n        /* \"#utility.yul\":2666:2705   */\n      add\n        /* \"#utility.yul\":2659:2705   */\n      swap2\n      pop\n        /* \"#utility.yul\":2426:2711   */\n      pop\n        /* \"#utility.yul\":2334:2711   */\n      swap3\n      swap2\n      pop\n      pop\n      jump\t// out\n        /* \"#utility.yul\":2717:2835   */\n    tag_157:\n        /* \"#utility.yul\":2804:2828   */\n      tag_245\n        /* \"#utility.yul\":2822:2827   */\n      dup2\n        /* \"#utility.yul\":2804:2828   */\n      tag_148\n      jump\t// in\n    tag_245:\n        /* \"#utility.yul\":2799:2802   */\n      dup3\n        /* \"#utility.yul\":2792:2829   */\n      mstore\n        /* \"#utility.yul\":2717:2835   */\n      pop\n      pop\n      jump\t// out\n        /* \"#utility.yul\":2841:3596   */\n    tag_18:\n        /* \"#utility.yul\":3066:3070   */\n      0x00\n        /* \"#utility.yul\":3104:3107   */\n      0xa0\n        /* \"#utility.yul\":3093:3102   */\n      dup3\n        /* \"#utility.yul\":3089:3108   */\n      add\n        /* \"#utility.yul\":3081:3108   */\n      swap1\n      pop\n        /* \"#utility.yul\":3118:3189   */\n      tag_247\n        /* \"#utility.yul\":3186:3187   */\n      0x00\n        /* \"#utility.yul\":3175:3184   */\n      dup4\n        /* \"#utility.yul\":3171:3188   */\n      add\n        /* \"#utility.yul\":3162:3168   */\n      dup9\n        /* \"#utility.yul\":3118:3189   */\n      tag_151\n      jump\t// in\n    tag_247:\n        /* \"#utility.yul\":3236:3245   */\n      dup2\n        /* \"#utility.yul\":3230:3234   */\n      dup2\n        /* \"#utility.yul\":3226:3246   */\n      sub\n        /* \"#utility.yul\":3221:3223   */\n      0x20\n        /* \"#utility.yul\":3210:3219   */\n      dup4\n        /* \"#utility.yul\":3206:3224   */\n      add\n        /* \"#utility.yul\":3199:3247   */\n      mstore\n        /* \"#utility.yul\":3264:3342   */\n      tag_248\n        /* \"#utility.yul\":3337:3341   */\n      dup2\n        /* \"#utility.yul\":3328:3334   */\n      dup8\n        /* \"#utility.yul\":3264:3342   */\n      tag_156\n      jump\t// in\n    tag_248:\n        /* \"#utility.yul\":3256:3342   */\n      swap1\n      pop\n        /* \"#utility.yul\":3352:3424   */\n      tag_249\n        /* \"#utility.yul\":3420:3422   */\n      0x40\n        /* \"#utility.yul\":3409:3418   */\n      dup4\n        /* \"#utility.yul\":3405:3423   */\n      add\n        /* \"#utility.yul\":3396:3402   */\n      dup7\n        /* \"#utility.yul\":3352:3424   */\n      tag_157\n      jump\t// in\n    tag_249:\n        /* \"#utility.yul\":3434:3506   */\n      tag_250\n        /* \"#utility.yul\":3502:3504   */\n      0x60\n        /* \"#utility.yul\":3491:3500   */\n      dup4\n        /* \"#utility.yul\":3487:3505   */\n      add\n        /* \"#utility.yul\":3478:3484   */\n      dup6\n        /* \"#utility.yul\":3434:3506   */\n      tag_157\n      jump\t// in\n    tag_250:\n        /* \"#utility.yul\":3516:3589   */\n      tag_251\n        /* \"#utility.yul\":3584:3587   */\n      0x80\n        /* \"#utility.yul\":3573:3582   */\n      dup4\n        /* \"#utility.yul\":3569:3588   */\n      add\n        /* \"#utility.yul\":3560:3566   */\n      dup5\n        /* \"#utility.yul\":3516:3589   */\n      tag_157\n      jump\t// in\n    tag_251:\n        /* \"#utility.yul\":2841:3596   */\n      swap7\n      swap6\n      pop\n      pop\n      pop\n      pop\n      pop\n      pop\n      jump\t// out\n        /* \"#utility.yul\":3602:3931   */\n    tag_21:\n        /* \"#utility.yul\":3661:3667   */\n      0x00\n        /* \"#utility.yul\":3710:3712   */\n      0x20\n        /* \"#utility.yul\":3698:3707   */\n      dup3\n        /* \"#utility.yul\":3689:3696   */\n      dup5\n        /* \"#utility.yul\":3685:3708   */\n      sub\n        /* \"#utility.yul\":3681:3713   */\n      slt\n        /* \"#utility.yul\":3678:3797   */\n      iszero\n      tag_253\n      jumpi\n        /* \"#utility.yul\":3716:3795   */\n      tag_254\n      tag_142\n      jump\t// in\n    tag_254:\n        /* \"#utility.yul\":3678:3797   */\n    tag_253:\n        /* \"#utility.yul\":3836:3837   */\n      0x00\n        /* \"#utility.yul\":3861:3914   */\n      tag_255\n        /* \"#utility.yul\":3906:3913   */\n      dup5\n        /* \"#utility.yul\":3897:3903   */\n      dup3\n        /* \"#utility.yul\":3886:3895   */\n      dup6\n        /* \"#utility.yul\":3882:3904   */\n      add\n        /* \"#utility.yul\":3861:3914   */\n      tag_147\n      jump\t// in\n    tag_255:\n        /* \"#utility.yul\":3851:3914   */\n      swap2\n      pop\n        /* \"#utility.yul\":3807:3924   */\n      pop\n        /* \"#utility.yul\":3602:3931   */\n      swap3\n      swap2\n      pop\n      pop\n      jump\t// out\n        /* \"#utility.yul\":3937:4072   */\n    tag_158:\n        /* \"#utility.yul\":4025:4031   */\n      0x00\n        /* \"#utility.yul\":4059:4064   */\n      dup2\n        /* \"#utility.yul\":4053:4065   */\n      mload\n        /* \"#utility.yul\":4043:4065   */\n      swap1\n      pop\n        /* \"#utility.yul\":3937:4072   */\n      swap2\n      swap1\n      pop\n      jump\t// out\n        /* \"#utility.yul\":4078:4283   */\n    tag_159:\n        /* \"#utility.yul\":4198:4209   */\n      0x00\n        /* \"#utility.yul\":4232:4238   */\n      dup3\n        /* \"#utility.yul\":4227:4230   */\n      dup3\n        /* \"#utility.yul\":4220:4239   */\n      mstore\n        /* \"#utility.yul\":4272:4276   */\n      0x20\n        /* \"#utility.yul\":4267:4270   */\n      dup3\n        /* \"#utility.yul\":4263:4277   */\n      add\n        /* \"#utility.yul\":4248:4277   */\n      swap1\n      pop\n        /* \"#utility.yul\":4078:4283   */\n      swap3\n      swap2\n      pop\n      pop\n      jump\t// out\n        /* \"#utility.yul\":4289:4442   */\n    tag_160:\n        /* \"#utility.yul\":4377:4381   */\n      0x00\n        /* \"#utility.yul\":4400:4403   */\n      dup2\n        /* \"#utility.yul\":4392:4403   */\n      swap1\n      pop\n        /* \"#utility.yul\":4430:4434   */\n      0x20\n        /* \"#utility.yul\":4425:4428   */\n      dup3\n        /* \"#utility.yul\":4421:4435   */\n      add\n        /* \"#utility.yul\":4413:4435   */\n      swap1\n      pop\n        /* \"#utility.yul\":4289:4442   */\n      swap2\n      swap1\n      pop\n      jump\t// out\n        /* \"#utility.yul\":4448:4556   */\n    tag_161:\n        /* \"#utility.yul\":4525:4549   */\n      tag_260\n        /* \"#utility.yul\":4543:4548   */\n      dup2\n        /* \"#utility.yul\":4525:4549   */\n      tag_145\n      jump\t// in\n    tag_260:\n        /* \"#utility.yul\":4520:4523   */\n      dup3\n        /* \"#utility.yul\":4513:4550   */\n      mstore\n        /* \"#utility.yul\":4448:4556   */\n      pop\n      pop\n      jump\t// out\n        /* \"#utility.yul\":4562:4721   */\n    tag_162:\n        /* \"#utility.yul\":4636:4647   */\n      0x00\n        /* \"#utility.yul\":4670:4676   */\n      dup3\n        /* \"#utility.yul\":4665:4668   */\n      dup3\n        /* \"#utility.yul\":4658:4677   */\n      mstore\n        /* \"#utility.yul\":4710:4714   */\n      0x20\n        /* \"#utility.yul\":4705:4708   */\n      dup3\n        /* \"#utility.yul\":4701:4715   */\n      add\n        /* \"#utility.yul\":4686:4715   */\n      swap1\n      pop\n        /* \"#utility.yul\":4562:4721   */\n      swap3\n      swap2\n      pop\n      pop\n      jump\t// out\n        /* \"#utility.yul\":4727:5084   */\n    tag_163:\n        /* \"#utility.yul\":4805:4808   */\n      0x00\n        /* \"#utility.yul\":4833:4872   */\n      tag_263\n        /* \"#utility.yul\":4866:4871   */\n      dup3\n        /* \"#utility.yul\":4833:4872   */\n      tag_152\n      jump\t// in\n    tag_263:\n        /* \"#utility.yul\":4888:4949   */\n      tag_264\n        /* \"#utility.yul\":4942:4948   */\n      dup2\n        /* \"#utility.yul\":4937:4940   */\n      dup6\n        /* \"#utility.yul\":4888:4949   */\n      tag_162\n      jump\t// in\n    tag_264:\n        /* \"#utility.yul\":4881:4949   */\n      swap4\n      pop\n        /* \"#utility.yul\":4958:5023   */\n      tag_265\n        /* \"#utility.yul\":5016:5022   */\n      dup2\n        /* \"#utility.yul\":5011:5014   */\n      dup6\n        /* \"#utility.yul\":5004:5008   */\n      0x20\n        /* \"#utility.yul\":4997:5002   */\n      dup7\n        /* \"#utility.yul\":4993:5009   */\n      add\n        /* \"#utility.yul\":4958:5023   */\n      tag_154\n      jump\t// in\n    tag_265:\n        /* \"#utility.yul\":5048:5077   */\n      tag_266\n        /* \"#utility.yul\":5070:5076   */\n      dup2\n        /* \"#utility.yul\":5048:5077   */\n      tag_155\n      jump\t// in\n    tag_266:\n        /* \"#utility.yul\":5043:5046   */\n      dup5\n        /* \"#utility.yul\":5039:5078   */\n      add\n        /* \"#utility.yul\":5032:5078   */\n      swap2\n      pop\n        /* \"#utility.yul\":4809:5084   */\n      pop\n        /* \"#utility.yul\":4727:5084   */\n      swap3\n      swap2\n      pop\n      pop\n      jump\t// out\n        /* \"#utility.yul\":5090:5198   */\n    tag_164:\n        /* \"#utility.yul\":5167:5191   */\n      tag_268\n        /* \"#utility.yul\":5185:5190   */\n      dup2\n        /* \"#utility.yul\":5167:5191   */\n      tag_148\n      jump\t// in\n    tag_268:\n        /* \"#utility.yul\":5162:5165   */\n      dup3\n        /* \"#utility.yul\":5155:5192   */\n      mstore\n        /* \"#utility.yul\":5090:5198   */\n      pop\n      pop\n      jump\t// out\n        /* \"#utility.yul\":5256:6375   */\n    tag_165:\n        /* \"#utility.yul\":5357:5360   */\n      0x00\n        /* \"#utility.yul\":5393:5397   */\n      0xa0\n        /* \"#utility.yul\":5388:5391   */\n      dup4\n        /* \"#utility.yul\":5384:5398   */\n      add\n        /* \"#utility.yul\":5482:5486   */\n      0x00\n        /* \"#utility.yul\":5475:5480   */\n      dup4\n        /* \"#utility.yul\":5471:5487   */\n      add\n        /* \"#utility.yul\":5465:5488   */\n      mload\n        /* \"#utility.yul\":5501:5564   */\n      tag_270\n        /* \"#utility.yul\":5558:5562   */\n      0x00\n        /* \"#utility.yul\":5553:5556   */\n      dup7\n        /* \"#utility.yul\":5549:5563   */\n      add\n        /* \"#utility.yul\":5535:5547   */\n      dup3\n        /* \"#utility.yul\":5501:5564   */\n      tag_161\n      jump\t// in\n    tag_270:\n        /* \"#utility.yul\":5408:5574   */\n      pop\n        /* \"#utility.yul\":5659:5663   */\n      0x20\n        /* \"#utility.yul\":5652:5657   */\n      dup4\n        /* \"#utility.yul\":5648:5664   */\n      add\n        /* \"#utility.yul\":5642:5665   */\n      mload\n        /* \"#utility.yul\":5712:5715   */\n      dup5\n        /* \"#utility.yul\":5706:5710   */\n      dup3\n        /* \"#utility.yul\":5702:5716   */\n      sub\n        /* \"#utility.yul\":5695:5699   */\n      0x20\n        /* \"#utility.yul\":5690:5693   */\n      dup7\n        /* \"#utility.yul\":5686:5700   */\n      add\n        /* \"#utility.yul\":5679:5717   */\n      mstore\n        /* \"#utility.yul\":5738:5811   */\n      tag_271\n        /* \"#utility.yul\":5806:5810   */\n      dup3\n        /* \"#utility.yul\":5792:5804   */\n      dup3\n        /* \"#utility.yul\":5738:5811   */\n      tag_163\n      jump\t// in\n    tag_271:\n        /* \"#utility.yul\":5730:5811   */\n      swap2\n      pop\n        /* \"#utility.yul\":5584:5822   */\n      pop\n        /* \"#utility.yul\":5909:5913   */\n      0x40\n        /* \"#utility.yul\":5902:5907   */\n      dup4\n        /* \"#utility.yul\":5898:5914   */\n      add\n        /* \"#utility.yul\":5892:5915   */\n      mload\n        /* \"#utility.yul\":5928:5991   */\n      tag_272\n        /* \"#utility.yul\":5985:5989   */\n      0x40\n        /* \"#utility.yul\":5980:5983   */\n      dup7\n        /* \"#utility.yul\":5976:5990   */\n      add\n        /* \"#utility.yul\":5962:5974   */\n      dup3\n        /* \"#utility.yul\":5928:5991   */\n      tag_164\n      jump\t// in\n    tag_272:\n        /* \"#utility.yul\":5832:6001   */\n      pop\n        /* \"#utility.yul\":6084:6088   */\n      0x60\n        /* \"#utility.yul\":6077:6082   */\n      dup4\n        /* \"#utility.yul\":6073:6089   */\n      add\n        /* \"#utility.yul\":6067:6090   */\n      mload\n        /* \"#utility.yul\":6103:6166   */\n      tag_273\n        /* \"#utility.yul\":6160:6164   */\n      0x60\n        /* \"#utility.yul\":6155:6158   */\n      dup7\n        /* \"#utility.yul\":6151:6165   */\n      add\n        /* \"#utility.yul\":6137:6149   */\n      dup3\n        /* \"#utility.yul\":6103:6166   */\n      tag_164\n      jump\t// in\n    tag_273:\n        /* \"#utility.yul\":6011:6176   */\n      pop\n        /* \"#utility.yul\":6256:6260   */\n      0x80\n        /* \"#utility.yul\":6249:6254   */\n      dup4\n        /* \"#utility.yul\":6245:6261   */\n      add\n        /* \"#utility.yul\":6239:6262   */\n      mload\n        /* \"#utility.yul\":6275:6338   */\n      tag_274\n        /* \"#utility.yul\":6332:6336   */\n      0x80\n        /* \"#utility.yul\":6327:6330   */\n      dup7\n        /* \"#utility.yul\":6323:6337   */\n      add\n        /* \"#utility.yul\":6309:6321   */\n      dup3\n        /* \"#utility.yul\":6275:6338   */\n      tag_164\n      jump\t// in\n    tag_274:\n        /* \"#utility.yul\":6186:6348   */\n      pop\n        /* \"#utility.yul\":6365:6369   */\n      dup1\n        /* \"#utility.yul\":6358:6369   */\n      swap2\n      pop\n        /* \"#utility.yul\":5362:6375   */\n      pop\n        /* \"#utility.yul\":5256:6375   */\n      swap3\n      swap2\n      pop\n      pop\n      jump\t// out\n        /* \"#utility.yul\":6381:6621   */\n    tag_166:\n        /* \"#utility.yul\":6492:6502   */\n      0x00\n        /* \"#utility.yul\":6527:6615   */\n      tag_276\n        /* \"#utility.yul\":6611:6614   */\n      dup4\n        /* \"#utility.yul\":6603:6609   */\n      dup4\n        /* \"#utility.yul\":6527:6615   */\n      tag_165\n      jump\t// in\n    tag_276:\n        /* \"#utility.yul\":6513:6615   */\n      swap1\n      pop\n        /* \"#utility.yul\":6381:6621   */\n      swap3\n      swap2\n      pop\n      pop\n      jump\t// out\n        /* \"#utility.yul\":6627:6761   */\n    tag_167:\n        /* \"#utility.yul\":6718:6722   */\n      0x00\n        /* \"#utility.yul\":6750:6754   */\n      0x20\n        /* \"#utility.yul\":6745:6748   */\n      dup3\n        /* \"#utility.yul\":6741:6755   */\n      add\n        /* \"#utility.yul\":6733:6755   */\n      swap1\n      pop\n        /* \"#utility.yul\":6627:6761   */\n      swap2\n      swap1\n      pop\n      jump\t// out\n        /* \"#utility.yul\":6823:7902   */\n    tag_168:\n        /* \"#utility.yul\":6984:6987   */\n      0x00\n        /* \"#utility.yul\":7013:7088   */\n      tag_279\n        /* \"#utility.yul\":7082:7087   */\n      dup3\n        /* \"#utility.yul\":7013:7088   */\n      tag_158\n      jump\t// in\n    tag_279:\n        /* \"#utility.yul\":7104:7211   */\n      tag_280\n        /* \"#utility.yul\":7204:7210   */\n      dup2\n        /* \"#utility.yul\":7199:7202   */\n      dup6\n        /* \"#utility.yul\":7104:7211   */\n      tag_159\n      jump\t// in\n    tag_280:\n        /* \"#utility.yul\":7097:7211   */\n      swap4\n      pop\n        /* \"#utility.yul\":7237:7240   */\n      dup4\n        /* \"#utility.yul\":7282:7286   */\n      0x20\n        /* \"#utility.yul\":7274:7280   */\n      dup3\n        /* \"#utility.yul\":7270:7287   */\n      mul\n        /* \"#utility.yul\":7265:7268   */\n      dup6\n        /* \"#utility.yul\":7261:7288   */\n      add\n        /* \"#utility.yul\":7312:7389   */\n      tag_281\n        /* \"#utility.yul\":7383:7388   */\n      dup6\n        /* \"#utility.yul\":7312:7389   */\n      tag_160\n      jump\t// in\n    tag_281:\n        /* \"#utility.yul\":7412:7419   */\n      dup1\n        /* \"#utility.yul\":7443:7444   */\n      0x00\n        /* \"#utility.yul\":7428:7857   */\n    tag_282:\n        /* \"#utility.yul\":7453:7459   */\n      dup6\n        /* \"#utility.yul\":7450:7451   */\n      dup2\n        /* \"#utility.yul\":7447:7460   */\n      lt\n        /* \"#utility.yul\":7428:7857   */\n      iszero\n      tag_284\n      jumpi\n        /* \"#utility.yul\":7524:7533   */\n      dup5\n        /* \"#utility.yul\":7518:7522   */\n      dup5\n        /* \"#utility.yul\":7514:7534   */\n      sub\n        /* \"#utility.yul\":7509:7512   */\n      dup10\n        /* \"#utility.yul\":7502:7535   */\n      mstore\n        /* \"#utility.yul\":7575:7581   */\n      dup2\n        /* \"#utility.yul\":7569:7582   */\n      mload\n        /* \"#utility.yul\":7603:7709   */\n      tag_285\n        /* \"#utility.yul\":7704:7708   */\n      dup6\n        /* \"#utility.yul\":7689:7702   */\n      dup3\n        /* \"#utility.yul\":7603:7709   */\n      tag_166\n      jump\t// in\n    tag_285:\n        /* \"#utility.yul\":7595:7709   */\n      swap5\n      pop\n        /* \"#utility.yul\":7732:7813   */\n      tag_286\n        /* \"#utility.yul\":7806:7812   */\n      dup4\n        /* \"#utility.yul\":7732:7813   */\n      tag_167\n      jump\t// in\n    tag_286:\n        /* \"#utility.yul\":7722:7813   */\n      swap3\n      pop\n        /* \"#utility.yul\":7842:7846   */\n      0x20\n        /* \"#utility.yul\":7837:7840   */\n      dup11\n        /* \"#utility.yul\":7833:7847   */\n      add\n        /* \"#utility.yul\":7826:7847   */\n      swap10\n      pop\n        /* \"#utility.yul\":7488:7857   */\n      pop\n        /* \"#utility.yul\":7475:7476   */\n      0x01\n        /* \"#utility.yul\":7472:7473   */\n      dup2\n        /* \"#utility.yul\":7468:7477   */\n      add\n        /* \"#utility.yul\":7463:7477   */\n      swap1\n      pop\n        /* \"#utility.yul\":7428:7857   */\n      jump(tag_282)\n    tag_284:\n        /* \"#utility.yul\":7432:7446   */\n      pop\n        /* \"#utility.yul\":7873:7877   */\n      dup3\n        /* \"#utility.yul\":7866:7877   */\n      swap8\n      pop\n        /* \"#utility.yul\":7893:7896   */\n      dup8\n        /* \"#utility.yul\":7886:7896   */\n      swap6\n      pop\n        /* \"#utility.yul\":6989:7902   */\n      pop\n      pop\n      pop\n      pop\n      pop\n        /* \"#utility.yul\":6823:7902   */\n      swap3\n      swap2\n      pop\n      pop\n      jump\t// out\n        /* \"#utility.yul\":7908:8365   */\n    tag_24:\n        /* \"#utility.yul\":8093:8097   */\n      0x00\n        /* \"#utility.yul\":8131:8133   */\n      0x20\n        /* \"#utility.yul\":8120:8129   */\n      dup3\n        /* \"#utility.yul\":8116:8134   */\n      add\n        /* \"#utility.yul\":8108:8134   */\n      swap1\n      pop\n        /* \"#utility.yul\":8180:8189   */\n      dup2\n        /* \"#utility.yul\":8174:8178   */\n      dup2\n        /* \"#utility.yul\":8170:8190   */\n      sub\n        /* \"#utility.yul\":8166:8167   */\n      0x00\n        /* \"#utility.yul\":8155:8164   */\n      dup4\n        /* \"#utility.yul\":8151:8168   */\n      add\n        /* \"#utility.yul\":8144:8191   */\n      mstore\n        /* \"#utility.yul\":8208:8358   */\n      tag_288\n        /* \"#utility.yul\":8353:8357   */\n      dup2\n        /* \"#utility.yul\":8344:8350   */\n      dup5\n        /* \"#utility.yul\":8208:8358   */\n      tag_168\n      jump\t// in\n    tag_288:\n        /* \"#utility.yul\":8200:8358   */\n      swap1\n      pop\n        /* \"#utility.yul\":7908:8365   */\n      swap3\n      swap2\n      pop\n      pop\n      jump\t// out\n        /* \"#utility.yul\":8371:8460   */\n    tag_169:\n        /* \"#utility.yul\":8407:8414   */\n      0x00\n        /* \"#utility.yul\":8447:8453   */\n      0xffff\n        /* \"#utility.yul\":8440:8445   */\n      dup3\n        /* \"#utility.yul\":8436:8454   */\n      and\n        /* \"#utility.yul\":8425:8454   */\n      swap1\n      pop\n        /* \"#utility.yul\":8371:8460   */\n      swap2\n      swap1\n      pop\n      jump\t// out\n        /* \"#utility.yul\":8466:8586   */\n    tag_170:\n        /* \"#utility.yul\":8538:8561   */\n      tag_291\n        /* \"#utility.yul\":8555:8560   */\n      dup2\n        /* \"#utility.yul\":8538:8561   */\n      tag_169\n      jump\t// in\n    tag_291:\n        /* \"#utility.yul\":8531:8536   */\n      dup2\n        /* \"#utility.yul\":8528:8562   */\n      eq\n        /* \"#utility.yul\":8518:8580   */\n      tag_292\n      jumpi\n        /* \"#utility.yul\":8576:8577   */\n      0x00\n        /* \"#utility.yul\":8573:8574   */\n      dup1\n        /* \"#utility.yul\":8566:8578   */\n      revert\n        /* \"#utility.yul\":8518:8580   */\n    tag_292:\n        /* \"#utility.yul\":8466:8586   */\n      pop\n      jump\t// out\n        /* \"#utility.yul\":8592:8729   */\n    tag_171:\n        /* \"#utility.yul\":8637:8642   */\n      0x00\n        /* \"#utility.yul\":8675:8681   */\n      dup2\n        /* \"#utility.yul\":8662:8682   */\n      calldataload\n        /* \"#utility.yul\":8653:8682   */\n      swap1\n      pop\n        /* \"#utility.yul\":8691:8723   */\n      tag_294\n        /* \"#utility.yul\":8717:8722   */\n      dup2\n        /* \"#utility.yul\":8691:8723   */\n      tag_170\n      jump\t// in\n    tag_294:\n        /* \"#utility.yul\":8592:8729   */\n      swap3\n      swap2\n      pop\n      pop\n      jump\t// out\n        /* \"#utility.yul\":8735:9062   */\n    tag_27:\n        /* \"#utility.yul\":8793:8799   */\n      0x00\n        /* \"#utility.yul\":8842:8844   */\n      0x20\n        /* \"#utility.yul\":8830:8839   */\n      dup3\n        /* \"#utility.yul\":8821:8828   */\n      dup5\n        /* \"#utility.yul\":8817:8840   */\n      sub\n        /* \"#utility.yul\":8813:8845   */\n      slt\n        /* \"#utility.yul\":8810:8929   */\n      iszero\n      tag_296\n      jumpi\n        /* \"#utility.yul\":8848:8927   */\n      tag_297\n      tag_142\n      jump\t// in\n    tag_297:\n        /* \"#utility.yul\":8810:8929   */\n    tag_296:\n        /* \"#utility.yul\":8968:8969   */\n      0x00\n        /* \"#utility.yul\":8993:9045   */\n      tag_298\n        /* \"#utility.yul\":9037:9044   */\n      dup5\n        /* \"#utility.yul\":9028:9034   */\n      dup3\n        /* \"#utility.yul\":9017:9026   */\n      dup6\n        /* \"#utility.yul\":9013:9035   */\n      add\n        /* \"#utility.yul\":8993:9045   */\n      tag_171\n      jump\t// in\n    tag_298:\n        /* \"#utility.yul\":8983:9045   */\n      swap2\n      pop\n        /* \"#utility.yul\":8939:9055   */\n      pop\n        /* \"#utility.yul\":8735:9062   */\n      swap3\n      swap2\n      pop\n      pop\n      jump\t// out\n        /* \"#utility.yul\":9068:9183   */\n    tag_172:\n        /* \"#utility.yul\":9153:9176   */\n      tag_300\n        /* \"#utility.yul\":9170:9175   */\n      dup2\n        /* \"#utility.yul\":9153:9176   */\n      tag_169\n      jump\t// in\n    tag_300:\n        /* \"#utility.yul\":9148:9151   */\n      dup3\n        /* \"#utility.yul\":9141:9177   */\n      mstore\n        /* \"#utility.yul\":9068:9183   */\n      pop\n      pop\n      jump\t// out\n        /* \"#utility.yul\":9189:9407   */\n    tag_32:\n        /* \"#utility.yul\":9280:9284   */\n      0x00\n        /* \"#utility.yul\":9318:9320   */\n      0x20\n        /* \"#utility.yul\":9307:9316   */\n      dup3\n        /* \"#utility.yul\":9303:9321   */\n      add\n        /* \"#utility.yul\":9295:9321   */\n      swap1\n      pop\n        /* \"#utility.yul\":9331:9400   */\n      tag_302\n        /* \"#utility.yul\":9397:9398   */\n      0x00\n        /* \"#utility.yul\":9386:9395   */\n      dup4\n        /* \"#utility.yul\":9382:9399   */\n      add\n        /* \"#utility.yul\":9373:9379   */\n      dup5\n        /* \"#utility.yul\":9331:9400   */\n      tag_172\n      jump\t// in\n    tag_302:\n        /* \"#utility.yul\":9189:9407   */\n      swap3\n      swap2\n      pop\n      pop\n      jump\t// out\n        /* \"#utility.yul\":9413:9887   */\n    tag_35:\n        /* \"#utility.yul\":9481:9487   */\n      0x00\n        /* \"#utility.yul\":9489:9495   */\n      dup1\n        /* \"#utility.yul\":9538:9540   */\n      0x40\n        /* \"#utility.yul\":9526:9535   */\n      dup4\n        /* \"#utility.yul\":9517:9524   */\n      dup6\n        /* \"#utility.yul\":9513:9536   */\n      sub\n        /* \"#utility.yul\":9509:9541   */\n      slt\n        /* \"#utility.yul\":9506:9625   */\n      iszero\n      tag_304\n      jumpi\n        /* \"#utility.yul\":9544:9623   */\n      tag_305\n      tag_142\n      jump\t// in\n    tag_305:\n        /* \"#utility.yul\":9506:9625   */\n    tag_304:\n        /* \"#utility.yul\":9664:9665   */\n      0x00\n        /* \"#utility.yul\":9689:9742   */\n      tag_306\n        /* \"#utility.yul\":9734:9741   */\n      dup6\n        /* \"#utility.yul\":9725:9731   */\n      dup3\n        /* \"#utility.yul\":9714:9723   */\n      dup7\n        /* \"#utility.yul\":9710:9732   */\n      add\n        /* \"#utility.yul\":9689:9742   */\n      tag_150\n      jump\t// in\n    tag_306:\n        /* \"#utility.yul\":9679:9742   */\n      swap3\n      pop\n        /* \"#utility.yul\":9635:9752   */\n      pop\n        /* \"#utility.yul\":9791:9793   */\n      0x20\n        /* \"#utility.yul\":9817:9870   */\n      tag_307\n        /* \"#utility.yul\":9862:9869   */\n      dup6\n        /* \"#utility.yul\":9853:9859   */\n      dup3\n        /* \"#utility.yul\":9842:9851   */\n      dup7\n        /* \"#utility.yul\":9838:9860   */\n      add\n        /* \"#utility.yul\":9817:9870   */\n      tag_147\n      jump\t// in\n    tag_307:\n        /* \"#utility.yul\":9807:9870   */\n      swap2\n      pop\n        /* \"#utility.yul\":9762:9880   */\n      pop\n        /* \"#utility.yul\":9413:9887   */\n      swap3\n      pop\n      swap3\n      swap1\n      pop\n      jump\t// out\n        /* \"#utility.yul\":9893:10010   */\n    tag_173:\n        /* \"#utility.yul\":10002:10003   */\n      0x00\n        /* \"#utility.yul\":9999:10000   */\n      dup1\n        /* \"#utility.yul\":9992:10004   */\n      revert\n        /* \"#utility.yul\":10016:10133   */\n    tag_174:\n        /* \"#utility.yul\":10125:10126   */\n      0x00\n        /* \"#utility.yul\":10122:10123   */\n      dup1\n        /* \"#utility.yul\":10115:10127   */\n      revert\n        /* \"#utility.yul\":10139:10319   */\n    tag_175:\n        /* \"#utility.yul\":10187:10264   */\n      0x4e487b7100000000000000000000000000000000000000000000000000000000\n        /* \"#utility.yul\":10184:10185   */\n      0x00\n        /* \"#utility.yul\":10177:10265   */\n      mstore\n        /* \"#utility.yul\":10284:10288   */\n      0x41\n        /* \"#utility.yul\":10281:10282   */\n      0x04\n        /* \"#utility.yul\":10274:10289   */\n      mstore\n        /* \"#utility.yul\":10308:10312   */\n      0x24\n        /* \"#utility.yul\":10305:10306   */\n      0x00\n        /* \"#utility.yul\":10298:10313   */\n      revert\n        /* \"#utility.yul\":10325:10606   */\n    tag_176:\n        /* \"#utility.yul\":10408:10435   */\n      tag_312\n        /* \"#utility.yul\":10430:10434   */\n      dup3\n        /* \"#utility.yul\":10408:10435   */\n      tag_155\n      jump\t// in\n    tag_312:\n        /* \"#utility.yul\":10400:10406   */\n      dup2\n        /* \"#utility.yul\":10396:10436   */\n      add\n        /* \"#utility.yul\":10538:10544   */\n      dup2\n        /* \"#utility.yul\":10526:10536   */\n      dup2\n        /* \"#utility.yul\":10523:10545   */\n      lt\n        /* \"#utility.yul\":10502:10520   */\n      0xffffffffffffffff\n        /* \"#utility.yul\":10490:10500   */\n      dup3\n        /* \"#utility.yul\":10487:10521   */\n      gt\n        /* \"#utility.yul\":10484:10546   */\n      or\n        /* \"#utility.yul\":10481:10569   */\n      iszero\n      tag_313\n      jumpi\n        /* \"#utility.yul\":10549:10567   */\n      tag_314\n      tag_175\n      jump\t// in\n    tag_314:\n        /* \"#utility.yul\":10481:10569   */\n    tag_313:\n        /* \"#utility.yul\":10589:10599   */\n      dup1\n        /* \"#utility.yul\":10585:10587   */\n      0x40\n        /* \"#utility.yul\":10578:10600   */\n      mstore\n        /* \"#utility.yul\":10368:10606   */\n      pop\n        /* \"#utility.yul\":10325:10606   */\n      pop\n      pop\n      jump\t// out\n        /* \"#utility.yul\":10612:10741   */\n    tag_177:\n        /* \"#utility.yul\":10646:10652   */\n      0x00\n        /* \"#utility.yul\":10673:10693   */\n      tag_316\n      tag_141\n      jump\t// in\n    tag_316:\n        /* \"#utility.yul\":10663:10693   */\n      swap1\n      pop\n        /* \"#utility.yul\":10702:10735   */\n      tag_317\n        /* \"#utility.yul\":10730:10734   */\n      dup3\n        /* \"#utility.yul\":10722:10728   */\n      dup3\n        /* \"#utility.yul\":10702:10735   */\n      tag_176\n      jump\t// in\n    tag_317:\n        /* \"#utility.yul\":10612:10741   */\n      swap2\n      swap1\n      pop\n      jump\t// out\n        /* \"#utility.yul\":10747:11055   */\n    tag_178:\n        /* \"#utility.yul\":10809:10813   */\n      0x00\n        /* \"#utility.yul\":10899:10917   */\n      0xffffffffffffffff\n        /* \"#utility.yul\":10891:10897   */\n      dup3\n        /* \"#utility.yul\":10888:10918   */\n      gt\n        /* \"#utility.yul\":10885:10941   */\n      iszero\n      tag_319\n      jumpi\n        /* \"#utility.yul\":10921:10939   */\n      tag_320\n      tag_175\n      jump\t// in\n    tag_320:\n        /* \"#utility.yul\":10885:10941   */\n    tag_319:\n        /* \"#utility.yul\":10959:10988   */\n      tag_321\n        /* \"#utility.yul\":10981:10987   */\n      dup3\n        /* \"#utility.yul\":10959:10988   */\n      tag_155\n      jump\t// in\n    tag_321:\n        /* \"#utility.yul\":10951:10988   */\n      swap1\n      pop\n        /* \"#utility.yul\":11043:11047   */\n      0x20\n        /* \"#utility.yul\":11037:11041   */\n      dup2\n        /* \"#utility.yul\":11033:11048   */\n      add\n        /* \"#utility.yul\":11025:11048   */\n      swap1\n      pop\n        /* \"#utility.yul\":10747:11055   */\n      swap2\n      swap1\n      pop\n      jump\t// out\n        /* \"#utility.yul\":11061:11209   */\n    tag_179:\n        /* \"#utility.yul\":11159:11165   */\n      dup3\n        /* \"#utility.yul\":11154:11157   */\n      dup2\n        /* \"#utility.yul\":11149:11152   */\n      dup4\n        /* \"#utility.yul\":11136:11166   */\n      calldatacopy\n        /* \"#utility.yul\":11200:11201   */\n      0x00\n        /* \"#utility.yul\":11191:11197   */\n      dup4\n        /* \"#utility.yul\":11186:11189   */\n      dup4\n        /* \"#utility.yul\":11182:11198   */\n      add\n        /* \"#utility.yul\":11175:11202   */\n      mstore\n        /* \"#utility.yul\":11061:11209   */\n      pop\n      pop\n      pop\n      jump\t// out\n        /* \"#utility.yul\":11215:11640   */\n    tag_180:\n        /* \"#utility.yul\":11293:11298   */\n      0x00\n        /* \"#utility.yul\":11318:11384   */\n      tag_324\n        /* \"#utility.yul\":11334:11383   */\n      tag_325\n        /* \"#utility.yul\":11376:11382   */\n      dup5\n        /* \"#utility.yul\":11334:11383   */\n      tag_178\n      jump\t// in\n    tag_325:\n        /* \"#utility.yul\":11318:11384   */\n      tag_177\n      jump\t// in\n    tag_324:\n        /* \"#utility.yul\":11309:11384   */\n      swap1\n      pop\n        /* \"#utility.yul\":11407:11413   */\n      dup3\n        /* \"#utility.yul\":11400:11405   */\n      dup2\n        /* \"#utility.yul\":11393:11414   */\n      mstore\n        /* \"#utility.yul\":11445:11449   */\n      0x20\n        /* \"#utility.yul\":11438:11443   */\n      dup2\n        /* \"#utility.yul\":11434:11450   */\n      add\n        /* \"#utility.yul\":11483:11486   */\n      dup5\n        /* \"#utility.yul\":11474:11480   */\n      dup5\n        /* \"#utility.yul\":11469:11472   */\n      dup5\n        /* \"#utility.yul\":11465:11481   */\n      add\n        /* \"#utility.yul\":11462:11487   */\n      gt\n        /* \"#utility.yul\":11459:11571   */\n      iszero\n      tag_326\n      jumpi\n        /* \"#utility.yul\":11490:11569   */\n      tag_327\n      tag_174\n      jump\t// in\n    tag_327:\n        /* \"#utility.yul\":11459:11571   */\n    tag_326:\n        /* \"#utility.yul\":11580:11634   */\n      tag_328\n        /* \"#utility.yul\":11627:11633   */\n      dup5\n        /* \"#utility.yul\":11622:11625   */\n      dup3\n        /* \"#utility.yul\":11617:11620   */\n      dup6\n        /* \"#utility.yul\":11580:11634   */\n      tag_179\n      jump\t// in\n    tag_328:\n        /* \"#utility.yul\":11299:11640   */\n      pop\n        /* \"#utility.yul\":11215:11640   */\n      swap4\n      swap3\n      pop\n      pop\n      pop\n      jump\t// out\n        /* \"#utility.yul\":11660:12000   */\n    tag_181:\n        /* \"#utility.yul\":11716:11721   */\n      0x00\n        /* \"#utility.yul\":11765:11768   */\n      dup3\n        /* \"#utility.yul\":11758:11762   */\n      0x1f\n        /* \"#utility.yul\":11750:11756   */\n      dup4\n        /* \"#utility.yul\":11746:11763   */\n      add\n        /* \"#utility.yul\":11742:11769   */\n      slt\n        /* \"#utility.yul\":11732:11854   */\n      tag_330\n      jumpi\n        /* \"#utility.yul\":11773:11852   */\n      tag_331\n      tag_173\n      jump\t// in\n    tag_331:\n        /* \"#utility.yul\":11732:11854   */\n    tag_330:\n        /* \"#utility.yul\":11890:11896   */\n      dup2\n        /* \"#utility.yul\":11877:11897   */\n      calldataload\n        /* \"#utility.yul\":11915:11994   */\n      tag_332\n        /* \"#utility.yul\":11990:11993   */\n      dup5\n        /* \"#utility.yul\":11982:11988   */\n      dup3\n        /* \"#utility.yul\":11975:11979   */\n      0x20\n        /* \"#utility.yul\":11967:11973   */\n      dup7\n        /* \"#utility.yul\":11963:11980   */\n      add\n        /* \"#utility.yul\":11915:11994   */\n      tag_180\n      jump\t// in\n    tag_332:\n        /* \"#utility.yul\":11906:11994   */\n      swap2\n      pop\n        /* \"#utility.yul\":11722:12000   */\n      pop\n        /* \"#utility.yul\":11660:12000   */\n      swap3\n      swap2\n      pop\n      pop\n      jump\t// out\n        /* \"#utility.yul\":12006:12515   */\n    tag_39:\n        /* \"#utility.yul\":12075:12081   */\n      0x00\n        /* \"#utility.yul\":12124:12126   */\n      0x20\n        /* \"#utility.yul\":12112:12121   */\n      dup3\n        /* \"#utility.yul\":12103:12110   */\n      dup5\n        /* \"#utility.yul\":12099:12122   */\n      sub\n        /* \"#utility.yul\":12095:12127   */\n      slt\n        /* \"#utility.yul\":12092:12211   */\n      iszero\n      tag_334\n      jumpi\n        /* \"#utility.yul\":12130:12209   */\n      tag_335\n      tag_142\n      jump\t// in\n    tag_335:\n        /* \"#utility.yul\":12092:12211   */\n    tag_334:\n        /* \"#utility.yul\":12278:12279   */\n      0x00\n        /* \"#utility.yul\":12267:12276   */\n      dup3\n        /* \"#utility.yul\":12263:12280   */\n      add\n        /* \"#utility.yul\":12250:12281   */\n      calldataload\n        /* \"#utility.yul\":12308:12326   */\n      0xffffffffffffffff\n        /* \"#utility.yul\":12300:12306   */\n      dup2\n        /* \"#utility.yul\":12297:12327   */\n      gt\n        /* \"#utility.yul\":12294:12411   */\n      iszero\n      tag_336\n      jumpi\n        /* \"#utility.yul\":12330:12409   */\n      tag_337\n      tag_143\n      jump\t// in\n    tag_337:\n        /* \"#utility.yul\":12294:12411   */\n    tag_336:\n        /* \"#utility.yul\":12435:12498   */\n      tag_338\n        /* \"#utility.yul\":12490:12497   */\n      dup5\n        /* \"#utility.yul\":12481:12487   */\n      dup3\n        /* \"#utility.yul\":12470:12479   */\n      dup6\n        /* \"#utility.yul\":12466:12488   */\n      add\n        /* \"#utility.yul\":12435:12498   */\n      tag_181\n      jump\t// in\n    tag_338:\n        /* \"#utility.yul\":12425:12498   */\n      swap2\n      pop\n        /* \"#utility.yul\":12221:12508   */\n      pop\n        /* \"#utility.yul\":12006:12515   */\n      swap3\n      swap2\n      pop\n      pop\n      jump\t// out\n        /* \"#utility.yul\":12521:12743   */\n    tag_44:\n        /* \"#utility.yul\":12614:12618   */\n      0x00\n        /* \"#utility.yul\":12652:12654   */\n      0x20\n        /* \"#utility.yul\":12641:12650   */\n      dup3\n        /* \"#utility.yul\":12637:12655   */\n      add\n        /* \"#utility.yul\":12629:12655   */\n      swap1\n      pop\n        /* \"#utility.yul\":12665:12736   */\n      tag_340\n        /* \"#utility.yul\":12733:12734   */\n      0x00\n        /* \"#utility.yul\":12722:12731   */\n      dup4\n        /* \"#utility.yul\":12718:12735   */\n      add\n        /* \"#utility.yul\":12709:12715   */\n      dup5\n        /* \"#utility.yul\":12665:12736   */\n      tag_151\n      jump\t// in\n    tag_340:\n        /* \"#utility.yul\":12521:12743   */\n      swap3\n      swap2\n      pop\n      pop\n      jump\t// out\n        /* \"#utility.yul\":12749:13078   */\n    tag_47:\n        /* \"#utility.yul\":12808:12814   */\n      0x00\n        /* \"#utility.yul\":12857:12859   */\n      0x20\n        /* \"#utility.yul\":12845:12854   */\n      dup3\n        /* \"#utility.yul\":12836:12843   */\n      dup5\n        /* \"#utility.yul\":12832:12855   */\n      sub\n        /* \"#utility.yul\":12828:12860   */\n      slt\n        /* \"#utility.yul\":12825:12944   */\n      iszero\n      tag_342\n      jumpi\n        /* \"#utility.yul\":12863:12942   */\n      tag_343\n      tag_142\n      jump\t// in\n    tag_343:\n        /* \"#utility.yul\":12825:12944   */\n    tag_342:\n        /* \"#utility.yul\":12983:12984   */\n      0x00\n        /* \"#utility.yul\":13008:13061   */\n      tag_344\n        /* \"#utility.yul\":13053:13060   */\n      dup5\n        /* \"#utility.yul\":13044:13050   */\n      dup3\n        /* \"#utility.yul\":13033:13042   */\n      dup6\n        /* \"#utility.yul\":13029:13051   */\n      add\n        /* \"#utility.yul\":13008:13061   */\n      tag_150\n      jump\t// in\n    tag_344:\n        /* \"#utility.yul\":12998:13061   */\n      swap2\n      pop\n        /* \"#utility.yul\":12954:13071   */\n      pop\n        /* \"#utility.yul\":12749:13078   */\n      swap3\n      swap2\n      pop\n      pop\n      jump\t// out\n        /* \"#utility.yul\":13136:14265   */\n    tag_182:\n        /* \"#utility.yul\":13247:13250   */\n      0x00\n        /* \"#utility.yul\":13283:13287   */\n      0xa0\n        /* \"#utility.yul\":13278:13281   */\n      dup4\n        /* \"#utility.yul\":13274:13288   */\n      add\n        /* \"#utility.yul\":13372:13376   */\n      0x00\n        /* \"#utility.yul\":13365:13370   */\n      dup4\n        /* \"#utility.yul\":13361:13377   */\n      add\n        /* \"#utility.yul\":13355:13378   */\n      mload\n        /* \"#utility.yul\":13391:13454   */\n      tag_346\n        /* \"#utility.yul\":13448:13452   */\n      0x00\n        /* \"#utility.yul\":13443:13446   */\n      dup7\n        /* \"#utility.yul\":13439:13453   */\n      add\n        /* \"#utility.yul\":13425:13437   */\n      dup3\n        /* \"#utility.yul\":13391:13454   */\n      tag_161\n      jump\t// in\n    tag_346:\n        /* \"#utility.yul\":13298:13464   */\n      pop\n        /* \"#utility.yul\":13549:13553   */\n      0x20\n        /* \"#utility.yul\":13542:13547   */\n      dup4\n        /* \"#utility.yul\":13538:13554   */\n      add\n        /* \"#utility.yul\":13532:13555   */\n      mload\n        /* \"#utility.yul\":13602:13605   */\n      dup5\n        /* \"#utility.yul\":13596:13600   */\n      dup3\n        /* \"#utility.yul\":13592:13606   */\n      sub\n        /* \"#utility.yul\":13585:13589   */\n      0x20\n        /* \"#utility.yul\":13580:13583   */\n      dup7\n        /* \"#utility.yul\":13576:13590   */\n      add\n        /* \"#utility.yul\":13569:13607   */\n      mstore\n        /* \"#utility.yul\":13628:13701   */\n      tag_347\n        /* \"#utility.yul\":13696:13700   */\n      dup3\n        /* \"#utility.yul\":13682:13694   */\n      dup3\n        /* \"#utility.yul\":13628:13701   */\n      tag_163\n      jump\t// in\n    tag_347:\n        /* \"#utility.yul\":13620:13701   */\n      swap2\n      pop\n        /* \"#utility.yul\":13474:13712   */\n      pop\n        /* \"#utility.yul\":13799:13803   */\n      0x40\n        /* \"#utility.yul\":13792:13797   */\n      dup4\n        /* \"#utility.yul\":13788:13804   */\n      add\n        /* \"#utility.yul\":13782:13805   */\n      mload\n        /* \"#utility.yul\":13818:13881   */\n      tag_348\n        /* \"#utility.yul\":13875:13879   */\n      0x40\n        /* \"#utility.yul\":13870:13873   */\n      dup7\n        /* \"#utility.yul\":13866:13880   */\n      add\n        /* \"#utility.yul\":13852:13864   */\n      dup3\n        /* \"#utility.yul\":13818:13881   */\n      tag_164\n      jump\t// in\n    tag_348:\n        /* \"#utility.yul\":13722:13891   */\n      pop\n        /* \"#utility.yul\":13974:13978   */\n      0x60\n        /* \"#utility.yul\":13967:13972   */\n      dup4\n        /* \"#utility.yul\":13963:13979   */\n      add\n        /* \"#utility.yul\":13957:13980   */\n      mload\n        /* \"#utility.yul\":13993:14056   */\n      tag_349\n        /* \"#utility.yul\":14050:14054   */\n      0x60\n        /* \"#utility.yul\":14045:14048   */\n      dup7\n        /* \"#utility.yul\":14041:14055   */\n      add\n        /* \"#utility.yul\":14027:14039   */\n      dup3\n        /* \"#utility.yul\":13993:14056   */\n      tag_164\n      jump\t// in\n    tag_349:\n        /* \"#utility.yul\":13901:14066   */\n      pop\n        /* \"#utility.yul\":14146:14150   */\n      0x80\n        /* \"#utility.yul\":14139:14144   */\n      dup4\n        /* \"#utility.yul\":14135:14151   */\n      add\n        /* \"#utility.yul\":14129:14152   */\n      mload\n        /* \"#utility.yul\":14165:14228   */\n      tag_350\n        /* \"#utility.yul\":14222:14226   */\n      0x80\n        /* \"#utility.yul\":14217:14220   */\n      dup7\n        /* \"#utility.yul\":14213:14227   */\n      add\n        /* \"#utility.yul\":14199:14211   */\n      dup3\n        /* \"#utility.yul\":14165:14228   */\n      tag_164\n      jump\t// in\n    tag_350:\n        /* \"#utility.yul\":14076:14238   */\n      pop\n        /* \"#utility.yul\":14255:14259   */\n      dup1\n        /* \"#utility.yul\":14248:14259   */\n      swap2\n      pop\n        /* \"#utility.yul\":13252:14265   */\n      pop\n        /* \"#utility.yul\":13136:14265   */\n      swap3\n      swap2\n      pop\n      pop\n      jump\t// out\n        /* \"#utility.yul\":14271:14628   */\n    tag_50:\n        /* \"#utility.yul\":14406:14410   */\n      0x00\n        /* \"#utility.yul\":14444:14446   */\n      0x20\n        /* \"#utility.yul\":14433:14442   */\n      dup3\n        /* \"#utility.yul\":14429:14447   */\n      add\n        /* \"#utility.yul\":14421:14447   */\n      swap1\n      pop\n        /* \"#utility.yul\":14493:14502   */\n      dup2\n        /* \"#utility.yul\":14487:14491   */\n      dup2\n        /* \"#utility.yul\":14483:14503   */\n      sub\n        /* \"#utility.yul\":14479:14480   */\n      0x00\n        /* \"#utility.yul\":14468:14477   */\n      dup4\n        /* \"#utility.yul\":14464:14481   */\n      add\n        /* \"#utility.yul\":14457:14504   */\n      mstore\n        /* \"#utility.yul\":14521:14621   */\n      tag_352\n        /* \"#utility.yul\":14616:14620   */\n      dup2\n        /* \"#utility.yul\":14607:14613   */\n      dup5\n        /* \"#utility.yul\":14521:14621   */\n      tag_182\n      jump\t// in\n    tag_352:\n        /* \"#utility.yul\":14513:14621   */\n      swap1\n      pop\n        /* \"#utility.yul\":14271:14628   */\n      swap3\n      swap2\n      pop\n      pop\n      jump\t// out\n        /* \"#utility.yul\":14634:14814   */\n    tag_183:\n        /* \"#utility.yul\":14682:14759   */\n      0x4e487b7100000000000000000000000000000000000000000000000000000000\n        /* \"#utility.yul\":14679:14680   */\n      0x00\n        /* \"#utility.yul\":14672:14760   */\n      mstore\n        /* \"#utility.yul\":14779:14783   */\n      0x22\n        /* \"#utility.yul\":14776:14777   */\n      0x04\n        /* \"#utility.yul\":14769:14784   */\n      mstore\n        /* \"#utility.yul\":14803:14807   */\n      0x24\n        /* \"#utility.yul\":14800:14801   */\n      0x00\n        /* \"#utility.yul\":14793:14808   */\n      revert\n        /* \"#utility.yul\":14820:15140   */\n    tag_57:\n        /* \"#utility.yul\":14864:14870   */\n      0x00\n        /* \"#utility.yul\":14901:14902   */\n      0x02\n        /* \"#utility.yul\":14895:14899   */\n      dup3\n        /* \"#utility.yul\":14891:14903   */\n      div\n        /* \"#utility.yul\":14881:14903   */\n      swap1\n      pop\n        /* \"#utility.yul\":14948:14949   */\n      0x01\n        /* \"#utility.yul\":14942:14946   */\n      dup3\n        /* \"#utility.yul\":14938:14950   */\n      and\n        /* \"#utility.yul\":14969:14987   */\n      dup1\n        /* \"#utility.yul\":14959:15040   */\n      tag_355\n      jumpi\n        /* \"#utility.yul\":15025:15029   */\n      0x7f\n        /* \"#utility.yul\":15017:15023   */\n      dup3\n        /* \"#utility.yul\":15013:15030   */\n      and\n        /* \"#utility.yul\":15003:15030   */\n      swap2\n      pop\n        /* \"#utility.yul\":14959:15040   */\n    tag_355:\n        /* \"#utility.yul\":15087:15089   */\n      0x20\n        /* \"#utility.yul\":15079:15085   */\n      dup3\n        /* \"#utility.yul\":15076:15090   */\n      lt\n        /* \"#utility.yul\":15056:15074   */\n      dup2\n        /* \"#utility.yul\":15053:15091   */\n      sub\n        /* \"#utility.yul\":15050:15134   */\n      tag_356\n      jumpi\n        /* \"#utility.yul\":15106:15124   */\n      tag_357\n      tag_183\n      jump\t// in\n    tag_357:\n        /* \"#utility.yul\":15050:15134   */\n    tag_356:\n        /* \"#utility.yul\":14871:15140   */\n      pop\n        /* \"#utility.yul\":14820:15140   */\n      swap2\n      swap1\n      pop\n      jump\t// out\n        /* \"#utility.yul\":15146:15309   */\n    tag_184:\n        /* \"#utility.yul\":15286:15301   */\n      0x4e6f7420746865206f776e657200000000000000000000000000000000000000\n        /* \"#utility.yul\":15282:15283   */\n      0x00\n        /* \"#utility.yul\":15274:15280   */\n      dup3\n        /* \"#utility.yul\":15270:15284   */\n      add\n        /* \"#utility.yul\":15263:15302   */\n      mstore\n        /* \"#utility.yul\":15146:15309   */\n      pop\n      jump\t// out\n        /* \"#utility.yul\":15315:15681   */\n    tag_185:\n        /* \"#utility.yul\":15457:15460   */\n      0x00\n        /* \"#utility.yul\":15478:15545   */\n      tag_360\n        /* \"#utility.yul\":15542:15544   */\n      0x0d\n        /* \"#utility.yul\":15537:15540   */\n      dup4\n        /* \"#utility.yul\":15478:15545   */\n      tag_153\n      jump\t// in\n    tag_360:\n        /* \"#utility.yul\":15471:15545   */\n      swap2\n      pop\n        /* \"#utility.yul\":15554:15647   */\n      tag_361\n        /* \"#utility.yul\":15643:15646   */\n      dup3\n        /* \"#utility.yul\":15554:15647   */\n      tag_184\n      jump\t// in\n    tag_361:\n        /* \"#utility.yul\":15672:15674   */\n      0x20\n        /* \"#utility.yul\":15667:15670   */\n      dup3\n        /* \"#utility.yul\":15663:15675   */\n      add\n        /* \"#utility.yul\":15656:15675   */\n      swap1\n      pop\n        /* \"#utility.yul\":15315:15681   */\n      swap2\n      swap1\n      pop\n      jump\t// out\n        /* \"#utility.yul\":15687:16106   */\n    tag_74:\n        /* \"#utility.yul\":15853:15857   */\n      0x00\n        /* \"#utility.yul\":15891:15893   */\n      0x20\n        /* \"#utility.yul\":15880:15889   */\n      dup3\n        /* \"#utility.yul\":15876:15894   */\n      add\n        /* \"#utility.yul\":15868:15894   */\n      swap1\n      pop\n        /* \"#utility.yul\":15940:15949   */\n      dup2\n        /* \"#utility.yul\":15934:15938   */\n      dup2\n        /* \"#utility.yul\":15930:15950   */\n      sub\n        /* \"#utility.yul\":15926:15927   */\n      0x00\n        /* \"#utility.yul\":15915:15924   */\n      dup4\n        /* \"#utility.yul\":15911:15928   */\n      add\n        /* \"#utility.yul\":15904:15951   */\n      mstore\n        /* \"#utility.yul\":15968:16099   */\n      tag_363\n        /* \"#utility.yul\":16094:16098   */\n      dup2\n        /* \"#utility.yul\":15968:16099   */\n      tag_185\n      jump\t// in\n    tag_363:\n        /* \"#utility.yul\":15960:16099   */\n      swap1\n      pop\n        /* \"#utility.yul\":15687:16106   */\n      swap2\n      swap1\n      pop\n      jump\t// out\n        /* \"#utility.yul\":16112:16292   */\n    tag_79:\n        /* \"#utility.yul\":16160:16237   */\n      0x4e487b7100000000000000000000000000000000000000000000000000000000\n        /* \"#utility.yul\":16157:16158   */\n      0x00\n        /* \"#utility.yul\":16150:16238   */\n      mstore\n        /* \"#utility.yul\":16257:16261   */\n      0x32\n        /* \"#utility.yul\":16254:16255   */\n      0x04\n        /* \"#utility.yul\":16247:16262   */\n      mstore\n        /* \"#utility.yul\":16281:16285   */\n      0x24\n        /* \"#utility.yul\":16278:16279   */\n      0x00\n        /* \"#utility.yul\":16271:16286   */\n      revert\n        /* \"#utility.yul\":16298:16469   */\n    tag_186:\n        /* \"#utility.yul\":16438:16461   */\n      0x4e6965206d612074616b6965676f207477656574750000000000000000000000\n        /* \"#utility.yul\":16434:16435   */\n      0x00\n        /* \"#utility.yul\":16426:16432   */\n      dup3\n        /* \"#utility.yul\":16422:16436   */\n      add\n        /* \"#utility.yul\":16415:16462   */\n      mstore\n        /* \"#utility.yul\":16298:16469   */\n      pop\n      jump\t// out\n        /* \"#utility.yul\":16475:16841   */\n    tag_187:\n        /* \"#utility.yul\":16617:16620   */\n      0x00\n        /* \"#utility.yul\":16638:16705   */\n      tag_367\n        /* \"#utility.yul\":16702:16704   */\n      0x15\n        /* \"#utility.yul\":16697:16700   */\n      dup4\n        /* \"#utility.yul\":16638:16705   */\n      tag_153\n      jump\t// in\n    tag_367:\n        /* \"#utility.yul\":16631:16705   */\n      swap2\n      pop\n        /* \"#utility.yul\":16714:16807   */\n      tag_368\n        /* \"#utility.yul\":16803:16806   */\n      dup3\n        /* \"#utility.yul\":16714:16807   */\n      tag_186\n      jump\t// in\n    tag_368:\n        /* \"#utility.yul\":16832:16834   */\n      0x20\n        /* \"#utility.yul\":16827:16830   */\n      dup3\n        /* \"#utility.yul\":16823:16835   */\n      add\n        /* \"#utility.yul\":16816:16835   */\n      swap1\n      pop\n        /* \"#utility.yul\":16475:16841   */\n      swap2\n      swap1\n      pop\n      jump\t// out\n        /* \"#utility.yul\":16847:17266   */\n    tag_83:\n        /* \"#utility.yul\":17013:17017   */\n      0x00\n        /* \"#utility.yul\":17051:17053   */\n      0x20\n        /* \"#utility.yul\":17040:17049   */\n      dup3\n        /* \"#utility.yul\":17036:17054   */\n      add\n        /* \"#utility.yul\":17028:17054   */\n      swap1\n      pop\n        /* \"#utility.yul\":17100:17109   */\n      dup2\n        /* \"#utility.yul\":17094:17098   */\n      dup2\n        /* \"#utility.yul\":17090:17110   */\n      sub\n        /* \"#utility.yul\":17086:17087   */\n      0x00\n        /* \"#utility.yul\":17075:17084   */\n      dup4\n        /* \"#utility.yul\":17071:17088   */\n      add\n        /* \"#utility.yul\":17064:17111   */\n      mstore\n        /* \"#utility.yul\":17128:17259   */\n      tag_370\n        /* \"#utility.yul\":17254:17258   */\n      dup2\n        /* \"#utility.yul\":17128:17259   */\n      tag_187\n      jump\t// in\n    tag_370:\n        /* \"#utility.yul\":17120:17259   */\n      swap1\n      pop\n        /* \"#utility.yul\":16847:17266   */\n      swap2\n      swap1\n      pop\n      jump\t// out\n        /* \"#utility.yul\":17272:17444   */\n    tag_188:\n        /* \"#utility.yul\":17412:17436   */\n      0x4e6965206d6f7a65737a207573756e6163206c696b6500000000000000000000\n        /* \"#utility.yul\":17408:17409   */\n      0x00\n        /* \"#utility.yul\":17400:17406   */\n      dup3\n        /* \"#utility.yul\":17396:17410   */\n      add\n        /* \"#utility.yul\":17389:17437   */\n      mstore\n        /* \"#utility.yul\":17272:17444   */\n      pop\n      jump\t// out\n        /* \"#utility.yul\":17450:17816   */\n    tag_189:\n        /* \"#utility.yul\":17592:17595   */\n      0x00\n        /* \"#utility.yul\":17613:17680   */\n      tag_373\n        /* \"#utility.yul\":17677:17679   */\n      0x16\n        /* \"#utility.yul\":17672:17675   */\n      dup4\n        /* \"#utility.yul\":17613:17680   */\n      tag_153\n      jump\t// in\n    tag_373:\n        /* \"#utility.yul\":17606:17680   */\n      swap2\n      pop\n        /* \"#utility.yul\":17689:17782   */\n      tag_374\n        /* \"#utility.yul\":17778:17781   */\n      dup3\n        /* \"#utility.yul\":17689:17782   */\n      tag_188\n      jump\t// in\n    tag_374:\n        /* \"#utility.yul\":17807:17809   */\n      0x20\n        /* \"#utility.yul\":17802:17805   */\n      dup3\n        /* \"#utility.yul\":17798:17810   */\n      add\n        /* \"#utility.yul\":17791:17810   */\n      swap1\n      pop\n        /* \"#utility.yul\":17450:17816   */\n      swap2\n      swap1\n      pop\n      jump\t// out\n        /* \"#utility.yul\":17822:18241   */\n    tag_89:\n        /* \"#utility.yul\":17988:17992   */\n      0x00\n        /* \"#utility.yul\":18026:18028   */\n      0x20\n        /* \"#utility.yul\":18015:18024   */\n      dup3\n        /* \"#utility.yul\":18011:18029   */\n      add\n        /* \"#utility.yul\":18003:18029   */\n      swap1\n      pop\n        /* \"#utility.yul\":18075:18084   */\n      dup2\n        /* \"#utility.yul\":18069:18073   */\n      dup2\n        /* \"#utility.yul\":18065:18085   */\n      sub\n        /* \"#utility.yul\":18061:18062   */\n      0x00\n        /* \"#utility.yul\":18050:18059   */\n      dup4\n        /* \"#utility.yul\":18046:18063   */\n      add\n        /* \"#utility.yul\":18039:18086   */\n      mstore\n        /* \"#utility.yul\":18103:18234   */\n      tag_376\n        /* \"#utility.yul\":18229:18233   */\n      dup2\n        /* \"#utility.yul\":18103:18234   */\n      tag_189\n      jump\t// in\n    tag_376:\n        /* \"#utility.yul\":18095:18234   */\n      swap1\n      pop\n        /* \"#utility.yul\":17822:18241   */\n      swap2\n      swap1\n      pop\n      jump\t// out\n        /* \"#utility.yul\":18247:18427   */\n    tag_190:\n        /* \"#utility.yul\":18295:18372   */\n      0x4e487b7100000000000000000000000000000000000000000000000000000000\n        /* \"#utility.yul\":18292:18293   */\n      0x00\n        /* \"#utility.yul\":18285:18373   */\n      mstore\n        /* \"#utility.yul\":18392:18396   */\n      0x11\n        /* \"#utility.yul\":18389:18390   */\n      0x04\n        /* \"#utility.yul\":18382:18397   */\n      mstore\n        /* \"#utility.yul\":18416:18420   */\n      0x24\n        /* \"#utility.yul\":18413:18414   */\n      0x00\n        /* \"#utility.yul\":18406:18421   */\n      revert\n        /* \"#utility.yul\":18433:18604   */\n    tag_94:\n        /* \"#utility.yul\":18472:18475   */\n      0x00\n        /* \"#utility.yul\":18495:18519   */\n      tag_379\n        /* \"#utility.yul\":18513:18518   */\n      dup3\n        /* \"#utility.yul\":18495:18519   */\n      tag_148\n      jump\t// in\n    tag_379:\n        /* \"#utility.yul\":18486:18519   */\n      swap2\n      pop\n        /* \"#utility.yul\":18541:18545   */\n      0x00\n        /* \"#utility.yul\":18534:18539   */\n      dup3\n        /* \"#utility.yul\":18531:18546   */\n      sub\n        /* \"#utility.yul\":18528:18569   */\n      tag_380\n      jumpi\n        /* \"#utility.yul\":18549:18567   */\n      tag_381\n      tag_190\n      jump\t// in\n    tag_381:\n        /* \"#utility.yul\":18528:18569   */\n    tag_380:\n        /* \"#utility.yul\":18596:18597   */\n      0x01\n        /* \"#utility.yul\":18589:18594   */\n      dup3\n        /* \"#utility.yul\":18585:18598   */\n      sub\n        /* \"#utility.yul\":18578:18598   */\n      swap1\n      pop\n        /* \"#utility.yul\":18433:18604   */\n      swap2\n      swap1\n      pop\n      jump\t// out\n        /* \"#utility.yul\":18610:19163   */\n    tag_99:\n        /* \"#utility.yul\":18787:18791   */\n      0x00\n        /* \"#utility.yul\":18825:18828   */\n      0x80\n        /* \"#utility.yul\":18814:18823   */\n      dup3\n        /* \"#utility.yul\":18810:18829   */\n      add\n        /* \"#utility.yul\":18802:18829   */\n      swap1\n      pop\n        /* \"#utility.yul\":18839:18910   */\n      tag_383\n        /* \"#utility.yul\":18907:18908   */\n      0x00\n        /* \"#utility.yul\":18896:18905   */\n      dup4\n        /* \"#utility.yul\":18892:18909   */\n      add\n        /* \"#utility.yul\":18883:18889   */\n      dup8\n        /* \"#utility.yul\":18839:18910   */\n      tag_151\n      jump\t// in\n    tag_383:\n        /* \"#utility.yul\":18920:18992   */\n      tag_384\n        /* \"#utility.yul\":18988:18990   */\n      0x20\n        /* \"#utility.yul\":18977:18986   */\n      dup4\n        /* \"#utility.yul\":18973:18991   */\n      add\n        /* \"#utility.yul\":18964:18970   */\n      dup7\n        /* \"#utility.yul\":18920:18992   */\n      tag_151\n      jump\t// in\n    tag_384:\n        /* \"#utility.yul\":19002:19074   */\n      tag_385\n        /* \"#utility.yul\":19070:19072   */\n      0x40\n        /* \"#utility.yul\":19059:19068   */\n      dup4\n        /* \"#utility.yul\":19055:19073   */\n      add\n        /* \"#utility.yul\":19046:19052   */\n      dup6\n        /* \"#utility.yul\":19002:19074   */\n      tag_157\n      jump\t// in\n    tag_385:\n        /* \"#utility.yul\":19084:19156   */\n      tag_386\n        /* \"#utility.yul\":19152:19154   */\n      0x60\n        /* \"#utility.yul\":19141:19150   */\n      dup4\n        /* \"#utility.yul\":19137:19155   */\n      add\n        /* \"#utility.yul\":19128:19134   */\n      dup5\n        /* \"#utility.yul\":19084:19156   */\n      tag_157\n      jump\t// in\n    tag_386:\n        /* \"#utility.yul\":18610:19163   */\n      swap6\n      swap5\n      pop\n      pop\n      pop\n      pop\n      pop\n      jump\t// out\n        /* \"#utility.yul\":19169:19334   */\n    tag_191:\n        /* \"#utility.yul\":19309:19326   */\n      0x4d65737361676520746f206c6f6e670000000000000000000000000000000000\n        /* \"#utility.yul\":19305:19306   */\n      0x00\n        /* \"#utility.yul\":19297:19303   */\n      dup3\n        /* \"#utility.yul\":19293:19307   */\n      add\n        /* \"#utility.yul\":19286:19327   */\n      mstore\n        /* \"#utility.yul\":19169:19334   */\n      pop\n      jump\t// out\n        /* \"#utility.yul\":19340:19706   */\n    tag_192:\n        /* \"#utility.yul\":19482:19485   */\n      0x00\n        /* \"#utility.yul\":19503:19570   */\n      tag_389\n        /* \"#utility.yul\":19567:19569   */\n      0x0f\n        /* \"#utility.yul\":19562:19565   */\n      dup4\n        /* \"#utility.yul\":19503:19570   */\n      tag_153\n      jump\t// in\n    tag_389:\n        /* \"#utility.yul\":19496:19570   */\n      swap2\n      pop\n        /* \"#utility.yul\":19579:19672   */\n      tag_390\n        /* \"#utility.yul\":19668:19671   */\n      dup3\n        /* \"#utility.yul\":19579:19672   */\n      tag_191\n      jump\t// in\n    tag_390:\n        /* \"#utility.yul\":19697:19699   */\n      0x20\n        /* \"#utility.yul\":19692:19695   */\n      dup3\n        /* \"#utility.yul\":19688:19700   */\n      add\n        /* \"#utility.yul\":19681:19700   */\n      swap1\n      pop\n        /* \"#utility.yul\":19340:19706   */\n      swap2\n      swap1\n      pop\n      jump\t// out\n        /* \"#utility.yul\":19712:20131   */\n    tag_103:\n        /* \"#utility.yul\":19878:19882   */\n      0x00\n        /* \"#utility.yul\":19916:19918   */\n      0x20\n        /* \"#utility.yul\":19905:19914   */\n      dup3\n        /* \"#utility.yul\":19901:19919   */\n      add\n        /* \"#utility.yul\":19893:19919   */\n      swap1\n      pop\n        /* \"#utility.yul\":19965:19974   */\n      dup2\n        /* \"#utility.yul\":19959:19963   */\n      dup2\n        /* \"#utility.yul\":19955:19975   */\n      sub\n        /* \"#utility.yul\":19951:19952   */\n      0x00\n        /* \"#utility.yul\":19940:19949   */\n      dup4\n        /* \"#utility.yul\":19936:19953   */\n      add\n        /* \"#utility.yul\":19929:19976   */\n      mstore\n        /* \"#utility.yul\":19993:20124   */\n      tag_392\n        /* \"#utility.yul\":20119:20123   */\n      dup2\n        /* \"#utility.yul\":19993:20124   */\n      tag_192\n      jump\t// in\n    tag_392:\n        /* \"#utility.yul\":19985:20124   */\n      swap1\n      pop\n        /* \"#utility.yul\":19712:20131   */\n      swap2\n      swap1\n      pop\n      jump\t// out\n        /* \"#utility.yul\":20137:20278   */\n    tag_193:\n        /* \"#utility.yul\":20186:20190   */\n      0x00\n        /* \"#utility.yul\":20209:20212   */\n      dup2\n        /* \"#utility.yul\":20201:20212   */\n      swap1\n      pop\n        /* \"#utility.yul\":20232:20235   */\n      dup2\n        /* \"#utility.yul\":20229:20230   */\n      0x00\n        /* \"#utility.yul\":20222:20236   */\n      mstore\n        /* \"#utility.yul\":20266:20270   */\n      0x20\n        /* \"#utility.yul\":20263:20264   */\n      0x00\n        /* \"#utility.yul\":20253:20271   */\n      keccak256\n        /* \"#utility.yul\":20245:20271   */\n      swap1\n      pop\n        /* \"#utility.yul\":20137:20278   */\n      swap2\n      swap1\n      pop\n      jump\t// out\n        /* \"#utility.yul\":20284:20377   */\n    tag_194:\n        /* \"#utility.yul\":20321:20327   */\n      0x00\n        /* \"#utility.yul\":20368:20370   */\n      0x20\n        /* \"#utility.yul\":20363:20365   */\n      0x1f\n        /* \"#utility.yul\":20356:20361   */\n      dup4\n        /* \"#utility.yul\":20352:20366   */\n      add\n        /* \"#utility.yul\":20348:20371   */\n      div\n        /* \"#utility.yul\":20338:20371   */\n      swap1\n      pop\n        /* \"#utility.yul\":20284:20377   */\n      swap2\n      swap1\n      pop\n      jump\t// out\n        /* \"#utility.yul\":20383:20490   */\n    tag_195:\n        /* \"#utility.yul\":20427:20435   */\n      0x00\n        /* \"#utility.yul\":20477:20482   */\n      dup3\n        /* \"#utility.yul\":20471:20475   */\n      dup3\n        /* \"#utility.yul\":20467:20483   */\n      shl\n        /* \"#utility.yul\":20446:20483   */\n      swap1\n      pop\n        /* \"#utility.yul\":20383:20490   */\n      swap3\n      swap2\n      pop\n      pop\n      jump\t// out\n        /* \"#utility.yul\":20496:20889   */\n    tag_196:\n        /* \"#utility.yul\":20565:20571   */\n      0x00\n        /* \"#utility.yul\":20615:20616   */\n      0x08\n        /* \"#utility.yul\":20603:20613   */\n      dup4\n        /* \"#utility.yul\":20599:20617   */\n      mul\n        /* \"#utility.yul\":20638:20735   */\n      tag_397\n        /* \"#utility.yul\":20668:20734   */\n      0xffffffffffffffffffffffffffffffffffffffffffffffffffffffffffffffff\n        /* \"#utility.yul\":20657:20666   */\n      dup3\n        /* \"#utility.yul\":20638:20735   */\n      tag_195\n      jump\t// in\n    tag_397:\n        /* \"#utility.yul\":20756:20795   */\n      tag_398\n        /* \"#utility.yul\":20786:20794   */\n      dup7\n        /* \"#utility.yul\":20775:20784   */\n      dup4\n        /* \"#utility.yul\":20756:20795   */\n      tag_195\n      jump\t// in\n    tag_398:\n        /* \"#utility.yul\":20744:20795   */\n      swap6\n      pop\n        /* \"#utility.yul\":20828:20832   */\n      dup1\n        /* \"#utility.yul\":20824:20833   */\n      not\n        /* \"#utility.yul\":20817:20822   */\n      dup5\n        /* \"#utility.yul\":20813:20834   */\n      and\n        /* \"#utility.yul\":20804:20834   */\n      swap4\n      pop\n        /* \"#utility.yul\":20877:20881   */\n      dup1\n        /* \"#utility.yul\":20867:20875   */\n      dup7\n        /* \"#utility.yul\":20863:20882   */\n      and\n        /* \"#utility.yul\":20856:20861   */\n      dup5\n        /* \"#utility.yul\":20853:20883   */\n      or\n        /* \"#utility.yul\":20843:20883   */\n      swap3\n      pop\n        /* \"#utility.yul\":20572:20889   */\n      pop\n      pop\n        /* \"#utility.yul\":20496:20889   */\n      swap4\n      swap3\n      pop\n      pop\n      pop\n      jump\t// out\n        /* \"#utility.yul\":20895:20955   */\n    tag_197:\n        /* \"#utility.yul\":20923:20926   */\n      0x00\n        /* \"#utility.yul\":20944:20949   */\n      dup2\n        /* \"#utility.yul\":20937:20949   */\n      swap1\n      pop\n        /* \"#utility.yul\":20895:20955   */\n      swap2\n      swap1\n      pop\n      jump\t// out\n        /* \"#utility.yul\":20961:21103   */\n    tag_198:\n        /* \"#utility.yul\":21011:21020   */\n      0x00\n        /* \"#utility.yul\":21044:21097   */\n      tag_401\n        /* \"#utility.yul\":21062:21096   */\n      tag_402\n        /* \"#utility.yul\":21071:21095   */\n      tag_403\n        /* \"#utility.yul\":21089:21094   */\n      dup5\n        /* \"#utility.yul\":21071:21095   */\n      tag_148\n      jump\t// in\n    tag_403:\n        /* \"#utility.yul\":21062:21096   */\n      tag_197\n      jump\t// in\n    tag_402:\n        /* \"#utility.yul\":21044:21097   */\n      tag_148\n      jump\t// in\n    tag_401:\n        /* \"#utility.yul\":21031:21097   */\n      swap1\n      pop\n        /* \"#utility.yul\":20961:21103   */\n      swap2\n      swap1\n      pop\n      jump\t// out\n        /* \"#utility.yul\":21109:21184   */\n    tag_199:\n        /* \"#utility.yul\":21152:21155   */\n      0x00\n        /* \"#utility.yul\":21173:21178   */\n      dup2\n        /* \"#utility.yul\":21166:21178   */\n      swap1\n      pop\n        /* \"#utility.yul\":21109:21184   */\n      swap2\n      swap1\n      pop\n      jump\t// out\n        /* \"#utility.yul\":21190:21459   */\n    tag_200:\n        /* \"#utility.yul\":21300:21339   */\n      tag_406\n        /* \"#utility.yul\":21331:21338   */\n      dup4\n        /* \"#utility.yul\":21300:21339   */\n      tag_198\n      jump\t// in\n    tag_406:\n        /* \"#utility.yul\":21361:21452   */\n      tag_407\n        /* \"#utility.yul\":21410:21451   */\n      tag_408\n        /* \"#utility.yul\":21434:21450   */\n      dup3\n        /* \"#utility.yul\":21410:21451   */\n      tag_199\n      jump\t// in\n    tag_408:\n        /* \"#utility.yul\":21402:21408   */\n      dup5\n        /* \"#utility.yul\":21395:21399   */\n      dup5\n        /* \"#utility.yul\":21389:21400   */\n      sload\n        /* \"#utility.yul\":21361:21452   */\n      tag_196\n      jump\t// in\n    tag_407:\n        /* \"#utility.yul\":21355:21359   */\n      dup3\n        /* \"#utility.yul\":21348:21453   */\n      sstore\n        /* \"#utility.yul\":21266:21459   */\n      pop\n        /* \"#utility.yul\":21190:21459   */\n      pop\n      pop\n      pop\n      jump\t// out\n        /* \"#utility.yul\":21465:21538   */\n    tag_201:\n        /* \"#utility.yul\":21510:21513   */\n      0x00\n        /* \"#utility.yul\":21465:21538   */\n      swap1\n      jump\t// out\n        /* \"#utility.yul\":21544:21733   */\n    tag_202:\n        /* \"#utility.yul\":21621:21653   */\n      tag_411\n      tag_201\n      jump\t// in\n    tag_411:\n        /* \"#utility.yul\":21662:21727   */\n      tag_412\n        /* \"#utility.yul\":21720:21726   */\n      dup2\n        /* \"#utility.yul\":21712:21718   */\n      dup5\n        /* \"#utility.yul\":21706:21710   */\n      dup5\n        /* \"#utility.yul\":21662:21727   */\n      tag_200\n      jump\t// in\n    tag_412:\n        /* \"#utility.yul\":21597:21733   */\n      pop\n        /* \"#utility.yul\":21544:21733   */\n      pop\n      pop\n      jump\t// out\n        /* \"#utility.yul\":21739:21925   */\n    tag_203:\n        /* \"#utility.yul\":21799:21919   */\n    tag_414:\n        /* \"#utility.yul\":21816:21819   */\n      dup2\n        /* \"#utility.yul\":21809:21814   */\n      dup2\n        /* \"#utility.yul\":21806:21820   */\n      lt\n        /* \"#utility.yul\":21799:21919   */\n      iszero\n      tag_416\n      jumpi\n        /* \"#utility.yul\":21870:21909   */\n      tag_417\n        /* \"#utility.yul\":21907:21908   */\n      0x00\n        /* \"#utility.yul\":21900:21905   */\n      dup3\n        /* \"#utility.yul\":21870:21909   */\n      tag_202\n      jump\t// in\n    tag_417:\n        /* \"#utility.yul\":21843:21844   */\n      0x01\n        /* \"#utility.yul\":21836:21841   */\n      dup2\n        /* \"#utility.yul\":21832:21845   */\n      add\n        /* \"#utility.yul\":21823:21845   */\n      swap1\n      pop\n        /* \"#utility.yul\":21799:21919   */\n      jump(tag_414)\n    tag_416:\n        /* \"#utility.yul\":21739:21925   */\n      pop\n      pop\n      jump\t// out\n        /* \"#utility.yul\":21931:22474   */\n    tag_204:\n        /* \"#utility.yul\":22032:22034   */\n      0x1f\n        /* \"#utility.yul\":22027:22030   */\n      dup3\n        /* \"#utility.yul\":22024:22035   */\n      gt\n        /* \"#utility.yul\":22021:22467   */\n      iszero\n      tag_419\n      jumpi\n        /* \"#utility.yul\":22066:22104   */\n      tag_420\n        /* \"#utility.yul\":22098:22103   */\n      dup2\n        /* \"#utility.yul\":22066:22104   */\n      tag_193\n      jump\t// in\n    tag_420:\n        /* \"#utility.yul\":22150:22179   */\n      tag_421\n        /* \"#utility.yul\":22168:22178   */\n      dup5\n        /* \"#utility.yul\":22150:22179   */\n      tag_194\n      jump\t// in\n    tag_421:\n        /* \"#utility.yul\":22140:22148   */\n      dup2\n        /* \"#utility.yul\":22136:22180   */\n      add\n        /* \"#utility.yul\":22333:22335   */\n      0x20\n        /* \"#utility.yul\":22321:22331   */\n      dup6\n        /* \"#utility.yul\":22318:22336   */\n      lt\n        /* \"#utility.yul\":22315:22364   */\n      iszero\n      tag_422\n      jumpi\n        /* \"#utility.yul\":22354:22362   */\n      dup2\n        /* \"#utility.yul\":22339:22362   */\n      swap1\n      pop\n        /* \"#utility.yul\":22315:22364   */\n    tag_422:\n        /* \"#utility.yul\":22377:22457   */\n      tag_423\n        /* \"#utility.yul\":22433:22455   */\n      tag_424\n        /* \"#utility.yul\":22451:22454   */\n      dup6\n        /* \"#utility.yul\":22433:22455   */\n      tag_194\n      jump\t// in\n    tag_424:\n        /* \"#utility.yul\":22423:22431   */\n      dup4\n        /* \"#utility.yul\":22419:22456   */\n      add\n        /* \"#utility.yul\":22406:22417   */\n      dup3\n        /* \"#utility.yul\":22377:22457   */\n      tag_203\n      jump\t// in\n    tag_423:\n        /* \"#utility.yul\":22036:22467   */\n      pop\n      pop\n        /* \"#utility.yul\":22021:22467   */\n    tag_419:\n        /* \"#utility.yul\":21931:22474   */\n      pop\n      pop\n      pop\n      jump\t// out\n        /* \"#utility.yul\":22480:22597   */\n    tag_205:\n        /* \"#utility.yul\":22534:22542   */\n      0x00\n        /* \"#utility.yul\":22584:22589   */\n      dup3\n        /* \"#utility.yul\":22578:22582   */\n      dup3\n        /* \"#utility.yul\":22574:22590   */\n      shr\n        /* \"#utility.yul\":22553:22590   */\n      swap1\n      pop\n        /* \"#utility.yul\":22480:22597   */\n      swap3\n      swap2\n      pop\n      pop\n      jump\t// out\n        /* \"#utility.yul\":22603:22772   */\n    tag_206:\n        /* \"#utility.yul\":22647:22653   */\n      0x00\n        /* \"#utility.yul\":22680:22731   */\n      tag_427\n        /* \"#utility.yul\":22728:22729   */\n      0x00\n        /* \"#utility.yul\":22724:22730   */\n      not\n        /* \"#utility.yul\":22716:22721   */\n      dup5\n        /* \"#utility.yul\":22713:22714   */\n      0x08\n        /* \"#utility.yul\":22709:22722   */\n      mul\n        /* \"#utility.yul\":22680:22731   */\n      tag_205\n      jump\t// in\n    tag_427:\n        /* \"#utility.yul\":22676:22732   */\n      not\n        /* \"#utility.yul\":22761:22765   */\n      dup1\n        /* \"#utility.yul\":22755:22759   */\n      dup4\n        /* \"#utility.yul\":22751:22766   */\n      and\n        /* \"#utility.yul\":22741:22766   */\n      swap2\n      pop\n        /* \"#utility.yul\":22654:22772   */\n      pop\n        /* \"#utility.yul\":22603:22772   */\n      swap3\n      swap2\n      pop\n      pop\n      jump\t// out\n        /* \"#utility.yul\":22777:23072   */\n    tag_207:\n        /* \"#utility.yul\":22853:22857   */\n      0x00\n        /* \"#utility.yul\":22999:23028   */\n      tag_429\n        /* \"#utility.yul\":23024:23027   */\n      dup4\n        /* \"#utility.yul\":23018:23022   */\n      dup4\n        /* \"#utility.yul\":22999:23028   */\n      tag_206\n      jump\t// in\n    tag_429:\n        /* \"#utility.yul\":22991:23028   */\n      swap2\n      pop\n        /* \"#utility.yul\":23061:23064   */\n      dup3\n        /* \"#utility.yul\":23058:23059   */\n      0x02\n        /* \"#utility.yul\":23054:23065   */\n      mul\n        /* \"#utility.yul\":23048:23052   */\n      dup3\n        /* \"#utility.yul\":23045:23066   */\n      or\n        /* \"#utility.yul\":23037:23066   */\n      swap1\n      pop\n        /* \"#utility.yul\":22777:23072   */\n      swap3\n      swap2\n      pop\n      pop\n      jump\t// out\n        /* \"#utility.yul\":23077:24472   */\n    tag_106:\n        /* \"#utility.yul\":23194:23231   */\n      tag_431\n        /* \"#utility.yul\":23227:23230   */\n      dup3\n        /* \"#utility.yul\":23194:23231   */\n      tag_152\n      jump\t// in\n    tag_431:\n        /* \"#utility.yul\":23296:23314   */\n      0xffffffffffffffff\n        /* \"#utility.yul\":23288:23294   */\n      dup2\n        /* \"#utility.yul\":23285:23315   */\n      gt\n        /* \"#utility.yul\":23282:23338   */\n      iszero\n      tag_432\n      jumpi\n        /* \"#utility.yul\":23318:23336   */\n      tag_433\n      tag_175\n      jump\t// in\n    tag_433:\n        /* \"#utility.yul\":23282:23338   */\n    tag_432:\n        /* \"#utility.yul\":23362:23400   */\n      tag_434\n        /* \"#utility.yul\":23394:23398   */\n      dup3\n        /* \"#utility.yul\":23388:23399   */\n      sload\n        /* \"#utility.yul\":23362:23400   */\n      tag_57\n      jump\t// in\n    tag_434:\n        /* \"#utility.yul\":23447:23514   */\n      tag_435\n        /* \"#utility.yul\":23507:23513   */\n      dup3\n        /* \"#utility.yul\":23499:23505   */\n      dup3\n        /* \"#utility.yul\":23493:23497   */\n      dup6\n        /* \"#utility.yul\":23447:23514   */\n      tag_204\n      jump\t// in\n    tag_435:\n        /* \"#utility.yul\":23541:23542   */\n      0x00\n        /* \"#utility.yul\":23565:23569   */\n      0x20\n        /* \"#utility.yul\":23552:23569   */\n      swap1\n      pop\n        /* \"#utility.yul\":23597:23599   */\n      0x1f\n        /* \"#utility.yul\":23589:23595   */\n      dup4\n        /* \"#utility.yul\":23586:23600   */\n      gt\n        /* \"#utility.yul\":23614:23615   */\n      0x01\n        /* \"#utility.yul\":23609:24227   */\n      dup2\n      eq\n      tag_437\n      jumpi\n        /* \"#utility.yul\":24271:24272   */\n      0x00\n        /* \"#utility.yul\":24288:24294   */\n      dup5\n        /* \"#utility.yul\":24285:24362   */\n      iszero\n      tag_438\n      jumpi\n        /* \"#utility.yul\":24337:24346   */\n      dup3\n        /* \"#utility.yul\":24332:24335   */\n      dup8\n        /* \"#utility.yul\":24328:24347   */\n      add\n        /* \"#utility.yul\":24322:24348   */\n      mload\n        /* \"#utility.yul\":24313:24348   */\n      swap1\n      pop\n        /* \"#utility.yul\":24285:24362   */\n    tag_438:\n        /* \"#utility.yul\":24388:24455   */\n      tag_439\n        /* \"#utility.yul\":24448:24454   */\n      dup6\n        /* \"#utility.yul\":24441:24446   */\n      dup3\n        /* \"#utility.yul\":24388:24455   */\n      tag_207\n      jump\t// in\n    tag_439:\n        /* \"#utility.yul\":24382:24386   */\n      dup7\n        /* \"#utility.yul\":24375:24456   */\n      sstore\n        /* \"#utility.yul\":24244:24466   */\n      pop\n        /* \"#utility.yul\":23579:24466   */\n      jump(tag_436)\n        /* \"#utility.yul\":23609:24227   */\n    tag_437:\n        /* \"#utility.yul\":23661:23665   */\n      0x1f\n        /* \"#utility.yul\":23657:23666   */\n      not\n        /* \"#utility.yul\":23649:23655   */\n      dup5\n        /* \"#utility.yul\":23645:23667   */\n      and\n        /* \"#utility.yul\":23695:23732   */\n      tag_440\n        /* \"#utility.yul\":23727:23731   */\n      dup7\n        /* \"#utility.yul\":23695:23732   */\n      tag_193\n      jump\t// in\n    tag_440:\n        /* \"#utility.yul\":23754:23755   */\n      0x00\n        /* \"#utility.yul\":23768:23976   */\n    tag_441:\n        /* \"#utility.yul\":23782:23789   */\n      dup3\n        /* \"#utility.yul\":23779:23780   */\n      dup2\n        /* \"#utility.yul\":23776:23790   */\n      lt\n        /* \"#utility.yul\":23768:23976   */\n      iszero\n      tag_443\n      jumpi\n        /* \"#utility.yul\":23861:23870   */\n      dup5\n        /* \"#utility.yul\":23856:23859   */\n      dup10\n        /* \"#utility.yul\":23852:23871   */\n      add\n        /* \"#utility.yul\":23846:23872   */\n      mload\n        /* \"#utility.yul\":23838:23844   */\n      dup3\n        /* \"#utility.yul\":23831:23873   */\n      sstore\n        /* \"#utility.yul\":23912:23913   */\n      0x01\n        /* \"#utility.yul\":23904:23910   */\n      dup3\n        /* \"#utility.yul\":23900:23914   */\n      add\n        /* \"#utility.yul\":23890:23914   */\n      swap2\n      pop\n        /* \"#utility.yul\":23959:23961   */\n      0x20\n        /* \"#utility.yul\":23948:23957   */\n      dup6\n        /* \"#utility.yul\":23944:23962   */\n      add\n        /* \"#utility.yul\":23931:23962   */\n      swap5\n      pop\n        /* \"#utility.yul\":23805:23809   */\n      0x20\n        /* \"#utility.yul\":23802:23803   */\n      dup2\n        /* \"#utility.yul\":23798:23810   */\n      add\n        /* \"#utility.yul\":23793:23810   */\n      swap1\n      pop\n        /* \"#utility.yul\":23768:23976   */\n      jump(tag_441)\n    tag_443:\n        /* \"#utility.yul\":24004:24010   */\n      dup7\n        /* \"#utility.yul\":23995:24002   */\n      dup4\n        /* \"#utility.yul\":23992:24011   */\n      lt\n        /* \"#utility.yul\":23989:24168   */\n      iszero\n      tag_444\n      jumpi\n        /* \"#utility.yul\":24062:24071   */\n      dup5\n        /* \"#utility.yul\":24057:24060   */\n      dup10\n        /* \"#utility.yul\":24053:24072   */\n      add\n        /* \"#utility.yul\":24047:24073   */\n      mload\n        /* \"#utility.yul\":24105:24153   */\n      tag_445\n        /* \"#utility.yul\":24147:24151   */\n      0x1f\n        /* \"#utility.yul\":24139:24145   */\n      dup10\n        /* \"#utility.yul\":24135:24152   */\n      and\n        /* \"#utility.yul\":24124:24133   */\n      dup3\n        /* \"#utility.yul\":24105:24153   */\n      tag_206\n      jump\t// in\n    tag_445:\n        /* \"#utility.yul\":24097:24103   */\n      dup4\n        /* \"#utility.yul\":24090:24154   */\n      sstore\n        /* \"#utility.yul\":24012:24168   */\n      pop\n        /* \"#utility.yul\":23989:24168   */\n    tag_444:\n        /* \"#utility.yul\":24214:24215   */\n      0x01\n        /* \"#utility.yul\":24210:24211   */\n      0x02\n        /* \"#utility.yul\":24202:24208   */\n      dup9\n        /* \"#utility.yul\":24198:24212   */\n      mul\n        /* \"#utility.yul\":24194:24216   */\n      add\n        /* \"#utility.yul\":24188:24192   */\n      dup9\n        /* \"#utility.yul\":24181:24217   */\n      sstore\n        /* \"#utility.yul\":23616:24227   */\n      pop\n      pop\n      pop\n        /* \"#utility.yul\":23579:24466   */\n    tag_436:\n      pop\n        /* \"#utility.yul\":23169:24472   */\n      pop\n      pop\n      pop\n        /* \"#utility.yul\":23077:24472   */\n      pop\n      pop\n      jump\t// out\n        /* \"#utility.yul\":24478:25122   */\n    tag_108:\n        /* \"#utility.yul\":24675:24679   */\n      0x00\n        /* \"#utility.yul\":24713:24716   */\n      0x80\n        /* \"#utility.yul\":24702:24711   */\n      dup3\n        /* \"#utility.yul\":24698:24717   */\n      add\n        /* \"#utility.yul\":24690:24717   */\n      swap1\n      pop\n        /* \"#utility.yul\":24727:24798   */\n      tag_447\n        /* \"#utility.yul\":24795:24796   */\n      0x00\n        /* \"#utility.yul\":24784:24793   */\n      dup4\n        /* \"#utility.yul\":24780:24797   */\n      add\n        /* \"#utility.yul\":24771:24777   */\n      dup8\n        /* \"#utility.yul\":24727:24798   */\n      tag_157\n      jump\t// in\n    tag_447:\n        /* \"#utility.yul\":24808:24880   */\n      tag_448\n        /* \"#utility.yul\":24876:24878   */\n      0x20\n        /* \"#utility.yul\":24865:24874   */\n      dup4\n        /* \"#utility.yul\":24861:24879   */\n      add\n        /* \"#utility.yul\":24852:24858   */\n      dup7\n        /* \"#utility.yul\":24808:24880   */\n      tag_151\n      jump\t// in\n    tag_448:\n        /* \"#utility.yul\":24927:24936   */\n      dup2\n        /* \"#utility.yul\":24921:24925   */\n      dup2\n        /* \"#utility.yul\":24917:24937   */\n      sub\n        /* \"#utility.yul\":24912:24914   */\n      0x40\n        /* \"#utility.yul\":24901:24910   */\n      dup4\n        /* \"#utility.yul\":24897:24915   */\n      add\n        /* \"#utility.yul\":24890:24938   */\n      mstore\n        /* \"#utility.yul\":24955:25033   */\n      tag_449\n        /* \"#utility.yul\":25028:25032   */\n      dup2\n        /* \"#utility.yul\":25019:25025   */\n      dup6\n        /* \"#utility.yul\":24955:25033   */\n      tag_156\n      jump\t// in\n    tag_449:\n        /* \"#utility.yul\":24947:25033   */\n      swap1\n      pop\n        /* \"#utility.yul\":25043:25115   */\n      tag_450\n        /* \"#utility.yul\":25111:25113   */\n      0x60\n        /* \"#utility.yul\":25100:25109   */\n      dup4\n        /* \"#utility.yul\":25096:25114   */\n      add\n        /* \"#utility.yul\":25087:25093   */\n      dup5\n        /* \"#utility.yul\":25043:25115   */\n      tag_157\n      jump\t// in\n    tag_450:\n        /* \"#utility.yul\":24478:25122   */\n      swap6\n      swap5\n      pop\n      pop\n      pop\n      pop\n      pop\n      jump\t// out\n        /* \"#utility.yul\":25128:25370   */\n    tag_208:\n        /* \"#utility.yul\":25268:25302   */\n      0x4a657374657320776c61736369776f736369656d2c206e6965206d6f7a65737a\n        /* \"#utility.yul\":25264:25265   */\n      0x00\n        /* \"#utility.yul\":25256:25262   */\n      dup3\n        /* \"#utility.yul\":25252:25266   */\n      add\n        /* \"#utility.yul\":25245:25303   */\n      mstore\n        /* \"#utility.yul\":25337:25362   */\n      0x206c696b6f77616320776c61736e65676f20706f737461000000000000000000\n        /* \"#utility.yul\":25332:25334   */\n      0x20\n        /* \"#utility.yul\":25324:25330   */\n      dup3\n        /* \"#utility.yul\":25320:25335   */\n      add\n        /* \"#utility.yul\":25313:25363   */\n      mstore\n        /* \"#utility.yul\":25128:25370   */\n      pop\n      jump\t// out\n        /* \"#utility.yul\":25376:25742   */\n    tag_209:\n        /* \"#utility.yul\":25518:25521   */\n      0x00\n        /* \"#utility.yul\":25539:25606   */\n      tag_453\n        /* \"#utility.yul\":25603:25605   */\n      0x37\n        /* \"#utility.yul\":25598:25601   */\n      dup4\n        /* \"#utility.yul\":25539:25606   */\n      tag_153\n      jump\t// in\n    tag_453:\n        /* \"#utility.yul\":25532:25606   */\n      swap2\n      pop\n        /* \"#utility.yul\":25615:25708   */\n      tag_454\n        /* \"#utility.yul\":25704:25707   */\n      dup3\n        /* \"#utility.yul\":25615:25708   */\n      tag_208\n      jump\t// in\n    tag_454:\n        /* \"#utility.yul\":25733:25735   */\n      0x40\n        /* \"#utility.yul\":25728:25731   */\n      dup3\n        /* \"#utility.yul\":25724:25736   */\n      add\n        /* \"#utility.yul\":25717:25736   */\n      swap1\n      pop\n        /* \"#utility.yul\":25376:25742   */\n      swap2\n      swap1\n      pop\n      jump\t// out\n        /* \"#utility.yul\":25748:26167   */\n    tag_126:\n        /* \"#utility.yul\":25914:25918   */\n      0x00\n        /* \"#utility.yul\":25952:25954   */\n      0x20\n        /* \"#utility.yul\":25941:25950   */\n      dup3\n        /* \"#utility.yul\":25937:25955   */\n      add\n        /* \"#utility.yul\":25929:25955   */\n      swap1\n      pop\n        /* \"#utility.yul\":26001:26010   */\n      dup2\n        /* \"#utility.yul\":25995:25999   */\n      dup2\n        /* \"#utility.yul\":25991:26011   */\n      sub\n        /* \"#utility.yul\":25987:25988   */\n      0x00\n        /* \"#utility.yul\":25976:25985   */\n      dup4\n        /* \"#utility.yul\":25972:25989   */\n      add\n        /* \"#utility.yul\":25965:26012   */\n      mstore\n        /* \"#utility.yul\":26029:26160   */\n      tag_456\n        /* \"#utility.yul\":26155:26159   */\n      dup2\n        /* \"#utility.yul\":26029:26160   */\n      tag_209\n      jump\t// in\n    tag_456:\n        /* \"#utility.yul\":26021:26160   */\n      swap1\n      pop\n        /* \"#utility.yul\":25748:26167   */\n      swap2\n      swap1\n      pop\n      jump\t// out\n        /* \"#utility.yul\":26173:26406   */\n    tag_136:\n        /* \"#utility.yul\":26212:26215   */\n      0x00\n        /* \"#utility.yul\":26235:26259   */\n      tag_458\n        /* \"#utility.yul\":26253:26258   */\n      dup3\n        /* \"#utility.yul\":26235:26259   */\n      tag_148\n      jump\t// in\n    tag_458:\n        /* \"#utility.yul\":26226:26259   */\n      swap2\n      pop\n        /* \"#utility.yul\":26281:26347   */\n      0xffffffffffffffffffffffffffffffffffffffffffffffffffffffffffffffff\n        /* \"#utility.yul\":26274:26279   */\n      dup3\n        /* \"#utility.yul\":26271:26348   */\n      sub\n        /* \"#utility.yul\":26268:26371   */\n      tag_459\n      jumpi\n        /* \"#utility.yul\":26351:26369   */\n      tag_460\n      tag_190\n      jump\t// in\n    tag_460:\n        /* \"#utility.yul\":26268:26371   */\n    tag_459:\n        /* \"#utility.yul\":26398:26399   */\n      0x01\n        /* \"#utility.yul\":26391:26396   */\n      dup3\n        /* \"#utility.yul\":26387:26400   */\n      add\n        /* \"#utility.yul\":26380:26400   */\n      swap1\n      pop\n        /* \"#utility.yul\":26173:26406   */\n      swap2\n      swap1\n      pop\n      jump\t// out\n\n    auxdata: 0xa2646970667358221220c1dc0f2abe9d0c34da86732255dd557178c5c25ea87400fa403d093766aa979564736f6c634300081a0033\n}\n",
				"bytecode": {
					"linkReferences": {},
					"object": "60806040526101185f806101000a81548161ffff021916908361ffff160217905550348015602b575f80fd5b503360025f6101000a81548173ffffffffffffffffffffffffffffffffffffffff021916908373ffffffffffffffffffffffffffffffffffffffff160217905550611b43806100795f395ff3fe608060405234801561000f575f80fd5b5060043610610091575f3560e01c80637a639e39116100645780637a639e39146101335780637c9cd2bc1461014f5780638da5cb5b1461016b578063c3ad5ecb14610189578063f65a8f40146101b957610091565b806305a1b4a91461009557806312e7ee1c146100c957806358bfa4ab146100f95780636eb1079714610115575b5f80fd5b6100af60048036038101906100aa9190610eac565b6101d5565b6040516100c0959493929190610f78565b60405180910390f35b6100e360048036038101906100de9190610fd0565b6102c6565b6040516100f0919061118f565b60405180910390f35b610113600480360381019061010e91906111e6565b610461565b005b61011d61050e565b60405161012a9190611220565b60405180910390f35b61014d60048036038101906101489190611239565b61051f565b005b610169600480360381019061016491906113a3565b610771565b005b610173610974565b60405161018091906113ea565b60405180910390f35b6101a3600480360381019061019e9190611403565b610999565b6040516101b091906114a1565b60405180910390f35b6101d360048036038101906101ce9190610eac565b610b10565b005b6001602052815f5260405f2081815481106101ee575f80fd5b905f5260205f2090600502015f9150915050805f015f9054906101000a900473ffffffffffffffffffffffffffffffffffffffff1690806001018054610233906114ee565b80601f016020809104026020016040519081016040528092919081815260200182805461025f906114ee565b80156102aa5780601f10610281576101008083540402835291602001916102aa565b820191905f5260205f20905b81548152906001019060200180831161028d57829003601f168201915b5050505050908060020154908060030154908060040154905085565b606060015f8373ffffffffffffffffffffffffffffffffffffffff1673ffffffffffffffffffffffffffffffffffffffff1681526020019081526020015f20805480602002602001604051908101604052809291908181526020015f905b82821015610456578382905f5260205f2090600502016040518060a00160405290815f82015f9054906101000a900473ffffffffffffffffffffffffffffffffffffffff1673ffffffffffffffffffffffffffffffffffffffff1673ffffffffffffffffffffffffffffffffffffffff1681526020016001820180546103a9906114ee565b80601f01602080910402602001604051908101604052809291908181526020018280546103d5906114ee565b80156104205780601f106103f757610100808354040283529160200191610420565b820191905f5260205f20905b81548152906001019060200180831161040357829003601f168201915b50505050508152602001600282015481526020016003820154815260200160048201548152505081526020019060010190610324565b505050509050919050565b60025f9054906101000a900473ffffffffffffffffffffffffffffffffffffffff1673ffffffffffffffffffffffffffffffffffffffff163373ffffffffffffffffffffffffffffffffffffffff16146104f0576040517f08c379a00000000000000000000000000000000000000000000000000000000081526004016104e790611568565b60405180910390fd5b805f806101000a81548161ffff021916908361ffff16021790555050565b5f8054906101000a900461ffff1681565b8160015f8373ffffffffffffffffffffffffffffffffffffffff1673ffffffffffffffffffffffffffffffffffffffff1681526020019081526020015f20838154811061056f5761056e611586565b5b905f5260205f20906005020160040154146105bf576040517f08c379a00000000000000000000000000000000000000000000000000000000081526004016105b6906115fd565b60405180910390fd5b5f60015f8373ffffffffffffffffffffffffffffffffffffffff1673ffffffffffffffffffffffffffffffffffffffff1681526020019081526020015f20838154811061060f5761060e611586565b5b905f5260205f209060050201600301541161065f576040517f08c379a000000000000000000000000000000000000000000000000000000000815260040161065690611665565b60405180910390fd5b60015f8273ffffffffffffffffffffffffffffffffffffffff1673ffffffffffffffffffffffffffffffffffffffff1681526020019081526020015f2082815481106106ae576106ad611586565b5b905f5260205f2090600502016003015f8154809291906106cd906116b0565b91905055507f762c2616349603ac16eba0de8e6141b79129a07ab63bd99e0a80b3a47171694333828460015f8673ffffffffffffffffffffffffffffffffffffffff1673ffffffffffffffffffffffffffffffffffffffff1681526020019081526020015f20868154811061074557610744611586565b5b905f5260205f2090600502016003015460405161076594939291906116d7565b60405180910390a15050565b5f8054906101000a900461ffff1661ffff16815111156107c6576040517f08c379a00000000000000000000000000000000000000000000000000000000081526004016107bd90611764565b60405180910390fd5b5f6040518060a001604052803373ffffffffffffffffffffffffffffffffffffffff1681526020018381526020014281526020015f815260200160015f3373ffffffffffffffffffffffffffffffffffffffff1673ffffffffffffffffffffffffffffffffffffffff1681526020019081526020015f2080549050815250905060015f3373ffffffffffffffffffffffffffffffffffffffff1673ffffffffffffffffffffffffffffffffffffffff1681526020019081526020015f2081908060018154018082558091505060019003905f5260205f2090600502015f909190919091505f820151815f015f6101000a81548173ffffffffffffffffffffffffffffffffffffffff021916908373ffffffffffffffffffffffffffffffffffffffff1602179055506020820151816001019081610903919061191f565b5060408201518160020155606082015181600301556080820151816004015550507f16fd3c13e9d46923e0a8bce11c7b473ec508a72e6c96cd2404b29ce972afc29e8160800151825f01518360200151846040015160405161096894939291906119ee565b60405180910390a15050565b60025f9054906101000a900473ffffffffffffffffffffffffffffffffffffffff1681565b6109a1610dcd565b60015f3373ffffffffffffffffffffffffffffffffffffffff1673ffffffffffffffffffffffffffffffffffffffff1681526020019081526020015f2082815481106109f0576109ef611586565b5b905f5260205f2090600502016040518060a00160405290815f82015f9054906101000a900473ffffffffffffffffffffffffffffffffffffffff1673ffffffffffffffffffffffffffffffffffffffff1673ffffffffffffffffffffffffffffffffffffffff168152602001600182018054610a6b906114ee565b80601f0160208091040260200160405190810160405280929190818152602001828054610a97906114ee565b8015610ae25780601f10610ab957610100808354040283529160200191610ae2565b820191905f5260205f20905b815481529060010190602001808311610ac557829003601f168201915b5050505050815260200160028201548152602001600382015481526020016004820154815250509050919050565b60025f9054906101000a900473ffffffffffffffffffffffffffffffffffffffff1673ffffffffffffffffffffffffffffffffffffffff1660015f8473ffffffffffffffffffffffffffffffffffffffff1673ffffffffffffffffffffffffffffffffffffffff1681526020019081526020015f208281548110610b9757610b96611586565b5b905f5260205f2090600502015f015f9054906101000a900473ffffffffffffffffffffffffffffffffffffffff1673ffffffffffffffffffffffffffffffffffffffff1603610c1b576040517f08c379a0000000000000000000000000000000000000000000000000000000008152600401610c1290611aa8565b60405180910390fd5b8060015f8473ffffffffffffffffffffffffffffffffffffffff1673ffffffffffffffffffffffffffffffffffffffff1681526020019081526020015f208281548110610c6b57610c6a611586565b5b905f5260205f2090600502016004015414610cbb576040517f08c379a0000000000000000000000000000000000000000000000000000000008152600401610cb2906115fd565b60405180910390fd5b60015f8373ffffffffffffffffffffffffffffffffffffffff1673ffffffffffffffffffffffffffffffffffffffff1681526020019081526020015f208181548110610d0a57610d09611586565b5b905f5260205f2090600502016003015f815480929190610d2990611ac6565b91905055507fe8a76fc0f16d11a00d1e93b689b63d76cf60af914dd3d915375dc41d01a0c3c833838360015f8773ffffffffffffffffffffffffffffffffffffffff1673ffffffffffffffffffffffffffffffffffffffff1681526020019081526020015f208581548110610da157610da0611586565b5b905f5260205f20906005020160030154604051610dc194939291906116d7565b60405180910390a15050565b6040518060a001604052805f73ffffffffffffffffffffffffffffffffffffffff168152602001606081526020015f81526020015f81526020015f81525090565b5f604051905090565b5f80fd5b5f80fd5b5f73ffffffffffffffffffffffffffffffffffffffff82169050919050565b5f610e4882610e1f565b9050919050565b610e5881610e3e565b8114610e62575f80fd5b50565b5f81359050610e7381610e4f565b92915050565b5f819050919050565b610e8b81610e79565b8114610e95575f80fd5b50565b5f81359050610ea681610e82565b92915050565b5f8060408385031215610ec257610ec1610e17565b5b5f610ecf85828601610e65565b9250506020610ee085828601610e98565b9150509250929050565b610ef381610e3e565b82525050565b5f81519050919050565b5f82825260208201905092915050565b8281835e5f83830152505050565b5f601f19601f8301169050919050565b5f610f3b82610ef9565b610f458185610f03565b9350610f55818560208601610f13565b610f5e81610f21565b840191505092915050565b610f7281610e79565b82525050565b5f60a082019050610f8b5f830188610eea565b8181036020830152610f9d8187610f31565b9050610fac6040830186610f69565b610fb96060830185610f69565b610fc66080830184610f69565b9695505050505050565b5f60208284031215610fe557610fe4610e17565b5b5f610ff284828501610e65565b91505092915050565b5f81519050919050565b5f82825260208201905092915050565b5f819050602082019050919050565b61102d81610e3e565b82525050565b5f82825260208201905092915050565b5f61104d82610ef9565b6110578185611033565b9350611067818560208601610f13565b61107081610f21565b840191505092915050565b61108481610e79565b82525050565b5f60a083015f83015161109f5f860182611024565b50602083015184820360208601526110b78282611043565b91505060408301516110cc604086018261107b565b5060608301516110df606086018261107b565b5060808301516110f2608086018261107b565b508091505092915050565b5f611108838361108a565b905092915050565b5f602082019050919050565b5f61112682610ffb565b6111308185611005565b93508360208202850161114285611015565b805f5b8581101561117d578484038952815161115e85826110fd565b945061116983611110565b925060208a01995050600181019050611145565b50829750879550505050505092915050565b5f6020820190508181035f8301526111a7818461111c565b905092915050565b5f61ffff82169050919050565b6111c5816111af565b81146111cf575f80fd5b50565b5f813590506111e0816111bc565b92915050565b5f602082840312156111fb576111fa610e17565b5b5f611208848285016111d2565b91505092915050565b61121a816111af565b82525050565b5f6020820190506112335f830184611211565b92915050565b5f806040838503121561124f5761124e610e17565b5b5f61125c85828601610e98565b925050602061126d85828601610e65565b9150509250929050565b5f80fd5b5f80fd5b7f4e487b71000000000000000000000000000000000000000000000000000000005f52604160045260245ffd5b6112b582610f21565b810181811067ffffffffffffffff821117156112d4576112d361127f565b5b80604052505050565b5f6112e6610e0e565b90506112f282826112ac565b919050565b5f67ffffffffffffffff8211156113115761131061127f565b5b61131a82610f21565b9050602081019050919050565b828183375f83830152505050565b5f611347611342846112f7565b6112dd565b9050828152602081018484840111156113635761136261127b565b5b61136e848285611327565b509392505050565b5f82601f83011261138a57611389611277565b5b813561139a848260208601611335565b91505092915050565b5f602082840312156113b8576113b7610e17565b5b5f82013567ffffffffffffffff8111156113d5576113d4610e1b565b5b6113e184828501611376565b91505092915050565b5f6020820190506113fd5f830184610eea565b92915050565b5f6020828403121561141857611417610e17565b5b5f61142584828501610e98565b91505092915050565b5f60a083015f8301516114435f860182611024565b506020830151848203602086015261145b8282611043565b9150506040830151611470604086018261107b565b506060830151611483606086018261107b565b506080830151611496608086018261107b565b508091505092915050565b5f6020820190508181035f8301526114b9818461142e565b905092915050565b7f4e487b71000000000000000000000000000000000000000000000000000000005f52602260045260245ffd5b5f600282049050600182168061150557607f821691505b602082108103611518576115176114c1565b5b50919050565b7f4e6f7420746865206f776e6572000000000000000000000000000000000000005f82015250565b5f611552600d83610f03565b915061155d8261151e565b602082019050919050565b5f6020820190508181035f83015261157f81611546565b9050919050565b7f4e487b71000000000000000000000000000000000000000000000000000000005f52603260045260245ffd5b7f4e6965206d612074616b6965676f2074776565747500000000000000000000005f82015250565b5f6115e7601583610f03565b91506115f2826115b3565b602082019050919050565b5f6020820190508181035f830152611614816115db565b9050919050565b7f4e6965206d6f7a65737a207573756e6163206c696b65000000000000000000005f82015250565b5f61164f601683610f03565b915061165a8261161b565b602082019050919050565b5f6020820190508181035f83015261167c81611643565b9050919050565b7f4e487b71000000000000000000000000000000000000000000000000000000005f52601160045260245ffd5b5f6116ba82610e79565b91505f82036116cc576116cb611683565b5b600182039050919050565b5f6080820190506116ea5f830187610eea565b6116f76020830186610eea565b6117046040830185610f69565b6117116060830184610f69565b95945050505050565b7f4d65737361676520746f206c6f6e6700000000000000000000000000000000005f82015250565b5f61174e600f83610f03565b91506117598261171a565b602082019050919050565b5f6020820190508181035f83015261177b81611742565b9050919050565b5f819050815f5260205f209050919050565b5f6020601f8301049050919050565b5f82821b905092915050565b5f600883026117de7fffffffffffffffffffffffffffffffffffffffffffffffffffffffffffffffff826117a3565b6117e886836117a3565b95508019841693508086168417925050509392505050565b5f819050919050565b5f61182361181e61181984610e79565b611800565b610e79565b9050919050565b5f819050919050565b61183c83611809565b6118506118488261182a565b8484546117af565b825550505050565b5f90565b611864611858565b61186f818484611833565b505050565b5b81811015611892576118875f8261185c565b600181019050611875565b5050565b601f8211156118d7576118a881611782565b6118b184611794565b810160208510156118c0578190505b6118d46118cc85611794565b830182611874565b50505b505050565b5f82821c905092915050565b5f6118f75f19846008026118dc565b1980831691505092915050565b5f61190f83836118e8565b9150826002028217905092915050565b61192882610ef9565b67ffffffffffffffff8111156119415761194061127f565b5b61194b82546114ee565b611956828285611896565b5f60209050601f831160018114611987575f8415611975578287015190505b61197f8582611904565b8655506119e6565b601f19841661199586611782565b5f5b828110156119bc57848901518255600182019150602085019450602081019050611997565b868310156119d957848901516119d5601f8916826118e8565b8355505b6001600288020188555050505b505050505050565b5f608082019050611a015f830187610f69565b611a0e6020830186610eea565b8181036040830152611a208185610f31565b9050611a2f6060830184610f69565b95945050505050565b7f4a657374657320776c61736369776f736369656d2c206e6965206d6f7a65737a5f8201527f206c696b6f77616320776c61736e65676f20706f737461000000000000000000602082015250565b5f611a92603783610f03565b9150611a9d82611a38565b604082019050919050565b5f6020820190508181035f830152611abf81611a86565b9050919050565b5f611ad082610e79565b91507fffffffffffffffffffffffffffffffffffffffffffffffffffffffffffffffff8203611b0257611b01611683565b5b60018201905091905056fea2646970667358221220c1dc0f2abe9d0c34da86732255dd557178c5c25ea87400fa403d093766aa979564736f6c634300081a0033",
					"opcodes": "PUSH1 0x80 PUSH1 0x40 MSTORE PUSH2 0x118 PUSH0 DUP1 PUSH2 0x100 EXP DUP2 SLOAD DUP2 PUSH2 0xFFFF MUL NOT AND SWAP1 DUP4 PUSH2 0xFFFF AND MUL OR SWAP1 SSTORE POP CALLVALUE DUP1 ISZERO PUSH1 0x2B JUMPI PUSH0 DUP1 REVERT JUMPDEST POP CALLER PUSH1 0x2 PUSH0 PUSH2 0x100 EXP DUP2 SLOAD DUP2 PUSH20 0xFFFFFFFFFFFFFFFFFFFFFFFFFFFFFFFFFFFFFFFF MUL NOT AND SWAP1 DUP4 PUSH20 0xFFFFFFFFFFFFFFFFFFFFFFFFFFFFFFFFFFFFFFFF AND MUL OR SWAP1 SSTORE POP PUSH2 0x1B43 DUP1 PUSH2 0x79 PUSH0 CODECOPY PUSH0 RETURN INVALID PUSH1 0x80 PUSH1 0x40 MSTORE CALLVALUE DUP1 ISZERO PUSH2 0xF JUMPI PUSH0 DUP1 REVERT JUMPDEST POP PUSH1 0x4 CALLDATASIZE LT PUSH2 0x91 JUMPI PUSH0 CALLDATALOAD PUSH1 0xE0 SHR DUP1 PUSH4 0x7A639E39 GT PUSH2 0x64 JUMPI DUP1 PUSH4 0x7A639E39 EQ PUSH2 0x133 JUMPI DUP1 PUSH4 0x7C9CD2BC EQ PUSH2 0x14F JUMPI DUP1 PUSH4 0x8DA5CB5B EQ PUSH2 0x16B JUMPI DUP1 PUSH4 0xC3AD5ECB EQ PUSH2 0x189 JUMPI DUP1 PUSH4 0xF65A8F40 EQ PUSH2 0x1B9 JUMPI PUSH2 0x91 JUMP JUMPDEST DUP1 PUSH4 0x5A1B4A9 EQ PUSH2 0x95 JUMPI DUP1 PUSH4 0x12E7EE1C EQ PUSH2 0xC9 JUMPI DUP1 PUSH4 0x58BFA4AB EQ PUSH2 0xF9 JUMPI DUP1 PUSH4 0x6EB10797 EQ PUSH2 0x115 JUMPI JUMPDEST PUSH0 DUP1 REVERT JUMPDEST PUSH2 0xAF PUSH1 0x4 DUP1 CALLDATASIZE SUB DUP2 ADD SWAP1 PUSH2 0xAA SWAP2 SWAP1 PUSH2 0xEAC JUMP JUMPDEST PUSH2 0x1D5 JUMP JUMPDEST PUSH1 0x40 MLOAD PUSH2 0xC0 SWAP6 SWAP5 SWAP4 SWAP3 SWAP2 SWAP1 PUSH2 0xF78 JUMP JUMPDEST PUSH1 0x40 MLOAD DUP1 SWAP2 SUB SWAP1 RETURN JUMPDEST PUSH2 0xE3 PUSH1 0x4 DUP1 CALLDATASIZE SUB DUP2 ADD SWAP1 PUSH2 0xDE SWAP2 SWAP1 PUSH2 0xFD0 JUMP JUMPDEST PUSH2 0x2C6 JUMP JUMPDEST PUSH1 0x40 MLOAD PUSH2 0xF0 SWAP2 SWAP1 PUSH2 0x118F JUMP JUMPDEST PUSH1 0x40 MLOAD DUP1 SWAP2 SUB SWAP1 RETURN JUMPDEST PUSH2 0x113 PUSH1 0x4 DUP1 CALLDATASIZE SUB DUP2 ADD SWAP1 PUSH2 0x10E SWAP2 SWAP1 PUSH2 0x11E6 JUMP JUMPDEST PUSH2 0x461 JUMP JUMPDEST STOP JUMPDEST PUSH2 0x11D PUSH2 0x50E JUMP JUMPDEST PUSH1 0x40 MLOAD PUSH2 0x12A SWAP2 SWAP1 PUSH2 0x1220 JUMP JUMPDEST PUSH1 0x40 MLOAD DUP1 SWAP2 SUB SWAP1 RETURN JUMPDEST PUSH2 0x14D PUSH1 0x4 DUP1 CALLDATASIZE SUB DUP2 ADD SWAP1 PUSH2 0x148 SWAP2 SWAP1 PUSH2 0x1239 JUMP JUMPDEST PUSH2 0x51F JUMP JUMPDEST STOP JUMPDEST PUSH2 0x169 PUSH1 0x4 DUP1 CALLDATASIZE SUB DUP2 ADD SWAP1 PUSH2 0x164 SWAP2 SWAP1 PUSH2 0x13A3 JUMP JUMPDEST PUSH2 0x771 JUMP JUMPDEST STOP JUMPDEST PUSH2 0x173 PUSH2 0x974 JUMP JUMPDEST PUSH1 0x40 MLOAD PUSH2 0x180 SWAP2 SWAP1 PUSH2 0x13EA JUMP JUMPDEST PUSH1 0x40 MLOAD DUP1 SWAP2 SUB SWAP1 RETURN JUMPDEST PUSH2 0x1A3 PUSH1 0x4 DUP1 CALLDATASIZE SUB DUP2 ADD SWAP1 PUSH2 0x19E SWAP2 SWAP1 PUSH2 0x1403 JUMP JUMPDEST PUSH2 0x999 JUMP JUMPDEST PUSH1 0x40 MLOAD PUSH2 0x1B0 SWAP2 SWAP1 PUSH2 0x14A1 JUMP JUMPDEST PUSH1 0x40 MLOAD DUP1 SWAP2 SUB SWAP1 RETURN JUMPDEST PUSH2 0x1D3 PUSH1 0x4 DUP1 CALLDATASIZE SUB DUP2 ADD SWAP1 PUSH2 0x1CE SWAP2 SWAP1 PUSH2 0xEAC JUMP JUMPDEST PUSH2 0xB10 JUMP JUMPDEST STOP JUMPDEST PUSH1 0x1 PUSH1 0x20 MSTORE DUP2 PUSH0 MSTORE PUSH1 0x40 PUSH0 KECCAK256 DUP2 DUP2 SLOAD DUP2 LT PUSH2 0x1EE JUMPI PUSH0 DUP1 REVERT JUMPDEST SWAP1 PUSH0 MSTORE PUSH1 0x20 PUSH0 KECCAK256 SWAP1 PUSH1 0x5 MUL ADD PUSH0 SWAP2 POP SWAP2 POP POP DUP1 PUSH0 ADD PUSH0 SWAP1 SLOAD SWAP1 PUSH2 0x100 EXP SWAP1 DIV PUSH20 0xFFFFFFFFFFFFFFFFFFFFFFFFFFFFFFFFFFFFFFFF AND SWAP1 DUP1 PUSH1 0x1 ADD DUP1 SLOAD PUSH2 0x233 SWAP1 PUSH2 0x14EE JUMP JUMPDEST DUP1 PUSH1 0x1F ADD PUSH1 0x20 DUP1 SWAP2 DIV MUL PUSH1 0x20 ADD PUSH1 0x40 MLOAD SWAP1 DUP2 ADD PUSH1 0x40 MSTORE DUP1 SWAP3 SWAP2 SWAP1 DUP2 DUP2 MSTORE PUSH1 0x20 ADD DUP3 DUP1 SLOAD PUSH2 0x25F SWAP1 PUSH2 0x14EE JUMP JUMPDEST DUP1 ISZERO PUSH2 0x2AA JUMPI DUP1 PUSH1 0x1F LT PUSH2 0x281 JUMPI PUSH2 0x100 DUP1 DUP4 SLOAD DIV MUL DUP4 MSTORE SWAP2 PUSH1 0x20 ADD SWAP2 PUSH2 0x2AA JUMP JUMPDEST DUP3 ADD SWAP2 SWAP1 PUSH0 MSTORE PUSH1 0x20 PUSH0 KECCAK256 SWAP1 JUMPDEST DUP2 SLOAD DUP2 MSTORE SWAP1 PUSH1 0x1 ADD SWAP1 PUSH1 0x20 ADD DUP1 DUP4 GT PUSH2 0x28D JUMPI DUP3 SWAP1 SUB PUSH1 0x1F AND DUP3 ADD SWAP2 JUMPDEST POP POP POP POP POP SWAP1 DUP1 PUSH1 0x2 ADD SLOAD SWAP1 DUP1 PUSH1 0x3 ADD SLOAD SWAP1 DUP1 PUSH1 0x4 ADD SLOAD SWAP1 POP DUP6 JUMP JUMPDEST PUSH1 0x60 PUSH1 0x1 PUSH0 DUP4 PUSH20 0xFFFFFFFFFFFFFFFFFFFFFFFFFFFFFFFFFFFFFFFF AND PUSH20 0xFFFFFFFFFFFFFFFFFFFFFFFFFFFFFFFFFFFFFFFF AND DUP2 MSTORE PUSH1 0x20 ADD SWAP1 DUP2 MSTORE PUSH1 0x20 ADD PUSH0 KECCAK256 DUP1 SLOAD DUP1 PUSH1 0x20 MUL PUSH1 0x20 ADD PUSH1 0x40 MLOAD SWAP1 DUP2 ADD PUSH1 0x40 MSTORE DUP1 SWAP3 SWAP2 SWAP1 DUP2 DUP2 MSTORE PUSH1 0x20 ADD PUSH0 SWAP1 JUMPDEST DUP3 DUP3 LT ISZERO PUSH2 0x456 JUMPI DUP4 DUP3 SWAP1 PUSH0 MSTORE PUSH1 0x20 PUSH0 KECCAK256 SWAP1 PUSH1 0x5 MUL ADD PUSH1 0x40 MLOAD DUP1 PUSH1 0xA0 ADD PUSH1 0x40 MSTORE SWAP1 DUP2 PUSH0 DUP3 ADD PUSH0 SWAP1 SLOAD SWAP1 PUSH2 0x100 EXP SWAP1 DIV PUSH20 0xFFFFFFFFFFFFFFFFFFFFFFFFFFFFFFFFFFFFFFFF AND PUSH20 0xFFFFFFFFFFFFFFFFFFFFFFFFFFFFFFFFFFFFFFFF AND PUSH20 0xFFFFFFFFFFFFFFFFFFFFFFFFFFFFFFFFFFFFFFFF AND DUP2 MSTORE PUSH1 0x20 ADD PUSH1 0x1 DUP3 ADD DUP1 SLOAD PUSH2 0x3A9 SWAP1 PUSH2 0x14EE JUMP JUMPDEST DUP1 PUSH1 0x1F ADD PUSH1 0x20 DUP1 SWAP2 DIV MUL PUSH1 0x20 ADD PUSH1 0x40 MLOAD SWAP1 DUP2 ADD PUSH1 0x40 MSTORE DUP1 SWAP3 SWAP2 SWAP1 DUP2 DUP2 MSTORE PUSH1 0x20 ADD DUP3 DUP1 SLOAD PUSH2 0x3D5 SWAP1 PUSH2 0x14EE JUMP JUMPDEST DUP1 ISZERO PUSH2 0x420 JUMPI DUP1 PUSH1 0x1F LT PUSH2 0x3F7 JUMPI PUSH2 0x100 DUP1 DUP4 SLOAD DIV MUL DUP4 MSTORE SWAP2 PUSH1 0x20 ADD SWAP2 PUSH2 0x420 JUMP JUMPDEST DUP3 ADD SWAP2 SWAP1 PUSH0 MSTORE PUSH1 0x20 PUSH0 KECCAK256 SWAP1 JUMPDEST DUP2 SLOAD DUP2 MSTORE SWAP1 PUSH1 0x1 ADD SWAP1 PUSH1 0x20 ADD DUP1 DUP4 GT PUSH2 0x403 JUMPI DUP3 SWAP1 SUB PUSH1 0x1F AND DUP3 ADD SWAP2 JUMPDEST POP POP POP POP POP DUP2 MSTORE PUSH1 0x20 ADD PUSH1 0x2 DUP3 ADD SLOAD DUP2 MSTORE PUSH1 0x20 ADD PUSH1 0x3 DUP3 ADD SLOAD DUP2 MSTORE PUSH1 0x20 ADD PUSH1 0x4 DUP3 ADD SLOAD DUP2 MSTORE POP POP DUP2 MSTORE PUSH1 0x20 ADD SWAP1 PUSH1 0x1 ADD SWAP1 PUSH2 0x324 JUMP JUMPDEST POP POP POP POP SWAP1 POP SWAP2 SWAP1 POP JUMP JUMPDEST PUSH1 0x2 PUSH0 SWAP1 SLOAD SWAP1 PUSH2 0x100 EXP SWAP1 DIV PUSH20 0xFFFFFFFFFFFFFFFFFFFFFFFFFFFFFFFFFFFFFFFF AND PUSH20 0xFFFFFFFFFFFFFFFFFFFFFFFFFFFFFFFFFFFFFFFF AND CALLER PUSH20 0xFFFFFFFFFFFFFFFFFFFFFFFFFFFFFFFFFFFFFFFF AND EQ PUSH2 0x4F0 JUMPI PUSH1 0x40 MLOAD PUSH32 0x8C379A000000000000000000000000000000000000000000000000000000000 DUP2 MSTORE PUSH1 0x4 ADD PUSH2 0x4E7 SWAP1 PUSH2 0x1568 JUMP JUMPDEST PUSH1 0x40 MLOAD DUP1 SWAP2 SUB SWAP1 REVERT JUMPDEST DUP1 PUSH0 DUP1 PUSH2 0x100 EXP DUP2 SLOAD DUP2 PUSH2 0xFFFF MUL NOT AND SWAP1 DUP4 PUSH2 0xFFFF AND MUL OR SWAP1 SSTORE POP POP JUMP JUMPDEST PUSH0 DUP1 SLOAD SWAP1 PUSH2 0x100 EXP SWAP1 DIV PUSH2 0xFFFF AND DUP2 JUMP JUMPDEST DUP2 PUSH1 0x1 PUSH0 DUP4 PUSH20 0xFFFFFFFFFFFFFFFFFFFFFFFFFFFFFFFFFFFFFFFF AND PUSH20 0xFFFFFFFFFFFFFFFFFFFFFFFFFFFFFFFFFFFFFFFF AND DUP2 MSTORE PUSH1 0x20 ADD SWAP1 DUP2 MSTORE PUSH1 0x20 ADD PUSH0 KECCAK256 DUP4 DUP2 SLOAD DUP2 LT PUSH2 0x56F JUMPI PUSH2 0x56E PUSH2 0x1586 JUMP JUMPDEST JUMPDEST SWAP1 PUSH0 MSTORE PUSH1 0x20 PUSH0 KECCAK256 SWAP1 PUSH1 0x5 MUL ADD PUSH1 0x4 ADD SLOAD EQ PUSH2 0x5BF JUMPI PUSH1 0x40 MLOAD PUSH32 0x8C379A000000000000000000000000000000000000000000000000000000000 DUP2 MSTORE PUSH1 0x4 ADD PUSH2 0x5B6 SWAP1 PUSH2 0x15FD JUMP JUMPDEST PUSH1 0x40 MLOAD DUP1 SWAP2 SUB SWAP1 REVERT JUMPDEST PUSH0 PUSH1 0x1 PUSH0 DUP4 PUSH20 0xFFFFFFFFFFFFFFFFFFFFFFFFFFFFFFFFFFFFFFFF AND PUSH20 0xFFFFFFFFFFFFFFFFFFFFFFFFFFFFFFFFFFFFFFFF AND DUP2 MSTORE PUSH1 0x20 ADD SWAP1 DUP2 MSTORE PUSH1 0x20 ADD PUSH0 KECCAK256 DUP4 DUP2 SLOAD DUP2 LT PUSH2 0x60F JUMPI PUSH2 0x60E PUSH2 0x1586 JUMP JUMPDEST JUMPDEST SWAP1 PUSH0 MSTORE PUSH1 0x20 PUSH0 KECCAK256 SWAP1 PUSH1 0x5 MUL ADD PUSH1 0x3 ADD SLOAD GT PUSH2 0x65F JUMPI PUSH1 0x40 MLOAD PUSH32 0x8C379A000000000000000000000000000000000000000000000000000000000 DUP2 MSTORE PUSH1 0x4 ADD PUSH2 0x656 SWAP1 PUSH2 0x1665 JUMP JUMPDEST PUSH1 0x40 MLOAD DUP1 SWAP2 SUB SWAP1 REVERT JUMPDEST PUSH1 0x1 PUSH0 DUP3 PUSH20 0xFFFFFFFFFFFFFFFFFFFFFFFFFFFFFFFFFFFFFFFF AND PUSH20 0xFFFFFFFFFFFFFFFFFFFFFFFFFFFFFFFFFFFFFFFF AND DUP2 MSTORE PUSH1 0x20 ADD SWAP1 DUP2 MSTORE PUSH1 0x20 ADD PUSH0 KECCAK256 DUP3 DUP2 SLOAD DUP2 LT PUSH2 0x6AE JUMPI PUSH2 0x6AD PUSH2 0x1586 JUMP JUMPDEST JUMPDEST SWAP1 PUSH0 MSTORE PUSH1 0x20 PUSH0 KECCAK256 SWAP1 PUSH1 0x5 MUL ADD PUSH1 0x3 ADD PUSH0 DUP2 SLOAD DUP1 SWAP3 SWAP2 SWAP1 PUSH2 0x6CD SWAP1 PUSH2 0x16B0 JUMP JUMPDEST SWAP2 SWAP1 POP SSTORE POP PUSH32 0x762C2616349603AC16EBA0DE8E6141B79129A07AB63BD99E0A80B3A471716943 CALLER DUP3 DUP5 PUSH1 0x1 PUSH0 DUP7 PUSH20 0xFFFFFFFFFFFFFFFFFFFFFFFFFFFFFFFFFFFFFFFF AND PUSH20 0xFFFFFFFFFFFFFFFFFFFFFFFFFFFFFFFFFFFFFFFF AND DUP2 MSTORE PUSH1 0x20 ADD SWAP1 DUP2 MSTORE PUSH1 0x20 ADD PUSH0 KECCAK256 DUP7 DUP2 SLOAD DUP2 LT PUSH2 0x745 JUMPI PUSH2 0x744 PUSH2 0x1586 JUMP JUMPDEST JUMPDEST SWAP1 PUSH0 MSTORE PUSH1 0x20 PUSH0 KECCAK256 SWAP1 PUSH1 0x5 MUL ADD PUSH1 0x3 ADD SLOAD PUSH1 0x40 MLOAD PUSH2 0x765 SWAP5 SWAP4 SWAP3 SWAP2 SWAP1 PUSH2 0x16D7 JUMP JUMPDEST PUSH1 0x40 MLOAD DUP1 SWAP2 SUB SWAP1 LOG1 POP POP JUMP JUMPDEST PUSH0 DUP1 SLOAD SWAP1 PUSH2 0x100 EXP SWAP1 DIV PUSH2 0xFFFF AND PUSH2 0xFFFF AND DUP2 MLOAD GT ISZERO PUSH2 0x7C6 JUMPI PUSH1 0x40 MLOAD PUSH32 0x8C379A000000000000000000000000000000000000000000000000000000000 DUP2 MSTORE PUSH1 0x4 ADD PUSH2 0x7BD SWAP1 PUSH2 0x1764 JUMP JUMPDEST PUSH1 0x40 MLOAD DUP1 SWAP2 SUB SWAP1 REVERT JUMPDEST PUSH0 PUSH1 0x40 MLOAD DUP1 PUSH1 0xA0 ADD PUSH1 0x40 MSTORE DUP1 CALLER PUSH20 0xFFFFFFFFFFFFFFFFFFFFFFFFFFFFFFFFFFFFFFFF AND DUP2 MSTORE PUSH1 0x20 ADD DUP4 DUP2 MSTORE PUSH1 0x20 ADD TIMESTAMP DUP2 MSTORE PUSH1 0x20 ADD PUSH0 DUP2 MSTORE PUSH1 0x20 ADD PUSH1 0x1 PUSH0 CALLER PUSH20 0xFFFFFFFFFFFFFFFFFFFFFFFFFFFFFFFFFFFFFFFF AND PUSH20 0xFFFFFFFFFFFFFFFFFFFFFFFFFFFFFFFFFFFFFFFF AND DUP2 MSTORE PUSH1 0x20 ADD SWAP1 DUP2 MSTORE PUSH1 0x20 ADD PUSH0 KECCAK256 DUP1 SLOAD SWAP1 POP DUP2 MSTORE POP SWAP1 POP PUSH1 0x1 PUSH0 CALLER PUSH20 0xFFFFFFFFFFFFFFFFFFFFFFFFFFFFFFFFFFFFFFFF AND PUSH20 0xFFFFFFFFFFFFFFFFFFFFFFFFFFFFFFFFFFFFFFFF AND DUP2 MSTORE PUSH1 0x20 ADD SWAP1 DUP2 MSTORE PUSH1 0x20 ADD PUSH0 KECCAK256 DUP2 SWAP1 DUP1 PUSH1 0x1 DUP2 SLOAD ADD DUP1 DUP3 SSTORE DUP1 SWAP2 POP POP PUSH1 0x1 SWAP1 SUB SWAP1 PUSH0 MSTORE PUSH1 0x20 PUSH0 KECCAK256 SWAP1 PUSH1 0x5 MUL ADD PUSH0 SWAP1 SWAP2 SWAP1 SWAP2 SWAP1 SWAP2 POP PUSH0 DUP3 ADD MLOAD DUP2 PUSH0 ADD PUSH0 PUSH2 0x100 EXP DUP2 SLOAD DUP2 PUSH20 0xFFFFFFFFFFFFFFFFFFFFFFFFFFFFFFFFFFFFFFFF MUL NOT AND SWAP1 DUP4 PUSH20 0xFFFFFFFFFFFFFFFFFFFFFFFFFFFFFFFFFFFFFFFF AND MUL OR SWAP1 SSTORE POP PUSH1 0x20 DUP3 ADD MLOAD DUP2 PUSH1 0x1 ADD SWAP1 DUP2 PUSH2 0x903 SWAP2 SWAP1 PUSH2 0x191F JUMP JUMPDEST POP PUSH1 0x40 DUP3 ADD MLOAD DUP2 PUSH1 0x2 ADD SSTORE PUSH1 0x60 DUP3 ADD MLOAD DUP2 PUSH1 0x3 ADD SSTORE PUSH1 0x80 DUP3 ADD MLOAD DUP2 PUSH1 0x4 ADD SSTORE POP POP PUSH32 0x16FD3C13E9D46923E0A8BCE11C7B473EC508A72E6C96CD2404B29CE972AFC29E DUP2 PUSH1 0x80 ADD MLOAD DUP3 PUSH0 ADD MLOAD DUP4 PUSH1 0x20 ADD MLOAD DUP5 PUSH1 0x40 ADD MLOAD PUSH1 0x40 MLOAD PUSH2 0x968 SWAP5 SWAP4 SWAP3 SWAP2 SWAP1 PUSH2 0x19EE JUMP JUMPDEST PUSH1 0x40 MLOAD DUP1 SWAP2 SUB SWAP1 LOG1 POP POP JUMP JUMPDEST PUSH1 0x2 PUSH0 SWAP1 SLOAD SWAP1 PUSH2 0x100 EXP SWAP1 DIV PUSH20 0xFFFFFFFFFFFFFFFFFFFFFFFFFFFFFFFFFFFFFFFF AND DUP2 JUMP JUMPDEST PUSH2 0x9A1 PUSH2 0xDCD JUMP JUMPDEST PUSH1 0x1 PUSH0 CALLER PUSH20 0xFFFFFFFFFFFFFFFFFFFFFFFFFFFFFFFFFFFFFFFF AND PUSH20 0xFFFFFFFFFFFFFFFFFFFFFFFFFFFFFFFFFFFFFFFF AND DUP2 MSTORE PUSH1 0x20 ADD SWAP1 DUP2 MSTORE PUSH1 0x20 ADD PUSH0 KECCAK256 DUP3 DUP2 SLOAD DUP2 LT PUSH2 0x9F0 JUMPI PUSH2 0x9EF PUSH2 0x1586 JUMP JUMPDEST JUMPDEST SWAP1 PUSH0 MSTORE PUSH1 0x20 PUSH0 KECCAK256 SWAP1 PUSH1 0x5 MUL ADD PUSH1 0x40 MLOAD DUP1 PUSH1 0xA0 ADD PUSH1 0x40 MSTORE SWAP1 DUP2 PUSH0 DUP3 ADD PUSH0 SWAP1 SLOAD SWAP1 PUSH2 0x100 EXP SWAP1 DIV PUSH20 0xFFFFFFFFFFFFFFFFFFFFFFFFFFFFFFFFFFFFFFFF AND PUSH20 0xFFFFFFFFFFFFFFFFFFFFFFFFFFFFFFFFFFFFFFFF AND PUSH20 0xFFFFFFFFFFFFFFFFFFFFFFFFFFFFFFFFFFFFFFFF AND DUP2 MSTORE PUSH1 0x20 ADD PUSH1 0x1 DUP3 ADD DUP1 SLOAD PUSH2 0xA6B SWAP1 PUSH2 0x14EE JUMP JUMPDEST DUP1 PUSH1 0x1F ADD PUSH1 0x20 DUP1 SWAP2 DIV MUL PUSH1 0x20 ADD PUSH1 0x40 MLOAD SWAP1 DUP2 ADD PUSH1 0x40 MSTORE DUP1 SWAP3 SWAP2 SWAP1 DUP2 DUP2 MSTORE PUSH1 0x20 ADD DUP3 DUP1 SLOAD PUSH2 0xA97 SWAP1 PUSH2 0x14EE JUMP JUMPDEST DUP1 ISZERO PUSH2 0xAE2 JUMPI DUP1 PUSH1 0x1F LT PUSH2 0xAB9 JUMPI PUSH2 0x100 DUP1 DUP4 SLOAD DIV MUL DUP4 MSTORE SWAP2 PUSH1 0x20 ADD SWAP2 PUSH2 0xAE2 JUMP JUMPDEST DUP3 ADD SWAP2 SWAP1 PUSH0 MSTORE PUSH1 0x20 PUSH0 KECCAK256 SWAP1 JUMPDEST DUP2 SLOAD DUP2 MSTORE SWAP1 PUSH1 0x1 ADD SWAP1 PUSH1 0x20 ADD DUP1 DUP4 GT PUSH2 0xAC5 JUMPI DUP3 SWAP1 SUB PUSH1 0x1F AND DUP3 ADD SWAP2 JUMPDEST POP POP POP POP POP DUP2 MSTORE PUSH1 0x20 ADD PUSH1 0x2 DUP3 ADD SLOAD DUP2 MSTORE PUSH1 0x20 ADD PUSH1 0x3 DUP3 ADD SLOAD DUP2 MSTORE PUSH1 0x20 ADD PUSH1 0x4 DUP3 ADD SLOAD DUP2 MSTORE POP POP SWAP1 POP SWAP2 SWAP1 POP JUMP JUMPDEST PUSH1 0x2 PUSH0 SWAP1 SLOAD SWAP1 PUSH2 0x100 EXP SWAP1 DIV PUSH20 0xFFFFFFFFFFFFFFFFFFFFFFFFFFFFFFFFFFFFFFFF AND PUSH20 0xFFFFFFFFFFFFFFFFFFFFFFFFFFFFFFFFFFFFFFFF AND PUSH1 0x1 PUSH0 DUP5 PUSH20 0xFFFFFFFFFFFFFFFFFFFFFFFFFFFFFFFFFFFFFFFF AND PUSH20 0xFFFFFFFFFFFFFFFFFFFFFFFFFFFFFFFFFFFFFFFF AND DUP2 MSTORE PUSH1 0x20 ADD SWAP1 DUP2 MSTORE PUSH1 0x20 ADD PUSH0 KECCAK256 DUP3 DUP2 SLOAD DUP2 LT PUSH2 0xB97 JUMPI PUSH2 0xB96 PUSH2 0x1586 JUMP JUMPDEST JUMPDEST SWAP1 PUSH0 MSTORE PUSH1 0x20 PUSH0 KECCAK256 SWAP1 PUSH1 0x5 MUL ADD PUSH0 ADD PUSH0 SWAP1 SLOAD SWAP1 PUSH2 0x100 EXP SWAP1 DIV PUSH20 0xFFFFFFFFFFFFFFFFFFFFFFFFFFFFFFFFFFFFFFFF AND PUSH20 0xFFFFFFFFFFFFFFFFFFFFFFFFFFFFFFFFFFFFFFFF AND SUB PUSH2 0xC1B JUMPI PUSH1 0x40 MLOAD PUSH32 0x8C379A000000000000000000000000000000000000000000000000000000000 DUP2 MSTORE PUSH1 0x4 ADD PUSH2 0xC12 SWAP1 PUSH2 0x1AA8 JUMP JUMPDEST PUSH1 0x40 MLOAD DUP1 SWAP2 SUB SWAP1 REVERT JUMPDEST DUP1 PUSH1 0x1 PUSH0 DUP5 PUSH20 0xFFFFFFFFFFFFFFFFFFFFFFFFFFFFFFFFFFFFFFFF AND PUSH20 0xFFFFFFFFFFFFFFFFFFFFFFFFFFFFFFFFFFFFFFFF AND DUP2 MSTORE PUSH1 0x20 ADD SWAP1 DUP2 MSTORE PUSH1 0x20 ADD PUSH0 KECCAK256 DUP3 DUP2 SLOAD DUP2 LT PUSH2 0xC6B JUMPI PUSH2 0xC6A PUSH2 0x1586 JUMP JUMPDEST JUMPDEST SWAP1 PUSH0 MSTORE PUSH1 0x20 PUSH0 KECCAK256 SWAP1 PUSH1 0x5 MUL ADD PUSH1 0x4 ADD SLOAD EQ PUSH2 0xCBB JUMPI PUSH1 0x40 MLOAD PUSH32 0x8C379A000000000000000000000000000000000000000000000000000000000 DUP2 MSTORE PUSH1 0x4 ADD PUSH2 0xCB2 SWAP1 PUSH2 0x15FD JUMP JUMPDEST PUSH1 0x40 MLOAD DUP1 SWAP2 SUB SWAP1 REVERT JUMPDEST PUSH1 0x1 PUSH0 DUP4 PUSH20 0xFFFFFFFFFFFFFFFFFFFFFFFFFFFFFFFFFFFFFFFF AND PUSH20 0xFFFFFFFFFFFFFFFFFFFFFFFFFFFFFFFFFFFFFFFF AND DUP2 MSTORE PUSH1 0x20 ADD SWAP1 DUP2 MSTORE PUSH1 0x20 ADD PUSH0 KECCAK256 DUP2 DUP2 SLOAD DUP2 LT PUSH2 0xD0A JUMPI PUSH2 0xD09 PUSH2 0x1586 JUMP JUMPDEST JUMPDEST SWAP1 PUSH0 MSTORE PUSH1 0x20 PUSH0 KECCAK256 SWAP1 PUSH1 0x5 MUL ADD PUSH1 0x3 ADD PUSH0 DUP2 SLOAD DUP1 SWAP3 SWAP2 SWAP1 PUSH2 0xD29 SWAP1 PUSH2 0x1AC6 JUMP JUMPDEST SWAP2 SWAP1 POP SSTORE POP PUSH32 0xE8A76FC0F16D11A00D1E93B689B63D76CF60AF914DD3D915375DC41D01A0C3C8 CALLER DUP4 DUP4 PUSH1 0x1 PUSH0 DUP8 PUSH20 0xFFFFFFFFFFFFFFFFFFFFFFFFFFFFFFFFFFFFFFFF AND PUSH20 0xFFFFFFFFFFFFFFFFFFFFFFFFFFFFFFFFFFFFFFFF AND DUP2 MSTORE PUSH1 0x20 ADD SWAP1 DUP2 MSTORE PUSH1 0x20 ADD PUSH0 KECCAK256 DUP6 DUP2 SLOAD DUP2 LT PUSH2 0xDA1 JUMPI PUSH2 0xDA0 PUSH2 0x1586 JUMP JUMPDEST JUMPDEST SWAP1 PUSH0 MSTORE PUSH1 0x20 PUSH0 KECCAK256 SWAP1 PUSH1 0x5 MUL ADD PUSH1 0x3 ADD SLOAD PUSH1 0x40 MLOAD PUSH2 0xDC1 SWAP5 SWAP4 SWAP3 SWAP2 SWAP1 PUSH2 0x16D7 JUMP JUMPDEST PUSH1 0x40 MLOAD DUP1 SWAP2 SUB SWAP1 LOG1 POP POP JUMP JUMPDEST PUSH1 0x40 MLOAD DUP1 PUSH1 0xA0 ADD PUSH1 0x40 MSTORE DUP1 PUSH0 PUSH20 0xFFFFFFFFFFFFFFFFFFFFFFFFFFFFFFFFFFFFFFFF AND DUP2 MSTORE PUSH1 0x20 ADD PUSH1 0x60 DUP2 MSTORE PUSH1 0x20 ADD PUSH0 DUP2 MSTORE PUSH1 0x20 ADD PUSH0 DUP2 MSTORE PUSH1 0x20 ADD PUSH0 DUP2 MSTORE POP SWAP1 JUMP JUMPDEST PUSH0 PUSH1 0x40 MLOAD SWAP1 POP SWAP1 JUMP JUMPDEST PUSH0 DUP1 REVERT JUMPDEST PUSH0 DUP1 REVERT JUMPDEST PUSH0 PUSH20 0xFFFFFFFFFFFFFFFFFFFFFFFFFFFFFFFFFFFFFFFF DUP3 AND SWAP1 POP SWAP2 SWAP1 POP JUMP JUMPDEST PUSH0 PUSH2 0xE48 DUP3 PUSH2 0xE1F JUMP JUMPDEST SWAP1 POP SWAP2 SWAP1 POP JUMP JUMPDEST PUSH2 0xE58 DUP2 PUSH2 0xE3E JUMP JUMPDEST DUP2 EQ PUSH2 0xE62 JUMPI PUSH0 DUP1 REVERT JUMPDEST POP JUMP JUMPDEST PUSH0 DUP2 CALLDATALOAD SWAP1 POP PUSH2 0xE73 DUP2 PUSH2 0xE4F JUMP JUMPDEST SWAP3 SWAP2 POP POP JUMP JUMPDEST PUSH0 DUP2 SWAP1 POP SWAP2 SWAP1 POP JUMP JUMPDEST PUSH2 0xE8B DUP2 PUSH2 0xE79 JUMP JUMPDEST DUP2 EQ PUSH2 0xE95 JUMPI PUSH0 DUP1 REVERT JUMPDEST POP JUMP JUMPDEST PUSH0 DUP2 CALLDATALOAD SWAP1 POP PUSH2 0xEA6 DUP2 PUSH2 0xE82 JUMP JUMPDEST SWAP3 SWAP2 POP POP JUMP JUMPDEST PUSH0 DUP1 PUSH1 0x40 DUP4 DUP6 SUB SLT ISZERO PUSH2 0xEC2 JUMPI PUSH2 0xEC1 PUSH2 0xE17 JUMP JUMPDEST JUMPDEST PUSH0 PUSH2 0xECF DUP6 DUP3 DUP7 ADD PUSH2 0xE65 JUMP JUMPDEST SWAP3 POP POP PUSH1 0x20 PUSH2 0xEE0 DUP6 DUP3 DUP7 ADD PUSH2 0xE98 JUMP JUMPDEST SWAP2 POP POP SWAP3 POP SWAP3 SWAP1 POP JUMP JUMPDEST PUSH2 0xEF3 DUP2 PUSH2 0xE3E JUMP JUMPDEST DUP3 MSTORE POP POP JUMP JUMPDEST PUSH0 DUP2 MLOAD SWAP1 POP SWAP2 SWAP1 POP JUMP JUMPDEST PUSH0 DUP3 DUP3 MSTORE PUSH1 0x20 DUP3 ADD SWAP1 POP SWAP3 SWAP2 POP POP JUMP JUMPDEST DUP3 DUP2 DUP4 MCOPY PUSH0 DUP4 DUP4 ADD MSTORE POP POP POP JUMP JUMPDEST PUSH0 PUSH1 0x1F NOT PUSH1 0x1F DUP4 ADD AND SWAP1 POP SWAP2 SWAP1 POP JUMP JUMPDEST PUSH0 PUSH2 0xF3B DUP3 PUSH2 0xEF9 JUMP JUMPDEST PUSH2 0xF45 DUP2 DUP6 PUSH2 0xF03 JUMP JUMPDEST SWAP4 POP PUSH2 0xF55 DUP2 DUP6 PUSH1 0x20 DUP7 ADD PUSH2 0xF13 JUMP JUMPDEST PUSH2 0xF5E DUP2 PUSH2 0xF21 JUMP JUMPDEST DUP5 ADD SWAP2 POP POP SWAP3 SWAP2 POP POP JUMP JUMPDEST PUSH2 0xF72 DUP2 PUSH2 0xE79 JUMP JUMPDEST DUP3 MSTORE POP POP JUMP JUMPDEST PUSH0 PUSH1 0xA0 DUP3 ADD SWAP1 POP PUSH2 0xF8B PUSH0 DUP4 ADD DUP9 PUSH2 0xEEA JUMP JUMPDEST DUP2 DUP2 SUB PUSH1 0x20 DUP4 ADD MSTORE PUSH2 0xF9D DUP2 DUP8 PUSH2 0xF31 JUMP JUMPDEST SWAP1 POP PUSH2 0xFAC PUSH1 0x40 DUP4 ADD DUP7 PUSH2 0xF69 JUMP JUMPDEST PUSH2 0xFB9 PUSH1 0x60 DUP4 ADD DUP6 PUSH2 0xF69 JUMP JUMPDEST PUSH2 0xFC6 PUSH1 0x80 DUP4 ADD DUP5 PUSH2 0xF69 JUMP JUMPDEST SWAP7 SWAP6 POP POP POP POP POP POP JUMP JUMPDEST PUSH0 PUSH1 0x20 DUP3 DUP5 SUB SLT ISZERO PUSH2 0xFE5 JUMPI PUSH2 0xFE4 PUSH2 0xE17 JUMP JUMPDEST JUMPDEST PUSH0 PUSH2 0xFF2 DUP5 DUP3 DUP6 ADD PUSH2 0xE65 JUMP JUMPDEST SWAP2 POP POP SWAP3 SWAP2 POP POP JUMP JUMPDEST PUSH0 DUP2 MLOAD SWAP1 POP SWAP2 SWAP1 POP JUMP JUMPDEST PUSH0 DUP3 DUP3 MSTORE PUSH1 0x20 DUP3 ADD SWAP1 POP SWAP3 SWAP2 POP POP JUMP JUMPDEST PUSH0 DUP2 SWAP1 POP PUSH1 0x20 DUP3 ADD SWAP1 POP SWAP2 SWAP1 POP JUMP JUMPDEST PUSH2 0x102D DUP2 PUSH2 0xE3E JUMP JUMPDEST DUP3 MSTORE POP POP JUMP JUMPDEST PUSH0 DUP3 DUP3 MSTORE PUSH1 0x20 DUP3 ADD SWAP1 POP SWAP3 SWAP2 POP POP JUMP JUMPDEST PUSH0 PUSH2 0x104D DUP3 PUSH2 0xEF9 JUMP JUMPDEST PUSH2 0x1057 DUP2 DUP6 PUSH2 0x1033 JUMP JUMPDEST SWAP4 POP PUSH2 0x1067 DUP2 DUP6 PUSH1 0x20 DUP7 ADD PUSH2 0xF13 JUMP JUMPDEST PUSH2 0x1070 DUP2 PUSH2 0xF21 JUMP JUMPDEST DUP5 ADD SWAP2 POP POP SWAP3 SWAP2 POP POP JUMP JUMPDEST PUSH2 0x1084 DUP2 PUSH2 0xE79 JUMP JUMPDEST DUP3 MSTORE POP POP JUMP JUMPDEST PUSH0 PUSH1 0xA0 DUP4 ADD PUSH0 DUP4 ADD MLOAD PUSH2 0x109F PUSH0 DUP7 ADD DUP3 PUSH2 0x1024 JUMP JUMPDEST POP PUSH1 0x20 DUP4 ADD MLOAD DUP5 DUP3 SUB PUSH1 0x20 DUP7 ADD MSTORE PUSH2 0x10B7 DUP3 DUP3 PUSH2 0x1043 JUMP JUMPDEST SWAP2 POP POP PUSH1 0x40 DUP4 ADD MLOAD PUSH2 0x10CC PUSH1 0x40 DUP7 ADD DUP3 PUSH2 0x107B JUMP JUMPDEST POP PUSH1 0x60 DUP4 ADD MLOAD PUSH2 0x10DF PUSH1 0x60 DUP7 ADD DUP3 PUSH2 0x107B JUMP JUMPDEST POP PUSH1 0x80 DUP4 ADD MLOAD PUSH2 0x10F2 PUSH1 0x80 DUP7 ADD DUP3 PUSH2 0x107B JUMP JUMPDEST POP DUP1 SWAP2 POP POP SWAP3 SWAP2 POP POP JUMP JUMPDEST PUSH0 PUSH2 0x1108 DUP4 DUP4 PUSH2 0x108A JUMP JUMPDEST SWAP1 POP SWAP3 SWAP2 POP POP JUMP JUMPDEST PUSH0 PUSH1 0x20 DUP3 ADD SWAP1 POP SWAP2 SWAP1 POP JUMP JUMPDEST PUSH0 PUSH2 0x1126 DUP3 PUSH2 0xFFB JUMP JUMPDEST PUSH2 0x1130 DUP2 DUP6 PUSH2 0x1005 JUMP JUMPDEST SWAP4 POP DUP4 PUSH1 0x20 DUP3 MUL DUP6 ADD PUSH2 0x1142 DUP6 PUSH2 0x1015 JUMP JUMPDEST DUP1 PUSH0 JUMPDEST DUP6 DUP2 LT ISZERO PUSH2 0x117D JUMPI DUP5 DUP5 SUB DUP10 MSTORE DUP2 MLOAD PUSH2 0x115E DUP6 DUP3 PUSH2 0x10FD JUMP JUMPDEST SWAP5 POP PUSH2 0x1169 DUP4 PUSH2 0x1110 JUMP JUMPDEST SWAP3 POP PUSH1 0x20 DUP11 ADD SWAP10 POP POP PUSH1 0x1 DUP2 ADD SWAP1 POP PUSH2 0x1145 JUMP JUMPDEST POP DUP3 SWAP8 POP DUP8 SWAP6 POP POP POP POP POP POP SWAP3 SWAP2 POP POP JUMP JUMPDEST PUSH0 PUSH1 0x20 DUP3 ADD SWAP1 POP DUP2 DUP2 SUB PUSH0 DUP4 ADD MSTORE PUSH2 0x11A7 DUP2 DUP5 PUSH2 0x111C JUMP JUMPDEST SWAP1 POP SWAP3 SWAP2 POP POP JUMP JUMPDEST PUSH0 PUSH2 0xFFFF DUP3 AND SWAP1 POP SWAP2 SWAP1 POP JUMP JUMPDEST PUSH2 0x11C5 DUP2 PUSH2 0x11AF JUMP JUMPDEST DUP2 EQ PUSH2 0x11CF JUMPI PUSH0 DUP1 REVERT JUMPDEST POP JUMP JUMPDEST PUSH0 DUP2 CALLDATALOAD SWAP1 POP PUSH2 0x11E0 DUP2 PUSH2 0x11BC JUMP JUMPDEST SWAP3 SWAP2 POP POP JUMP JUMPDEST PUSH0 PUSH1 0x20 DUP3 DUP5 SUB SLT ISZERO PUSH2 0x11FB JUMPI PUSH2 0x11FA PUSH2 0xE17 JUMP JUMPDEST JUMPDEST PUSH0 PUSH2 0x1208 DUP5 DUP3 DUP6 ADD PUSH2 0x11D2 JUMP JUMPDEST SWAP2 POP POP SWAP3 SWAP2 POP POP JUMP JUMPDEST PUSH2 0x121A DUP2 PUSH2 0x11AF JUMP JUMPDEST DUP3 MSTORE POP POP JUMP JUMPDEST PUSH0 PUSH1 0x20 DUP3 ADD SWAP1 POP PUSH2 0x1233 PUSH0 DUP4 ADD DUP5 PUSH2 0x1211 JUMP JUMPDEST SWAP3 SWAP2 POP POP JUMP JUMPDEST PUSH0 DUP1 PUSH1 0x40 DUP4 DUP6 SUB SLT ISZERO PUSH2 0x124F JUMPI PUSH2 0x124E PUSH2 0xE17 JUMP JUMPDEST JUMPDEST PUSH0 PUSH2 0x125C DUP6 DUP3 DUP7 ADD PUSH2 0xE98 JUMP JUMPDEST SWAP3 POP POP PUSH1 0x20 PUSH2 0x126D DUP6 DUP3 DUP7 ADD PUSH2 0xE65 JUMP JUMPDEST SWAP2 POP POP SWAP3 POP SWAP3 SWAP1 POP JUMP JUMPDEST PUSH0 DUP1 REVERT JUMPDEST PUSH0 DUP1 REVERT JUMPDEST PUSH32 0x4E487B7100000000000000000000000000000000000000000000000000000000 PUSH0 MSTORE PUSH1 0x41 PUSH1 0x4 MSTORE PUSH1 0x24 PUSH0 REVERT JUMPDEST PUSH2 0x12B5 DUP3 PUSH2 0xF21 JUMP JUMPDEST DUP2 ADD DUP2 DUP2 LT PUSH8 0xFFFFFFFFFFFFFFFF DUP3 GT OR ISZERO PUSH2 0x12D4 JUMPI PUSH2 0x12D3 PUSH2 0x127F JUMP JUMPDEST JUMPDEST DUP1 PUSH1 0x40 MSTORE POP POP POP JUMP JUMPDEST PUSH0 PUSH2 0x12E6 PUSH2 0xE0E JUMP JUMPDEST SWAP1 POP PUSH2 0x12F2 DUP3 DUP3 PUSH2 0x12AC JUMP JUMPDEST SWAP2 SWAP1 POP JUMP JUMPDEST PUSH0 PUSH8 0xFFFFFFFFFFFFFFFF DUP3 GT ISZERO PUSH2 0x1311 JUMPI PUSH2 0x1310 PUSH2 0x127F JUMP JUMPDEST JUMPDEST PUSH2 0x131A DUP3 PUSH2 0xF21 JUMP JUMPDEST SWAP1 POP PUSH1 0x20 DUP2 ADD SWAP1 POP SWAP2 SWAP1 POP JUMP JUMPDEST DUP3 DUP2 DUP4 CALLDATACOPY PUSH0 DUP4 DUP4 ADD MSTORE POP POP POP JUMP JUMPDEST PUSH0 PUSH2 0x1347 PUSH2 0x1342 DUP5 PUSH2 0x12F7 JUMP JUMPDEST PUSH2 0x12DD JUMP JUMPDEST SWAP1 POP DUP3 DUP2 MSTORE PUSH1 0x20 DUP2 ADD DUP5 DUP5 DUP5 ADD GT ISZERO PUSH2 0x1363 JUMPI PUSH2 0x1362 PUSH2 0x127B JUMP JUMPDEST JUMPDEST PUSH2 0x136E DUP5 DUP3 DUP6 PUSH2 0x1327 JUMP JUMPDEST POP SWAP4 SWAP3 POP POP POP JUMP JUMPDEST PUSH0 DUP3 PUSH1 0x1F DUP4 ADD SLT PUSH2 0x138A JUMPI PUSH2 0x1389 PUSH2 0x1277 JUMP JUMPDEST JUMPDEST DUP2 CALLDATALOAD PUSH2 0x139A DUP5 DUP3 PUSH1 0x20 DUP7 ADD PUSH2 0x1335 JUMP JUMPDEST SWAP2 POP POP SWAP3 SWAP2 POP POP JUMP JUMPDEST PUSH0 PUSH1 0x20 DUP3 DUP5 SUB SLT ISZERO PUSH2 0x13B8 JUMPI PUSH2 0x13B7 PUSH2 0xE17 JUMP JUMPDEST JUMPDEST PUSH0 DUP3 ADD CALLDATALOAD PUSH8 0xFFFFFFFFFFFFFFFF DUP2 GT ISZERO PUSH2 0x13D5 JUMPI PUSH2 0x13D4 PUSH2 0xE1B JUMP JUMPDEST JUMPDEST PUSH2 0x13E1 DUP5 DUP3 DUP6 ADD PUSH2 0x1376 JUMP JUMPDEST SWAP2 POP POP SWAP3 SWAP2 POP POP JUMP JUMPDEST PUSH0 PUSH1 0x20 DUP3 ADD SWAP1 POP PUSH2 0x13FD PUSH0 DUP4 ADD DUP5 PUSH2 0xEEA JUMP JUMPDEST SWAP3 SWAP2 POP POP JUMP JUMPDEST PUSH0 PUSH1 0x20 DUP3 DUP5 SUB SLT ISZERO PUSH2 0x1418 JUMPI PUSH2 0x1417 PUSH2 0xE17 JUMP JUMPDEST JUMPDEST PUSH0 PUSH2 0x1425 DUP5 DUP3 DUP6 ADD PUSH2 0xE98 JUMP JUMPDEST SWAP2 POP POP SWAP3 SWAP2 POP POP JUMP JUMPDEST PUSH0 PUSH1 0xA0 DUP4 ADD PUSH0 DUP4 ADD MLOAD PUSH2 0x1443 PUSH0 DUP7 ADD DUP3 PUSH2 0x1024 JUMP JUMPDEST POP PUSH1 0x20 DUP4 ADD MLOAD DUP5 DUP3 SUB PUSH1 0x20 DUP7 ADD MSTORE PUSH2 0x145B DUP3 DUP3 PUSH2 0x1043 JUMP JUMPDEST SWAP2 POP POP PUSH1 0x40 DUP4 ADD MLOAD PUSH2 0x1470 PUSH1 0x40 DUP7 ADD DUP3 PUSH2 0x107B JUMP JUMPDEST POP PUSH1 0x60 DUP4 ADD MLOAD PUSH2 0x1483 PUSH1 0x60 DUP7 ADD DUP3 PUSH2 0x107B JUMP JUMPDEST POP PUSH1 0x80 DUP4 ADD MLOAD PUSH2 0x1496 PUSH1 0x80 DUP7 ADD DUP3 PUSH2 0x107B JUMP JUMPDEST POP DUP1 SWAP2 POP POP SWAP3 SWAP2 POP POP JUMP JUMPDEST PUSH0 PUSH1 0x20 DUP3 ADD SWAP1 POP DUP2 DUP2 SUB PUSH0 DUP4 ADD MSTORE PUSH2 0x14B9 DUP2 DUP5 PUSH2 0x142E JUMP JUMPDEST SWAP1 POP SWAP3 SWAP2 POP POP JUMP JUMPDEST PUSH32 0x4E487B7100000000000000000000000000000000000000000000000000000000 PUSH0 MSTORE PUSH1 0x22 PUSH1 0x4 MSTORE PUSH1 0x24 PUSH0 REVERT JUMPDEST PUSH0 PUSH1 0x2 DUP3 DIV SWAP1 POP PUSH1 0x1 DUP3 AND DUP1 PUSH2 0x1505 JUMPI PUSH1 0x7F DUP3 AND SWAP2 POP JUMPDEST PUSH1 0x20 DUP3 LT DUP2 SUB PUSH2 0x1518 JUMPI PUSH2 0x1517 PUSH2 0x14C1 JUMP JUMPDEST JUMPDEST POP SWAP2 SWAP1 POP JUMP JUMPDEST PUSH32 0x4E6F7420746865206F776E657200000000000000000000000000000000000000 PUSH0 DUP3 ADD MSTORE POP JUMP JUMPDEST PUSH0 PUSH2 0x1552 PUSH1 0xD DUP4 PUSH2 0xF03 JUMP JUMPDEST SWAP2 POP PUSH2 0x155D DUP3 PUSH2 0x151E JUMP JUMPDEST PUSH1 0x20 DUP3 ADD SWAP1 POP SWAP2 SWAP1 POP JUMP JUMPDEST PUSH0 PUSH1 0x20 DUP3 ADD SWAP1 POP DUP2 DUP2 SUB PUSH0 DUP4 ADD MSTORE PUSH2 0x157F DUP2 PUSH2 0x1546 JUMP JUMPDEST SWAP1 POP SWAP2 SWAP1 POP JUMP JUMPDEST PUSH32 0x4E487B7100000000000000000000000000000000000000000000000000000000 PUSH0 MSTORE PUSH1 0x32 PUSH1 0x4 MSTORE PUSH1 0x24 PUSH0 REVERT JUMPDEST PUSH32 0x4E6965206D612074616B6965676F207477656574750000000000000000000000 PUSH0 DUP3 ADD MSTORE POP JUMP JUMPDEST PUSH0 PUSH2 0x15E7 PUSH1 0x15 DUP4 PUSH2 0xF03 JUMP JUMPDEST SWAP2 POP PUSH2 0x15F2 DUP3 PUSH2 0x15B3 JUMP JUMPDEST PUSH1 0x20 DUP3 ADD SWAP1 POP SWAP2 SWAP1 POP JUMP JUMPDEST PUSH0 PUSH1 0x20 DUP3 ADD SWAP1 POP DUP2 DUP2 SUB PUSH0 DUP4 ADD MSTORE PUSH2 0x1614 DUP2 PUSH2 0x15DB JUMP JUMPDEST SWAP1 POP SWAP2 SWAP1 POP JUMP JUMPDEST PUSH32 0x4E6965206D6F7A65737A207573756E6163206C696B6500000000000000000000 PUSH0 DUP3 ADD MSTORE POP JUMP JUMPDEST PUSH0 PUSH2 0x164F PUSH1 0x16 DUP4 PUSH2 0xF03 JUMP JUMPDEST SWAP2 POP PUSH2 0x165A DUP3 PUSH2 0x161B JUMP JUMPDEST PUSH1 0x20 DUP3 ADD SWAP1 POP SWAP2 SWAP1 POP JUMP JUMPDEST PUSH0 PUSH1 0x20 DUP3 ADD SWAP1 POP DUP2 DUP2 SUB PUSH0 DUP4 ADD MSTORE PUSH2 0x167C DUP2 PUSH2 0x1643 JUMP JUMPDEST SWAP1 POP SWAP2 SWAP1 POP JUMP JUMPDEST PUSH32 0x4E487B7100000000000000000000000000000000000000000000000000000000 PUSH0 MSTORE PUSH1 0x11 PUSH1 0x4 MSTORE PUSH1 0x24 PUSH0 REVERT JUMPDEST PUSH0 PUSH2 0x16BA DUP3 PUSH2 0xE79 JUMP JUMPDEST SWAP2 POP PUSH0 DUP3 SUB PUSH2 0x16CC JUMPI PUSH2 0x16CB PUSH2 0x1683 JUMP JUMPDEST JUMPDEST PUSH1 0x1 DUP3 SUB SWAP1 POP SWAP2 SWAP1 POP JUMP JUMPDEST PUSH0 PUSH1 0x80 DUP3 ADD SWAP1 POP PUSH2 0x16EA PUSH0 DUP4 ADD DUP8 PUSH2 0xEEA JUMP JUMPDEST PUSH2 0x16F7 PUSH1 0x20 DUP4 ADD DUP7 PUSH2 0xEEA JUMP JUMPDEST PUSH2 0x1704 PUSH1 0x40 DUP4 ADD DUP6 PUSH2 0xF69 JUMP JUMPDEST PUSH2 0x1711 PUSH1 0x60 DUP4 ADD DUP5 PUSH2 0xF69 JUMP JUMPDEST SWAP6 SWAP5 POP POP POP POP POP JUMP JUMPDEST PUSH32 0x4D65737361676520746F206C6F6E670000000000000000000000000000000000 PUSH0 DUP3 ADD MSTORE POP JUMP JUMPDEST PUSH0 PUSH2 0x174E PUSH1 0xF DUP4 PUSH2 0xF03 JUMP JUMPDEST SWAP2 POP PUSH2 0x1759 DUP3 PUSH2 0x171A JUMP JUMPDEST PUSH1 0x20 DUP3 ADD SWAP1 POP SWAP2 SWAP1 POP JUMP JUMPDEST PUSH0 PUSH1 0x20 DUP3 ADD SWAP1 POP DUP2 DUP2 SUB PUSH0 DUP4 ADD MSTORE PUSH2 0x177B DUP2 PUSH2 0x1742 JUMP JUMPDEST SWAP1 POP SWAP2 SWAP1 POP JUMP JUMPDEST PUSH0 DUP2 SWAP1 POP DUP2 PUSH0 MSTORE PUSH1 0x20 PUSH0 KECCAK256 SWAP1 POP SWAP2 SWAP1 POP JUMP JUMPDEST PUSH0 PUSH1 0x20 PUSH1 0x1F DUP4 ADD DIV SWAP1 POP SWAP2 SWAP1 POP JUMP JUMPDEST PUSH0 DUP3 DUP3 SHL SWAP1 POP SWAP3 SWAP2 POP POP JUMP JUMPDEST PUSH0 PUSH1 0x8 DUP4 MUL PUSH2 0x17DE PUSH32 0xFFFFFFFFFFFFFFFFFFFFFFFFFFFFFFFFFFFFFFFFFFFFFFFFFFFFFFFFFFFFFFFF DUP3 PUSH2 0x17A3 JUMP JUMPDEST PUSH2 0x17E8 DUP7 DUP4 PUSH2 0x17A3 JUMP JUMPDEST SWAP6 POP DUP1 NOT DUP5 AND SWAP4 POP DUP1 DUP7 AND DUP5 OR SWAP3 POP POP POP SWAP4 SWAP3 POP POP POP JUMP JUMPDEST PUSH0 DUP2 SWAP1 POP SWAP2 SWAP1 POP JUMP JUMPDEST PUSH0 PUSH2 0x1823 PUSH2 0x181E PUSH2 0x1819 DUP5 PUSH2 0xE79 JUMP JUMPDEST PUSH2 0x1800 JUMP JUMPDEST PUSH2 0xE79 JUMP JUMPDEST SWAP1 POP SWAP2 SWAP1 POP JUMP JUMPDEST PUSH0 DUP2 SWAP1 POP SWAP2 SWAP1 POP JUMP JUMPDEST PUSH2 0x183C DUP4 PUSH2 0x1809 JUMP JUMPDEST PUSH2 0x1850 PUSH2 0x1848 DUP3 PUSH2 0x182A JUMP JUMPDEST DUP5 DUP5 SLOAD PUSH2 0x17AF JUMP JUMPDEST DUP3 SSTORE POP POP POP POP JUMP JUMPDEST PUSH0 SWAP1 JUMP JUMPDEST PUSH2 0x1864 PUSH2 0x1858 JUMP JUMPDEST PUSH2 0x186F DUP2 DUP5 DUP5 PUSH2 0x1833 JUMP JUMPDEST POP POP POP JUMP JUMPDEST JUMPDEST DUP2 DUP2 LT ISZERO PUSH2 0x1892 JUMPI PUSH2 0x1887 PUSH0 DUP3 PUSH2 0x185C JUMP JUMPDEST PUSH1 0x1 DUP2 ADD SWAP1 POP PUSH2 0x1875 JUMP JUMPDEST POP POP JUMP JUMPDEST PUSH1 0x1F DUP3 GT ISZERO PUSH2 0x18D7 JUMPI PUSH2 0x18A8 DUP2 PUSH2 0x1782 JUMP JUMPDEST PUSH2 0x18B1 DUP5 PUSH2 0x1794 JUMP JUMPDEST DUP2 ADD PUSH1 0x20 DUP6 LT ISZERO PUSH2 0x18C0 JUMPI DUP2 SWAP1 POP JUMPDEST PUSH2 0x18D4 PUSH2 0x18CC DUP6 PUSH2 0x1794 JUMP JUMPDEST DUP4 ADD DUP3 PUSH2 0x1874 JUMP JUMPDEST POP POP JUMPDEST POP POP POP JUMP JUMPDEST PUSH0 DUP3 DUP3 SHR SWAP1 POP SWAP3 SWAP2 POP POP JUMP JUMPDEST PUSH0 PUSH2 0x18F7 PUSH0 NOT DUP5 PUSH1 0x8 MUL PUSH2 0x18DC JUMP JUMPDEST NOT DUP1 DUP4 AND SWAP2 POP POP SWAP3 SWAP2 POP POP JUMP JUMPDEST PUSH0 PUSH2 0x190F DUP4 DUP4 PUSH2 0x18E8 JUMP JUMPDEST SWAP2 POP DUP3 PUSH1 0x2 MUL DUP3 OR SWAP1 POP SWAP3 SWAP2 POP POP JUMP JUMPDEST PUSH2 0x1928 DUP3 PUSH2 0xEF9 JUMP JUMPDEST PUSH8 0xFFFFFFFFFFFFFFFF DUP2 GT ISZERO PUSH2 0x1941 JUMPI PUSH2 0x1940 PUSH2 0x127F JUMP JUMPDEST JUMPDEST PUSH2 0x194B DUP3 SLOAD PUSH2 0x14EE JUMP JUMPDEST PUSH2 0x1956 DUP3 DUP3 DUP6 PUSH2 0x1896 JUMP JUMPDEST PUSH0 PUSH1 0x20 SWAP1 POP PUSH1 0x1F DUP4 GT PUSH1 0x1 DUP2 EQ PUSH2 0x1987 JUMPI PUSH0 DUP5 ISZERO PUSH2 0x1975 JUMPI DUP3 DUP8 ADD MLOAD SWAP1 POP JUMPDEST PUSH2 0x197F DUP6 DUP3 PUSH2 0x1904 JUMP JUMPDEST DUP7 SSTORE POP PUSH2 0x19E6 JUMP JUMPDEST PUSH1 0x1F NOT DUP5 AND PUSH2 0x1995 DUP7 PUSH2 0x1782 JUMP JUMPDEST PUSH0 JUMPDEST DUP3 DUP2 LT ISZERO PUSH2 0x19BC JUMPI DUP5 DUP10 ADD MLOAD DUP3 SSTORE PUSH1 0x1 DUP3 ADD SWAP2 POP PUSH1 0x20 DUP6 ADD SWAP5 POP PUSH1 0x20 DUP2 ADD SWAP1 POP PUSH2 0x1997 JUMP JUMPDEST DUP7 DUP4 LT ISZERO PUSH2 0x19D9 JUMPI DUP5 DUP10 ADD MLOAD PUSH2 0x19D5 PUSH1 0x1F DUP10 AND DUP3 PUSH2 0x18E8 JUMP JUMPDEST DUP4 SSTORE POP JUMPDEST PUSH1 0x1 PUSH1 0x2 DUP9 MUL ADD DUP9 SSTORE POP POP POP JUMPDEST POP POP POP POP POP POP JUMP JUMPDEST PUSH0 PUSH1 0x80 DUP3 ADD SWAP1 POP PUSH2 0x1A01 PUSH0 DUP4 ADD DUP8 PUSH2 0xF69 JUMP JUMPDEST PUSH2 0x1A0E PUSH1 0x20 DUP4 ADD DUP7 PUSH2 0xEEA JUMP JUMPDEST DUP2 DUP2 SUB PUSH1 0x40 DUP4 ADD MSTORE PUSH2 0x1A20 DUP2 DUP6 PUSH2 0xF31 JUMP JUMPDEST SWAP1 POP PUSH2 0x1A2F PUSH1 0x60 DUP4 ADD DUP5 PUSH2 0xF69 JUMP JUMPDEST SWAP6 SWAP5 POP POP POP POP POP JUMP JUMPDEST PUSH32 0x4A657374657320776C61736369776F736369656D2C206E6965206D6F7A65737A PUSH0 DUP3 ADD MSTORE PUSH32 0x206C696B6F77616320776C61736E65676F20706F737461000000000000000000 PUSH1 0x20 DUP3 ADD MSTORE POP JUMP JUMPDEST PUSH0 PUSH2 0x1A92 PUSH1 0x37 DUP4 PUSH2 0xF03 JUMP JUMPDEST SWAP2 POP PUSH2 0x1A9D DUP3 PUSH2 0x1A38 JUMP JUMPDEST PUSH1 0x40 DUP3 ADD SWAP1 POP SWAP2 SWAP1 POP JUMP JUMPDEST PUSH0 PUSH1 0x20 DUP3 ADD SWAP1 POP DUP2 DUP2 SUB PUSH0 DUP4 ADD MSTORE PUSH2 0x1ABF DUP2 PUSH2 0x1A86 JUMP JUMPDEST SWAP1 POP SWAP2 SWAP1 POP JUMP JUMPDEST PUSH0 PUSH2 0x1AD0 DUP3 PUSH2 0xE79 JUMP JUMPDEST SWAP2 POP PUSH32 0xFFFFFFFFFFFFFFFFFFFFFFFFFFFFFFFFFFFFFFFFFFFFFFFFFFFFFFFFFFFFFFFF DUP3 SUB PUSH2 0x1B02 JUMPI PUSH2 0x1B01 PUSH2 0x1683 JUMP JUMPDEST JUMPDEST PUSH1 0x1 DUP3 ADD SWAP1 POP SWAP2 SWAP1 POP JUMP INVALID LOG2 PUSH5 0x6970667358 0x22 SLT KECCAK256 0xC1 0xDC 0xF 0x2A 0xBE SWAP14 0xC CALLVALUE 0xDA DUP7 PUSH20 0x2255DD557178C5C25EA87400FA403D093766AA97 SWAP6 PUSH5 0x736F6C6343 STOP ADDMOD BYTE STOP CALLER "
				},
				"gasEstimates": {
					"creation": {
						"codeDepositCost": "1395800",
						"executionCost": "49987",
						"totalCost": "1445787"
					},
					"external": {
						"MAX_TWEET_LENGTH()": "2530",
						"addLike(address,uint256)": "infinite",
						"changeTweetLength(uint16)": "26887",
						"createTweet(string)": "infinite",
						"getAllTweets(address)": "infinite",
						"getTweet(uint256)": "infinite",
						"owner()": "2552",
						"removeLike(uint256,address)": "infinite",
						"tweets(address,uint256)": "infinite"
					}
				},
				"methodIdentifiers": {
					"MAX_TWEET_LENGTH()": "6eb10797",
					"addLike(address,uint256)": "f65a8f40",
					"changeTweetLength(uint16)": "58bfa4ab",
					"createTweet(string)": "7c9cd2bc",
					"getAllTweets(address)": "12e7ee1c",
					"getTweet(uint256)": "c3ad5ecb",
					"owner()": "8da5cb5b",
					"removeLike(uint256,address)": "7a639e39",
					"tweets(address,uint256)": "05a1b4a9"
				}
			},
			"storageLayout": {
				"storage": [
					{
						"astId": 4,
						"contract": "contracts/21_TwitterEvent.sol:Twitter",
						"label": "MAX_TWEET_LENGTH",
						"offset": 0,
						"slot": "0",
						"type": "t_uint16"
					},
					{
						"astId": 21,
						"contract": "contracts/21_TwitterEvent.sol:Twitter",
						"label": "tweets",
						"offset": 0,
						"slot": "1",
						"type": "t_mapping(t_address,t_array(t_struct(Tweet)15_storage)dyn_storage)"
					},
					{
						"astId": 23,
						"contract": "contracts/21_TwitterEvent.sol:Twitter",
						"label": "owner",
						"offset": 0,
						"slot": "2",
						"type": "t_address"
					}
				],
				"types": {
					"t_address": {
						"encoding": "inplace",
						"label": "address",
						"numberOfBytes": "20"
					},
					"t_array(t_struct(Tweet)15_storage)dyn_storage": {
						"base": "t_struct(Tweet)15_storage",
						"encoding": "dynamic_array",
						"label": "struct Twitter.Tweet[]",
						"numberOfBytes": "32"
					},
					"t_mapping(t_address,t_array(t_struct(Tweet)15_storage)dyn_storage)": {
						"encoding": "mapping",
						"key": "t_address",
						"label": "mapping(address => struct Twitter.Tweet[])",
						"numberOfBytes": "32",
						"value": "t_array(t_struct(Tweet)15_storage)dyn_storage"
					},
					"t_string_storage": {
						"encoding": "bytes",
						"label": "string",
						"numberOfBytes": "32"
					},
					"t_struct(Tweet)15_storage": {
						"encoding": "inplace",
						"label": "struct Twitter.Tweet",
						"members": [
							{
								"astId": 6,
								"contract": "contracts/21_TwitterEvent.sol:Twitter",
								"label": "author",
								"offset": 0,
								"slot": "0",
								"type": "t_address"
							},
							{
								"astId": 8,
								"contract": "contracts/21_TwitterEvent.sol:Twitter",
								"label": "content",
								"offset": 0,
								"slot": "1",
								"type": "t_string_storage"
							},
							{
								"astId": 10,
								"contract": "contracts/21_TwitterEvent.sol:Twitter",
								"label": "timestamp",
								"offset": 0,
								"slot": "2",
								"type": "t_uint256"
							},
							{
								"astId": 12,
								"contract": "contracts/21_TwitterEvent.sol:Twitter",
								"label": "likes",
								"offset": 0,
								"slot": "3",
								"type": "t_uint256"
							},
							{
								"astId": 14,
								"contract": "contracts/21_TwitterEvent.sol:Twitter",
								"label": "id",
								"offset": 0,
								"slot": "4",
								"type": "t_uint256"
							}
						],
						"numberOfBytes": "160"
					},
					"t_uint16": {
						"encoding": "inplace",
						"label": "uint16",
						"numberOfBytes": "2"
					},
					"t_uint256": {
						"encoding": "inplace",
						"label": "uint256",
						"numberOfBytes": "32"
					}
				}
			},
			"userdoc": {
				"kind": "user",
				"methods": {},
				"version": 1
			}
		}
	}
}