{
	"contracts/24_TotalLikes.sol": {
		"Twitter": {
			"abi": [
				{
					"inputs": [],
					"stateMutability": "nonpayable",
					"type": "constructor"
				},
				{
					"anonymous": false,
					"inputs": [
						{
							"indexed": false,
							"internalType": "uint256",
							"name": "id",
							"type": "uint256"
						},
						{
							"indexed": false,
							"internalType": "address",
							"name": "author",
							"type": "address"
						},
						{
							"indexed": false,
							"internalType": "string",
							"name": "content",
							"type": "string"
						},
						{
							"indexed": false,
							"internalType": "uint256",
							"name": "timestamp",
							"type": "uint256"
						}
					],
					"name": "TweetCreated",
					"type": "event"
				},
				{
					"anonymous": false,
					"inputs": [
						{
							"indexed": false,
							"internalType": "address",
							"name": "liker",
							"type": "address"
						},
						{
							"indexed": false,
							"internalType": "address",
							"name": "tweetAuthor",
							"type": "address"
						},
						{
							"indexed": false,
							"internalType": "uint256",
							"name": "tweetId",
							"type": "uint256"
						},
						{
							"indexed": false,
							"internalType": "uint256",
							"name": "newLikeCount",
							"type": "uint256"
						}
					],
					"name": "TweetLiked",
					"type": "event"
				},
				{
					"anonymous": false,
					"inputs": [
						{
							"indexed": false,
							"internalType": "address",
							"name": "unliker",
							"type": "address"
						},
						{
							"indexed": false,
							"internalType": "address",
							"name": "tweetAuthor",
							"type": "address"
						},
						{
							"indexed": false,
							"internalType": "uint256",
							"name": "tweetId",
							"type": "uint256"
						},
						{
							"indexed": false,
							"internalType": "uint256",
							"name": "newLikeCount",
							"type": "uint256"
						}
					],
					"name": "TweetUnliked",
					"type": "event"
				},
				{
					"inputs": [],
					"name": "MAX_TWEET_LENGTH",
					"outputs": [
						{
							"internalType": "uint16",
							"name": "",
							"type": "uint16"
						}
					],
					"stateMutability": "view",
					"type": "function"
				},
				{
					"inputs": [
						{
							"internalType": "address",
							"name": "author",
							"type": "address"
						},
						{
							"internalType": "uint256",
							"name": "id",
							"type": "uint256"
						}
					],
					"name": "addLike",
					"outputs": [],
					"stateMutability": "nonpayable",
					"type": "function"
				},
				{
					"inputs": [
						{
							"internalType": "uint16",
							"name": "newTweetLength",
							"type": "uint16"
						}
					],
					"name": "changeTweetLength",
					"outputs": [],
					"stateMutability": "nonpayable",
					"type": "function"
				},
				{
					"inputs": [
						{
							"internalType": "string",
							"name": "_tweet",
							"type": "string"
						}
					],
					"name": "createTweet",
					"outputs": [],
					"stateMutability": "nonpayable",
					"type": "function"
				},
				{
					"inputs": [
						{
							"internalType": "address",
							"name": "_owner",
							"type": "address"
						}
					],
					"name": "getAllTweets",
					"outputs": [
						{
							"components": [
								{
									"internalType": "address",
									"name": "author",
									"type": "address"
								},
								{
									"internalType": "string",
									"name": "content",
									"type": "string"
								},
								{
									"internalType": "uint256",
									"name": "timestamp",
									"type": "uint256"
								},
								{
									"internalType": "uint256",
									"name": "likes",
									"type": "uint256"
								},
								{
									"internalType": "uint256",
									"name": "id",
									"type": "uint256"
								}
							],
							"internalType": "struct Twitter.Tweet[]",
							"name": "",
							"type": "tuple[]"
						}
					],
					"stateMutability": "view",
					"type": "function"
				},
				{
					"inputs": [
						{
							"internalType": "address",
							"name": "_author",
							"type": "address"
						}
					],
					"name": "getTotalLikes",
					"outputs": [
						{
							"internalType": "uint256",
							"name": "",
							"type": "uint256"
						}
					],
					"stateMutability": "nonpayable",
					"type": "function"
				},
				{
					"inputs": [
						{
							"internalType": "uint256",
							"name": "_i",
							"type": "uint256"
						}
					],
					"name": "getTweet",
					"outputs": [
						{
							"components": [
								{
									"internalType": "address",
									"name": "author",
									"type": "address"
								},
								{
									"internalType": "string",
									"name": "content",
									"type": "string"
								},
								{
									"internalType": "uint256",
									"name": "timestamp",
									"type": "uint256"
								},
								{
									"internalType": "uint256",
									"name": "likes",
									"type": "uint256"
								},
								{
									"internalType": "uint256",
									"name": "id",
									"type": "uint256"
								}
							],
							"internalType": "struct Twitter.Tweet",
							"name": "",
							"type": "tuple"
						}
					],
					"stateMutability": "view",
					"type": "function"
				},
				{
					"inputs": [],
					"name": "owner",
					"outputs": [
						{
							"internalType": "address",
							"name": "",
							"type": "address"
						}
					],
					"stateMutability": "view",
					"type": "function"
				},
				{
					"inputs": [
						{
							"internalType": "uint256",
							"name": "id",
							"type": "uint256"
						},
						{
							"internalType": "address",
							"name": "author",
							"type": "address"
						}
					],
					"name": "removeLike",
					"outputs": [],
					"stateMutability": "nonpayable",
					"type": "function"
				},
				{
					"inputs": [
						{
							"internalType": "address",
							"name": "",
							"type": "address"
						},
						{
							"internalType": "uint256",
							"name": "",
							"type": "uint256"
						}
					],
					"name": "tweets",
					"outputs": [
						{
							"internalType": "address",
							"name": "author",
							"type": "address"
						},
						{
							"internalType": "string",
							"name": "content",
							"type": "string"
						},
						{
							"internalType": "uint256",
							"name": "timestamp",
							"type": "uint256"
						},
						{
							"internalType": "uint256",
							"name": "likes",
							"type": "uint256"
						},
						{
							"internalType": "uint256",
							"name": "id",
							"type": "uint256"
						}
					],
					"stateMutability": "view",
					"type": "function"
				}
			],
			"devdoc": {
				"kind": "dev",
				"methods": {},
				"version": 1
			},
			"evm": {
				"assembly": "    /* \"contracts/24_TotalLikes.sol\":277:2915  contract Twitter {... */\n  mstore(0x40, 0x80)\n    /* \"contracts/24_TotalLikes.sol\":336:339  280 */\n  0x0118\n    /* \"contracts/24_TotalLikes.sol\":303:339  uint16 public MAX_TWEET_LENGTH = 280 */\n  0x00\n  dup1\n  0x0100\n  exp\n  dup2\n  sload\n  dup2\n  0xffff\n  mul\n  not\n  and\n  swap1\n  dup4\n  0xffff\n  and\n  mul\n  or\n  swap1\n  sstore\n  pop\n    /* \"contracts/24_TotalLikes.sol\":576:627  constructor() {... */\n  callvalue\n  dup1\n  iszero\n  tag_1\n  jumpi\n  0x00\n  dup1\n  revert\ntag_1:\n  pop\n    /* \"contracts/24_TotalLikes.sol\":609:619  msg.sender */\n  caller\n    /* \"contracts/24_TotalLikes.sol\":601:606  owner */\n  0x02\n  0x00\n    /* \"contracts/24_TotalLikes.sol\":601:619  owner = msg.sender */\n  0x0100\n  exp\n  dup2\n  sload\n  dup2\n  0xffffffffffffffffffffffffffffffffffffffff\n  mul\n  not\n  and\n  swap1\n  dup4\n  0xffffffffffffffffffffffffffffffffffffffff\n  and\n  mul\n  or\n  swap1\n  sstore\n  pop\n    /* \"contracts/24_TotalLikes.sol\":277:2915  contract Twitter {... */\n  dataSize(sub_0)\n  dup1\n  dataOffset(sub_0)\n  0x00\n  codecopy\n  0x00\n  return\nstop\n\nsub_0: assembly {\n        /* \"contracts/24_TotalLikes.sol\":277:2915  contract Twitter {... */\n      mstore(0x40, 0x80)\n      callvalue\n      dup1\n      iszero\n      tag_1\n      jumpi\n      0x00\n      dup1\n      revert\n    tag_1:\n      pop\n      jumpi(tag_2, lt(calldatasize, 0x04))\n      shr(0xe0, calldataload(0x00))\n      dup1\n      0x7c9cd2bc\n      gt\n      tag_13\n      jumpi\n      dup1\n      0x7c9cd2bc\n      eq\n      tag_8\n      jumpi\n      dup1\n      0x820785cc\n      eq\n      tag_9\n      jumpi\n      dup1\n      0x8da5cb5b\n      eq\n      tag_10\n      jumpi\n      dup1\n      0xc3ad5ecb\n      eq\n      tag_11\n      jumpi\n      dup1\n      0xf65a8f40\n      eq\n      tag_12\n      jumpi\n      jump(tag_2)\n    tag_13:\n      dup1\n      0x05a1b4a9\n      eq\n      tag_3\n      jumpi\n      dup1\n      0x12e7ee1c\n      eq\n      tag_4\n      jumpi\n      dup1\n      0x58bfa4ab\n      eq\n      tag_5\n      jumpi\n      dup1\n      0x6eb10797\n      eq\n      tag_6\n      jumpi\n      dup1\n      0x7a639e39\n      eq\n      tag_7\n      jumpi\n    tag_2:\n      0x00\n      dup1\n      revert\n        /* \"contracts/24_TotalLikes.sol\":498:540  mapping(address => Tweet[] ) public tweets */\n    tag_3:\n      tag_14\n      0x04\n      dup1\n      calldatasize\n      sub\n      dup2\n      add\n      swap1\n      tag_15\n      swap2\n      swap1\n      tag_16\n      jump\t// in\n    tag_15:\n      tag_17\n      jump\t// in\n    tag_14:\n      mload(0x40)\n      tag_18\n      swap6\n      swap5\n      swap4\n      swap3\n      swap2\n      swap1\n      tag_19\n      jump\t// in\n    tag_18:\n      mload(0x40)\n      dup1\n      swap2\n      sub\n      swap1\n      return\n        /* \"contracts/24_TotalLikes.sol\":1824:1939  function getAllTweets(address _owner) public view returns (Tweet[] memory ){... */\n    tag_4:\n      tag_20\n      0x04\n      dup1\n      calldatasize\n      sub\n      dup2\n      add\n      swap1\n      tag_21\n      swap2\n      swap1\n      tag_22\n      jump\t// in\n    tag_21:\n      tag_23\n      jump\t// in\n    tag_20:\n      mload(0x40)\n      tag_24\n      swap2\n      swap1\n      tag_25\n      jump\t// in\n    tag_24:\n      mload(0x40)\n      dup1\n      swap2\n      sub\n      swap1\n      return\n        /* \"contracts/24_TotalLikes.sol\":1037:1156  function changeTweetLength(uint16 newTweetLength) public onlyOwner {... */\n    tag_5:\n      tag_26\n      0x04\n      dup1\n      calldatasize\n      sub\n      dup2\n      add\n      swap1\n      tag_27\n      swap2\n      swap1\n      tag_28\n      jump\t// in\n    tag_27:\n      tag_29\n      jump\t// in\n    tag_26:\n      stop\n        /* \"contracts/24_TotalLikes.sol\":303:339  uint16 public MAX_TWEET_LENGTH = 280 */\n    tag_6:\n      tag_30\n      tag_31\n      jump\t// in\n    tag_30:\n      mload(0x40)\n      tag_32\n      swap2\n      swap1\n      tag_33\n      jump\t// in\n    tag_32:\n      mload(0x40)\n      dup1\n      swap2\n      sub\n      swap1\n      return\n        /* \"contracts/24_TotalLikes.sol\":2319:2648  function removeLike (uint256 id, address author) external {... */\n    tag_7:\n      tag_34\n      0x04\n      dup1\n      calldatasize\n      sub\n      dup2\n      add\n      swap1\n      tag_35\n      swap2\n      swap1\n      tag_36\n      jump\t// in\n    tag_35:\n      tag_37\n      jump\t// in\n    tag_34:\n      stop\n        /* \"contracts/24_TotalLikes.sol\":1164:1697  function createTweet(string memory _tweet) public {... */\n    tag_8:\n      tag_38\n      0x04\n      dup1\n      calldatasize\n      sub\n      dup2\n      add\n      swap1\n      tag_39\n      swap2\n      swap1\n      tag_40\n      jump\t// in\n    tag_39:\n      tag_41\n      jump\t// in\n    tag_38:\n      stop\n        /* \"contracts/24_TotalLikes.sol\":2681:2904  function getTotalLikes (address _author) external returns(uint) {... */\n    tag_9:\n      tag_42\n      0x04\n      dup1\n      calldatasize\n      sub\n      dup2\n      add\n      swap1\n      tag_43\n      swap2\n      swap1\n      tag_22\n      jump\t// in\n    tag_43:\n      tag_44\n      jump\t// in\n    tag_42:\n      mload(0x40)\n      tag_45\n      swap2\n      swap1\n      tag_46\n      jump\t// in\n    tag_45:\n      mload(0x40)\n      dup1\n      swap2\n      sub\n      swap1\n      return\n        /* \"contracts/24_TotalLikes.sol\":547:567  address public owner */\n    tag_10:\n      tag_47\n      tag_48\n      jump\t// in\n    tag_47:\n      mload(0x40)\n      tag_49\n      swap2\n      swap1\n      tag_50\n      jump\t// in\n    tag_49:\n      mload(0x40)\n      dup1\n      swap2\n      sub\n      swap1\n      return\n        /* \"contracts/24_TotalLikes.sol\":1705:1816  function getTweet( uint _i) public view returns (Tweet memory) {... */\n    tag_11:\n      tag_51\n      0x04\n      dup1\n      calldatasize\n      sub\n      dup2\n      add\n      swap1\n      tag_52\n      swap2\n      swap1\n      tag_53\n      jump\t// in\n    tag_52:\n      tag_54\n      jump\t// in\n    tag_51:\n      mload(0x40)\n      tag_55\n      swap2\n      swap1\n      tag_56\n      jump\t// in\n    tag_55:\n      mload(0x40)\n      dup1\n      swap2\n      sub\n      swap1\n      return\n        /* \"contracts/24_TotalLikes.sol\":1947:2311  function addLike (address author, uint256 id) external {... */\n    tag_12:\n      tag_57\n      0x04\n      dup1\n      calldatasize\n      sub\n      dup2\n      add\n      swap1\n      tag_58\n      swap2\n      swap1\n      tag_16\n      jump\t// in\n    tag_58:\n      tag_59\n      jump\t// in\n    tag_57:\n      stop\n        /* \"contracts/24_TotalLikes.sol\":498:540  mapping(address => Tweet[] ) public tweets */\n    tag_17:\n      mstore(0x20, 0x01)\n      dup2\n      0x00\n      mstore\n      keccak256(0x00, 0x40)\n      dup2\n      dup2\n      sload\n      dup2\n      lt\n      tag_60\n      jumpi\n      0x00\n      dup1\n      revert\n    tag_60:\n      swap1\n      0x00\n      mstore\n      keccak256(0x00, 0x20)\n      swap1\n      0x05\n      mul\n      add\n      0x00\n      swap2\n      pop\n      swap2\n      pop\n      pop\n      dup1\n      0x00\n      add\n      0x00\n      swap1\n      sload\n      swap1\n      0x0100\n      exp\n      swap1\n      div\n      0xffffffffffffffffffffffffffffffffffffffff\n      and\n      swap1\n      dup1\n      0x01\n      add\n      dup1\n      sload\n      tag_62\n      swap1\n      tag_63\n      jump\t// in\n    tag_62:\n      dup1\n      0x1f\n      add\n      0x20\n      dup1\n      swap2\n      div\n      mul\n      0x20\n      add\n      mload(0x40)\n      swap1\n      dup2\n      add\n      0x40\n      mstore\n      dup1\n      swap3\n      swap2\n      swap1\n      dup2\n      dup2\n      mstore\n      0x20\n      add\n      dup3\n      dup1\n      sload\n      tag_64\n      swap1\n      tag_63\n      jump\t// in\n    tag_64:\n      dup1\n      iszero\n      tag_65\n      jumpi\n      dup1\n      0x1f\n      lt\n      tag_66\n      jumpi\n      0x0100\n      dup1\n      dup4\n      sload\n      div\n      mul\n      dup4\n      mstore\n      swap2\n      0x20\n      add\n      swap2\n      jump(tag_65)\n    tag_66:\n      dup3\n      add\n      swap2\n      swap1\n      0x00\n      mstore\n      keccak256(0x00, 0x20)\n      swap1\n    tag_67:\n      dup2\n      sload\n      dup2\n      mstore\n      swap1\n      0x01\n      add\n      swap1\n      0x20\n      add\n      dup1\n      dup4\n      gt\n      tag_67\n      jumpi\n      dup3\n      swap1\n      sub\n      0x1f\n      and\n      dup3\n      add\n      swap2\n    tag_65:\n      pop\n      pop\n      pop\n      pop\n      pop\n      swap1\n      dup1\n      0x02\n      add\n      sload\n      swap1\n      dup1\n      0x03\n      add\n      sload\n      swap1\n      dup1\n      0x04\n      add\n      sload\n      swap1\n      pop\n      dup6\n      jump\t// out\n        /* \"contracts/24_TotalLikes.sol\":1824:1939  function getAllTweets(address _owner) public view returns (Tweet[] memory ){... */\n    tag_23:\n        /* \"contracts/24_TotalLikes.sol\":1883:1897  Tweet[] memory */\n      0x60\n        /* \"contracts/24_TotalLikes.sol\":1917:1923  tweets */\n      0x01\n        /* \"contracts/24_TotalLikes.sol\":1917:1931  tweets[_owner] */\n      0x00\n        /* \"contracts/24_TotalLikes.sol\":1924:1930  _owner */\n      dup4\n        /* \"contracts/24_TotalLikes.sol\":1917:1931  tweets[_owner] */\n      0xffffffffffffffffffffffffffffffffffffffff\n      and\n      0xffffffffffffffffffffffffffffffffffffffff\n      and\n      dup2\n      mstore\n      0x20\n      add\n      swap1\n      dup2\n      mstore\n      0x20\n      add\n      0x00\n      keccak256\n        /* \"contracts/24_TotalLikes.sol\":1910:1931  return tweets[_owner] */\n      dup1\n      sload\n      dup1\n      0x20\n      mul\n      0x20\n      add\n      mload(0x40)\n      swap1\n      dup2\n      add\n      0x40\n      mstore\n      dup1\n      swap3\n      swap2\n      swap1\n      dup2\n      dup2\n      mstore\n      0x20\n      add\n      0x00\n      swap1\n    tag_69:\n      dup3\n      dup3\n      lt\n      iszero\n      tag_70\n      jumpi\n      dup4\n      dup3\n      swap1\n      0x00\n      mstore\n      keccak256(0x00, 0x20)\n      swap1\n      0x05\n      mul\n      add\n      mload(0x40)\n      dup1\n      0xa0\n      add\n      0x40\n      mstore\n      swap1\n      dup2\n      0x00\n      dup3\n      add\n      0x00\n      swap1\n      sload\n      swap1\n      0x0100\n      exp\n      swap1\n      div\n      0xffffffffffffffffffffffffffffffffffffffff\n      and\n      0xffffffffffffffffffffffffffffffffffffffff\n      and\n      0xffffffffffffffffffffffffffffffffffffffff\n      and\n      dup2\n      mstore\n      0x20\n      add\n      0x01\n      dup3\n      add\n      dup1\n      sload\n      tag_72\n      swap1\n      tag_63\n      jump\t// in\n    tag_72:\n      dup1\n      0x1f\n      add\n      0x20\n      dup1\n      swap2\n      div\n      mul\n      0x20\n      add\n      mload(0x40)\n      swap1\n      dup2\n      add\n      0x40\n      mstore\n      dup1\n      swap3\n      swap2\n      swap1\n      dup2\n      dup2\n      mstore\n      0x20\n      add\n      dup3\n      dup1\n      sload\n      tag_73\n      swap1\n      tag_63\n      jump\t// in\n    tag_73:\n      dup1\n      iszero\n      tag_74\n      jumpi\n      dup1\n      0x1f\n      lt\n      tag_75\n      jumpi\n      0x0100\n      dup1\n      dup4\n      sload\n      div\n      mul\n      dup4\n      mstore\n      swap2\n      0x20\n      add\n      swap2\n      jump(tag_74)\n    tag_75:\n      dup3\n      add\n      swap2\n      swap1\n      0x00\n      mstore\n      keccak256(0x00, 0x20)\n      swap1\n    tag_76:\n      dup2\n      sload\n      dup2\n      mstore\n      swap1\n      0x01\n      add\n      swap1\n      0x20\n      add\n      dup1\n      dup4\n      gt\n      tag_76\n      jumpi\n      dup3\n      swap1\n      sub\n      0x1f\n      and\n      dup3\n      add\n      swap2\n    tag_74:\n      pop\n      pop\n      pop\n      pop\n      pop\n      dup2\n      mstore\n      0x20\n      add\n      0x02\n      dup3\n      add\n      sload\n      dup2\n      mstore\n      0x20\n      add\n      0x03\n      dup3\n      add\n      sload\n      dup2\n      mstore\n      0x20\n      add\n      0x04\n      dup3\n      add\n      sload\n      dup2\n      mstore\n      pop\n      pop\n      dup2\n      mstore\n      0x20\n      add\n      swap1\n      0x01\n      add\n      swap1\n      jump(tag_69)\n    tag_70:\n      pop\n      pop\n      pop\n      pop\n      swap1\n      pop\n        /* \"contracts/24_TotalLikes.sol\":1824:1939  function getAllTweets(address _owner) public view returns (Tweet[] memory ){... */\n      swap2\n      swap1\n      pop\n      jump\t// out\n        /* \"contracts/24_TotalLikes.sol\":1037:1156  function changeTweetLength(uint16 newTweetLength) public onlyOwner {... */\n    tag_29:\n        /* \"contracts/24_TotalLikes.sol\":986:991  owner */\n      0x02\n      0x00\n      swap1\n      sload\n      swap1\n      0x0100\n      exp\n      swap1\n      div\n      0xffffffffffffffffffffffffffffffffffffffff\n      and\n        /* \"contracts/24_TotalLikes.sol\":972:991  msg.sender == owner */\n      0xffffffffffffffffffffffffffffffffffffffff\n      and\n        /* \"contracts/24_TotalLikes.sol\":972:982  msg.sender */\n      caller\n        /* \"contracts/24_TotalLikes.sol\":972:991  msg.sender == owner */\n      0xffffffffffffffffffffffffffffffffffffffff\n      and\n      eq\n        /* \"contracts/24_TotalLikes.sol\":964:1009  require(msg.sender == owner, \"Not the owner\") */\n      tag_78\n      jumpi\n      mload(0x40)\n      0x08c379a000000000000000000000000000000000000000000000000000000000\n      dup2\n      mstore\n      0x04\n      add\n      tag_79\n      swap1\n      tag_80\n      jump\t// in\n    tag_79:\n      mload(0x40)\n      dup1\n      swap2\n      sub\n      swap1\n      revert\n    tag_78:\n        /* \"contracts/24_TotalLikes.sol\":1134:1148  newTweetLength */\n      dup1\n        /* \"contracts/24_TotalLikes.sol\":1115:1131  MAX_TWEET_LENGTH */\n      0x00\n      dup1\n        /* \"contracts/24_TotalLikes.sol\":1115:1148  MAX_TWEET_LENGTH = newTweetLength */\n      0x0100\n      exp\n      dup2\n      sload\n      dup2\n      0xffff\n      mul\n      not\n      and\n      swap1\n      dup4\n      0xffff\n      and\n      mul\n      or\n      swap1\n      sstore\n      pop\n        /* \"contracts/24_TotalLikes.sol\":1037:1156  function changeTweetLength(uint16 newTweetLength) public onlyOwner {... */\n      pop\n      jump\t// out\n        /* \"contracts/24_TotalLikes.sol\":303:339  uint16 public MAX_TWEET_LENGTH = 280 */\n    tag_31:\n      0x00\n      dup1\n      sload\n      swap1\n      0x0100\n      exp\n      swap1\n      div\n      0xffff\n      and\n      dup2\n      jump\t// out\n        /* \"contracts/24_TotalLikes.sol\":2319:2648  function removeLike (uint256 id, address author) external {... */\n    tag_37:\n        /* \"contracts/24_TotalLikes.sol\":2421:2423  id */\n      dup2\n        /* \"contracts/24_TotalLikes.sol\":2396:2402  tweets */\n      0x01\n        /* \"contracts/24_TotalLikes.sol\":2396:2410  tweets[author] */\n      0x00\n        /* \"contracts/24_TotalLikes.sol\":2403:2409  author */\n      dup4\n        /* \"contracts/24_TotalLikes.sol\":2396:2410  tweets[author] */\n      0xffffffffffffffffffffffffffffffffffffffff\n      and\n      0xffffffffffffffffffffffffffffffffffffffff\n      and\n      dup2\n      mstore\n      0x20\n      add\n      swap1\n      dup2\n      mstore\n      0x20\n      add\n      0x00\n      keccak256\n        /* \"contracts/24_TotalLikes.sol\":2411:2413  id */\n      dup4\n        /* \"contracts/24_TotalLikes.sol\":2396:2414  tweets[author][id] */\n      dup2\n      sload\n      dup2\n      lt\n      tag_83\n      jumpi\n      tag_84\n      tag_85\n      jump\t// in\n    tag_84:\n    tag_83:\n      swap1\n      0x00\n      mstore\n      keccak256(0x00, 0x20)\n      swap1\n      0x05\n      mul\n      add\n        /* \"contracts/24_TotalLikes.sol\":2396:2417  tweets[author][id].id */\n      0x04\n      add\n      sload\n        /* \"contracts/24_TotalLikes.sol\":2396:2423  tweets[author][id].id == id */\n      eq\n        /* \"contracts/24_TotalLikes.sol\":2388:2449  require(tweets[author][id].id == id, \"Nie ma takiego tweetu\") */\n      tag_87\n      jumpi\n      mload(0x40)\n      0x08c379a000000000000000000000000000000000000000000000000000000000\n      dup2\n      mstore\n      0x04\n      add\n      tag_88\n      swap1\n      tag_89\n      jump\t// in\n    tag_88:\n      mload(0x40)\n      dup1\n      swap2\n      sub\n      swap1\n      revert\n    tag_87:\n        /* \"contracts/24_TotalLikes.sol\":2495:2496  0 */\n      0x00\n        /* \"contracts/24_TotalLikes.sol\":2468:2474  tweets */\n      0x01\n        /* \"contracts/24_TotalLikes.sol\":2468:2482  tweets[author] */\n      0x00\n        /* \"contracts/24_TotalLikes.sol\":2475:2481  author */\n      dup4\n        /* \"contracts/24_TotalLikes.sol\":2468:2482  tweets[author] */\n      0xffffffffffffffffffffffffffffffffffffffff\n      and\n      0xffffffffffffffffffffffffffffffffffffffff\n      and\n      dup2\n      mstore\n      0x20\n      add\n      swap1\n      dup2\n      mstore\n      0x20\n      add\n      0x00\n      keccak256\n        /* \"contracts/24_TotalLikes.sol\":2483:2485  id */\n      dup4\n        /* \"contracts/24_TotalLikes.sol\":2468:2486  tweets[author][id] */\n      dup2\n      sload\n      dup2\n      lt\n      tag_90\n      jumpi\n      tag_91\n      tag_85\n      jump\t// in\n    tag_91:\n    tag_90:\n      swap1\n      0x00\n      mstore\n      keccak256(0x00, 0x20)\n      swap1\n      0x05\n      mul\n      add\n        /* \"contracts/24_TotalLikes.sol\":2468:2492  tweets[author][id].likes */\n      0x03\n      add\n      sload\n        /* \"contracts/24_TotalLikes.sol\":2468:2496  tweets[author][id].likes > 0 */\n      gt\n        /* \"contracts/24_TotalLikes.sol\":2460:2523  require(tweets[author][id].likes > 0, \"Nie mozesz usunac like\") */\n      tag_93\n      jumpi\n      mload(0x40)\n      0x08c379a000000000000000000000000000000000000000000000000000000000\n      dup2\n      mstore\n      0x04\n      add\n      tag_94\n      swap1\n      tag_95\n      jump\t// in\n    tag_94:\n      mload(0x40)\n      dup1\n      swap2\n      sub\n      swap1\n      revert\n    tag_93:\n        /* \"contracts/24_TotalLikes.sol\":2534:2540  tweets */\n      0x01\n        /* \"contracts/24_TotalLikes.sol\":2534:2548  tweets[author] */\n      0x00\n        /* \"contracts/24_TotalLikes.sol\":2541:2547  author */\n      dup3\n        /* \"contracts/24_TotalLikes.sol\":2534:2548  tweets[author] */\n      0xffffffffffffffffffffffffffffffffffffffff\n      and\n      0xffffffffffffffffffffffffffffffffffffffff\n      and\n      dup2\n      mstore\n      0x20\n      add\n      swap1\n      dup2\n      mstore\n      0x20\n      add\n      0x00\n      keccak256\n        /* \"contracts/24_TotalLikes.sol\":2549:2551  id */\n      dup3\n        /* \"contracts/24_TotalLikes.sol\":2534:2552  tweets[author][id] */\n      dup2\n      sload\n      dup2\n      lt\n      tag_96\n      jumpi\n      tag_97\n      tag_85\n      jump\t// in\n    tag_97:\n    tag_96:\n      swap1\n      0x00\n      mstore\n      keccak256(0x00, 0x20)\n      swap1\n      0x05\n      mul\n      add\n        /* \"contracts/24_TotalLikes.sol\":2534:2558  tweets[author][id].likes */\n      0x03\n      add\n      0x00\n        /* \"contracts/24_TotalLikes.sol\":2534:2560  tweets[author][id].likes-- */\n      dup2\n      sload\n      dup1\n      swap3\n      swap2\n      swap1\n      tag_99\n      swap1\n      tag_100\n      jump\t// in\n    tag_99:\n      swap2\n      swap1\n      pop\n      sstore\n      pop\n        /* \"contracts/24_TotalLikes.sol\":2578:2640  TweetUnliked(msg.sender, author, id, tweets[author][id].likes) */\n      0x762c2616349603ac16eba0de8e6141b79129a07ab63bd99e0a80b3a471716943\n        /* \"contracts/24_TotalLikes.sol\":2591:2601  msg.sender */\n      caller\n        /* \"contracts/24_TotalLikes.sol\":2603:2609  author */\n      dup3\n        /* \"contracts/24_TotalLikes.sol\":2611:2613  id */\n      dup5\n        /* \"contracts/24_TotalLikes.sol\":2615:2621  tweets */\n      0x01\n        /* \"contracts/24_TotalLikes.sol\":2615:2629  tweets[author] */\n      0x00\n        /* \"contracts/24_TotalLikes.sol\":2622:2628  author */\n      dup7\n        /* \"contracts/24_TotalLikes.sol\":2615:2629  tweets[author] */\n      0xffffffffffffffffffffffffffffffffffffffff\n      and\n      0xffffffffffffffffffffffffffffffffffffffff\n      and\n      dup2\n      mstore\n      0x20\n      add\n      swap1\n      dup2\n      mstore\n      0x20\n      add\n      0x00\n      keccak256\n        /* \"contracts/24_TotalLikes.sol\":2630:2632  id */\n      dup7\n        /* \"contracts/24_TotalLikes.sol\":2615:2633  tweets[author][id] */\n      dup2\n      sload\n      dup2\n      lt\n      tag_101\n      jumpi\n      tag_102\n      tag_85\n      jump\t// in\n    tag_102:\n    tag_101:\n      swap1\n      0x00\n      mstore\n      keccak256(0x00, 0x20)\n      swap1\n      0x05\n      mul\n      add\n        /* \"contracts/24_TotalLikes.sol\":2615:2639  tweets[author][id].likes */\n      0x03\n      add\n      sload\n        /* \"contracts/24_TotalLikes.sol\":2578:2640  TweetUnliked(msg.sender, author, id, tweets[author][id].likes) */\n      mload(0x40)\n      tag_104\n      swap5\n      swap4\n      swap3\n      swap2\n      swap1\n      tag_105\n      jump\t// in\n    tag_104:\n      mload(0x40)\n      dup1\n      swap2\n      sub\n      swap1\n      log1\n        /* \"contracts/24_TotalLikes.sol\":2319:2648  function removeLike (uint256 id, address author) external {... */\n      pop\n      pop\n      jump\t// out\n        /* \"contracts/24_TotalLikes.sol\":1164:1697  function createTweet(string memory _tweet) public {... */\n    tag_41:\n        /* \"contracts/24_TotalLikes.sol\":1257:1273  MAX_TWEET_LENGTH */\n      0x00\n      dup1\n      sload\n      swap1\n      0x0100\n      exp\n      swap1\n      div\n      0xffff\n      and\n        /* \"contracts/24_TotalLikes.sol\":1233:1273  bytes(_tweet).length <= MAX_TWEET_LENGTH */\n      0xffff\n      and\n        /* \"contracts/24_TotalLikes.sol\":1239:1245  _tweet */\n      dup2\n        /* \"contracts/24_TotalLikes.sol\":1233:1253  bytes(_tweet).length */\n      mload\n        /* \"contracts/24_TotalLikes.sol\":1233:1273  bytes(_tweet).length <= MAX_TWEET_LENGTH */\n      gt\n      iszero\n        /* \"contracts/24_TotalLikes.sol\":1225:1294  require(bytes(_tweet).length <= MAX_TWEET_LENGTH, \"Message to long\" ) */\n      tag_107\n      jumpi\n      mload(0x40)\n      0x08c379a000000000000000000000000000000000000000000000000000000000\n      dup2\n      mstore\n      0x04\n      add\n      tag_108\n      swap1\n      tag_109\n      jump\t// in\n    tag_108:\n      mload(0x40)\n      dup1\n      swap2\n      sub\n      swap1\n      revert\n    tag_107:\n        /* \"contracts/24_TotalLikes.sol\":1307:1328  Tweet memory newTweet */\n      0x00\n        /* \"contracts/24_TotalLikes.sol\":1331:1520  Tweet({... */\n      mload(0x40)\n      dup1\n      0xa0\n      add\n      0x40\n      mstore\n      dup1\n        /* \"contracts/24_TotalLikes.sol\":1360:1370  msg.sender */\n      caller\n        /* \"contracts/24_TotalLikes.sol\":1331:1520  Tweet({... */\n      0xffffffffffffffffffffffffffffffffffffffff\n      and\n      dup2\n      mstore\n      0x20\n      add\n        /* \"contracts/24_TotalLikes.sol\":1394:1400  _tweet */\n      dup4\n        /* \"contracts/24_TotalLikes.sol\":1331:1520  Tweet({... */\n      dup2\n      mstore\n      0x20\n      add\n        /* \"contracts/24_TotalLikes.sol\":1426:1441  block.timestamp */\n      timestamp\n        /* \"contracts/24_TotalLikes.sol\":1331:1520  Tweet({... */\n      dup2\n      mstore\n      0x20\n      add\n        /* \"contracts/24_TotalLikes.sol\":1463:1464  0 */\n      0x00\n        /* \"contracts/24_TotalLikes.sol\":1331:1520  Tweet({... */\n      dup2\n      mstore\n      0x20\n      add\n        /* \"contracts/24_TotalLikes.sol\":1483:1489  tweets */\n      0x01\n        /* \"contracts/24_TotalLikes.sol\":1483:1501  tweets[msg.sender] */\n      0x00\n        /* \"contracts/24_TotalLikes.sol\":1490:1500  msg.sender */\n      caller\n        /* \"contracts/24_TotalLikes.sol\":1483:1501  tweets[msg.sender] */\n      0xffffffffffffffffffffffffffffffffffffffff\n      and\n      0xffffffffffffffffffffffffffffffffffffffff\n      and\n      dup2\n      mstore\n      0x20\n      add\n      swap1\n      dup2\n      mstore\n      0x20\n      add\n      0x00\n      keccak256\n        /* \"contracts/24_TotalLikes.sol\":1483:1508  tweets[msg.sender].length */\n      dup1\n      sload\n      swap1\n      pop\n        /* \"contracts/24_TotalLikes.sol\":1331:1520  Tweet({... */\n      dup2\n      mstore\n      pop\n        /* \"contracts/24_TotalLikes.sol\":1307:1520  Tweet memory newTweet = Tweet({... */\n      swap1\n      pop\n        /* \"contracts/24_TotalLikes.sol\":1557:1563  tweets */\n      0x01\n        /* \"contracts/24_TotalLikes.sol\":1557:1575  tweets[msg.sender] */\n      0x00\n        /* \"contracts/24_TotalLikes.sol\":1564:1574  msg.sender */\n      caller\n        /* \"contracts/24_TotalLikes.sol\":1557:1575  tweets[msg.sender] */\n      0xffffffffffffffffffffffffffffffffffffffff\n      and\n      0xffffffffffffffffffffffffffffffffffffffff\n      and\n      dup2\n      mstore\n      0x20\n      add\n      swap1\n      dup2\n      mstore\n      0x20\n      add\n      0x00\n      keccak256\n        /* \"contracts/24_TotalLikes.sol\":1581:1589  newTweet */\n      dup2\n        /* \"contracts/24_TotalLikes.sol\":1557:1590  tweets[msg.sender].push(newTweet) */\n      swap1\n      dup1\n      0x01\n      dup2\n      sload\n      add\n      dup1\n      dup3\n      sstore\n      dup1\n      swap2\n      pop\n      pop\n      0x01\n      swap1\n      sub\n      swap1\n      0x00\n      mstore\n      keccak256(0x00, 0x20)\n      swap1\n      0x05\n      mul\n      add\n      0x00\n      swap1\n      swap2\n      swap1\n      swap2\n      swap1\n      swap2\n      pop\n      0x00\n      dup3\n      add\n      mload\n      dup2\n      0x00\n      add\n      exp(0x0100, 0x00)\n      dup2\n      sload\n      dup2\n      0xffffffffffffffffffffffffffffffffffffffff\n      mul\n      not\n      and\n      swap1\n      dup4\n      0xffffffffffffffffffffffffffffffffffffffff\n      and\n      mul\n      or\n      swap1\n      sstore\n      pop\n      0x20\n      dup3\n      add\n      mload\n      dup2\n      0x01\n      add\n      swap1\n      dup2\n      tag_111\n      swap2\n      swap1\n      tag_112\n      jump\t// in\n    tag_111:\n      pop\n      0x40\n      dup3\n      add\n      mload\n      dup2\n      0x02\n      add\n      sstore\n      0x60\n      dup3\n      add\n      mload\n      dup2\n      0x03\n      add\n      sstore\n      0x80\n      dup3\n      add\n      mload\n      dup2\n      0x04\n      add\n      sstore\n      pop\n      pop\n        /* \"contracts/24_TotalLikes.sol\":1608:1689  TweetCreated (newTweet.id, newTweet.author, newTweet.content, newTweet.timestamp) */\n      0x16fd3c13e9d46923e0a8bce11c7b473ec508a72e6c96cd2404b29ce972afc29e\n        /* \"contracts/24_TotalLikes.sol\":1622:1630  newTweet */\n      dup2\n        /* \"contracts/24_TotalLikes.sol\":1622:1633  newTweet.id */\n      0x80\n      add\n      mload\n        /* \"contracts/24_TotalLikes.sol\":1635:1643  newTweet */\n      dup3\n        /* \"contracts/24_TotalLikes.sol\":1635:1650  newTweet.author */\n      0x00\n      add\n      mload\n        /* \"contracts/24_TotalLikes.sol\":1652:1660  newTweet */\n      dup4\n        /* \"contracts/24_TotalLikes.sol\":1652:1668  newTweet.content */\n      0x20\n      add\n      mload\n        /* \"contracts/24_TotalLikes.sol\":1670:1678  newTweet */\n      dup5\n        /* \"contracts/24_TotalLikes.sol\":1670:1688  newTweet.timestamp */\n      0x40\n      add\n      mload\n        /* \"contracts/24_TotalLikes.sol\":1608:1689  TweetCreated (newTweet.id, newTweet.author, newTweet.content, newTweet.timestamp) */\n      mload(0x40)\n      tag_113\n      swap5\n      swap4\n      swap3\n      swap2\n      swap1\n      tag_114\n      jump\t// in\n    tag_113:\n      mload(0x40)\n      dup1\n      swap2\n      sub\n      swap1\n      log1\n        /* \"contracts/24_TotalLikes.sol\":1214:1697  {... */\n      pop\n        /* \"contracts/24_TotalLikes.sol\":1164:1697  function createTweet(string memory _tweet) public {... */\n      pop\n      jump\t// out\n        /* \"contracts/24_TotalLikes.sol\":2681:2904  function getTotalLikes (address _author) external returns(uint) {... */\n    tag_44:\n        /* \"contracts/24_TotalLikes.sol\":2739:2743  uint */\n      0x00\n        /* \"contracts/24_TotalLikes.sol\":2760:2766  uint i */\n      dup1\n        /* \"contracts/24_TotalLikes.sol\":2769:2770  0 */\n      0x00\n        /* \"contracts/24_TotalLikes.sol\":2760:2770  uint i = 0 */\n      swap1\n      pop\n        /* \"contracts/24_TotalLikes.sol\":2756:2869  for(uint i = 0; i < tweets[_author].length; i++){... */\n    tag_116:\n        /* \"contracts/24_TotalLikes.sol\":2776:2782  tweets */\n      0x01\n        /* \"contracts/24_TotalLikes.sol\":2776:2791  tweets[_author] */\n      0x00\n        /* \"contracts/24_TotalLikes.sol\":2783:2790  _author */\n      dup5\n        /* \"contracts/24_TotalLikes.sol\":2776:2791  tweets[_author] */\n      0xffffffffffffffffffffffffffffffffffffffff\n      and\n      0xffffffffffffffffffffffffffffffffffffffff\n      and\n      dup2\n      mstore\n      0x20\n      add\n      swap1\n      dup2\n      mstore\n      0x20\n      add\n      0x00\n      keccak256\n        /* \"contracts/24_TotalLikes.sol\":2776:2798  tweets[_author].length */\n      dup1\n      sload\n      swap1\n      pop\n        /* \"contracts/24_TotalLikes.sol\":2772:2773  i */\n      dup2\n        /* \"contracts/24_TotalLikes.sol\":2772:2798  i < tweets[_author].length */\n      lt\n        /* \"contracts/24_TotalLikes.sol\":2756:2869  for(uint i = 0; i < tweets[_author].length; i++){... */\n      iszero\n      tag_117\n      jumpi\n        /* \"contracts/24_TotalLikes.sol\":2833:2839  tweets */\n      0x01\n        /* \"contracts/24_TotalLikes.sol\":2833:2848  tweets[_author] */\n      0x00\n        /* \"contracts/24_TotalLikes.sol\":2840:2847  _author */\n      dup5\n        /* \"contracts/24_TotalLikes.sol\":2833:2848  tweets[_author] */\n      0xffffffffffffffffffffffffffffffffffffffff\n      and\n      0xffffffffffffffffffffffffffffffffffffffff\n      and\n      dup2\n      mstore\n      0x20\n      add\n      swap1\n      dup2\n      mstore\n      0x20\n      add\n      0x00\n      keccak256\n        /* \"contracts/24_TotalLikes.sol\":2849:2850  i */\n      dup2\n        /* \"contracts/24_TotalLikes.sol\":2833:2851  tweets[_author][i] */\n      dup2\n      sload\n      dup2\n      lt\n      tag_119\n      jumpi\n      tag_120\n      tag_85\n      jump\t// in\n    tag_120:\n    tag_119:\n      swap1\n      0x00\n      mstore\n      keccak256(0x00, 0x20)\n      swap1\n      0x05\n      mul\n      add\n        /* \"contracts/24_TotalLikes.sol\":2833:2857  tweets[_author][i].likes */\n      0x03\n      add\n      sload\n        /* \"contracts/24_TotalLikes.sol\":2819:2829  totalLikes */\n      0x03\n      0x00\n        /* \"contracts/24_TotalLikes.sol\":2819:2857  totalLikes += tweets[_author][i].likes */\n      dup3\n      dup3\n      sload\n      tag_122\n      swap2\n      swap1\n      tag_123\n      jump\t// in\n    tag_122:\n      swap3\n      pop\n      pop\n      dup2\n      swap1\n      sstore\n      pop\n        /* \"contracts/24_TotalLikes.sol\":2800:2803  i++ */\n      dup1\n      dup1\n      0x01\n      add\n      swap2\n      pop\n      pop\n        /* \"contracts/24_TotalLikes.sol\":2756:2869  for(uint i = 0; i < tweets[_author].length; i++){... */\n      jump(tag_116)\n    tag_117:\n      pop\n        /* \"contracts/24_TotalLikes.sol\":2886:2896  totalLikes */\n      sload(0x03)\n        /* \"contracts/24_TotalLikes.sol\":2879:2896  return totalLikes */\n      swap1\n      pop\n        /* \"contracts/24_TotalLikes.sol\":2681:2904  function getTotalLikes (address _author) external returns(uint) {... */\n      swap2\n      swap1\n      pop\n      jump\t// out\n        /* \"contracts/24_TotalLikes.sol\":547:567  address public owner */\n    tag_48:\n      0x02\n      0x00\n      swap1\n      sload\n      swap1\n      0x0100\n      exp\n      swap1\n      div\n      0xffffffffffffffffffffffffffffffffffffffff\n      and\n      dup2\n      jump\t// out\n        /* \"contracts/24_TotalLikes.sol\":1705:1816  function getTweet( uint _i) public view returns (Tweet memory) {... */\n    tag_54:\n        /* \"contracts/24_TotalLikes.sol\":1754:1766  Tweet memory */\n      tag_124\n      tag_125\n      jump\t// in\n    tag_124:\n        /* \"contracts/24_TotalLikes.sol\":1786:1792  tweets */\n      0x01\n        /* \"contracts/24_TotalLikes.sol\":1786:1804  tweets[msg.sender] */\n      0x00\n        /* \"contracts/24_TotalLikes.sol\":1793:1803  msg.sender */\n      caller\n        /* \"contracts/24_TotalLikes.sol\":1786:1804  tweets[msg.sender] */\n      0xffffffffffffffffffffffffffffffffffffffff\n      and\n      0xffffffffffffffffffffffffffffffffffffffff\n      and\n      dup2\n      mstore\n      0x20\n      add\n      swap1\n      dup2\n      mstore\n      0x20\n      add\n      0x00\n      keccak256\n        /* \"contracts/24_TotalLikes.sol\":1805:1807  _i */\n      dup3\n        /* \"contracts/24_TotalLikes.sol\":1786:1808  tweets[msg.sender][_i] */\n      dup2\n      sload\n      dup2\n      lt\n      tag_127\n      jumpi\n      tag_128\n      tag_85\n      jump\t// in\n    tag_128:\n    tag_127:\n      swap1\n      0x00\n      mstore\n      keccak256(0x00, 0x20)\n      swap1\n      0x05\n      mul\n      add\n        /* \"contracts/24_TotalLikes.sol\":1779:1808  return tweets[msg.sender][_i] */\n      mload(0x40)\n      dup1\n      0xa0\n      add\n      0x40\n      mstore\n      swap1\n      dup2\n      0x00\n      dup3\n      add\n      0x00\n      swap1\n      sload\n      swap1\n      0x0100\n      exp\n      swap1\n      div\n      0xffffffffffffffffffffffffffffffffffffffff\n      and\n      0xffffffffffffffffffffffffffffffffffffffff\n      and\n      0xffffffffffffffffffffffffffffffffffffffff\n      and\n      dup2\n      mstore\n      0x20\n      add\n      0x01\n      dup3\n      add\n      dup1\n      sload\n      tag_130\n      swap1\n      tag_63\n      jump\t// in\n    tag_130:\n      dup1\n      0x1f\n      add\n      0x20\n      dup1\n      swap2\n      div\n      mul\n      0x20\n      add\n      mload(0x40)\n      swap1\n      dup2\n      add\n      0x40\n      mstore\n      dup1\n      swap3\n      swap2\n      swap1\n      dup2\n      dup2\n      mstore\n      0x20\n      add\n      dup3\n      dup1\n      sload\n      tag_131\n      swap1\n      tag_63\n      jump\t// in\n    tag_131:\n      dup1\n      iszero\n      tag_132\n      jumpi\n      dup1\n      0x1f\n      lt\n      tag_133\n      jumpi\n      0x0100\n      dup1\n      dup4\n      sload\n      div\n      mul\n      dup4\n      mstore\n      swap2\n      0x20\n      add\n      swap2\n      jump(tag_132)\n    tag_133:\n      dup3\n      add\n      swap2\n      swap1\n      0x00\n      mstore\n      keccak256(0x00, 0x20)\n      swap1\n    tag_134:\n      dup2\n      sload\n      dup2\n      mstore\n      swap1\n      0x01\n      add\n      swap1\n      0x20\n      add\n      dup1\n      dup4\n      gt\n      tag_134\n      jumpi\n      dup3\n      swap1\n      sub\n      0x1f\n      and\n      dup3\n      add\n      swap2\n    tag_132:\n      pop\n      pop\n      pop\n      pop\n      pop\n      dup2\n      mstore\n      0x20\n      add\n      0x02\n      dup3\n      add\n      sload\n      dup2\n      mstore\n      0x20\n      add\n      0x03\n      dup3\n      add\n      sload\n      dup2\n      mstore\n      0x20\n      add\n      0x04\n      dup3\n      add\n      sload\n      dup2\n      mstore\n      pop\n      pop\n      swap1\n      pop\n        /* \"contracts/24_TotalLikes.sol\":1705:1816  function getTweet( uint _i) public view returns (Tweet memory) {... */\n      swap2\n      swap1\n      pop\n      jump\t// out\n        /* \"contracts/24_TotalLikes.sol\":1947:2311  function addLike (address author, uint256 id) external {... */\n    tag_59:\n        /* \"contracts/24_TotalLikes.sol\":2050:2055  owner */\n      0x02\n      0x00\n      swap1\n      sload\n      swap1\n      0x0100\n      exp\n      swap1\n      div\n      0xffffffffffffffffffffffffffffffffffffffff\n      and\n        /* \"contracts/24_TotalLikes.sol\":2021:2055  tweets[author][id].author != owner */\n      0xffffffffffffffffffffffffffffffffffffffff\n      and\n        /* \"contracts/24_TotalLikes.sol\":2021:2027  tweets */\n      0x01\n        /* \"contracts/24_TotalLikes.sol\":2021:2035  tweets[author] */\n      0x00\n        /* \"contracts/24_TotalLikes.sol\":2028:2034  author */\n      dup5\n        /* \"contracts/24_TotalLikes.sol\":2021:2035  tweets[author] */\n      0xffffffffffffffffffffffffffffffffffffffff\n      and\n      0xffffffffffffffffffffffffffffffffffffffff\n      and\n      dup2\n      mstore\n      0x20\n      add\n      swap1\n      dup2\n      mstore\n      0x20\n      add\n      0x00\n      keccak256\n        /* \"contracts/24_TotalLikes.sol\":2036:2038  id */\n      dup3\n        /* \"contracts/24_TotalLikes.sol\":2021:2039  tweets[author][id] */\n      dup2\n      sload\n      dup2\n      lt\n      tag_136\n      jumpi\n      tag_137\n      tag_85\n      jump\t// in\n    tag_137:\n    tag_136:\n      swap1\n      0x00\n      mstore\n      keccak256(0x00, 0x20)\n      swap1\n      0x05\n      mul\n      add\n        /* \"contracts/24_TotalLikes.sol\":2021:2046  tweets[author][id].author */\n      0x00\n      add\n      0x00\n      swap1\n      sload\n      swap1\n      0x0100\n      exp\n      swap1\n      div\n      0xffffffffffffffffffffffffffffffffffffffff\n      and\n        /* \"contracts/24_TotalLikes.sol\":2021:2055  tweets[author][id].author != owner */\n      0xffffffffffffffffffffffffffffffffffffffff\n      and\n      sub\n        /* \"contracts/24_TotalLikes.sol\":2013:2115  require(tweets[author][id].author != owner, \"Jestes wlasciwosciem, nie mozesz likowac wlasnego posta\") */\n      tag_139\n      jumpi\n      mload(0x40)\n      0x08c379a000000000000000000000000000000000000000000000000000000000\n      dup2\n      mstore\n      0x04\n      add\n      tag_140\n      swap1\n      tag_141\n      jump\t// in\n    tag_140:\n      mload(0x40)\n      dup1\n      swap2\n      sub\n      swap1\n      revert\n    tag_139:\n        /* \"contracts/24_TotalLikes.sol\":2159:2161  id */\n      dup1\n        /* \"contracts/24_TotalLikes.sol\":2134:2140  tweets */\n      0x01\n        /* \"contracts/24_TotalLikes.sol\":2134:2148  tweets[author] */\n      0x00\n        /* \"contracts/24_TotalLikes.sol\":2141:2147  author */\n      dup5\n        /* \"contracts/24_TotalLikes.sol\":2134:2148  tweets[author] */\n      0xffffffffffffffffffffffffffffffffffffffff\n      and\n      0xffffffffffffffffffffffffffffffffffffffff\n      and\n      dup2\n      mstore\n      0x20\n      add\n      swap1\n      dup2\n      mstore\n      0x20\n      add\n      0x00\n      keccak256\n        /* \"contracts/24_TotalLikes.sol\":2149:2151  id */\n      dup3\n        /* \"contracts/24_TotalLikes.sol\":2134:2152  tweets[author][id] */\n      dup2\n      sload\n      dup2\n      lt\n      tag_142\n      jumpi\n      tag_143\n      tag_85\n      jump\t// in\n    tag_143:\n    tag_142:\n      swap1\n      0x00\n      mstore\n      keccak256(0x00, 0x20)\n      swap1\n      0x05\n      mul\n      add\n        /* \"contracts/24_TotalLikes.sol\":2134:2155  tweets[author][id].id */\n      0x04\n      add\n      sload\n        /* \"contracts/24_TotalLikes.sol\":2134:2161  tweets[author][id].id == id */\n      eq\n        /* \"contracts/24_TotalLikes.sol\":2126:2187  require(tweets[author][id].id == id, \"Nie ma takiego tweetu\") */\n      tag_145\n      jumpi\n      mload(0x40)\n      0x08c379a000000000000000000000000000000000000000000000000000000000\n      dup2\n      mstore\n      0x04\n      add\n      tag_146\n      swap1\n      tag_89\n      jump\t// in\n    tag_146:\n      mload(0x40)\n      dup1\n      swap2\n      sub\n      swap1\n      revert\n    tag_145:\n        /* \"contracts/24_TotalLikes.sol\":2198:2204  tweets */\n      0x01\n        /* \"contracts/24_TotalLikes.sol\":2198:2212  tweets[author] */\n      0x00\n        /* \"contracts/24_TotalLikes.sol\":2205:2211  author */\n      dup4\n        /* \"contracts/24_TotalLikes.sol\":2198:2212  tweets[author] */\n      0xffffffffffffffffffffffffffffffffffffffff\n      and\n      0xffffffffffffffffffffffffffffffffffffffff\n      and\n      dup2\n      mstore\n      0x20\n      add\n      swap1\n      dup2\n      mstore\n      0x20\n      add\n      0x00\n      keccak256\n        /* \"contracts/24_TotalLikes.sol\":2213:2215  id */\n      dup2\n        /* \"contracts/24_TotalLikes.sol\":2198:2216  tweets[author][id] */\n      dup2\n      sload\n      dup2\n      lt\n      tag_147\n      jumpi\n      tag_148\n      tag_85\n      jump\t// in\n    tag_148:\n    tag_147:\n      swap1\n      0x00\n      mstore\n      keccak256(0x00, 0x20)\n      swap1\n      0x05\n      mul\n      add\n        /* \"contracts/24_TotalLikes.sol\":2198:2222  tweets[author][id].likes */\n      0x03\n      add\n      0x00\n        /* \"contracts/24_TotalLikes.sol\":2198:2224  tweets[author][id].likes++ */\n      dup2\n      sload\n      dup1\n      swap3\n      swap2\n      swap1\n      tag_150\n      swap1\n      tag_151\n      jump\t// in\n    tag_150:\n      swap2\n      swap1\n      pop\n      sstore\n      pop\n        /* \"contracts/24_TotalLikes.sol\":2242:2303  TweetLiked (msg.sender, author, id, tweets[author][id].likes) */\n      0xe8a76fc0f16d11a00d1e93b689b63d76cf60af914dd3d915375dc41d01a0c3c8\n        /* \"contracts/24_TotalLikes.sol\":2254:2264  msg.sender */\n      caller\n        /* \"contracts/24_TotalLikes.sol\":2266:2272  author */\n      dup4\n        /* \"contracts/24_TotalLikes.sol\":2274:2276  id */\n      dup4\n        /* \"contracts/24_TotalLikes.sol\":2278:2284  tweets */\n      0x01\n        /* \"contracts/24_TotalLikes.sol\":2278:2292  tweets[author] */\n      0x00\n        /* \"contracts/24_TotalLikes.sol\":2285:2291  author */\n      dup8\n        /* \"contracts/24_TotalLikes.sol\":2278:2292  tweets[author] */\n      0xffffffffffffffffffffffffffffffffffffffff\n      and\n      0xffffffffffffffffffffffffffffffffffffffff\n      and\n      dup2\n      mstore\n      0x20\n      add\n      swap1\n      dup2\n      mstore\n      0x20\n      add\n      0x00\n      keccak256\n        /* \"contracts/24_TotalLikes.sol\":2293:2295  id */\n      dup6\n        /* \"contracts/24_TotalLikes.sol\":2278:2296  tweets[author][id] */\n      dup2\n      sload\n      dup2\n      lt\n      tag_152\n      jumpi\n      tag_153\n      tag_85\n      jump\t// in\n    tag_153:\n    tag_152:\n      swap1\n      0x00\n      mstore\n      keccak256(0x00, 0x20)\n      swap1\n      0x05\n      mul\n      add\n        /* \"contracts/24_TotalLikes.sol\":2278:2302  tweets[author][id].likes */\n      0x03\n      add\n      sload\n        /* \"contracts/24_TotalLikes.sol\":2242:2303  TweetLiked (msg.sender, author, id, tweets[author][id].likes) */\n      mload(0x40)\n      tag_155\n      swap5\n      swap4\n      swap3\n      swap2\n      swap1\n      tag_105\n      jump\t// in\n    tag_155:\n      mload(0x40)\n      dup1\n      swap2\n      sub\n      swap1\n      log1\n        /* \"contracts/24_TotalLikes.sol\":1947:2311  function addLike (address author, uint256 id) external {... */\n      pop\n      pop\n      jump\t// out\n    tag_125:\n      mload(0x40)\n      dup1\n      0xa0\n      add\n      0x40\n      mstore\n      dup1\n      and(0xffffffffffffffffffffffffffffffffffffffff, 0x00)\n      dup2\n      mstore\n      0x20\n      add\n      0x60\n      dup2\n      mstore\n      0x20\n      add\n      0x00\n      dup2\n      mstore\n      0x20\n      add\n      0x00\n      dup2\n      mstore\n      0x20\n      add\n      0x00\n      dup2\n      mstore\n      pop\n      swap1\n      jump\t// out\n        /* \"#utility.yul\":7:82   */\n    tag_156:\n        /* \"#utility.yul\":40:46   */\n      0x00\n        /* \"#utility.yul\":73:75   */\n      0x40\n        /* \"#utility.yul\":67:76   */\n      mload\n        /* \"#utility.yul\":57:76   */\n      swap1\n      pop\n        /* \"#utility.yul\":7:82   */\n      swap1\n      jump\t// out\n        /* \"#utility.yul\":88:205   */\n    tag_157:\n        /* \"#utility.yul\":197:198   */\n      0x00\n        /* \"#utility.yul\":194:195   */\n      dup1\n        /* \"#utility.yul\":187:199   */\n      revert\n        /* \"#utility.yul\":211:328   */\n    tag_158:\n        /* \"#utility.yul\":320:321   */\n      0x00\n        /* \"#utility.yul\":317:318   */\n      dup1\n        /* \"#utility.yul\":310:322   */\n      revert\n        /* \"#utility.yul\":334:460   */\n    tag_159:\n        /* \"#utility.yul\":371:378   */\n      0x00\n        /* \"#utility.yul\":411:453   */\n      0xffffffffffffffffffffffffffffffffffffffff\n        /* \"#utility.yul\":404:409   */\n      dup3\n        /* \"#utility.yul\":400:454   */\n      and\n        /* \"#utility.yul\":389:454   */\n      swap1\n      pop\n        /* \"#utility.yul\":334:460   */\n      swap2\n      swap1\n      pop\n      jump\t// out\n        /* \"#utility.yul\":466:562   */\n    tag_160:\n        /* \"#utility.yul\":503:510   */\n      0x00\n        /* \"#utility.yul\":532:556   */\n      tag_231\n        /* \"#utility.yul\":550:555   */\n      dup3\n        /* \"#utility.yul\":532:556   */\n      tag_159\n      jump\t// in\n    tag_231:\n        /* \"#utility.yul\":521:556   */\n      swap1\n      pop\n        /* \"#utility.yul\":466:562   */\n      swap2\n      swap1\n      pop\n      jump\t// out\n        /* \"#utility.yul\":568:690   */\n    tag_161:\n        /* \"#utility.yul\":641:665   */\n      tag_233\n        /* \"#utility.yul\":659:664   */\n      dup2\n        /* \"#utility.yul\":641:665   */\n      tag_160\n      jump\t// in\n    tag_233:\n        /* \"#utility.yul\":634:639   */\n      dup2\n        /* \"#utility.yul\":631:666   */\n      eq\n        /* \"#utility.yul\":621:684   */\n      tag_234\n      jumpi\n        /* \"#utility.yul\":680:681   */\n      0x00\n        /* \"#utility.yul\":677:678   */\n      dup1\n        /* \"#utility.yul\":670:682   */\n      revert\n        /* \"#utility.yul\":621:684   */\n    tag_234:\n        /* \"#utility.yul\":568:690   */\n      pop\n      jump\t// out\n        /* \"#utility.yul\":696:835   */\n    tag_162:\n        /* \"#utility.yul\":742:747   */\n      0x00\n        /* \"#utility.yul\":780:786   */\n      dup2\n        /* \"#utility.yul\":767:787   */\n      calldataload\n        /* \"#utility.yul\":758:787   */\n      swap1\n      pop\n        /* \"#utility.yul\":796:829   */\n      tag_236\n        /* \"#utility.yul\":823:828   */\n      dup2\n        /* \"#utility.yul\":796:829   */\n      tag_161\n      jump\t// in\n    tag_236:\n        /* \"#utility.yul\":696:835   */\n      swap3\n      swap2\n      pop\n      pop\n      jump\t// out\n        /* \"#utility.yul\":841:918   */\n    tag_163:\n        /* \"#utility.yul\":878:885   */\n      0x00\n        /* \"#utility.yul\":907:912   */\n      dup2\n        /* \"#utility.yul\":896:912   */\n      swap1\n      pop\n        /* \"#utility.yul\":841:918   */\n      swap2\n      swap1\n      pop\n      jump\t// out\n        /* \"#utility.yul\":924:1046   */\n    tag_164:\n        /* \"#utility.yul\":997:1021   */\n      tag_239\n        /* \"#utility.yul\":1015:1020   */\n      dup2\n        /* \"#utility.yul\":997:1021   */\n      tag_163\n      jump\t// in\n    tag_239:\n        /* \"#utility.yul\":990:995   */\n      dup2\n        /* \"#utility.yul\":987:1022   */\n      eq\n        /* \"#utility.yul\":977:1040   */\n      tag_240\n      jumpi\n        /* \"#utility.yul\":1036:1037   */\n      0x00\n        /* \"#utility.yul\":1033:1034   */\n      dup1\n        /* \"#utility.yul\":1026:1038   */\n      revert\n        /* \"#utility.yul\":977:1040   */\n    tag_240:\n        /* \"#utility.yul\":924:1046   */\n      pop\n      jump\t// out\n        /* \"#utility.yul\":1052:1191   */\n    tag_165:\n        /* \"#utility.yul\":1098:1103   */\n      0x00\n        /* \"#utility.yul\":1136:1142   */\n      dup2\n        /* \"#utility.yul\":1123:1143   */\n      calldataload\n        /* \"#utility.yul\":1114:1143   */\n      swap1\n      pop\n        /* \"#utility.yul\":1152:1185   */\n      tag_242\n        /* \"#utility.yul\":1179:1184   */\n      dup2\n        /* \"#utility.yul\":1152:1185   */\n      tag_164\n      jump\t// in\n    tag_242:\n        /* \"#utility.yul\":1052:1191   */\n      swap3\n      swap2\n      pop\n      pop\n      jump\t// out\n        /* \"#utility.yul\":1197:1671   */\n    tag_16:\n        /* \"#utility.yul\":1265:1271   */\n      0x00\n        /* \"#utility.yul\":1273:1279   */\n      dup1\n        /* \"#utility.yul\":1322:1324   */\n      0x40\n        /* \"#utility.yul\":1310:1319   */\n      dup4\n        /* \"#utility.yul\":1301:1308   */\n      dup6\n        /* \"#utility.yul\":1297:1320   */\n      sub\n        /* \"#utility.yul\":1293:1325   */\n      slt\n        /* \"#utility.yul\":1290:1409   */\n      iszero\n      tag_244\n      jumpi\n        /* \"#utility.yul\":1328:1407   */\n      tag_245\n      tag_157\n      jump\t// in\n    tag_245:\n        /* \"#utility.yul\":1290:1409   */\n    tag_244:\n        /* \"#utility.yul\":1448:1449   */\n      0x00\n        /* \"#utility.yul\":1473:1526   */\n      tag_246\n        /* \"#utility.yul\":1518:1525   */\n      dup6\n        /* \"#utility.yul\":1509:1515   */\n      dup3\n        /* \"#utility.yul\":1498:1507   */\n      dup7\n        /* \"#utility.yul\":1494:1516   */\n      add\n        /* \"#utility.yul\":1473:1526   */\n      tag_162\n      jump\t// in\n    tag_246:\n        /* \"#utility.yul\":1463:1526   */\n      swap3\n      pop\n        /* \"#utility.yul\":1419:1536   */\n      pop\n        /* \"#utility.yul\":1575:1577   */\n      0x20\n        /* \"#utility.yul\":1601:1654   */\n      tag_247\n        /* \"#utility.yul\":1646:1653   */\n      dup6\n        /* \"#utility.yul\":1637:1643   */\n      dup3\n        /* \"#utility.yul\":1626:1635   */\n      dup7\n        /* \"#utility.yul\":1622:1644   */\n      add\n        /* \"#utility.yul\":1601:1654   */\n      tag_165\n      jump\t// in\n    tag_247:\n        /* \"#utility.yul\":1591:1654   */\n      swap2\n      pop\n        /* \"#utility.yul\":1546:1664   */\n      pop\n        /* \"#utility.yul\":1197:1671   */\n      swap3\n      pop\n      swap3\n      swap1\n      pop\n      jump\t// out\n        /* \"#utility.yul\":1677:1795   */\n    tag_166:\n        /* \"#utility.yul\":1764:1788   */\n      tag_249\n        /* \"#utility.yul\":1782:1787   */\n      dup2\n        /* \"#utility.yul\":1764:1788   */\n      tag_160\n      jump\t// in\n    tag_249:\n        /* \"#utility.yul\":1759:1762   */\n      dup3\n        /* \"#utility.yul\":1752:1789   */\n      mstore\n        /* \"#utility.yul\":1677:1795   */\n      pop\n      pop\n      jump\t// out\n        /* \"#utility.yul\":1801:1900   */\n    tag_167:\n        /* \"#utility.yul\":1853:1859   */\n      0x00\n        /* \"#utility.yul\":1887:1892   */\n      dup2\n        /* \"#utility.yul\":1881:1893   */\n      mload\n        /* \"#utility.yul\":1871:1893   */\n      swap1\n      pop\n        /* \"#utility.yul\":1801:1900   */\n      swap2\n      swap1\n      pop\n      jump\t// out\n        /* \"#utility.yul\":1906:2075   */\n    tag_168:\n        /* \"#utility.yul\":1990:2001   */\n      0x00\n        /* \"#utility.yul\":2024:2030   */\n      dup3\n        /* \"#utility.yul\":2019:2022   */\n      dup3\n        /* \"#utility.yul\":2012:2031   */\n      mstore\n        /* \"#utility.yul\":2064:2068   */\n      0x20\n        /* \"#utility.yul\":2059:2062   */\n      dup3\n        /* \"#utility.yul\":2055:2069   */\n      add\n        /* \"#utility.yul\":2040:2069   */\n      swap1\n      pop\n        /* \"#utility.yul\":1906:2075   */\n      swap3\n      swap2\n      pop\n      pop\n      jump\t// out\n        /* \"#utility.yul\":2081:2220   */\n    tag_169:\n        /* \"#utility.yul\":2170:2176   */\n      dup3\n        /* \"#utility.yul\":2165:2168   */\n      dup2\n        /* \"#utility.yul\":2160:2163   */\n      dup4\n        /* \"#utility.yul\":2154:2177   */\n      mcopy\n        /* \"#utility.yul\":2211:2212   */\n      0x00\n        /* \"#utility.yul\":2202:2208   */\n      dup4\n        /* \"#utility.yul\":2197:2200   */\n      dup4\n        /* \"#utility.yul\":2193:2209   */\n      add\n        /* \"#utility.yul\":2186:2213   */\n      mstore\n        /* \"#utility.yul\":2081:2220   */\n      pop\n      pop\n      pop\n      jump\t// out\n        /* \"#utility.yul\":2226:2328   */\n    tag_170:\n        /* \"#utility.yul\":2267:2273   */\n      0x00\n        /* \"#utility.yul\":2318:2320   */\n      0x1f\n        /* \"#utility.yul\":2314:2321   */\n      not\n        /* \"#utility.yul\":2309:2311   */\n      0x1f\n        /* \"#utility.yul\":2302:2307   */\n      dup4\n        /* \"#utility.yul\":2298:2312   */\n      add\n        /* \"#utility.yul\":2294:2322   */\n      and\n        /* \"#utility.yul\":2284:2322   */\n      swap1\n      pop\n        /* \"#utility.yul\":2226:2328   */\n      swap2\n      swap1\n      pop\n      jump\t// out\n        /* \"#utility.yul\":2334:2711   */\n    tag_171:\n        /* \"#utility.yul\":2422:2425   */\n      0x00\n        /* \"#utility.yul\":2450:2489   */\n      tag_255\n        /* \"#utility.yul\":2483:2488   */\n      dup3\n        /* \"#utility.yul\":2450:2489   */\n      tag_167\n      jump\t// in\n    tag_255:\n        /* \"#utility.yul\":2505:2576   */\n      tag_256\n        /* \"#utility.yul\":2569:2575   */\n      dup2\n        /* \"#utility.yul\":2564:2567   */\n      dup6\n        /* \"#utility.yul\":2505:2576   */\n      tag_168\n      jump\t// in\n    tag_256:\n        /* \"#utility.yul\":2498:2576   */\n      swap4\n      pop\n        /* \"#utility.yul\":2585:2650   */\n      tag_257\n        /* \"#utility.yul\":2643:2649   */\n      dup2\n        /* \"#utility.yul\":2638:2641   */\n      dup6\n        /* \"#utility.yul\":2631:2635   */\n      0x20\n        /* \"#utility.yul\":2624:2629   */\n      dup7\n        /* \"#utility.yul\":2620:2636   */\n      add\n        /* \"#utility.yul\":2585:2650   */\n      tag_169\n      jump\t// in\n    tag_257:\n        /* \"#utility.yul\":2675:2704   */\n      tag_258\n        /* \"#utility.yul\":2697:2703   */\n      dup2\n        /* \"#utility.yul\":2675:2704   */\n      tag_170\n      jump\t// in\n    tag_258:\n        /* \"#utility.yul\":2670:2673   */\n      dup5\n        /* \"#utility.yul\":2666:2705   */\n      add\n        /* \"#utility.yul\":2659:2705   */\n      swap2\n      pop\n        /* \"#utility.yul\":2426:2711   */\n      pop\n        /* \"#utility.yul\":2334:2711   */\n      swap3\n      swap2\n      pop\n      pop\n      jump\t// out\n        /* \"#utility.yul\":2717:2835   */\n    tag_172:\n        /* \"#utility.yul\":2804:2828   */\n      tag_260\n        /* \"#utility.yul\":2822:2827   */\n      dup2\n        /* \"#utility.yul\":2804:2828   */\n      tag_163\n      jump\t// in\n    tag_260:\n        /* \"#utility.yul\":2799:2802   */\n      dup3\n        /* \"#utility.yul\":2792:2829   */\n      mstore\n        /* \"#utility.yul\":2717:2835   */\n      pop\n      pop\n      jump\t// out\n        /* \"#utility.yul\":2841:3596   */\n    tag_19:\n        /* \"#utility.yul\":3066:3070   */\n      0x00\n        /* \"#utility.yul\":3104:3107   */\n      0xa0\n        /* \"#utility.yul\":3093:3102   */\n      dup3\n        /* \"#utility.yul\":3089:3108   */\n      add\n        /* \"#utility.yul\":3081:3108   */\n      swap1\n      pop\n        /* \"#utility.yul\":3118:3189   */\n      tag_262\n        /* \"#utility.yul\":3186:3187   */\n      0x00\n        /* \"#utility.yul\":3175:3184   */\n      dup4\n        /* \"#utility.yul\":3171:3188   */\n      add\n        /* \"#utility.yul\":3162:3168   */\n      dup9\n        /* \"#utility.yul\":3118:3189   */\n      tag_166\n      jump\t// in\n    tag_262:\n        /* \"#utility.yul\":3236:3245   */\n      dup2\n        /* \"#utility.yul\":3230:3234   */\n      dup2\n        /* \"#utility.yul\":3226:3246   */\n      sub\n        /* \"#utility.yul\":3221:3223   */\n      0x20\n        /* \"#utility.yul\":3210:3219   */\n      dup4\n        /* \"#utility.yul\":3206:3224   */\n      add\n        /* \"#utility.yul\":3199:3247   */\n      mstore\n        /* \"#utility.yul\":3264:3342   */\n      tag_263\n        /* \"#utility.yul\":3337:3341   */\n      dup2\n        /* \"#utility.yul\":3328:3334   */\n      dup8\n        /* \"#utility.yul\":3264:3342   */\n      tag_171\n      jump\t// in\n    tag_263:\n        /* \"#utility.yul\":3256:3342   */\n      swap1\n      pop\n        /* \"#utility.yul\":3352:3424   */\n      tag_264\n        /* \"#utility.yul\":3420:3422   */\n      0x40\n        /* \"#utility.yul\":3409:3418   */\n      dup4\n        /* \"#utility.yul\":3405:3423   */\n      add\n        /* \"#utility.yul\":3396:3402   */\n      dup7\n        /* \"#utility.yul\":3352:3424   */\n      tag_172\n      jump\t// in\n    tag_264:\n        /* \"#utility.yul\":3434:3506   */\n      tag_265\n        /* \"#utility.yul\":3502:3504   */\n      0x60\n        /* \"#utility.yul\":3491:3500   */\n      dup4\n        /* \"#utility.yul\":3487:3505   */\n      add\n        /* \"#utility.yul\":3478:3484   */\n      dup6\n        /* \"#utility.yul\":3434:3506   */\n      tag_172\n      jump\t// in\n    tag_265:\n        /* \"#utility.yul\":3516:3589   */\n      tag_266\n        /* \"#utility.yul\":3584:3587   */\n      0x80\n        /* \"#utility.yul\":3573:3582   */\n      dup4\n        /* \"#utility.yul\":3569:3588   */\n      add\n        /* \"#utility.yul\":3560:3566   */\n      dup5\n        /* \"#utility.yul\":3516:3589   */\n      tag_172\n      jump\t// in\n    tag_266:\n        /* \"#utility.yul\":2841:3596   */\n      swap7\n      swap6\n      pop\n      pop\n      pop\n      pop\n      pop\n      pop\n      jump\t// out\n        /* \"#utility.yul\":3602:3931   */\n    tag_22:\n        /* \"#utility.yul\":3661:3667   */\n      0x00\n        /* \"#utility.yul\":3710:3712   */\n      0x20\n        /* \"#utility.yul\":3698:3707   */\n      dup3\n        /* \"#utility.yul\":3689:3696   */\n      dup5\n        /* \"#utility.yul\":3685:3708   */\n      sub\n        /* \"#utility.yul\":3681:3713   */\n      slt\n        /* \"#utility.yul\":3678:3797   */\n      iszero\n      tag_268\n      jumpi\n        /* \"#utility.yul\":3716:3795   */\n      tag_269\n      tag_157\n      jump\t// in\n    tag_269:\n        /* \"#utility.yul\":3678:3797   */\n    tag_268:\n        /* \"#utility.yul\":3836:3837   */\n      0x00\n        /* \"#utility.yul\":3861:3914   */\n      tag_270\n        /* \"#utility.yul\":3906:3913   */\n      dup5\n        /* \"#utility.yul\":3897:3903   */\n      dup3\n        /* \"#utility.yul\":3886:3895   */\n      dup6\n        /* \"#utility.yul\":3882:3904   */\n      add\n        /* \"#utility.yul\":3861:3914   */\n      tag_162\n      jump\t// in\n    tag_270:\n        /* \"#utility.yul\":3851:3914   */\n      swap2\n      pop\n        /* \"#utility.yul\":3807:3924   */\n      pop\n        /* \"#utility.yul\":3602:3931   */\n      swap3\n      swap2\n      pop\n      pop\n      jump\t// out\n        /* \"#utility.yul\":3937:4072   */\n    tag_173:\n        /* \"#utility.yul\":4025:4031   */\n      0x00\n        /* \"#utility.yul\":4059:4064   */\n      dup2\n        /* \"#utility.yul\":4053:4065   */\n      mload\n        /* \"#utility.yul\":4043:4065   */\n      swap1\n      pop\n        /* \"#utility.yul\":3937:4072   */\n      swap2\n      swap1\n      pop\n      jump\t// out\n        /* \"#utility.yul\":4078:4283   */\n    tag_174:\n        /* \"#utility.yul\":4198:4209   */\n      0x00\n        /* \"#utility.yul\":4232:4238   */\n      dup3\n        /* \"#utility.yul\":4227:4230   */\n      dup3\n        /* \"#utility.yul\":4220:4239   */\n      mstore\n        /* \"#utility.yul\":4272:4276   */\n      0x20\n        /* \"#utility.yul\":4267:4270   */\n      dup3\n        /* \"#utility.yul\":4263:4277   */\n      add\n        /* \"#utility.yul\":4248:4277   */\n      swap1\n      pop\n        /* \"#utility.yul\":4078:4283   */\n      swap3\n      swap2\n      pop\n      pop\n      jump\t// out\n        /* \"#utility.yul\":4289:4442   */\n    tag_175:\n        /* \"#utility.yul\":4377:4381   */\n      0x00\n        /* \"#utility.yul\":4400:4403   */\n      dup2\n        /* \"#utility.yul\":4392:4403   */\n      swap1\n      pop\n        /* \"#utility.yul\":4430:4434   */\n      0x20\n        /* \"#utility.yul\":4425:4428   */\n      dup3\n        /* \"#utility.yul\":4421:4435   */\n      add\n        /* \"#utility.yul\":4413:4435   */\n      swap1\n      pop\n        /* \"#utility.yul\":4289:4442   */\n      swap2\n      swap1\n      pop\n      jump\t// out\n        /* \"#utility.yul\":4448:4556   */\n    tag_176:\n        /* \"#utility.yul\":4525:4549   */\n      tag_275\n        /* \"#utility.yul\":4543:4548   */\n      dup2\n        /* \"#utility.yul\":4525:4549   */\n      tag_160\n      jump\t// in\n    tag_275:\n        /* \"#utility.yul\":4520:4523   */\n      dup3\n        /* \"#utility.yul\":4513:4550   */\n      mstore\n        /* \"#utility.yul\":4448:4556   */\n      pop\n      pop\n      jump\t// out\n        /* \"#utility.yul\":4562:4721   */\n    tag_177:\n        /* \"#utility.yul\":4636:4647   */\n      0x00\n        /* \"#utility.yul\":4670:4676   */\n      dup3\n        /* \"#utility.yul\":4665:4668   */\n      dup3\n        /* \"#utility.yul\":4658:4677   */\n      mstore\n        /* \"#utility.yul\":4710:4714   */\n      0x20\n        /* \"#utility.yul\":4705:4708   */\n      dup3\n        /* \"#utility.yul\":4701:4715   */\n      add\n        /* \"#utility.yul\":4686:4715   */\n      swap1\n      pop\n        /* \"#utility.yul\":4562:4721   */\n      swap3\n      swap2\n      pop\n      pop\n      jump\t// out\n        /* \"#utility.yul\":4727:5084   */\n    tag_178:\n        /* \"#utility.yul\":4805:4808   */\n      0x00\n        /* \"#utility.yul\":4833:4872   */\n      tag_278\n        /* \"#utility.yul\":4866:4871   */\n      dup3\n        /* \"#utility.yul\":4833:4872   */\n      tag_167\n      jump\t// in\n    tag_278:\n        /* \"#utility.yul\":4888:4949   */\n      tag_279\n        /* \"#utility.yul\":4942:4948   */\n      dup2\n        /* \"#utility.yul\":4937:4940   */\n      dup6\n        /* \"#utility.yul\":4888:4949   */\n      tag_177\n      jump\t// in\n    tag_279:\n        /* \"#utility.yul\":4881:4949   */\n      swap4\n      pop\n        /* \"#utility.yul\":4958:5023   */\n      tag_280\n        /* \"#utility.yul\":5016:5022   */\n      dup2\n        /* \"#utility.yul\":5011:5014   */\n      dup6\n        /* \"#utility.yul\":5004:5008   */\n      0x20\n        /* \"#utility.yul\":4997:5002   */\n      dup7\n        /* \"#utility.yul\":4993:5009   */\n      add\n        /* \"#utility.yul\":4958:5023   */\n      tag_169\n      jump\t// in\n    tag_280:\n        /* \"#utility.yul\":5048:5077   */\n      tag_281\n        /* \"#utility.yul\":5070:5076   */\n      dup2\n        /* \"#utility.yul\":5048:5077   */\n      tag_170\n      jump\t// in\n    tag_281:\n        /* \"#utility.yul\":5043:5046   */\n      dup5\n        /* \"#utility.yul\":5039:5078   */\n      add\n        /* \"#utility.yul\":5032:5078   */\n      swap2\n      pop\n        /* \"#utility.yul\":4809:5084   */\n      pop\n        /* \"#utility.yul\":4727:5084   */\n      swap3\n      swap2\n      pop\n      pop\n      jump\t// out\n        /* \"#utility.yul\":5090:5198   */\n    tag_179:\n        /* \"#utility.yul\":5167:5191   */\n      tag_283\n        /* \"#utility.yul\":5185:5190   */\n      dup2\n        /* \"#utility.yul\":5167:5191   */\n      tag_163\n      jump\t// in\n    tag_283:\n        /* \"#utility.yul\":5162:5165   */\n      dup3\n        /* \"#utility.yul\":5155:5192   */\n      mstore\n        /* \"#utility.yul\":5090:5198   */\n      pop\n      pop\n      jump\t// out\n        /* \"#utility.yul\":5256:6375   */\n    tag_180:\n        /* \"#utility.yul\":5357:5360   */\n      0x00\n        /* \"#utility.yul\":5393:5397   */\n      0xa0\n        /* \"#utility.yul\":5388:5391   */\n      dup4\n        /* \"#utility.yul\":5384:5398   */\n      add\n        /* \"#utility.yul\":5482:5486   */\n      0x00\n        /* \"#utility.yul\":5475:5480   */\n      dup4\n        /* \"#utility.yul\":5471:5487   */\n      add\n        /* \"#utility.yul\":5465:5488   */\n      mload\n        /* \"#utility.yul\":5501:5564   */\n      tag_285\n        /* \"#utility.yul\":5558:5562   */\n      0x00\n        /* \"#utility.yul\":5553:5556   */\n      dup7\n        /* \"#utility.yul\":5549:5563   */\n      add\n        /* \"#utility.yul\":5535:5547   */\n      dup3\n        /* \"#utility.yul\":5501:5564   */\n      tag_176\n      jump\t// in\n    tag_285:\n        /* \"#utility.yul\":5408:5574   */\n      pop\n        /* \"#utility.yul\":5659:5663   */\n      0x20\n        /* \"#utility.yul\":5652:5657   */\n      dup4\n        /* \"#utility.yul\":5648:5664   */\n      add\n        /* \"#utility.yul\":5642:5665   */\n      mload\n        /* \"#utility.yul\":5712:5715   */\n      dup5\n        /* \"#utility.yul\":5706:5710   */\n      dup3\n        /* \"#utility.yul\":5702:5716   */\n      sub\n        /* \"#utility.yul\":5695:5699   */\n      0x20\n        /* \"#utility.yul\":5690:5693   */\n      dup7\n        /* \"#utility.yul\":5686:5700   */\n      add\n        /* \"#utility.yul\":5679:5717   */\n      mstore\n        /* \"#utility.yul\":5738:5811   */\n      tag_286\n        /* \"#utility.yul\":5806:5810   */\n      dup3\n        /* \"#utility.yul\":5792:5804   */\n      dup3\n        /* \"#utility.yul\":5738:5811   */\n      tag_178\n      jump\t// in\n    tag_286:\n        /* \"#utility.yul\":5730:5811   */\n      swap2\n      pop\n        /* \"#utility.yul\":5584:5822   */\n      pop\n        /* \"#utility.yul\":5909:5913   */\n      0x40\n        /* \"#utility.yul\":5902:5907   */\n      dup4\n        /* \"#utility.yul\":5898:5914   */\n      add\n        /* \"#utility.yul\":5892:5915   */\n      mload\n        /* \"#utility.yul\":5928:5991   */\n      tag_287\n        /* \"#utility.yul\":5985:5989   */\n      0x40\n        /* \"#utility.yul\":5980:5983   */\n      dup7\n        /* \"#utility.yul\":5976:5990   */\n      add\n        /* \"#utility.yul\":5962:5974   */\n      dup3\n        /* \"#utility.yul\":5928:5991   */\n      tag_179\n      jump\t// in\n    tag_287:\n        /* \"#utility.yul\":5832:6001   */\n      pop\n        /* \"#utility.yul\":6084:6088   */\n      0x60\n        /* \"#utility.yul\":6077:6082   */\n      dup4\n        /* \"#utility.yul\":6073:6089   */\n      add\n        /* \"#utility.yul\":6067:6090   */\n      mload\n        /* \"#utility.yul\":6103:6166   */\n      tag_288\n        /* \"#utility.yul\":6160:6164   */\n      0x60\n        /* \"#utility.yul\":6155:6158   */\n      dup7\n        /* \"#utility.yul\":6151:6165   */\n      add\n        /* \"#utility.yul\":6137:6149   */\n      dup3\n        /* \"#utility.yul\":6103:6166   */\n      tag_179\n      jump\t// in\n    tag_288:\n        /* \"#utility.yul\":6011:6176   */\n      pop\n        /* \"#utility.yul\":6256:6260   */\n      0x80\n        /* \"#utility.yul\":6249:6254   */\n      dup4\n        /* \"#utility.yul\":6245:6261   */\n      add\n        /* \"#utility.yul\":6239:6262   */\n      mload\n        /* \"#utility.yul\":6275:6338   */\n      tag_289\n        /* \"#utility.yul\":6332:6336   */\n      0x80\n        /* \"#utility.yul\":6327:6330   */\n      dup7\n        /* \"#utility.yul\":6323:6337   */\n      add\n        /* \"#utility.yul\":6309:6321   */\n      dup3\n        /* \"#utility.yul\":6275:6338   */\n      tag_179\n      jump\t// in\n    tag_289:\n        /* \"#utility.yul\":6186:6348   */\n      pop\n        /* \"#utility.yul\":6365:6369   */\n      dup1\n        /* \"#utility.yul\":6358:6369   */\n      swap2\n      pop\n        /* \"#utility.yul\":5362:6375   */\n      pop\n        /* \"#utility.yul\":5256:6375   */\n      swap3\n      swap2\n      pop\n      pop\n      jump\t// out\n        /* \"#utility.yul\":6381:6621   */\n    tag_181:\n        /* \"#utility.yul\":6492:6502   */\n      0x00\n        /* \"#utility.yul\":6527:6615   */\n      tag_291\n        /* \"#utility.yul\":6611:6614   */\n      dup4\n        /* \"#utility.yul\":6603:6609   */\n      dup4\n        /* \"#utility.yul\":6527:6615   */\n      tag_180\n      jump\t// in\n    tag_291:\n        /* \"#utility.yul\":6513:6615   */\n      swap1\n      pop\n        /* \"#utility.yul\":6381:6621   */\n      swap3\n      swap2\n      pop\n      pop\n      jump\t// out\n        /* \"#utility.yul\":6627:6761   */\n    tag_182:\n        /* \"#utility.yul\":6718:6722   */\n      0x00\n        /* \"#utility.yul\":6750:6754   */\n      0x20\n        /* \"#utility.yul\":6745:6748   */\n      dup3\n        /* \"#utility.yul\":6741:6755   */\n      add\n        /* \"#utility.yul\":6733:6755   */\n      swap1\n      pop\n        /* \"#utility.yul\":6627:6761   */\n      swap2\n      swap1\n      pop\n      jump\t// out\n        /* \"#utility.yul\":6823:7902   */\n    tag_183:\n        /* \"#utility.yul\":6984:6987   */\n      0x00\n        /* \"#utility.yul\":7013:7088   */\n      tag_294\n        /* \"#utility.yul\":7082:7087   */\n      dup3\n        /* \"#utility.yul\":7013:7088   */\n      tag_173\n      jump\t// in\n    tag_294:\n        /* \"#utility.yul\":7104:7211   */\n      tag_295\n        /* \"#utility.yul\":7204:7210   */\n      dup2\n        /* \"#utility.yul\":7199:7202   */\n      dup6\n        /* \"#utility.yul\":7104:7211   */\n      tag_174\n      jump\t// in\n    tag_295:\n        /* \"#utility.yul\":7097:7211   */\n      swap4\n      pop\n        /* \"#utility.yul\":7237:7240   */\n      dup4\n        /* \"#utility.yul\":7282:7286   */\n      0x20\n        /* \"#utility.yul\":7274:7280   */\n      dup3\n        /* \"#utility.yul\":7270:7287   */\n      mul\n        /* \"#utility.yul\":7265:7268   */\n      dup6\n        /* \"#utility.yul\":7261:7288   */\n      add\n        /* \"#utility.yul\":7312:7389   */\n      tag_296\n        /* \"#utility.yul\":7383:7388   */\n      dup6\n        /* \"#utility.yul\":7312:7389   */\n      tag_175\n      jump\t// in\n    tag_296:\n        /* \"#utility.yul\":7412:7419   */\n      dup1\n        /* \"#utility.yul\":7443:7444   */\n      0x00\n        /* \"#utility.yul\":7428:7857   */\n    tag_297:\n        /* \"#utility.yul\":7453:7459   */\n      dup6\n        /* \"#utility.yul\":7450:7451   */\n      dup2\n        /* \"#utility.yul\":7447:7460   */\n      lt\n        /* \"#utility.yul\":7428:7857   */\n      iszero\n      tag_299\n      jumpi\n        /* \"#utility.yul\":7524:7533   */\n      dup5\n        /* \"#utility.yul\":7518:7522   */\n      dup5\n        /* \"#utility.yul\":7514:7534   */\n      sub\n        /* \"#utility.yul\":7509:7512   */\n      dup10\n        /* \"#utility.yul\":7502:7535   */\n      mstore\n        /* \"#utility.yul\":7575:7581   */\n      dup2\n        /* \"#utility.yul\":7569:7582   */\n      mload\n        /* \"#utility.yul\":7603:7709   */\n      tag_300\n        /* \"#utility.yul\":7704:7708   */\n      dup6\n        /* \"#utility.yul\":7689:7702   */\n      dup3\n        /* \"#utility.yul\":7603:7709   */\n      tag_181\n      jump\t// in\n    tag_300:\n        /* \"#utility.yul\":7595:7709   */\n      swap5\n      pop\n        /* \"#utility.yul\":7732:7813   */\n      tag_301\n        /* \"#utility.yul\":7806:7812   */\n      dup4\n        /* \"#utility.yul\":7732:7813   */\n      tag_182\n      jump\t// in\n    tag_301:\n        /* \"#utility.yul\":7722:7813   */\n      swap3\n      pop\n        /* \"#utility.yul\":7842:7846   */\n      0x20\n        /* \"#utility.yul\":7837:7840   */\n      dup11\n        /* \"#utility.yul\":7833:7847   */\n      add\n        /* \"#utility.yul\":7826:7847   */\n      swap10\n      pop\n        /* \"#utility.yul\":7488:7857   */\n      pop\n        /* \"#utility.yul\":7475:7476   */\n      0x01\n        /* \"#utility.yul\":7472:7473   */\n      dup2\n        /* \"#utility.yul\":7468:7477   */\n      add\n        /* \"#utility.yul\":7463:7477   */\n      swap1\n      pop\n        /* \"#utility.yul\":7428:7857   */\n      jump(tag_297)\n    tag_299:\n        /* \"#utility.yul\":7432:7446   */\n      pop\n        /* \"#utility.yul\":7873:7877   */\n      dup3\n        /* \"#utility.yul\":7866:7877   */\n      swap8\n      pop\n        /* \"#utility.yul\":7893:7896   */\n      dup8\n        /* \"#utility.yul\":7886:7896   */\n      swap6\n      pop\n        /* \"#utility.yul\":6989:7902   */\n      pop\n      pop\n      pop\n      pop\n      pop\n        /* \"#utility.yul\":6823:7902   */\n      swap3\n      swap2\n      pop\n      pop\n      jump\t// out\n        /* \"#utility.yul\":7908:8365   */\n    tag_25:\n        /* \"#utility.yul\":8093:8097   */\n      0x00\n        /* \"#utility.yul\":8131:8133   */\n      0x20\n        /* \"#utility.yul\":8120:8129   */\n      dup3\n        /* \"#utility.yul\":8116:8134   */\n      add\n        /* \"#utility.yul\":8108:8134   */\n      swap1\n      pop\n        /* \"#utility.yul\":8180:8189   */\n      dup2\n        /* \"#utility.yul\":8174:8178   */\n      dup2\n        /* \"#utility.yul\":8170:8190   */\n      sub\n        /* \"#utility.yul\":8166:8167   */\n      0x00\n        /* \"#utility.yul\":8155:8164   */\n      dup4\n        /* \"#utility.yul\":8151:8168   */\n      add\n        /* \"#utility.yul\":8144:8191   */\n      mstore\n        /* \"#utility.yul\":8208:8358   */\n      tag_303\n        /* \"#utility.yul\":8353:8357   */\n      dup2\n        /* \"#utility.yul\":8344:8350   */\n      dup5\n        /* \"#utility.yul\":8208:8358   */\n      tag_183\n      jump\t// in\n    tag_303:\n        /* \"#utility.yul\":8200:8358   */\n      swap1\n      pop\n        /* \"#utility.yul\":7908:8365   */\n      swap3\n      swap2\n      pop\n      pop\n      jump\t// out\n        /* \"#utility.yul\":8371:8460   */\n    tag_184:\n        /* \"#utility.yul\":8407:8414   */\n      0x00\n        /* \"#utility.yul\":8447:8453   */\n      0xffff\n        /* \"#utility.yul\":8440:8445   */\n      dup3\n        /* \"#utility.yul\":8436:8454   */\n      and\n        /* \"#utility.yul\":8425:8454   */\n      swap1\n      pop\n        /* \"#utility.yul\":8371:8460   */\n      swap2\n      swap1\n      pop\n      jump\t// out\n        /* \"#utility.yul\":8466:8586   */\n    tag_185:\n        /* \"#utility.yul\":8538:8561   */\n      tag_306\n        /* \"#utility.yul\":8555:8560   */\n      dup2\n        /* \"#utility.yul\":8538:8561   */\n      tag_184\n      jump\t// in\n    tag_306:\n        /* \"#utility.yul\":8531:8536   */\n      dup2\n        /* \"#utility.yul\":8528:8562   */\n      eq\n        /* \"#utility.yul\":8518:8580   */\n      tag_307\n      jumpi\n        /* \"#utility.yul\":8576:8577   */\n      0x00\n        /* \"#utility.yul\":8573:8574   */\n      dup1\n        /* \"#utility.yul\":8566:8578   */\n      revert\n        /* \"#utility.yul\":8518:8580   */\n    tag_307:\n        /* \"#utility.yul\":8466:8586   */\n      pop\n      jump\t// out\n        /* \"#utility.yul\":8592:8729   */\n    tag_186:\n        /* \"#utility.yul\":8637:8642   */\n      0x00\n        /* \"#utility.yul\":8675:8681   */\n      dup2\n        /* \"#utility.yul\":8662:8682   */\n      calldataload\n        /* \"#utility.yul\":8653:8682   */\n      swap1\n      pop\n        /* \"#utility.yul\":8691:8723   */\n      tag_309\n        /* \"#utility.yul\":8717:8722   */\n      dup2\n        /* \"#utility.yul\":8691:8723   */\n      tag_185\n      jump\t// in\n    tag_309:\n        /* \"#utility.yul\":8592:8729   */\n      swap3\n      swap2\n      pop\n      pop\n      jump\t// out\n        /* \"#utility.yul\":8735:9062   */\n    tag_28:\n        /* \"#utility.yul\":8793:8799   */\n      0x00\n        /* \"#utility.yul\":8842:8844   */\n      0x20\n        /* \"#utility.yul\":8830:8839   */\n      dup3\n        /* \"#utility.yul\":8821:8828   */\n      dup5\n        /* \"#utility.yul\":8817:8840   */\n      sub\n        /* \"#utility.yul\":8813:8845   */\n      slt\n        /* \"#utility.yul\":8810:8929   */\n      iszero\n      tag_311\n      jumpi\n        /* \"#utility.yul\":8848:8927   */\n      tag_312\n      tag_157\n      jump\t// in\n    tag_312:\n        /* \"#utility.yul\":8810:8929   */\n    tag_311:\n        /* \"#utility.yul\":8968:8969   */\n      0x00\n        /* \"#utility.yul\":8993:9045   */\n      tag_313\n        /* \"#utility.yul\":9037:9044   */\n      dup5\n        /* \"#utility.yul\":9028:9034   */\n      dup3\n        /* \"#utility.yul\":9017:9026   */\n      dup6\n        /* \"#utility.yul\":9013:9035   */\n      add\n        /* \"#utility.yul\":8993:9045   */\n      tag_186\n      jump\t// in\n    tag_313:\n        /* \"#utility.yul\":8983:9045   */\n      swap2\n      pop\n        /* \"#utility.yul\":8939:9055   */\n      pop\n        /* \"#utility.yul\":8735:9062   */\n      swap3\n      swap2\n      pop\n      pop\n      jump\t// out\n        /* \"#utility.yul\":9068:9183   */\n    tag_187:\n        /* \"#utility.yul\":9153:9176   */\n      tag_315\n        /* \"#utility.yul\":9170:9175   */\n      dup2\n        /* \"#utility.yul\":9153:9176   */\n      tag_184\n      jump\t// in\n    tag_315:\n        /* \"#utility.yul\":9148:9151   */\n      dup3\n        /* \"#utility.yul\":9141:9177   */\n      mstore\n        /* \"#utility.yul\":9068:9183   */\n      pop\n      pop\n      jump\t// out\n        /* \"#utility.yul\":9189:9407   */\n    tag_33:\n        /* \"#utility.yul\":9280:9284   */\n      0x00\n        /* \"#utility.yul\":9318:9320   */\n      0x20\n        /* \"#utility.yul\":9307:9316   */\n      dup3\n        /* \"#utility.yul\":9303:9321   */\n      add\n        /* \"#utility.yul\":9295:9321   */\n      swap1\n      pop\n        /* \"#utility.yul\":9331:9400   */\n      tag_317\n        /* \"#utility.yul\":9397:9398   */\n      0x00\n        /* \"#utility.yul\":9386:9395   */\n      dup4\n        /* \"#utility.yul\":9382:9399   */\n      add\n        /* \"#utility.yul\":9373:9379   */\n      dup5\n        /* \"#utility.yul\":9331:9400   */\n      tag_187\n      jump\t// in\n    tag_317:\n        /* \"#utility.yul\":9189:9407   */\n      swap3\n      swap2\n      pop\n      pop\n      jump\t// out\n        /* \"#utility.yul\":9413:9887   */\n    tag_36:\n        /* \"#utility.yul\":9481:9487   */\n      0x00\n        /* \"#utility.yul\":9489:9495   */\n      dup1\n        /* \"#utility.yul\":9538:9540   */\n      0x40\n        /* \"#utility.yul\":9526:9535   */\n      dup4\n        /* \"#utility.yul\":9517:9524   */\n      dup6\n        /* \"#utility.yul\":9513:9536   */\n      sub\n        /* \"#utility.yul\":9509:9541   */\n      slt\n        /* \"#utility.yul\":9506:9625   */\n      iszero\n      tag_319\n      jumpi\n        /* \"#utility.yul\":9544:9623   */\n      tag_320\n      tag_157\n      jump\t// in\n    tag_320:\n        /* \"#utility.yul\":9506:9625   */\n    tag_319:\n        /* \"#utility.yul\":9664:9665   */\n      0x00\n        /* \"#utility.yul\":9689:9742   */\n      tag_321\n        /* \"#utility.yul\":9734:9741   */\n      dup6\n        /* \"#utility.yul\":9725:9731   */\n      dup3\n        /* \"#utility.yul\":9714:9723   */\n      dup7\n        /* \"#utility.yul\":9710:9732   */\n      add\n        /* \"#utility.yul\":9689:9742   */\n      tag_165\n      jump\t// in\n    tag_321:\n        /* \"#utility.yul\":9679:9742   */\n      swap3\n      pop\n        /* \"#utility.yul\":9635:9752   */\n      pop\n        /* \"#utility.yul\":9791:9793   */\n      0x20\n        /* \"#utility.yul\":9817:9870   */\n      tag_322\n        /* \"#utility.yul\":9862:9869   */\n      dup6\n        /* \"#utility.yul\":9853:9859   */\n      dup3\n        /* \"#utility.yul\":9842:9851   */\n      dup7\n        /* \"#utility.yul\":9838:9860   */\n      add\n        /* \"#utility.yul\":9817:9870   */\n      tag_162\n      jump\t// in\n    tag_322:\n        /* \"#utility.yul\":9807:9870   */\n      swap2\n      pop\n        /* \"#utility.yul\":9762:9880   */\n      pop\n        /* \"#utility.yul\":9413:9887   */\n      swap3\n      pop\n      swap3\n      swap1\n      pop\n      jump\t// out\n        /* \"#utility.yul\":9893:10010   */\n    tag_188:\n        /* \"#utility.yul\":10002:10003   */\n      0x00\n        /* \"#utility.yul\":9999:10000   */\n      dup1\n        /* \"#utility.yul\":9992:10004   */\n      revert\n        /* \"#utility.yul\":10016:10133   */\n    tag_189:\n        /* \"#utility.yul\":10125:10126   */\n      0x00\n        /* \"#utility.yul\":10122:10123   */\n      dup1\n        /* \"#utility.yul\":10115:10127   */\n      revert\n        /* \"#utility.yul\":10139:10319   */\n    tag_190:\n        /* \"#utility.yul\":10187:10264   */\n      0x4e487b7100000000000000000000000000000000000000000000000000000000\n        /* \"#utility.yul\":10184:10185   */\n      0x00\n        /* \"#utility.yul\":10177:10265   */\n      mstore\n        /* \"#utility.yul\":10284:10288   */\n      0x41\n        /* \"#utility.yul\":10281:10282   */\n      0x04\n        /* \"#utility.yul\":10274:10289   */\n      mstore\n        /* \"#utility.yul\":10308:10312   */\n      0x24\n        /* \"#utility.yul\":10305:10306   */\n      0x00\n        /* \"#utility.yul\":10298:10313   */\n      revert\n        /* \"#utility.yul\":10325:10606   */\n    tag_191:\n        /* \"#utility.yul\":10408:10435   */\n      tag_327\n        /* \"#utility.yul\":10430:10434   */\n      dup3\n        /* \"#utility.yul\":10408:10435   */\n      tag_170\n      jump\t// in\n    tag_327:\n        /* \"#utility.yul\":10400:10406   */\n      dup2\n        /* \"#utility.yul\":10396:10436   */\n      add\n        /* \"#utility.yul\":10538:10544   */\n      dup2\n        /* \"#utility.yul\":10526:10536   */\n      dup2\n        /* \"#utility.yul\":10523:10545   */\n      lt\n        /* \"#utility.yul\":10502:10520   */\n      0xffffffffffffffff\n        /* \"#utility.yul\":10490:10500   */\n      dup3\n        /* \"#utility.yul\":10487:10521   */\n      gt\n        /* \"#utility.yul\":10484:10546   */\n      or\n        /* \"#utility.yul\":10481:10569   */\n      iszero\n      tag_328\n      jumpi\n        /* \"#utility.yul\":10549:10567   */\n      tag_329\n      tag_190\n      jump\t// in\n    tag_329:\n        /* \"#utility.yul\":10481:10569   */\n    tag_328:\n        /* \"#utility.yul\":10589:10599   */\n      dup1\n        /* \"#utility.yul\":10585:10587   */\n      0x40\n        /* \"#utility.yul\":10578:10600   */\n      mstore\n        /* \"#utility.yul\":10368:10606   */\n      pop\n        /* \"#utility.yul\":10325:10606   */\n      pop\n      pop\n      jump\t// out\n        /* \"#utility.yul\":10612:10741   */\n    tag_192:\n        /* \"#utility.yul\":10646:10652   */\n      0x00\n        /* \"#utility.yul\":10673:10693   */\n      tag_331\n      tag_156\n      jump\t// in\n    tag_331:\n        /* \"#utility.yul\":10663:10693   */\n      swap1\n      pop\n        /* \"#utility.yul\":10702:10735   */\n      tag_332\n        /* \"#utility.yul\":10730:10734   */\n      dup3\n        /* \"#utility.yul\":10722:10728   */\n      dup3\n        /* \"#utility.yul\":10702:10735   */\n      tag_191\n      jump\t// in\n    tag_332:\n        /* \"#utility.yul\":10612:10741   */\n      swap2\n      swap1\n      pop\n      jump\t// out\n        /* \"#utility.yul\":10747:11055   */\n    tag_193:\n        /* \"#utility.yul\":10809:10813   */\n      0x00\n        /* \"#utility.yul\":10899:10917   */\n      0xffffffffffffffff\n        /* \"#utility.yul\":10891:10897   */\n      dup3\n        /* \"#utility.yul\":10888:10918   */\n      gt\n        /* \"#utility.yul\":10885:10941   */\n      iszero\n      tag_334\n      jumpi\n        /* \"#utility.yul\":10921:10939   */\n      tag_335\n      tag_190\n      jump\t// in\n    tag_335:\n        /* \"#utility.yul\":10885:10941   */\n    tag_334:\n        /* \"#utility.yul\":10959:10988   */\n      tag_336\n        /* \"#utility.yul\":10981:10987   */\n      dup3\n        /* \"#utility.yul\":10959:10988   */\n      tag_170\n      jump\t// in\n    tag_336:\n        /* \"#utility.yul\":10951:10988   */\n      swap1\n      pop\n        /* \"#utility.yul\":11043:11047   */\n      0x20\n        /* \"#utility.yul\":11037:11041   */\n      dup2\n        /* \"#utility.yul\":11033:11048   */\n      add\n        /* \"#utility.yul\":11025:11048   */\n      swap1\n      pop\n        /* \"#utility.yul\":10747:11055   */\n      swap2\n      swap1\n      pop\n      jump\t// out\n        /* \"#utility.yul\":11061:11209   */\n    tag_194:\n        /* \"#utility.yul\":11159:11165   */\n      dup3\n        /* \"#utility.yul\":11154:11157   */\n      dup2\n        /* \"#utility.yul\":11149:11152   */\n      dup4\n        /* \"#utility.yul\":11136:11166   */\n      calldatacopy\n        /* \"#utility.yul\":11200:11201   */\n      0x00\n        /* \"#utility.yul\":11191:11197   */\n      dup4\n        /* \"#utility.yul\":11186:11189   */\n      dup4\n        /* \"#utility.yul\":11182:11198   */\n      add\n        /* \"#utility.yul\":11175:11202   */\n      mstore\n        /* \"#utility.yul\":11061:11209   */\n      pop\n      pop\n      pop\n      jump\t// out\n        /* \"#utility.yul\":11215:11640   */\n    tag_195:\n        /* \"#utility.yul\":11293:11298   */\n      0x00\n        /* \"#utility.yul\":11318:11384   */\n      tag_339\n        /* \"#utility.yul\":11334:11383   */\n      tag_340\n        /* \"#utility.yul\":11376:11382   */\n      dup5\n        /* \"#utility.yul\":11334:11383   */\n      tag_193\n      jump\t// in\n    tag_340:\n        /* \"#utility.yul\":11318:11384   */\n      tag_192\n      jump\t// in\n    tag_339:\n        /* \"#utility.yul\":11309:11384   */\n      swap1\n      pop\n        /* \"#utility.yul\":11407:11413   */\n      dup3\n        /* \"#utility.yul\":11400:11405   */\n      dup2\n        /* \"#utility.yul\":11393:11414   */\n      mstore\n        /* \"#utility.yul\":11445:11449   */\n      0x20\n        /* \"#utility.yul\":11438:11443   */\n      dup2\n        /* \"#utility.yul\":11434:11450   */\n      add\n        /* \"#utility.yul\":11483:11486   */\n      dup5\n        /* \"#utility.yul\":11474:11480   */\n      dup5\n        /* \"#utility.yul\":11469:11472   */\n      dup5\n        /* \"#utility.yul\":11465:11481   */\n      add\n        /* \"#utility.yul\":11462:11487   */\n      gt\n        /* \"#utility.yul\":11459:11571   */\n      iszero\n      tag_341\n      jumpi\n        /* \"#utility.yul\":11490:11569   */\n      tag_342\n      tag_189\n      jump\t// in\n    tag_342:\n        /* \"#utility.yul\":11459:11571   */\n    tag_341:\n        /* \"#utility.yul\":11580:11634   */\n      tag_343\n        /* \"#utility.yul\":11627:11633   */\n      dup5\n        /* \"#utility.yul\":11622:11625   */\n      dup3\n        /* \"#utility.yul\":11617:11620   */\n      dup6\n        /* \"#utility.yul\":11580:11634   */\n      tag_194\n      jump\t// in\n    tag_343:\n        /* \"#utility.yul\":11299:11640   */\n      pop\n        /* \"#utility.yul\":11215:11640   */\n      swap4\n      swap3\n      pop\n      pop\n      pop\n      jump\t// out\n        /* \"#utility.yul\":11660:12000   */\n    tag_196:\n        /* \"#utility.yul\":11716:11721   */\n      0x00\n        /* \"#utility.yul\":11765:11768   */\n      dup3\n        /* \"#utility.yul\":11758:11762   */\n      0x1f\n        /* \"#utility.yul\":11750:11756   */\n      dup4\n        /* \"#utility.yul\":11746:11763   */\n      add\n        /* \"#utility.yul\":11742:11769   */\n      slt\n        /* \"#utility.yul\":11732:11854   */\n      tag_345\n      jumpi\n        /* \"#utility.yul\":11773:11852   */\n      tag_346\n      tag_188\n      jump\t// in\n    tag_346:\n        /* \"#utility.yul\":11732:11854   */\n    tag_345:\n        /* \"#utility.yul\":11890:11896   */\n      dup2\n        /* \"#utility.yul\":11877:11897   */\n      calldataload\n        /* \"#utility.yul\":11915:11994   */\n      tag_347\n        /* \"#utility.yul\":11990:11993   */\n      dup5\n        /* \"#utility.yul\":11982:11988   */\n      dup3\n        /* \"#utility.yul\":11975:11979   */\n      0x20\n        /* \"#utility.yul\":11967:11973   */\n      dup7\n        /* \"#utility.yul\":11963:11980   */\n      add\n        /* \"#utility.yul\":11915:11994   */\n      tag_195\n      jump\t// in\n    tag_347:\n        /* \"#utility.yul\":11906:11994   */\n      swap2\n      pop\n        /* \"#utility.yul\":11722:12000   */\n      pop\n        /* \"#utility.yul\":11660:12000   */\n      swap3\n      swap2\n      pop\n      pop\n      jump\t// out\n        /* \"#utility.yul\":12006:12515   */\n    tag_40:\n        /* \"#utility.yul\":12075:12081   */\n      0x00\n        /* \"#utility.yul\":12124:12126   */\n      0x20\n        /* \"#utility.yul\":12112:12121   */\n      dup3\n        /* \"#utility.yul\":12103:12110   */\n      dup5\n        /* \"#utility.yul\":12099:12122   */\n      sub\n        /* \"#utility.yul\":12095:12127   */\n      slt\n        /* \"#utility.yul\":12092:12211   */\n      iszero\n      tag_349\n      jumpi\n        /* \"#utility.yul\":12130:12209   */\n      tag_350\n      tag_157\n      jump\t// in\n    tag_350:\n        /* \"#utility.yul\":12092:12211   */\n    tag_349:\n        /* \"#utility.yul\":12278:12279   */\n      0x00\n        /* \"#utility.yul\":12267:12276   */\n      dup3\n        /* \"#utility.yul\":12263:12280   */\n      add\n        /* \"#utility.yul\":12250:12281   */\n      calldataload\n        /* \"#utility.yul\":12308:12326   */\n      0xffffffffffffffff\n        /* \"#utility.yul\":12300:12306   */\n      dup2\n        /* \"#utility.yul\":12297:12327   */\n      gt\n        /* \"#utility.yul\":12294:12411   */\n      iszero\n      tag_351\n      jumpi\n        /* \"#utility.yul\":12330:12409   */\n      tag_352\n      tag_158\n      jump\t// in\n    tag_352:\n        /* \"#utility.yul\":12294:12411   */\n    tag_351:\n        /* \"#utility.yul\":12435:12498   */\n      tag_353\n        /* \"#utility.yul\":12490:12497   */\n      dup5\n        /* \"#utility.yul\":12481:12487   */\n      dup3\n        /* \"#utility.yul\":12470:12479   */\n      dup6\n        /* \"#utility.yul\":12466:12488   */\n      add\n        /* \"#utility.yul\":12435:12498   */\n      tag_196\n      jump\t// in\n    tag_353:\n        /* \"#utility.yul\":12425:12498   */\n      swap2\n      pop\n        /* \"#utility.yul\":12221:12508   */\n      pop\n        /* \"#utility.yul\":12006:12515   */\n      swap3\n      swap2\n      pop\n      pop\n      jump\t// out\n        /* \"#utility.yul\":12521:12743   */\n    tag_46:\n        /* \"#utility.yul\":12614:12618   */\n      0x00\n        /* \"#utility.yul\":12652:12654   */\n      0x20\n        /* \"#utility.yul\":12641:12650   */\n      dup3\n        /* \"#utility.yul\":12637:12655   */\n      add\n        /* \"#utility.yul\":12629:12655   */\n      swap1\n      pop\n        /* \"#utility.yul\":12665:12736   */\n      tag_355\n        /* \"#utility.yul\":12733:12734   */\n      0x00\n        /* \"#utility.yul\":12722:12731   */\n      dup4\n        /* \"#utility.yul\":12718:12735   */\n      add\n        /* \"#utility.yul\":12709:12715   */\n      dup5\n        /* \"#utility.yul\":12665:12736   */\n      tag_172\n      jump\t// in\n    tag_355:\n        /* \"#utility.yul\":12521:12743   */\n      swap3\n      swap2\n      pop\n      pop\n      jump\t// out\n        /* \"#utility.yul\":12749:12971   */\n    tag_50:\n        /* \"#utility.yul\":12842:12846   */\n      0x00\n        /* \"#utility.yul\":12880:12882   */\n      0x20\n        /* \"#utility.yul\":12869:12878   */\n      dup3\n        /* \"#utility.yul\":12865:12883   */\n      add\n        /* \"#utility.yul\":12857:12883   */\n      swap1\n      pop\n        /* \"#utility.yul\":12893:12964   */\n      tag_357\n        /* \"#utility.yul\":12961:12962   */\n      0x00\n        /* \"#utility.yul\":12950:12959   */\n      dup4\n        /* \"#utility.yul\":12946:12963   */\n      add\n        /* \"#utility.yul\":12937:12943   */\n      dup5\n        /* \"#utility.yul\":12893:12964   */\n      tag_166\n      jump\t// in\n    tag_357:\n        /* \"#utility.yul\":12749:12971   */\n      swap3\n      swap2\n      pop\n      pop\n      jump\t// out\n        /* \"#utility.yul\":12977:13306   */\n    tag_53:\n        /* \"#utility.yul\":13036:13042   */\n      0x00\n        /* \"#utility.yul\":13085:13087   */\n      0x20\n        /* \"#utility.yul\":13073:13082   */\n      dup3\n        /* \"#utility.yul\":13064:13071   */\n      dup5\n        /* \"#utility.yul\":13060:13083   */\n      sub\n        /* \"#utility.yul\":13056:13088   */\n      slt\n        /* \"#utility.yul\":13053:13172   */\n      iszero\n      tag_359\n      jumpi\n        /* \"#utility.yul\":13091:13170   */\n      tag_360\n      tag_157\n      jump\t// in\n    tag_360:\n        /* \"#utility.yul\":13053:13172   */\n    tag_359:\n        /* \"#utility.yul\":13211:13212   */\n      0x00\n        /* \"#utility.yul\":13236:13289   */\n      tag_361\n        /* \"#utility.yul\":13281:13288   */\n      dup5\n        /* \"#utility.yul\":13272:13278   */\n      dup3\n        /* \"#utility.yul\":13261:13270   */\n      dup6\n        /* \"#utility.yul\":13257:13279   */\n      add\n        /* \"#utility.yul\":13236:13289   */\n      tag_165\n      jump\t// in\n    tag_361:\n        /* \"#utility.yul\":13226:13289   */\n      swap2\n      pop\n        /* \"#utility.yul\":13182:13299   */\n      pop\n        /* \"#utility.yul\":12977:13306   */\n      swap3\n      swap2\n      pop\n      pop\n      jump\t// out\n        /* \"#utility.yul\":13364:14493   */\n    tag_197:\n        /* \"#utility.yul\":13475:13478   */\n      0x00\n        /* \"#utility.yul\":13511:13515   */\n      0xa0\n        /* \"#utility.yul\":13506:13509   */\n      dup4\n        /* \"#utility.yul\":13502:13516   */\n      add\n        /* \"#utility.yul\":13600:13604   */\n      0x00\n        /* \"#utility.yul\":13593:13598   */\n      dup4\n        /* \"#utility.yul\":13589:13605   */\n      add\n        /* \"#utility.yul\":13583:13606   */\n      mload\n        /* \"#utility.yul\":13619:13682   */\n      tag_363\n        /* \"#utility.yul\":13676:13680   */\n      0x00\n        /* \"#utility.yul\":13671:13674   */\n      dup7\n        /* \"#utility.yul\":13667:13681   */\n      add\n        /* \"#utility.yul\":13653:13665   */\n      dup3\n        /* \"#utility.yul\":13619:13682   */\n      tag_176\n      jump\t// in\n    tag_363:\n        /* \"#utility.yul\":13526:13692   */\n      pop\n        /* \"#utility.yul\":13777:13781   */\n      0x20\n        /* \"#utility.yul\":13770:13775   */\n      dup4\n        /* \"#utility.yul\":13766:13782   */\n      add\n        /* \"#utility.yul\":13760:13783   */\n      mload\n        /* \"#utility.yul\":13830:13833   */\n      dup5\n        /* \"#utility.yul\":13824:13828   */\n      dup3\n        /* \"#utility.yul\":13820:13834   */\n      sub\n        /* \"#utility.yul\":13813:13817   */\n      0x20\n        /* \"#utility.yul\":13808:13811   */\n      dup7\n        /* \"#utility.yul\":13804:13818   */\n      add\n        /* \"#utility.yul\":13797:13835   */\n      mstore\n        /* \"#utility.yul\":13856:13929   */\n      tag_364\n        /* \"#utility.yul\":13924:13928   */\n      dup3\n        /* \"#utility.yul\":13910:13922   */\n      dup3\n        /* \"#utility.yul\":13856:13929   */\n      tag_178\n      jump\t// in\n    tag_364:\n        /* \"#utility.yul\":13848:13929   */\n      swap2\n      pop\n        /* \"#utility.yul\":13702:13940   */\n      pop\n        /* \"#utility.yul\":14027:14031   */\n      0x40\n        /* \"#utility.yul\":14020:14025   */\n      dup4\n        /* \"#utility.yul\":14016:14032   */\n      add\n        /* \"#utility.yul\":14010:14033   */\n      mload\n        /* \"#utility.yul\":14046:14109   */\n      tag_365\n        /* \"#utility.yul\":14103:14107   */\n      0x40\n        /* \"#utility.yul\":14098:14101   */\n      dup7\n        /* \"#utility.yul\":14094:14108   */\n      add\n        /* \"#utility.yul\":14080:14092   */\n      dup3\n        /* \"#utility.yul\":14046:14109   */\n      tag_179\n      jump\t// in\n    tag_365:\n        /* \"#utility.yul\":13950:14119   */\n      pop\n        /* \"#utility.yul\":14202:14206   */\n      0x60\n        /* \"#utility.yul\":14195:14200   */\n      dup4\n        /* \"#utility.yul\":14191:14207   */\n      add\n        /* \"#utility.yul\":14185:14208   */\n      mload\n        /* \"#utility.yul\":14221:14284   */\n      tag_366\n        /* \"#utility.yul\":14278:14282   */\n      0x60\n        /* \"#utility.yul\":14273:14276   */\n      dup7\n        /* \"#utility.yul\":14269:14283   */\n      add\n        /* \"#utility.yul\":14255:14267   */\n      dup3\n        /* \"#utility.yul\":14221:14284   */\n      tag_179\n      jump\t// in\n    tag_366:\n        /* \"#utility.yul\":14129:14294   */\n      pop\n        /* \"#utility.yul\":14374:14378   */\n      0x80\n        /* \"#utility.yul\":14367:14372   */\n      dup4\n        /* \"#utility.yul\":14363:14379   */\n      add\n        /* \"#utility.yul\":14357:14380   */\n      mload\n        /* \"#utility.yul\":14393:14456   */\n      tag_367\n        /* \"#utility.yul\":14450:14454   */\n      0x80\n        /* \"#utility.yul\":14445:14448   */\n      dup7\n        /* \"#utility.yul\":14441:14455   */\n      add\n        /* \"#utility.yul\":14427:14439   */\n      dup3\n        /* \"#utility.yul\":14393:14456   */\n      tag_179\n      jump\t// in\n    tag_367:\n        /* \"#utility.yul\":14304:14466   */\n      pop\n        /* \"#utility.yul\":14483:14487   */\n      dup1\n        /* \"#utility.yul\":14476:14487   */\n      swap2\n      pop\n        /* \"#utility.yul\":13480:14493   */\n      pop\n        /* \"#utility.yul\":13364:14493   */\n      swap3\n      swap2\n      pop\n      pop\n      jump\t// out\n        /* \"#utility.yul\":14499:14856   */\n    tag_56:\n        /* \"#utility.yul\":14634:14638   */\n      0x00\n        /* \"#utility.yul\":14672:14674   */\n      0x20\n        /* \"#utility.yul\":14661:14670   */\n      dup3\n        /* \"#utility.yul\":14657:14675   */\n      add\n        /* \"#utility.yul\":14649:14675   */\n      swap1\n      pop\n        /* \"#utility.yul\":14721:14730   */\n      dup2\n        /* \"#utility.yul\":14715:14719   */\n      dup2\n        /* \"#utility.yul\":14711:14731   */\n      sub\n        /* \"#utility.yul\":14707:14708   */\n      0x00\n        /* \"#utility.yul\":14696:14705   */\n      dup4\n        /* \"#utility.yul\":14692:14709   */\n      add\n        /* \"#utility.yul\":14685:14732   */\n      mstore\n        /* \"#utility.yul\":14749:14849   */\n      tag_369\n        /* \"#utility.yul\":14844:14848   */\n      dup2\n        /* \"#utility.yul\":14835:14841   */\n      dup5\n        /* \"#utility.yul\":14749:14849   */\n      tag_197\n      jump\t// in\n    tag_369:\n        /* \"#utility.yul\":14741:14849   */\n      swap1\n      pop\n        /* \"#utility.yul\":14499:14856   */\n      swap3\n      swap2\n      pop\n      pop\n      jump\t// out\n        /* \"#utility.yul\":14862:15042   */\n    tag_198:\n        /* \"#utility.yul\":14910:14987   */\n      0x4e487b7100000000000000000000000000000000000000000000000000000000\n        /* \"#utility.yul\":14907:14908   */\n      0x00\n        /* \"#utility.yul\":14900:14988   */\n      mstore\n        /* \"#utility.yul\":15007:15011   */\n      0x22\n        /* \"#utility.yul\":15004:15005   */\n      0x04\n        /* \"#utility.yul\":14997:15012   */\n      mstore\n        /* \"#utility.yul\":15031:15035   */\n      0x24\n        /* \"#utility.yul\":15028:15029   */\n      0x00\n        /* \"#utility.yul\":15021:15036   */\n      revert\n        /* \"#utility.yul\":15048:15368   */\n    tag_63:\n        /* \"#utility.yul\":15092:15098   */\n      0x00\n        /* \"#utility.yul\":15129:15130   */\n      0x02\n        /* \"#utility.yul\":15123:15127   */\n      dup3\n        /* \"#utility.yul\":15119:15131   */\n      div\n        /* \"#utility.yul\":15109:15131   */\n      swap1\n      pop\n        /* \"#utility.yul\":15176:15177   */\n      0x01\n        /* \"#utility.yul\":15170:15174   */\n      dup3\n        /* \"#utility.yul\":15166:15178   */\n      and\n        /* \"#utility.yul\":15197:15215   */\n      dup1\n        /* \"#utility.yul\":15187:15268   */\n      tag_372\n      jumpi\n        /* \"#utility.yul\":15253:15257   */\n      0x7f\n        /* \"#utility.yul\":15245:15251   */\n      dup3\n        /* \"#utility.yul\":15241:15258   */\n      and\n        /* \"#utility.yul\":15231:15258   */\n      swap2\n      pop\n        /* \"#utility.yul\":15187:15268   */\n    tag_372:\n        /* \"#utility.yul\":15315:15317   */\n      0x20\n        /* \"#utility.yul\":15307:15313   */\n      dup3\n        /* \"#utility.yul\":15304:15318   */\n      lt\n        /* \"#utility.yul\":15284:15302   */\n      dup2\n        /* \"#utility.yul\":15281:15319   */\n      sub\n        /* \"#utility.yul\":15278:15362   */\n      tag_373\n      jumpi\n        /* \"#utility.yul\":15334:15352   */\n      tag_374\n      tag_198\n      jump\t// in\n    tag_374:\n        /* \"#utility.yul\":15278:15362   */\n    tag_373:\n        /* \"#utility.yul\":15099:15368   */\n      pop\n        /* \"#utility.yul\":15048:15368   */\n      swap2\n      swap1\n      pop\n      jump\t// out\n        /* \"#utility.yul\":15374:15537   */\n    tag_199:\n        /* \"#utility.yul\":15514:15529   */\n      0x4e6f7420746865206f776e657200000000000000000000000000000000000000\n        /* \"#utility.yul\":15510:15511   */\n      0x00\n        /* \"#utility.yul\":15502:15508   */\n      dup3\n        /* \"#utility.yul\":15498:15512   */\n      add\n        /* \"#utility.yul\":15491:15530   */\n      mstore\n        /* \"#utility.yul\":15374:15537   */\n      pop\n      jump\t// out\n        /* \"#utility.yul\":15543:15909   */\n    tag_200:\n        /* \"#utility.yul\":15685:15688   */\n      0x00\n        /* \"#utility.yul\":15706:15773   */\n      tag_377\n        /* \"#utility.yul\":15770:15772   */\n      0x0d\n        /* \"#utility.yul\":15765:15768   */\n      dup4\n        /* \"#utility.yul\":15706:15773   */\n      tag_168\n      jump\t// in\n    tag_377:\n        /* \"#utility.yul\":15699:15773   */\n      swap2\n      pop\n        /* \"#utility.yul\":15782:15875   */\n      tag_378\n        /* \"#utility.yul\":15871:15874   */\n      dup3\n        /* \"#utility.yul\":15782:15875   */\n      tag_199\n      jump\t// in\n    tag_378:\n        /* \"#utility.yul\":15900:15902   */\n      0x20\n        /* \"#utility.yul\":15895:15898   */\n      dup3\n        /* \"#utility.yul\":15891:15903   */\n      add\n        /* \"#utility.yul\":15884:15903   */\n      swap1\n      pop\n        /* \"#utility.yul\":15543:15909   */\n      swap2\n      swap1\n      pop\n      jump\t// out\n        /* \"#utility.yul\":15915:16334   */\n    tag_80:\n        /* \"#utility.yul\":16081:16085   */\n      0x00\n        /* \"#utility.yul\":16119:16121   */\n      0x20\n        /* \"#utility.yul\":16108:16117   */\n      dup3\n        /* \"#utility.yul\":16104:16122   */\n      add\n        /* \"#utility.yul\":16096:16122   */\n      swap1\n      pop\n        /* \"#utility.yul\":16168:16177   */\n      dup2\n        /* \"#utility.yul\":16162:16166   */\n      dup2\n        /* \"#utility.yul\":16158:16178   */\n      sub\n        /* \"#utility.yul\":16154:16155   */\n      0x00\n        /* \"#utility.yul\":16143:16152   */\n      dup4\n        /* \"#utility.yul\":16139:16156   */\n      add\n        /* \"#utility.yul\":16132:16179   */\n      mstore\n        /* \"#utility.yul\":16196:16327   */\n      tag_380\n        /* \"#utility.yul\":16322:16326   */\n      dup2\n        /* \"#utility.yul\":16196:16327   */\n      tag_200\n      jump\t// in\n    tag_380:\n        /* \"#utility.yul\":16188:16327   */\n      swap1\n      pop\n        /* \"#utility.yul\":15915:16334   */\n      swap2\n      swap1\n      pop\n      jump\t// out\n        /* \"#utility.yul\":16340:16520   */\n    tag_85:\n        /* \"#utility.yul\":16388:16465   */\n      0x4e487b7100000000000000000000000000000000000000000000000000000000\n        /* \"#utility.yul\":16385:16386   */\n      0x00\n        /* \"#utility.yul\":16378:16466   */\n      mstore\n        /* \"#utility.yul\":16485:16489   */\n      0x32\n        /* \"#utility.yul\":16482:16483   */\n      0x04\n        /* \"#utility.yul\":16475:16490   */\n      mstore\n        /* \"#utility.yul\":16509:16513   */\n      0x24\n        /* \"#utility.yul\":16506:16507   */\n      0x00\n        /* \"#utility.yul\":16499:16514   */\n      revert\n        /* \"#utility.yul\":16526:16697   */\n    tag_201:\n        /* \"#utility.yul\":16666:16689   */\n      0x4e6965206d612074616b6965676f207477656574750000000000000000000000\n        /* \"#utility.yul\":16662:16663   */\n      0x00\n        /* \"#utility.yul\":16654:16660   */\n      dup3\n        /* \"#utility.yul\":16650:16664   */\n      add\n        /* \"#utility.yul\":16643:16690   */\n      mstore\n        /* \"#utility.yul\":16526:16697   */\n      pop\n      jump\t// out\n        /* \"#utility.yul\":16703:17069   */\n    tag_202:\n        /* \"#utility.yul\":16845:16848   */\n      0x00\n        /* \"#utility.yul\":16866:16933   */\n      tag_384\n        /* \"#utility.yul\":16930:16932   */\n      0x15\n        /* \"#utility.yul\":16925:16928   */\n      dup4\n        /* \"#utility.yul\":16866:16933   */\n      tag_168\n      jump\t// in\n    tag_384:\n        /* \"#utility.yul\":16859:16933   */\n      swap2\n      pop\n        /* \"#utility.yul\":16942:17035   */\n      tag_385\n        /* \"#utility.yul\":17031:17034   */\n      dup3\n        /* \"#utility.yul\":16942:17035   */\n      tag_201\n      jump\t// in\n    tag_385:\n        /* \"#utility.yul\":17060:17062   */\n      0x20\n        /* \"#utility.yul\":17055:17058   */\n      dup3\n        /* \"#utility.yul\":17051:17063   */\n      add\n        /* \"#utility.yul\":17044:17063   */\n      swap1\n      pop\n        /* \"#utility.yul\":16703:17069   */\n      swap2\n      swap1\n      pop\n      jump\t// out\n        /* \"#utility.yul\":17075:17494   */\n    tag_89:\n        /* \"#utility.yul\":17241:17245   */\n      0x00\n        /* \"#utility.yul\":17279:17281   */\n      0x20\n        /* \"#utility.yul\":17268:17277   */\n      dup3\n        /* \"#utility.yul\":17264:17282   */\n      add\n        /* \"#utility.yul\":17256:17282   */\n      swap1\n      pop\n        /* \"#utility.yul\":17328:17337   */\n      dup2\n        /* \"#utility.yul\":17322:17326   */\n      dup2\n        /* \"#utility.yul\":17318:17338   */\n      sub\n        /* \"#utility.yul\":17314:17315   */\n      0x00\n        /* \"#utility.yul\":17303:17312   */\n      dup4\n        /* \"#utility.yul\":17299:17316   */\n      add\n        /* \"#utility.yul\":17292:17339   */\n      mstore\n        /* \"#utility.yul\":17356:17487   */\n      tag_387\n        /* \"#utility.yul\":17482:17486   */\n      dup2\n        /* \"#utility.yul\":17356:17487   */\n      tag_202\n      jump\t// in\n    tag_387:\n        /* \"#utility.yul\":17348:17487   */\n      swap1\n      pop\n        /* \"#utility.yul\":17075:17494   */\n      swap2\n      swap1\n      pop\n      jump\t// out\n        /* \"#utility.yul\":17500:17672   */\n    tag_203:\n        /* \"#utility.yul\":17640:17664   */\n      0x4e6965206d6f7a65737a207573756e6163206c696b6500000000000000000000\n        /* \"#utility.yul\":17636:17637   */\n      0x00\n        /* \"#utility.yul\":17628:17634   */\n      dup3\n        /* \"#utility.yul\":17624:17638   */\n      add\n        /* \"#utility.yul\":17617:17665   */\n      mstore\n        /* \"#utility.yul\":17500:17672   */\n      pop\n      jump\t// out\n        /* \"#utility.yul\":17678:18044   */\n    tag_204:\n        /* \"#utility.yul\":17820:17823   */\n      0x00\n        /* \"#utility.yul\":17841:17908   */\n      tag_390\n        /* \"#utility.yul\":17905:17907   */\n      0x16\n        /* \"#utility.yul\":17900:17903   */\n      dup4\n        /* \"#utility.yul\":17841:17908   */\n      tag_168\n      jump\t// in\n    tag_390:\n        /* \"#utility.yul\":17834:17908   */\n      swap2\n      pop\n        /* \"#utility.yul\":17917:18010   */\n      tag_391\n        /* \"#utility.yul\":18006:18009   */\n      dup3\n        /* \"#utility.yul\":17917:18010   */\n      tag_203\n      jump\t// in\n    tag_391:\n        /* \"#utility.yul\":18035:18037   */\n      0x20\n        /* \"#utility.yul\":18030:18033   */\n      dup3\n        /* \"#utility.yul\":18026:18038   */\n      add\n        /* \"#utility.yul\":18019:18038   */\n      swap1\n      pop\n        /* \"#utility.yul\":17678:18044   */\n      swap2\n      swap1\n      pop\n      jump\t// out\n        /* \"#utility.yul\":18050:18469   */\n    tag_95:\n        /* \"#utility.yul\":18216:18220   */\n      0x00\n        /* \"#utility.yul\":18254:18256   */\n      0x20\n        /* \"#utility.yul\":18243:18252   */\n      dup3\n        /* \"#utility.yul\":18239:18257   */\n      add\n        /* \"#utility.yul\":18231:18257   */\n      swap1\n      pop\n        /* \"#utility.yul\":18303:18312   */\n      dup2\n        /* \"#utility.yul\":18297:18301   */\n      dup2\n        /* \"#utility.yul\":18293:18313   */\n      sub\n        /* \"#utility.yul\":18289:18290   */\n      0x00\n        /* \"#utility.yul\":18278:18287   */\n      dup4\n        /* \"#utility.yul\":18274:18291   */\n      add\n        /* \"#utility.yul\":18267:18314   */\n      mstore\n        /* \"#utility.yul\":18331:18462   */\n      tag_393\n        /* \"#utility.yul\":18457:18461   */\n      dup2\n        /* \"#utility.yul\":18331:18462   */\n      tag_204\n      jump\t// in\n    tag_393:\n        /* \"#utility.yul\":18323:18462   */\n      swap1\n      pop\n        /* \"#utility.yul\":18050:18469   */\n      swap2\n      swap1\n      pop\n      jump\t// out\n        /* \"#utility.yul\":18475:18655   */\n    tag_205:\n        /* \"#utility.yul\":18523:18600   */\n      0x4e487b7100000000000000000000000000000000000000000000000000000000\n        /* \"#utility.yul\":18520:18521   */\n      0x00\n        /* \"#utility.yul\":18513:18601   */\n      mstore\n        /* \"#utility.yul\":18620:18624   */\n      0x11\n        /* \"#utility.yul\":18617:18618   */\n      0x04\n        /* \"#utility.yul\":18610:18625   */\n      mstore\n        /* \"#utility.yul\":18644:18648   */\n      0x24\n        /* \"#utility.yul\":18641:18642   */\n      0x00\n        /* \"#utility.yul\":18634:18649   */\n      revert\n        /* \"#utility.yul\":18661:18832   */\n    tag_100:\n        /* \"#utility.yul\":18700:18703   */\n      0x00\n        /* \"#utility.yul\":18723:18747   */\n      tag_396\n        /* \"#utility.yul\":18741:18746   */\n      dup3\n        /* \"#utility.yul\":18723:18747   */\n      tag_163\n      jump\t// in\n    tag_396:\n        /* \"#utility.yul\":18714:18747   */\n      swap2\n      pop\n        /* \"#utility.yul\":18769:18773   */\n      0x00\n        /* \"#utility.yul\":18762:18767   */\n      dup3\n        /* \"#utility.yul\":18759:18774   */\n      sub\n        /* \"#utility.yul\":18756:18797   */\n      tag_397\n      jumpi\n        /* \"#utility.yul\":18777:18795   */\n      tag_398\n      tag_205\n      jump\t// in\n    tag_398:\n        /* \"#utility.yul\":18756:18797   */\n    tag_397:\n        /* \"#utility.yul\":18824:18825   */\n      0x01\n        /* \"#utility.yul\":18817:18822   */\n      dup3\n        /* \"#utility.yul\":18813:18826   */\n      sub\n        /* \"#utility.yul\":18806:18826   */\n      swap1\n      pop\n        /* \"#utility.yul\":18661:18832   */\n      swap2\n      swap1\n      pop\n      jump\t// out\n        /* \"#utility.yul\":18838:19391   */\n    tag_105:\n        /* \"#utility.yul\":19015:19019   */\n      0x00\n        /* \"#utility.yul\":19053:19056   */\n      0x80\n        /* \"#utility.yul\":19042:19051   */\n      dup3\n        /* \"#utility.yul\":19038:19057   */\n      add\n        /* \"#utility.yul\":19030:19057   */\n      swap1\n      pop\n        /* \"#utility.yul\":19067:19138   */\n      tag_400\n        /* \"#utility.yul\":19135:19136   */\n      0x00\n        /* \"#utility.yul\":19124:19133   */\n      dup4\n        /* \"#utility.yul\":19120:19137   */\n      add\n        /* \"#utility.yul\":19111:19117   */\n      dup8\n        /* \"#utility.yul\":19067:19138   */\n      tag_166\n      jump\t// in\n    tag_400:\n        /* \"#utility.yul\":19148:19220   */\n      tag_401\n        /* \"#utility.yul\":19216:19218   */\n      0x20\n        /* \"#utility.yul\":19205:19214   */\n      dup4\n        /* \"#utility.yul\":19201:19219   */\n      add\n        /* \"#utility.yul\":19192:19198   */\n      dup7\n        /* \"#utility.yul\":19148:19220   */\n      tag_166\n      jump\t// in\n    tag_401:\n        /* \"#utility.yul\":19230:19302   */\n      tag_402\n        /* \"#utility.yul\":19298:19300   */\n      0x40\n        /* \"#utility.yul\":19287:19296   */\n      dup4\n        /* \"#utility.yul\":19283:19301   */\n      add\n        /* \"#utility.yul\":19274:19280   */\n      dup6\n        /* \"#utility.yul\":19230:19302   */\n      tag_172\n      jump\t// in\n    tag_402:\n        /* \"#utility.yul\":19312:19384   */\n      tag_403\n        /* \"#utility.yul\":19380:19382   */\n      0x60\n        /* \"#utility.yul\":19369:19378   */\n      dup4\n        /* \"#utility.yul\":19365:19383   */\n      add\n        /* \"#utility.yul\":19356:19362   */\n      dup5\n        /* \"#utility.yul\":19312:19384   */\n      tag_172\n      jump\t// in\n    tag_403:\n        /* \"#utility.yul\":18838:19391   */\n      swap6\n      swap5\n      pop\n      pop\n      pop\n      pop\n      pop\n      jump\t// out\n        /* \"#utility.yul\":19397:19562   */\n    tag_206:\n        /* \"#utility.yul\":19537:19554   */\n      0x4d65737361676520746f206c6f6e670000000000000000000000000000000000\n        /* \"#utility.yul\":19533:19534   */\n      0x00\n        /* \"#utility.yul\":19525:19531   */\n      dup3\n        /* \"#utility.yul\":19521:19535   */\n      add\n        /* \"#utility.yul\":19514:19555   */\n      mstore\n        /* \"#utility.yul\":19397:19562   */\n      pop\n      jump\t// out\n        /* \"#utility.yul\":19568:19934   */\n    tag_207:\n        /* \"#utility.yul\":19710:19713   */\n      0x00\n        /* \"#utility.yul\":19731:19798   */\n      tag_406\n        /* \"#utility.yul\":19795:19797   */\n      0x0f\n        /* \"#utility.yul\":19790:19793   */\n      dup4\n        /* \"#utility.yul\":19731:19798   */\n      tag_168\n      jump\t// in\n    tag_406:\n        /* \"#utility.yul\":19724:19798   */\n      swap2\n      pop\n        /* \"#utility.yul\":19807:19900   */\n      tag_407\n        /* \"#utility.yul\":19896:19899   */\n      dup3\n        /* \"#utility.yul\":19807:19900   */\n      tag_206\n      jump\t// in\n    tag_407:\n        /* \"#utility.yul\":19925:19927   */\n      0x20\n        /* \"#utility.yul\":19920:19923   */\n      dup3\n        /* \"#utility.yul\":19916:19928   */\n      add\n        /* \"#utility.yul\":19909:19928   */\n      swap1\n      pop\n        /* \"#utility.yul\":19568:19934   */\n      swap2\n      swap1\n      pop\n      jump\t// out\n        /* \"#utility.yul\":19940:20359   */\n    tag_109:\n        /* \"#utility.yul\":20106:20110   */\n      0x00\n        /* \"#utility.yul\":20144:20146   */\n      0x20\n        /* \"#utility.yul\":20133:20142   */\n      dup3\n        /* \"#utility.yul\":20129:20147   */\n      add\n        /* \"#utility.yul\":20121:20147   */\n      swap1\n      pop\n        /* \"#utility.yul\":20193:20202   */\n      dup2\n        /* \"#utility.yul\":20187:20191   */\n      dup2\n        /* \"#utility.yul\":20183:20203   */\n      sub\n        /* \"#utility.yul\":20179:20180   */\n      0x00\n        /* \"#utility.yul\":20168:20177   */\n      dup4\n        /* \"#utility.yul\":20164:20181   */\n      add\n        /* \"#utility.yul\":20157:20204   */\n      mstore\n        /* \"#utility.yul\":20221:20352   */\n      tag_409\n        /* \"#utility.yul\":20347:20351   */\n      dup2\n        /* \"#utility.yul\":20221:20352   */\n      tag_207\n      jump\t// in\n    tag_409:\n        /* \"#utility.yul\":20213:20352   */\n      swap1\n      pop\n        /* \"#utility.yul\":19940:20359   */\n      swap2\n      swap1\n      pop\n      jump\t// out\n        /* \"#utility.yul\":20365:20506   */\n    tag_208:\n        /* \"#utility.yul\":20414:20418   */\n      0x00\n        /* \"#utility.yul\":20437:20440   */\n      dup2\n        /* \"#utility.yul\":20429:20440   */\n      swap1\n      pop\n        /* \"#utility.yul\":20460:20463   */\n      dup2\n        /* \"#utility.yul\":20457:20458   */\n      0x00\n        /* \"#utility.yul\":20450:20464   */\n      mstore\n        /* \"#utility.yul\":20494:20498   */\n      0x20\n        /* \"#utility.yul\":20491:20492   */\n      0x00\n        /* \"#utility.yul\":20481:20499   */\n      keccak256\n        /* \"#utility.yul\":20473:20499   */\n      swap1\n      pop\n        /* \"#utility.yul\":20365:20506   */\n      swap2\n      swap1\n      pop\n      jump\t// out\n        /* \"#utility.yul\":20512:20605   */\n    tag_209:\n        /* \"#utility.yul\":20549:20555   */\n      0x00\n        /* \"#utility.yul\":20596:20598   */\n      0x20\n        /* \"#utility.yul\":20591:20593   */\n      0x1f\n        /* \"#utility.yul\":20584:20589   */\n      dup4\n        /* \"#utility.yul\":20580:20594   */\n      add\n        /* \"#utility.yul\":20576:20599   */\n      div\n        /* \"#utility.yul\":20566:20599   */\n      swap1\n      pop\n        /* \"#utility.yul\":20512:20605   */\n      swap2\n      swap1\n      pop\n      jump\t// out\n        /* \"#utility.yul\":20611:20718   */\n    tag_210:\n        /* \"#utility.yul\":20655:20663   */\n      0x00\n        /* \"#utility.yul\":20705:20710   */\n      dup3\n        /* \"#utility.yul\":20699:20703   */\n      dup3\n        /* \"#utility.yul\":20695:20711   */\n      shl\n        /* \"#utility.yul\":20674:20711   */\n      swap1\n      pop\n        /* \"#utility.yul\":20611:20718   */\n      swap3\n      swap2\n      pop\n      pop\n      jump\t// out\n        /* \"#utility.yul\":20724:21117   */\n    tag_211:\n        /* \"#utility.yul\":20793:20799   */\n      0x00\n        /* \"#utility.yul\":20843:20844   */\n      0x08\n        /* \"#utility.yul\":20831:20841   */\n      dup4\n        /* \"#utility.yul\":20827:20845   */\n      mul\n        /* \"#utility.yul\":20866:20963   */\n      tag_414\n        /* \"#utility.yul\":20896:20962   */\n      0xffffffffffffffffffffffffffffffffffffffffffffffffffffffffffffffff\n        /* \"#utility.yul\":20885:20894   */\n      dup3\n        /* \"#utility.yul\":20866:20963   */\n      tag_210\n      jump\t// in\n    tag_414:\n        /* \"#utility.yul\":20984:21023   */\n      tag_415\n        /* \"#utility.yul\":21014:21022   */\n      dup7\n        /* \"#utility.yul\":21003:21012   */\n      dup4\n        /* \"#utility.yul\":20984:21023   */\n      tag_210\n      jump\t// in\n    tag_415:\n        /* \"#utility.yul\":20972:21023   */\n      swap6\n      pop\n        /* \"#utility.yul\":21056:21060   */\n      dup1\n        /* \"#utility.yul\":21052:21061   */\n      not\n        /* \"#utility.yul\":21045:21050   */\n      dup5\n        /* \"#utility.yul\":21041:21062   */\n      and\n        /* \"#utility.yul\":21032:21062   */\n      swap4\n      pop\n        /* \"#utility.yul\":21105:21109   */\n      dup1\n        /* \"#utility.yul\":21095:21103   */\n      dup7\n        /* \"#utility.yul\":21091:21110   */\n      and\n        /* \"#utility.yul\":21084:21089   */\n      dup5\n        /* \"#utility.yul\":21081:21111   */\n      or\n        /* \"#utility.yul\":21071:21111   */\n      swap3\n      pop\n        /* \"#utility.yul\":20800:21117   */\n      pop\n      pop\n        /* \"#utility.yul\":20724:21117   */\n      swap4\n      swap3\n      pop\n      pop\n      pop\n      jump\t// out\n        /* \"#utility.yul\":21123:21183   */\n    tag_212:\n        /* \"#utility.yul\":21151:21154   */\n      0x00\n        /* \"#utility.yul\":21172:21177   */\n      dup2\n        /* \"#utility.yul\":21165:21177   */\n      swap1\n      pop\n        /* \"#utility.yul\":21123:21183   */\n      swap2\n      swap1\n      pop\n      jump\t// out\n        /* \"#utility.yul\":21189:21331   */\n    tag_213:\n        /* \"#utility.yul\":21239:21248   */\n      0x00\n        /* \"#utility.yul\":21272:21325   */\n      tag_418\n        /* \"#utility.yul\":21290:21324   */\n      tag_419\n        /* \"#utility.yul\":21299:21323   */\n      tag_420\n        /* \"#utility.yul\":21317:21322   */\n      dup5\n        /* \"#utility.yul\":21299:21323   */\n      tag_163\n      jump\t// in\n    tag_420:\n        /* \"#utility.yul\":21290:21324   */\n      tag_212\n      jump\t// in\n    tag_419:\n        /* \"#utility.yul\":21272:21325   */\n      tag_163\n      jump\t// in\n    tag_418:\n        /* \"#utility.yul\":21259:21325   */\n      swap1\n      pop\n        /* \"#utility.yul\":21189:21331   */\n      swap2\n      swap1\n      pop\n      jump\t// out\n        /* \"#utility.yul\":21337:21412   */\n    tag_214:\n        /* \"#utility.yul\":21380:21383   */\n      0x00\n        /* \"#utility.yul\":21401:21406   */\n      dup2\n        /* \"#utility.yul\":21394:21406   */\n      swap1\n      pop\n        /* \"#utility.yul\":21337:21412   */\n      swap2\n      swap1\n      pop\n      jump\t// out\n        /* \"#utility.yul\":21418:21687   */\n    tag_215:\n        /* \"#utility.yul\":21528:21567   */\n      tag_423\n        /* \"#utility.yul\":21559:21566   */\n      dup4\n        /* \"#utility.yul\":21528:21567   */\n      tag_213\n      jump\t// in\n    tag_423:\n        /* \"#utility.yul\":21589:21680   */\n      tag_424\n        /* \"#utility.yul\":21638:21679   */\n      tag_425\n        /* \"#utility.yul\":21662:21678   */\n      dup3\n        /* \"#utility.yul\":21638:21679   */\n      tag_214\n      jump\t// in\n    tag_425:\n        /* \"#utility.yul\":21630:21636   */\n      dup5\n        /* \"#utility.yul\":21623:21627   */\n      dup5\n        /* \"#utility.yul\":21617:21628   */\n      sload\n        /* \"#utility.yul\":21589:21680   */\n      tag_211\n      jump\t// in\n    tag_424:\n        /* \"#utility.yul\":21583:21587   */\n      dup3\n        /* \"#utility.yul\":21576:21681   */\n      sstore\n        /* \"#utility.yul\":21494:21687   */\n      pop\n        /* \"#utility.yul\":21418:21687   */\n      pop\n      pop\n      pop\n      jump\t// out\n        /* \"#utility.yul\":21693:21766   */\n    tag_216:\n        /* \"#utility.yul\":21738:21741   */\n      0x00\n        /* \"#utility.yul\":21693:21766   */\n      swap1\n      jump\t// out\n        /* \"#utility.yul\":21772:21961   */\n    tag_217:\n        /* \"#utility.yul\":21849:21881   */\n      tag_428\n      tag_216\n      jump\t// in\n    tag_428:\n        /* \"#utility.yul\":21890:21955   */\n      tag_429\n        /* \"#utility.yul\":21948:21954   */\n      dup2\n        /* \"#utility.yul\":21940:21946   */\n      dup5\n        /* \"#utility.yul\":21934:21938   */\n      dup5\n        /* \"#utility.yul\":21890:21955   */\n      tag_215\n      jump\t// in\n    tag_429:\n        /* \"#utility.yul\":21825:21961   */\n      pop\n        /* \"#utility.yul\":21772:21961   */\n      pop\n      pop\n      jump\t// out\n        /* \"#utility.yul\":21967:22153   */\n    tag_218:\n        /* \"#utility.yul\":22027:22147   */\n    tag_431:\n        /* \"#utility.yul\":22044:22047   */\n      dup2\n        /* \"#utility.yul\":22037:22042   */\n      dup2\n        /* \"#utility.yul\":22034:22048   */\n      lt\n        /* \"#utility.yul\":22027:22147   */\n      iszero\n      tag_433\n      jumpi\n        /* \"#utility.yul\":22098:22137   */\n      tag_434\n        /* \"#utility.yul\":22135:22136   */\n      0x00\n        /* \"#utility.yul\":22128:22133   */\n      dup3\n        /* \"#utility.yul\":22098:22137   */\n      tag_217\n      jump\t// in\n    tag_434:\n        /* \"#utility.yul\":22071:22072   */\n      0x01\n        /* \"#utility.yul\":22064:22069   */\n      dup2\n        /* \"#utility.yul\":22060:22073   */\n      add\n        /* \"#utility.yul\":22051:22073   */\n      swap1\n      pop\n        /* \"#utility.yul\":22027:22147   */\n      jump(tag_431)\n    tag_433:\n        /* \"#utility.yul\":21967:22153   */\n      pop\n      pop\n      jump\t// out\n        /* \"#utility.yul\":22159:22702   */\n    tag_219:\n        /* \"#utility.yul\":22260:22262   */\n      0x1f\n        /* \"#utility.yul\":22255:22258   */\n      dup3\n        /* \"#utility.yul\":22252:22263   */\n      gt\n        /* \"#utility.yul\":22249:22695   */\n      iszero\n      tag_436\n      jumpi\n        /* \"#utility.yul\":22294:22332   */\n      tag_437\n        /* \"#utility.yul\":22326:22331   */\n      dup2\n        /* \"#utility.yul\":22294:22332   */\n      tag_208\n      jump\t// in\n    tag_437:\n        /* \"#utility.yul\":22378:22407   */\n      tag_438\n        /* \"#utility.yul\":22396:22406   */\n      dup5\n        /* \"#utility.yul\":22378:22407   */\n      tag_209\n      jump\t// in\n    tag_438:\n        /* \"#utility.yul\":22368:22376   */\n      dup2\n        /* \"#utility.yul\":22364:22408   */\n      add\n        /* \"#utility.yul\":22561:22563   */\n      0x20\n        /* \"#utility.yul\":22549:22559   */\n      dup6\n        /* \"#utility.yul\":22546:22564   */\n      lt\n        /* \"#utility.yul\":22543:22592   */\n      iszero\n      tag_439\n      jumpi\n        /* \"#utility.yul\":22582:22590   */\n      dup2\n        /* \"#utility.yul\":22567:22590   */\n      swap1\n      pop\n        /* \"#utility.yul\":22543:22592   */\n    tag_439:\n        /* \"#utility.yul\":22605:22685   */\n      tag_440\n        /* \"#utility.yul\":22661:22683   */\n      tag_441\n        /* \"#utility.yul\":22679:22682   */\n      dup6\n        /* \"#utility.yul\":22661:22683   */\n      tag_209\n      jump\t// in\n    tag_441:\n        /* \"#utility.yul\":22651:22659   */\n      dup4\n        /* \"#utility.yul\":22647:22684   */\n      add\n        /* \"#utility.yul\":22634:22645   */\n      dup3\n        /* \"#utility.yul\":22605:22685   */\n      tag_218\n      jump\t// in\n    tag_440:\n        /* \"#utility.yul\":22264:22695   */\n      pop\n      pop\n        /* \"#utility.yul\":22249:22695   */\n    tag_436:\n        /* \"#utility.yul\":22159:22702   */\n      pop\n      pop\n      pop\n      jump\t// out\n        /* \"#utility.yul\":22708:22825   */\n    tag_220:\n        /* \"#utility.yul\":22762:22770   */\n      0x00\n        /* \"#utility.yul\":22812:22817   */\n      dup3\n        /* \"#utility.yul\":22806:22810   */\n      dup3\n        /* \"#utility.yul\":22802:22818   */\n      shr\n        /* \"#utility.yul\":22781:22818   */\n      swap1\n      pop\n        /* \"#utility.yul\":22708:22825   */\n      swap3\n      swap2\n      pop\n      pop\n      jump\t// out\n        /* \"#utility.yul\":22831:23000   */\n    tag_221:\n        /* \"#utility.yul\":22875:22881   */\n      0x00\n        /* \"#utility.yul\":22908:22959   */\n      tag_444\n        /* \"#utility.yul\":22956:22957   */\n      0x00\n        /* \"#utility.yul\":22952:22958   */\n      not\n        /* \"#utility.yul\":22944:22949   */\n      dup5\n        /* \"#utility.yul\":22941:22942   */\n      0x08\n        /* \"#utility.yul\":22937:22950   */\n      mul\n        /* \"#utility.yul\":22908:22959   */\n      tag_220\n      jump\t// in\n    tag_444:\n        /* \"#utility.yul\":22904:22960   */\n      not\n        /* \"#utility.yul\":22989:22993   */\n      dup1\n        /* \"#utility.yul\":22983:22987   */\n      dup4\n        /* \"#utility.yul\":22979:22994   */\n      and\n        /* \"#utility.yul\":22969:22994   */\n      swap2\n      pop\n        /* \"#utility.yul\":22882:23000   */\n      pop\n        /* \"#utility.yul\":22831:23000   */\n      swap3\n      swap2\n      pop\n      pop\n      jump\t// out\n        /* \"#utility.yul\":23005:23300   */\n    tag_222:\n        /* \"#utility.yul\":23081:23085   */\n      0x00\n        /* \"#utility.yul\":23227:23256   */\n      tag_446\n        /* \"#utility.yul\":23252:23255   */\n      dup4\n        /* \"#utility.yul\":23246:23250   */\n      dup4\n        /* \"#utility.yul\":23227:23256   */\n      tag_221\n      jump\t// in\n    tag_446:\n        /* \"#utility.yul\":23219:23256   */\n      swap2\n      pop\n        /* \"#utility.yul\":23289:23292   */\n      dup3\n        /* \"#utility.yul\":23286:23287   */\n      0x02\n        /* \"#utility.yul\":23282:23293   */\n      mul\n        /* \"#utility.yul\":23276:23280   */\n      dup3\n        /* \"#utility.yul\":23273:23294   */\n      or\n        /* \"#utility.yul\":23265:23294   */\n      swap1\n      pop\n        /* \"#utility.yul\":23005:23300   */\n      swap3\n      swap2\n      pop\n      pop\n      jump\t// out\n        /* \"#utility.yul\":23305:24700   */\n    tag_112:\n        /* \"#utility.yul\":23422:23459   */\n      tag_448\n        /* \"#utility.yul\":23455:23458   */\n      dup3\n        /* \"#utility.yul\":23422:23459   */\n      tag_167\n      jump\t// in\n    tag_448:\n        /* \"#utility.yul\":23524:23542   */\n      0xffffffffffffffff\n        /* \"#utility.yul\":23516:23522   */\n      dup2\n        /* \"#utility.yul\":23513:23543   */\n      gt\n        /* \"#utility.yul\":23510:23566   */\n      iszero\n      tag_449\n      jumpi\n        /* \"#utility.yul\":23546:23564   */\n      tag_450\n      tag_190\n      jump\t// in\n    tag_450:\n        /* \"#utility.yul\":23510:23566   */\n    tag_449:\n        /* \"#utility.yul\":23590:23628   */\n      tag_451\n        /* \"#utility.yul\":23622:23626   */\n      dup3\n        /* \"#utility.yul\":23616:23627   */\n      sload\n        /* \"#utility.yul\":23590:23628   */\n      tag_63\n      jump\t// in\n    tag_451:\n        /* \"#utility.yul\":23675:23742   */\n      tag_452\n        /* \"#utility.yul\":23735:23741   */\n      dup3\n        /* \"#utility.yul\":23727:23733   */\n      dup3\n        /* \"#utility.yul\":23721:23725   */\n      dup6\n        /* \"#utility.yul\":23675:23742   */\n      tag_219\n      jump\t// in\n    tag_452:\n        /* \"#utility.yul\":23769:23770   */\n      0x00\n        /* \"#utility.yul\":23793:23797   */\n      0x20\n        /* \"#utility.yul\":23780:23797   */\n      swap1\n      pop\n        /* \"#utility.yul\":23825:23827   */\n      0x1f\n        /* \"#utility.yul\":23817:23823   */\n      dup4\n        /* \"#utility.yul\":23814:23828   */\n      gt\n        /* \"#utility.yul\":23842:23843   */\n      0x01\n        /* \"#utility.yul\":23837:24455   */\n      dup2\n      eq\n      tag_454\n      jumpi\n        /* \"#utility.yul\":24499:24500   */\n      0x00\n        /* \"#utility.yul\":24516:24522   */\n      dup5\n        /* \"#utility.yul\":24513:24590   */\n      iszero\n      tag_455\n      jumpi\n        /* \"#utility.yul\":24565:24574   */\n      dup3\n        /* \"#utility.yul\":24560:24563   */\n      dup8\n        /* \"#utility.yul\":24556:24575   */\n      add\n        /* \"#utility.yul\":24550:24576   */\n      mload\n        /* \"#utility.yul\":24541:24576   */\n      swap1\n      pop\n        /* \"#utility.yul\":24513:24590   */\n    tag_455:\n        /* \"#utility.yul\":24616:24683   */\n      tag_456\n        /* \"#utility.yul\":24676:24682   */\n      dup6\n        /* \"#utility.yul\":24669:24674   */\n      dup3\n        /* \"#utility.yul\":24616:24683   */\n      tag_222\n      jump\t// in\n    tag_456:\n        /* \"#utility.yul\":24610:24614   */\n      dup7\n        /* \"#utility.yul\":24603:24684   */\n      sstore\n        /* \"#utility.yul\":24472:24694   */\n      pop\n        /* \"#utility.yul\":23807:24694   */\n      jump(tag_453)\n        /* \"#utility.yul\":23837:24455   */\n    tag_454:\n        /* \"#utility.yul\":23889:23893   */\n      0x1f\n        /* \"#utility.yul\":23885:23894   */\n      not\n        /* \"#utility.yul\":23877:23883   */\n      dup5\n        /* \"#utility.yul\":23873:23895   */\n      and\n        /* \"#utility.yul\":23923:23960   */\n      tag_457\n        /* \"#utility.yul\":23955:23959   */\n      dup7\n        /* \"#utility.yul\":23923:23960   */\n      tag_208\n      jump\t// in\n    tag_457:\n        /* \"#utility.yul\":23982:23983   */\n      0x00\n        /* \"#utility.yul\":23996:24204   */\n    tag_458:\n        /* \"#utility.yul\":24010:24017   */\n      dup3\n        /* \"#utility.yul\":24007:24008   */\n      dup2\n        /* \"#utility.yul\":24004:24018   */\n      lt\n        /* \"#utility.yul\":23996:24204   */\n      iszero\n      tag_460\n      jumpi\n        /* \"#utility.yul\":24089:24098   */\n      dup5\n        /* \"#utility.yul\":24084:24087   */\n      dup10\n        /* \"#utility.yul\":24080:24099   */\n      add\n        /* \"#utility.yul\":24074:24100   */\n      mload\n        /* \"#utility.yul\":24066:24072   */\n      dup3\n        /* \"#utility.yul\":24059:24101   */\n      sstore\n        /* \"#utility.yul\":24140:24141   */\n      0x01\n        /* \"#utility.yul\":24132:24138   */\n      dup3\n        /* \"#utility.yul\":24128:24142   */\n      add\n        /* \"#utility.yul\":24118:24142   */\n      swap2\n      pop\n        /* \"#utility.yul\":24187:24189   */\n      0x20\n        /* \"#utility.yul\":24176:24185   */\n      dup6\n        /* \"#utility.yul\":24172:24190   */\n      add\n        /* \"#utility.yul\":24159:24190   */\n      swap5\n      pop\n        /* \"#utility.yul\":24033:24037   */\n      0x20\n        /* \"#utility.yul\":24030:24031   */\n      dup2\n        /* \"#utility.yul\":24026:24038   */\n      add\n        /* \"#utility.yul\":24021:24038   */\n      swap1\n      pop\n        /* \"#utility.yul\":23996:24204   */\n      jump(tag_458)\n    tag_460:\n        /* \"#utility.yul\":24232:24238   */\n      dup7\n        /* \"#utility.yul\":24223:24230   */\n      dup4\n        /* \"#utility.yul\":24220:24239   */\n      lt\n        /* \"#utility.yul\":24217:24396   */\n      iszero\n      tag_461\n      jumpi\n        /* \"#utility.yul\":24290:24299   */\n      dup5\n        /* \"#utility.yul\":24285:24288   */\n      dup10\n        /* \"#utility.yul\":24281:24300   */\n      add\n        /* \"#utility.yul\":24275:24301   */\n      mload\n        /* \"#utility.yul\":24333:24381   */\n      tag_462\n        /* \"#utility.yul\":24375:24379   */\n      0x1f\n        /* \"#utility.yul\":24367:24373   */\n      dup10\n        /* \"#utility.yul\":24363:24380   */\n      and\n        /* \"#utility.yul\":24352:24361   */\n      dup3\n        /* \"#utility.yul\":24333:24381   */\n      tag_221\n      jump\t// in\n    tag_462:\n        /* \"#utility.yul\":24325:24331   */\n      dup4\n        /* \"#utility.yul\":24318:24382   */\n      sstore\n        /* \"#utility.yul\":24240:24396   */\n      pop\n        /* \"#utility.yul\":24217:24396   */\n    tag_461:\n        /* \"#utility.yul\":24442:24443   */\n      0x01\n        /* \"#utility.yul\":24438:24439   */\n      0x02\n        /* \"#utility.yul\":24430:24436   */\n      dup9\n        /* \"#utility.yul\":24426:24440   */\n      mul\n        /* \"#utility.yul\":24422:24444   */\n      add\n        /* \"#utility.yul\":24416:24420   */\n      dup9\n        /* \"#utility.yul\":24409:24445   */\n      sstore\n        /* \"#utility.yul\":23844:24455   */\n      pop\n      pop\n      pop\n        /* \"#utility.yul\":23807:24694   */\n    tag_453:\n      pop\n        /* \"#utility.yul\":23397:24700   */\n      pop\n      pop\n      pop\n        /* \"#utility.yul\":23305:24700   */\n      pop\n      pop\n      jump\t// out\n        /* \"#utility.yul\":24706:25350   */\n    tag_114:\n        /* \"#utility.yul\":24903:24907   */\n      0x00\n        /* \"#utility.yul\":24941:24944   */\n      0x80\n        /* \"#utility.yul\":24930:24939   */\n      dup3\n        /* \"#utility.yul\":24926:24945   */\n      add\n        /* \"#utility.yul\":24918:24945   */\n      swap1\n      pop\n        /* \"#utility.yul\":24955:25026   */\n      tag_464\n        /* \"#utility.yul\":25023:25024   */\n      0x00\n        /* \"#utility.yul\":25012:25021   */\n      dup4\n        /* \"#utility.yul\":25008:25025   */\n      add\n        /* \"#utility.yul\":24999:25005   */\n      dup8\n        /* \"#utility.yul\":24955:25026   */\n      tag_172\n      jump\t// in\n    tag_464:\n        /* \"#utility.yul\":25036:25108   */\n      tag_465\n        /* \"#utility.yul\":25104:25106   */\n      0x20\n        /* \"#utility.yul\":25093:25102   */\n      dup4\n        /* \"#utility.yul\":25089:25107   */\n      add\n        /* \"#utility.yul\":25080:25086   */\n      dup7\n        /* \"#utility.yul\":25036:25108   */\n      tag_166\n      jump\t// in\n    tag_465:\n        /* \"#utility.yul\":25155:25164   */\n      dup2\n        /* \"#utility.yul\":25149:25153   */\n      dup2\n        /* \"#utility.yul\":25145:25165   */\n      sub\n        /* \"#utility.yul\":25140:25142   */\n      0x40\n        /* \"#utility.yul\":25129:25138   */\n      dup4\n        /* \"#utility.yul\":25125:25143   */\n      add\n        /* \"#utility.yul\":25118:25166   */\n      mstore\n        /* \"#utility.yul\":25183:25261   */\n      tag_466\n        /* \"#utility.yul\":25256:25260   */\n      dup2\n        /* \"#utility.yul\":25247:25253   */\n      dup6\n        /* \"#utility.yul\":25183:25261   */\n      tag_171\n      jump\t// in\n    tag_466:\n        /* \"#utility.yul\":25175:25261   */\n      swap1\n      pop\n        /* \"#utility.yul\":25271:25343   */\n      tag_467\n        /* \"#utility.yul\":25339:25341   */\n      0x60\n        /* \"#utility.yul\":25328:25337   */\n      dup4\n        /* \"#utility.yul\":25324:25342   */\n      add\n        /* \"#utility.yul\":25315:25321   */\n      dup5\n        /* \"#utility.yul\":25271:25343   */\n      tag_172\n      jump\t// in\n    tag_467:\n        /* \"#utility.yul\":24706:25350   */\n      swap6\n      swap5\n      pop\n      pop\n      pop\n      pop\n      pop\n      jump\t// out\n        /* \"#utility.yul\":25356:25547   */\n    tag_123:\n        /* \"#utility.yul\":25396:25399   */\n      0x00\n        /* \"#utility.yul\":25415:25435   */\n      tag_469\n        /* \"#utility.yul\":25433:25434   */\n      dup3\n        /* \"#utility.yul\":25415:25435   */\n      tag_163\n      jump\t// in\n    tag_469:\n        /* \"#utility.yul\":25410:25435   */\n      swap2\n      pop\n        /* \"#utility.yul\":25449:25469   */\n      tag_470\n        /* \"#utility.yul\":25467:25468   */\n      dup4\n        /* \"#utility.yul\":25449:25469   */\n      tag_163\n      jump\t// in\n    tag_470:\n        /* \"#utility.yul\":25444:25469   */\n      swap3\n      pop\n        /* \"#utility.yul\":25492:25493   */\n      dup3\n        /* \"#utility.yul\":25489:25490   */\n      dup3\n        /* \"#utility.yul\":25485:25494   */\n      add\n        /* \"#utility.yul\":25478:25494   */\n      swap1\n      pop\n        /* \"#utility.yul\":25513:25516   */\n      dup1\n        /* \"#utility.yul\":25510:25511   */\n      dup3\n        /* \"#utility.yul\":25507:25517   */\n      gt\n        /* \"#utility.yul\":25504:25540   */\n      iszero\n      tag_471\n      jumpi\n        /* \"#utility.yul\":25520:25538   */\n      tag_472\n      tag_205\n      jump\t// in\n    tag_472:\n        /* \"#utility.yul\":25504:25540   */\n    tag_471:\n        /* \"#utility.yul\":25356:25547   */\n      swap3\n      swap2\n      pop\n      pop\n      jump\t// out\n        /* \"#utility.yul\":25553:25795   */\n    tag_223:\n        /* \"#utility.yul\":25693:25727   */\n      0x4a657374657320776c61736369776f736369656d2c206e6965206d6f7a65737a\n        /* \"#utility.yul\":25689:25690   */\n      0x00\n        /* \"#utility.yul\":25681:25687   */\n      dup3\n        /* \"#utility.yul\":25677:25691   */\n      add\n        /* \"#utility.yul\":25670:25728   */\n      mstore\n        /* \"#utility.yul\":25762:25787   */\n      0x206c696b6f77616320776c61736e65676f20706f737461000000000000000000\n        /* \"#utility.yul\":25757:25759   */\n      0x20\n        /* \"#utility.yul\":25749:25755   */\n      dup3\n        /* \"#utility.yul\":25745:25760   */\n      add\n        /* \"#utility.yul\":25738:25788   */\n      mstore\n        /* \"#utility.yul\":25553:25795   */\n      pop\n      jump\t// out\n        /* \"#utility.yul\":25801:26167   */\n    tag_224:\n        /* \"#utility.yul\":25943:25946   */\n      0x00\n        /* \"#utility.yul\":25964:26031   */\n      tag_475\n        /* \"#utility.yul\":26028:26030   */\n      0x37\n        /* \"#utility.yul\":26023:26026   */\n      dup4\n        /* \"#utility.yul\":25964:26031   */\n      tag_168\n      jump\t// in\n    tag_475:\n        /* \"#utility.yul\":25957:26031   */\n      swap2\n      pop\n        /* \"#utility.yul\":26040:26133   */\n      tag_476\n        /* \"#utility.yul\":26129:26132   */\n      dup3\n        /* \"#utility.yul\":26040:26133   */\n      tag_223\n      jump\t// in\n    tag_476:\n        /* \"#utility.yul\":26158:26160   */\n      0x40\n        /* \"#utility.yul\":26153:26156   */\n      dup3\n        /* \"#utility.yul\":26149:26161   */\n      add\n        /* \"#utility.yul\":26142:26161   */\n      swap1\n      pop\n        /* \"#utility.yul\":25801:26167   */\n      swap2\n      swap1\n      pop\n      jump\t// out\n        /* \"#utility.yul\":26173:26592   */\n    tag_141:\n        /* \"#utility.yul\":26339:26343   */\n      0x00\n        /* \"#utility.yul\":26377:26379   */\n      0x20\n        /* \"#utility.yul\":26366:26375   */\n      dup3\n        /* \"#utility.yul\":26362:26380   */\n      add\n        /* \"#utility.yul\":26354:26380   */\n      swap1\n      pop\n        /* \"#utility.yul\":26426:26435   */\n      dup2\n        /* \"#utility.yul\":26420:26424   */\n      dup2\n        /* \"#utility.yul\":26416:26436   */\n      sub\n        /* \"#utility.yul\":26412:26413   */\n      0x00\n        /* \"#utility.yul\":26401:26410   */\n      dup4\n        /* \"#utility.yul\":26397:26414   */\n      add\n        /* \"#utility.yul\":26390:26437   */\n      mstore\n        /* \"#utility.yul\":26454:26585   */\n      tag_478\n        /* \"#utility.yul\":26580:26584   */\n      dup2\n        /* \"#utility.yul\":26454:26585   */\n      tag_224\n      jump\t// in\n    tag_478:\n        /* \"#utility.yul\":26446:26585   */\n      swap1\n      pop\n        /* \"#utility.yul\":26173:26592   */\n      swap2\n      swap1\n      pop\n      jump\t// out\n        /* \"#utility.yul\":26598:26831   */\n    tag_151:\n        /* \"#utility.yul\":26637:26640   */\n      0x00\n        /* \"#utility.yul\":26660:26684   */\n      tag_480\n        /* \"#utility.yul\":26678:26683   */\n      dup3\n        /* \"#utility.yul\":26660:26684   */\n      tag_163\n      jump\t// in\n    tag_480:\n        /* \"#utility.yul\":26651:26684   */\n      swap2\n      pop\n        /* \"#utility.yul\":26706:26772   */\n      0xffffffffffffffffffffffffffffffffffffffffffffffffffffffffffffffff\n        /* \"#utility.yul\":26699:26704   */\n      dup3\n        /* \"#utility.yul\":26696:26773   */\n      sub\n        /* \"#utility.yul\":26693:26796   */\n      tag_481\n      jumpi\n        /* \"#utility.yul\":26776:26794   */\n      tag_482\n      tag_205\n      jump\t// in\n    tag_482:\n        /* \"#utility.yul\":26693:26796   */\n    tag_481:\n        /* \"#utility.yul\":26823:26824   */\n      0x01\n        /* \"#utility.yul\":26816:26821   */\n      dup3\n        /* \"#utility.yul\":26812:26825   */\n      add\n        /* \"#utility.yul\":26805:26825   */\n      swap1\n      pop\n        /* \"#utility.yul\":26598:26831   */\n      swap2\n      swap1\n      pop\n      jump\t// out\n\n    auxdata: 0xa2646970667358221220cdd0961b64187f7f08330451a6eb0c2a49acf41095a6c3ec03d603aefcbdb92664736f6c634300081a0033\n}\n",
				"bytecode": {
					"linkReferences": {},
					"object": "60806040526101185f806101000a81548161ffff021916908361ffff160217905550348015602b575f80fd5b503360025f6101000a81548173ffffffffffffffffffffffffffffffffffffffff021916908373ffffffffffffffffffffffffffffffffffffffff160217905550611ca6806100795f395ff3fe608060405234801561000f575f80fd5b506004361061009c575f3560e01c80637c9cd2bc116100645780637c9cd2bc1461015a578063820785cc146101765780638da5cb5b146101a6578063c3ad5ecb146101c4578063f65a8f40146101f45761009c565b806305a1b4a9146100a057806312e7ee1c146100d457806358bfa4ab146101045780636eb10797146101205780637a639e391461013e575b5f80fd5b6100ba60048036038101906100b59190610fc3565b610210565b6040516100cb95949392919061108f565b60405180910390f35b6100ee60048036038101906100e991906110e7565b610301565b6040516100fb91906112a6565b60405180910390f35b61011e600480360381019061011991906112fd565b61049c565b005b610128610549565b6040516101359190611337565b60405180910390f35b61015860048036038101906101539190611350565b61055a565b005b610174600480360381019061016f91906114ba565b6107ac565b005b610190600480360381019061018b91906110e7565b6109af565b60405161019d9190611501565b60405180910390f35b6101ae610a8b565b6040516101bb919061151a565b60405180910390f35b6101de60048036038101906101d99190611533565b610ab0565b6040516101eb91906115d1565b60405180910390f35b61020e60048036038101906102099190610fc3565b610c27565b005b6001602052815f5260405f208181548110610229575f80fd5b905f5260205f2090600502015f9150915050805f015f9054906101000a900473ffffffffffffffffffffffffffffffffffffffff169080600101805461026e9061161e565b80601f016020809104026020016040519081016040528092919081815260200182805461029a9061161e565b80156102e55780601f106102bc576101008083540402835291602001916102e5565b820191905f5260205f20905b8154815290600101906020018083116102c857829003601f168201915b5050505050908060020154908060030154908060040154905085565b606060015f8373ffffffffffffffffffffffffffffffffffffffff1673ffffffffffffffffffffffffffffffffffffffff1681526020019081526020015f20805480602002602001604051908101604052809291908181526020015f905b82821015610491578382905f5260205f2090600502016040518060a00160405290815f82015f9054906101000a900473ffffffffffffffffffffffffffffffffffffffff1673ffffffffffffffffffffffffffffffffffffffff1673ffffffffffffffffffffffffffffffffffffffff1681526020016001820180546103e49061161e565b80601f01602080910402602001604051908101604052809291908181526020018280546104109061161e565b801561045b5780601f106104325761010080835404028352916020019161045b565b820191905f5260205f20905b81548152906001019060200180831161043e57829003601f168201915b5050505050815260200160028201548152602001600382015481526020016004820154815250508152602001906001019061035f565b505050509050919050565b60025f9054906101000a900473ffffffffffffffffffffffffffffffffffffffff1673ffffffffffffffffffffffffffffffffffffffff163373ffffffffffffffffffffffffffffffffffffffff161461052b576040517f08c379a000000000000000000000000000000000000000000000000000000000815260040161052290611698565b60405180910390fd5b805f806101000a81548161ffff021916908361ffff16021790555050565b5f8054906101000a900461ffff1681565b8160015f8373ffffffffffffffffffffffffffffffffffffffff1673ffffffffffffffffffffffffffffffffffffffff1681526020019081526020015f2083815481106105aa576105a96116b6565b5b905f5260205f20906005020160040154146105fa576040517f08c379a00000000000000000000000000000000000000000000000000000000081526004016105f19061172d565b60405180910390fd5b5f60015f8373ffffffffffffffffffffffffffffffffffffffff1673ffffffffffffffffffffffffffffffffffffffff1681526020019081526020015f20838154811061064a576106496116b6565b5b905f5260205f209060050201600301541161069a576040517f08c379a000000000000000000000000000000000000000000000000000000000815260040161069190611795565b60405180910390fd5b60015f8273ffffffffffffffffffffffffffffffffffffffff1673ffffffffffffffffffffffffffffffffffffffff1681526020019081526020015f2082815481106106e9576106e86116b6565b5b905f5260205f2090600502016003015f815480929190610708906117e0565b91905055507f762c2616349603ac16eba0de8e6141b79129a07ab63bd99e0a80b3a47171694333828460015f8673ffffffffffffffffffffffffffffffffffffffff1673ffffffffffffffffffffffffffffffffffffffff1681526020019081526020015f2086815481106107805761077f6116b6565b5b905f5260205f209060050201600301546040516107a09493929190611807565b60405180910390a15050565b5f8054906101000a900461ffff1661ffff1681511115610801576040517f08c379a00000000000000000000000000000000000000000000000000000000081526004016107f890611894565b60405180910390fd5b5f6040518060a001604052803373ffffffffffffffffffffffffffffffffffffffff1681526020018381526020014281526020015f815260200160015f3373ffffffffffffffffffffffffffffffffffffffff1673ffffffffffffffffffffffffffffffffffffffff1681526020019081526020015f2080549050815250905060015f3373ffffffffffffffffffffffffffffffffffffffff1673ffffffffffffffffffffffffffffffffffffffff1681526020019081526020015f2081908060018154018082558091505060019003905f5260205f2090600502015f909190919091505f820151815f015f6101000a81548173ffffffffffffffffffffffffffffffffffffffff021916908373ffffffffffffffffffffffffffffffffffffffff160217905550602082015181600101908161093e9190611a4f565b5060408201518160020155606082015181600301556080820151816004015550507f16fd3c13e9d46923e0a8bce11c7b473ec508a72e6c96cd2404b29ce972afc29e8160800151825f0151836020015184604001516040516109a39493929190611b1e565b60405180910390a15050565b5f805f90505b60015f8473ffffffffffffffffffffffffffffffffffffffff1673ffffffffffffffffffffffffffffffffffffffff1681526020019081526020015f2080549050811015610a805760015f8473ffffffffffffffffffffffffffffffffffffffff1673ffffffffffffffffffffffffffffffffffffffff1681526020019081526020015f208181548110610a4c57610a4b6116b6565b5b905f5260205f2090600502016003015460035f828254610a6c9190611b68565b9250508190555080806001019150506109b5565b506003549050919050565b60025f9054906101000a900473ffffffffffffffffffffffffffffffffffffffff1681565b610ab8610ee4565b60015f3373ffffffffffffffffffffffffffffffffffffffff1673ffffffffffffffffffffffffffffffffffffffff1681526020019081526020015f208281548110610b0757610b066116b6565b5b905f5260205f2090600502016040518060a00160405290815f82015f9054906101000a900473ffffffffffffffffffffffffffffffffffffffff1673ffffffffffffffffffffffffffffffffffffffff1673ffffffffffffffffffffffffffffffffffffffff168152602001600182018054610b829061161e565b80601f0160208091040260200160405190810160405280929190818152602001828054610bae9061161e565b8015610bf95780601f10610bd057610100808354040283529160200191610bf9565b820191905f5260205f20905b815481529060010190602001808311610bdc57829003601f168201915b5050505050815260200160028201548152602001600382015481526020016004820154815250509050919050565b60025f9054906101000a900473ffffffffffffffffffffffffffffffffffffffff1673ffffffffffffffffffffffffffffffffffffffff1660015f8473ffffffffffffffffffffffffffffffffffffffff1673ffffffffffffffffffffffffffffffffffffffff1681526020019081526020015f208281548110610cae57610cad6116b6565b5b905f5260205f2090600502015f015f9054906101000a900473ffffffffffffffffffffffffffffffffffffffff1673ffffffffffffffffffffffffffffffffffffffff1603610d32576040517f08c379a0000000000000000000000000000000000000000000000000000000008152600401610d2990611c0b565b60405180910390fd5b8060015f8473ffffffffffffffffffffffffffffffffffffffff1673ffffffffffffffffffffffffffffffffffffffff1681526020019081526020015f208281548110610d8257610d816116b6565b5b905f5260205f2090600502016004015414610dd2576040517f08c379a0000000000000000000000000000000000000000000000000000000008152600401610dc99061172d565b60405180910390fd5b60015f8373ffffffffffffffffffffffffffffffffffffffff1673ffffffffffffffffffffffffffffffffffffffff1681526020019081526020015f208181548110610e2157610e206116b6565b5b905f5260205f2090600502016003015f815480929190610e4090611c29565b91905055507fe8a76fc0f16d11a00d1e93b689b63d76cf60af914dd3d915375dc41d01a0c3c833838360015f8773ffffffffffffffffffffffffffffffffffffffff1673ffffffffffffffffffffffffffffffffffffffff1681526020019081526020015f208581548110610eb857610eb76116b6565b5b905f5260205f20906005020160030154604051610ed89493929190611807565b60405180910390a15050565b6040518060a001604052805f73ffffffffffffffffffffffffffffffffffffffff168152602001606081526020015f81526020015f81526020015f81525090565b5f604051905090565b5f80fd5b5f80fd5b5f73ffffffffffffffffffffffffffffffffffffffff82169050919050565b5f610f5f82610f36565b9050919050565b610f6f81610f55565b8114610f79575f80fd5b50565b5f81359050610f8a81610f66565b92915050565b5f819050919050565b610fa281610f90565b8114610fac575f80fd5b50565b5f81359050610fbd81610f99565b92915050565b5f8060408385031215610fd957610fd8610f2e565b5b5f610fe685828601610f7c565b9250506020610ff785828601610faf565b9150509250929050565b61100a81610f55565b82525050565b5f81519050919050565b5f82825260208201905092915050565b8281835e5f83830152505050565b5f601f19601f8301169050919050565b5f61105282611010565b61105c818561101a565b935061106c81856020860161102a565b61107581611038565b840191505092915050565b61108981610f90565b82525050565b5f60a0820190506110a25f830188611001565b81810360208301526110b48187611048565b90506110c36040830186611080565b6110d06060830185611080565b6110dd6080830184611080565b9695505050505050565b5f602082840312156110fc576110fb610f2e565b5b5f61110984828501610f7c565b91505092915050565b5f81519050919050565b5f82825260208201905092915050565b5f819050602082019050919050565b61114481610f55565b82525050565b5f82825260208201905092915050565b5f61116482611010565b61116e818561114a565b935061117e81856020860161102a565b61118781611038565b840191505092915050565b61119b81610f90565b82525050565b5f60a083015f8301516111b65f86018261113b565b50602083015184820360208601526111ce828261115a565b91505060408301516111e36040860182611192565b5060608301516111f66060860182611192565b5060808301516112096080860182611192565b508091505092915050565b5f61121f83836111a1565b905092915050565b5f602082019050919050565b5f61123d82611112565b611247818561111c565b9350836020820285016112598561112c565b805f5b8581101561129457848403895281516112758582611214565b945061128083611227565b925060208a0199505060018101905061125c565b50829750879550505050505092915050565b5f6020820190508181035f8301526112be8184611233565b905092915050565b5f61ffff82169050919050565b6112dc816112c6565b81146112e6575f80fd5b50565b5f813590506112f7816112d3565b92915050565b5f6020828403121561131257611311610f2e565b5b5f61131f848285016112e9565b91505092915050565b611331816112c6565b82525050565b5f60208201905061134a5f830184611328565b92915050565b5f806040838503121561136657611365610f2e565b5b5f61137385828601610faf565b925050602061138485828601610f7c565b9150509250929050565b5f80fd5b5f80fd5b7f4e487b71000000000000000000000000000000000000000000000000000000005f52604160045260245ffd5b6113cc82611038565b810181811067ffffffffffffffff821117156113eb576113ea611396565b5b80604052505050565b5f6113fd610f25565b905061140982826113c3565b919050565b5f67ffffffffffffffff82111561142857611427611396565b5b61143182611038565b9050602081019050919050565b828183375f83830152505050565b5f61145e6114598461140e565b6113f4565b90508281526020810184848401111561147a57611479611392565b5b61148584828561143e565b509392505050565b5f82601f8301126114a1576114a061138e565b5b81356114b184826020860161144c565b91505092915050565b5f602082840312156114cf576114ce610f2e565b5b5f82013567ffffffffffffffff8111156114ec576114eb610f32565b5b6114f88482850161148d565b91505092915050565b5f6020820190506115145f830184611080565b92915050565b5f60208201905061152d5f830184611001565b92915050565b5f6020828403121561154857611547610f2e565b5b5f61155584828501610faf565b91505092915050565b5f60a083015f8301516115735f86018261113b565b506020830151848203602086015261158b828261115a565b91505060408301516115a06040860182611192565b5060608301516115b36060860182611192565b5060808301516115c66080860182611192565b508091505092915050565b5f6020820190508181035f8301526115e9818461155e565b905092915050565b7f4e487b71000000000000000000000000000000000000000000000000000000005f52602260045260245ffd5b5f600282049050600182168061163557607f821691505b602082108103611648576116476115f1565b5b50919050565b7f4e6f7420746865206f776e6572000000000000000000000000000000000000005f82015250565b5f611682600d8361101a565b915061168d8261164e565b602082019050919050565b5f6020820190508181035f8301526116af81611676565b9050919050565b7f4e487b71000000000000000000000000000000000000000000000000000000005f52603260045260245ffd5b7f4e6965206d612074616b6965676f2074776565747500000000000000000000005f82015250565b5f61171760158361101a565b9150611722826116e3565b602082019050919050565b5f6020820190508181035f8301526117448161170b565b9050919050565b7f4e6965206d6f7a65737a207573756e6163206c696b65000000000000000000005f82015250565b5f61177f60168361101a565b915061178a8261174b565b602082019050919050565b5f6020820190508181035f8301526117ac81611773565b9050919050565b7f4e487b71000000000000000000000000000000000000000000000000000000005f52601160045260245ffd5b5f6117ea82610f90565b91505f82036117fc576117fb6117b3565b5b600182039050919050565b5f60808201905061181a5f830187611001565b6118276020830186611001565b6118346040830185611080565b6118416060830184611080565b95945050505050565b7f4d65737361676520746f206c6f6e6700000000000000000000000000000000005f82015250565b5f61187e600f8361101a565b91506118898261184a565b602082019050919050565b5f6020820190508181035f8301526118ab81611872565b9050919050565b5f819050815f5260205f209050919050565b5f6020601f8301049050919050565b5f82821b905092915050565b5f6008830261190e7fffffffffffffffffffffffffffffffffffffffffffffffffffffffffffffffff826118d3565b61191886836118d3565b95508019841693508086168417925050509392505050565b5f819050919050565b5f61195361194e61194984610f90565b611930565b610f90565b9050919050565b5f819050919050565b61196c83611939565b6119806119788261195a565b8484546118df565b825550505050565b5f90565b611994611988565b61199f818484611963565b505050565b5b818110156119c2576119b75f8261198c565b6001810190506119a5565b5050565b601f821115611a07576119d8816118b2565b6119e1846118c4565b810160208510156119f0578190505b611a046119fc856118c4565b8301826119a4565b50505b505050565b5f82821c905092915050565b5f611a275f1984600802611a0c565b1980831691505092915050565b5f611a3f8383611a18565b9150826002028217905092915050565b611a5882611010565b67ffffffffffffffff811115611a7157611a70611396565b5b611a7b825461161e565b611a868282856119c6565b5f60209050601f831160018114611ab7575f8415611aa5578287015190505b611aaf8582611a34565b865550611b16565b601f198416611ac5866118b2565b5f5b82811015611aec57848901518255600182019150602085019450602081019050611ac7565b86831015611b095784890151611b05601f891682611a18565b8355505b6001600288020188555050505b505050505050565b5f608082019050611b315f830187611080565b611b3e6020830186611001565b8181036040830152611b508185611048565b9050611b5f6060830184611080565b95945050505050565b5f611b7282610f90565b9150611b7d83610f90565b9250828201905080821115611b9557611b946117b3565b5b92915050565b7f4a657374657320776c61736369776f736369656d2c206e6965206d6f7a65737a5f8201527f206c696b6f77616320776c61736e65676f20706f737461000000000000000000602082015250565b5f611bf560378361101a565b9150611c0082611b9b565b604082019050919050565b5f6020820190508181035f830152611c2281611be9565b9050919050565b5f611c3382610f90565b91507fffffffffffffffffffffffffffffffffffffffffffffffffffffffffffffffff8203611c6557611c646117b3565b5b60018201905091905056fea2646970667358221220cdd0961b64187f7f08330451a6eb0c2a49acf41095a6c3ec03d603aefcbdb92664736f6c634300081a0033",
					"opcodes": "PUSH1 0x80 PUSH1 0x40 MSTORE PUSH2 0x118 PUSH0 DUP1 PUSH2 0x100 EXP DUP2 SLOAD DUP2 PUSH2 0xFFFF MUL NOT AND SWAP1 DUP4 PUSH2 0xFFFF AND MUL OR SWAP1 SSTORE POP CALLVALUE DUP1 ISZERO PUSH1 0x2B JUMPI PUSH0 DUP1 REVERT JUMPDEST POP CALLER PUSH1 0x2 PUSH0 PUSH2 0x100 EXP DUP2 SLOAD DUP2 PUSH20 0xFFFFFFFFFFFFFFFFFFFFFFFFFFFFFFFFFFFFFFFF MUL NOT AND SWAP1 DUP4 PUSH20 0xFFFFFFFFFFFFFFFFFFFFFFFFFFFFFFFFFFFFFFFF AND MUL OR SWAP1 SSTORE POP PUSH2 0x1CA6 DUP1 PUSH2 0x79 PUSH0 CODECOPY PUSH0 RETURN INVALID PUSH1 0x80 PUSH1 0x40 MSTORE CALLVALUE DUP1 ISZERO PUSH2 0xF JUMPI PUSH0 DUP1 REVERT JUMPDEST POP PUSH1 0x4 CALLDATASIZE LT PUSH2 0x9C JUMPI PUSH0 CALLDATALOAD PUSH1 0xE0 SHR DUP1 PUSH4 0x7C9CD2BC GT PUSH2 0x64 JUMPI DUP1 PUSH4 0x7C9CD2BC EQ PUSH2 0x15A JUMPI DUP1 PUSH4 0x820785CC EQ PUSH2 0x176 JUMPI DUP1 PUSH4 0x8DA5CB5B EQ PUSH2 0x1A6 JUMPI DUP1 PUSH4 0xC3AD5ECB EQ PUSH2 0x1C4 JUMPI DUP1 PUSH4 0xF65A8F40 EQ PUSH2 0x1F4 JUMPI PUSH2 0x9C JUMP JUMPDEST DUP1 PUSH4 0x5A1B4A9 EQ PUSH2 0xA0 JUMPI DUP1 PUSH4 0x12E7EE1C EQ PUSH2 0xD4 JUMPI DUP1 PUSH4 0x58BFA4AB EQ PUSH2 0x104 JUMPI DUP1 PUSH4 0x6EB10797 EQ PUSH2 0x120 JUMPI DUP1 PUSH4 0x7A639E39 EQ PUSH2 0x13E JUMPI JUMPDEST PUSH0 DUP1 REVERT JUMPDEST PUSH2 0xBA PUSH1 0x4 DUP1 CALLDATASIZE SUB DUP2 ADD SWAP1 PUSH2 0xB5 SWAP2 SWAP1 PUSH2 0xFC3 JUMP JUMPDEST PUSH2 0x210 JUMP JUMPDEST PUSH1 0x40 MLOAD PUSH2 0xCB SWAP6 SWAP5 SWAP4 SWAP3 SWAP2 SWAP1 PUSH2 0x108F JUMP JUMPDEST PUSH1 0x40 MLOAD DUP1 SWAP2 SUB SWAP1 RETURN JUMPDEST PUSH2 0xEE PUSH1 0x4 DUP1 CALLDATASIZE SUB DUP2 ADD SWAP1 PUSH2 0xE9 SWAP2 SWAP1 PUSH2 0x10E7 JUMP JUMPDEST PUSH2 0x301 JUMP JUMPDEST PUSH1 0x40 MLOAD PUSH2 0xFB SWAP2 SWAP1 PUSH2 0x12A6 JUMP JUMPDEST PUSH1 0x40 MLOAD DUP1 SWAP2 SUB SWAP1 RETURN JUMPDEST PUSH2 0x11E PUSH1 0x4 DUP1 CALLDATASIZE SUB DUP2 ADD SWAP1 PUSH2 0x119 SWAP2 SWAP1 PUSH2 0x12FD JUMP JUMPDEST PUSH2 0x49C JUMP JUMPDEST STOP JUMPDEST PUSH2 0x128 PUSH2 0x549 JUMP JUMPDEST PUSH1 0x40 MLOAD PUSH2 0x135 SWAP2 SWAP1 PUSH2 0x1337 JUMP JUMPDEST PUSH1 0x40 MLOAD DUP1 SWAP2 SUB SWAP1 RETURN JUMPDEST PUSH2 0x158 PUSH1 0x4 DUP1 CALLDATASIZE SUB DUP2 ADD SWAP1 PUSH2 0x153 SWAP2 SWAP1 PUSH2 0x1350 JUMP JUMPDEST PUSH2 0x55A JUMP JUMPDEST STOP JUMPDEST PUSH2 0x174 PUSH1 0x4 DUP1 CALLDATASIZE SUB DUP2 ADD SWAP1 PUSH2 0x16F SWAP2 SWAP1 PUSH2 0x14BA JUMP JUMPDEST PUSH2 0x7AC JUMP JUMPDEST STOP JUMPDEST PUSH2 0x190 PUSH1 0x4 DUP1 CALLDATASIZE SUB DUP2 ADD SWAP1 PUSH2 0x18B SWAP2 SWAP1 PUSH2 0x10E7 JUMP JUMPDEST PUSH2 0x9AF JUMP JUMPDEST PUSH1 0x40 MLOAD PUSH2 0x19D SWAP2 SWAP1 PUSH2 0x1501 JUMP JUMPDEST PUSH1 0x40 MLOAD DUP1 SWAP2 SUB SWAP1 RETURN JUMPDEST PUSH2 0x1AE PUSH2 0xA8B JUMP JUMPDEST PUSH1 0x40 MLOAD PUSH2 0x1BB SWAP2 SWAP1 PUSH2 0x151A JUMP JUMPDEST PUSH1 0x40 MLOAD DUP1 SWAP2 SUB SWAP1 RETURN JUMPDEST PUSH2 0x1DE PUSH1 0x4 DUP1 CALLDATASIZE SUB DUP2 ADD SWAP1 PUSH2 0x1D9 SWAP2 SWAP1 PUSH2 0x1533 JUMP JUMPDEST PUSH2 0xAB0 JUMP JUMPDEST PUSH1 0x40 MLOAD PUSH2 0x1EB SWAP2 SWAP1 PUSH2 0x15D1 JUMP JUMPDEST PUSH1 0x40 MLOAD DUP1 SWAP2 SUB SWAP1 RETURN JUMPDEST PUSH2 0x20E PUSH1 0x4 DUP1 CALLDATASIZE SUB DUP2 ADD SWAP1 PUSH2 0x209 SWAP2 SWAP1 PUSH2 0xFC3 JUMP JUMPDEST PUSH2 0xC27 JUMP JUMPDEST STOP JUMPDEST PUSH1 0x1 PUSH1 0x20 MSTORE DUP2 PUSH0 MSTORE PUSH1 0x40 PUSH0 KECCAK256 DUP2 DUP2 SLOAD DUP2 LT PUSH2 0x229 JUMPI PUSH0 DUP1 REVERT JUMPDEST SWAP1 PUSH0 MSTORE PUSH1 0x20 PUSH0 KECCAK256 SWAP1 PUSH1 0x5 MUL ADD PUSH0 SWAP2 POP SWAP2 POP POP DUP1 PUSH0 ADD PUSH0 SWAP1 SLOAD SWAP1 PUSH2 0x100 EXP SWAP1 DIV PUSH20 0xFFFFFFFFFFFFFFFFFFFFFFFFFFFFFFFFFFFFFFFF AND SWAP1 DUP1 PUSH1 0x1 ADD DUP1 SLOAD PUSH2 0x26E SWAP1 PUSH2 0x161E JUMP JUMPDEST DUP1 PUSH1 0x1F ADD PUSH1 0x20 DUP1 SWAP2 DIV MUL PUSH1 0x20 ADD PUSH1 0x40 MLOAD SWAP1 DUP2 ADD PUSH1 0x40 MSTORE DUP1 SWAP3 SWAP2 SWAP1 DUP2 DUP2 MSTORE PUSH1 0x20 ADD DUP3 DUP1 SLOAD PUSH2 0x29A SWAP1 PUSH2 0x161E JUMP JUMPDEST DUP1 ISZERO PUSH2 0x2E5 JUMPI DUP1 PUSH1 0x1F LT PUSH2 0x2BC JUMPI PUSH2 0x100 DUP1 DUP4 SLOAD DIV MUL DUP4 MSTORE SWAP2 PUSH1 0x20 ADD SWAP2 PUSH2 0x2E5 JUMP JUMPDEST DUP3 ADD SWAP2 SWAP1 PUSH0 MSTORE PUSH1 0x20 PUSH0 KECCAK256 SWAP1 JUMPDEST DUP2 SLOAD DUP2 MSTORE SWAP1 PUSH1 0x1 ADD SWAP1 PUSH1 0x20 ADD DUP1 DUP4 GT PUSH2 0x2C8 JUMPI DUP3 SWAP1 SUB PUSH1 0x1F AND DUP3 ADD SWAP2 JUMPDEST POP POP POP POP POP SWAP1 DUP1 PUSH1 0x2 ADD SLOAD SWAP1 DUP1 PUSH1 0x3 ADD SLOAD SWAP1 DUP1 PUSH1 0x4 ADD SLOAD SWAP1 POP DUP6 JUMP JUMPDEST PUSH1 0x60 PUSH1 0x1 PUSH0 DUP4 PUSH20 0xFFFFFFFFFFFFFFFFFFFFFFFFFFFFFFFFFFFFFFFF AND PUSH20 0xFFFFFFFFFFFFFFFFFFFFFFFFFFFFFFFFFFFFFFFF AND DUP2 MSTORE PUSH1 0x20 ADD SWAP1 DUP2 MSTORE PUSH1 0x20 ADD PUSH0 KECCAK256 DUP1 SLOAD DUP1 PUSH1 0x20 MUL PUSH1 0x20 ADD PUSH1 0x40 MLOAD SWAP1 DUP2 ADD PUSH1 0x40 MSTORE DUP1 SWAP3 SWAP2 SWAP1 DUP2 DUP2 MSTORE PUSH1 0x20 ADD PUSH0 SWAP1 JUMPDEST DUP3 DUP3 LT ISZERO PUSH2 0x491 JUMPI DUP4 DUP3 SWAP1 PUSH0 MSTORE PUSH1 0x20 PUSH0 KECCAK256 SWAP1 PUSH1 0x5 MUL ADD PUSH1 0x40 MLOAD DUP1 PUSH1 0xA0 ADD PUSH1 0x40 MSTORE SWAP1 DUP2 PUSH0 DUP3 ADD PUSH0 SWAP1 SLOAD SWAP1 PUSH2 0x100 EXP SWAP1 DIV PUSH20 0xFFFFFFFFFFFFFFFFFFFFFFFFFFFFFFFFFFFFFFFF AND PUSH20 0xFFFFFFFFFFFFFFFFFFFFFFFFFFFFFFFFFFFFFFFF AND PUSH20 0xFFFFFFFFFFFFFFFFFFFFFFFFFFFFFFFFFFFFFFFF AND DUP2 MSTORE PUSH1 0x20 ADD PUSH1 0x1 DUP3 ADD DUP1 SLOAD PUSH2 0x3E4 SWAP1 PUSH2 0x161E JUMP JUMPDEST DUP1 PUSH1 0x1F ADD PUSH1 0x20 DUP1 SWAP2 DIV MUL PUSH1 0x20 ADD PUSH1 0x40 MLOAD SWAP1 DUP2 ADD PUSH1 0x40 MSTORE DUP1 SWAP3 SWAP2 SWAP1 DUP2 DUP2 MSTORE PUSH1 0x20 ADD DUP3 DUP1 SLOAD PUSH2 0x410 SWAP1 PUSH2 0x161E JUMP JUMPDEST DUP1 ISZERO PUSH2 0x45B JUMPI DUP1 PUSH1 0x1F LT PUSH2 0x432 JUMPI PUSH2 0x100 DUP1 DUP4 SLOAD DIV MUL DUP4 MSTORE SWAP2 PUSH1 0x20 ADD SWAP2 PUSH2 0x45B JUMP JUMPDEST DUP3 ADD SWAP2 SWAP1 PUSH0 MSTORE PUSH1 0x20 PUSH0 KECCAK256 SWAP1 JUMPDEST DUP2 SLOAD DUP2 MSTORE SWAP1 PUSH1 0x1 ADD SWAP1 PUSH1 0x20 ADD DUP1 DUP4 GT PUSH2 0x43E JUMPI DUP3 SWAP1 SUB PUSH1 0x1F AND DUP3 ADD SWAP2 JUMPDEST POP POP POP POP POP DUP2 MSTORE PUSH1 0x20 ADD PUSH1 0x2 DUP3 ADD SLOAD DUP2 MSTORE PUSH1 0x20 ADD PUSH1 0x3 DUP3 ADD SLOAD DUP2 MSTORE PUSH1 0x20 ADD PUSH1 0x4 DUP3 ADD SLOAD DUP2 MSTORE POP POP DUP2 MSTORE PUSH1 0x20 ADD SWAP1 PUSH1 0x1 ADD SWAP1 PUSH2 0x35F JUMP JUMPDEST POP POP POP POP SWAP1 POP SWAP2 SWAP1 POP JUMP JUMPDEST PUSH1 0x2 PUSH0 SWAP1 SLOAD SWAP1 PUSH2 0x100 EXP SWAP1 DIV PUSH20 0xFFFFFFFFFFFFFFFFFFFFFFFFFFFFFFFFFFFFFFFF AND PUSH20 0xFFFFFFFFFFFFFFFFFFFFFFFFFFFFFFFFFFFFFFFF AND CALLER PUSH20 0xFFFFFFFFFFFFFFFFFFFFFFFFFFFFFFFFFFFFFFFF AND EQ PUSH2 0x52B JUMPI PUSH1 0x40 MLOAD PUSH32 0x8C379A000000000000000000000000000000000000000000000000000000000 DUP2 MSTORE PUSH1 0x4 ADD PUSH2 0x522 SWAP1 PUSH2 0x1698 JUMP JUMPDEST PUSH1 0x40 MLOAD DUP1 SWAP2 SUB SWAP1 REVERT JUMPDEST DUP1 PUSH0 DUP1 PUSH2 0x100 EXP DUP2 SLOAD DUP2 PUSH2 0xFFFF MUL NOT AND SWAP1 DUP4 PUSH2 0xFFFF AND MUL OR SWAP1 SSTORE POP POP JUMP JUMPDEST PUSH0 DUP1 SLOAD SWAP1 PUSH2 0x100 EXP SWAP1 DIV PUSH2 0xFFFF AND DUP2 JUMP JUMPDEST DUP2 PUSH1 0x1 PUSH0 DUP4 PUSH20 0xFFFFFFFFFFFFFFFFFFFFFFFFFFFFFFFFFFFFFFFF AND PUSH20 0xFFFFFFFFFFFFFFFFFFFFFFFFFFFFFFFFFFFFFFFF AND DUP2 MSTORE PUSH1 0x20 ADD SWAP1 DUP2 MSTORE PUSH1 0x20 ADD PUSH0 KECCAK256 DUP4 DUP2 SLOAD DUP2 LT PUSH2 0x5AA JUMPI PUSH2 0x5A9 PUSH2 0x16B6 JUMP JUMPDEST JUMPDEST SWAP1 PUSH0 MSTORE PUSH1 0x20 PUSH0 KECCAK256 SWAP1 PUSH1 0x5 MUL ADD PUSH1 0x4 ADD SLOAD EQ PUSH2 0x5FA JUMPI PUSH1 0x40 MLOAD PUSH32 0x8C379A000000000000000000000000000000000000000000000000000000000 DUP2 MSTORE PUSH1 0x4 ADD PUSH2 0x5F1 SWAP1 PUSH2 0x172D JUMP JUMPDEST PUSH1 0x40 MLOAD DUP1 SWAP2 SUB SWAP1 REVERT JUMPDEST PUSH0 PUSH1 0x1 PUSH0 DUP4 PUSH20 0xFFFFFFFFFFFFFFFFFFFFFFFFFFFFFFFFFFFFFFFF AND PUSH20 0xFFFFFFFFFFFFFFFFFFFFFFFFFFFFFFFFFFFFFFFF AND DUP2 MSTORE PUSH1 0x20 ADD SWAP1 DUP2 MSTORE PUSH1 0x20 ADD PUSH0 KECCAK256 DUP4 DUP2 SLOAD DUP2 LT PUSH2 0x64A JUMPI PUSH2 0x649 PUSH2 0x16B6 JUMP JUMPDEST JUMPDEST SWAP1 PUSH0 MSTORE PUSH1 0x20 PUSH0 KECCAK256 SWAP1 PUSH1 0x5 MUL ADD PUSH1 0x3 ADD SLOAD GT PUSH2 0x69A JUMPI PUSH1 0x40 MLOAD PUSH32 0x8C379A000000000000000000000000000000000000000000000000000000000 DUP2 MSTORE PUSH1 0x4 ADD PUSH2 0x691 SWAP1 PUSH2 0x1795 JUMP JUMPDEST PUSH1 0x40 MLOAD DUP1 SWAP2 SUB SWAP1 REVERT JUMPDEST PUSH1 0x1 PUSH0 DUP3 PUSH20 0xFFFFFFFFFFFFFFFFFFFFFFFFFFFFFFFFFFFFFFFF AND PUSH20 0xFFFFFFFFFFFFFFFFFFFFFFFFFFFFFFFFFFFFFFFF AND DUP2 MSTORE PUSH1 0x20 ADD SWAP1 DUP2 MSTORE PUSH1 0x20 ADD PUSH0 KECCAK256 DUP3 DUP2 SLOAD DUP2 LT PUSH2 0x6E9 JUMPI PUSH2 0x6E8 PUSH2 0x16B6 JUMP JUMPDEST JUMPDEST SWAP1 PUSH0 MSTORE PUSH1 0x20 PUSH0 KECCAK256 SWAP1 PUSH1 0x5 MUL ADD PUSH1 0x3 ADD PUSH0 DUP2 SLOAD DUP1 SWAP3 SWAP2 SWAP1 PUSH2 0x708 SWAP1 PUSH2 0x17E0 JUMP JUMPDEST SWAP2 SWAP1 POP SSTORE POP PUSH32 0x762C2616349603AC16EBA0DE8E6141B79129A07AB63BD99E0A80B3A471716943 CALLER DUP3 DUP5 PUSH1 0x1 PUSH0 DUP7 PUSH20 0xFFFFFFFFFFFFFFFFFFFFFFFFFFFFFFFFFFFFFFFF AND PUSH20 0xFFFFFFFFFFFFFFFFFFFFFFFFFFFFFFFFFFFFFFFF AND DUP2 MSTORE PUSH1 0x20 ADD SWAP1 DUP2 MSTORE PUSH1 0x20 ADD PUSH0 KECCAK256 DUP7 DUP2 SLOAD DUP2 LT PUSH2 0x780 JUMPI PUSH2 0x77F PUSH2 0x16B6 JUMP JUMPDEST JUMPDEST SWAP1 PUSH0 MSTORE PUSH1 0x20 PUSH0 KECCAK256 SWAP1 PUSH1 0x5 MUL ADD PUSH1 0x3 ADD SLOAD PUSH1 0x40 MLOAD PUSH2 0x7A0 SWAP5 SWAP4 SWAP3 SWAP2 SWAP1 PUSH2 0x1807 JUMP JUMPDEST PUSH1 0x40 MLOAD DUP1 SWAP2 SUB SWAP1 LOG1 POP POP JUMP JUMPDEST PUSH0 DUP1 SLOAD SWAP1 PUSH2 0x100 EXP SWAP1 DIV PUSH2 0xFFFF AND PUSH2 0xFFFF AND DUP2 MLOAD GT ISZERO PUSH2 0x801 JUMPI PUSH1 0x40 MLOAD PUSH32 0x8C379A000000000000000000000000000000000000000000000000000000000 DUP2 MSTORE PUSH1 0x4 ADD PUSH2 0x7F8 SWAP1 PUSH2 0x1894 JUMP JUMPDEST PUSH1 0x40 MLOAD DUP1 SWAP2 SUB SWAP1 REVERT JUMPDEST PUSH0 PUSH1 0x40 MLOAD DUP1 PUSH1 0xA0 ADD PUSH1 0x40 MSTORE DUP1 CALLER PUSH20 0xFFFFFFFFFFFFFFFFFFFFFFFFFFFFFFFFFFFFFFFF AND DUP2 MSTORE PUSH1 0x20 ADD DUP4 DUP2 MSTORE PUSH1 0x20 ADD TIMESTAMP DUP2 MSTORE PUSH1 0x20 ADD PUSH0 DUP2 MSTORE PUSH1 0x20 ADD PUSH1 0x1 PUSH0 CALLER PUSH20 0xFFFFFFFFFFFFFFFFFFFFFFFFFFFFFFFFFFFFFFFF AND PUSH20 0xFFFFFFFFFFFFFFFFFFFFFFFFFFFFFFFFFFFFFFFF AND DUP2 MSTORE PUSH1 0x20 ADD SWAP1 DUP2 MSTORE PUSH1 0x20 ADD PUSH0 KECCAK256 DUP1 SLOAD SWAP1 POP DUP2 MSTORE POP SWAP1 POP PUSH1 0x1 PUSH0 CALLER PUSH20 0xFFFFFFFFFFFFFFFFFFFFFFFFFFFFFFFFFFFFFFFF AND PUSH20 0xFFFFFFFFFFFFFFFFFFFFFFFFFFFFFFFFFFFFFFFF AND DUP2 MSTORE PUSH1 0x20 ADD SWAP1 DUP2 MSTORE PUSH1 0x20 ADD PUSH0 KECCAK256 DUP2 SWAP1 DUP1 PUSH1 0x1 DUP2 SLOAD ADD DUP1 DUP3 SSTORE DUP1 SWAP2 POP POP PUSH1 0x1 SWAP1 SUB SWAP1 PUSH0 MSTORE PUSH1 0x20 PUSH0 KECCAK256 SWAP1 PUSH1 0x5 MUL ADD PUSH0 SWAP1 SWAP2 SWAP1 SWAP2 SWAP1 SWAP2 POP PUSH0 DUP3 ADD MLOAD DUP2 PUSH0 ADD PUSH0 PUSH2 0x100 EXP DUP2 SLOAD DUP2 PUSH20 0xFFFFFFFFFFFFFFFFFFFFFFFFFFFFFFFFFFFFFFFF MUL NOT AND SWAP1 DUP4 PUSH20 0xFFFFFFFFFFFFFFFFFFFFFFFFFFFFFFFFFFFFFFFF AND MUL OR SWAP1 SSTORE POP PUSH1 0x20 DUP3 ADD MLOAD DUP2 PUSH1 0x1 ADD SWAP1 DUP2 PUSH2 0x93E SWAP2 SWAP1 PUSH2 0x1A4F JUMP JUMPDEST POP PUSH1 0x40 DUP3 ADD MLOAD DUP2 PUSH1 0x2 ADD SSTORE PUSH1 0x60 DUP3 ADD MLOAD DUP2 PUSH1 0x3 ADD SSTORE PUSH1 0x80 DUP3 ADD MLOAD DUP2 PUSH1 0x4 ADD SSTORE POP POP PUSH32 0x16FD3C13E9D46923E0A8BCE11C7B473EC508A72E6C96CD2404B29CE972AFC29E DUP2 PUSH1 0x80 ADD MLOAD DUP3 PUSH0 ADD MLOAD DUP4 PUSH1 0x20 ADD MLOAD DUP5 PUSH1 0x40 ADD MLOAD PUSH1 0x40 MLOAD PUSH2 0x9A3 SWAP5 SWAP4 SWAP3 SWAP2 SWAP1 PUSH2 0x1B1E JUMP JUMPDEST PUSH1 0x40 MLOAD DUP1 SWAP2 SUB SWAP1 LOG1 POP POP JUMP JUMPDEST PUSH0 DUP1 PUSH0 SWAP1 POP JUMPDEST PUSH1 0x1 PUSH0 DUP5 PUSH20 0xFFFFFFFFFFFFFFFFFFFFFFFFFFFFFFFFFFFFFFFF AND PUSH20 0xFFFFFFFFFFFFFFFFFFFFFFFFFFFFFFFFFFFFFFFF AND DUP2 MSTORE PUSH1 0x20 ADD SWAP1 DUP2 MSTORE PUSH1 0x20 ADD PUSH0 KECCAK256 DUP1 SLOAD SWAP1 POP DUP2 LT ISZERO PUSH2 0xA80 JUMPI PUSH1 0x1 PUSH0 DUP5 PUSH20 0xFFFFFFFFFFFFFFFFFFFFFFFFFFFFFFFFFFFFFFFF AND PUSH20 0xFFFFFFFFFFFFFFFFFFFFFFFFFFFFFFFFFFFFFFFF AND DUP2 MSTORE PUSH1 0x20 ADD SWAP1 DUP2 MSTORE PUSH1 0x20 ADD PUSH0 KECCAK256 DUP2 DUP2 SLOAD DUP2 LT PUSH2 0xA4C JUMPI PUSH2 0xA4B PUSH2 0x16B6 JUMP JUMPDEST JUMPDEST SWAP1 PUSH0 MSTORE PUSH1 0x20 PUSH0 KECCAK256 SWAP1 PUSH1 0x5 MUL ADD PUSH1 0x3 ADD SLOAD PUSH1 0x3 PUSH0 DUP3 DUP3 SLOAD PUSH2 0xA6C SWAP2 SWAP1 PUSH2 0x1B68 JUMP JUMPDEST SWAP3 POP POP DUP2 SWAP1 SSTORE POP DUP1 DUP1 PUSH1 0x1 ADD SWAP2 POP POP PUSH2 0x9B5 JUMP JUMPDEST POP PUSH1 0x3 SLOAD SWAP1 POP SWAP2 SWAP1 POP JUMP JUMPDEST PUSH1 0x2 PUSH0 SWAP1 SLOAD SWAP1 PUSH2 0x100 EXP SWAP1 DIV PUSH20 0xFFFFFFFFFFFFFFFFFFFFFFFFFFFFFFFFFFFFFFFF AND DUP2 JUMP JUMPDEST PUSH2 0xAB8 PUSH2 0xEE4 JUMP JUMPDEST PUSH1 0x1 PUSH0 CALLER PUSH20 0xFFFFFFFFFFFFFFFFFFFFFFFFFFFFFFFFFFFFFFFF AND PUSH20 0xFFFFFFFFFFFFFFFFFFFFFFFFFFFFFFFFFFFFFFFF AND DUP2 MSTORE PUSH1 0x20 ADD SWAP1 DUP2 MSTORE PUSH1 0x20 ADD PUSH0 KECCAK256 DUP3 DUP2 SLOAD DUP2 LT PUSH2 0xB07 JUMPI PUSH2 0xB06 PUSH2 0x16B6 JUMP JUMPDEST JUMPDEST SWAP1 PUSH0 MSTORE PUSH1 0x20 PUSH0 KECCAK256 SWAP1 PUSH1 0x5 MUL ADD PUSH1 0x40 MLOAD DUP1 PUSH1 0xA0 ADD PUSH1 0x40 MSTORE SWAP1 DUP2 PUSH0 DUP3 ADD PUSH0 SWAP1 SLOAD SWAP1 PUSH2 0x100 EXP SWAP1 DIV PUSH20 0xFFFFFFFFFFFFFFFFFFFFFFFFFFFFFFFFFFFFFFFF AND PUSH20 0xFFFFFFFFFFFFFFFFFFFFFFFFFFFFFFFFFFFFFFFF AND PUSH20 0xFFFFFFFFFFFFFFFFFFFFFFFFFFFFFFFFFFFFFFFF AND DUP2 MSTORE PUSH1 0x20 ADD PUSH1 0x1 DUP3 ADD DUP1 SLOAD PUSH2 0xB82 SWAP1 PUSH2 0x161E JUMP JUMPDEST DUP1 PUSH1 0x1F ADD PUSH1 0x20 DUP1 SWAP2 DIV MUL PUSH1 0x20 ADD PUSH1 0x40 MLOAD SWAP1 DUP2 ADD PUSH1 0x40 MSTORE DUP1 SWAP3 SWAP2 SWAP1 DUP2 DUP2 MSTORE PUSH1 0x20 ADD DUP3 DUP1 SLOAD PUSH2 0xBAE SWAP1 PUSH2 0x161E JUMP JUMPDEST DUP1 ISZERO PUSH2 0xBF9 JUMPI DUP1 PUSH1 0x1F LT PUSH2 0xBD0 JUMPI PUSH2 0x100 DUP1 DUP4 SLOAD DIV MUL DUP4 MSTORE SWAP2 PUSH1 0x20 ADD SWAP2 PUSH2 0xBF9 JUMP JUMPDEST DUP3 ADD SWAP2 SWAP1 PUSH0 MSTORE PUSH1 0x20 PUSH0 KECCAK256 SWAP1 JUMPDEST DUP2 SLOAD DUP2 MSTORE SWAP1 PUSH1 0x1 ADD SWAP1 PUSH1 0x20 ADD DUP1 DUP4 GT PUSH2 0xBDC JUMPI DUP3 SWAP1 SUB PUSH1 0x1F AND DUP3 ADD SWAP2 JUMPDEST POP POP POP POP POP DUP2 MSTORE PUSH1 0x20 ADD PUSH1 0x2 DUP3 ADD SLOAD DUP2 MSTORE PUSH1 0x20 ADD PUSH1 0x3 DUP3 ADD SLOAD DUP2 MSTORE PUSH1 0x20 ADD PUSH1 0x4 DUP3 ADD SLOAD DUP2 MSTORE POP POP SWAP1 POP SWAP2 SWAP1 POP JUMP JUMPDEST PUSH1 0x2 PUSH0 SWAP1 SLOAD SWAP1 PUSH2 0x100 EXP SWAP1 DIV PUSH20 0xFFFFFFFFFFFFFFFFFFFFFFFFFFFFFFFFFFFFFFFF AND PUSH20 0xFFFFFFFFFFFFFFFFFFFFFFFFFFFFFFFFFFFFFFFF AND PUSH1 0x1 PUSH0 DUP5 PUSH20 0xFFFFFFFFFFFFFFFFFFFFFFFFFFFFFFFFFFFFFFFF AND PUSH20 0xFFFFFFFFFFFFFFFFFFFFFFFFFFFFFFFFFFFFFFFF AND DUP2 MSTORE PUSH1 0x20 ADD SWAP1 DUP2 MSTORE PUSH1 0x20 ADD PUSH0 KECCAK256 DUP3 DUP2 SLOAD DUP2 LT PUSH2 0xCAE JUMPI PUSH2 0xCAD PUSH2 0x16B6 JUMP JUMPDEST JUMPDEST SWAP1 PUSH0 MSTORE PUSH1 0x20 PUSH0 KECCAK256 SWAP1 PUSH1 0x5 MUL ADD PUSH0 ADD PUSH0 SWAP1 SLOAD SWAP1 PUSH2 0x100 EXP SWAP1 DIV PUSH20 0xFFFFFFFFFFFFFFFFFFFFFFFFFFFFFFFFFFFFFFFF AND PUSH20 0xFFFFFFFFFFFFFFFFFFFFFFFFFFFFFFFFFFFFFFFF AND SUB PUSH2 0xD32 JUMPI PUSH1 0x40 MLOAD PUSH32 0x8C379A000000000000000000000000000000000000000000000000000000000 DUP2 MSTORE PUSH1 0x4 ADD PUSH2 0xD29 SWAP1 PUSH2 0x1C0B JUMP JUMPDEST PUSH1 0x40 MLOAD DUP1 SWAP2 SUB SWAP1 REVERT JUMPDEST DUP1 PUSH1 0x1 PUSH0 DUP5 PUSH20 0xFFFFFFFFFFFFFFFFFFFFFFFFFFFFFFFFFFFFFFFF AND PUSH20 0xFFFFFFFFFFFFFFFFFFFFFFFFFFFFFFFFFFFFFFFF AND DUP2 MSTORE PUSH1 0x20 ADD SWAP1 DUP2 MSTORE PUSH1 0x20 ADD PUSH0 KECCAK256 DUP3 DUP2 SLOAD DUP2 LT PUSH2 0xD82 JUMPI PUSH2 0xD81 PUSH2 0x16B6 JUMP JUMPDEST JUMPDEST SWAP1 PUSH0 MSTORE PUSH1 0x20 PUSH0 KECCAK256 SWAP1 PUSH1 0x5 MUL ADD PUSH1 0x4 ADD SLOAD EQ PUSH2 0xDD2 JUMPI PUSH1 0x40 MLOAD PUSH32 0x8C379A000000000000000000000000000000000000000000000000000000000 DUP2 MSTORE PUSH1 0x4 ADD PUSH2 0xDC9 SWAP1 PUSH2 0x172D JUMP JUMPDEST PUSH1 0x40 MLOAD DUP1 SWAP2 SUB SWAP1 REVERT JUMPDEST PUSH1 0x1 PUSH0 DUP4 PUSH20 0xFFFFFFFFFFFFFFFFFFFFFFFFFFFFFFFFFFFFFFFF AND PUSH20 0xFFFFFFFFFFFFFFFFFFFFFFFFFFFFFFFFFFFFFFFF AND DUP2 MSTORE PUSH1 0x20 ADD SWAP1 DUP2 MSTORE PUSH1 0x20 ADD PUSH0 KECCAK256 DUP2 DUP2 SLOAD DUP2 LT PUSH2 0xE21 JUMPI PUSH2 0xE20 PUSH2 0x16B6 JUMP JUMPDEST JUMPDEST SWAP1 PUSH0 MSTORE PUSH1 0x20 PUSH0 KECCAK256 SWAP1 PUSH1 0x5 MUL ADD PUSH1 0x3 ADD PUSH0 DUP2 SLOAD DUP1 SWAP3 SWAP2 SWAP1 PUSH2 0xE40 SWAP1 PUSH2 0x1C29 JUMP JUMPDEST SWAP2 SWAP1 POP SSTORE POP PUSH32 0xE8A76FC0F16D11A00D1E93B689B63D76CF60AF914DD3D915375DC41D01A0C3C8 CALLER DUP4 DUP4 PUSH1 0x1 PUSH0 DUP8 PUSH20 0xFFFFFFFFFFFFFFFFFFFFFFFFFFFFFFFFFFFFFFFF AND PUSH20 0xFFFFFFFFFFFFFFFFFFFFFFFFFFFFFFFFFFFFFFFF AND DUP2 MSTORE PUSH1 0x20 ADD SWAP1 DUP2 MSTORE PUSH1 0x20 ADD PUSH0 KECCAK256 DUP6 DUP2 SLOAD DUP2 LT PUSH2 0xEB8 JUMPI PUSH2 0xEB7 PUSH2 0x16B6 JUMP JUMPDEST JUMPDEST SWAP1 PUSH0 MSTORE PUSH1 0x20 PUSH0 KECCAK256 SWAP1 PUSH1 0x5 MUL ADD PUSH1 0x3 ADD SLOAD PUSH1 0x40 MLOAD PUSH2 0xED8 SWAP5 SWAP4 SWAP3 SWAP2 SWAP1 PUSH2 0x1807 JUMP JUMPDEST PUSH1 0x40 MLOAD DUP1 SWAP2 SUB SWAP1 LOG1 POP POP JUMP JUMPDEST PUSH1 0x40 MLOAD DUP1 PUSH1 0xA0 ADD PUSH1 0x40 MSTORE DUP1 PUSH0 PUSH20 0xFFFFFFFFFFFFFFFFFFFFFFFFFFFFFFFFFFFFFFFF AND DUP2 MSTORE PUSH1 0x20 ADD PUSH1 0x60 DUP2 MSTORE PUSH1 0x20 ADD PUSH0 DUP2 MSTORE PUSH1 0x20 ADD PUSH0 DUP2 MSTORE PUSH1 0x20 ADD PUSH0 DUP2 MSTORE POP SWAP1 JUMP JUMPDEST PUSH0 PUSH1 0x40 MLOAD SWAP1 POP SWAP1 JUMP JUMPDEST PUSH0 DUP1 REVERT JUMPDEST PUSH0 DUP1 REVERT JUMPDEST PUSH0 PUSH20 0xFFFFFFFFFFFFFFFFFFFFFFFFFFFFFFFFFFFFFFFF DUP3 AND SWAP1 POP SWAP2 SWAP1 POP JUMP JUMPDEST PUSH0 PUSH2 0xF5F DUP3 PUSH2 0xF36 JUMP JUMPDEST SWAP1 POP SWAP2 SWAP1 POP JUMP JUMPDEST PUSH2 0xF6F DUP2 PUSH2 0xF55 JUMP JUMPDEST DUP2 EQ PUSH2 0xF79 JUMPI PUSH0 DUP1 REVERT JUMPDEST POP JUMP JUMPDEST PUSH0 DUP2 CALLDATALOAD SWAP1 POP PUSH2 0xF8A DUP2 PUSH2 0xF66 JUMP JUMPDEST SWAP3 SWAP2 POP POP JUMP JUMPDEST PUSH0 DUP2 SWAP1 POP SWAP2 SWAP1 POP JUMP JUMPDEST PUSH2 0xFA2 DUP2 PUSH2 0xF90 JUMP JUMPDEST DUP2 EQ PUSH2 0xFAC JUMPI PUSH0 DUP1 REVERT JUMPDEST POP JUMP JUMPDEST PUSH0 DUP2 CALLDATALOAD SWAP1 POP PUSH2 0xFBD DUP2 PUSH2 0xF99 JUMP JUMPDEST SWAP3 SWAP2 POP POP JUMP JUMPDEST PUSH0 DUP1 PUSH1 0x40 DUP4 DUP6 SUB SLT ISZERO PUSH2 0xFD9 JUMPI PUSH2 0xFD8 PUSH2 0xF2E JUMP JUMPDEST JUMPDEST PUSH0 PUSH2 0xFE6 DUP6 DUP3 DUP7 ADD PUSH2 0xF7C JUMP JUMPDEST SWAP3 POP POP PUSH1 0x20 PUSH2 0xFF7 DUP6 DUP3 DUP7 ADD PUSH2 0xFAF JUMP JUMPDEST SWAP2 POP POP SWAP3 POP SWAP3 SWAP1 POP JUMP JUMPDEST PUSH2 0x100A DUP2 PUSH2 0xF55 JUMP JUMPDEST DUP3 MSTORE POP POP JUMP JUMPDEST PUSH0 DUP2 MLOAD SWAP1 POP SWAP2 SWAP1 POP JUMP JUMPDEST PUSH0 DUP3 DUP3 MSTORE PUSH1 0x20 DUP3 ADD SWAP1 POP SWAP3 SWAP2 POP POP JUMP JUMPDEST DUP3 DUP2 DUP4 MCOPY PUSH0 DUP4 DUP4 ADD MSTORE POP POP POP JUMP JUMPDEST PUSH0 PUSH1 0x1F NOT PUSH1 0x1F DUP4 ADD AND SWAP1 POP SWAP2 SWAP1 POP JUMP JUMPDEST PUSH0 PUSH2 0x1052 DUP3 PUSH2 0x1010 JUMP JUMPDEST PUSH2 0x105C DUP2 DUP6 PUSH2 0x101A JUMP JUMPDEST SWAP4 POP PUSH2 0x106C DUP2 DUP6 PUSH1 0x20 DUP7 ADD PUSH2 0x102A JUMP JUMPDEST PUSH2 0x1075 DUP2 PUSH2 0x1038 JUMP JUMPDEST DUP5 ADD SWAP2 POP POP SWAP3 SWAP2 POP POP JUMP JUMPDEST PUSH2 0x1089 DUP2 PUSH2 0xF90 JUMP JUMPDEST DUP3 MSTORE POP POP JUMP JUMPDEST PUSH0 PUSH1 0xA0 DUP3 ADD SWAP1 POP PUSH2 0x10A2 PUSH0 DUP4 ADD DUP9 PUSH2 0x1001 JUMP JUMPDEST DUP2 DUP2 SUB PUSH1 0x20 DUP4 ADD MSTORE PUSH2 0x10B4 DUP2 DUP8 PUSH2 0x1048 JUMP JUMPDEST SWAP1 POP PUSH2 0x10C3 PUSH1 0x40 DUP4 ADD DUP7 PUSH2 0x1080 JUMP JUMPDEST PUSH2 0x10D0 PUSH1 0x60 DUP4 ADD DUP6 PUSH2 0x1080 JUMP JUMPDEST PUSH2 0x10DD PUSH1 0x80 DUP4 ADD DUP5 PUSH2 0x1080 JUMP JUMPDEST SWAP7 SWAP6 POP POP POP POP POP POP JUMP JUMPDEST PUSH0 PUSH1 0x20 DUP3 DUP5 SUB SLT ISZERO PUSH2 0x10FC JUMPI PUSH2 0x10FB PUSH2 0xF2E JUMP JUMPDEST JUMPDEST PUSH0 PUSH2 0x1109 DUP5 DUP3 DUP6 ADD PUSH2 0xF7C JUMP JUMPDEST SWAP2 POP POP SWAP3 SWAP2 POP POP JUMP JUMPDEST PUSH0 DUP2 MLOAD SWAP1 POP SWAP2 SWAP1 POP JUMP JUMPDEST PUSH0 DUP3 DUP3 MSTORE PUSH1 0x20 DUP3 ADD SWAP1 POP SWAP3 SWAP2 POP POP JUMP JUMPDEST PUSH0 DUP2 SWAP1 POP PUSH1 0x20 DUP3 ADD SWAP1 POP SWAP2 SWAP1 POP JUMP JUMPDEST PUSH2 0x1144 DUP2 PUSH2 0xF55 JUMP JUMPDEST DUP3 MSTORE POP POP JUMP JUMPDEST PUSH0 DUP3 DUP3 MSTORE PUSH1 0x20 DUP3 ADD SWAP1 POP SWAP3 SWAP2 POP POP JUMP JUMPDEST PUSH0 PUSH2 0x1164 DUP3 PUSH2 0x1010 JUMP JUMPDEST PUSH2 0x116E DUP2 DUP6 PUSH2 0x114A JUMP JUMPDEST SWAP4 POP PUSH2 0x117E DUP2 DUP6 PUSH1 0x20 DUP7 ADD PUSH2 0x102A JUMP JUMPDEST PUSH2 0x1187 DUP2 PUSH2 0x1038 JUMP JUMPDEST DUP5 ADD SWAP2 POP POP SWAP3 SWAP2 POP POP JUMP JUMPDEST PUSH2 0x119B DUP2 PUSH2 0xF90 JUMP JUMPDEST DUP3 MSTORE POP POP JUMP JUMPDEST PUSH0 PUSH1 0xA0 DUP4 ADD PUSH0 DUP4 ADD MLOAD PUSH2 0x11B6 PUSH0 DUP7 ADD DUP3 PUSH2 0x113B JUMP JUMPDEST POP PUSH1 0x20 DUP4 ADD MLOAD DUP5 DUP3 SUB PUSH1 0x20 DUP7 ADD MSTORE PUSH2 0x11CE DUP3 DUP3 PUSH2 0x115A JUMP JUMPDEST SWAP2 POP POP PUSH1 0x40 DUP4 ADD MLOAD PUSH2 0x11E3 PUSH1 0x40 DUP7 ADD DUP3 PUSH2 0x1192 JUMP JUMPDEST POP PUSH1 0x60 DUP4 ADD MLOAD PUSH2 0x11F6 PUSH1 0x60 DUP7 ADD DUP3 PUSH2 0x1192 JUMP JUMPDEST POP PUSH1 0x80 DUP4 ADD MLOAD PUSH2 0x1209 PUSH1 0x80 DUP7 ADD DUP3 PUSH2 0x1192 JUMP JUMPDEST POP DUP1 SWAP2 POP POP SWAP3 SWAP2 POP POP JUMP JUMPDEST PUSH0 PUSH2 0x121F DUP4 DUP4 PUSH2 0x11A1 JUMP JUMPDEST SWAP1 POP SWAP3 SWAP2 POP POP JUMP JUMPDEST PUSH0 PUSH1 0x20 DUP3 ADD SWAP1 POP SWAP2 SWAP1 POP JUMP JUMPDEST PUSH0 PUSH2 0x123D DUP3 PUSH2 0x1112 JUMP JUMPDEST PUSH2 0x1247 DUP2 DUP6 PUSH2 0x111C JUMP JUMPDEST SWAP4 POP DUP4 PUSH1 0x20 DUP3 MUL DUP6 ADD PUSH2 0x1259 DUP6 PUSH2 0x112C JUMP JUMPDEST DUP1 PUSH0 JUMPDEST DUP6 DUP2 LT ISZERO PUSH2 0x1294 JUMPI DUP5 DUP5 SUB DUP10 MSTORE DUP2 MLOAD PUSH2 0x1275 DUP6 DUP3 PUSH2 0x1214 JUMP JUMPDEST SWAP5 POP PUSH2 0x1280 DUP4 PUSH2 0x1227 JUMP JUMPDEST SWAP3 POP PUSH1 0x20 DUP11 ADD SWAP10 POP POP PUSH1 0x1 DUP2 ADD SWAP1 POP PUSH2 0x125C JUMP JUMPDEST POP DUP3 SWAP8 POP DUP8 SWAP6 POP POP POP POP POP POP SWAP3 SWAP2 POP POP JUMP JUMPDEST PUSH0 PUSH1 0x20 DUP3 ADD SWAP1 POP DUP2 DUP2 SUB PUSH0 DUP4 ADD MSTORE PUSH2 0x12BE DUP2 DUP5 PUSH2 0x1233 JUMP JUMPDEST SWAP1 POP SWAP3 SWAP2 POP POP JUMP JUMPDEST PUSH0 PUSH2 0xFFFF DUP3 AND SWAP1 POP SWAP2 SWAP1 POP JUMP JUMPDEST PUSH2 0x12DC DUP2 PUSH2 0x12C6 JUMP JUMPDEST DUP2 EQ PUSH2 0x12E6 JUMPI PUSH0 DUP1 REVERT JUMPDEST POP JUMP JUMPDEST PUSH0 DUP2 CALLDATALOAD SWAP1 POP PUSH2 0x12F7 DUP2 PUSH2 0x12D3 JUMP JUMPDEST SWAP3 SWAP2 POP POP JUMP JUMPDEST PUSH0 PUSH1 0x20 DUP3 DUP5 SUB SLT ISZERO PUSH2 0x1312 JUMPI PUSH2 0x1311 PUSH2 0xF2E JUMP JUMPDEST JUMPDEST PUSH0 PUSH2 0x131F DUP5 DUP3 DUP6 ADD PUSH2 0x12E9 JUMP JUMPDEST SWAP2 POP POP SWAP3 SWAP2 POP POP JUMP JUMPDEST PUSH2 0x1331 DUP2 PUSH2 0x12C6 JUMP JUMPDEST DUP3 MSTORE POP POP JUMP JUMPDEST PUSH0 PUSH1 0x20 DUP3 ADD SWAP1 POP PUSH2 0x134A PUSH0 DUP4 ADD DUP5 PUSH2 0x1328 JUMP JUMPDEST SWAP3 SWAP2 POP POP JUMP JUMPDEST PUSH0 DUP1 PUSH1 0x40 DUP4 DUP6 SUB SLT ISZERO PUSH2 0x1366 JUMPI PUSH2 0x1365 PUSH2 0xF2E JUMP JUMPDEST JUMPDEST PUSH0 PUSH2 0x1373 DUP6 DUP3 DUP7 ADD PUSH2 0xFAF JUMP JUMPDEST SWAP3 POP POP PUSH1 0x20 PUSH2 0x1384 DUP6 DUP3 DUP7 ADD PUSH2 0xF7C JUMP JUMPDEST SWAP2 POP POP SWAP3 POP SWAP3 SWAP1 POP JUMP JUMPDEST PUSH0 DUP1 REVERT JUMPDEST PUSH0 DUP1 REVERT JUMPDEST PUSH32 0x4E487B7100000000000000000000000000000000000000000000000000000000 PUSH0 MSTORE PUSH1 0x41 PUSH1 0x4 MSTORE PUSH1 0x24 PUSH0 REVERT JUMPDEST PUSH2 0x13CC DUP3 PUSH2 0x1038 JUMP JUMPDEST DUP2 ADD DUP2 DUP2 LT PUSH8 0xFFFFFFFFFFFFFFFF DUP3 GT OR ISZERO PUSH2 0x13EB JUMPI PUSH2 0x13EA PUSH2 0x1396 JUMP JUMPDEST JUMPDEST DUP1 PUSH1 0x40 MSTORE POP POP POP JUMP JUMPDEST PUSH0 PUSH2 0x13FD PUSH2 0xF25 JUMP JUMPDEST SWAP1 POP PUSH2 0x1409 DUP3 DUP3 PUSH2 0x13C3 JUMP JUMPDEST SWAP2 SWAP1 POP JUMP JUMPDEST PUSH0 PUSH8 0xFFFFFFFFFFFFFFFF DUP3 GT ISZERO PUSH2 0x1428 JUMPI PUSH2 0x1427 PUSH2 0x1396 JUMP JUMPDEST JUMPDEST PUSH2 0x1431 DUP3 PUSH2 0x1038 JUMP JUMPDEST SWAP1 POP PUSH1 0x20 DUP2 ADD SWAP1 POP SWAP2 SWAP1 POP JUMP JUMPDEST DUP3 DUP2 DUP4 CALLDATACOPY PUSH0 DUP4 DUP4 ADD MSTORE POP POP POP JUMP JUMPDEST PUSH0 PUSH2 0x145E PUSH2 0x1459 DUP5 PUSH2 0x140E JUMP JUMPDEST PUSH2 0x13F4 JUMP JUMPDEST SWAP1 POP DUP3 DUP2 MSTORE PUSH1 0x20 DUP2 ADD DUP5 DUP5 DUP5 ADD GT ISZERO PUSH2 0x147A JUMPI PUSH2 0x1479 PUSH2 0x1392 JUMP JUMPDEST JUMPDEST PUSH2 0x1485 DUP5 DUP3 DUP6 PUSH2 0x143E JUMP JUMPDEST POP SWAP4 SWAP3 POP POP POP JUMP JUMPDEST PUSH0 DUP3 PUSH1 0x1F DUP4 ADD SLT PUSH2 0x14A1 JUMPI PUSH2 0x14A0 PUSH2 0x138E JUMP JUMPDEST JUMPDEST DUP2 CALLDATALOAD PUSH2 0x14B1 DUP5 DUP3 PUSH1 0x20 DUP7 ADD PUSH2 0x144C JUMP JUMPDEST SWAP2 POP POP SWAP3 SWAP2 POP POP JUMP JUMPDEST PUSH0 PUSH1 0x20 DUP3 DUP5 SUB SLT ISZERO PUSH2 0x14CF JUMPI PUSH2 0x14CE PUSH2 0xF2E JUMP JUMPDEST JUMPDEST PUSH0 DUP3 ADD CALLDATALOAD PUSH8 0xFFFFFFFFFFFFFFFF DUP2 GT ISZERO PUSH2 0x14EC JUMPI PUSH2 0x14EB PUSH2 0xF32 JUMP JUMPDEST JUMPDEST PUSH2 0x14F8 DUP5 DUP3 DUP6 ADD PUSH2 0x148D JUMP JUMPDEST SWAP2 POP POP SWAP3 SWAP2 POP POP JUMP JUMPDEST PUSH0 PUSH1 0x20 DUP3 ADD SWAP1 POP PUSH2 0x1514 PUSH0 DUP4 ADD DUP5 PUSH2 0x1080 JUMP JUMPDEST SWAP3 SWAP2 POP POP JUMP JUMPDEST PUSH0 PUSH1 0x20 DUP3 ADD SWAP1 POP PUSH2 0x152D PUSH0 DUP4 ADD DUP5 PUSH2 0x1001 JUMP JUMPDEST SWAP3 SWAP2 POP POP JUMP JUMPDEST PUSH0 PUSH1 0x20 DUP3 DUP5 SUB SLT ISZERO PUSH2 0x1548 JUMPI PUSH2 0x1547 PUSH2 0xF2E JUMP JUMPDEST JUMPDEST PUSH0 PUSH2 0x1555 DUP5 DUP3 DUP6 ADD PUSH2 0xFAF JUMP JUMPDEST SWAP2 POP POP SWAP3 SWAP2 POP POP JUMP JUMPDEST PUSH0 PUSH1 0xA0 DUP4 ADD PUSH0 DUP4 ADD MLOAD PUSH2 0x1573 PUSH0 DUP7 ADD DUP3 PUSH2 0x113B JUMP JUMPDEST POP PUSH1 0x20 DUP4 ADD MLOAD DUP5 DUP3 SUB PUSH1 0x20 DUP7 ADD MSTORE PUSH2 0x158B DUP3 DUP3 PUSH2 0x115A JUMP JUMPDEST SWAP2 POP POP PUSH1 0x40 DUP4 ADD MLOAD PUSH2 0x15A0 PUSH1 0x40 DUP7 ADD DUP3 PUSH2 0x1192 JUMP JUMPDEST POP PUSH1 0x60 DUP4 ADD MLOAD PUSH2 0x15B3 PUSH1 0x60 DUP7 ADD DUP3 PUSH2 0x1192 JUMP JUMPDEST POP PUSH1 0x80 DUP4 ADD MLOAD PUSH2 0x15C6 PUSH1 0x80 DUP7 ADD DUP3 PUSH2 0x1192 JUMP JUMPDEST POP DUP1 SWAP2 POP POP SWAP3 SWAP2 POP POP JUMP JUMPDEST PUSH0 PUSH1 0x20 DUP3 ADD SWAP1 POP DUP2 DUP2 SUB PUSH0 DUP4 ADD MSTORE PUSH2 0x15E9 DUP2 DUP5 PUSH2 0x155E JUMP JUMPDEST SWAP1 POP SWAP3 SWAP2 POP POP JUMP JUMPDEST PUSH32 0x4E487B7100000000000000000000000000000000000000000000000000000000 PUSH0 MSTORE PUSH1 0x22 PUSH1 0x4 MSTORE PUSH1 0x24 PUSH0 REVERT JUMPDEST PUSH0 PUSH1 0x2 DUP3 DIV SWAP1 POP PUSH1 0x1 DUP3 AND DUP1 PUSH2 0x1635 JUMPI PUSH1 0x7F DUP3 AND SWAP2 POP JUMPDEST PUSH1 0x20 DUP3 LT DUP2 SUB PUSH2 0x1648 JUMPI PUSH2 0x1647 PUSH2 0x15F1 JUMP JUMPDEST JUMPDEST POP SWAP2 SWAP1 POP JUMP JUMPDEST PUSH32 0x4E6F7420746865206F776E657200000000000000000000000000000000000000 PUSH0 DUP3 ADD MSTORE POP JUMP JUMPDEST PUSH0 PUSH2 0x1682 PUSH1 0xD DUP4 PUSH2 0x101A JUMP JUMPDEST SWAP2 POP PUSH2 0x168D DUP3 PUSH2 0x164E JUMP JUMPDEST PUSH1 0x20 DUP3 ADD SWAP1 POP SWAP2 SWAP1 POP JUMP JUMPDEST PUSH0 PUSH1 0x20 DUP3 ADD SWAP1 POP DUP2 DUP2 SUB PUSH0 DUP4 ADD MSTORE PUSH2 0x16AF DUP2 PUSH2 0x1676 JUMP JUMPDEST SWAP1 POP SWAP2 SWAP1 POP JUMP JUMPDEST PUSH32 0x4E487B7100000000000000000000000000000000000000000000000000000000 PUSH0 MSTORE PUSH1 0x32 PUSH1 0x4 MSTORE PUSH1 0x24 PUSH0 REVERT JUMPDEST PUSH32 0x4E6965206D612074616B6965676F207477656574750000000000000000000000 PUSH0 DUP3 ADD MSTORE POP JUMP JUMPDEST PUSH0 PUSH2 0x1717 PUSH1 0x15 DUP4 PUSH2 0x101A JUMP JUMPDEST SWAP2 POP PUSH2 0x1722 DUP3 PUSH2 0x16E3 JUMP JUMPDEST PUSH1 0x20 DUP3 ADD SWAP1 POP SWAP2 SWAP1 POP JUMP JUMPDEST PUSH0 PUSH1 0x20 DUP3 ADD SWAP1 POP DUP2 DUP2 SUB PUSH0 DUP4 ADD MSTORE PUSH2 0x1744 DUP2 PUSH2 0x170B JUMP JUMPDEST SWAP1 POP SWAP2 SWAP1 POP JUMP JUMPDEST PUSH32 0x4E6965206D6F7A65737A207573756E6163206C696B6500000000000000000000 PUSH0 DUP3 ADD MSTORE POP JUMP JUMPDEST PUSH0 PUSH2 0x177F PUSH1 0x16 DUP4 PUSH2 0x101A JUMP JUMPDEST SWAP2 POP PUSH2 0x178A DUP3 PUSH2 0x174B JUMP JUMPDEST PUSH1 0x20 DUP3 ADD SWAP1 POP SWAP2 SWAP1 POP JUMP JUMPDEST PUSH0 PUSH1 0x20 DUP3 ADD SWAP1 POP DUP2 DUP2 SUB PUSH0 DUP4 ADD MSTORE PUSH2 0x17AC DUP2 PUSH2 0x1773 JUMP JUMPDEST SWAP1 POP SWAP2 SWAP1 POP JUMP JUMPDEST PUSH32 0x4E487B7100000000000000000000000000000000000000000000000000000000 PUSH0 MSTORE PUSH1 0x11 PUSH1 0x4 MSTORE PUSH1 0x24 PUSH0 REVERT JUMPDEST PUSH0 PUSH2 0x17EA DUP3 PUSH2 0xF90 JUMP JUMPDEST SWAP2 POP PUSH0 DUP3 SUB PUSH2 0x17FC JUMPI PUSH2 0x17FB PUSH2 0x17B3 JUMP JUMPDEST JUMPDEST PUSH1 0x1 DUP3 SUB SWAP1 POP SWAP2 SWAP1 POP JUMP JUMPDEST PUSH0 PUSH1 0x80 DUP3 ADD SWAP1 POP PUSH2 0x181A PUSH0 DUP4 ADD DUP8 PUSH2 0x1001 JUMP JUMPDEST PUSH2 0x1827 PUSH1 0x20 DUP4 ADD DUP7 PUSH2 0x1001 JUMP JUMPDEST PUSH2 0x1834 PUSH1 0x40 DUP4 ADD DUP6 PUSH2 0x1080 JUMP JUMPDEST PUSH2 0x1841 PUSH1 0x60 DUP4 ADD DUP5 PUSH2 0x1080 JUMP JUMPDEST SWAP6 SWAP5 POP POP POP POP POP JUMP JUMPDEST PUSH32 0x4D65737361676520746F206C6F6E670000000000000000000000000000000000 PUSH0 DUP3 ADD MSTORE POP JUMP JUMPDEST PUSH0 PUSH2 0x187E PUSH1 0xF DUP4 PUSH2 0x101A JUMP JUMPDEST SWAP2 POP PUSH2 0x1889 DUP3 PUSH2 0x184A JUMP JUMPDEST PUSH1 0x20 DUP3 ADD SWAP1 POP SWAP2 SWAP1 POP JUMP JUMPDEST PUSH0 PUSH1 0x20 DUP3 ADD SWAP1 POP DUP2 DUP2 SUB PUSH0 DUP4 ADD MSTORE PUSH2 0x18AB DUP2 PUSH2 0x1872 JUMP JUMPDEST SWAP1 POP SWAP2 SWAP1 POP JUMP JUMPDEST PUSH0 DUP2 SWAP1 POP DUP2 PUSH0 MSTORE PUSH1 0x20 PUSH0 KECCAK256 SWAP1 POP SWAP2 SWAP1 POP JUMP JUMPDEST PUSH0 PUSH1 0x20 PUSH1 0x1F DUP4 ADD DIV SWAP1 POP SWAP2 SWAP1 POP JUMP JUMPDEST PUSH0 DUP3 DUP3 SHL SWAP1 POP SWAP3 SWAP2 POP POP JUMP JUMPDEST PUSH0 PUSH1 0x8 DUP4 MUL PUSH2 0x190E PUSH32 0xFFFFFFFFFFFFFFFFFFFFFFFFFFFFFFFFFFFFFFFFFFFFFFFFFFFFFFFFFFFFFFFF DUP3 PUSH2 0x18D3 JUMP JUMPDEST PUSH2 0x1918 DUP7 DUP4 PUSH2 0x18D3 JUMP JUMPDEST SWAP6 POP DUP1 NOT DUP5 AND SWAP4 POP DUP1 DUP7 AND DUP5 OR SWAP3 POP POP POP SWAP4 SWAP3 POP POP POP JUMP JUMPDEST PUSH0 DUP2 SWAP1 POP SWAP2 SWAP1 POP JUMP JUMPDEST PUSH0 PUSH2 0x1953 PUSH2 0x194E PUSH2 0x1949 DUP5 PUSH2 0xF90 JUMP JUMPDEST PUSH2 0x1930 JUMP JUMPDEST PUSH2 0xF90 JUMP JUMPDEST SWAP1 POP SWAP2 SWAP1 POP JUMP JUMPDEST PUSH0 DUP2 SWAP1 POP SWAP2 SWAP1 POP JUMP JUMPDEST PUSH2 0x196C DUP4 PUSH2 0x1939 JUMP JUMPDEST PUSH2 0x1980 PUSH2 0x1978 DUP3 PUSH2 0x195A JUMP JUMPDEST DUP5 DUP5 SLOAD PUSH2 0x18DF JUMP JUMPDEST DUP3 SSTORE POP POP POP POP JUMP JUMPDEST PUSH0 SWAP1 JUMP JUMPDEST PUSH2 0x1994 PUSH2 0x1988 JUMP JUMPDEST PUSH2 0x199F DUP2 DUP5 DUP5 PUSH2 0x1963 JUMP JUMPDEST POP POP POP JUMP JUMPDEST JUMPDEST DUP2 DUP2 LT ISZERO PUSH2 0x19C2 JUMPI PUSH2 0x19B7 PUSH0 DUP3 PUSH2 0x198C JUMP JUMPDEST PUSH1 0x1 DUP2 ADD SWAP1 POP PUSH2 0x19A5 JUMP JUMPDEST POP POP JUMP JUMPDEST PUSH1 0x1F DUP3 GT ISZERO PUSH2 0x1A07 JUMPI PUSH2 0x19D8 DUP2 PUSH2 0x18B2 JUMP JUMPDEST PUSH2 0x19E1 DUP5 PUSH2 0x18C4 JUMP JUMPDEST DUP2 ADD PUSH1 0x20 DUP6 LT ISZERO PUSH2 0x19F0 JUMPI DUP2 SWAP1 POP JUMPDEST PUSH2 0x1A04 PUSH2 0x19FC DUP6 PUSH2 0x18C4 JUMP JUMPDEST DUP4 ADD DUP3 PUSH2 0x19A4 JUMP JUMPDEST POP POP JUMPDEST POP POP POP JUMP JUMPDEST PUSH0 DUP3 DUP3 SHR SWAP1 POP SWAP3 SWAP2 POP POP JUMP JUMPDEST PUSH0 PUSH2 0x1A27 PUSH0 NOT DUP5 PUSH1 0x8 MUL PUSH2 0x1A0C JUMP JUMPDEST NOT DUP1 DUP4 AND SWAP2 POP POP SWAP3 SWAP2 POP POP JUMP JUMPDEST PUSH0 PUSH2 0x1A3F DUP4 DUP4 PUSH2 0x1A18 JUMP JUMPDEST SWAP2 POP DUP3 PUSH1 0x2 MUL DUP3 OR SWAP1 POP SWAP3 SWAP2 POP POP JUMP JUMPDEST PUSH2 0x1A58 DUP3 PUSH2 0x1010 JUMP JUMPDEST PUSH8 0xFFFFFFFFFFFFFFFF DUP2 GT ISZERO PUSH2 0x1A71 JUMPI PUSH2 0x1A70 PUSH2 0x1396 JUMP JUMPDEST JUMPDEST PUSH2 0x1A7B DUP3 SLOAD PUSH2 0x161E JUMP JUMPDEST PUSH2 0x1A86 DUP3 DUP3 DUP6 PUSH2 0x19C6 JUMP JUMPDEST PUSH0 PUSH1 0x20 SWAP1 POP PUSH1 0x1F DUP4 GT PUSH1 0x1 DUP2 EQ PUSH2 0x1AB7 JUMPI PUSH0 DUP5 ISZERO PUSH2 0x1AA5 JUMPI DUP3 DUP8 ADD MLOAD SWAP1 POP JUMPDEST PUSH2 0x1AAF DUP6 DUP3 PUSH2 0x1A34 JUMP JUMPDEST DUP7 SSTORE POP PUSH2 0x1B16 JUMP JUMPDEST PUSH1 0x1F NOT DUP5 AND PUSH2 0x1AC5 DUP7 PUSH2 0x18B2 JUMP JUMPDEST PUSH0 JUMPDEST DUP3 DUP2 LT ISZERO PUSH2 0x1AEC JUMPI DUP5 DUP10 ADD MLOAD DUP3 SSTORE PUSH1 0x1 DUP3 ADD SWAP2 POP PUSH1 0x20 DUP6 ADD SWAP5 POP PUSH1 0x20 DUP2 ADD SWAP1 POP PUSH2 0x1AC7 JUMP JUMPDEST DUP7 DUP4 LT ISZERO PUSH2 0x1B09 JUMPI DUP5 DUP10 ADD MLOAD PUSH2 0x1B05 PUSH1 0x1F DUP10 AND DUP3 PUSH2 0x1A18 JUMP JUMPDEST DUP4 SSTORE POP JUMPDEST PUSH1 0x1 PUSH1 0x2 DUP9 MUL ADD DUP9 SSTORE POP POP POP JUMPDEST POP POP POP POP POP POP JUMP JUMPDEST PUSH0 PUSH1 0x80 DUP3 ADD SWAP1 POP PUSH2 0x1B31 PUSH0 DUP4 ADD DUP8 PUSH2 0x1080 JUMP JUMPDEST PUSH2 0x1B3E PUSH1 0x20 DUP4 ADD DUP7 PUSH2 0x1001 JUMP JUMPDEST DUP2 DUP2 SUB PUSH1 0x40 DUP4 ADD MSTORE PUSH2 0x1B50 DUP2 DUP6 PUSH2 0x1048 JUMP JUMPDEST SWAP1 POP PUSH2 0x1B5F PUSH1 0x60 DUP4 ADD DUP5 PUSH2 0x1080 JUMP JUMPDEST SWAP6 SWAP5 POP POP POP POP POP JUMP JUMPDEST PUSH0 PUSH2 0x1B72 DUP3 PUSH2 0xF90 JUMP JUMPDEST SWAP2 POP PUSH2 0x1B7D DUP4 PUSH2 0xF90 JUMP JUMPDEST SWAP3 POP DUP3 DUP3 ADD SWAP1 POP DUP1 DUP3 GT ISZERO PUSH2 0x1B95 JUMPI PUSH2 0x1B94 PUSH2 0x17B3 JUMP JUMPDEST JUMPDEST SWAP3 SWAP2 POP POP JUMP JUMPDEST PUSH32 0x4A657374657320776C61736369776F736369656D2C206E6965206D6F7A65737A PUSH0 DUP3 ADD MSTORE PUSH32 0x206C696B6F77616320776C61736E65676F20706F737461000000000000000000 PUSH1 0x20 DUP3 ADD MSTORE POP JUMP JUMPDEST PUSH0 PUSH2 0x1BF5 PUSH1 0x37 DUP4 PUSH2 0x101A JUMP JUMPDEST SWAP2 POP PUSH2 0x1C00 DUP3 PUSH2 0x1B9B JUMP JUMPDEST PUSH1 0x40 DUP3 ADD SWAP1 POP SWAP2 SWAP1 POP JUMP JUMPDEST PUSH0 PUSH1 0x20 DUP3 ADD SWAP1 POP DUP2 DUP2 SUB PUSH0 DUP4 ADD MSTORE PUSH2 0x1C22 DUP2 PUSH2 0x1BE9 JUMP JUMPDEST SWAP1 POP SWAP2 SWAP1 POP JUMP JUMPDEST PUSH0 PUSH2 0x1C33 DUP3 PUSH2 0xF90 JUMP JUMPDEST SWAP2 POP PUSH32 0xFFFFFFFFFFFFFFFFFFFFFFFFFFFFFFFFFFFFFFFFFFFFFFFFFFFFFFFFFFFFFFFF DUP3 SUB PUSH2 0x1C65 JUMPI PUSH2 0x1C64 PUSH2 0x17B3 JUMP JUMPDEST JUMPDEST PUSH1 0x1 DUP3 ADD SWAP1 POP SWAP2 SWAP1 POP JUMP INVALID LOG2 PUSH5 0x6970667358 0x22 SLT KECCAK256 0xCD 0xD0 SWAP7 SHL PUSH5 0x187F7F0833 DIV MLOAD 0xA6 0xEB 0xC 0x2A BLOBHASH 0xAC DELEGATECALL LT SWAP6 0xA6 0xC3 0xEC SUB 0xD6 SUB 0xAE 0xFC 0xBD 0xB9 0x26 PUSH5 0x736F6C6343 STOP ADDMOD BYTE STOP CALLER "
				},
				"gasEstimates": {
					"creation": {
						"codeDepositCost": "1466800",
						"executionCost": "50063",
						"totalCost": "1516863"
					},
					"external": {
						"MAX_TWEET_LENGTH()": "2530",
						"addLike(address,uint256)": "infinite",
						"changeTweetLength(uint16)": "26887",
						"createTweet(string)": "infinite",
						"getAllTweets(address)": "infinite",
						"getTotalLikes(address)": "infinite",
						"getTweet(uint256)": "infinite",
						"owner()": "2552",
						"removeLike(uint256,address)": "infinite",
						"tweets(address,uint256)": "infinite"
					}
				},
				"methodIdentifiers": {
					"MAX_TWEET_LENGTH()": "6eb10797",
					"addLike(address,uint256)": "f65a8f40",
					"changeTweetLength(uint16)": "58bfa4ab",
					"createTweet(string)": "7c9cd2bc",
					"getAllTweets(address)": "12e7ee1c",
					"getTotalLikes(address)": "820785cc",
					"getTweet(uint256)": "c3ad5ecb",
					"owner()": "8da5cb5b",
					"removeLike(uint256,address)": "7a639e39",
					"tweets(address,uint256)": "05a1b4a9"
				}
			},
			"storageLayout": {
				"storage": [
					{
						"astId": 4,
						"contract": "contracts/24_TotalLikes.sol:Twitter",
						"label": "MAX_TWEET_LENGTH",
						"offset": 0,
						"slot": "0",
						"type": "t_uint16"
					},
					{
						"astId": 21,
						"contract": "contracts/24_TotalLikes.sol:Twitter",
						"label": "tweets",
						"offset": 0,
						"slot": "1",
						"type": "t_mapping(t_address,t_array(t_struct(Tweet)15_storage)dyn_storage)"
					},
					{
						"astId": 23,
						"contract": "contracts/24_TotalLikes.sol:Twitter",
						"label": "owner",
						"offset": 0,
						"slot": "2",
						"type": "t_address"
					},
					{
						"astId": 277,
						"contract": "contracts/24_TotalLikes.sol:Twitter",
						"label": "totalLikes",
						"offset": 0,
						"slot": "3",
						"type": "t_uint256"
					}
				],
				"types": {
					"t_address": {
						"encoding": "inplace",
						"label": "address",
						"numberOfBytes": "20"
					},
					"t_array(t_struct(Tweet)15_storage)dyn_storage": {
						"base": "t_struct(Tweet)15_storage",
						"encoding": "dynamic_array",
						"label": "struct Twitter.Tweet[]",
						"numberOfBytes": "32"
					},
					"t_mapping(t_address,t_array(t_struct(Tweet)15_storage)dyn_storage)": {
						"encoding": "mapping",
						"key": "t_address",
						"label": "mapping(address => struct Twitter.Tweet[])",
						"numberOfBytes": "32",
						"value": "t_array(t_struct(Tweet)15_storage)dyn_storage"
					},
					"t_string_storage": {
						"encoding": "bytes",
						"label": "string",
						"numberOfBytes": "32"
					},
					"t_struct(Tweet)15_storage": {
						"encoding": "inplace",
						"label": "struct Twitter.Tweet",
						"members": [
							{
								"astId": 6,
								"contract": "contracts/24_TotalLikes.sol:Twitter",
								"label": "author",
								"offset": 0,
								"slot": "0",
								"type": "t_address"
							},
							{
								"astId": 8,
								"contract": "contracts/24_TotalLikes.sol:Twitter",
								"label": "content",
								"offset": 0,
								"slot": "1",
								"type": "t_string_storage"
							},
							{
								"astId": 10,
								"contract": "contracts/24_TotalLikes.sol:Twitter",
								"label": "timestamp",
								"offset": 0,
								"slot": "2",
								"type": "t_uint256"
							},
							{
								"astId": 12,
								"contract": "contracts/24_TotalLikes.sol:Twitter",
								"label": "likes",
								"offset": 0,
								"slot": "3",
								"type": "t_uint256"
							},
							{
								"astId": 14,
								"contract": "contracts/24_TotalLikes.sol:Twitter",
								"label": "id",
								"offset": 0,
								"slot": "4",
								"type": "t_uint256"
							}
						],
						"numberOfBytes": "160"
					},
					"t_uint16": {
						"encoding": "inplace",
						"label": "uint16",
						"numberOfBytes": "2"
					},
					"t_uint256": {
						"encoding": "inplace",
						"label": "uint256",
						"numberOfBytes": "32"
					}
				}
			},
			"userdoc": {
				"kind": "user",
				"methods": {},
				"version": 1
			}
		}
	}
}