{
	"practice/29_TwitterInteractionMain.sol": {
		"Twitter": {
			"abi": [
				{
					"inputs": [
						{
							"internalType": "address",
							"name": "_profileContract",
							"type": "address"
						}
					],
					"stateMutability": "nonpayable",
					"type": "constructor"
				},
				{
					"inputs": [
						{
							"internalType": "address",
							"name": "owner",
							"type": "address"
						}
					],
					"name": "OwnableInvalidOwner",
					"type": "error"
				},
				{
					"inputs": [
						{
							"internalType": "address",
							"name": "account",
							"type": "address"
						}
					],
					"name": "OwnableUnauthorizedAccount",
					"type": "error"
				},
				{
					"anonymous": false,
					"inputs": [
						{
							"indexed": true,
							"internalType": "address",
							"name": "previousOwner",
							"type": "address"
						},
						{
							"indexed": true,
							"internalType": "address",
							"name": "newOwner",
							"type": "address"
						}
					],
					"name": "OwnershipTransferred",
					"type": "event"
				},
				{
					"anonymous": false,
					"inputs": [
						{
							"indexed": false,
							"internalType": "uint256",
							"name": "id",
							"type": "uint256"
						},
						{
							"indexed": false,
							"internalType": "address",
							"name": "author",
							"type": "address"
						},
						{
							"indexed": false,
							"internalType": "string",
							"name": "content",
							"type": "string"
						},
						{
							"indexed": false,
							"internalType": "uint256",
							"name": "timestamp",
							"type": "uint256"
						}
					],
					"name": "TweetCreated",
					"type": "event"
				},
				{
					"anonymous": false,
					"inputs": [
						{
							"indexed": false,
							"internalType": "address",
							"name": "liker",
							"type": "address"
						},
						{
							"indexed": false,
							"internalType": "address",
							"name": "tweetAuthor",
							"type": "address"
						},
						{
							"indexed": false,
							"internalType": "uint256",
							"name": "tweetId",
							"type": "uint256"
						},
						{
							"indexed": false,
							"internalType": "uint256",
							"name": "newLikeCount",
							"type": "uint256"
						}
					],
					"name": "TweetLiked",
					"type": "event"
				},
				{
					"anonymous": false,
					"inputs": [
						{
							"indexed": false,
							"internalType": "address",
							"name": "unliker",
							"type": "address"
						},
						{
							"indexed": false,
							"internalType": "address",
							"name": "tweetAuthor",
							"type": "address"
						},
						{
							"indexed": false,
							"internalType": "uint256",
							"name": "tweetId",
							"type": "uint256"
						},
						{
							"indexed": false,
							"internalType": "uint256",
							"name": "newLikeCount",
							"type": "uint256"
						}
					],
					"name": "TweetUnliked",
					"type": "event"
				},
				{
					"inputs": [],
					"name": "MAX_TWEET_LENGTH",
					"outputs": [
						{
							"internalType": "uint16",
							"name": "",
							"type": "uint16"
						}
					],
					"stateMutability": "view",
					"type": "function"
				},
				{
					"inputs": [
						{
							"internalType": "address",
							"name": "author",
							"type": "address"
						},
						{
							"internalType": "uint256",
							"name": "id",
							"type": "uint256"
						}
					],
					"name": "addLike",
					"outputs": [],
					"stateMutability": "nonpayable",
					"type": "function"
				},
				{
					"inputs": [
						{
							"internalType": "uint16",
							"name": "newTweetLength",
							"type": "uint16"
						}
					],
					"name": "changeTweetLength",
					"outputs": [],
					"stateMutability": "nonpayable",
					"type": "function"
				},
				{
					"inputs": [
						{
							"internalType": "string",
							"name": "_tweet",
							"type": "string"
						}
					],
					"name": "createTweet",
					"outputs": [],
					"stateMutability": "nonpayable",
					"type": "function"
				},
				{
					"inputs": [
						{
							"internalType": "address",
							"name": "_owner",
							"type": "address"
						}
					],
					"name": "getAllTweets",
					"outputs": [
						{
							"components": [
								{
									"internalType": "address",
									"name": "author",
									"type": "address"
								},
								{
									"internalType": "string",
									"name": "content",
									"type": "string"
								},
								{
									"internalType": "uint256",
									"name": "timestamp",
									"type": "uint256"
								},
								{
									"internalType": "uint256",
									"name": "likes",
									"type": "uint256"
								},
								{
									"internalType": "uint256",
									"name": "id",
									"type": "uint256"
								}
							],
							"internalType": "struct Twitter.Tweet[]",
							"name": "",
							"type": "tuple[]"
						}
					],
					"stateMutability": "view",
					"type": "function"
				},
				{
					"inputs": [
						{
							"internalType": "address",
							"name": "_author",
							"type": "address"
						}
					],
					"name": "getTotalLikes",
					"outputs": [
						{
							"internalType": "uint256",
							"name": "",
							"type": "uint256"
						}
					],
					"stateMutability": "nonpayable",
					"type": "function"
				},
				{
					"inputs": [
						{
							"internalType": "uint256",
							"name": "_i",
							"type": "uint256"
						}
					],
					"name": "getTweet",
					"outputs": [
						{
							"components": [
								{
									"internalType": "address",
									"name": "author",
									"type": "address"
								},
								{
									"internalType": "string",
									"name": "content",
									"type": "string"
								},
								{
									"internalType": "uint256",
									"name": "timestamp",
									"type": "uint256"
								},
								{
									"internalType": "uint256",
									"name": "likes",
									"type": "uint256"
								},
								{
									"internalType": "uint256",
									"name": "id",
									"type": "uint256"
								}
							],
							"internalType": "struct Twitter.Tweet",
							"name": "",
							"type": "tuple"
						}
					],
					"stateMutability": "view",
					"type": "function"
				},
				{
					"inputs": [],
					"name": "owner",
					"outputs": [
						{
							"internalType": "address",
							"name": "",
							"type": "address"
						}
					],
					"stateMutability": "view",
					"type": "function"
				},
				{
					"inputs": [],
					"name": "profileContract",
					"outputs": [
						{
							"internalType": "contract IProfile",
							"name": "",
							"type": "address"
						}
					],
					"stateMutability": "view",
					"type": "function"
				},
				{
					"inputs": [
						{
							"internalType": "uint256",
							"name": "id",
							"type": "uint256"
						},
						{
							"internalType": "address",
							"name": "author",
							"type": "address"
						}
					],
					"name": "removeLike",
					"outputs": [],
					"stateMutability": "nonpayable",
					"type": "function"
				},
				{
					"inputs": [],
					"name": "renounceOwnership",
					"outputs": [],
					"stateMutability": "nonpayable",
					"type": "function"
				},
				{
					"inputs": [
						{
							"internalType": "address",
							"name": "newOwner",
							"type": "address"
						}
					],
					"name": "transferOwnership",
					"outputs": [],
					"stateMutability": "nonpayable",
					"type": "function"
				},
				{
					"inputs": [
						{
							"internalType": "address",
							"name": "",
							"type": "address"
						},
						{
							"internalType": "uint256",
							"name": "",
							"type": "uint256"
						}
					],
					"name": "tweets",
					"outputs": [
						{
							"internalType": "address",
							"name": "author",
							"type": "address"
						},
						{
							"internalType": "string",
							"name": "content",
							"type": "string"
						},
						{
							"internalType": "uint256",
							"name": "timestamp",
							"type": "uint256"
						},
						{
							"internalType": "uint256",
							"name": "likes",
							"type": "uint256"
						},
						{
							"internalType": "uint256",
							"name": "id",
							"type": "uint256"
						}
					],
					"stateMutability": "view",
					"type": "function"
				}
			],
			"devdoc": {
				"errors": {
					"OwnableInvalidOwner(address)": [
						{
							"details": "The owner is not a valid owner account. (eg. `address(0)`)"
						}
					],
					"OwnableUnauthorizedAccount(address)": [
						{
							"details": "The caller account is not authorized to perform an operation."
						}
					]
				},
				"kind": "dev",
				"methods": {
					"owner()": {
						"details": "Returns the address of the current owner."
					},
					"renounceOwnership()": {
						"details": "Leaves the contract without owner. It will not be possible to call `onlyOwner` functions. Can only be called by the current owner. NOTE: Renouncing ownership will leave the contract without an owner, thereby disabling any functionality that is only available to the owner."
					},
					"transferOwnership(address)": {
						"details": "Transfers ownership of the contract to a new account (`newOwner`). Can only be called by the current owner."
					}
				},
				"version": 1
			},
			"evm": {
				"assembly": "    /* \"practice/29_TwitterInteractionMain.sol\":813:3771  contract Twitter is Ownable {... */\n  mstore(0x40, 0x80)\n    /* \"practice/29_TwitterInteractionMain.sol\":883:886  280 */\n  0x0118\n    /* \"practice/29_TwitterInteractionMain.sol\":850:886  uint16 public MAX_TWEET_LENGTH = 280 */\n  0x00\n  exp(0x0100, 0x14)\n  dup2\n  sload\n  dup2\n  0xffff\n  mul\n  not\n  and\n  swap1\n  dup4\n  0xffff\n  and\n  mul\n  or\n  swap1\n  sstore\n  pop\n    /* \"practice/29_TwitterInteractionMain.sol\":1825:1946  constructor(address _profileContract) Ownable(msg.sender) {... */\n  callvalue\n  dup1\n  iszero\n  tag_1\n  jumpi\n  0x00\n  dup1\n  revert\ntag_1:\n  pop\n  mload(0x40)\n  sub(codesize, bytecodeSize)\n  dup1\n  bytecodeSize\n  dup4\n  codecopy\n  dup2\n  dup2\n  add\n  0x40\n  mstore\n  dup2\n  add\n  swap1\n  tag_2\n  swap2\n  swap1\n  tag_3\n  jump\t// in\ntag_2:\n    /* \"practice/29_TwitterInteractionMain.sol\":1871:1881  msg.sender */\n  caller\n    /* \"@openzeppelin/contracts/access/Ownable.sol\":1297:1298  0 */\n  0x00\n    /* \"@openzeppelin/contracts/access/Ownable.sol\":1273:1299  initialOwner == address(0) */\n  0xffffffffffffffffffffffffffffffffffffffff\n  and\n    /* \"@openzeppelin/contracts/access/Ownable.sol\":1273:1285  initialOwner */\n  dup2\n    /* \"@openzeppelin/contracts/access/Ownable.sol\":1273:1299  initialOwner == address(0) */\n  0xffffffffffffffffffffffffffffffffffffffff\n  and\n  sub\n    /* \"@openzeppelin/contracts/access/Ownable.sol\":1269:1364  if (initialOwner == address(0)) {... */\n  tag_7\n  jumpi\n    /* \"@openzeppelin/contracts/access/Ownable.sol\":1350:1351  0 */\n  0x00\n    /* \"@openzeppelin/contracts/access/Ownable.sol\":1322:1353  OwnableInvalidOwner(address(0)) */\n  mload(0x40)\n  0x1e4fbdf700000000000000000000000000000000000000000000000000000000\n  dup2\n  mstore\n  0x04\n  add\n  tag_8\n  swap2\n  swap1\n  tag_9\n  jump\t// in\ntag_8:\n  mload(0x40)\n  dup1\n  swap2\n  sub\n  swap1\n  revert\n    /* \"@openzeppelin/contracts/access/Ownable.sol\":1269:1364  if (initialOwner == address(0)) {... */\ntag_7:\n    /* \"@openzeppelin/contracts/access/Ownable.sol\":1373:1405  _transferOwnership(initialOwner) */\n  tag_10\n    /* \"@openzeppelin/contracts/access/Ownable.sol\":1392:1404  initialOwner */\n  dup2\n    /* \"@openzeppelin/contracts/access/Ownable.sol\":1373:1391  _transferOwnership */\n  shl(0x20, tag_11)\n    /* \"@openzeppelin/contracts/access/Ownable.sol\":1373:1405  _transferOwnership(initialOwner) */\n  0x20\n  shr\n  jump\t// in\ntag_10:\n    /* \"@openzeppelin/contracts/access/Ownable.sol\":1225:1412  constructor(address initialOwner) {... */\n  pop\n    /* \"practice/29_TwitterInteractionMain.sol\":1921:1937  _profileContract */\n  dup1\n    /* \"practice/29_TwitterInteractionMain.sol\":1894:1909  profileContract */\n  0x01\n  0x00\n    /* \"practice/29_TwitterInteractionMain.sol\":1894:1938  profileContract = IProfile(_profileContract) */\n  0x0100\n  exp\n  dup2\n  sload\n  dup2\n  0xffffffffffffffffffffffffffffffffffffffff\n  mul\n  not\n  and\n  swap1\n  dup4\n  0xffffffffffffffffffffffffffffffffffffffff\n  and\n  mul\n  or\n  swap1\n  sstore\n  pop\n    /* \"practice/29_TwitterInteractionMain.sol\":1825:1946  constructor(address _profileContract) Ownable(msg.sender) {... */\n  pop\n    /* \"practice/29_TwitterInteractionMain.sol\":813:3771  contract Twitter is Ownable {... */\n  jump(tag_13)\n    /* \"@openzeppelin/contracts/access/Ownable.sol\":2912:3099  function _transferOwnership(address newOwner) internal virtual {... */\ntag_11:\n    /* \"@openzeppelin/contracts/access/Ownable.sol\":2985:3001  address oldOwner */\n  0x00\n    /* \"@openzeppelin/contracts/access/Ownable.sol\":3004:3010  _owner */\n  dup1\n  0x00\n  swap1\n  sload\n  swap1\n  0x0100\n  exp\n  swap1\n  div\n  0xffffffffffffffffffffffffffffffffffffffff\n  and\n    /* \"@openzeppelin/contracts/access/Ownable.sol\":2985:3010  address oldOwner = _owner */\n  swap1\n  pop\n    /* \"@openzeppelin/contracts/access/Ownable.sol\":3029:3037  newOwner */\n  dup2\n    /* \"@openzeppelin/contracts/access/Ownable.sol\":3020:3026  _owner */\n  0x00\n  dup1\n    /* \"@openzeppelin/contracts/access/Ownable.sol\":3020:3037  _owner = newOwner */\n  0x0100\n  exp\n  dup2\n  sload\n  dup2\n  0xffffffffffffffffffffffffffffffffffffffff\n  mul\n  not\n  and\n  swap1\n  dup4\n  0xffffffffffffffffffffffffffffffffffffffff\n  and\n  mul\n  or\n  swap1\n  sstore\n  pop\n    /* \"@openzeppelin/contracts/access/Ownable.sol\":3083:3091  newOwner */\n  dup2\n    /* \"@openzeppelin/contracts/access/Ownable.sol\":3052:3092  OwnershipTransferred(oldOwner, newOwner) */\n  0xffffffffffffffffffffffffffffffffffffffff\n  and\n    /* \"@openzeppelin/contracts/access/Ownable.sol\":3073:3081  oldOwner */\n  dup2\n    /* \"@openzeppelin/contracts/access/Ownable.sol\":3052:3092  OwnershipTransferred(oldOwner, newOwner) */\n  0xffffffffffffffffffffffffffffffffffffffff\n  and\n  0x8be0079c531659141344cd1fd0a4f28419497f9722a3daafe3b4186f6b6457e0\n  mload(0x40)\n  mload(0x40)\n  dup1\n  swap2\n  sub\n  swap1\n  log3\n    /* \"@openzeppelin/contracts/access/Ownable.sol\":2975:3099  {... */\n  pop\n    /* \"@openzeppelin/contracts/access/Ownable.sol\":2912:3099  function _transferOwnership(address newOwner) internal virtual {... */\n  pop\n  jump\t// out\n    /* \"#utility.yul\":88:205   */\ntag_16:\n    /* \"#utility.yul\":197:198   */\n  0x00\n    /* \"#utility.yul\":194:195   */\n  dup1\n    /* \"#utility.yul\":187:199   */\n  revert\n    /* \"#utility.yul\":334:460   */\ntag_18:\n    /* \"#utility.yul\":371:378   */\n  0x00\n    /* \"#utility.yul\":411:453   */\n  0xffffffffffffffffffffffffffffffffffffffff\n    /* \"#utility.yul\":404:409   */\n  dup3\n    /* \"#utility.yul\":400:454   */\n  and\n    /* \"#utility.yul\":389:454   */\n  swap1\n  pop\n    /* \"#utility.yul\":334:460   */\n  swap2\n  swap1\n  pop\n  jump\t// out\n    /* \"#utility.yul\":466:562   */\ntag_19:\n    /* \"#utility.yul\":503:510   */\n  0x00\n    /* \"#utility.yul\":532:556   */\n  tag_29\n    /* \"#utility.yul\":550:555   */\n  dup3\n    /* \"#utility.yul\":532:556   */\n  tag_18\n  jump\t// in\ntag_29:\n    /* \"#utility.yul\":521:556   */\n  swap1\n  pop\n    /* \"#utility.yul\":466:562   */\n  swap2\n  swap1\n  pop\n  jump\t// out\n    /* \"#utility.yul\":568:690   */\ntag_20:\n    /* \"#utility.yul\":641:665   */\n  tag_31\n    /* \"#utility.yul\":659:664   */\n  dup2\n    /* \"#utility.yul\":641:665   */\n  tag_19\n  jump\t// in\ntag_31:\n    /* \"#utility.yul\":634:639   */\n  dup2\n    /* \"#utility.yul\":631:666   */\n  eq\n    /* \"#utility.yul\":621:684   */\n  tag_32\n  jumpi\n    /* \"#utility.yul\":680:681   */\n  0x00\n    /* \"#utility.yul\":677:678   */\n  dup1\n    /* \"#utility.yul\":670:682   */\n  revert\n    /* \"#utility.yul\":621:684   */\ntag_32:\n    /* \"#utility.yul\":568:690   */\n  pop\n  jump\t// out\n    /* \"#utility.yul\":696:839   */\ntag_21:\n    /* \"#utility.yul\":753:758   */\n  0x00\n    /* \"#utility.yul\":784:790   */\n  dup2\n    /* \"#utility.yul\":778:791   */\n  mload\n    /* \"#utility.yul\":769:791   */\n  swap1\n  pop\n    /* \"#utility.yul\":800:833   */\n  tag_34\n    /* \"#utility.yul\":827:832   */\n  dup2\n    /* \"#utility.yul\":800:833   */\n  tag_20\n  jump\t// in\ntag_34:\n    /* \"#utility.yul\":696:839   */\n  swap3\n  swap2\n  pop\n  pop\n  jump\t// out\n    /* \"#utility.yul\":845:1196   */\ntag_3:\n    /* \"#utility.yul\":915:921   */\n  0x00\n    /* \"#utility.yul\":964:966   */\n  0x20\n    /* \"#utility.yul\":952:961   */\n  dup3\n    /* \"#utility.yul\":943:950   */\n  dup5\n    /* \"#utility.yul\":939:962   */\n  sub\n    /* \"#utility.yul\":935:967   */\n  slt\n    /* \"#utility.yul\":932:1051   */\n  iszero\n  tag_36\n  jumpi\n    /* \"#utility.yul\":970:1049   */\n  tag_37\n  tag_16\n  jump\t// in\ntag_37:\n    /* \"#utility.yul\":932:1051   */\ntag_36:\n    /* \"#utility.yul\":1090:1091   */\n  0x00\n    /* \"#utility.yul\":1115:1179   */\n  tag_38\n    /* \"#utility.yul\":1171:1178   */\n  dup5\n    /* \"#utility.yul\":1162:1168   */\n  dup3\n    /* \"#utility.yul\":1151:1160   */\n  dup6\n    /* \"#utility.yul\":1147:1169   */\n  add\n    /* \"#utility.yul\":1115:1179   */\n  tag_21\n  jump\t// in\ntag_38:\n    /* \"#utility.yul\":1105:1179   */\n  swap2\n  pop\n    /* \"#utility.yul\":1061:1189   */\n  pop\n    /* \"#utility.yul\":845:1196   */\n  swap3\n  swap2\n  pop\n  pop\n  jump\t// out\n    /* \"#utility.yul\":1202:1320   */\ntag_22:\n    /* \"#utility.yul\":1289:1313   */\n  tag_40\n    /* \"#utility.yul\":1307:1312   */\n  dup2\n    /* \"#utility.yul\":1289:1313   */\n  tag_19\n  jump\t// in\ntag_40:\n    /* \"#utility.yul\":1284:1287   */\n  dup3\n    /* \"#utility.yul\":1277:1314   */\n  mstore\n    /* \"#utility.yul\":1202:1320   */\n  pop\n  pop\n  jump\t// out\n    /* \"#utility.yul\":1326:1548   */\ntag_9:\n    /* \"#utility.yul\":1419:1423   */\n  0x00\n    /* \"#utility.yul\":1457:1459   */\n  0x20\n    /* \"#utility.yul\":1446:1455   */\n  dup3\n    /* \"#utility.yul\":1442:1460   */\n  add\n    /* \"#utility.yul\":1434:1460   */\n  swap1\n  pop\n    /* \"#utility.yul\":1470:1541   */\n  tag_42\n    /* \"#utility.yul\":1538:1539   */\n  0x00\n    /* \"#utility.yul\":1527:1536   */\n  dup4\n    /* \"#utility.yul\":1523:1540   */\n  add\n    /* \"#utility.yul\":1514:1520   */\n  dup5\n    /* \"#utility.yul\":1470:1541   */\n  tag_22\n  jump\t// in\ntag_42:\n    /* \"#utility.yul\":1326:1548   */\n  swap3\n  swap2\n  pop\n  pop\n  jump\t// out\n    /* \"practice/29_TwitterInteractionMain.sol\":813:3771  contract Twitter is Ownable {... */\ntag_13:\n  dataSize(sub_0)\n  dup1\n  dataOffset(sub_0)\n  0x00\n  codecopy\n  0x00\n  return\nstop\n\nsub_0: assembly {\n        /* \"practice/29_TwitterInteractionMain.sol\":813:3771  contract Twitter is Ownable {... */\n      mstore(0x40, 0x80)\n      callvalue\n      dup1\n      iszero\n      tag_1\n      jumpi\n      0x00\n      dup1\n      revert\n    tag_1:\n      pop\n      jumpi(tag_2, lt(calldatasize, 0x04))\n      shr(0xe0, calldataload(0x00))\n      dup1\n      0x7c9cd2bc\n      gt\n      tag_16\n      jumpi\n      dup1\n      0xa3974b21\n      gt\n      tag_17\n      jumpi\n      dup1\n      0xa3974b21\n      eq\n      tag_12\n      jumpi\n      dup1\n      0xc3ad5ecb\n      eq\n      tag_13\n      jumpi\n      dup1\n      0xf2fde38b\n      eq\n      tag_14\n      jumpi\n      dup1\n      0xf65a8f40\n      eq\n      tag_15\n      jumpi\n      jump(tag_2)\n    tag_17:\n      dup1\n      0x7c9cd2bc\n      eq\n      tag_9\n      jumpi\n      dup1\n      0x820785cc\n      eq\n      tag_10\n      jumpi\n      dup1\n      0x8da5cb5b\n      eq\n      tag_11\n      jumpi\n      jump(tag_2)\n    tag_16:\n      dup1\n      0x05a1b4a9\n      eq\n      tag_3\n      jumpi\n      dup1\n      0x12e7ee1c\n      eq\n      tag_4\n      jumpi\n      dup1\n      0x58bfa4ab\n      eq\n      tag_5\n      jumpi\n      dup1\n      0x6eb10797\n      eq\n      tag_6\n      jumpi\n      dup1\n      0x715018a6\n      eq\n      tag_7\n      jumpi\n      dup1\n      0x7a639e39\n      eq\n      tag_8\n      jumpi\n    tag_2:\n      0x00\n      dup1\n      revert\n        /* \"practice/29_TwitterInteractionMain.sol\":1126:1167  mapping(address => Tweet[]) public tweets */\n    tag_3:\n      tag_18\n      0x04\n      dup1\n      calldatasize\n      sub\n      dup2\n      add\n      swap1\n      tag_19\n      swap2\n      swap1\n      tag_20\n      jump\t// in\n    tag_19:\n      tag_21\n      jump\t// in\n    tag_18:\n      mload(0x40)\n      tag_22\n      swap6\n      swap5\n      swap4\n      swap3\n      swap2\n      swap1\n      tag_23\n      jump\t// in\n    tag_22:\n      mload(0x40)\n      dup1\n      swap2\n      sub\n      swap1\n      return\n        /* \"practice/29_TwitterInteractionMain.sol\":2730:2845  function getAllTweets(address _owner) public view returns (Tweet[] memory) {... */\n    tag_4:\n      tag_24\n      0x04\n      dup1\n      calldatasize\n      sub\n      dup2\n      add\n      swap1\n      tag_25\n      swap2\n      swap1\n      tag_26\n      jump\t// in\n    tag_25:\n      tag_27\n      jump\t// in\n    tag_24:\n      mload(0x40)\n      tag_28\n      swap2\n      swap1\n      tag_29\n      jump\t// in\n    tag_28:\n      mload(0x40)\n      dup1\n      swap2\n      sub\n      swap1\n      return\n        /* \"practice/29_TwitterInteractionMain.sol\":1954:2073  function changeTweetLength(uint16 newTweetLength) public onlyOwner {... */\n    tag_5:\n      tag_30\n      0x04\n      dup1\n      calldatasize\n      sub\n      dup2\n      add\n      swap1\n      tag_31\n      swap2\n      swap1\n      tag_32\n      jump\t// in\n    tag_31:\n      tag_33\n      jump\t// in\n    tag_30:\n      stop\n        /* \"practice/29_TwitterInteractionMain.sol\":850:886  uint16 public MAX_TWEET_LENGTH = 280 */\n    tag_6:\n      tag_34\n      tag_35\n      jump\t// in\n    tag_34:\n      mload(0x40)\n      tag_36\n      swap2\n      swap1\n      tag_37\n      jump\t// in\n    tag_36:\n      mload(0x40)\n      dup1\n      swap2\n      sub\n      swap1\n      return\n        /* \"@openzeppelin/contracts/access/Ownable.sol\":2293:2394  function renounceOwnership() public virtual onlyOwner {... */\n    tag_7:\n      tag_38\n      tag_39\n      jump\t// in\n    tag_38:\n      stop\n        /* \"practice/29_TwitterInteractionMain.sol\":3119:3452  function removeLike(uint256 id, address author) external onlyRegistered {... */\n    tag_8:\n      tag_40\n      0x04\n      dup1\n      calldatasize\n      sub\n      dup2\n      add\n      swap1\n      tag_41\n      swap2\n      swap1\n      tag_42\n      jump\t// in\n    tag_41:\n      tag_43\n      jump\t// in\n    tag_40:\n      stop\n        /* \"practice/29_TwitterInteractionMain.sol\":2081:2604  function createTweet(string memory _tweet) public onlyRegistered {... */\n    tag_9:\n      tag_44\n      0x04\n      dup1\n      calldatasize\n      sub\n      dup2\n      add\n      swap1\n      tag_45\n      swap2\n      swap1\n      tag_46\n      jump\t// in\n    tag_45:\n      tag_47\n      jump\t// in\n    tag_44:\n      stop\n        /* \"practice/29_TwitterInteractionMain.sol\":3485:3768  function getTotalLikes(address _author) external returns(uint) {... */\n    tag_10:\n      tag_48\n      0x04\n      dup1\n      calldatasize\n      sub\n      dup2\n      add\n      swap1\n      tag_49\n      swap2\n      swap1\n      tag_26\n      jump\t// in\n    tag_49:\n      tag_50\n      jump\t// in\n    tag_48:\n      mload(0x40)\n      tag_51\n      swap2\n      swap1\n      tag_52\n      jump\t// in\n    tag_51:\n      mload(0x40)\n      dup1\n      swap2\n      sub\n      swap1\n      return\n        /* \"@openzeppelin/contracts/access/Ownable.sol\":1638:1723  function owner() public view virtual returns (address) {... */\n    tag_11:\n      tag_53\n      tag_54\n      jump\t// in\n    tag_53:\n      mload(0x40)\n      tag_55\n      swap2\n      swap1\n      tag_56\n      jump\t// in\n    tag_55:\n      mload(0x40)\n      dup1\n      swap2\n      sub\n      swap1\n      return\n        /* \"practice/29_TwitterInteractionMain.sol\":936:967  IProfile public profileContract */\n    tag_12:\n      tag_57\n      tag_58\n      jump\t// in\n    tag_57:\n      mload(0x40)\n      tag_59\n      swap2\n      swap1\n      tag_60\n      jump\t// in\n    tag_59:\n      mload(0x40)\n      dup1\n      swap2\n      sub\n      swap1\n      return\n        /* \"practice/29_TwitterInteractionMain.sol\":2612:2722  function getTweet(uint _i) public view returns (Tweet memory) {... */\n    tag_13:\n      tag_61\n      0x04\n      dup1\n      calldatasize\n      sub\n      dup2\n      add\n      swap1\n      tag_62\n      swap2\n      swap1\n      tag_63\n      jump\t// in\n    tag_62:\n      tag_64\n      jump\t// in\n    tag_61:\n      mload(0x40)\n      tag_65\n      swap2\n      swap1\n      tag_66\n      jump\t// in\n    tag_65:\n      mload(0x40)\n      dup1\n      swap2\n      sub\n      swap1\n      return\n        /* \"@openzeppelin/contracts/access/Ownable.sol\":2543:2758  function transferOwnership(address newOwner) public virtual onlyOwner {... */\n    tag_14:\n      tag_67\n      0x04\n      dup1\n      calldatasize\n      sub\n      dup2\n      add\n      swap1\n      tag_68\n      swap2\n      swap1\n      tag_26\n      jump\t// in\n    tag_68:\n      tag_69\n      jump\t// in\n    tag_67:\n      stop\n        /* \"practice/29_TwitterInteractionMain.sol\":2853:3111  function addLike(address author, uint256 id) external onlyRegistered {... */\n    tag_15:\n      tag_70\n      0x04\n      dup1\n      calldatasize\n      sub\n      dup2\n      add\n      swap1\n      tag_71\n      swap2\n      swap1\n      tag_20\n      jump\t// in\n    tag_71:\n      tag_72\n      jump\t// in\n    tag_70:\n      stop\n        /* \"practice/29_TwitterInteractionMain.sol\":1126:1167  mapping(address => Tweet[]) public tweets */\n    tag_21:\n      mstore(0x20, 0x02)\n      dup2\n      0x00\n      mstore\n      keccak256(0x00, 0x40)\n      dup2\n      dup2\n      sload\n      dup2\n      lt\n      tag_73\n      jumpi\n      0x00\n      dup1\n      revert\n    tag_73:\n      swap1\n      0x00\n      mstore\n      keccak256(0x00, 0x20)\n      swap1\n      0x05\n      mul\n      add\n      0x00\n      swap2\n      pop\n      swap2\n      pop\n      pop\n      dup1\n      0x00\n      add\n      0x00\n      swap1\n      sload\n      swap1\n      0x0100\n      exp\n      swap1\n      div\n      0xffffffffffffffffffffffffffffffffffffffff\n      and\n      swap1\n      dup1\n      0x01\n      add\n      dup1\n      sload\n      tag_75\n      swap1\n      tag_76\n      jump\t// in\n    tag_75:\n      dup1\n      0x1f\n      add\n      0x20\n      dup1\n      swap2\n      div\n      mul\n      0x20\n      add\n      mload(0x40)\n      swap1\n      dup2\n      add\n      0x40\n      mstore\n      dup1\n      swap3\n      swap2\n      swap1\n      dup2\n      dup2\n      mstore\n      0x20\n      add\n      dup3\n      dup1\n      sload\n      tag_77\n      swap1\n      tag_76\n      jump\t// in\n    tag_77:\n      dup1\n      iszero\n      tag_78\n      jumpi\n      dup1\n      0x1f\n      lt\n      tag_79\n      jumpi\n      0x0100\n      dup1\n      dup4\n      sload\n      div\n      mul\n      dup4\n      mstore\n      swap2\n      0x20\n      add\n      swap2\n      jump(tag_78)\n    tag_79:\n      dup3\n      add\n      swap2\n      swap1\n      0x00\n      mstore\n      keccak256(0x00, 0x20)\n      swap1\n    tag_80:\n      dup2\n      sload\n      dup2\n      mstore\n      swap1\n      0x01\n      add\n      swap1\n      0x20\n      add\n      dup1\n      dup4\n      gt\n      tag_80\n      jumpi\n      dup3\n      swap1\n      sub\n      0x1f\n      and\n      dup3\n      add\n      swap2\n    tag_78:\n      pop\n      pop\n      pop\n      pop\n      pop\n      swap1\n      dup1\n      0x02\n      add\n      sload\n      swap1\n      dup1\n      0x03\n      add\n      sload\n      swap1\n      dup1\n      0x04\n      add\n      sload\n      swap1\n      pop\n      dup6\n      jump\t// out\n        /* \"practice/29_TwitterInteractionMain.sol\":2730:2845  function getAllTweets(address _owner) public view returns (Tweet[] memory) {... */\n    tag_27:\n        /* \"practice/29_TwitterInteractionMain.sol\":2789:2803  Tweet[] memory */\n      0x60\n        /* \"practice/29_TwitterInteractionMain.sol\":2823:2829  tweets */\n      0x02\n        /* \"practice/29_TwitterInteractionMain.sol\":2823:2837  tweets[_owner] */\n      0x00\n        /* \"practice/29_TwitterInteractionMain.sol\":2830:2836  _owner */\n      dup4\n        /* \"practice/29_TwitterInteractionMain.sol\":2823:2837  tweets[_owner] */\n      0xffffffffffffffffffffffffffffffffffffffff\n      and\n      0xffffffffffffffffffffffffffffffffffffffff\n      and\n      dup2\n      mstore\n      0x20\n      add\n      swap1\n      dup2\n      mstore\n      0x20\n      add\n      0x00\n      keccak256\n        /* \"practice/29_TwitterInteractionMain.sol\":2816:2837  return tweets[_owner] */\n      dup1\n      sload\n      dup1\n      0x20\n      mul\n      0x20\n      add\n      mload(0x40)\n      swap1\n      dup2\n      add\n      0x40\n      mstore\n      dup1\n      swap3\n      swap2\n      swap1\n      dup2\n      dup2\n      mstore\n      0x20\n      add\n      0x00\n      swap1\n    tag_82:\n      dup3\n      dup3\n      lt\n      iszero\n      tag_83\n      jumpi\n      dup4\n      dup3\n      swap1\n      0x00\n      mstore\n      keccak256(0x00, 0x20)\n      swap1\n      0x05\n      mul\n      add\n      mload(0x40)\n      dup1\n      0xa0\n      add\n      0x40\n      mstore\n      swap1\n      dup2\n      0x00\n      dup3\n      add\n      0x00\n      swap1\n      sload\n      swap1\n      0x0100\n      exp\n      swap1\n      div\n      0xffffffffffffffffffffffffffffffffffffffff\n      and\n      0xffffffffffffffffffffffffffffffffffffffff\n      and\n      0xffffffffffffffffffffffffffffffffffffffff\n      and\n      dup2\n      mstore\n      0x20\n      add\n      0x01\n      dup3\n      add\n      dup1\n      sload\n      tag_85\n      swap1\n      tag_76\n      jump\t// in\n    tag_85:\n      dup1\n      0x1f\n      add\n      0x20\n      dup1\n      swap2\n      div\n      mul\n      0x20\n      add\n      mload(0x40)\n      swap1\n      dup2\n      add\n      0x40\n      mstore\n      dup1\n      swap3\n      swap2\n      swap1\n      dup2\n      dup2\n      mstore\n      0x20\n      add\n      dup3\n      dup1\n      sload\n      tag_86\n      swap1\n      tag_76\n      jump\t// in\n    tag_86:\n      dup1\n      iszero\n      tag_87\n      jumpi\n      dup1\n      0x1f\n      lt\n      tag_88\n      jumpi\n      0x0100\n      dup1\n      dup4\n      sload\n      div\n      mul\n      dup4\n      mstore\n      swap2\n      0x20\n      add\n      swap2\n      jump(tag_87)\n    tag_88:\n      dup3\n      add\n      swap2\n      swap1\n      0x00\n      mstore\n      keccak256(0x00, 0x20)\n      swap1\n    tag_89:\n      dup2\n      sload\n      dup2\n      mstore\n      swap1\n      0x01\n      add\n      swap1\n      0x20\n      add\n      dup1\n      dup4\n      gt\n      tag_89\n      jumpi\n      dup3\n      swap1\n      sub\n      0x1f\n      and\n      dup3\n      add\n      swap2\n    tag_87:\n      pop\n      pop\n      pop\n      pop\n      pop\n      dup2\n      mstore\n      0x20\n      add\n      0x02\n      dup3\n      add\n      sload\n      dup2\n      mstore\n      0x20\n      add\n      0x03\n      dup3\n      add\n      sload\n      dup2\n      mstore\n      0x20\n      add\n      0x04\n      dup3\n      add\n      sload\n      dup2\n      mstore\n      pop\n      pop\n      dup2\n      mstore\n      0x20\n      add\n      swap1\n      0x01\n      add\n      swap1\n      jump(tag_82)\n    tag_83:\n      pop\n      pop\n      pop\n      pop\n      swap1\n      pop\n        /* \"practice/29_TwitterInteractionMain.sol\":2730:2845  function getAllTweets(address _owner) public view returns (Tweet[] memory) {... */\n      swap2\n      swap1\n      pop\n      jump\t// out\n        /* \"practice/29_TwitterInteractionMain.sol\":1954:2073  function changeTweetLength(uint16 newTweetLength) public onlyOwner {... */\n    tag_33:\n        /* \"@openzeppelin/contracts/access/Ownable.sol\":1531:1544  _checkOwner() */\n      tag_91\n        /* \"@openzeppelin/contracts/access/Ownable.sol\":1531:1542  _checkOwner */\n      tag_92\n        /* \"@openzeppelin/contracts/access/Ownable.sol\":1531:1544  _checkOwner() */\n      jump\t// in\n    tag_91:\n        /* \"practice/29_TwitterInteractionMain.sol\":2051:2065  newTweetLength */\n      dup1\n        /* \"practice/29_TwitterInteractionMain.sol\":2032:2048  MAX_TWEET_LENGTH */\n      0x00\n      0x14\n        /* \"practice/29_TwitterInteractionMain.sol\":2032:2065  MAX_TWEET_LENGTH = newTweetLength */\n      0x0100\n      exp\n      dup2\n      sload\n      dup2\n      0xffff\n      mul\n      not\n      and\n      swap1\n      dup4\n      0xffff\n      and\n      mul\n      or\n      swap1\n      sstore\n      pop\n        /* \"practice/29_TwitterInteractionMain.sol\":1954:2073  function changeTweetLength(uint16 newTweetLength) public onlyOwner {... */\n      pop\n      jump\t// out\n        /* \"practice/29_TwitterInteractionMain.sol\":850:886  uint16 public MAX_TWEET_LENGTH = 280 */\n    tag_35:\n      0x00\n      0x14\n      swap1\n      sload\n      swap1\n      0x0100\n      exp\n      swap1\n      div\n      0xffff\n      and\n      dup2\n      jump\t// out\n        /* \"@openzeppelin/contracts/access/Ownable.sol\":2293:2394  function renounceOwnership() public virtual onlyOwner {... */\n    tag_39:\n        /* \"@openzeppelin/contracts/access/Ownable.sol\":1531:1544  _checkOwner() */\n      tag_95\n        /* \"@openzeppelin/contracts/access/Ownable.sol\":1531:1542  _checkOwner */\n      tag_92\n        /* \"@openzeppelin/contracts/access/Ownable.sol\":1531:1544  _checkOwner() */\n      jump\t// in\n    tag_95:\n        /* \"@openzeppelin/contracts/access/Ownable.sol\":2357:2387  _transferOwnership(address(0)) */\n      tag_97\n        /* \"@openzeppelin/contracts/access/Ownable.sol\":2384:2385  0 */\n      0x00\n        /* \"@openzeppelin/contracts/access/Ownable.sol\":2357:2375  _transferOwnership */\n      tag_98\n        /* \"@openzeppelin/contracts/access/Ownable.sol\":2357:2387  _transferOwnership(address(0)) */\n      jump\t// in\n    tag_97:\n        /* \"@openzeppelin/contracts/access/Ownable.sol\":2293:2394  function renounceOwnership() public virtual onlyOwner {... */\n      jump\t// out\n        /* \"practice/29_TwitterInteractionMain.sol\":3119:3452  function removeLike(uint256 id, address author) external onlyRegistered {... */\n    tag_43:\n        /* \"practice/29_TwitterInteractionMain.sol\":1573:1616  IProfile.UserProfile memory userProfileTemp */\n      0x00\n        /* \"practice/29_TwitterInteractionMain.sol\":1619:1634  profileContract */\n      0x01\n      0x00\n      swap1\n      sload\n      swap1\n      0x0100\n      exp\n      swap1\n      div\n      0xffffffffffffffffffffffffffffffffffffffff\n      and\n        /* \"practice/29_TwitterInteractionMain.sol\":1619:1645  profileContract.getProfile */\n      0xffffffffffffffffffffffffffffffffffffffff\n      and\n      0x0f53a470\n        /* \"practice/29_TwitterInteractionMain.sol\":1646:1656  msg.sender */\n      caller\n        /* \"practice/29_TwitterInteractionMain.sol\":1619:1657  profileContract.getProfile(msg.sender) */\n      mload(0x40)\n      dup3\n      0xffffffff\n      and\n      0xe0\n      shl\n      dup2\n      mstore\n      0x04\n      add\n      tag_100\n      swap2\n      swap1\n      tag_56\n      jump\t// in\n    tag_100:\n      0x00\n      mload(0x40)\n      dup1\n      dup4\n      sub\n      dup2\n      dup7\n      gas\n      staticcall\n      iszero\n      dup1\n      iszero\n      tag_102\n      jumpi\n      returndatasize\n      0x00\n      dup1\n      returndatacopy\n      revert(0x00, returndatasize)\n    tag_102:\n      pop\n      pop\n      pop\n      pop\n      mload(0x40)\n      returndatasize\n      0x00\n      dup3\n      returndatacopy\n      returndatasize\n      not(0x1f)\n      0x1f\n      dup3\n      add\n      and\n      dup3\n      add\n      dup1\n      0x40\n      mstore\n      pop\n      dup2\n      add\n      swap1\n      tag_103\n      swap2\n      swap1\n      tag_104\n      jump\t// in\n    tag_103:\n        /* \"practice/29_TwitterInteractionMain.sol\":1573:1657  IProfile.UserProfile memory userProfileTemp = profileContract.getProfile(msg.sender) */\n      swap1\n      pop\n        /* \"practice/29_TwitterInteractionMain.sol\":1720:1721  0 */\n      0x00\n        /* \"practice/29_TwitterInteractionMain.sol\":1682:1697  userProfileTemp */\n      dup2\n        /* \"practice/29_TwitterInteractionMain.sol\":1682:1709  userProfileTemp.displayName */\n      0x00\n      add\n      mload\n        /* \"practice/29_TwitterInteractionMain.sol\":1676:1717  bytes(userProfileTemp.displayName).length */\n      mload\n        /* \"practice/29_TwitterInteractionMain.sol\":1676:1721  bytes(userProfileTemp.displayName).length > 0 */\n      gt\n        /* \"practice/29_TwitterInteractionMain.sol\":1668:1745  require(bytes(userProfileTemp.displayName).length > 0, \"User not registered\") */\n      tag_105\n      jumpi\n      mload(0x40)\n      0x08c379a000000000000000000000000000000000000000000000000000000000\n      dup2\n      mstore\n      0x04\n      add\n      tag_106\n      swap1\n      tag_107\n      jump\t// in\n    tag_106:\n      mload(0x40)\n      dup1\n      swap2\n      sub\n      swap1\n      revert\n    tag_105:\n        /* \"practice/29_TwitterInteractionMain.sol\":3235:3237  id */\n      dup3\n        /* \"practice/29_TwitterInteractionMain.sol\":3210:3216  tweets */\n      0x02\n        /* \"practice/29_TwitterInteractionMain.sol\":3210:3224  tweets[author] */\n      0x00\n        /* \"practice/29_TwitterInteractionMain.sol\":3217:3223  author */\n      dup5\n        /* \"practice/29_TwitterInteractionMain.sol\":3210:3224  tweets[author] */\n      0xffffffffffffffffffffffffffffffffffffffff\n      and\n      0xffffffffffffffffffffffffffffffffffffffff\n      and\n      dup2\n      mstore\n      0x20\n      add\n      swap1\n      dup2\n      mstore\n      0x20\n      add\n      0x00\n      keccak256\n        /* \"practice/29_TwitterInteractionMain.sol\":3225:3227  id */\n      dup5\n        /* \"practice/29_TwitterInteractionMain.sol\":3210:3228  tweets[author][id] */\n      dup2\n      sload\n      dup2\n      lt\n      tag_109\n      jumpi\n      tag_110\n      tag_111\n      jump\t// in\n    tag_110:\n    tag_109:\n      swap1\n      0x00\n      mstore\n      keccak256(0x00, 0x20)\n      swap1\n      0x05\n      mul\n      add\n        /* \"practice/29_TwitterInteractionMain.sol\":3210:3231  tweets[author][id].id */\n      0x04\n      add\n      sload\n        /* \"practice/29_TwitterInteractionMain.sol\":3210:3237  tweets[author][id].id == id */\n      eq\n        /* \"practice/29_TwitterInteractionMain.sol\":3202:3257  require(tweets[author][id].id == id, \"Tweet not found\") */\n      tag_113\n      jumpi\n      mload(0x40)\n      0x08c379a000000000000000000000000000000000000000000000000000000000\n      dup2\n      mstore\n      0x04\n      add\n      tag_114\n      swap1\n      tag_115\n      jump\t// in\n    tag_114:\n      mload(0x40)\n      dup1\n      swap2\n      sub\n      swap1\n      revert\n    tag_113:\n        /* \"practice/29_TwitterInteractionMain.sol\":3303:3304  0 */\n      0x00\n        /* \"practice/29_TwitterInteractionMain.sol\":3276:3282  tweets */\n      0x02\n        /* \"practice/29_TwitterInteractionMain.sol\":3276:3290  tweets[author] */\n      0x00\n        /* \"practice/29_TwitterInteractionMain.sol\":3283:3289  author */\n      dup5\n        /* \"practice/29_TwitterInteractionMain.sol\":3276:3290  tweets[author] */\n      0xffffffffffffffffffffffffffffffffffffffff\n      and\n      0xffffffffffffffffffffffffffffffffffffffff\n      and\n      dup2\n      mstore\n      0x20\n      add\n      swap1\n      dup2\n      mstore\n      0x20\n      add\n      0x00\n      keccak256\n        /* \"practice/29_TwitterInteractionMain.sol\":3291:3293  id */\n      dup5\n        /* \"practice/29_TwitterInteractionMain.sol\":3276:3294  tweets[author][id] */\n      dup2\n      sload\n      dup2\n      lt\n      tag_116\n      jumpi\n      tag_117\n      tag_111\n      jump\t// in\n    tag_117:\n    tag_116:\n      swap1\n      0x00\n      mstore\n      keccak256(0x00, 0x20)\n      swap1\n      0x05\n      mul\n      add\n        /* \"practice/29_TwitterInteractionMain.sol\":3276:3300  tweets[author][id].likes */\n      0x03\n      add\n      sload\n        /* \"practice/29_TwitterInteractionMain.sol\":3276:3304  tweets[author][id].likes > 0 */\n      gt\n        /* \"practice/29_TwitterInteractionMain.sol\":3268:3327  require(tweets[author][id].likes > 0, \"Cannot remove like\") */\n      tag_119\n      jumpi\n      mload(0x40)\n      0x08c379a000000000000000000000000000000000000000000000000000000000\n      dup2\n      mstore\n      0x04\n      add\n      tag_120\n      swap1\n      tag_121\n      jump\t// in\n    tag_120:\n      mload(0x40)\n      dup1\n      swap2\n      sub\n      swap1\n      revert\n    tag_119:\n        /* \"practice/29_TwitterInteractionMain.sol\":3338:3344  tweets */\n      0x02\n        /* \"practice/29_TwitterInteractionMain.sol\":3338:3352  tweets[author] */\n      0x00\n        /* \"practice/29_TwitterInteractionMain.sol\":3345:3351  author */\n      dup4\n        /* \"practice/29_TwitterInteractionMain.sol\":3338:3352  tweets[author] */\n      0xffffffffffffffffffffffffffffffffffffffff\n      and\n      0xffffffffffffffffffffffffffffffffffffffff\n      and\n      dup2\n      mstore\n      0x20\n      add\n      swap1\n      dup2\n      mstore\n      0x20\n      add\n      0x00\n      keccak256\n        /* \"practice/29_TwitterInteractionMain.sol\":3353:3355  id */\n      dup4\n        /* \"practice/29_TwitterInteractionMain.sol\":3338:3356  tweets[author][id] */\n      dup2\n      sload\n      dup2\n      lt\n      tag_122\n      jumpi\n      tag_123\n      tag_111\n      jump\t// in\n    tag_123:\n    tag_122:\n      swap1\n      0x00\n      mstore\n      keccak256(0x00, 0x20)\n      swap1\n      0x05\n      mul\n      add\n        /* \"practice/29_TwitterInteractionMain.sol\":3338:3362  tweets[author][id].likes */\n      0x03\n      add\n      0x00\n        /* \"practice/29_TwitterInteractionMain.sol\":3338:3364  tweets[author][id].likes-- */\n      dup2\n      sload\n      dup1\n      swap3\n      swap2\n      swap1\n      tag_125\n      swap1\n      tag_126\n      jump\t// in\n    tag_125:\n      swap2\n      swap1\n      pop\n      sstore\n      pop\n        /* \"practice/29_TwitterInteractionMain.sol\":3382:3444  TweetUnliked(msg.sender, author, id, tweets[author][id].likes) */\n      0x762c2616349603ac16eba0de8e6141b79129a07ab63bd99e0a80b3a471716943\n        /* \"practice/29_TwitterInteractionMain.sol\":3395:3405  msg.sender */\n      caller\n        /* \"practice/29_TwitterInteractionMain.sol\":3407:3413  author */\n      dup4\n        /* \"practice/29_TwitterInteractionMain.sol\":3415:3417  id */\n      dup6\n        /* \"practice/29_TwitterInteractionMain.sol\":3419:3425  tweets */\n      0x02\n        /* \"practice/29_TwitterInteractionMain.sol\":3419:3433  tweets[author] */\n      0x00\n        /* \"practice/29_TwitterInteractionMain.sol\":3426:3432  author */\n      dup8\n        /* \"practice/29_TwitterInteractionMain.sol\":3419:3433  tweets[author] */\n      0xffffffffffffffffffffffffffffffffffffffff\n      and\n      0xffffffffffffffffffffffffffffffffffffffff\n      and\n      dup2\n      mstore\n      0x20\n      add\n      swap1\n      dup2\n      mstore\n      0x20\n      add\n      0x00\n      keccak256\n        /* \"practice/29_TwitterInteractionMain.sol\":3434:3436  id */\n      dup8\n        /* \"practice/29_TwitterInteractionMain.sol\":3419:3437  tweets[author][id] */\n      dup2\n      sload\n      dup2\n      lt\n      tag_127\n      jumpi\n      tag_128\n      tag_111\n      jump\t// in\n    tag_128:\n    tag_127:\n      swap1\n      0x00\n      mstore\n      keccak256(0x00, 0x20)\n      swap1\n      0x05\n      mul\n      add\n        /* \"practice/29_TwitterInteractionMain.sol\":3419:3443  tweets[author][id].likes */\n      0x03\n      add\n      sload\n        /* \"practice/29_TwitterInteractionMain.sol\":3382:3444  TweetUnliked(msg.sender, author, id, tweets[author][id].likes) */\n      mload(0x40)\n      tag_130\n      swap5\n      swap4\n      swap3\n      swap2\n      swap1\n      tag_131\n      jump\t// in\n    tag_130:\n      mload(0x40)\n      dup1\n      swap2\n      sub\n      swap1\n      log1\n        /* \"practice/29_TwitterInteractionMain.sol\":1562:1765  {... */\n      pop\n        /* \"practice/29_TwitterInteractionMain.sol\":3119:3452  function removeLike(uint256 id, address author) external onlyRegistered {... */\n      pop\n      pop\n      jump\t// out\n        /* \"practice/29_TwitterInteractionMain.sol\":2081:2604  function createTweet(string memory _tweet) public onlyRegistered {... */\n    tag_47:\n        /* \"practice/29_TwitterInteractionMain.sol\":1573:1616  IProfile.UserProfile memory userProfileTemp */\n      0x00\n        /* \"practice/29_TwitterInteractionMain.sol\":1619:1634  profileContract */\n      0x01\n      0x00\n      swap1\n      sload\n      swap1\n      0x0100\n      exp\n      swap1\n      div\n      0xffffffffffffffffffffffffffffffffffffffff\n      and\n        /* \"practice/29_TwitterInteractionMain.sol\":1619:1645  profileContract.getProfile */\n      0xffffffffffffffffffffffffffffffffffffffff\n      and\n      0x0f53a470\n        /* \"practice/29_TwitterInteractionMain.sol\":1646:1656  msg.sender */\n      caller\n        /* \"practice/29_TwitterInteractionMain.sol\":1619:1657  profileContract.getProfile(msg.sender) */\n      mload(0x40)\n      dup3\n      0xffffffff\n      and\n      0xe0\n      shl\n      dup2\n      mstore\n      0x04\n      add\n      tag_133\n      swap2\n      swap1\n      tag_56\n      jump\t// in\n    tag_133:\n      0x00\n      mload(0x40)\n      dup1\n      dup4\n      sub\n      dup2\n      dup7\n      gas\n      staticcall\n      iszero\n      dup1\n      iszero\n      tag_135\n      jumpi\n      returndatasize\n      0x00\n      dup1\n      returndatacopy\n      revert(0x00, returndatasize)\n    tag_135:\n      pop\n      pop\n      pop\n      pop\n      mload(0x40)\n      returndatasize\n      0x00\n      dup3\n      returndatacopy\n      returndatasize\n      not(0x1f)\n      0x1f\n      dup3\n      add\n      and\n      dup3\n      add\n      dup1\n      0x40\n      mstore\n      pop\n      dup2\n      add\n      swap1\n      tag_136\n      swap2\n      swap1\n      tag_104\n      jump\t// in\n    tag_136:\n        /* \"practice/29_TwitterInteractionMain.sol\":1573:1657  IProfile.UserProfile memory userProfileTemp = profileContract.getProfile(msg.sender) */\n      swap1\n      pop\n        /* \"practice/29_TwitterInteractionMain.sol\":1720:1721  0 */\n      0x00\n        /* \"practice/29_TwitterInteractionMain.sol\":1682:1697  userProfileTemp */\n      dup2\n        /* \"practice/29_TwitterInteractionMain.sol\":1682:1709  userProfileTemp.displayName */\n      0x00\n      add\n      mload\n        /* \"practice/29_TwitterInteractionMain.sol\":1676:1717  bytes(userProfileTemp.displayName).length */\n      mload\n        /* \"practice/29_TwitterInteractionMain.sol\":1676:1721  bytes(userProfileTemp.displayName).length > 0 */\n      gt\n        /* \"practice/29_TwitterInteractionMain.sol\":1668:1745  require(bytes(userProfileTemp.displayName).length > 0, \"User not registered\") */\n      tag_137\n      jumpi\n      mload(0x40)\n      0x08c379a000000000000000000000000000000000000000000000000000000000\n      dup2\n      mstore\n      0x04\n      add\n      tag_138\n      swap1\n      tag_107\n      jump\t// in\n    tag_138:\n      mload(0x40)\n      dup1\n      swap2\n      sub\n      swap1\n      revert\n    tag_137:\n        /* \"practice/29_TwitterInteractionMain.sol\":2189:2205  MAX_TWEET_LENGTH */\n      0x00\n      0x14\n      swap1\n      sload\n      swap1\n      0x0100\n      exp\n      swap1\n      div\n      0xffff\n      and\n        /* \"practice/29_TwitterInteractionMain.sol\":2165:2205  bytes(_tweet).length <= MAX_TWEET_LENGTH */\n      0xffff\n      and\n        /* \"practice/29_TwitterInteractionMain.sol\":2171:2177  _tweet */\n      dup3\n        /* \"practice/29_TwitterInteractionMain.sol\":2165:2185  bytes(_tweet).length */\n      mload\n        /* \"practice/29_TwitterInteractionMain.sol\":2165:2205  bytes(_tweet).length <= MAX_TWEET_LENGTH */\n      gt\n      iszero\n        /* \"practice/29_TwitterInteractionMain.sol\":2157:2226  require(bytes(_tweet).length <= MAX_TWEET_LENGTH, \"Message too long\") */\n      tag_140\n      jumpi\n      mload(0x40)\n      0x08c379a000000000000000000000000000000000000000000000000000000000\n      dup2\n      mstore\n      0x04\n      add\n      tag_141\n      swap1\n      tag_142\n      jump\t// in\n    tag_141:\n      mload(0x40)\n      dup1\n      swap2\n      sub\n      swap1\n      revert\n    tag_140:\n        /* \"practice/29_TwitterInteractionMain.sol\":2239:2260  Tweet memory newTweet */\n      0x00\n        /* \"practice/29_TwitterInteractionMain.sol\":2263:2452  Tweet({... */\n      mload(0x40)\n      dup1\n      0xa0\n      add\n      0x40\n      mstore\n      dup1\n        /* \"practice/29_TwitterInteractionMain.sol\":2292:2302  msg.sender */\n      caller\n        /* \"practice/29_TwitterInteractionMain.sol\":2263:2452  Tweet({... */\n      0xffffffffffffffffffffffffffffffffffffffff\n      and\n      dup2\n      mstore\n      0x20\n      add\n        /* \"practice/29_TwitterInteractionMain.sol\":2326:2332  _tweet */\n      dup5\n        /* \"practice/29_TwitterInteractionMain.sol\":2263:2452  Tweet({... */\n      dup2\n      mstore\n      0x20\n      add\n        /* \"practice/29_TwitterInteractionMain.sol\":2358:2373  block.timestamp */\n      timestamp\n        /* \"practice/29_TwitterInteractionMain.sol\":2263:2452  Tweet({... */\n      dup2\n      mstore\n      0x20\n      add\n        /* \"practice/29_TwitterInteractionMain.sol\":2395:2396  0 */\n      0x00\n        /* \"practice/29_TwitterInteractionMain.sol\":2263:2452  Tweet({... */\n      dup2\n      mstore\n      0x20\n      add\n        /* \"practice/29_TwitterInteractionMain.sol\":2415:2421  tweets */\n      0x02\n        /* \"practice/29_TwitterInteractionMain.sol\":2415:2433  tweets[msg.sender] */\n      0x00\n        /* \"practice/29_TwitterInteractionMain.sol\":2422:2432  msg.sender */\n      caller\n        /* \"practice/29_TwitterInteractionMain.sol\":2415:2433  tweets[msg.sender] */\n      0xffffffffffffffffffffffffffffffffffffffff\n      and\n      0xffffffffffffffffffffffffffffffffffffffff\n      and\n      dup2\n      mstore\n      0x20\n      add\n      swap1\n      dup2\n      mstore\n      0x20\n      add\n      0x00\n      keccak256\n        /* \"practice/29_TwitterInteractionMain.sol\":2415:2440  tweets[msg.sender].length */\n      dup1\n      sload\n      swap1\n      pop\n        /* \"practice/29_TwitterInteractionMain.sol\":2263:2452  Tweet({... */\n      dup2\n      mstore\n      pop\n        /* \"practice/29_TwitterInteractionMain.sol\":2239:2452  Tweet memory newTweet = Tweet({... */\n      swap1\n      pop\n        /* \"practice/29_TwitterInteractionMain.sol\":2465:2471  tweets */\n      0x02\n        /* \"practice/29_TwitterInteractionMain.sol\":2465:2483  tweets[msg.sender] */\n      0x00\n        /* \"practice/29_TwitterInteractionMain.sol\":2472:2482  msg.sender */\n      caller\n        /* \"practice/29_TwitterInteractionMain.sol\":2465:2483  tweets[msg.sender] */\n      0xffffffffffffffffffffffffffffffffffffffff\n      and\n      0xffffffffffffffffffffffffffffffffffffffff\n      and\n      dup2\n      mstore\n      0x20\n      add\n      swap1\n      dup2\n      mstore\n      0x20\n      add\n      0x00\n      keccak256\n        /* \"practice/29_TwitterInteractionMain.sol\":2489:2497  newTweet */\n      dup2\n        /* \"practice/29_TwitterInteractionMain.sol\":2465:2498  tweets[msg.sender].push(newTweet) */\n      swap1\n      dup1\n      0x01\n      dup2\n      sload\n      add\n      dup1\n      dup3\n      sstore\n      dup1\n      swap2\n      pop\n      pop\n      0x01\n      swap1\n      sub\n      swap1\n      0x00\n      mstore\n      keccak256(0x00, 0x20)\n      swap1\n      0x05\n      mul\n      add\n      0x00\n      swap1\n      swap2\n      swap1\n      swap2\n      swap1\n      swap2\n      pop\n      0x00\n      dup3\n      add\n      mload\n      dup2\n      0x00\n      add\n      exp(0x0100, 0x00)\n      dup2\n      sload\n      dup2\n      0xffffffffffffffffffffffffffffffffffffffff\n      mul\n      not\n      and\n      swap1\n      dup4\n      0xffffffffffffffffffffffffffffffffffffffff\n      and\n      mul\n      or\n      swap1\n      sstore\n      pop\n      0x20\n      dup3\n      add\n      mload\n      dup2\n      0x01\n      add\n      swap1\n      dup2\n      tag_144\n      swap2\n      swap1\n      tag_145\n      jump\t// in\n    tag_144:\n      pop\n      0x40\n      dup3\n      add\n      mload\n      dup2\n      0x02\n      add\n      sstore\n      0x60\n      dup3\n      add\n      mload\n      dup2\n      0x03\n      add\n      sstore\n      0x80\n      dup3\n      add\n      mload\n      dup2\n      0x04\n      add\n      sstore\n      pop\n      pop\n        /* \"practice/29_TwitterInteractionMain.sol\":2516:2596  TweetCreated(newTweet.id, newTweet.author, newTweet.content, newTweet.timestamp) */\n      0x16fd3c13e9d46923e0a8bce11c7b473ec508a72e6c96cd2404b29ce972afc29e\n        /* \"practice/29_TwitterInteractionMain.sol\":2529:2537  newTweet */\n      dup2\n        /* \"practice/29_TwitterInteractionMain.sol\":2529:2540  newTweet.id */\n      0x80\n      add\n      mload\n        /* \"practice/29_TwitterInteractionMain.sol\":2542:2550  newTweet */\n      dup3\n        /* \"practice/29_TwitterInteractionMain.sol\":2542:2557  newTweet.author */\n      0x00\n      add\n      mload\n        /* \"practice/29_TwitterInteractionMain.sol\":2559:2567  newTweet */\n      dup4\n        /* \"practice/29_TwitterInteractionMain.sol\":2559:2575  newTweet.content */\n      0x20\n      add\n      mload\n        /* \"practice/29_TwitterInteractionMain.sol\":2577:2585  newTweet */\n      dup5\n        /* \"practice/29_TwitterInteractionMain.sol\":2577:2595  newTweet.timestamp */\n      0x40\n      add\n      mload\n        /* \"practice/29_TwitterInteractionMain.sol\":2516:2596  TweetCreated(newTweet.id, newTweet.author, newTweet.content, newTweet.timestamp) */\n      mload(0x40)\n      tag_146\n      swap5\n      swap4\n      swap3\n      swap2\n      swap1\n      tag_147\n      jump\t// in\n    tag_146:\n      mload(0x40)\n      dup1\n      swap2\n      sub\n      swap1\n      log1\n        /* \"practice/29_TwitterInteractionMain.sol\":2146:2604  {... */\n      pop\n        /* \"practice/29_TwitterInteractionMain.sol\":1562:1765  {... */\n      pop\n        /* \"practice/29_TwitterInteractionMain.sol\":2081:2604  function createTweet(string memory _tweet) public onlyRegistered {... */\n      pop\n      jump\t// out\n        /* \"practice/29_TwitterInteractionMain.sol\":3485:3768  function getTotalLikes(address _author) external returns(uint) {... */\n    tag_50:\n        /* \"practice/29_TwitterInteractionMain.sol\":3542:3546  uint */\n      0x00\n        /* \"practice/29_TwitterInteractionMain.sol\":3572:3573  0 */\n      dup1\n        /* \"practice/29_TwitterInteractionMain.sol\":3559:3569  totalLikes */\n      0x03\n        /* \"practice/29_TwitterInteractionMain.sol\":3559:3573  totalLikes = 0 */\n      dup2\n      swap1\n      sstore\n      pop\n        /* \"practice/29_TwitterInteractionMain.sol\":3623:3629  uint i */\n      0x00\n        /* \"practice/29_TwitterInteractionMain.sol\":3619:3733  for(uint i = 0; i < tweets[_author].length; i++) {... */\n    tag_149:\n        /* \"practice/29_TwitterInteractionMain.sol\":3639:3645  tweets */\n      0x02\n        /* \"practice/29_TwitterInteractionMain.sol\":3639:3654  tweets[_author] */\n      0x00\n        /* \"practice/29_TwitterInteractionMain.sol\":3646:3653  _author */\n      dup5\n        /* \"practice/29_TwitterInteractionMain.sol\":3639:3654  tweets[_author] */\n      0xffffffffffffffffffffffffffffffffffffffff\n      and\n      0xffffffffffffffffffffffffffffffffffffffff\n      and\n      dup2\n      mstore\n      0x20\n      add\n      swap1\n      dup2\n      mstore\n      0x20\n      add\n      0x00\n      keccak256\n        /* \"practice/29_TwitterInteractionMain.sol\":3639:3661  tweets[_author].length */\n      dup1\n      sload\n      swap1\n      pop\n        /* \"practice/29_TwitterInteractionMain.sol\":3635:3636  i */\n      dup2\n        /* \"practice/29_TwitterInteractionMain.sol\":3635:3661  i < tweets[_author].length */\n      lt\n        /* \"practice/29_TwitterInteractionMain.sol\":3619:3733  for(uint i = 0; i < tweets[_author].length; i++) {... */\n      iszero\n      tag_150\n      jumpi\n        /* \"practice/29_TwitterInteractionMain.sol\":3697:3703  tweets */\n      0x02\n        /* \"practice/29_TwitterInteractionMain.sol\":3697:3712  tweets[_author] */\n      0x00\n        /* \"practice/29_TwitterInteractionMain.sol\":3704:3711  _author */\n      dup5\n        /* \"practice/29_TwitterInteractionMain.sol\":3697:3712  tweets[_author] */\n      0xffffffffffffffffffffffffffffffffffffffff\n      and\n      0xffffffffffffffffffffffffffffffffffffffff\n      and\n      dup2\n      mstore\n      0x20\n      add\n      swap1\n      dup2\n      mstore\n      0x20\n      add\n      0x00\n      keccak256\n        /* \"practice/29_TwitterInteractionMain.sol\":3713:3714  i */\n      dup2\n        /* \"practice/29_TwitterInteractionMain.sol\":3697:3715  tweets[_author][i] */\n      dup2\n      sload\n      dup2\n      lt\n      tag_152\n      jumpi\n      tag_153\n      tag_111\n      jump\t// in\n    tag_153:\n    tag_152:\n      swap1\n      0x00\n      mstore\n      keccak256(0x00, 0x20)\n      swap1\n      0x05\n      mul\n      add\n        /* \"practice/29_TwitterInteractionMain.sol\":3697:3721  tweets[_author][i].likes */\n      0x03\n      add\n      sload\n        /* \"practice/29_TwitterInteractionMain.sol\":3683:3693  totalLikes */\n      0x03\n      0x00\n        /* \"practice/29_TwitterInteractionMain.sol\":3683:3721  totalLikes += tweets[_author][i].likes */\n      dup3\n      dup3\n      sload\n      tag_155\n      swap2\n      swap1\n      tag_156\n      jump\t// in\n    tag_155:\n      swap3\n      pop\n      pop\n      dup2\n      swap1\n      sstore\n      pop\n        /* \"practice/29_TwitterInteractionMain.sol\":3663:3666  i++ */\n      dup1\n      dup1\n      0x01\n      add\n      swap2\n      pop\n      pop\n        /* \"practice/29_TwitterInteractionMain.sol\":3619:3733  for(uint i = 0; i < tweets[_author].length; i++) {... */\n      jump(tag_149)\n    tag_150:\n      pop\n        /* \"practice/29_TwitterInteractionMain.sol\":3750:3760  totalLikes */\n      sload(0x03)\n        /* \"practice/29_TwitterInteractionMain.sol\":3743:3760  return totalLikes */\n      swap1\n      pop\n        /* \"practice/29_TwitterInteractionMain.sol\":3485:3768  function getTotalLikes(address _author) external returns(uint) {... */\n      swap2\n      swap1\n      pop\n      jump\t// out\n        /* \"@openzeppelin/contracts/access/Ownable.sol\":1638:1723  function owner() public view virtual returns (address) {... */\n    tag_54:\n        /* \"@openzeppelin/contracts/access/Ownable.sol\":1684:1691  address */\n      0x00\n        /* \"@openzeppelin/contracts/access/Ownable.sol\":1710:1716  _owner */\n      dup1\n      0x00\n      swap1\n      sload\n      swap1\n      0x0100\n      exp\n      swap1\n      div\n      0xffffffffffffffffffffffffffffffffffffffff\n      and\n        /* \"@openzeppelin/contracts/access/Ownable.sol\":1703:1716  return _owner */\n      swap1\n      pop\n        /* \"@openzeppelin/contracts/access/Ownable.sol\":1638:1723  function owner() public view virtual returns (address) {... */\n      swap1\n      jump\t// out\n        /* \"practice/29_TwitterInteractionMain.sol\":936:967  IProfile public profileContract */\n    tag_58:\n      0x01\n      0x00\n      swap1\n      sload\n      swap1\n      0x0100\n      exp\n      swap1\n      div\n      0xffffffffffffffffffffffffffffffffffffffff\n      and\n      dup2\n      jump\t// out\n        /* \"practice/29_TwitterInteractionMain.sol\":2612:2722  function getTweet(uint _i) public view returns (Tweet memory) {... */\n    tag_64:\n        /* \"practice/29_TwitterInteractionMain.sol\":2660:2672  Tweet memory */\n      tag_158\n      tag_159\n      jump\t// in\n    tag_158:\n        /* \"practice/29_TwitterInteractionMain.sol\":2692:2698  tweets */\n      0x02\n        /* \"practice/29_TwitterInteractionMain.sol\":2692:2710  tweets[msg.sender] */\n      0x00\n        /* \"practice/29_TwitterInteractionMain.sol\":2699:2709  msg.sender */\n      caller\n        /* \"practice/29_TwitterInteractionMain.sol\":2692:2710  tweets[msg.sender] */\n      0xffffffffffffffffffffffffffffffffffffffff\n      and\n      0xffffffffffffffffffffffffffffffffffffffff\n      and\n      dup2\n      mstore\n      0x20\n      add\n      swap1\n      dup2\n      mstore\n      0x20\n      add\n      0x00\n      keccak256\n        /* \"practice/29_TwitterInteractionMain.sol\":2711:2713  _i */\n      dup3\n        /* \"practice/29_TwitterInteractionMain.sol\":2692:2714  tweets[msg.sender][_i] */\n      dup2\n      sload\n      dup2\n      lt\n      tag_161\n      jumpi\n      tag_162\n      tag_111\n      jump\t// in\n    tag_162:\n    tag_161:\n      swap1\n      0x00\n      mstore\n      keccak256(0x00, 0x20)\n      swap1\n      0x05\n      mul\n      add\n        /* \"practice/29_TwitterInteractionMain.sol\":2685:2714  return tweets[msg.sender][_i] */\n      mload(0x40)\n      dup1\n      0xa0\n      add\n      0x40\n      mstore\n      swap1\n      dup2\n      0x00\n      dup3\n      add\n      0x00\n      swap1\n      sload\n      swap1\n      0x0100\n      exp\n      swap1\n      div\n      0xffffffffffffffffffffffffffffffffffffffff\n      and\n      0xffffffffffffffffffffffffffffffffffffffff\n      and\n      0xffffffffffffffffffffffffffffffffffffffff\n      and\n      dup2\n      mstore\n      0x20\n      add\n      0x01\n      dup3\n      add\n      dup1\n      sload\n      tag_164\n      swap1\n      tag_76\n      jump\t// in\n    tag_164:\n      dup1\n      0x1f\n      add\n      0x20\n      dup1\n      swap2\n      div\n      mul\n      0x20\n      add\n      mload(0x40)\n      swap1\n      dup2\n      add\n      0x40\n      mstore\n      dup1\n      swap3\n      swap2\n      swap1\n      dup2\n      dup2\n      mstore\n      0x20\n      add\n      dup3\n      dup1\n      sload\n      tag_165\n      swap1\n      tag_76\n      jump\t// in\n    tag_165:\n      dup1\n      iszero\n      tag_166\n      jumpi\n      dup1\n      0x1f\n      lt\n      tag_167\n      jumpi\n      0x0100\n      dup1\n      dup4\n      sload\n      div\n      mul\n      dup4\n      mstore\n      swap2\n      0x20\n      add\n      swap2\n      jump(tag_166)\n    tag_167:\n      dup3\n      add\n      swap2\n      swap1\n      0x00\n      mstore\n      keccak256(0x00, 0x20)\n      swap1\n    tag_168:\n      dup2\n      sload\n      dup2\n      mstore\n      swap1\n      0x01\n      add\n      swap1\n      0x20\n      add\n      dup1\n      dup4\n      gt\n      tag_168\n      jumpi\n      dup3\n      swap1\n      sub\n      0x1f\n      and\n      dup3\n      add\n      swap2\n    tag_166:\n      pop\n      pop\n      pop\n      pop\n      pop\n      dup2\n      mstore\n      0x20\n      add\n      0x02\n      dup3\n      add\n      sload\n      dup2\n      mstore\n      0x20\n      add\n      0x03\n      dup3\n      add\n      sload\n      dup2\n      mstore\n      0x20\n      add\n      0x04\n      dup3\n      add\n      sload\n      dup2\n      mstore\n      pop\n      pop\n      swap1\n      pop\n        /* \"practice/29_TwitterInteractionMain.sol\":2612:2722  function getTweet(uint _i) public view returns (Tweet memory) {... */\n      swap2\n      swap1\n      pop\n      jump\t// out\n        /* \"@openzeppelin/contracts/access/Ownable.sol\":2543:2758  function transferOwnership(address newOwner) public virtual onlyOwner {... */\n    tag_69:\n        /* \"@openzeppelin/contracts/access/Ownable.sol\":1531:1544  _checkOwner() */\n      tag_170\n        /* \"@openzeppelin/contracts/access/Ownable.sol\":1531:1542  _checkOwner */\n      tag_92\n        /* \"@openzeppelin/contracts/access/Ownable.sol\":1531:1544  _checkOwner() */\n      jump\t// in\n    tag_170:\n        /* \"@openzeppelin/contracts/access/Ownable.sol\":2647:2648  0 */\n      0x00\n        /* \"@openzeppelin/contracts/access/Ownable.sol\":2627:2649  newOwner == address(0) */\n      0xffffffffffffffffffffffffffffffffffffffff\n      and\n        /* \"@openzeppelin/contracts/access/Ownable.sol\":2627:2635  newOwner */\n      dup2\n        /* \"@openzeppelin/contracts/access/Ownable.sol\":2627:2649  newOwner == address(0) */\n      0xffffffffffffffffffffffffffffffffffffffff\n      and\n      sub\n        /* \"@openzeppelin/contracts/access/Ownable.sol\":2623:2714  if (newOwner == address(0)) {... */\n      tag_172\n      jumpi\n        /* \"@openzeppelin/contracts/access/Ownable.sol\":2700:2701  0 */\n      0x00\n        /* \"@openzeppelin/contracts/access/Ownable.sol\":2672:2703  OwnableInvalidOwner(address(0)) */\n      mload(0x40)\n      0x1e4fbdf700000000000000000000000000000000000000000000000000000000\n      dup2\n      mstore\n      0x04\n      add\n      tag_173\n      swap2\n      swap1\n      tag_56\n      jump\t// in\n    tag_173:\n      mload(0x40)\n      dup1\n      swap2\n      sub\n      swap1\n      revert\n        /* \"@openzeppelin/contracts/access/Ownable.sol\":2623:2714  if (newOwner == address(0)) {... */\n    tag_172:\n        /* \"@openzeppelin/contracts/access/Ownable.sol\":2723:2751  _transferOwnership(newOwner) */\n      tag_174\n        /* \"@openzeppelin/contracts/access/Ownable.sol\":2742:2750  newOwner */\n      dup2\n        /* \"@openzeppelin/contracts/access/Ownable.sol\":2723:2741  _transferOwnership */\n      tag_98\n        /* \"@openzeppelin/contracts/access/Ownable.sol\":2723:2751  _transferOwnership(newOwner) */\n      jump\t// in\n    tag_174:\n        /* \"@openzeppelin/contracts/access/Ownable.sol\":2543:2758  function transferOwnership(address newOwner) public virtual onlyOwner {... */\n      pop\n      jump\t// out\n        /* \"practice/29_TwitterInteractionMain.sol\":2853:3111  function addLike(address author, uint256 id) external onlyRegistered {... */\n    tag_72:\n        /* \"practice/29_TwitterInteractionMain.sol\":1573:1616  IProfile.UserProfile memory userProfileTemp */\n      0x00\n        /* \"practice/29_TwitterInteractionMain.sol\":1619:1634  profileContract */\n      0x01\n      0x00\n      swap1\n      sload\n      swap1\n      0x0100\n      exp\n      swap1\n      div\n      0xffffffffffffffffffffffffffffffffffffffff\n      and\n        /* \"practice/29_TwitterInteractionMain.sol\":1619:1645  profileContract.getProfile */\n      0xffffffffffffffffffffffffffffffffffffffff\n      and\n      0x0f53a470\n        /* \"practice/29_TwitterInteractionMain.sol\":1646:1656  msg.sender */\n      caller\n        /* \"practice/29_TwitterInteractionMain.sol\":1619:1657  profileContract.getProfile(msg.sender) */\n      mload(0x40)\n      dup3\n      0xffffffff\n      and\n      0xe0\n      shl\n      dup2\n      mstore\n      0x04\n      add\n      tag_176\n      swap2\n      swap1\n      tag_56\n      jump\t// in\n    tag_176:\n      0x00\n      mload(0x40)\n      dup1\n      dup4\n      sub\n      dup2\n      dup7\n      gas\n      staticcall\n      iszero\n      dup1\n      iszero\n      tag_178\n      jumpi\n      returndatasize\n      0x00\n      dup1\n      returndatacopy\n      revert(0x00, returndatasize)\n    tag_178:\n      pop\n      pop\n      pop\n      pop\n      mload(0x40)\n      returndatasize\n      0x00\n      dup3\n      returndatacopy\n      returndatasize\n      not(0x1f)\n      0x1f\n      dup3\n      add\n      and\n      dup3\n      add\n      dup1\n      0x40\n      mstore\n      pop\n      dup2\n      add\n      swap1\n      tag_179\n      swap2\n      swap1\n      tag_104\n      jump\t// in\n    tag_179:\n        /* \"practice/29_TwitterInteractionMain.sol\":1573:1657  IProfile.UserProfile memory userProfileTemp = profileContract.getProfile(msg.sender) */\n      swap1\n      pop\n        /* \"practice/29_TwitterInteractionMain.sol\":1720:1721  0 */\n      0x00\n        /* \"practice/29_TwitterInteractionMain.sol\":1682:1697  userProfileTemp */\n      dup2\n        /* \"practice/29_TwitterInteractionMain.sol\":1682:1709  userProfileTemp.displayName */\n      0x00\n      add\n      mload\n        /* \"practice/29_TwitterInteractionMain.sol\":1676:1717  bytes(userProfileTemp.displayName).length */\n      mload\n        /* \"practice/29_TwitterInteractionMain.sol\":1676:1721  bytes(userProfileTemp.displayName).length > 0 */\n      gt\n        /* \"practice/29_TwitterInteractionMain.sol\":1668:1745  require(bytes(userProfileTemp.displayName).length > 0, \"User not registered\") */\n      tag_180\n      jumpi\n      mload(0x40)\n      0x08c379a000000000000000000000000000000000000000000000000000000000\n      dup2\n      mstore\n      0x04\n      add\n      tag_181\n      swap1\n      tag_107\n      jump\t// in\n    tag_181:\n      mload(0x40)\n      dup1\n      swap2\n      sub\n      swap1\n      revert\n    tag_180:\n        /* \"practice/29_TwitterInteractionMain.sol\":2966:2968  id */\n      dup2\n        /* \"practice/29_TwitterInteractionMain.sol\":2941:2947  tweets */\n      0x02\n        /* \"practice/29_TwitterInteractionMain.sol\":2941:2955  tweets[author] */\n      0x00\n        /* \"practice/29_TwitterInteractionMain.sol\":2948:2954  author */\n      dup6\n        /* \"practice/29_TwitterInteractionMain.sol\":2941:2955  tweets[author] */\n      0xffffffffffffffffffffffffffffffffffffffff\n      and\n      0xffffffffffffffffffffffffffffffffffffffff\n      and\n      dup2\n      mstore\n      0x20\n      add\n      swap1\n      dup2\n      mstore\n      0x20\n      add\n      0x00\n      keccak256\n        /* \"practice/29_TwitterInteractionMain.sol\":2956:2958  id */\n      dup4\n        /* \"practice/29_TwitterInteractionMain.sol\":2941:2959  tweets[author][id] */\n      dup2\n      sload\n      dup2\n      lt\n      tag_183\n      jumpi\n      tag_184\n      tag_111\n      jump\t// in\n    tag_184:\n    tag_183:\n      swap1\n      0x00\n      mstore\n      keccak256(0x00, 0x20)\n      swap1\n      0x05\n      mul\n      add\n        /* \"practice/29_TwitterInteractionMain.sol\":2941:2962  tweets[author][id].id */\n      0x04\n      add\n      sload\n        /* \"practice/29_TwitterInteractionMain.sol\":2941:2968  tweets[author][id].id == id */\n      eq\n        /* \"practice/29_TwitterInteractionMain.sol\":2933:2988  require(tweets[author][id].id == id, \"Tweet not found\") */\n      tag_186\n      jumpi\n      mload(0x40)\n      0x08c379a000000000000000000000000000000000000000000000000000000000\n      dup2\n      mstore\n      0x04\n      add\n      tag_187\n      swap1\n      tag_115\n      jump\t// in\n    tag_187:\n      mload(0x40)\n      dup1\n      swap2\n      sub\n      swap1\n      revert\n    tag_186:\n        /* \"practice/29_TwitterInteractionMain.sol\":2999:3005  tweets */\n      0x02\n        /* \"practice/29_TwitterInteractionMain.sol\":2999:3013  tweets[author] */\n      0x00\n        /* \"practice/29_TwitterInteractionMain.sol\":3006:3012  author */\n      dup5\n        /* \"practice/29_TwitterInteractionMain.sol\":2999:3013  tweets[author] */\n      0xffffffffffffffffffffffffffffffffffffffff\n      and\n      0xffffffffffffffffffffffffffffffffffffffff\n      and\n      dup2\n      mstore\n      0x20\n      add\n      swap1\n      dup2\n      mstore\n      0x20\n      add\n      0x00\n      keccak256\n        /* \"practice/29_TwitterInteractionMain.sol\":3014:3016  id */\n      dup3\n        /* \"practice/29_TwitterInteractionMain.sol\":2999:3017  tweets[author][id] */\n      dup2\n      sload\n      dup2\n      lt\n      tag_188\n      jumpi\n      tag_189\n      tag_111\n      jump\t// in\n    tag_189:\n    tag_188:\n      swap1\n      0x00\n      mstore\n      keccak256(0x00, 0x20)\n      swap1\n      0x05\n      mul\n      add\n        /* \"practice/29_TwitterInteractionMain.sol\":2999:3023  tweets[author][id].likes */\n      0x03\n      add\n      0x00\n        /* \"practice/29_TwitterInteractionMain.sol\":2999:3025  tweets[author][id].likes++ */\n      dup2\n      sload\n      dup1\n      swap3\n      swap2\n      swap1\n      tag_191\n      swap1\n      tag_192\n      jump\t// in\n    tag_191:\n      swap2\n      swap1\n      pop\n      sstore\n      pop\n        /* \"practice/29_TwitterInteractionMain.sol\":3043:3103  TweetLiked(msg.sender, author, id, tweets[author][id].likes) */\n      0xe8a76fc0f16d11a00d1e93b689b63d76cf60af914dd3d915375dc41d01a0c3c8\n        /* \"practice/29_TwitterInteractionMain.sol\":3054:3064  msg.sender */\n      caller\n        /* \"practice/29_TwitterInteractionMain.sol\":3066:3072  author */\n      dup5\n        /* \"practice/29_TwitterInteractionMain.sol\":3074:3076  id */\n      dup5\n        /* \"practice/29_TwitterInteractionMain.sol\":3078:3084  tweets */\n      0x02\n        /* \"practice/29_TwitterInteractionMain.sol\":3078:3092  tweets[author] */\n      0x00\n        /* \"practice/29_TwitterInteractionMain.sol\":3085:3091  author */\n      dup9\n        /* \"practice/29_TwitterInteractionMain.sol\":3078:3092  tweets[author] */\n      0xffffffffffffffffffffffffffffffffffffffff\n      and\n      0xffffffffffffffffffffffffffffffffffffffff\n      and\n      dup2\n      mstore\n      0x20\n      add\n      swap1\n      dup2\n      mstore\n      0x20\n      add\n      0x00\n      keccak256\n        /* \"practice/29_TwitterInteractionMain.sol\":3093:3095  id */\n      dup7\n        /* \"practice/29_TwitterInteractionMain.sol\":3078:3096  tweets[author][id] */\n      dup2\n      sload\n      dup2\n      lt\n      tag_193\n      jumpi\n      tag_194\n      tag_111\n      jump\t// in\n    tag_194:\n    tag_193:\n      swap1\n      0x00\n      mstore\n      keccak256(0x00, 0x20)\n      swap1\n      0x05\n      mul\n      add\n        /* \"practice/29_TwitterInteractionMain.sol\":3078:3102  tweets[author][id].likes */\n      0x03\n      add\n      sload\n        /* \"practice/29_TwitterInteractionMain.sol\":3043:3103  TweetLiked(msg.sender, author, id, tweets[author][id].likes) */\n      mload(0x40)\n      tag_196\n      swap5\n      swap4\n      swap3\n      swap2\n      swap1\n      tag_131\n      jump\t// in\n    tag_196:\n      mload(0x40)\n      dup1\n      swap2\n      sub\n      swap1\n      log1\n        /* \"practice/29_TwitterInteractionMain.sol\":1562:1765  {... */\n      pop\n        /* \"practice/29_TwitterInteractionMain.sol\":2853:3111  function addLike(address author, uint256 id) external onlyRegistered {... */\n      pop\n      pop\n      jump\t// out\n        /* \"@openzeppelin/contracts/access/Ownable.sol\":1796:1958  function _checkOwner() internal view virtual {... */\n    tag_92:\n        /* \"@openzeppelin/contracts/access/Ownable.sol\":1866:1878  _msgSender() */\n      tag_198\n        /* \"@openzeppelin/contracts/access/Ownable.sol\":1866:1876  _msgSender */\n      tag_199\n        /* \"@openzeppelin/contracts/access/Ownable.sol\":1866:1878  _msgSender() */\n      jump\t// in\n    tag_198:\n        /* \"@openzeppelin/contracts/access/Ownable.sol\":1855:1878  owner() != _msgSender() */\n      0xffffffffffffffffffffffffffffffffffffffff\n      and\n        /* \"@openzeppelin/contracts/access/Ownable.sol\":1855:1862  owner() */\n      tag_200\n        /* \"@openzeppelin/contracts/access/Ownable.sol\":1855:1860  owner */\n      tag_54\n        /* \"@openzeppelin/contracts/access/Ownable.sol\":1855:1862  owner() */\n      jump\t// in\n    tag_200:\n        /* \"@openzeppelin/contracts/access/Ownable.sol\":1855:1878  owner() != _msgSender() */\n      0xffffffffffffffffffffffffffffffffffffffff\n      and\n      eq\n        /* \"@openzeppelin/contracts/access/Ownable.sol\":1851:1952  if (owner() != _msgSender()) {... */\n      tag_201\n      jumpi\n        /* \"@openzeppelin/contracts/access/Ownable.sol\":1928:1940  _msgSender() */\n      tag_202\n        /* \"@openzeppelin/contracts/access/Ownable.sol\":1928:1938  _msgSender */\n      tag_199\n        /* \"@openzeppelin/contracts/access/Ownable.sol\":1928:1940  _msgSender() */\n      jump\t// in\n    tag_202:\n        /* \"@openzeppelin/contracts/access/Ownable.sol\":1901:1941  OwnableUnauthorizedAccount(_msgSender()) */\n      mload(0x40)\n      0x118cdaa700000000000000000000000000000000000000000000000000000000\n      dup2\n      mstore\n      0x04\n      add\n      tag_203\n      swap2\n      swap1\n      tag_56\n      jump\t// in\n    tag_203:\n      mload(0x40)\n      dup1\n      swap2\n      sub\n      swap1\n      revert\n        /* \"@openzeppelin/contracts/access/Ownable.sol\":1851:1952  if (owner() != _msgSender()) {... */\n    tag_201:\n        /* \"@openzeppelin/contracts/access/Ownable.sol\":1796:1958  function _checkOwner() internal view virtual {... */\n      jump\t// out\n        /* \"@openzeppelin/contracts/access/Ownable.sol\":2912:3099  function _transferOwnership(address newOwner) internal virtual {... */\n    tag_98:\n        /* \"@openzeppelin/contracts/access/Ownable.sol\":2985:3001  address oldOwner */\n      0x00\n        /* \"@openzeppelin/contracts/access/Ownable.sol\":3004:3010  _owner */\n      dup1\n      0x00\n      swap1\n      sload\n      swap1\n      0x0100\n      exp\n      swap1\n      div\n      0xffffffffffffffffffffffffffffffffffffffff\n      and\n        /* \"@openzeppelin/contracts/access/Ownable.sol\":2985:3010  address oldOwner = _owner */\n      swap1\n      pop\n        /* \"@openzeppelin/contracts/access/Ownable.sol\":3029:3037  newOwner */\n      dup2\n        /* \"@openzeppelin/contracts/access/Ownable.sol\":3020:3026  _owner */\n      0x00\n      dup1\n        /* \"@openzeppelin/contracts/access/Ownable.sol\":3020:3037  _owner = newOwner */\n      0x0100\n      exp\n      dup2\n      sload\n      dup2\n      0xffffffffffffffffffffffffffffffffffffffff\n      mul\n      not\n      and\n      swap1\n      dup4\n      0xffffffffffffffffffffffffffffffffffffffff\n      and\n      mul\n      or\n      swap1\n      sstore\n      pop\n        /* \"@openzeppelin/contracts/access/Ownable.sol\":3083:3091  newOwner */\n      dup2\n        /* \"@openzeppelin/contracts/access/Ownable.sol\":3052:3092  OwnershipTransferred(oldOwner, newOwner) */\n      0xffffffffffffffffffffffffffffffffffffffff\n      and\n        /* \"@openzeppelin/contracts/access/Ownable.sol\":3073:3081  oldOwner */\n      dup2\n        /* \"@openzeppelin/contracts/access/Ownable.sol\":3052:3092  OwnershipTransferred(oldOwner, newOwner) */\n      0xffffffffffffffffffffffffffffffffffffffff\n      and\n      0x8be0079c531659141344cd1fd0a4f28419497f9722a3daafe3b4186f6b6457e0\n      mload(0x40)\n      mload(0x40)\n      dup1\n      swap2\n      sub\n      swap1\n      log3\n        /* \"@openzeppelin/contracts/access/Ownable.sol\":2975:3099  {... */\n      pop\n        /* \"@openzeppelin/contracts/access/Ownable.sol\":2912:3099  function _transferOwnership(address newOwner) internal virtual {... */\n      pop\n      jump\t// out\n        /* \"@openzeppelin/contracts/utils/Context.sol\":656:752  function _msgSender() internal view virtual returns (address) {... */\n    tag_199:\n        /* \"@openzeppelin/contracts/utils/Context.sol\":709:716  address */\n      0x00\n        /* \"@openzeppelin/contracts/utils/Context.sol\":735:745  msg.sender */\n      caller\n        /* \"@openzeppelin/contracts/utils/Context.sol\":728:745  return msg.sender */\n      swap1\n      pop\n        /* \"@openzeppelin/contracts/utils/Context.sol\":656:752  function _msgSender() internal view virtual returns (address) {... */\n      swap1\n      jump\t// out\n    tag_159:\n      mload(0x40)\n      dup1\n      0xa0\n      add\n      0x40\n      mstore\n      dup1\n      and(0xffffffffffffffffffffffffffffffffffffffff, 0x00)\n      dup2\n      mstore\n      0x20\n      add\n      0x60\n      dup2\n      mstore\n      0x20\n      add\n      0x00\n      dup2\n      mstore\n      0x20\n      add\n      0x00\n      dup2\n      mstore\n      0x20\n      add\n      0x00\n      dup2\n      mstore\n      pop\n      swap1\n      jump\t// out\n        /* \"#utility.yul\":7:82   */\n    tag_206:\n        /* \"#utility.yul\":40:46   */\n      0x00\n        /* \"#utility.yul\":73:75   */\n      0x40\n        /* \"#utility.yul\":67:76   */\n      mload\n        /* \"#utility.yul\":57:76   */\n      swap1\n      pop\n        /* \"#utility.yul\":7:82   */\n      swap1\n      jump\t// out\n        /* \"#utility.yul\":88:205   */\n    tag_207:\n        /* \"#utility.yul\":197:198   */\n      0x00\n        /* \"#utility.yul\":194:195   */\n      dup1\n        /* \"#utility.yul\":187:199   */\n      revert\n        /* \"#utility.yul\":211:328   */\n    tag_208:\n        /* \"#utility.yul\":320:321   */\n      0x00\n        /* \"#utility.yul\":317:318   */\n      dup1\n        /* \"#utility.yul\":310:322   */\n      revert\n        /* \"#utility.yul\":334:460   */\n    tag_209:\n        /* \"#utility.yul\":371:378   */\n      0x00\n        /* \"#utility.yul\":411:453   */\n      0xffffffffffffffffffffffffffffffffffffffff\n        /* \"#utility.yul\":404:409   */\n      dup3\n        /* \"#utility.yul\":400:454   */\n      and\n        /* \"#utility.yul\":389:454   */\n      swap1\n      pop\n        /* \"#utility.yul\":334:460   */\n      swap2\n      swap1\n      pop\n      jump\t// out\n        /* \"#utility.yul\":466:562   */\n    tag_210:\n        /* \"#utility.yul\":503:510   */\n      0x00\n        /* \"#utility.yul\":532:556   */\n      tag_288\n        /* \"#utility.yul\":550:555   */\n      dup3\n        /* \"#utility.yul\":532:556   */\n      tag_209\n      jump\t// in\n    tag_288:\n        /* \"#utility.yul\":521:556   */\n      swap1\n      pop\n        /* \"#utility.yul\":466:562   */\n      swap2\n      swap1\n      pop\n      jump\t// out\n        /* \"#utility.yul\":568:690   */\n    tag_211:\n        /* \"#utility.yul\":641:665   */\n      tag_290\n        /* \"#utility.yul\":659:664   */\n      dup2\n        /* \"#utility.yul\":641:665   */\n      tag_210\n      jump\t// in\n    tag_290:\n        /* \"#utility.yul\":634:639   */\n      dup2\n        /* \"#utility.yul\":631:666   */\n      eq\n        /* \"#utility.yul\":621:684   */\n      tag_291\n      jumpi\n        /* \"#utility.yul\":680:681   */\n      0x00\n        /* \"#utility.yul\":677:678   */\n      dup1\n        /* \"#utility.yul\":670:682   */\n      revert\n        /* \"#utility.yul\":621:684   */\n    tag_291:\n        /* \"#utility.yul\":568:690   */\n      pop\n      jump\t// out\n        /* \"#utility.yul\":696:835   */\n    tag_212:\n        /* \"#utility.yul\":742:747   */\n      0x00\n        /* \"#utility.yul\":780:786   */\n      dup2\n        /* \"#utility.yul\":767:787   */\n      calldataload\n        /* \"#utility.yul\":758:787   */\n      swap1\n      pop\n        /* \"#utility.yul\":796:829   */\n      tag_293\n        /* \"#utility.yul\":823:828   */\n      dup2\n        /* \"#utility.yul\":796:829   */\n      tag_211\n      jump\t// in\n    tag_293:\n        /* \"#utility.yul\":696:835   */\n      swap3\n      swap2\n      pop\n      pop\n      jump\t// out\n        /* \"#utility.yul\":841:918   */\n    tag_213:\n        /* \"#utility.yul\":878:885   */\n      0x00\n        /* \"#utility.yul\":907:912   */\n      dup2\n        /* \"#utility.yul\":896:912   */\n      swap1\n      pop\n        /* \"#utility.yul\":841:918   */\n      swap2\n      swap1\n      pop\n      jump\t// out\n        /* \"#utility.yul\":924:1046   */\n    tag_214:\n        /* \"#utility.yul\":997:1021   */\n      tag_296\n        /* \"#utility.yul\":1015:1020   */\n      dup2\n        /* \"#utility.yul\":997:1021   */\n      tag_213\n      jump\t// in\n    tag_296:\n        /* \"#utility.yul\":990:995   */\n      dup2\n        /* \"#utility.yul\":987:1022   */\n      eq\n        /* \"#utility.yul\":977:1040   */\n      tag_297\n      jumpi\n        /* \"#utility.yul\":1036:1037   */\n      0x00\n        /* \"#utility.yul\":1033:1034   */\n      dup1\n        /* \"#utility.yul\":1026:1038   */\n      revert\n        /* \"#utility.yul\":977:1040   */\n    tag_297:\n        /* \"#utility.yul\":924:1046   */\n      pop\n      jump\t// out\n        /* \"#utility.yul\":1052:1191   */\n    tag_215:\n        /* \"#utility.yul\":1098:1103   */\n      0x00\n        /* \"#utility.yul\":1136:1142   */\n      dup2\n        /* \"#utility.yul\":1123:1143   */\n      calldataload\n        /* \"#utility.yul\":1114:1143   */\n      swap1\n      pop\n        /* \"#utility.yul\":1152:1185   */\n      tag_299\n        /* \"#utility.yul\":1179:1184   */\n      dup2\n        /* \"#utility.yul\":1152:1185   */\n      tag_214\n      jump\t// in\n    tag_299:\n        /* \"#utility.yul\":1052:1191   */\n      swap3\n      swap2\n      pop\n      pop\n      jump\t// out\n        /* \"#utility.yul\":1197:1671   */\n    tag_20:\n        /* \"#utility.yul\":1265:1271   */\n      0x00\n        /* \"#utility.yul\":1273:1279   */\n      dup1\n        /* \"#utility.yul\":1322:1324   */\n      0x40\n        /* \"#utility.yul\":1310:1319   */\n      dup4\n        /* \"#utility.yul\":1301:1308   */\n      dup6\n        /* \"#utility.yul\":1297:1320   */\n      sub\n        /* \"#utility.yul\":1293:1325   */\n      slt\n        /* \"#utility.yul\":1290:1409   */\n      iszero\n      tag_301\n      jumpi\n        /* \"#utility.yul\":1328:1407   */\n      tag_302\n      tag_207\n      jump\t// in\n    tag_302:\n        /* \"#utility.yul\":1290:1409   */\n    tag_301:\n        /* \"#utility.yul\":1448:1449   */\n      0x00\n        /* \"#utility.yul\":1473:1526   */\n      tag_303\n        /* \"#utility.yul\":1518:1525   */\n      dup6\n        /* \"#utility.yul\":1509:1515   */\n      dup3\n        /* \"#utility.yul\":1498:1507   */\n      dup7\n        /* \"#utility.yul\":1494:1516   */\n      add\n        /* \"#utility.yul\":1473:1526   */\n      tag_212\n      jump\t// in\n    tag_303:\n        /* \"#utility.yul\":1463:1526   */\n      swap3\n      pop\n        /* \"#utility.yul\":1419:1536   */\n      pop\n        /* \"#utility.yul\":1575:1577   */\n      0x20\n        /* \"#utility.yul\":1601:1654   */\n      tag_304\n        /* \"#utility.yul\":1646:1653   */\n      dup6\n        /* \"#utility.yul\":1637:1643   */\n      dup3\n        /* \"#utility.yul\":1626:1635   */\n      dup7\n        /* \"#utility.yul\":1622:1644   */\n      add\n        /* \"#utility.yul\":1601:1654   */\n      tag_215\n      jump\t// in\n    tag_304:\n        /* \"#utility.yul\":1591:1654   */\n      swap2\n      pop\n        /* \"#utility.yul\":1546:1664   */\n      pop\n        /* \"#utility.yul\":1197:1671   */\n      swap3\n      pop\n      swap3\n      swap1\n      pop\n      jump\t// out\n        /* \"#utility.yul\":1677:1795   */\n    tag_216:\n        /* \"#utility.yul\":1764:1788   */\n      tag_306\n        /* \"#utility.yul\":1782:1787   */\n      dup2\n        /* \"#utility.yul\":1764:1788   */\n      tag_210\n      jump\t// in\n    tag_306:\n        /* \"#utility.yul\":1759:1762   */\n      dup3\n        /* \"#utility.yul\":1752:1789   */\n      mstore\n        /* \"#utility.yul\":1677:1795   */\n      pop\n      pop\n      jump\t// out\n        /* \"#utility.yul\":1801:1900   */\n    tag_217:\n        /* \"#utility.yul\":1853:1859   */\n      0x00\n        /* \"#utility.yul\":1887:1892   */\n      dup2\n        /* \"#utility.yul\":1881:1893   */\n      mload\n        /* \"#utility.yul\":1871:1893   */\n      swap1\n      pop\n        /* \"#utility.yul\":1801:1900   */\n      swap2\n      swap1\n      pop\n      jump\t// out\n        /* \"#utility.yul\":1906:2075   */\n    tag_218:\n        /* \"#utility.yul\":1990:2001   */\n      0x00\n        /* \"#utility.yul\":2024:2030   */\n      dup3\n        /* \"#utility.yul\":2019:2022   */\n      dup3\n        /* \"#utility.yul\":2012:2031   */\n      mstore\n        /* \"#utility.yul\":2064:2068   */\n      0x20\n        /* \"#utility.yul\":2059:2062   */\n      dup3\n        /* \"#utility.yul\":2055:2069   */\n      add\n        /* \"#utility.yul\":2040:2069   */\n      swap1\n      pop\n        /* \"#utility.yul\":1906:2075   */\n      swap3\n      swap2\n      pop\n      pop\n      jump\t// out\n        /* \"#utility.yul\":2081:2220   */\n    tag_219:\n        /* \"#utility.yul\":2170:2176   */\n      dup3\n        /* \"#utility.yul\":2165:2168   */\n      dup2\n        /* \"#utility.yul\":2160:2163   */\n      dup4\n        /* \"#utility.yul\":2154:2177   */\n      mcopy\n        /* \"#utility.yul\":2211:2212   */\n      0x00\n        /* \"#utility.yul\":2202:2208   */\n      dup4\n        /* \"#utility.yul\":2197:2200   */\n      dup4\n        /* \"#utility.yul\":2193:2209   */\n      add\n        /* \"#utility.yul\":2186:2213   */\n      mstore\n        /* \"#utility.yul\":2081:2220   */\n      pop\n      pop\n      pop\n      jump\t// out\n        /* \"#utility.yul\":2226:2328   */\n    tag_220:\n        /* \"#utility.yul\":2267:2273   */\n      0x00\n        /* \"#utility.yul\":2318:2320   */\n      0x1f\n        /* \"#utility.yul\":2314:2321   */\n      not\n        /* \"#utility.yul\":2309:2311   */\n      0x1f\n        /* \"#utility.yul\":2302:2307   */\n      dup4\n        /* \"#utility.yul\":2298:2312   */\n      add\n        /* \"#utility.yul\":2294:2322   */\n      and\n        /* \"#utility.yul\":2284:2322   */\n      swap1\n      pop\n        /* \"#utility.yul\":2226:2328   */\n      swap2\n      swap1\n      pop\n      jump\t// out\n        /* \"#utility.yul\":2334:2711   */\n    tag_221:\n        /* \"#utility.yul\":2422:2425   */\n      0x00\n        /* \"#utility.yul\":2450:2489   */\n      tag_312\n        /* \"#utility.yul\":2483:2488   */\n      dup3\n        /* \"#utility.yul\":2450:2489   */\n      tag_217\n      jump\t// in\n    tag_312:\n        /* \"#utility.yul\":2505:2576   */\n      tag_313\n        /* \"#utility.yul\":2569:2575   */\n      dup2\n        /* \"#utility.yul\":2564:2567   */\n      dup6\n        /* \"#utility.yul\":2505:2576   */\n      tag_218\n      jump\t// in\n    tag_313:\n        /* \"#utility.yul\":2498:2576   */\n      swap4\n      pop\n        /* \"#utility.yul\":2585:2650   */\n      tag_314\n        /* \"#utility.yul\":2643:2649   */\n      dup2\n        /* \"#utility.yul\":2638:2641   */\n      dup6\n        /* \"#utility.yul\":2631:2635   */\n      0x20\n        /* \"#utility.yul\":2624:2629   */\n      dup7\n        /* \"#utility.yul\":2620:2636   */\n      add\n        /* \"#utility.yul\":2585:2650   */\n      tag_219\n      jump\t// in\n    tag_314:\n        /* \"#utility.yul\":2675:2704   */\n      tag_315\n        /* \"#utility.yul\":2697:2703   */\n      dup2\n        /* \"#utility.yul\":2675:2704   */\n      tag_220\n      jump\t// in\n    tag_315:\n        /* \"#utility.yul\":2670:2673   */\n      dup5\n        /* \"#utility.yul\":2666:2705   */\n      add\n        /* \"#utility.yul\":2659:2705   */\n      swap2\n      pop\n        /* \"#utility.yul\":2426:2711   */\n      pop\n        /* \"#utility.yul\":2334:2711   */\n      swap3\n      swap2\n      pop\n      pop\n      jump\t// out\n        /* \"#utility.yul\":2717:2835   */\n    tag_222:\n        /* \"#utility.yul\":2804:2828   */\n      tag_317\n        /* \"#utility.yul\":2822:2827   */\n      dup2\n        /* \"#utility.yul\":2804:2828   */\n      tag_213\n      jump\t// in\n    tag_317:\n        /* \"#utility.yul\":2799:2802   */\n      dup3\n        /* \"#utility.yul\":2792:2829   */\n      mstore\n        /* \"#utility.yul\":2717:2835   */\n      pop\n      pop\n      jump\t// out\n        /* \"#utility.yul\":2841:3596   */\n    tag_23:\n        /* \"#utility.yul\":3066:3070   */\n      0x00\n        /* \"#utility.yul\":3104:3107   */\n      0xa0\n        /* \"#utility.yul\":3093:3102   */\n      dup3\n        /* \"#utility.yul\":3089:3108   */\n      add\n        /* \"#utility.yul\":3081:3108   */\n      swap1\n      pop\n        /* \"#utility.yul\":3118:3189   */\n      tag_319\n        /* \"#utility.yul\":3186:3187   */\n      0x00\n        /* \"#utility.yul\":3175:3184   */\n      dup4\n        /* \"#utility.yul\":3171:3188   */\n      add\n        /* \"#utility.yul\":3162:3168   */\n      dup9\n        /* \"#utility.yul\":3118:3189   */\n      tag_216\n      jump\t// in\n    tag_319:\n        /* \"#utility.yul\":3236:3245   */\n      dup2\n        /* \"#utility.yul\":3230:3234   */\n      dup2\n        /* \"#utility.yul\":3226:3246   */\n      sub\n        /* \"#utility.yul\":3221:3223   */\n      0x20\n        /* \"#utility.yul\":3210:3219   */\n      dup4\n        /* \"#utility.yul\":3206:3224   */\n      add\n        /* \"#utility.yul\":3199:3247   */\n      mstore\n        /* \"#utility.yul\":3264:3342   */\n      tag_320\n        /* \"#utility.yul\":3337:3341   */\n      dup2\n        /* \"#utility.yul\":3328:3334   */\n      dup8\n        /* \"#utility.yul\":3264:3342   */\n      tag_221\n      jump\t// in\n    tag_320:\n        /* \"#utility.yul\":3256:3342   */\n      swap1\n      pop\n        /* \"#utility.yul\":3352:3424   */\n      tag_321\n        /* \"#utility.yul\":3420:3422   */\n      0x40\n        /* \"#utility.yul\":3409:3418   */\n      dup4\n        /* \"#utility.yul\":3405:3423   */\n      add\n        /* \"#utility.yul\":3396:3402   */\n      dup7\n        /* \"#utility.yul\":3352:3424   */\n      tag_222\n      jump\t// in\n    tag_321:\n        /* \"#utility.yul\":3434:3506   */\n      tag_322\n        /* \"#utility.yul\":3502:3504   */\n      0x60\n        /* \"#utility.yul\":3491:3500   */\n      dup4\n        /* \"#utility.yul\":3487:3505   */\n      add\n        /* \"#utility.yul\":3478:3484   */\n      dup6\n        /* \"#utility.yul\":3434:3506   */\n      tag_222\n      jump\t// in\n    tag_322:\n        /* \"#utility.yul\":3516:3589   */\n      tag_323\n        /* \"#utility.yul\":3584:3587   */\n      0x80\n        /* \"#utility.yul\":3573:3582   */\n      dup4\n        /* \"#utility.yul\":3569:3588   */\n      add\n        /* \"#utility.yul\":3560:3566   */\n      dup5\n        /* \"#utility.yul\":3516:3589   */\n      tag_222\n      jump\t// in\n    tag_323:\n        /* \"#utility.yul\":2841:3596   */\n      swap7\n      swap6\n      pop\n      pop\n      pop\n      pop\n      pop\n      pop\n      jump\t// out\n        /* \"#utility.yul\":3602:3931   */\n    tag_26:\n        /* \"#utility.yul\":3661:3667   */\n      0x00\n        /* \"#utility.yul\":3710:3712   */\n      0x20\n        /* \"#utility.yul\":3698:3707   */\n      dup3\n        /* \"#utility.yul\":3689:3696   */\n      dup5\n        /* \"#utility.yul\":3685:3708   */\n      sub\n        /* \"#utility.yul\":3681:3713   */\n      slt\n        /* \"#utility.yul\":3678:3797   */\n      iszero\n      tag_325\n      jumpi\n        /* \"#utility.yul\":3716:3795   */\n      tag_326\n      tag_207\n      jump\t// in\n    tag_326:\n        /* \"#utility.yul\":3678:3797   */\n    tag_325:\n        /* \"#utility.yul\":3836:3837   */\n      0x00\n        /* \"#utility.yul\":3861:3914   */\n      tag_327\n        /* \"#utility.yul\":3906:3913   */\n      dup5\n        /* \"#utility.yul\":3897:3903   */\n      dup3\n        /* \"#utility.yul\":3886:3895   */\n      dup6\n        /* \"#utility.yul\":3882:3904   */\n      add\n        /* \"#utility.yul\":3861:3914   */\n      tag_212\n      jump\t// in\n    tag_327:\n        /* \"#utility.yul\":3851:3914   */\n      swap2\n      pop\n        /* \"#utility.yul\":3807:3924   */\n      pop\n        /* \"#utility.yul\":3602:3931   */\n      swap3\n      swap2\n      pop\n      pop\n      jump\t// out\n        /* \"#utility.yul\":3937:4073   */\n    tag_223:\n        /* \"#utility.yul\":4026:4032   */\n      0x00\n        /* \"#utility.yul\":4060:4065   */\n      dup2\n        /* \"#utility.yul\":4054:4066   */\n      mload\n        /* \"#utility.yul\":4044:4066   */\n      swap1\n      pop\n        /* \"#utility.yul\":3937:4073   */\n      swap2\n      swap1\n      pop\n      jump\t// out\n        /* \"#utility.yul\":4079:4285   */\n    tag_224:\n        /* \"#utility.yul\":4200:4211   */\n      0x00\n        /* \"#utility.yul\":4234:4240   */\n      dup3\n        /* \"#utility.yul\":4229:4232   */\n      dup3\n        /* \"#utility.yul\":4222:4241   */\n      mstore\n        /* \"#utility.yul\":4274:4278   */\n      0x20\n        /* \"#utility.yul\":4269:4272   */\n      dup3\n        /* \"#utility.yul\":4265:4279   */\n      add\n        /* \"#utility.yul\":4250:4279   */\n      swap1\n      pop\n        /* \"#utility.yul\":4079:4285   */\n      swap3\n      swap2\n      pop\n      pop\n      jump\t// out\n        /* \"#utility.yul\":4291:4445   */\n    tag_225:\n        /* \"#utility.yul\":4380:4384   */\n      0x00\n        /* \"#utility.yul\":4403:4406   */\n      dup2\n        /* \"#utility.yul\":4395:4406   */\n      swap1\n      pop\n        /* \"#utility.yul\":4433:4437   */\n      0x20\n        /* \"#utility.yul\":4428:4431   */\n      dup3\n        /* \"#utility.yul\":4424:4438   */\n      add\n        /* \"#utility.yul\":4416:4438   */\n      swap1\n      pop\n        /* \"#utility.yul\":4291:4445   */\n      swap2\n      swap1\n      pop\n      jump\t// out\n        /* \"#utility.yul\":4451:4559   */\n    tag_226:\n        /* \"#utility.yul\":4528:4552   */\n      tag_332\n        /* \"#utility.yul\":4546:4551   */\n      dup2\n        /* \"#utility.yul\":4528:4552   */\n      tag_210\n      jump\t// in\n    tag_332:\n        /* \"#utility.yul\":4523:4526   */\n      dup3\n        /* \"#utility.yul\":4516:4553   */\n      mstore\n        /* \"#utility.yul\":4451:4559   */\n      pop\n      pop\n      jump\t// out\n        /* \"#utility.yul\":4565:4724   */\n    tag_227:\n        /* \"#utility.yul\":4639:4650   */\n      0x00\n        /* \"#utility.yul\":4673:4679   */\n      dup3\n        /* \"#utility.yul\":4668:4671   */\n      dup3\n        /* \"#utility.yul\":4661:4680   */\n      mstore\n        /* \"#utility.yul\":4713:4717   */\n      0x20\n        /* \"#utility.yul\":4708:4711   */\n      dup3\n        /* \"#utility.yul\":4704:4718   */\n      add\n        /* \"#utility.yul\":4689:4718   */\n      swap1\n      pop\n        /* \"#utility.yul\":4565:4724   */\n      swap3\n      swap2\n      pop\n      pop\n      jump\t// out\n        /* \"#utility.yul\":4730:5087   */\n    tag_228:\n        /* \"#utility.yul\":4808:4811   */\n      0x00\n        /* \"#utility.yul\":4836:4875   */\n      tag_335\n        /* \"#utility.yul\":4869:4874   */\n      dup3\n        /* \"#utility.yul\":4836:4875   */\n      tag_217\n      jump\t// in\n    tag_335:\n        /* \"#utility.yul\":4891:4952   */\n      tag_336\n        /* \"#utility.yul\":4945:4951   */\n      dup2\n        /* \"#utility.yul\":4940:4943   */\n      dup6\n        /* \"#utility.yul\":4891:4952   */\n      tag_227\n      jump\t// in\n    tag_336:\n        /* \"#utility.yul\":4884:4952   */\n      swap4\n      pop\n        /* \"#utility.yul\":4961:5026   */\n      tag_337\n        /* \"#utility.yul\":5019:5025   */\n      dup2\n        /* \"#utility.yul\":5014:5017   */\n      dup6\n        /* \"#utility.yul\":5007:5011   */\n      0x20\n        /* \"#utility.yul\":5000:5005   */\n      dup7\n        /* \"#utility.yul\":4996:5012   */\n      add\n        /* \"#utility.yul\":4961:5026   */\n      tag_219\n      jump\t// in\n    tag_337:\n        /* \"#utility.yul\":5051:5080   */\n      tag_338\n        /* \"#utility.yul\":5073:5079   */\n      dup2\n        /* \"#utility.yul\":5051:5080   */\n      tag_220\n      jump\t// in\n    tag_338:\n        /* \"#utility.yul\":5046:5049   */\n      dup5\n        /* \"#utility.yul\":5042:5081   */\n      add\n        /* \"#utility.yul\":5035:5081   */\n      swap2\n      pop\n        /* \"#utility.yul\":4812:5087   */\n      pop\n        /* \"#utility.yul\":4730:5087   */\n      swap3\n      swap2\n      pop\n      pop\n      jump\t// out\n        /* \"#utility.yul\":5093:5201   */\n    tag_229:\n        /* \"#utility.yul\":5170:5194   */\n      tag_340\n        /* \"#utility.yul\":5188:5193   */\n      dup2\n        /* \"#utility.yul\":5170:5194   */\n      tag_213\n      jump\t// in\n    tag_340:\n        /* \"#utility.yul\":5165:5168   */\n      dup3\n        /* \"#utility.yul\":5158:5195   */\n      mstore\n        /* \"#utility.yul\":5093:5201   */\n      pop\n      pop\n      jump\t// out\n        /* \"#utility.yul\":5259:6380   */\n    tag_230:\n        /* \"#utility.yul\":5362:5365   */\n      0x00\n        /* \"#utility.yul\":5398:5402   */\n      0xa0\n        /* \"#utility.yul\":5393:5396   */\n      dup4\n        /* \"#utility.yul\":5389:5403   */\n      add\n        /* \"#utility.yul\":5487:5491   */\n      0x00\n        /* \"#utility.yul\":5480:5485   */\n      dup4\n        /* \"#utility.yul\":5476:5492   */\n      add\n        /* \"#utility.yul\":5470:5493   */\n      mload\n        /* \"#utility.yul\":5506:5569   */\n      tag_342\n        /* \"#utility.yul\":5563:5567   */\n      0x00\n        /* \"#utility.yul\":5558:5561   */\n      dup7\n        /* \"#utility.yul\":5554:5568   */\n      add\n        /* \"#utility.yul\":5540:5552   */\n      dup3\n        /* \"#utility.yul\":5506:5569   */\n      tag_226\n      jump\t// in\n    tag_342:\n        /* \"#utility.yul\":5413:5579   */\n      pop\n        /* \"#utility.yul\":5664:5668   */\n      0x20\n        /* \"#utility.yul\":5657:5662   */\n      dup4\n        /* \"#utility.yul\":5653:5669   */\n      add\n        /* \"#utility.yul\":5647:5670   */\n      mload\n        /* \"#utility.yul\":5717:5720   */\n      dup5\n        /* \"#utility.yul\":5711:5715   */\n      dup3\n        /* \"#utility.yul\":5707:5721   */\n      sub\n        /* \"#utility.yul\":5700:5704   */\n      0x20\n        /* \"#utility.yul\":5695:5698   */\n      dup7\n        /* \"#utility.yul\":5691:5705   */\n      add\n        /* \"#utility.yul\":5684:5722   */\n      mstore\n        /* \"#utility.yul\":5743:5816   */\n      tag_343\n        /* \"#utility.yul\":5811:5815   */\n      dup3\n        /* \"#utility.yul\":5797:5809   */\n      dup3\n        /* \"#utility.yul\":5743:5816   */\n      tag_228\n      jump\t// in\n    tag_343:\n        /* \"#utility.yul\":5735:5816   */\n      swap2\n      pop\n        /* \"#utility.yul\":5589:5827   */\n      pop\n        /* \"#utility.yul\":5914:5918   */\n      0x40\n        /* \"#utility.yul\":5907:5912   */\n      dup4\n        /* \"#utility.yul\":5903:5919   */\n      add\n        /* \"#utility.yul\":5897:5920   */\n      mload\n        /* \"#utility.yul\":5933:5996   */\n      tag_344\n        /* \"#utility.yul\":5990:5994   */\n      0x40\n        /* \"#utility.yul\":5985:5988   */\n      dup7\n        /* \"#utility.yul\":5981:5995   */\n      add\n        /* \"#utility.yul\":5967:5979   */\n      dup3\n        /* \"#utility.yul\":5933:5996   */\n      tag_229\n      jump\t// in\n    tag_344:\n        /* \"#utility.yul\":5837:6006   */\n      pop\n        /* \"#utility.yul\":6089:6093   */\n      0x60\n        /* \"#utility.yul\":6082:6087   */\n      dup4\n        /* \"#utility.yul\":6078:6094   */\n      add\n        /* \"#utility.yul\":6072:6095   */\n      mload\n        /* \"#utility.yul\":6108:6171   */\n      tag_345\n        /* \"#utility.yul\":6165:6169   */\n      0x60\n        /* \"#utility.yul\":6160:6163   */\n      dup7\n        /* \"#utility.yul\":6156:6170   */\n      add\n        /* \"#utility.yul\":6142:6154   */\n      dup3\n        /* \"#utility.yul\":6108:6171   */\n      tag_229\n      jump\t// in\n    tag_345:\n        /* \"#utility.yul\":6016:6181   */\n      pop\n        /* \"#utility.yul\":6261:6265   */\n      0x80\n        /* \"#utility.yul\":6254:6259   */\n      dup4\n        /* \"#utility.yul\":6250:6266   */\n      add\n        /* \"#utility.yul\":6244:6267   */\n      mload\n        /* \"#utility.yul\":6280:6343   */\n      tag_346\n        /* \"#utility.yul\":6337:6341   */\n      0x80\n        /* \"#utility.yul\":6332:6335   */\n      dup7\n        /* \"#utility.yul\":6328:6342   */\n      add\n        /* \"#utility.yul\":6314:6326   */\n      dup3\n        /* \"#utility.yul\":6280:6343   */\n      tag_229\n      jump\t// in\n    tag_346:\n        /* \"#utility.yul\":6191:6353   */\n      pop\n        /* \"#utility.yul\":6370:6374   */\n      dup1\n        /* \"#utility.yul\":6363:6374   */\n      swap2\n      pop\n        /* \"#utility.yul\":5367:6380   */\n      pop\n        /* \"#utility.yul\":5259:6380   */\n      swap3\n      swap2\n      pop\n      pop\n      jump\t// out\n        /* \"#utility.yul\":6386:6630   */\n    tag_231:\n        /* \"#utility.yul\":6499:6509   */\n      0x00\n        /* \"#utility.yul\":6534:6624   */\n      tag_348\n        /* \"#utility.yul\":6620:6623   */\n      dup4\n        /* \"#utility.yul\":6612:6618   */\n      dup4\n        /* \"#utility.yul\":6534:6624   */\n      tag_230\n      jump\t// in\n    tag_348:\n        /* \"#utility.yul\":6520:6624   */\n      swap1\n      pop\n        /* \"#utility.yul\":6386:6630   */\n      swap3\n      swap2\n      pop\n      pop\n      jump\t// out\n        /* \"#utility.yul\":6636:6771   */\n    tag_232:\n        /* \"#utility.yul\":6728:6732   */\n      0x00\n        /* \"#utility.yul\":6760:6764   */\n      0x20\n        /* \"#utility.yul\":6755:6758   */\n      dup3\n        /* \"#utility.yul\":6751:6765   */\n      add\n        /* \"#utility.yul\":6743:6765   */\n      swap1\n      pop\n        /* \"#utility.yul\":6636:6771   */\n      swap2\n      swap1\n      pop\n      jump\t// out\n        /* \"#utility.yul\":6833:7920   */\n    tag_233:\n        /* \"#utility.yul\":6996:6999   */\n      0x00\n        /* \"#utility.yul\":7025:7101   */\n      tag_351\n        /* \"#utility.yul\":7095:7100   */\n      dup3\n        /* \"#utility.yul\":7025:7101   */\n      tag_223\n      jump\t// in\n    tag_351:\n        /* \"#utility.yul\":7117:7225   */\n      tag_352\n        /* \"#utility.yul\":7218:7224   */\n      dup2\n        /* \"#utility.yul\":7213:7216   */\n      dup6\n        /* \"#utility.yul\":7117:7225   */\n      tag_224\n      jump\t// in\n    tag_352:\n        /* \"#utility.yul\":7110:7225   */\n      swap4\n      pop\n        /* \"#utility.yul\":7251:7254   */\n      dup4\n        /* \"#utility.yul\":7296:7300   */\n      0x20\n        /* \"#utility.yul\":7288:7294   */\n      dup3\n        /* \"#utility.yul\":7284:7301   */\n      mul\n        /* \"#utility.yul\":7279:7282   */\n      dup6\n        /* \"#utility.yul\":7275:7302   */\n      add\n        /* \"#utility.yul\":7326:7404   */\n      tag_353\n        /* \"#utility.yul\":7398:7403   */\n      dup6\n        /* \"#utility.yul\":7326:7404   */\n      tag_225\n      jump\t// in\n    tag_353:\n        /* \"#utility.yul\":7427:7434   */\n      dup1\n        /* \"#utility.yul\":7458:7459   */\n      0x00\n        /* \"#utility.yul\":7443:7875   */\n    tag_354:\n        /* \"#utility.yul\":7468:7474   */\n      dup6\n        /* \"#utility.yul\":7465:7466   */\n      dup2\n        /* \"#utility.yul\":7462:7475   */\n      lt\n        /* \"#utility.yul\":7443:7875   */\n      iszero\n      tag_356\n      jumpi\n        /* \"#utility.yul\":7539:7548   */\n      dup5\n        /* \"#utility.yul\":7533:7537   */\n      dup5\n        /* \"#utility.yul\":7529:7549   */\n      sub\n        /* \"#utility.yul\":7524:7527   */\n      dup10\n        /* \"#utility.yul\":7517:7550   */\n      mstore\n        /* \"#utility.yul\":7590:7596   */\n      dup2\n        /* \"#utility.yul\":7584:7597   */\n      mload\n        /* \"#utility.yul\":7618:7726   */\n      tag_357\n        /* \"#utility.yul\":7721:7725   */\n      dup6\n        /* \"#utility.yul\":7706:7719   */\n      dup3\n        /* \"#utility.yul\":7618:7726   */\n      tag_231\n      jump\t// in\n    tag_357:\n        /* \"#utility.yul\":7610:7726   */\n      swap5\n      pop\n        /* \"#utility.yul\":7749:7831   */\n      tag_358\n        /* \"#utility.yul\":7824:7830   */\n      dup4\n        /* \"#utility.yul\":7749:7831   */\n      tag_232\n      jump\t// in\n    tag_358:\n        /* \"#utility.yul\":7739:7831   */\n      swap3\n      pop\n        /* \"#utility.yul\":7860:7864   */\n      0x20\n        /* \"#utility.yul\":7855:7858   */\n      dup11\n        /* \"#utility.yul\":7851:7865   */\n      add\n        /* \"#utility.yul\":7844:7865   */\n      swap10\n      pop\n        /* \"#utility.yul\":7503:7875   */\n      pop\n        /* \"#utility.yul\":7490:7491   */\n      0x01\n        /* \"#utility.yul\":7487:7488   */\n      dup2\n        /* \"#utility.yul\":7483:7492   */\n      add\n        /* \"#utility.yul\":7478:7492   */\n      swap1\n      pop\n        /* \"#utility.yul\":7443:7875   */\n      jump(tag_354)\n    tag_356:\n        /* \"#utility.yul\":7447:7461   */\n      pop\n        /* \"#utility.yul\":7891:7895   */\n      dup3\n        /* \"#utility.yul\":7884:7895   */\n      swap8\n      pop\n        /* \"#utility.yul\":7911:7914   */\n      dup8\n        /* \"#utility.yul\":7904:7914   */\n      swap6\n      pop\n        /* \"#utility.yul\":7001:7920   */\n      pop\n      pop\n      pop\n      pop\n      pop\n        /* \"#utility.yul\":6833:7920   */\n      swap3\n      swap2\n      pop\n      pop\n      jump\t// out\n        /* \"#utility.yul\":7926:8387   */\n    tag_29:\n        /* \"#utility.yul\":8113:8117   */\n      0x00\n        /* \"#utility.yul\":8151:8153   */\n      0x20\n        /* \"#utility.yul\":8140:8149   */\n      dup3\n        /* \"#utility.yul\":8136:8154   */\n      add\n        /* \"#utility.yul\":8128:8154   */\n      swap1\n      pop\n        /* \"#utility.yul\":8200:8209   */\n      dup2\n        /* \"#utility.yul\":8194:8198   */\n      dup2\n        /* \"#utility.yul\":8190:8210   */\n      sub\n        /* \"#utility.yul\":8186:8187   */\n      0x00\n        /* \"#utility.yul\":8175:8184   */\n      dup4\n        /* \"#utility.yul\":8171:8188   */\n      add\n        /* \"#utility.yul\":8164:8211   */\n      mstore\n        /* \"#utility.yul\":8228:8380   */\n      tag_360\n        /* \"#utility.yul\":8375:8379   */\n      dup2\n        /* \"#utility.yul\":8366:8372   */\n      dup5\n        /* \"#utility.yul\":8228:8380   */\n      tag_233\n      jump\t// in\n    tag_360:\n        /* \"#utility.yul\":8220:8380   */\n      swap1\n      pop\n        /* \"#utility.yul\":7926:8387   */\n      swap3\n      swap2\n      pop\n      pop\n      jump\t// out\n        /* \"#utility.yul\":8393:8482   */\n    tag_234:\n        /* \"#utility.yul\":8429:8436   */\n      0x00\n        /* \"#utility.yul\":8469:8475   */\n      0xffff\n        /* \"#utility.yul\":8462:8467   */\n      dup3\n        /* \"#utility.yul\":8458:8476   */\n      and\n        /* \"#utility.yul\":8447:8476   */\n      swap1\n      pop\n        /* \"#utility.yul\":8393:8482   */\n      swap2\n      swap1\n      pop\n      jump\t// out\n        /* \"#utility.yul\":8488:8608   */\n    tag_235:\n        /* \"#utility.yul\":8560:8583   */\n      tag_363\n        /* \"#utility.yul\":8577:8582   */\n      dup2\n        /* \"#utility.yul\":8560:8583   */\n      tag_234\n      jump\t// in\n    tag_363:\n        /* \"#utility.yul\":8553:8558   */\n      dup2\n        /* \"#utility.yul\":8550:8584   */\n      eq\n        /* \"#utility.yul\":8540:8602   */\n      tag_364\n      jumpi\n        /* \"#utility.yul\":8598:8599   */\n      0x00\n        /* \"#utility.yul\":8595:8596   */\n      dup1\n        /* \"#utility.yul\":8588:8600   */\n      revert\n        /* \"#utility.yul\":8540:8602   */\n    tag_364:\n        /* \"#utility.yul\":8488:8608   */\n      pop\n      jump\t// out\n        /* \"#utility.yul\":8614:8751   */\n    tag_236:\n        /* \"#utility.yul\":8659:8664   */\n      0x00\n        /* \"#utility.yul\":8697:8703   */\n      dup2\n        /* \"#utility.yul\":8684:8704   */\n      calldataload\n        /* \"#utility.yul\":8675:8704   */\n      swap1\n      pop\n        /* \"#utility.yul\":8713:8745   */\n      tag_366\n        /* \"#utility.yul\":8739:8744   */\n      dup2\n        /* \"#utility.yul\":8713:8745   */\n      tag_235\n      jump\t// in\n    tag_366:\n        /* \"#utility.yul\":8614:8751   */\n      swap3\n      swap2\n      pop\n      pop\n      jump\t// out\n        /* \"#utility.yul\":8757:9084   */\n    tag_32:\n        /* \"#utility.yul\":8815:8821   */\n      0x00\n        /* \"#utility.yul\":8864:8866   */\n      0x20\n        /* \"#utility.yul\":8852:8861   */\n      dup3\n        /* \"#utility.yul\":8843:8850   */\n      dup5\n        /* \"#utility.yul\":8839:8862   */\n      sub\n        /* \"#utility.yul\":8835:8867   */\n      slt\n        /* \"#utility.yul\":8832:8951   */\n      iszero\n      tag_368\n      jumpi\n        /* \"#utility.yul\":8870:8949   */\n      tag_369\n      tag_207\n      jump\t// in\n    tag_369:\n        /* \"#utility.yul\":8832:8951   */\n    tag_368:\n        /* \"#utility.yul\":8990:8991   */\n      0x00\n        /* \"#utility.yul\":9015:9067   */\n      tag_370\n        /* \"#utility.yul\":9059:9066   */\n      dup5\n        /* \"#utility.yul\":9050:9056   */\n      dup3\n        /* \"#utility.yul\":9039:9048   */\n      dup6\n        /* \"#utility.yul\":9035:9057   */\n      add\n        /* \"#utility.yul\":9015:9067   */\n      tag_236\n      jump\t// in\n    tag_370:\n        /* \"#utility.yul\":9005:9067   */\n      swap2\n      pop\n        /* \"#utility.yul\":8961:9077   */\n      pop\n        /* \"#utility.yul\":8757:9084   */\n      swap3\n      swap2\n      pop\n      pop\n      jump\t// out\n        /* \"#utility.yul\":9090:9205   */\n    tag_237:\n        /* \"#utility.yul\":9175:9198   */\n      tag_372\n        /* \"#utility.yul\":9192:9197   */\n      dup2\n        /* \"#utility.yul\":9175:9198   */\n      tag_234\n      jump\t// in\n    tag_372:\n        /* \"#utility.yul\":9170:9173   */\n      dup3\n        /* \"#utility.yul\":9163:9199   */\n      mstore\n        /* \"#utility.yul\":9090:9205   */\n      pop\n      pop\n      jump\t// out\n        /* \"#utility.yul\":9211:9429   */\n    tag_37:\n        /* \"#utility.yul\":9302:9306   */\n      0x00\n        /* \"#utility.yul\":9340:9342   */\n      0x20\n        /* \"#utility.yul\":9329:9338   */\n      dup3\n        /* \"#utility.yul\":9325:9343   */\n      add\n        /* \"#utility.yul\":9317:9343   */\n      swap1\n      pop\n        /* \"#utility.yul\":9353:9422   */\n      tag_374\n        /* \"#utility.yul\":9419:9420   */\n      0x00\n        /* \"#utility.yul\":9408:9417   */\n      dup4\n        /* \"#utility.yul\":9404:9421   */\n      add\n        /* \"#utility.yul\":9395:9401   */\n      dup5\n        /* \"#utility.yul\":9353:9422   */\n      tag_237\n      jump\t// in\n    tag_374:\n        /* \"#utility.yul\":9211:9429   */\n      swap3\n      swap2\n      pop\n      pop\n      jump\t// out\n        /* \"#utility.yul\":9435:9909   */\n    tag_42:\n        /* \"#utility.yul\":9503:9509   */\n      0x00\n        /* \"#utility.yul\":9511:9517   */\n      dup1\n        /* \"#utility.yul\":9560:9562   */\n      0x40\n        /* \"#utility.yul\":9548:9557   */\n      dup4\n        /* \"#utility.yul\":9539:9546   */\n      dup6\n        /* \"#utility.yul\":9535:9558   */\n      sub\n        /* \"#utility.yul\":9531:9563   */\n      slt\n        /* \"#utility.yul\":9528:9647   */\n      iszero\n      tag_376\n      jumpi\n        /* \"#utility.yul\":9566:9645   */\n      tag_377\n      tag_207\n      jump\t// in\n    tag_377:\n        /* \"#utility.yul\":9528:9647   */\n    tag_376:\n        /* \"#utility.yul\":9686:9687   */\n      0x00\n        /* \"#utility.yul\":9711:9764   */\n      tag_378\n        /* \"#utility.yul\":9756:9763   */\n      dup6\n        /* \"#utility.yul\":9747:9753   */\n      dup3\n        /* \"#utility.yul\":9736:9745   */\n      dup7\n        /* \"#utility.yul\":9732:9754   */\n      add\n        /* \"#utility.yul\":9711:9764   */\n      tag_215\n      jump\t// in\n    tag_378:\n        /* \"#utility.yul\":9701:9764   */\n      swap3\n      pop\n        /* \"#utility.yul\":9657:9774   */\n      pop\n        /* \"#utility.yul\":9813:9815   */\n      0x20\n        /* \"#utility.yul\":9839:9892   */\n      tag_379\n        /* \"#utility.yul\":9884:9891   */\n      dup6\n        /* \"#utility.yul\":9875:9881   */\n      dup3\n        /* \"#utility.yul\":9864:9873   */\n      dup7\n        /* \"#utility.yul\":9860:9882   */\n      add\n        /* \"#utility.yul\":9839:9892   */\n      tag_212\n      jump\t// in\n    tag_379:\n        /* \"#utility.yul\":9829:9892   */\n      swap2\n      pop\n        /* \"#utility.yul\":9784:9902   */\n      pop\n        /* \"#utility.yul\":9435:9909   */\n      swap3\n      pop\n      swap3\n      swap1\n      pop\n      jump\t// out\n        /* \"#utility.yul\":9915:10032   */\n    tag_238:\n        /* \"#utility.yul\":10024:10025   */\n      0x00\n        /* \"#utility.yul\":10021:10022   */\n      dup1\n        /* \"#utility.yul\":10014:10026   */\n      revert\n        /* \"#utility.yul\":10038:10155   */\n    tag_239:\n        /* \"#utility.yul\":10147:10148   */\n      0x00\n        /* \"#utility.yul\":10144:10145   */\n      dup1\n        /* \"#utility.yul\":10137:10149   */\n      revert\n        /* \"#utility.yul\":10161:10341   */\n    tag_240:\n        /* \"#utility.yul\":10209:10286   */\n      0x4e487b7100000000000000000000000000000000000000000000000000000000\n        /* \"#utility.yul\":10206:10207   */\n      0x00\n        /* \"#utility.yul\":10199:10287   */\n      mstore\n        /* \"#utility.yul\":10306:10310   */\n      0x41\n        /* \"#utility.yul\":10303:10304   */\n      0x04\n        /* \"#utility.yul\":10296:10311   */\n      mstore\n        /* \"#utility.yul\":10330:10334   */\n      0x24\n        /* \"#utility.yul\":10327:10328   */\n      0x00\n        /* \"#utility.yul\":10320:10335   */\n      revert\n        /* \"#utility.yul\":10347:10628   */\n    tag_241:\n        /* \"#utility.yul\":10430:10457   */\n      tag_384\n        /* \"#utility.yul\":10452:10456   */\n      dup3\n        /* \"#utility.yul\":10430:10457   */\n      tag_220\n      jump\t// in\n    tag_384:\n        /* \"#utility.yul\":10422:10428   */\n      dup2\n        /* \"#utility.yul\":10418:10458   */\n      add\n        /* \"#utility.yul\":10560:10566   */\n      dup2\n        /* \"#utility.yul\":10548:10558   */\n      dup2\n        /* \"#utility.yul\":10545:10567   */\n      lt\n        /* \"#utility.yul\":10524:10542   */\n      0xffffffffffffffff\n        /* \"#utility.yul\":10512:10522   */\n      dup3\n        /* \"#utility.yul\":10509:10543   */\n      gt\n        /* \"#utility.yul\":10506:10568   */\n      or\n        /* \"#utility.yul\":10503:10591   */\n      iszero\n      tag_385\n      jumpi\n        /* \"#utility.yul\":10571:10589   */\n      tag_386\n      tag_240\n      jump\t// in\n    tag_386:\n        /* \"#utility.yul\":10503:10591   */\n    tag_385:\n        /* \"#utility.yul\":10611:10621   */\n      dup1\n        /* \"#utility.yul\":10607:10609   */\n      0x40\n        /* \"#utility.yul\":10600:10622   */\n      mstore\n        /* \"#utility.yul\":10390:10628   */\n      pop\n        /* \"#utility.yul\":10347:10628   */\n      pop\n      pop\n      jump\t// out\n        /* \"#utility.yul\":10634:10763   */\n    tag_242:\n        /* \"#utility.yul\":10668:10674   */\n      0x00\n        /* \"#utility.yul\":10695:10715   */\n      tag_388\n      tag_206\n      jump\t// in\n    tag_388:\n        /* \"#utility.yul\":10685:10715   */\n      swap1\n      pop\n        /* \"#utility.yul\":10724:10757   */\n      tag_389\n        /* \"#utility.yul\":10752:10756   */\n      dup3\n        /* \"#utility.yul\":10744:10750   */\n      dup3\n        /* \"#utility.yul\":10724:10757   */\n      tag_241\n      jump\t// in\n    tag_389:\n        /* \"#utility.yul\":10634:10763   */\n      swap2\n      swap1\n      pop\n      jump\t// out\n        /* \"#utility.yul\":10769:11077   */\n    tag_243:\n        /* \"#utility.yul\":10831:10835   */\n      0x00\n        /* \"#utility.yul\":10921:10939   */\n      0xffffffffffffffff\n        /* \"#utility.yul\":10913:10919   */\n      dup3\n        /* \"#utility.yul\":10910:10940   */\n      gt\n        /* \"#utility.yul\":10907:10963   */\n      iszero\n      tag_391\n      jumpi\n        /* \"#utility.yul\":10943:10961   */\n      tag_392\n      tag_240\n      jump\t// in\n    tag_392:\n        /* \"#utility.yul\":10907:10963   */\n    tag_391:\n        /* \"#utility.yul\":10981:11010   */\n      tag_393\n        /* \"#utility.yul\":11003:11009   */\n      dup3\n        /* \"#utility.yul\":10981:11010   */\n      tag_220\n      jump\t// in\n    tag_393:\n        /* \"#utility.yul\":10973:11010   */\n      swap1\n      pop\n        /* \"#utility.yul\":11065:11069   */\n      0x20\n        /* \"#utility.yul\":11059:11063   */\n      dup2\n        /* \"#utility.yul\":11055:11070   */\n      add\n        /* \"#utility.yul\":11047:11070   */\n      swap1\n      pop\n        /* \"#utility.yul\":10769:11077   */\n      swap2\n      swap1\n      pop\n      jump\t// out\n        /* \"#utility.yul\":11083:11231   */\n    tag_244:\n        /* \"#utility.yul\":11181:11187   */\n      dup3\n        /* \"#utility.yul\":11176:11179   */\n      dup2\n        /* \"#utility.yul\":11171:11174   */\n      dup4\n        /* \"#utility.yul\":11158:11188   */\n      calldatacopy\n        /* \"#utility.yul\":11222:11223   */\n      0x00\n        /* \"#utility.yul\":11213:11219   */\n      dup4\n        /* \"#utility.yul\":11208:11211   */\n      dup4\n        /* \"#utility.yul\":11204:11220   */\n      add\n        /* \"#utility.yul\":11197:11224   */\n      mstore\n        /* \"#utility.yul\":11083:11231   */\n      pop\n      pop\n      pop\n      jump\t// out\n        /* \"#utility.yul\":11237:11662   */\n    tag_245:\n        /* \"#utility.yul\":11315:11320   */\n      0x00\n        /* \"#utility.yul\":11340:11406   */\n      tag_396\n        /* \"#utility.yul\":11356:11405   */\n      tag_397\n        /* \"#utility.yul\":11398:11404   */\n      dup5\n        /* \"#utility.yul\":11356:11405   */\n      tag_243\n      jump\t// in\n    tag_397:\n        /* \"#utility.yul\":11340:11406   */\n      tag_242\n      jump\t// in\n    tag_396:\n        /* \"#utility.yul\":11331:11406   */\n      swap1\n      pop\n        /* \"#utility.yul\":11429:11435   */\n      dup3\n        /* \"#utility.yul\":11422:11427   */\n      dup2\n        /* \"#utility.yul\":11415:11436   */\n      mstore\n        /* \"#utility.yul\":11467:11471   */\n      0x20\n        /* \"#utility.yul\":11460:11465   */\n      dup2\n        /* \"#utility.yul\":11456:11472   */\n      add\n        /* \"#utility.yul\":11505:11508   */\n      dup5\n        /* \"#utility.yul\":11496:11502   */\n      dup5\n        /* \"#utility.yul\":11491:11494   */\n      dup5\n        /* \"#utility.yul\":11487:11503   */\n      add\n        /* \"#utility.yul\":11484:11509   */\n      gt\n        /* \"#utility.yul\":11481:11593   */\n      iszero\n      tag_398\n      jumpi\n        /* \"#utility.yul\":11512:11591   */\n      tag_399\n      tag_239\n      jump\t// in\n    tag_399:\n        /* \"#utility.yul\":11481:11593   */\n    tag_398:\n        /* \"#utility.yul\":11602:11656   */\n      tag_400\n        /* \"#utility.yul\":11649:11655   */\n      dup5\n        /* \"#utility.yul\":11644:11647   */\n      dup3\n        /* \"#utility.yul\":11639:11642   */\n      dup6\n        /* \"#utility.yul\":11602:11656   */\n      tag_244\n      jump\t// in\n    tag_400:\n        /* \"#utility.yul\":11321:11662   */\n      pop\n        /* \"#utility.yul\":11237:11662   */\n      swap4\n      swap3\n      pop\n      pop\n      pop\n      jump\t// out\n        /* \"#utility.yul\":11682:12022   */\n    tag_246:\n        /* \"#utility.yul\":11738:11743   */\n      0x00\n        /* \"#utility.yul\":11787:11790   */\n      dup3\n        /* \"#utility.yul\":11780:11784   */\n      0x1f\n        /* \"#utility.yul\":11772:11778   */\n      dup4\n        /* \"#utility.yul\":11768:11785   */\n      add\n        /* \"#utility.yul\":11764:11791   */\n      slt\n        /* \"#utility.yul\":11754:11876   */\n      tag_402\n      jumpi\n        /* \"#utility.yul\":11795:11874   */\n      tag_403\n      tag_238\n      jump\t// in\n    tag_403:\n        /* \"#utility.yul\":11754:11876   */\n    tag_402:\n        /* \"#utility.yul\":11912:11918   */\n      dup2\n        /* \"#utility.yul\":11899:11919   */\n      calldataload\n        /* \"#utility.yul\":11937:12016   */\n      tag_404\n        /* \"#utility.yul\":12012:12015   */\n      dup5\n        /* \"#utility.yul\":12004:12010   */\n      dup3\n        /* \"#utility.yul\":11997:12001   */\n      0x20\n        /* \"#utility.yul\":11989:11995   */\n      dup7\n        /* \"#utility.yul\":11985:12002   */\n      add\n        /* \"#utility.yul\":11937:12016   */\n      tag_245\n      jump\t// in\n    tag_404:\n        /* \"#utility.yul\":11928:12016   */\n      swap2\n      pop\n        /* \"#utility.yul\":11744:12022   */\n      pop\n        /* \"#utility.yul\":11682:12022   */\n      swap3\n      swap2\n      pop\n      pop\n      jump\t// out\n        /* \"#utility.yul\":12028:12537   */\n    tag_46:\n        /* \"#utility.yul\":12097:12103   */\n      0x00\n        /* \"#utility.yul\":12146:12148   */\n      0x20\n        /* \"#utility.yul\":12134:12143   */\n      dup3\n        /* \"#utility.yul\":12125:12132   */\n      dup5\n        /* \"#utility.yul\":12121:12144   */\n      sub\n        /* \"#utility.yul\":12117:12149   */\n      slt\n        /* \"#utility.yul\":12114:12233   */\n      iszero\n      tag_406\n      jumpi\n        /* \"#utility.yul\":12152:12231   */\n      tag_407\n      tag_207\n      jump\t// in\n    tag_407:\n        /* \"#utility.yul\":12114:12233   */\n    tag_406:\n        /* \"#utility.yul\":12300:12301   */\n      0x00\n        /* \"#utility.yul\":12289:12298   */\n      dup3\n        /* \"#utility.yul\":12285:12302   */\n      add\n        /* \"#utility.yul\":12272:12303   */\n      calldataload\n        /* \"#utility.yul\":12330:12348   */\n      0xffffffffffffffff\n        /* \"#utility.yul\":12322:12328   */\n      dup2\n        /* \"#utility.yul\":12319:12349   */\n      gt\n        /* \"#utility.yul\":12316:12433   */\n      iszero\n      tag_408\n      jumpi\n        /* \"#utility.yul\":12352:12431   */\n      tag_409\n      tag_208\n      jump\t// in\n    tag_409:\n        /* \"#utility.yul\":12316:12433   */\n    tag_408:\n        /* \"#utility.yul\":12457:12520   */\n      tag_410\n        /* \"#utility.yul\":12512:12519   */\n      dup5\n        /* \"#utility.yul\":12503:12509   */\n      dup3\n        /* \"#utility.yul\":12492:12501   */\n      dup6\n        /* \"#utility.yul\":12488:12510   */\n      add\n        /* \"#utility.yul\":12457:12520   */\n      tag_246\n      jump\t// in\n    tag_410:\n        /* \"#utility.yul\":12447:12520   */\n      swap2\n      pop\n        /* \"#utility.yul\":12243:12530   */\n      pop\n        /* \"#utility.yul\":12028:12537   */\n      swap3\n      swap2\n      pop\n      pop\n      jump\t// out\n        /* \"#utility.yul\":12543:12765   */\n    tag_52:\n        /* \"#utility.yul\":12636:12640   */\n      0x00\n        /* \"#utility.yul\":12674:12676   */\n      0x20\n        /* \"#utility.yul\":12663:12672   */\n      dup3\n        /* \"#utility.yul\":12659:12677   */\n      add\n        /* \"#utility.yul\":12651:12677   */\n      swap1\n      pop\n        /* \"#utility.yul\":12687:12758   */\n      tag_412\n        /* \"#utility.yul\":12755:12756   */\n      0x00\n        /* \"#utility.yul\":12744:12753   */\n      dup4\n        /* \"#utility.yul\":12740:12757   */\n      add\n        /* \"#utility.yul\":12731:12737   */\n      dup5\n        /* \"#utility.yul\":12687:12758   */\n      tag_222\n      jump\t// in\n    tag_412:\n        /* \"#utility.yul\":12543:12765   */\n      swap3\n      swap2\n      pop\n      pop\n      jump\t// out\n        /* \"#utility.yul\":12771:12993   */\n    tag_56:\n        /* \"#utility.yul\":12864:12868   */\n      0x00\n        /* \"#utility.yul\":12902:12904   */\n      0x20\n        /* \"#utility.yul\":12891:12900   */\n      dup3\n        /* \"#utility.yul\":12887:12905   */\n      add\n        /* \"#utility.yul\":12879:12905   */\n      swap1\n      pop\n        /* \"#utility.yul\":12915:12986   */\n      tag_414\n        /* \"#utility.yul\":12983:12984   */\n      0x00\n        /* \"#utility.yul\":12972:12981   */\n      dup4\n        /* \"#utility.yul\":12968:12985   */\n      add\n        /* \"#utility.yul\":12959:12965   */\n      dup5\n        /* \"#utility.yul\":12915:12986   */\n      tag_216\n      jump\t// in\n    tag_414:\n        /* \"#utility.yul\":12771:12993   */\n      swap3\n      swap2\n      pop\n      pop\n      jump\t// out\n        /* \"#utility.yul\":12999:13059   */\n    tag_247:\n        /* \"#utility.yul\":13027:13030   */\n      0x00\n        /* \"#utility.yul\":13048:13053   */\n      dup2\n        /* \"#utility.yul\":13041:13053   */\n      swap1\n      pop\n        /* \"#utility.yul\":12999:13059   */\n      swap2\n      swap1\n      pop\n      jump\t// out\n        /* \"#utility.yul\":13065:13207   */\n    tag_248:\n        /* \"#utility.yul\":13115:13124   */\n      0x00\n        /* \"#utility.yul\":13148:13201   */\n      tag_417\n        /* \"#utility.yul\":13166:13200   */\n      tag_418\n        /* \"#utility.yul\":13175:13199   */\n      tag_419\n        /* \"#utility.yul\":13193:13198   */\n      dup5\n        /* \"#utility.yul\":13175:13199   */\n      tag_209\n      jump\t// in\n    tag_419:\n        /* \"#utility.yul\":13166:13200   */\n      tag_247\n      jump\t// in\n    tag_418:\n        /* \"#utility.yul\":13148:13201   */\n      tag_209\n      jump\t// in\n    tag_417:\n        /* \"#utility.yul\":13135:13201   */\n      swap1\n      pop\n        /* \"#utility.yul\":13065:13207   */\n      swap2\n      swap1\n      pop\n      jump\t// out\n        /* \"#utility.yul\":13213:13339   */\n    tag_249:\n        /* \"#utility.yul\":13263:13272   */\n      0x00\n        /* \"#utility.yul\":13296:13333   */\n      tag_421\n        /* \"#utility.yul\":13327:13332   */\n      dup3\n        /* \"#utility.yul\":13296:13333   */\n      tag_248\n      jump\t// in\n    tag_421:\n        /* \"#utility.yul\":13283:13333   */\n      swap1\n      pop\n        /* \"#utility.yul\":13213:13339   */\n      swap2\n      swap1\n      pop\n      jump\t// out\n        /* \"#utility.yul\":13345:13487   */\n    tag_250:\n        /* \"#utility.yul\":13411:13420   */\n      0x00\n        /* \"#utility.yul\":13444:13481   */\n      tag_423\n        /* \"#utility.yul\":13475:13480   */\n      dup3\n        /* \"#utility.yul\":13444:13481   */\n      tag_249\n      jump\t// in\n    tag_423:\n        /* \"#utility.yul\":13431:13481   */\n      swap1\n      pop\n        /* \"#utility.yul\":13345:13487   */\n      swap2\n      swap1\n      pop\n      jump\t// out\n        /* \"#utility.yul\":13493:13656   */\n    tag_251:\n        /* \"#utility.yul\":13596:13649   */\n      tag_425\n        /* \"#utility.yul\":13643:13648   */\n      dup2\n        /* \"#utility.yul\":13596:13649   */\n      tag_250\n      jump\t// in\n    tag_425:\n        /* \"#utility.yul\":13591:13594   */\n      dup3\n        /* \"#utility.yul\":13584:13650   */\n      mstore\n        /* \"#utility.yul\":13493:13656   */\n      pop\n      pop\n      jump\t// out\n        /* \"#utility.yul\":13662:13916   */\n    tag_60:\n        /* \"#utility.yul\":13771:13775   */\n      0x00\n        /* \"#utility.yul\":13809:13811   */\n      0x20\n        /* \"#utility.yul\":13798:13807   */\n      dup3\n        /* \"#utility.yul\":13794:13812   */\n      add\n        /* \"#utility.yul\":13786:13812   */\n      swap1\n      pop\n        /* \"#utility.yul\":13822:13909   */\n      tag_427\n        /* \"#utility.yul\":13906:13907   */\n      0x00\n        /* \"#utility.yul\":13895:13904   */\n      dup4\n        /* \"#utility.yul\":13891:13908   */\n      add\n        /* \"#utility.yul\":13882:13888   */\n      dup5\n        /* \"#utility.yul\":13822:13909   */\n      tag_251\n      jump\t// in\n    tag_427:\n        /* \"#utility.yul\":13662:13916   */\n      swap3\n      swap2\n      pop\n      pop\n      jump\t// out\n        /* \"#utility.yul\":13922:14251   */\n    tag_63:\n        /* \"#utility.yul\":13981:13987   */\n      0x00\n        /* \"#utility.yul\":14030:14032   */\n      0x20\n        /* \"#utility.yul\":14018:14027   */\n      dup3\n        /* \"#utility.yul\":14009:14016   */\n      dup5\n        /* \"#utility.yul\":14005:14028   */\n      sub\n        /* \"#utility.yul\":14001:14033   */\n      slt\n        /* \"#utility.yul\":13998:14117   */\n      iszero\n      tag_429\n      jumpi\n        /* \"#utility.yul\":14036:14115   */\n      tag_430\n      tag_207\n      jump\t// in\n    tag_430:\n        /* \"#utility.yul\":13998:14117   */\n    tag_429:\n        /* \"#utility.yul\":14156:14157   */\n      0x00\n        /* \"#utility.yul\":14181:14234   */\n      tag_431\n        /* \"#utility.yul\":14226:14233   */\n      dup5\n        /* \"#utility.yul\":14217:14223   */\n      dup3\n        /* \"#utility.yul\":14206:14215   */\n      dup6\n        /* \"#utility.yul\":14202:14224   */\n      add\n        /* \"#utility.yul\":14181:14234   */\n      tag_215\n      jump\t// in\n    tag_431:\n        /* \"#utility.yul\":14171:14234   */\n      swap2\n      pop\n        /* \"#utility.yul\":14127:14244   */\n      pop\n        /* \"#utility.yul\":13922:14251   */\n      swap3\n      swap2\n      pop\n      pop\n      jump\t// out\n        /* \"#utility.yul\":14309:15440   */\n    tag_252:\n        /* \"#utility.yul\":14422:14425   */\n      0x00\n        /* \"#utility.yul\":14458:14462   */\n      0xa0\n        /* \"#utility.yul\":14453:14456   */\n      dup4\n        /* \"#utility.yul\":14449:14463   */\n      add\n        /* \"#utility.yul\":14547:14551   */\n      0x00\n        /* \"#utility.yul\":14540:14545   */\n      dup4\n        /* \"#utility.yul\":14536:14552   */\n      add\n        /* \"#utility.yul\":14530:14553   */\n      mload\n        /* \"#utility.yul\":14566:14629   */\n      tag_433\n        /* \"#utility.yul\":14623:14627   */\n      0x00\n        /* \"#utility.yul\":14618:14621   */\n      dup7\n        /* \"#utility.yul\":14614:14628   */\n      add\n        /* \"#utility.yul\":14600:14612   */\n      dup3\n        /* \"#utility.yul\":14566:14629   */\n      tag_226\n      jump\t// in\n    tag_433:\n        /* \"#utility.yul\":14473:14639   */\n      pop\n        /* \"#utility.yul\":14724:14728   */\n      0x20\n        /* \"#utility.yul\":14717:14722   */\n      dup4\n        /* \"#utility.yul\":14713:14729   */\n      add\n        /* \"#utility.yul\":14707:14730   */\n      mload\n        /* \"#utility.yul\":14777:14780   */\n      dup5\n        /* \"#utility.yul\":14771:14775   */\n      dup3\n        /* \"#utility.yul\":14767:14781   */\n      sub\n        /* \"#utility.yul\":14760:14764   */\n      0x20\n        /* \"#utility.yul\":14755:14758   */\n      dup7\n        /* \"#utility.yul\":14751:14765   */\n      add\n        /* \"#utility.yul\":14744:14782   */\n      mstore\n        /* \"#utility.yul\":14803:14876   */\n      tag_434\n        /* \"#utility.yul\":14871:14875   */\n      dup3\n        /* \"#utility.yul\":14857:14869   */\n      dup3\n        /* \"#utility.yul\":14803:14876   */\n      tag_228\n      jump\t// in\n    tag_434:\n        /* \"#utility.yul\":14795:14876   */\n      swap2\n      pop\n        /* \"#utility.yul\":14649:14887   */\n      pop\n        /* \"#utility.yul\":14974:14978   */\n      0x40\n        /* \"#utility.yul\":14967:14972   */\n      dup4\n        /* \"#utility.yul\":14963:14979   */\n      add\n        /* \"#utility.yul\":14957:14980   */\n      mload\n        /* \"#utility.yul\":14993:15056   */\n      tag_435\n        /* \"#utility.yul\":15050:15054   */\n      0x40\n        /* \"#utility.yul\":15045:15048   */\n      dup7\n        /* \"#utility.yul\":15041:15055   */\n      add\n        /* \"#utility.yul\":15027:15039   */\n      dup3\n        /* \"#utility.yul\":14993:15056   */\n      tag_229\n      jump\t// in\n    tag_435:\n        /* \"#utility.yul\":14897:15066   */\n      pop\n        /* \"#utility.yul\":15149:15153   */\n      0x60\n        /* \"#utility.yul\":15142:15147   */\n      dup4\n        /* \"#utility.yul\":15138:15154   */\n      add\n        /* \"#utility.yul\":15132:15155   */\n      mload\n        /* \"#utility.yul\":15168:15231   */\n      tag_436\n        /* \"#utility.yul\":15225:15229   */\n      0x60\n        /* \"#utility.yul\":15220:15223   */\n      dup7\n        /* \"#utility.yul\":15216:15230   */\n      add\n        /* \"#utility.yul\":15202:15214   */\n      dup3\n        /* \"#utility.yul\":15168:15231   */\n      tag_229\n      jump\t// in\n    tag_436:\n        /* \"#utility.yul\":15076:15241   */\n      pop\n        /* \"#utility.yul\":15321:15325   */\n      0x80\n        /* \"#utility.yul\":15314:15319   */\n      dup4\n        /* \"#utility.yul\":15310:15326   */\n      add\n        /* \"#utility.yul\":15304:15327   */\n      mload\n        /* \"#utility.yul\":15340:15403   */\n      tag_437\n        /* \"#utility.yul\":15397:15401   */\n      0x80\n        /* \"#utility.yul\":15392:15395   */\n      dup7\n        /* \"#utility.yul\":15388:15402   */\n      add\n        /* \"#utility.yul\":15374:15386   */\n      dup3\n        /* \"#utility.yul\":15340:15403   */\n      tag_229\n      jump\t// in\n    tag_437:\n        /* \"#utility.yul\":15251:15413   */\n      pop\n        /* \"#utility.yul\":15430:15434   */\n      dup1\n        /* \"#utility.yul\":15423:15434   */\n      swap2\n      pop\n        /* \"#utility.yul\":14427:15440   */\n      pop\n        /* \"#utility.yul\":14309:15440   */\n      swap3\n      swap2\n      pop\n      pop\n      jump\t// out\n        /* \"#utility.yul\":15446:15807   */\n    tag_66:\n        /* \"#utility.yul\":15583:15587   */\n      0x00\n        /* \"#utility.yul\":15621:15623   */\n      0x20\n        /* \"#utility.yul\":15610:15619   */\n      dup3\n        /* \"#utility.yul\":15606:15624   */\n      add\n        /* \"#utility.yul\":15598:15624   */\n      swap1\n      pop\n        /* \"#utility.yul\":15670:15679   */\n      dup2\n        /* \"#utility.yul\":15664:15668   */\n      dup2\n        /* \"#utility.yul\":15660:15680   */\n      sub\n        /* \"#utility.yul\":15656:15657   */\n      0x00\n        /* \"#utility.yul\":15645:15654   */\n      dup4\n        /* \"#utility.yul\":15641:15658   */\n      add\n        /* \"#utility.yul\":15634:15681   */\n      mstore\n        /* \"#utility.yul\":15698:15800   */\n      tag_439\n        /* \"#utility.yul\":15795:15799   */\n      dup2\n        /* \"#utility.yul\":15786:15792   */\n      dup5\n        /* \"#utility.yul\":15698:15800   */\n      tag_252\n      jump\t// in\n    tag_439:\n        /* \"#utility.yul\":15690:15800   */\n      swap1\n      pop\n        /* \"#utility.yul\":15446:15807   */\n      swap3\n      swap2\n      pop\n      pop\n      jump\t// out\n        /* \"#utility.yul\":15813:15993   */\n    tag_253:\n        /* \"#utility.yul\":15861:15938   */\n      0x4e487b7100000000000000000000000000000000000000000000000000000000\n        /* \"#utility.yul\":15858:15859   */\n      0x00\n        /* \"#utility.yul\":15851:15939   */\n      mstore\n        /* \"#utility.yul\":15958:15962   */\n      0x22\n        /* \"#utility.yul\":15955:15956   */\n      0x04\n        /* \"#utility.yul\":15948:15963   */\n      mstore\n        /* \"#utility.yul\":15982:15986   */\n      0x24\n        /* \"#utility.yul\":15979:15980   */\n      0x00\n        /* \"#utility.yul\":15972:15987   */\n      revert\n        /* \"#utility.yul\":15999:16319   */\n    tag_76:\n        /* \"#utility.yul\":16043:16049   */\n      0x00\n        /* \"#utility.yul\":16080:16081   */\n      0x02\n        /* \"#utility.yul\":16074:16078   */\n      dup3\n        /* \"#utility.yul\":16070:16082   */\n      div\n        /* \"#utility.yul\":16060:16082   */\n      swap1\n      pop\n        /* \"#utility.yul\":16127:16128   */\n      0x01\n        /* \"#utility.yul\":16121:16125   */\n      dup3\n        /* \"#utility.yul\":16117:16129   */\n      and\n        /* \"#utility.yul\":16148:16166   */\n      dup1\n        /* \"#utility.yul\":16138:16219   */\n      tag_442\n      jumpi\n        /* \"#utility.yul\":16204:16208   */\n      0x7f\n        /* \"#utility.yul\":16196:16202   */\n      dup3\n        /* \"#utility.yul\":16192:16209   */\n      and\n        /* \"#utility.yul\":16182:16209   */\n      swap2\n      pop\n        /* \"#utility.yul\":16138:16219   */\n    tag_442:\n        /* \"#utility.yul\":16266:16268   */\n      0x20\n        /* \"#utility.yul\":16258:16264   */\n      dup3\n        /* \"#utility.yul\":16255:16269   */\n      lt\n        /* \"#utility.yul\":16235:16253   */\n      dup2\n        /* \"#utility.yul\":16232:16270   */\n      sub\n        /* \"#utility.yul\":16229:16313   */\n      tag_443\n      jumpi\n        /* \"#utility.yul\":16285:16303   */\n      tag_444\n      tag_253\n      jump\t// in\n    tag_444:\n        /* \"#utility.yul\":16229:16313   */\n    tag_443:\n        /* \"#utility.yul\":16050:16319   */\n      pop\n        /* \"#utility.yul\":15999:16319   */\n      swap2\n      swap1\n      pop\n      jump\t// out\n        /* \"#utility.yul\":16325:16442   */\n    tag_254:\n        /* \"#utility.yul\":16434:16435   */\n      0x00\n        /* \"#utility.yul\":16431:16432   */\n      dup1\n        /* \"#utility.yul\":16424:16436   */\n      revert\n        /* \"#utility.yul\":16448:16565   */\n    tag_255:\n        /* \"#utility.yul\":16557:16558   */\n      0x00\n        /* \"#utility.yul\":16554:16555   */\n      dup1\n        /* \"#utility.yul\":16547:16559   */\n      revert\n        /* \"#utility.yul\":16571:17005   */\n    tag_256:\n        /* \"#utility.yul\":16660:16665   */\n      0x00\n        /* \"#utility.yul\":16685:16751   */\n      tag_448\n        /* \"#utility.yul\":16701:16750   */\n      tag_449\n        /* \"#utility.yul\":16743:16749   */\n      dup5\n        /* \"#utility.yul\":16701:16750   */\n      tag_243\n      jump\t// in\n    tag_449:\n        /* \"#utility.yul\":16685:16751   */\n      tag_242\n      jump\t// in\n    tag_448:\n        /* \"#utility.yul\":16676:16751   */\n      swap1\n      pop\n        /* \"#utility.yul\":16774:16780   */\n      dup3\n        /* \"#utility.yul\":16767:16772   */\n      dup2\n        /* \"#utility.yul\":16760:16781   */\n      mstore\n        /* \"#utility.yul\":16812:16816   */\n      0x20\n        /* \"#utility.yul\":16805:16810   */\n      dup2\n        /* \"#utility.yul\":16801:16817   */\n      add\n        /* \"#utility.yul\":16850:16853   */\n      dup5\n        /* \"#utility.yul\":16841:16847   */\n      dup5\n        /* \"#utility.yul\":16836:16839   */\n      dup5\n        /* \"#utility.yul\":16832:16848   */\n      add\n        /* \"#utility.yul\":16829:16854   */\n      gt\n        /* \"#utility.yul\":16826:16938   */\n      iszero\n      tag_450\n      jumpi\n        /* \"#utility.yul\":16857:16936   */\n      tag_451\n      tag_239\n      jump\t// in\n    tag_451:\n        /* \"#utility.yul\":16826:16938   */\n    tag_450:\n        /* \"#utility.yul\":16947:16999   */\n      tag_452\n        /* \"#utility.yul\":16992:16998   */\n      dup5\n        /* \"#utility.yul\":16987:16990   */\n      dup3\n        /* \"#utility.yul\":16982:16985   */\n      dup6\n        /* \"#utility.yul\":16947:16999   */\n      tag_219\n      jump\t// in\n    tag_452:\n        /* \"#utility.yul\":16666:17005   */\n      pop\n        /* \"#utility.yul\":16571:17005   */\n      swap4\n      swap3\n      pop\n      pop\n      pop\n      jump\t// out\n        /* \"#utility.yul\":17025:17380   */\n    tag_257:\n        /* \"#utility.yul\":17092:17097   */\n      0x00\n        /* \"#utility.yul\":17141:17144   */\n      dup3\n        /* \"#utility.yul\":17134:17138   */\n      0x1f\n        /* \"#utility.yul\":17126:17132   */\n      dup4\n        /* \"#utility.yul\":17122:17139   */\n      add\n        /* \"#utility.yul\":17118:17145   */\n      slt\n        /* \"#utility.yul\":17108:17230   */\n      tag_454\n      jumpi\n        /* \"#utility.yul\":17149:17228   */\n      tag_455\n      tag_238\n      jump\t// in\n    tag_455:\n        /* \"#utility.yul\":17108:17230   */\n    tag_454:\n        /* \"#utility.yul\":17259:17265   */\n      dup2\n        /* \"#utility.yul\":17253:17266   */\n      mload\n        /* \"#utility.yul\":17284:17374   */\n      tag_456\n        /* \"#utility.yul\":17370:17373   */\n      dup5\n        /* \"#utility.yul\":17362:17368   */\n      dup3\n        /* \"#utility.yul\":17355:17359   */\n      0x20\n        /* \"#utility.yul\":17347:17353   */\n      dup7\n        /* \"#utility.yul\":17343:17360   */\n      add\n        /* \"#utility.yul\":17284:17374   */\n      tag_256\n      jump\t// in\n    tag_456:\n        /* \"#utility.yul\":17275:17374   */\n      swap2\n      pop\n        /* \"#utility.yul\":17098:17380   */\n      pop\n        /* \"#utility.yul\":17025:17380   */\n      swap3\n      swap2\n      pop\n      pop\n      jump\t// out\n        /* \"#utility.yul\":17421:18363   */\n    tag_258:\n        /* \"#utility.yul\":17509:17514   */\n      0x00\n        /* \"#utility.yul\":17553:17557   */\n      0x40\n        /* \"#utility.yul\":17541:17550   */\n      dup3\n        /* \"#utility.yul\":17536:17539   */\n      dup5\n        /* \"#utility.yul\":17532:17551   */\n      sub\n        /* \"#utility.yul\":17528:17558   */\n      slt\n        /* \"#utility.yul\":17525:17642   */\n      iszero\n      tag_458\n      jumpi\n        /* \"#utility.yul\":17561:17640   */\n      tag_459\n      tag_254\n      jump\t// in\n    tag_459:\n        /* \"#utility.yul\":17525:17642   */\n    tag_458:\n        /* \"#utility.yul\":17660:17681   */\n      tag_460\n        /* \"#utility.yul\":17676:17680   */\n      0x40\n        /* \"#utility.yul\":17660:17681   */\n      tag_242\n      jump\t// in\n    tag_460:\n        /* \"#utility.yul\":17651:17681   */\n      swap1\n      pop\n        /* \"#utility.yul\":17768:17769   */\n      0x00\n        /* \"#utility.yul\":17757:17766   */\n      dup3\n        /* \"#utility.yul\":17753:17770   */\n      add\n        /* \"#utility.yul\":17747:17771   */\n      mload\n        /* \"#utility.yul\":17798:17816   */\n      0xffffffffffffffff\n        /* \"#utility.yul\":17790:17796   */\n      dup2\n        /* \"#utility.yul\":17787:17817   */\n      gt\n        /* \"#utility.yul\":17784:17901   */\n      iszero\n      tag_461\n      jumpi\n        /* \"#utility.yul\":17820:17899   */\n      tag_462\n      tag_255\n      jump\t// in\n    tag_462:\n        /* \"#utility.yul\":17784:17901   */\n    tag_461:\n        /* \"#utility.yul\":17940:18010   */\n      tag_463\n        /* \"#utility.yul\":18006:18009   */\n      dup5\n        /* \"#utility.yul\":17997:18003   */\n      dup3\n        /* \"#utility.yul\":17986:17995   */\n      dup6\n        /* \"#utility.yul\":17982:18004   */\n      add\n        /* \"#utility.yul\":17940:18010   */\n      tag_257\n      jump\t// in\n    tag_463:\n        /* \"#utility.yul\":17933:17937   */\n      0x00\n        /* \"#utility.yul\":17926:17931   */\n      dup4\n        /* \"#utility.yul\":17922:17938   */\n      add\n        /* \"#utility.yul\":17915:18011   */\n      mstore\n        /* \"#utility.yul\":17691:18022   */\n      pop\n        /* \"#utility.yul\":18101:18103   */\n      0x20\n        /* \"#utility.yul\":18090:18099   */\n      dup3\n        /* \"#utility.yul\":18086:18104   */\n      add\n        /* \"#utility.yul\":18080:18105   */\n      mload\n        /* \"#utility.yul\":18132:18150   */\n      0xffffffffffffffff\n        /* \"#utility.yul\":18124:18130   */\n      dup2\n        /* \"#utility.yul\":18121:18151   */\n      gt\n        /* \"#utility.yul\":18118:18235   */\n      iszero\n      tag_464\n      jumpi\n        /* \"#utility.yul\":18154:18233   */\n      tag_465\n      tag_255\n      jump\t// in\n    tag_465:\n        /* \"#utility.yul\":18118:18235   */\n    tag_464:\n        /* \"#utility.yul\":18274:18344   */\n      tag_466\n        /* \"#utility.yul\":18340:18343   */\n      dup5\n        /* \"#utility.yul\":18331:18337   */\n      dup3\n        /* \"#utility.yul\":18320:18329   */\n      dup6\n        /* \"#utility.yul\":18316:18338   */\n      add\n        /* \"#utility.yul\":18274:18344   */\n      tag_257\n      jump\t// in\n    tag_466:\n        /* \"#utility.yul\":18267:18271   */\n      0x20\n        /* \"#utility.yul\":18260:18265   */\n      dup4\n        /* \"#utility.yul\":18256:18272   */\n      add\n        /* \"#utility.yul\":18249:18345   */\n      mstore\n        /* \"#utility.yul\":18032:18356   */\n      pop\n        /* \"#utility.yul\":17421:18363   */\n      swap3\n      swap2\n      pop\n      pop\n      jump\t// out\n        /* \"#utility.yul\":18369:18929   */\n    tag_104:\n        /* \"#utility.yul\":18467:18473   */\n      0x00\n        /* \"#utility.yul\":18516:18518   */\n      0x20\n        /* \"#utility.yul\":18504:18513   */\n      dup3\n        /* \"#utility.yul\":18495:18502   */\n      dup5\n        /* \"#utility.yul\":18491:18514   */\n      sub\n        /* \"#utility.yul\":18487:18519   */\n      slt\n        /* \"#utility.yul\":18484:18603   */\n      iszero\n      tag_468\n      jumpi\n        /* \"#utility.yul\":18522:18601   */\n      tag_469\n      tag_207\n      jump\t// in\n    tag_469:\n        /* \"#utility.yul\":18484:18603   */\n    tag_468:\n        /* \"#utility.yul\":18663:18664   */\n      0x00\n        /* \"#utility.yul\":18652:18661   */\n      dup3\n        /* \"#utility.yul\":18648:18665   */\n      add\n        /* \"#utility.yul\":18642:18666   */\n      mload\n        /* \"#utility.yul\":18693:18711   */\n      0xffffffffffffffff\n        /* \"#utility.yul\":18685:18691   */\n      dup2\n        /* \"#utility.yul\":18682:18712   */\n      gt\n        /* \"#utility.yul\":18679:18796   */\n      iszero\n      tag_470\n      jumpi\n        /* \"#utility.yul\":18715:18794   */\n      tag_471\n      tag_208\n      jump\t// in\n    tag_471:\n        /* \"#utility.yul\":18679:18796   */\n    tag_470:\n        /* \"#utility.yul\":18820:18912   */\n      tag_472\n        /* \"#utility.yul\":18904:18911   */\n      dup5\n        /* \"#utility.yul\":18895:18901   */\n      dup3\n        /* \"#utility.yul\":18884:18893   */\n      dup6\n        /* \"#utility.yul\":18880:18902   */\n      add\n        /* \"#utility.yul\":18820:18912   */\n      tag_258\n      jump\t// in\n    tag_472:\n        /* \"#utility.yul\":18810:18912   */\n      swap2\n      pop\n        /* \"#utility.yul\":18613:18922   */\n      pop\n        /* \"#utility.yul\":18369:18929   */\n      swap3\n      swap2\n      pop\n      pop\n      jump\t// out\n        /* \"#utility.yul\":18935:19104   */\n    tag_259:\n        /* \"#utility.yul\":19075:19096   */\n      0x55736572206e6f74207265676973746572656400000000000000000000000000\n        /* \"#utility.yul\":19071:19072   */\n      0x00\n        /* \"#utility.yul\":19063:19069   */\n      dup3\n        /* \"#utility.yul\":19059:19073   */\n      add\n        /* \"#utility.yul\":19052:19097   */\n      mstore\n        /* \"#utility.yul\":18935:19104   */\n      pop\n      jump\t// out\n        /* \"#utility.yul\":19110:19476   */\n    tag_260:\n        /* \"#utility.yul\":19252:19255   */\n      0x00\n        /* \"#utility.yul\":19273:19340   */\n      tag_475\n        /* \"#utility.yul\":19337:19339   */\n      0x13\n        /* \"#utility.yul\":19332:19335   */\n      dup4\n        /* \"#utility.yul\":19273:19340   */\n      tag_218\n      jump\t// in\n    tag_475:\n        /* \"#utility.yul\":19266:19340   */\n      swap2\n      pop\n        /* \"#utility.yul\":19349:19442   */\n      tag_476\n        /* \"#utility.yul\":19438:19441   */\n      dup3\n        /* \"#utility.yul\":19349:19442   */\n      tag_259\n      jump\t// in\n    tag_476:\n        /* \"#utility.yul\":19467:19469   */\n      0x20\n        /* \"#utility.yul\":19462:19465   */\n      dup3\n        /* \"#utility.yul\":19458:19470   */\n      add\n        /* \"#utility.yul\":19451:19470   */\n      swap1\n      pop\n        /* \"#utility.yul\":19110:19476   */\n      swap2\n      swap1\n      pop\n      jump\t// out\n        /* \"#utility.yul\":19482:19901   */\n    tag_107:\n        /* \"#utility.yul\":19648:19652   */\n      0x00\n        /* \"#utility.yul\":19686:19688   */\n      0x20\n        /* \"#utility.yul\":19675:19684   */\n      dup3\n        /* \"#utility.yul\":19671:19689   */\n      add\n        /* \"#utility.yul\":19663:19689   */\n      swap1\n      pop\n        /* \"#utility.yul\":19735:19744   */\n      dup2\n        /* \"#utility.yul\":19729:19733   */\n      dup2\n        /* \"#utility.yul\":19725:19745   */\n      sub\n        /* \"#utility.yul\":19721:19722   */\n      0x00\n        /* \"#utility.yul\":19710:19719   */\n      dup4\n        /* \"#utility.yul\":19706:19723   */\n      add\n        /* \"#utility.yul\":19699:19746   */\n      mstore\n        /* \"#utility.yul\":19763:19894   */\n      tag_478\n        /* \"#utility.yul\":19889:19893   */\n      dup2\n        /* \"#utility.yul\":19763:19894   */\n      tag_260\n      jump\t// in\n    tag_478:\n        /* \"#utility.yul\":19755:19894   */\n      swap1\n      pop\n        /* \"#utility.yul\":19482:19901   */\n      swap2\n      swap1\n      pop\n      jump\t// out\n        /* \"#utility.yul\":19907:20087   */\n    tag_111:\n        /* \"#utility.yul\":19955:20032   */\n      0x4e487b7100000000000000000000000000000000000000000000000000000000\n        /* \"#utility.yul\":19952:19953   */\n      0x00\n        /* \"#utility.yul\":19945:20033   */\n      mstore\n        /* \"#utility.yul\":20052:20056   */\n      0x32\n        /* \"#utility.yul\":20049:20050   */\n      0x04\n        /* \"#utility.yul\":20042:20057   */\n      mstore\n        /* \"#utility.yul\":20076:20080   */\n      0x24\n        /* \"#utility.yul\":20073:20074   */\n      0x00\n        /* \"#utility.yul\":20066:20081   */\n      revert\n        /* \"#utility.yul\":20093:20258   */\n    tag_261:\n        /* \"#utility.yul\":20233:20250   */\n      0x5477656574206e6f7420666f756e640000000000000000000000000000000000\n        /* \"#utility.yul\":20229:20230   */\n      0x00\n        /* \"#utility.yul\":20221:20227   */\n      dup3\n        /* \"#utility.yul\":20217:20231   */\n      add\n        /* \"#utility.yul\":20210:20251   */\n      mstore\n        /* \"#utility.yul\":20093:20258   */\n      pop\n      jump\t// out\n        /* \"#utility.yul\":20264:20630   */\n    tag_262:\n        /* \"#utility.yul\":20406:20409   */\n      0x00\n        /* \"#utility.yul\":20427:20494   */\n      tag_482\n        /* \"#utility.yul\":20491:20493   */\n      0x0f\n        /* \"#utility.yul\":20486:20489   */\n      dup4\n        /* \"#utility.yul\":20427:20494   */\n      tag_218\n      jump\t// in\n    tag_482:\n        /* \"#utility.yul\":20420:20494   */\n      swap2\n      pop\n        /* \"#utility.yul\":20503:20596   */\n      tag_483\n        /* \"#utility.yul\":20592:20595   */\n      dup3\n        /* \"#utility.yul\":20503:20596   */\n      tag_261\n      jump\t// in\n    tag_483:\n        /* \"#utility.yul\":20621:20623   */\n      0x20\n        /* \"#utility.yul\":20616:20619   */\n      dup3\n        /* \"#utility.yul\":20612:20624   */\n      add\n        /* \"#utility.yul\":20605:20624   */\n      swap1\n      pop\n        /* \"#utility.yul\":20264:20630   */\n      swap2\n      swap1\n      pop\n      jump\t// out\n        /* \"#utility.yul\":20636:21055   */\n    tag_115:\n        /* \"#utility.yul\":20802:20806   */\n      0x00\n        /* \"#utility.yul\":20840:20842   */\n      0x20\n        /* \"#utility.yul\":20829:20838   */\n      dup3\n        /* \"#utility.yul\":20825:20843   */\n      add\n        /* \"#utility.yul\":20817:20843   */\n      swap1\n      pop\n        /* \"#utility.yul\":20889:20898   */\n      dup2\n        /* \"#utility.yul\":20883:20887   */\n      dup2\n        /* \"#utility.yul\":20879:20899   */\n      sub\n        /* \"#utility.yul\":20875:20876   */\n      0x00\n        /* \"#utility.yul\":20864:20873   */\n      dup4\n        /* \"#utility.yul\":20860:20877   */\n      add\n        /* \"#utility.yul\":20853:20900   */\n      mstore\n        /* \"#utility.yul\":20917:21048   */\n      tag_485\n        /* \"#utility.yul\":21043:21047   */\n      dup2\n        /* \"#utility.yul\":20917:21048   */\n      tag_262\n      jump\t// in\n    tag_485:\n        /* \"#utility.yul\":20909:21048   */\n      swap1\n      pop\n        /* \"#utility.yul\":20636:21055   */\n      swap2\n      swap1\n      pop\n      jump\t// out\n        /* \"#utility.yul\":21061:21229   */\n    tag_263:\n        /* \"#utility.yul\":21201:21221   */\n      0x43616e6e6f742072656d6f7665206c696b650000000000000000000000000000\n        /* \"#utility.yul\":21197:21198   */\n      0x00\n        /* \"#utility.yul\":21189:21195   */\n      dup3\n        /* \"#utility.yul\":21185:21199   */\n      add\n        /* \"#utility.yul\":21178:21222   */\n      mstore\n        /* \"#utility.yul\":21061:21229   */\n      pop\n      jump\t// out\n        /* \"#utility.yul\":21235:21601   */\n    tag_264:\n        /* \"#utility.yul\":21377:21380   */\n      0x00\n        /* \"#utility.yul\":21398:21465   */\n      tag_488\n        /* \"#utility.yul\":21462:21464   */\n      0x12\n        /* \"#utility.yul\":21457:21460   */\n      dup4\n        /* \"#utility.yul\":21398:21465   */\n      tag_218\n      jump\t// in\n    tag_488:\n        /* \"#utility.yul\":21391:21465   */\n      swap2\n      pop\n        /* \"#utility.yul\":21474:21567   */\n      tag_489\n        /* \"#utility.yul\":21563:21566   */\n      dup3\n        /* \"#utility.yul\":21474:21567   */\n      tag_263\n      jump\t// in\n    tag_489:\n        /* \"#utility.yul\":21592:21594   */\n      0x20\n        /* \"#utility.yul\":21587:21590   */\n      dup3\n        /* \"#utility.yul\":21583:21595   */\n      add\n        /* \"#utility.yul\":21576:21595   */\n      swap1\n      pop\n        /* \"#utility.yul\":21235:21601   */\n      swap2\n      swap1\n      pop\n      jump\t// out\n        /* \"#utility.yul\":21607:22026   */\n    tag_121:\n        /* \"#utility.yul\":21773:21777   */\n      0x00\n        /* \"#utility.yul\":21811:21813   */\n      0x20\n        /* \"#utility.yul\":21800:21809   */\n      dup3\n        /* \"#utility.yul\":21796:21814   */\n      add\n        /* \"#utility.yul\":21788:21814   */\n      swap1\n      pop\n        /* \"#utility.yul\":21860:21869   */\n      dup2\n        /* \"#utility.yul\":21854:21858   */\n      dup2\n        /* \"#utility.yul\":21850:21870   */\n      sub\n        /* \"#utility.yul\":21846:21847   */\n      0x00\n        /* \"#utility.yul\":21835:21844   */\n      dup4\n        /* \"#utility.yul\":21831:21848   */\n      add\n        /* \"#utility.yul\":21824:21871   */\n      mstore\n        /* \"#utility.yul\":21888:22019   */\n      tag_491\n        /* \"#utility.yul\":22014:22018   */\n      dup2\n        /* \"#utility.yul\":21888:22019   */\n      tag_264\n      jump\t// in\n    tag_491:\n        /* \"#utility.yul\":21880:22019   */\n      swap1\n      pop\n        /* \"#utility.yul\":21607:22026   */\n      swap2\n      swap1\n      pop\n      jump\t// out\n        /* \"#utility.yul\":22032:22212   */\n    tag_265:\n        /* \"#utility.yul\":22080:22157   */\n      0x4e487b7100000000000000000000000000000000000000000000000000000000\n        /* \"#utility.yul\":22077:22078   */\n      0x00\n        /* \"#utility.yul\":22070:22158   */\n      mstore\n        /* \"#utility.yul\":22177:22181   */\n      0x11\n        /* \"#utility.yul\":22174:22175   */\n      0x04\n        /* \"#utility.yul\":22167:22182   */\n      mstore\n        /* \"#utility.yul\":22201:22205   */\n      0x24\n        /* \"#utility.yul\":22198:22199   */\n      0x00\n        /* \"#utility.yul\":22191:22206   */\n      revert\n        /* \"#utility.yul\":22218:22389   */\n    tag_126:\n        /* \"#utility.yul\":22257:22260   */\n      0x00\n        /* \"#utility.yul\":22280:22304   */\n      tag_494\n        /* \"#utility.yul\":22298:22303   */\n      dup3\n        /* \"#utility.yul\":22280:22304   */\n      tag_213\n      jump\t// in\n    tag_494:\n        /* \"#utility.yul\":22271:22304   */\n      swap2\n      pop\n        /* \"#utility.yul\":22326:22330   */\n      0x00\n        /* \"#utility.yul\":22319:22324   */\n      dup3\n        /* \"#utility.yul\":22316:22331   */\n      sub\n        /* \"#utility.yul\":22313:22354   */\n      tag_495\n      jumpi\n        /* \"#utility.yul\":22334:22352   */\n      tag_496\n      tag_265\n      jump\t// in\n    tag_496:\n        /* \"#utility.yul\":22313:22354   */\n    tag_495:\n        /* \"#utility.yul\":22381:22382   */\n      0x01\n        /* \"#utility.yul\":22374:22379   */\n      dup3\n        /* \"#utility.yul\":22370:22383   */\n      sub\n        /* \"#utility.yul\":22363:22383   */\n      swap1\n      pop\n        /* \"#utility.yul\":22218:22389   */\n      swap2\n      swap1\n      pop\n      jump\t// out\n        /* \"#utility.yul\":22395:22948   */\n    tag_131:\n        /* \"#utility.yul\":22572:22576   */\n      0x00\n        /* \"#utility.yul\":22610:22613   */\n      0x80\n        /* \"#utility.yul\":22599:22608   */\n      dup3\n        /* \"#utility.yul\":22595:22614   */\n      add\n        /* \"#utility.yul\":22587:22614   */\n      swap1\n      pop\n        /* \"#utility.yul\":22624:22695   */\n      tag_498\n        /* \"#utility.yul\":22692:22693   */\n      0x00\n        /* \"#utility.yul\":22681:22690   */\n      dup4\n        /* \"#utility.yul\":22677:22694   */\n      add\n        /* \"#utility.yul\":22668:22674   */\n      dup8\n        /* \"#utility.yul\":22624:22695   */\n      tag_216\n      jump\t// in\n    tag_498:\n        /* \"#utility.yul\":22705:22777   */\n      tag_499\n        /* \"#utility.yul\":22773:22775   */\n      0x20\n        /* \"#utility.yul\":22762:22771   */\n      dup4\n        /* \"#utility.yul\":22758:22776   */\n      add\n        /* \"#utility.yul\":22749:22755   */\n      dup7\n        /* \"#utility.yul\":22705:22777   */\n      tag_216\n      jump\t// in\n    tag_499:\n        /* \"#utility.yul\":22787:22859   */\n      tag_500\n        /* \"#utility.yul\":22855:22857   */\n      0x40\n        /* \"#utility.yul\":22844:22853   */\n      dup4\n        /* \"#utility.yul\":22840:22858   */\n      add\n        /* \"#utility.yul\":22831:22837   */\n      dup6\n        /* \"#utility.yul\":22787:22859   */\n      tag_222\n      jump\t// in\n    tag_500:\n        /* \"#utility.yul\":22869:22941   */\n      tag_501\n        /* \"#utility.yul\":22937:22939   */\n      0x60\n        /* \"#utility.yul\":22926:22935   */\n      dup4\n        /* \"#utility.yul\":22922:22940   */\n      add\n        /* \"#utility.yul\":22913:22919   */\n      dup5\n        /* \"#utility.yul\":22869:22941   */\n      tag_222\n      jump\t// in\n    tag_501:\n        /* \"#utility.yul\":22395:22948   */\n      swap6\n      swap5\n      pop\n      pop\n      pop\n      pop\n      pop\n      jump\t// out\n        /* \"#utility.yul\":22954:23120   */\n    tag_266:\n        /* \"#utility.yul\":23094:23112   */\n      0x4d65737361676520746f6f206c6f6e6700000000000000000000000000000000\n        /* \"#utility.yul\":23090:23091   */\n      0x00\n        /* \"#utility.yul\":23082:23088   */\n      dup3\n        /* \"#utility.yul\":23078:23092   */\n      add\n        /* \"#utility.yul\":23071:23113   */\n      mstore\n        /* \"#utility.yul\":22954:23120   */\n      pop\n      jump\t// out\n        /* \"#utility.yul\":23126:23492   */\n    tag_267:\n        /* \"#utility.yul\":23268:23271   */\n      0x00\n        /* \"#utility.yul\":23289:23356   */\n      tag_504\n        /* \"#utility.yul\":23353:23355   */\n      0x10\n        /* \"#utility.yul\":23348:23351   */\n      dup4\n        /* \"#utility.yul\":23289:23356   */\n      tag_218\n      jump\t// in\n    tag_504:\n        /* \"#utility.yul\":23282:23356   */\n      swap2\n      pop\n        /* \"#utility.yul\":23365:23458   */\n      tag_505\n        /* \"#utility.yul\":23454:23457   */\n      dup3\n        /* \"#utility.yul\":23365:23458   */\n      tag_266\n      jump\t// in\n    tag_505:\n        /* \"#utility.yul\":23483:23485   */\n      0x20\n        /* \"#utility.yul\":23478:23481   */\n      dup3\n        /* \"#utility.yul\":23474:23486   */\n      add\n        /* \"#utility.yul\":23467:23486   */\n      swap1\n      pop\n        /* \"#utility.yul\":23126:23492   */\n      swap2\n      swap1\n      pop\n      jump\t// out\n        /* \"#utility.yul\":23498:23917   */\n    tag_142:\n        /* \"#utility.yul\":23664:23668   */\n      0x00\n        /* \"#utility.yul\":23702:23704   */\n      0x20\n        /* \"#utility.yul\":23691:23700   */\n      dup3\n        /* \"#utility.yul\":23687:23705   */\n      add\n        /* \"#utility.yul\":23679:23705   */\n      swap1\n      pop\n        /* \"#utility.yul\":23751:23760   */\n      dup2\n        /* \"#utility.yul\":23745:23749   */\n      dup2\n        /* \"#utility.yul\":23741:23761   */\n      sub\n        /* \"#utility.yul\":23737:23738   */\n      0x00\n        /* \"#utility.yul\":23726:23735   */\n      dup4\n        /* \"#utility.yul\":23722:23739   */\n      add\n        /* \"#utility.yul\":23715:23762   */\n      mstore\n        /* \"#utility.yul\":23779:23910   */\n      tag_507\n        /* \"#utility.yul\":23905:23909   */\n      dup2\n        /* \"#utility.yul\":23779:23910   */\n      tag_267\n      jump\t// in\n    tag_507:\n        /* \"#utility.yul\":23771:23910   */\n      swap1\n      pop\n        /* \"#utility.yul\":23498:23917   */\n      swap2\n      swap1\n      pop\n      jump\t// out\n        /* \"#utility.yul\":23923:24064   */\n    tag_268:\n        /* \"#utility.yul\":23972:23976   */\n      0x00\n        /* \"#utility.yul\":23995:23998   */\n      dup2\n        /* \"#utility.yul\":23987:23998   */\n      swap1\n      pop\n        /* \"#utility.yul\":24018:24021   */\n      dup2\n        /* \"#utility.yul\":24015:24016   */\n      0x00\n        /* \"#utility.yul\":24008:24022   */\n      mstore\n        /* \"#utility.yul\":24052:24056   */\n      0x20\n        /* \"#utility.yul\":24049:24050   */\n      0x00\n        /* \"#utility.yul\":24039:24057   */\n      keccak256\n        /* \"#utility.yul\":24031:24057   */\n      swap1\n      pop\n        /* \"#utility.yul\":23923:24064   */\n      swap2\n      swap1\n      pop\n      jump\t// out\n        /* \"#utility.yul\":24070:24163   */\n    tag_269:\n        /* \"#utility.yul\":24107:24113   */\n      0x00\n        /* \"#utility.yul\":24154:24156   */\n      0x20\n        /* \"#utility.yul\":24149:24151   */\n      0x1f\n        /* \"#utility.yul\":24142:24147   */\n      dup4\n        /* \"#utility.yul\":24138:24152   */\n      add\n        /* \"#utility.yul\":24134:24157   */\n      div\n        /* \"#utility.yul\":24124:24157   */\n      swap1\n      pop\n        /* \"#utility.yul\":24070:24163   */\n      swap2\n      swap1\n      pop\n      jump\t// out\n        /* \"#utility.yul\":24169:24276   */\n    tag_270:\n        /* \"#utility.yul\":24213:24221   */\n      0x00\n        /* \"#utility.yul\":24263:24268   */\n      dup3\n        /* \"#utility.yul\":24257:24261   */\n      dup3\n        /* \"#utility.yul\":24253:24269   */\n      shl\n        /* \"#utility.yul\":24232:24269   */\n      swap1\n      pop\n        /* \"#utility.yul\":24169:24276   */\n      swap3\n      swap2\n      pop\n      pop\n      jump\t// out\n        /* \"#utility.yul\":24282:24675   */\n    tag_271:\n        /* \"#utility.yul\":24351:24357   */\n      0x00\n        /* \"#utility.yul\":24401:24402   */\n      0x08\n        /* \"#utility.yul\":24389:24399   */\n      dup4\n        /* \"#utility.yul\":24385:24403   */\n      mul\n        /* \"#utility.yul\":24424:24521   */\n      tag_512\n        /* \"#utility.yul\":24454:24520   */\n      0xffffffffffffffffffffffffffffffffffffffffffffffffffffffffffffffff\n        /* \"#utility.yul\":24443:24452   */\n      dup3\n        /* \"#utility.yul\":24424:24521   */\n      tag_270\n      jump\t// in\n    tag_512:\n        /* \"#utility.yul\":24542:24581   */\n      tag_513\n        /* \"#utility.yul\":24572:24580   */\n      dup7\n        /* \"#utility.yul\":24561:24570   */\n      dup4\n        /* \"#utility.yul\":24542:24581   */\n      tag_270\n      jump\t// in\n    tag_513:\n        /* \"#utility.yul\":24530:24581   */\n      swap6\n      pop\n        /* \"#utility.yul\":24614:24618   */\n      dup1\n        /* \"#utility.yul\":24610:24619   */\n      not\n        /* \"#utility.yul\":24603:24608   */\n      dup5\n        /* \"#utility.yul\":24599:24620   */\n      and\n        /* \"#utility.yul\":24590:24620   */\n      swap4\n      pop\n        /* \"#utility.yul\":24663:24667   */\n      dup1\n        /* \"#utility.yul\":24653:24661   */\n      dup7\n        /* \"#utility.yul\":24649:24668   */\n      and\n        /* \"#utility.yul\":24642:24647   */\n      dup5\n        /* \"#utility.yul\":24639:24669   */\n      or\n        /* \"#utility.yul\":24629:24669   */\n      swap3\n      pop\n        /* \"#utility.yul\":24358:24675   */\n      pop\n      pop\n        /* \"#utility.yul\":24282:24675   */\n      swap4\n      swap3\n      pop\n      pop\n      pop\n      jump\t// out\n        /* \"#utility.yul\":24681:24823   */\n    tag_272:\n        /* \"#utility.yul\":24731:24740   */\n      0x00\n        /* \"#utility.yul\":24764:24817   */\n      tag_515\n        /* \"#utility.yul\":24782:24816   */\n      tag_516\n        /* \"#utility.yul\":24791:24815   */\n      tag_517\n        /* \"#utility.yul\":24809:24814   */\n      dup5\n        /* \"#utility.yul\":24791:24815   */\n      tag_213\n      jump\t// in\n    tag_517:\n        /* \"#utility.yul\":24782:24816   */\n      tag_247\n      jump\t// in\n    tag_516:\n        /* \"#utility.yul\":24764:24817   */\n      tag_213\n      jump\t// in\n    tag_515:\n        /* \"#utility.yul\":24751:24817   */\n      swap1\n      pop\n        /* \"#utility.yul\":24681:24823   */\n      swap2\n      swap1\n      pop\n      jump\t// out\n        /* \"#utility.yul\":24829:24904   */\n    tag_273:\n        /* \"#utility.yul\":24872:24875   */\n      0x00\n        /* \"#utility.yul\":24893:24898   */\n      dup2\n        /* \"#utility.yul\":24886:24898   */\n      swap1\n      pop\n        /* \"#utility.yul\":24829:24904   */\n      swap2\n      swap1\n      pop\n      jump\t// out\n        /* \"#utility.yul\":24910:25179   */\n    tag_274:\n        /* \"#utility.yul\":25020:25059   */\n      tag_520\n        /* \"#utility.yul\":25051:25058   */\n      dup4\n        /* \"#utility.yul\":25020:25059   */\n      tag_272\n      jump\t// in\n    tag_520:\n        /* \"#utility.yul\":25081:25172   */\n      tag_521\n        /* \"#utility.yul\":25130:25171   */\n      tag_522\n        /* \"#utility.yul\":25154:25170   */\n      dup3\n        /* \"#utility.yul\":25130:25171   */\n      tag_273\n      jump\t// in\n    tag_522:\n        /* \"#utility.yul\":25122:25128   */\n      dup5\n        /* \"#utility.yul\":25115:25119   */\n      dup5\n        /* \"#utility.yul\":25109:25120   */\n      sload\n        /* \"#utility.yul\":25081:25172   */\n      tag_271\n      jump\t// in\n    tag_521:\n        /* \"#utility.yul\":25075:25079   */\n      dup3\n        /* \"#utility.yul\":25068:25173   */\n      sstore\n        /* \"#utility.yul\":24986:25179   */\n      pop\n        /* \"#utility.yul\":24910:25179   */\n      pop\n      pop\n      pop\n      jump\t// out\n        /* \"#utility.yul\":25185:25258   */\n    tag_275:\n        /* \"#utility.yul\":25230:25233   */\n      0x00\n        /* \"#utility.yul\":25185:25258   */\n      swap1\n      jump\t// out\n        /* \"#utility.yul\":25264:25453   */\n    tag_276:\n        /* \"#utility.yul\":25341:25373   */\n      tag_525\n      tag_275\n      jump\t// in\n    tag_525:\n        /* \"#utility.yul\":25382:25447   */\n      tag_526\n        /* \"#utility.yul\":25440:25446   */\n      dup2\n        /* \"#utility.yul\":25432:25438   */\n      dup5\n        /* \"#utility.yul\":25426:25430   */\n      dup5\n        /* \"#utility.yul\":25382:25447   */\n      tag_274\n      jump\t// in\n    tag_526:\n        /* \"#utility.yul\":25317:25453   */\n      pop\n        /* \"#utility.yul\":25264:25453   */\n      pop\n      pop\n      jump\t// out\n        /* \"#utility.yul\":25459:25645   */\n    tag_277:\n        /* \"#utility.yul\":25519:25639   */\n    tag_528:\n        /* \"#utility.yul\":25536:25539   */\n      dup2\n        /* \"#utility.yul\":25529:25534   */\n      dup2\n        /* \"#utility.yul\":25526:25540   */\n      lt\n        /* \"#utility.yul\":25519:25639   */\n      iszero\n      tag_530\n      jumpi\n        /* \"#utility.yul\":25590:25629   */\n      tag_531\n        /* \"#utility.yul\":25627:25628   */\n      0x00\n        /* \"#utility.yul\":25620:25625   */\n      dup3\n        /* \"#utility.yul\":25590:25629   */\n      tag_276\n      jump\t// in\n    tag_531:\n        /* \"#utility.yul\":25563:25564   */\n      0x01\n        /* \"#utility.yul\":25556:25561   */\n      dup2\n        /* \"#utility.yul\":25552:25565   */\n      add\n        /* \"#utility.yul\":25543:25565   */\n      swap1\n      pop\n        /* \"#utility.yul\":25519:25639   */\n      jump(tag_528)\n    tag_530:\n        /* \"#utility.yul\":25459:25645   */\n      pop\n      pop\n      jump\t// out\n        /* \"#utility.yul\":25651:26194   */\n    tag_278:\n        /* \"#utility.yul\":25752:25754   */\n      0x1f\n        /* \"#utility.yul\":25747:25750   */\n      dup3\n        /* \"#utility.yul\":25744:25755   */\n      gt\n        /* \"#utility.yul\":25741:26187   */\n      iszero\n      tag_533\n      jumpi\n        /* \"#utility.yul\":25786:25824   */\n      tag_534\n        /* \"#utility.yul\":25818:25823   */\n      dup2\n        /* \"#utility.yul\":25786:25824   */\n      tag_268\n      jump\t// in\n    tag_534:\n        /* \"#utility.yul\":25870:25899   */\n      tag_535\n        /* \"#utility.yul\":25888:25898   */\n      dup5\n        /* \"#utility.yul\":25870:25899   */\n      tag_269\n      jump\t// in\n    tag_535:\n        /* \"#utility.yul\":25860:25868   */\n      dup2\n        /* \"#utility.yul\":25856:25900   */\n      add\n        /* \"#utility.yul\":26053:26055   */\n      0x20\n        /* \"#utility.yul\":26041:26051   */\n      dup6\n        /* \"#utility.yul\":26038:26056   */\n      lt\n        /* \"#utility.yul\":26035:26084   */\n      iszero\n      tag_536\n      jumpi\n        /* \"#utility.yul\":26074:26082   */\n      dup2\n        /* \"#utility.yul\":26059:26082   */\n      swap1\n      pop\n        /* \"#utility.yul\":26035:26084   */\n    tag_536:\n        /* \"#utility.yul\":26097:26177   */\n      tag_537\n        /* \"#utility.yul\":26153:26175   */\n      tag_538\n        /* \"#utility.yul\":26171:26174   */\n      dup6\n        /* \"#utility.yul\":26153:26175   */\n      tag_269\n      jump\t// in\n    tag_538:\n        /* \"#utility.yul\":26143:26151   */\n      dup4\n        /* \"#utility.yul\":26139:26176   */\n      add\n        /* \"#utility.yul\":26126:26137   */\n      dup3\n        /* \"#utility.yul\":26097:26177   */\n      tag_277\n      jump\t// in\n    tag_537:\n        /* \"#utility.yul\":25756:26187   */\n      pop\n      pop\n        /* \"#utility.yul\":25741:26187   */\n    tag_533:\n        /* \"#utility.yul\":25651:26194   */\n      pop\n      pop\n      pop\n      jump\t// out\n        /* \"#utility.yul\":26200:26317   */\n    tag_279:\n        /* \"#utility.yul\":26254:26262   */\n      0x00\n        /* \"#utility.yul\":26304:26309   */\n      dup3\n        /* \"#utility.yul\":26298:26302   */\n      dup3\n        /* \"#utility.yul\":26294:26310   */\n      shr\n        /* \"#utility.yul\":26273:26310   */\n      swap1\n      pop\n        /* \"#utility.yul\":26200:26317   */\n      swap3\n      swap2\n      pop\n      pop\n      jump\t// out\n        /* \"#utility.yul\":26323:26492   */\n    tag_280:\n        /* \"#utility.yul\":26367:26373   */\n      0x00\n        /* \"#utility.yul\":26400:26451   */\n      tag_541\n        /* \"#utility.yul\":26448:26449   */\n      0x00\n        /* \"#utility.yul\":26444:26450   */\n      not\n        /* \"#utility.yul\":26436:26441   */\n      dup5\n        /* \"#utility.yul\":26433:26434   */\n      0x08\n        /* \"#utility.yul\":26429:26442   */\n      mul\n        /* \"#utility.yul\":26400:26451   */\n      tag_279\n      jump\t// in\n    tag_541:\n        /* \"#utility.yul\":26396:26452   */\n      not\n        /* \"#utility.yul\":26481:26485   */\n      dup1\n        /* \"#utility.yul\":26475:26479   */\n      dup4\n        /* \"#utility.yul\":26471:26486   */\n      and\n        /* \"#utility.yul\":26461:26486   */\n      swap2\n      pop\n        /* \"#utility.yul\":26374:26492   */\n      pop\n        /* \"#utility.yul\":26323:26492   */\n      swap3\n      swap2\n      pop\n      pop\n      jump\t// out\n        /* \"#utility.yul\":26497:26792   */\n    tag_281:\n        /* \"#utility.yul\":26573:26577   */\n      0x00\n        /* \"#utility.yul\":26719:26748   */\n      tag_543\n        /* \"#utility.yul\":26744:26747   */\n      dup4\n        /* \"#utility.yul\":26738:26742   */\n      dup4\n        /* \"#utility.yul\":26719:26748   */\n      tag_280\n      jump\t// in\n    tag_543:\n        /* \"#utility.yul\":26711:26748   */\n      swap2\n      pop\n        /* \"#utility.yul\":26781:26784   */\n      dup3\n        /* \"#utility.yul\":26778:26779   */\n      0x02\n        /* \"#utility.yul\":26774:26785   */\n      mul\n        /* \"#utility.yul\":26768:26772   */\n      dup3\n        /* \"#utility.yul\":26765:26786   */\n      or\n        /* \"#utility.yul\":26757:26786   */\n      swap1\n      pop\n        /* \"#utility.yul\":26497:26792   */\n      swap3\n      swap2\n      pop\n      pop\n      jump\t// out\n        /* \"#utility.yul\":26797:28192   */\n    tag_145:\n        /* \"#utility.yul\":26914:26951   */\n      tag_545\n        /* \"#utility.yul\":26947:26950   */\n      dup3\n        /* \"#utility.yul\":26914:26951   */\n      tag_217\n      jump\t// in\n    tag_545:\n        /* \"#utility.yul\":27016:27034   */\n      0xffffffffffffffff\n        /* \"#utility.yul\":27008:27014   */\n      dup2\n        /* \"#utility.yul\":27005:27035   */\n      gt\n        /* \"#utility.yul\":27002:27058   */\n      iszero\n      tag_546\n      jumpi\n        /* \"#utility.yul\":27038:27056   */\n      tag_547\n      tag_240\n      jump\t// in\n    tag_547:\n        /* \"#utility.yul\":27002:27058   */\n    tag_546:\n        /* \"#utility.yul\":27082:27120   */\n      tag_548\n        /* \"#utility.yul\":27114:27118   */\n      dup3\n        /* \"#utility.yul\":27108:27119   */\n      sload\n        /* \"#utility.yul\":27082:27120   */\n      tag_76\n      jump\t// in\n    tag_548:\n        /* \"#utility.yul\":27167:27234   */\n      tag_549\n        /* \"#utility.yul\":27227:27233   */\n      dup3\n        /* \"#utility.yul\":27219:27225   */\n      dup3\n        /* \"#utility.yul\":27213:27217   */\n      dup6\n        /* \"#utility.yul\":27167:27234   */\n      tag_278\n      jump\t// in\n    tag_549:\n        /* \"#utility.yul\":27261:27262   */\n      0x00\n        /* \"#utility.yul\":27285:27289   */\n      0x20\n        /* \"#utility.yul\":27272:27289   */\n      swap1\n      pop\n        /* \"#utility.yul\":27317:27319   */\n      0x1f\n        /* \"#utility.yul\":27309:27315   */\n      dup4\n        /* \"#utility.yul\":27306:27320   */\n      gt\n        /* \"#utility.yul\":27334:27335   */\n      0x01\n        /* \"#utility.yul\":27329:27947   */\n      dup2\n      eq\n      tag_551\n      jumpi\n        /* \"#utility.yul\":27991:27992   */\n      0x00\n        /* \"#utility.yul\":28008:28014   */\n      dup5\n        /* \"#utility.yul\":28005:28082   */\n      iszero\n      tag_552\n      jumpi\n        /* \"#utility.yul\":28057:28066   */\n      dup3\n        /* \"#utility.yul\":28052:28055   */\n      dup8\n        /* \"#utility.yul\":28048:28067   */\n      add\n        /* \"#utility.yul\":28042:28068   */\n      mload\n        /* \"#utility.yul\":28033:28068   */\n      swap1\n      pop\n        /* \"#utility.yul\":28005:28082   */\n    tag_552:\n        /* \"#utility.yul\":28108:28175   */\n      tag_553\n        /* \"#utility.yul\":28168:28174   */\n      dup6\n        /* \"#utility.yul\":28161:28166   */\n      dup3\n        /* \"#utility.yul\":28108:28175   */\n      tag_281\n      jump\t// in\n    tag_553:\n        /* \"#utility.yul\":28102:28106   */\n      dup7\n        /* \"#utility.yul\":28095:28176   */\n      sstore\n        /* \"#utility.yul\":27964:28186   */\n      pop\n        /* \"#utility.yul\":27299:28186   */\n      jump(tag_550)\n        /* \"#utility.yul\":27329:27947   */\n    tag_551:\n        /* \"#utility.yul\":27381:27385   */\n      0x1f\n        /* \"#utility.yul\":27377:27386   */\n      not\n        /* \"#utility.yul\":27369:27375   */\n      dup5\n        /* \"#utility.yul\":27365:27387   */\n      and\n        /* \"#utility.yul\":27415:27452   */\n      tag_554\n        /* \"#utility.yul\":27447:27451   */\n      dup7\n        /* \"#utility.yul\":27415:27452   */\n      tag_268\n      jump\t// in\n    tag_554:\n        /* \"#utility.yul\":27474:27475   */\n      0x00\n        /* \"#utility.yul\":27488:27696   */\n    tag_555:\n        /* \"#utility.yul\":27502:27509   */\n      dup3\n        /* \"#utility.yul\":27499:27500   */\n      dup2\n        /* \"#utility.yul\":27496:27510   */\n      lt\n        /* \"#utility.yul\":27488:27696   */\n      iszero\n      tag_557\n      jumpi\n        /* \"#utility.yul\":27581:27590   */\n      dup5\n        /* \"#utility.yul\":27576:27579   */\n      dup10\n        /* \"#utility.yul\":27572:27591   */\n      add\n        /* \"#utility.yul\":27566:27592   */\n      mload\n        /* \"#utility.yul\":27558:27564   */\n      dup3\n        /* \"#utility.yul\":27551:27593   */\n      sstore\n        /* \"#utility.yul\":27632:27633   */\n      0x01\n        /* \"#utility.yul\":27624:27630   */\n      dup3\n        /* \"#utility.yul\":27620:27634   */\n      add\n        /* \"#utility.yul\":27610:27634   */\n      swap2\n      pop\n        /* \"#utility.yul\":27679:27681   */\n      0x20\n        /* \"#utility.yul\":27668:27677   */\n      dup6\n        /* \"#utility.yul\":27664:27682   */\n      add\n        /* \"#utility.yul\":27651:27682   */\n      swap5\n      pop\n        /* \"#utility.yul\":27525:27529   */\n      0x20\n        /* \"#utility.yul\":27522:27523   */\n      dup2\n        /* \"#utility.yul\":27518:27530   */\n      add\n        /* \"#utility.yul\":27513:27530   */\n      swap1\n      pop\n        /* \"#utility.yul\":27488:27696   */\n      jump(tag_555)\n    tag_557:\n        /* \"#utility.yul\":27724:27730   */\n      dup7\n        /* \"#utility.yul\":27715:27722   */\n      dup4\n        /* \"#utility.yul\":27712:27731   */\n      lt\n        /* \"#utility.yul\":27709:27888   */\n      iszero\n      tag_558\n      jumpi\n        /* \"#utility.yul\":27782:27791   */\n      dup5\n        /* \"#utility.yul\":27777:27780   */\n      dup10\n        /* \"#utility.yul\":27773:27792   */\n      add\n        /* \"#utility.yul\":27767:27793   */\n      mload\n        /* \"#utility.yul\":27825:27873   */\n      tag_559\n        /* \"#utility.yul\":27867:27871   */\n      0x1f\n        /* \"#utility.yul\":27859:27865   */\n      dup10\n        /* \"#utility.yul\":27855:27872   */\n      and\n        /* \"#utility.yul\":27844:27853   */\n      dup3\n        /* \"#utility.yul\":27825:27873   */\n      tag_280\n      jump\t// in\n    tag_559:\n        /* \"#utility.yul\":27817:27823   */\n      dup4\n        /* \"#utility.yul\":27810:27874   */\n      sstore\n        /* \"#utility.yul\":27732:27888   */\n      pop\n        /* \"#utility.yul\":27709:27888   */\n    tag_558:\n        /* \"#utility.yul\":27934:27935   */\n      0x01\n        /* \"#utility.yul\":27930:27931   */\n      0x02\n        /* \"#utility.yul\":27922:27928   */\n      dup9\n        /* \"#utility.yul\":27918:27932   */\n      mul\n        /* \"#utility.yul\":27914:27936   */\n      add\n        /* \"#utility.yul\":27908:27912   */\n      dup9\n        /* \"#utility.yul\":27901:27937   */\n      sstore\n        /* \"#utility.yul\":27336:27947   */\n      pop\n      pop\n      pop\n        /* \"#utility.yul\":27299:28186   */\n    tag_550:\n      pop\n        /* \"#utility.yul\":26889:28192   */\n      pop\n      pop\n      pop\n        /* \"#utility.yul\":26797:28192   */\n      pop\n      pop\n      jump\t// out\n        /* \"#utility.yul\":28198:28842   */\n    tag_147:\n        /* \"#utility.yul\":28395:28399   */\n      0x00\n        /* \"#utility.yul\":28433:28436   */\n      0x80\n        /* \"#utility.yul\":28422:28431   */\n      dup3\n        /* \"#utility.yul\":28418:28437   */\n      add\n        /* \"#utility.yul\":28410:28437   */\n      swap1\n      pop\n        /* \"#utility.yul\":28447:28518   */\n      tag_561\n        /* \"#utility.yul\":28515:28516   */\n      0x00\n        /* \"#utility.yul\":28504:28513   */\n      dup4\n        /* \"#utility.yul\":28500:28517   */\n      add\n        /* \"#utility.yul\":28491:28497   */\n      dup8\n        /* \"#utility.yul\":28447:28518   */\n      tag_222\n      jump\t// in\n    tag_561:\n        /* \"#utility.yul\":28528:28600   */\n      tag_562\n        /* \"#utility.yul\":28596:28598   */\n      0x20\n        /* \"#utility.yul\":28585:28594   */\n      dup4\n        /* \"#utility.yul\":28581:28599   */\n      add\n        /* \"#utility.yul\":28572:28578   */\n      dup7\n        /* \"#utility.yul\":28528:28600   */\n      tag_216\n      jump\t// in\n    tag_562:\n        /* \"#utility.yul\":28647:28656   */\n      dup2\n        /* \"#utility.yul\":28641:28645   */\n      dup2\n        /* \"#utility.yul\":28637:28657   */\n      sub\n        /* \"#utility.yul\":28632:28634   */\n      0x40\n        /* \"#utility.yul\":28621:28630   */\n      dup4\n        /* \"#utility.yul\":28617:28635   */\n      add\n        /* \"#utility.yul\":28610:28658   */\n      mstore\n        /* \"#utility.yul\":28675:28753   */\n      tag_563\n        /* \"#utility.yul\":28748:28752   */\n      dup2\n        /* \"#utility.yul\":28739:28745   */\n      dup6\n        /* \"#utility.yul\":28675:28753   */\n      tag_221\n      jump\t// in\n    tag_563:\n        /* \"#utility.yul\":28667:28753   */\n      swap1\n      pop\n        /* \"#utility.yul\":28763:28835   */\n      tag_564\n        /* \"#utility.yul\":28831:28833   */\n      0x60\n        /* \"#utility.yul\":28820:28829   */\n      dup4\n        /* \"#utility.yul\":28816:28834   */\n      add\n        /* \"#utility.yul\":28807:28813   */\n      dup5\n        /* \"#utility.yul\":28763:28835   */\n      tag_222\n      jump\t// in\n    tag_564:\n        /* \"#utility.yul\":28198:28842   */\n      swap6\n      swap5\n      pop\n      pop\n      pop\n      pop\n      pop\n      jump\t// out\n        /* \"#utility.yul\":28848:29039   */\n    tag_156:\n        /* \"#utility.yul\":28888:28891   */\n      0x00\n        /* \"#utility.yul\":28907:28927   */\n      tag_566\n        /* \"#utility.yul\":28925:28926   */\n      dup3\n        /* \"#utility.yul\":28907:28927   */\n      tag_213\n      jump\t// in\n    tag_566:\n        /* \"#utility.yul\":28902:28927   */\n      swap2\n      pop\n        /* \"#utility.yul\":28941:28961   */\n      tag_567\n        /* \"#utility.yul\":28959:28960   */\n      dup4\n        /* \"#utility.yul\":28941:28961   */\n      tag_213\n      jump\t// in\n    tag_567:\n        /* \"#utility.yul\":28936:28961   */\n      swap3\n      pop\n        /* \"#utility.yul\":28984:28985   */\n      dup3\n        /* \"#utility.yul\":28981:28982   */\n      dup3\n        /* \"#utility.yul\":28977:28986   */\n      add\n        /* \"#utility.yul\":28970:28986   */\n      swap1\n      pop\n        /* \"#utility.yul\":29005:29008   */\n      dup1\n        /* \"#utility.yul\":29002:29003   */\n      dup3\n        /* \"#utility.yul\":28999:29009   */\n      gt\n        /* \"#utility.yul\":28996:29032   */\n      iszero\n      tag_568\n      jumpi\n        /* \"#utility.yul\":29012:29030   */\n      tag_569\n      tag_265\n      jump\t// in\n    tag_569:\n        /* \"#utility.yul\":28996:29032   */\n    tag_568:\n        /* \"#utility.yul\":28848:29039   */\n      swap3\n      swap2\n      pop\n      pop\n      jump\t// out\n        /* \"#utility.yul\":29045:29278   */\n    tag_192:\n        /* \"#utility.yul\":29084:29087   */\n      0x00\n        /* \"#utility.yul\":29107:29131   */\n      tag_571\n        /* \"#utility.yul\":29125:29130   */\n      dup3\n        /* \"#utility.yul\":29107:29131   */\n      tag_213\n      jump\t// in\n    tag_571:\n        /* \"#utility.yul\":29098:29131   */\n      swap2\n      pop\n        /* \"#utility.yul\":29153:29219   */\n      0xffffffffffffffffffffffffffffffffffffffffffffffffffffffffffffffff\n        /* \"#utility.yul\":29146:29151   */\n      dup3\n        /* \"#utility.yul\":29143:29220   */\n      sub\n        /* \"#utility.yul\":29140:29243   */\n      tag_572\n      jumpi\n        /* \"#utility.yul\":29223:29241   */\n      tag_573\n      tag_265\n      jump\t// in\n    tag_573:\n        /* \"#utility.yul\":29140:29243   */\n    tag_572:\n        /* \"#utility.yul\":29270:29271   */\n      0x01\n        /* \"#utility.yul\":29263:29268   */\n      dup3\n        /* \"#utility.yul\":29259:29272   */\n      add\n        /* \"#utility.yul\":29252:29272   */\n      swap1\n      pop\n        /* \"#utility.yul\":29045:29278   */\n      swap2\n      swap1\n      pop\n      jump\t// out\n\n    auxdata: 0xa26469706673582212206c97c400cb2cfb190ad64e411eb7457bba2c490f053e80856e7e0eb2ff18020b64736f6c634300081a0033\n}\n",
				"bytecode": {
					"linkReferences": {},
					"object": "60806040526101185f60146101000a81548161ffff021916908361ffff16021790555034801561002d575f80fd5b50604051612405380380612405833981810160405281019061004f9190610235565b335f73ffffffffffffffffffffffffffffffffffffffff168173ffffffffffffffffffffffffffffffffffffffff16036100c0575f6040517f1e4fbdf70000000000000000000000000000000000000000000000000000000081526004016100b7919061026f565b60405180910390fd5b6100cf8161011660201b60201c565b508060015f6101000a81548173ffffffffffffffffffffffffffffffffffffffff021916908373ffffffffffffffffffffffffffffffffffffffff16021790555050610288565b5f805f9054906101000a900473ffffffffffffffffffffffffffffffffffffffff169050815f806101000a81548173ffffffffffffffffffffffffffffffffffffffff021916908373ffffffffffffffffffffffffffffffffffffffff1602179055508173ffffffffffffffffffffffffffffffffffffffff168173ffffffffffffffffffffffffffffffffffffffff167f8be0079c531659141344cd1fd0a4f28419497f9722a3daafe3b4186f6b6457e060405160405180910390a35050565b5f80fd5b5f73ffffffffffffffffffffffffffffffffffffffff82169050919050565b5f610204826101db565b9050919050565b610214816101fa565b811461021e575f80fd5b50565b5f8151905061022f8161020b565b92915050565b5f6020828403121561024a576102496101d7565b5b5f61025784828501610221565b91505092915050565b610269816101fa565b82525050565b5f6020820190506102825f830184610260565b92915050565b612170806102955f395ff3fe608060405234801561000f575f80fd5b50600436106100cd575f3560e01c80637c9cd2bc1161008a578063a3974b2111610064578063a3974b21146101ff578063c3ad5ecb1461021d578063f2fde38b1461024d578063f65a8f4014610269576100cd565b80637c9cd2bc14610195578063820785cc146101b15780638da5cb5b146101e1576100cd565b806305a1b4a9146100d157806312e7ee1c1461010557806358bfa4ab146101355780636eb1079714610151578063715018a61461016f5780637a639e3914610179575b5f80fd5b6100eb60048036038101906100e6919061136e565b610285565b6040516100fc95949392919061143a565b60405180910390f35b61011f600480360381019061011a9190611492565b610376565b60405161012c9190611651565b60405180910390f35b61014f600480360381019061014a91906116a8565b610511565b005b610159610538565b60405161016691906116e2565b60405180910390f35b61017761054b565b005b610193600480360381019061018e91906116fb565b61055e565b005b6101af60048036038101906101aa9190611865565b610896565b005b6101cb60048036038101906101c69190611492565b610b81565b6040516101d891906118ac565b60405180910390f35b6101e9610c61565b6040516101f691906118c5565b60405180910390f35b610207610c88565b6040516102149190611939565b60405180910390f35b61023760048036038101906102329190611952565b610cad565b60405161024491906119f0565b60405180910390f35b61026760048036038101906102629190611492565b610e24565b005b610283600480360381019061027e919061136e565b610ea8565b005b6002602052815f5260405f20818154811061029e575f80fd5b905f5260205f2090600502015f9150915050805f015f9054906101000a900473ffffffffffffffffffffffffffffffffffffffff16908060010180546102e390611a3d565b80601f016020809104026020016040519081016040528092919081815260200182805461030f90611a3d565b801561035a5780601f106103315761010080835404028352916020019161035a565b820191905f5260205f20905b81548152906001019060200180831161033d57829003601f168201915b5050505050908060020154908060030154908060040154905085565b606060025f8373ffffffffffffffffffffffffffffffffffffffff1673ffffffffffffffffffffffffffffffffffffffff1681526020019081526020015f20805480602002602001604051908101604052809291908181526020015f905b82821015610506578382905f5260205f2090600502016040518060a00160405290815f82015f9054906101000a900473ffffffffffffffffffffffffffffffffffffffff1673ffffffffffffffffffffffffffffffffffffffff1673ffffffffffffffffffffffffffffffffffffffff16815260200160018201805461045990611a3d565b80601f016020809104026020016040519081016040528092919081815260200182805461048590611a3d565b80156104d05780601f106104a7576101008083540402835291602001916104d0565b820191905f5260205f20905b8154815290600101906020018083116104b357829003601f168201915b505050505081526020016002820154815260200160038201548152602001600482015481525050815260200190600101906103d4565b505050509050919050565b610519611140565b805f60146101000a81548161ffff021916908361ffff16021790555050565b5f60149054906101000a900461ffff1681565b610553611140565b61055c5f6111c7565b565b5f60015f9054906101000a900473ffffffffffffffffffffffffffffffffffffffff1673ffffffffffffffffffffffffffffffffffffffff16630f53a470336040518263ffffffff1660e01b81526004016105b991906118c5565b5f60405180830381865afa1580156105d3573d5f803e3d5ffd5b505050506040513d5f823e3d601f19601f820116820180604052508101906105fb9190611b68565b90505f815f01515111610643576040517f08c379a000000000000000000000000000000000000000000000000000000000815260040161063a90611bf9565b60405180910390fd5b8260025f8473ffffffffffffffffffffffffffffffffffffffff1673ffffffffffffffffffffffffffffffffffffffff1681526020019081526020015f20848154811061069357610692611c17565b5b905f5260205f20906005020160040154146106e3576040517f08c379a00000000000000000000000000000000000000000000000000000000081526004016106da90611c8e565b60405180910390fd5b5f60025f8473ffffffffffffffffffffffffffffffffffffffff1673ffffffffffffffffffffffffffffffffffffffff1681526020019081526020015f20848154811061073357610732611c17565b5b905f5260205f2090600502016003015411610783576040517f08c379a000000000000000000000000000000000000000000000000000000000815260040161077a90611cf6565b60405180910390fd5b60025f8373ffffffffffffffffffffffffffffffffffffffff1673ffffffffffffffffffffffffffffffffffffffff1681526020019081526020015f2083815481106107d2576107d1611c17565b5b905f5260205f2090600502016003015f8154809291906107f190611d41565b91905055507f762c2616349603ac16eba0de8e6141b79129a07ab63bd99e0a80b3a47171694333838560025f8773ffffffffffffffffffffffffffffffffffffffff1673ffffffffffffffffffffffffffffffffffffffff1681526020019081526020015f20878154811061086957610868611c17565b5b905f5260205f209060050201600301546040516108899493929190611d68565b60405180910390a1505050565b5f60015f9054906101000a900473ffffffffffffffffffffffffffffffffffffffff1673ffffffffffffffffffffffffffffffffffffffff16630f53a470336040518263ffffffff1660e01b81526004016108f191906118c5565b5f60405180830381865afa15801561090b573d5f803e3d5ffd5b505050506040513d5f823e3d601f19601f820116820180604052508101906109339190611b68565b90505f815f0151511161097b576040517f08c379a000000000000000000000000000000000000000000000000000000000815260040161097290611bf9565b60405180910390fd5b5f60149054906101000a900461ffff1661ffff16825111156109d2576040517f08c379a00000000000000000000000000000000000000000000000000000000081526004016109c990611df5565b60405180910390fd5b5f6040518060a001604052803373ffffffffffffffffffffffffffffffffffffffff1681526020018481526020014281526020015f815260200160025f3373ffffffffffffffffffffffffffffffffffffffff1673ffffffffffffffffffffffffffffffffffffffff1681526020019081526020015f2080549050815250905060025f3373ffffffffffffffffffffffffffffffffffffffff1673ffffffffffffffffffffffffffffffffffffffff1681526020019081526020015f2081908060018154018082558091505060019003905f5260205f2090600502015f909190919091505f820151815f015f6101000a81548173ffffffffffffffffffffffffffffffffffffffff021916908373ffffffffffffffffffffffffffffffffffffffff1602179055506020820151816001019081610b0f9190611fa7565b5060408201518160020155606082015181600301556080820151816004015550507f16fd3c13e9d46923e0a8bce11c7b473ec508a72e6c96cd2404b29ce972afc29e8160800151825f015183602001518460400151604051610b749493929190612076565b60405180910390a1505050565b5f806003819055505f5b60025f8473ffffffffffffffffffffffffffffffffffffffff1673ffffffffffffffffffffffffffffffffffffffff1681526020019081526020015f2080549050811015610c565760025f8473ffffffffffffffffffffffffffffffffffffffff1673ffffffffffffffffffffffffffffffffffffffff1681526020019081526020015f208181548110610c2257610c21611c17565b5b905f5260205f2090600502016003015460035f828254610c4291906120c0565b925050819055508080600101915050610b8b565b506003549050919050565b5f805f9054906101000a900473ffffffffffffffffffffffffffffffffffffffff16905090565b60015f9054906101000a900473ffffffffffffffffffffffffffffffffffffffff1681565b610cb561128f565b60025f3373ffffffffffffffffffffffffffffffffffffffff1673ffffffffffffffffffffffffffffffffffffffff1681526020019081526020015f208281548110610d0457610d03611c17565b5b905f5260205f2090600502016040518060a00160405290815f82015f9054906101000a900473ffffffffffffffffffffffffffffffffffffffff1673ffffffffffffffffffffffffffffffffffffffff1673ffffffffffffffffffffffffffffffffffffffff168152602001600182018054610d7f90611a3d565b80601f0160208091040260200160405190810160405280929190818152602001828054610dab90611a3d565b8015610df65780601f10610dcd57610100808354040283529160200191610df6565b820191905f5260205f20905b815481529060010190602001808311610dd957829003601f168201915b5050505050815260200160028201548152602001600382015481526020016004820154815250509050919050565b610e2c611140565b5f73ffffffffffffffffffffffffffffffffffffffff168173ffffffffffffffffffffffffffffffffffffffff1603610e9c575f6040517f1e4fbdf7000000000000000000000000000000000000000000000000000000008152600401610e9391906118c5565b60405180910390fd5b610ea5816111c7565b50565b5f60015f9054906101000a900473ffffffffffffffffffffffffffffffffffffffff1673ffffffffffffffffffffffffffffffffffffffff16630f53a470336040518263ffffffff1660e01b8152600401610f0391906118c5565b5f60405180830381865afa158015610f1d573d5f803e3d5ffd5b505050506040513d5f823e3d601f19601f82011682018060405250810190610f459190611b68565b90505f815f01515111610f8d576040517f08c379a0000000000000000000000000000000000000000000000000000000008152600401610f8490611bf9565b60405180910390fd5b8160025f8573ffffffffffffffffffffffffffffffffffffffff1673ffffffffffffffffffffffffffffffffffffffff1681526020019081526020015f208381548110610fdd57610fdc611c17565b5b905f5260205f209060050201600401541461102d576040517f08c379a000000000000000000000000000000000000000000000000000000000815260040161102490611c8e565b60405180910390fd5b60025f8473ffffffffffffffffffffffffffffffffffffffff1673ffffffffffffffffffffffffffffffffffffffff1681526020019081526020015f20828154811061107c5761107b611c17565b5b905f5260205f2090600502016003015f81548092919061109b906120f3565b91905055507fe8a76fc0f16d11a00d1e93b689b63d76cf60af914dd3d915375dc41d01a0c3c833848460025f8873ffffffffffffffffffffffffffffffffffffffff1673ffffffffffffffffffffffffffffffffffffffff1681526020019081526020015f20868154811061111357611112611c17565b5b905f5260205f209060050201600301546040516111339493929190611d68565b60405180910390a1505050565b611148611288565b73ffffffffffffffffffffffffffffffffffffffff16611166610c61565b73ffffffffffffffffffffffffffffffffffffffff16146111c557611189611288565b6040517f118cdaa70000000000000000000000000000000000000000000000000000000081526004016111bc91906118c5565b60405180910390fd5b565b5f805f9054906101000a900473ffffffffffffffffffffffffffffffffffffffff169050815f806101000a81548173ffffffffffffffffffffffffffffffffffffffff021916908373ffffffffffffffffffffffffffffffffffffffff1602179055508173ffffffffffffffffffffffffffffffffffffffff168173ffffffffffffffffffffffffffffffffffffffff167f8be0079c531659141344cd1fd0a4f28419497f9722a3daafe3b4186f6b6457e060405160405180910390a35050565b5f33905090565b6040518060a001604052805f73ffffffffffffffffffffffffffffffffffffffff168152602001606081526020015f81526020015f81526020015f81525090565b5f604051905090565b5f80fd5b5f80fd5b5f73ffffffffffffffffffffffffffffffffffffffff82169050919050565b5f61130a826112e1565b9050919050565b61131a81611300565b8114611324575f80fd5b50565b5f8135905061133581611311565b92915050565b5f819050919050565b61134d8161133b565b8114611357575f80fd5b50565b5f8135905061136881611344565b92915050565b5f8060408385031215611384576113836112d9565b5b5f61139185828601611327565b92505060206113a28582860161135a565b9150509250929050565b6113b581611300565b82525050565b5f81519050919050565b5f82825260208201905092915050565b8281835e5f83830152505050565b5f601f19601f8301169050919050565b5f6113fd826113bb565b61140781856113c5565b93506114178185602086016113d5565b611420816113e3565b840191505092915050565b6114348161133b565b82525050565b5f60a08201905061144d5f8301886113ac565b818103602083015261145f81876113f3565b905061146e604083018661142b565b61147b606083018561142b565b611488608083018461142b565b9695505050505050565b5f602082840312156114a7576114a66112d9565b5b5f6114b484828501611327565b91505092915050565b5f81519050919050565b5f82825260208201905092915050565b5f819050602082019050919050565b6114ef81611300565b82525050565b5f82825260208201905092915050565b5f61150f826113bb565b61151981856114f5565b93506115298185602086016113d5565b611532816113e3565b840191505092915050565b6115468161133b565b82525050565b5f60a083015f8301516115615f8601826114e6565b50602083015184820360208601526115798282611505565b915050604083015161158e604086018261153d565b5060608301516115a1606086018261153d565b5060808301516115b4608086018261153d565b508091505092915050565b5f6115ca838361154c565b905092915050565b5f602082019050919050565b5f6115e8826114bd565b6115f281856114c7565b935083602082028501611604856114d7565b805f5b8581101561163f578484038952815161162085826115bf565b945061162b836115d2565b925060208a01995050600181019050611607565b50829750879550505050505092915050565b5f6020820190508181035f83015261166981846115de565b905092915050565b5f61ffff82169050919050565b61168781611671565b8114611691575f80fd5b50565b5f813590506116a28161167e565b92915050565b5f602082840312156116bd576116bc6112d9565b5b5f6116ca84828501611694565b91505092915050565b6116dc81611671565b82525050565b5f6020820190506116f55f8301846116d3565b92915050565b5f8060408385031215611711576117106112d9565b5b5f61171e8582860161135a565b925050602061172f85828601611327565b9150509250929050565b5f80fd5b5f80fd5b7f4e487b71000000000000000000000000000000000000000000000000000000005f52604160045260245ffd5b611777826113e3565b810181811067ffffffffffffffff8211171561179657611795611741565b5b80604052505050565b5f6117a86112d0565b90506117b4828261176e565b919050565b5f67ffffffffffffffff8211156117d3576117d2611741565b5b6117dc826113e3565b9050602081019050919050565b828183375f83830152505050565b5f611809611804846117b9565b61179f565b9050828152602081018484840111156118255761182461173d565b5b6118308482856117e9565b509392505050565b5f82601f83011261184c5761184b611739565b5b813561185c8482602086016117f7565b91505092915050565b5f6020828403121561187a576118796112d9565b5b5f82013567ffffffffffffffff811115611897576118966112dd565b5b6118a384828501611838565b91505092915050565b5f6020820190506118bf5f83018461142b565b92915050565b5f6020820190506118d85f8301846113ac565b92915050565b5f819050919050565b5f6119016118fc6118f7846112e1565b6118de565b6112e1565b9050919050565b5f611912826118e7565b9050919050565b5f61192382611908565b9050919050565b61193381611919565b82525050565b5f60208201905061194c5f83018461192a565b92915050565b5f60208284031215611967576119666112d9565b5b5f6119748482850161135a565b91505092915050565b5f60a083015f8301516119925f8601826114e6565b50602083015184820360208601526119aa8282611505565b91505060408301516119bf604086018261153d565b5060608301516119d2606086018261153d565b5060808301516119e5608086018261153d565b508091505092915050565b5f6020820190508181035f830152611a08818461197d565b905092915050565b7f4e487b71000000000000000000000000000000000000000000000000000000005f52602260045260245ffd5b5f6002820490506001821680611a5457607f821691505b602082108103611a6757611a66611a10565b5b50919050565b5f80fd5b5f80fd5b5f611a87611a82846117b9565b61179f565b905082815260208101848484011115611aa357611aa261173d565b5b611aae8482856113d5565b509392505050565b5f82601f830112611aca57611ac9611739565b5b8151611ada848260208601611a75565b91505092915050565b5f60408284031215611af857611af7611a6d565b5b611b02604061179f565b90505f82015167ffffffffffffffff811115611b2157611b20611a71565b5b611b2d84828501611ab6565b5f83015250602082015167ffffffffffffffff811115611b5057611b4f611a71565b5b611b5c84828501611ab6565b60208301525092915050565b5f60208284031215611b7d57611b7c6112d9565b5b5f82015167ffffffffffffffff811115611b9a57611b996112dd565b5b611ba684828501611ae3565b91505092915050565b7f55736572206e6f742072656769737465726564000000000000000000000000005f82015250565b5f611be36013836113c5565b9150611bee82611baf565b602082019050919050565b5f6020820190508181035f830152611c1081611bd7565b9050919050565b7f4e487b71000000000000000000000000000000000000000000000000000000005f52603260045260245ffd5b7f5477656574206e6f7420666f756e6400000000000000000000000000000000005f82015250565b5f611c78600f836113c5565b9150611c8382611c44565b602082019050919050565b5f6020820190508181035f830152611ca581611c6c565b9050919050565b7f43616e6e6f742072656d6f7665206c696b6500000000000000000000000000005f82015250565b5f611ce06012836113c5565b9150611ceb82611cac565b602082019050919050565b5f6020820190508181035f830152611d0d81611cd4565b9050919050565b7f4e487b71000000000000000000000000000000000000000000000000000000005f52601160045260245ffd5b5f611d4b8261133b565b91505f8203611d5d57611d5c611d14565b5b600182039050919050565b5f608082019050611d7b5f8301876113ac565b611d8860208301866113ac565b611d95604083018561142b565b611da2606083018461142b565b95945050505050565b7f4d65737361676520746f6f206c6f6e67000000000000000000000000000000005f82015250565b5f611ddf6010836113c5565b9150611dea82611dab565b602082019050919050565b5f6020820190508181035f830152611e0c81611dd3565b9050919050565b5f819050815f5260205f209050919050565b5f6020601f8301049050919050565b5f82821b905092915050565b5f60088302611e6f7fffffffffffffffffffffffffffffffffffffffffffffffffffffffffffffffff82611e34565b611e798683611e34565b95508019841693508086168417925050509392505050565b5f611eab611ea6611ea18461133b565b6118de565b61133b565b9050919050565b5f819050919050565b611ec483611e91565b611ed8611ed082611eb2565b848454611e40565b825550505050565b5f90565b611eec611ee0565b611ef7818484611ebb565b505050565b5b81811015611f1a57611f0f5f82611ee4565b600181019050611efd565b5050565b601f821115611f5f57611f3081611e13565b611f3984611e25565b81016020851015611f48578190505b611f5c611f5485611e25565b830182611efc565b50505b505050565b5f82821c905092915050565b5f611f7f5f1984600802611f64565b1980831691505092915050565b5f611f978383611f70565b9150826002028217905092915050565b611fb0826113bb565b67ffffffffffffffff811115611fc957611fc8611741565b5b611fd38254611a3d565b611fde828285611f1e565b5f60209050601f83116001811461200f575f8415611ffd578287015190505b6120078582611f8c565b86555061206e565b601f19841661201d86611e13565b5f5b828110156120445784890151825560018201915060208501945060208101905061201f565b86831015612061578489015161205d601f891682611f70565b8355505b6001600288020188555050505b505050505050565b5f6080820190506120895f83018761142b565b61209660208301866113ac565b81810360408301526120a881856113f3565b90506120b7606083018461142b565b95945050505050565b5f6120ca8261133b565b91506120d58361133b565b92508282019050808211156120ed576120ec611d14565b5b92915050565b5f6120fd8261133b565b91507fffffffffffffffffffffffffffffffffffffffffffffffffffffffffffffffff820361212f5761212e611d14565b5b60018201905091905056fea26469706673582212206c97c400cb2cfb190ad64e411eb7457bba2c490f053e80856e7e0eb2ff18020b64736f6c634300081a0033",
					"opcodes": "PUSH1 0x80 PUSH1 0x40 MSTORE PUSH2 0x118 PUSH0 PUSH1 0x14 PUSH2 0x100 EXP DUP2 SLOAD DUP2 PUSH2 0xFFFF MUL NOT AND SWAP1 DUP4 PUSH2 0xFFFF AND MUL OR SWAP1 SSTORE POP CALLVALUE DUP1 ISZERO PUSH2 0x2D JUMPI PUSH0 DUP1 REVERT JUMPDEST POP PUSH1 0x40 MLOAD PUSH2 0x2405 CODESIZE SUB DUP1 PUSH2 0x2405 DUP4 CODECOPY DUP2 DUP2 ADD PUSH1 0x40 MSTORE DUP2 ADD SWAP1 PUSH2 0x4F SWAP2 SWAP1 PUSH2 0x235 JUMP JUMPDEST CALLER PUSH0 PUSH20 0xFFFFFFFFFFFFFFFFFFFFFFFFFFFFFFFFFFFFFFFF AND DUP2 PUSH20 0xFFFFFFFFFFFFFFFFFFFFFFFFFFFFFFFFFFFFFFFF AND SUB PUSH2 0xC0 JUMPI PUSH0 PUSH1 0x40 MLOAD PUSH32 0x1E4FBDF700000000000000000000000000000000000000000000000000000000 DUP2 MSTORE PUSH1 0x4 ADD PUSH2 0xB7 SWAP2 SWAP1 PUSH2 0x26F JUMP JUMPDEST PUSH1 0x40 MLOAD DUP1 SWAP2 SUB SWAP1 REVERT JUMPDEST PUSH2 0xCF DUP2 PUSH2 0x116 PUSH1 0x20 SHL PUSH1 0x20 SHR JUMP JUMPDEST POP DUP1 PUSH1 0x1 PUSH0 PUSH2 0x100 EXP DUP2 SLOAD DUP2 PUSH20 0xFFFFFFFFFFFFFFFFFFFFFFFFFFFFFFFFFFFFFFFF MUL NOT AND SWAP1 DUP4 PUSH20 0xFFFFFFFFFFFFFFFFFFFFFFFFFFFFFFFFFFFFFFFF AND MUL OR SWAP1 SSTORE POP POP PUSH2 0x288 JUMP JUMPDEST PUSH0 DUP1 PUSH0 SWAP1 SLOAD SWAP1 PUSH2 0x100 EXP SWAP1 DIV PUSH20 0xFFFFFFFFFFFFFFFFFFFFFFFFFFFFFFFFFFFFFFFF AND SWAP1 POP DUP2 PUSH0 DUP1 PUSH2 0x100 EXP DUP2 SLOAD DUP2 PUSH20 0xFFFFFFFFFFFFFFFFFFFFFFFFFFFFFFFFFFFFFFFF MUL NOT AND SWAP1 DUP4 PUSH20 0xFFFFFFFFFFFFFFFFFFFFFFFFFFFFFFFFFFFFFFFF AND MUL OR SWAP1 SSTORE POP DUP2 PUSH20 0xFFFFFFFFFFFFFFFFFFFFFFFFFFFFFFFFFFFFFFFF AND DUP2 PUSH20 0xFFFFFFFFFFFFFFFFFFFFFFFFFFFFFFFFFFFFFFFF AND PUSH32 0x8BE0079C531659141344CD1FD0A4F28419497F9722A3DAAFE3B4186F6B6457E0 PUSH1 0x40 MLOAD PUSH1 0x40 MLOAD DUP1 SWAP2 SUB SWAP1 LOG3 POP POP JUMP JUMPDEST PUSH0 DUP1 REVERT JUMPDEST PUSH0 PUSH20 0xFFFFFFFFFFFFFFFFFFFFFFFFFFFFFFFFFFFFFFFF DUP3 AND SWAP1 POP SWAP2 SWAP1 POP JUMP JUMPDEST PUSH0 PUSH2 0x204 DUP3 PUSH2 0x1DB JUMP JUMPDEST SWAP1 POP SWAP2 SWAP1 POP JUMP JUMPDEST PUSH2 0x214 DUP2 PUSH2 0x1FA JUMP JUMPDEST DUP2 EQ PUSH2 0x21E JUMPI PUSH0 DUP1 REVERT JUMPDEST POP JUMP JUMPDEST PUSH0 DUP2 MLOAD SWAP1 POP PUSH2 0x22F DUP2 PUSH2 0x20B JUMP JUMPDEST SWAP3 SWAP2 POP POP JUMP JUMPDEST PUSH0 PUSH1 0x20 DUP3 DUP5 SUB SLT ISZERO PUSH2 0x24A JUMPI PUSH2 0x249 PUSH2 0x1D7 JUMP JUMPDEST JUMPDEST PUSH0 PUSH2 0x257 DUP5 DUP3 DUP6 ADD PUSH2 0x221 JUMP JUMPDEST SWAP2 POP POP SWAP3 SWAP2 POP POP JUMP JUMPDEST PUSH2 0x269 DUP2 PUSH2 0x1FA JUMP JUMPDEST DUP3 MSTORE POP POP JUMP JUMPDEST PUSH0 PUSH1 0x20 DUP3 ADD SWAP1 POP PUSH2 0x282 PUSH0 DUP4 ADD DUP5 PUSH2 0x260 JUMP JUMPDEST SWAP3 SWAP2 POP POP JUMP JUMPDEST PUSH2 0x2170 DUP1 PUSH2 0x295 PUSH0 CODECOPY PUSH0 RETURN INVALID PUSH1 0x80 PUSH1 0x40 MSTORE CALLVALUE DUP1 ISZERO PUSH2 0xF JUMPI PUSH0 DUP1 REVERT JUMPDEST POP PUSH1 0x4 CALLDATASIZE LT PUSH2 0xCD JUMPI PUSH0 CALLDATALOAD PUSH1 0xE0 SHR DUP1 PUSH4 0x7C9CD2BC GT PUSH2 0x8A JUMPI DUP1 PUSH4 0xA3974B21 GT PUSH2 0x64 JUMPI DUP1 PUSH4 0xA3974B21 EQ PUSH2 0x1FF JUMPI DUP1 PUSH4 0xC3AD5ECB EQ PUSH2 0x21D JUMPI DUP1 PUSH4 0xF2FDE38B EQ PUSH2 0x24D JUMPI DUP1 PUSH4 0xF65A8F40 EQ PUSH2 0x269 JUMPI PUSH2 0xCD JUMP JUMPDEST DUP1 PUSH4 0x7C9CD2BC EQ PUSH2 0x195 JUMPI DUP1 PUSH4 0x820785CC EQ PUSH2 0x1B1 JUMPI DUP1 PUSH4 0x8DA5CB5B EQ PUSH2 0x1E1 JUMPI PUSH2 0xCD JUMP JUMPDEST DUP1 PUSH4 0x5A1B4A9 EQ PUSH2 0xD1 JUMPI DUP1 PUSH4 0x12E7EE1C EQ PUSH2 0x105 JUMPI DUP1 PUSH4 0x58BFA4AB EQ PUSH2 0x135 JUMPI DUP1 PUSH4 0x6EB10797 EQ PUSH2 0x151 JUMPI DUP1 PUSH4 0x715018A6 EQ PUSH2 0x16F JUMPI DUP1 PUSH4 0x7A639E39 EQ PUSH2 0x179 JUMPI JUMPDEST PUSH0 DUP1 REVERT JUMPDEST PUSH2 0xEB PUSH1 0x4 DUP1 CALLDATASIZE SUB DUP2 ADD SWAP1 PUSH2 0xE6 SWAP2 SWAP1 PUSH2 0x136E JUMP JUMPDEST PUSH2 0x285 JUMP JUMPDEST PUSH1 0x40 MLOAD PUSH2 0xFC SWAP6 SWAP5 SWAP4 SWAP3 SWAP2 SWAP1 PUSH2 0x143A JUMP JUMPDEST PUSH1 0x40 MLOAD DUP1 SWAP2 SUB SWAP1 RETURN JUMPDEST PUSH2 0x11F PUSH1 0x4 DUP1 CALLDATASIZE SUB DUP2 ADD SWAP1 PUSH2 0x11A SWAP2 SWAP1 PUSH2 0x1492 JUMP JUMPDEST PUSH2 0x376 JUMP JUMPDEST PUSH1 0x40 MLOAD PUSH2 0x12C SWAP2 SWAP1 PUSH2 0x1651 JUMP JUMPDEST PUSH1 0x40 MLOAD DUP1 SWAP2 SUB SWAP1 RETURN JUMPDEST PUSH2 0x14F PUSH1 0x4 DUP1 CALLDATASIZE SUB DUP2 ADD SWAP1 PUSH2 0x14A SWAP2 SWAP1 PUSH2 0x16A8 JUMP JUMPDEST PUSH2 0x511 JUMP JUMPDEST STOP JUMPDEST PUSH2 0x159 PUSH2 0x538 JUMP JUMPDEST PUSH1 0x40 MLOAD PUSH2 0x166 SWAP2 SWAP1 PUSH2 0x16E2 JUMP JUMPDEST PUSH1 0x40 MLOAD DUP1 SWAP2 SUB SWAP1 RETURN JUMPDEST PUSH2 0x177 PUSH2 0x54B JUMP JUMPDEST STOP JUMPDEST PUSH2 0x193 PUSH1 0x4 DUP1 CALLDATASIZE SUB DUP2 ADD SWAP1 PUSH2 0x18E SWAP2 SWAP1 PUSH2 0x16FB JUMP JUMPDEST PUSH2 0x55E JUMP JUMPDEST STOP JUMPDEST PUSH2 0x1AF PUSH1 0x4 DUP1 CALLDATASIZE SUB DUP2 ADD SWAP1 PUSH2 0x1AA SWAP2 SWAP1 PUSH2 0x1865 JUMP JUMPDEST PUSH2 0x896 JUMP JUMPDEST STOP JUMPDEST PUSH2 0x1CB PUSH1 0x4 DUP1 CALLDATASIZE SUB DUP2 ADD SWAP1 PUSH2 0x1C6 SWAP2 SWAP1 PUSH2 0x1492 JUMP JUMPDEST PUSH2 0xB81 JUMP JUMPDEST PUSH1 0x40 MLOAD PUSH2 0x1D8 SWAP2 SWAP1 PUSH2 0x18AC JUMP JUMPDEST PUSH1 0x40 MLOAD DUP1 SWAP2 SUB SWAP1 RETURN JUMPDEST PUSH2 0x1E9 PUSH2 0xC61 JUMP JUMPDEST PUSH1 0x40 MLOAD PUSH2 0x1F6 SWAP2 SWAP1 PUSH2 0x18C5 JUMP JUMPDEST PUSH1 0x40 MLOAD DUP1 SWAP2 SUB SWAP1 RETURN JUMPDEST PUSH2 0x207 PUSH2 0xC88 JUMP JUMPDEST PUSH1 0x40 MLOAD PUSH2 0x214 SWAP2 SWAP1 PUSH2 0x1939 JUMP JUMPDEST PUSH1 0x40 MLOAD DUP1 SWAP2 SUB SWAP1 RETURN JUMPDEST PUSH2 0x237 PUSH1 0x4 DUP1 CALLDATASIZE SUB DUP2 ADD SWAP1 PUSH2 0x232 SWAP2 SWAP1 PUSH2 0x1952 JUMP JUMPDEST PUSH2 0xCAD JUMP JUMPDEST PUSH1 0x40 MLOAD PUSH2 0x244 SWAP2 SWAP1 PUSH2 0x19F0 JUMP JUMPDEST PUSH1 0x40 MLOAD DUP1 SWAP2 SUB SWAP1 RETURN JUMPDEST PUSH2 0x267 PUSH1 0x4 DUP1 CALLDATASIZE SUB DUP2 ADD SWAP1 PUSH2 0x262 SWAP2 SWAP1 PUSH2 0x1492 JUMP JUMPDEST PUSH2 0xE24 JUMP JUMPDEST STOP JUMPDEST PUSH2 0x283 PUSH1 0x4 DUP1 CALLDATASIZE SUB DUP2 ADD SWAP1 PUSH2 0x27E SWAP2 SWAP1 PUSH2 0x136E JUMP JUMPDEST PUSH2 0xEA8 JUMP JUMPDEST STOP JUMPDEST PUSH1 0x2 PUSH1 0x20 MSTORE DUP2 PUSH0 MSTORE PUSH1 0x40 PUSH0 KECCAK256 DUP2 DUP2 SLOAD DUP2 LT PUSH2 0x29E JUMPI PUSH0 DUP1 REVERT JUMPDEST SWAP1 PUSH0 MSTORE PUSH1 0x20 PUSH0 KECCAK256 SWAP1 PUSH1 0x5 MUL ADD PUSH0 SWAP2 POP SWAP2 POP POP DUP1 PUSH0 ADD PUSH0 SWAP1 SLOAD SWAP1 PUSH2 0x100 EXP SWAP1 DIV PUSH20 0xFFFFFFFFFFFFFFFFFFFFFFFFFFFFFFFFFFFFFFFF AND SWAP1 DUP1 PUSH1 0x1 ADD DUP1 SLOAD PUSH2 0x2E3 SWAP1 PUSH2 0x1A3D JUMP JUMPDEST DUP1 PUSH1 0x1F ADD PUSH1 0x20 DUP1 SWAP2 DIV MUL PUSH1 0x20 ADD PUSH1 0x40 MLOAD SWAP1 DUP2 ADD PUSH1 0x40 MSTORE DUP1 SWAP3 SWAP2 SWAP1 DUP2 DUP2 MSTORE PUSH1 0x20 ADD DUP3 DUP1 SLOAD PUSH2 0x30F SWAP1 PUSH2 0x1A3D JUMP JUMPDEST DUP1 ISZERO PUSH2 0x35A JUMPI DUP1 PUSH1 0x1F LT PUSH2 0x331 JUMPI PUSH2 0x100 DUP1 DUP4 SLOAD DIV MUL DUP4 MSTORE SWAP2 PUSH1 0x20 ADD SWAP2 PUSH2 0x35A JUMP JUMPDEST DUP3 ADD SWAP2 SWAP1 PUSH0 MSTORE PUSH1 0x20 PUSH0 KECCAK256 SWAP1 JUMPDEST DUP2 SLOAD DUP2 MSTORE SWAP1 PUSH1 0x1 ADD SWAP1 PUSH1 0x20 ADD DUP1 DUP4 GT PUSH2 0x33D JUMPI DUP3 SWAP1 SUB PUSH1 0x1F AND DUP3 ADD SWAP2 JUMPDEST POP POP POP POP POP SWAP1 DUP1 PUSH1 0x2 ADD SLOAD SWAP1 DUP1 PUSH1 0x3 ADD SLOAD SWAP1 DUP1 PUSH1 0x4 ADD SLOAD SWAP1 POP DUP6 JUMP JUMPDEST PUSH1 0x60 PUSH1 0x2 PUSH0 DUP4 PUSH20 0xFFFFFFFFFFFFFFFFFFFFFFFFFFFFFFFFFFFFFFFF AND PUSH20 0xFFFFFFFFFFFFFFFFFFFFFFFFFFFFFFFFFFFFFFFF AND DUP2 MSTORE PUSH1 0x20 ADD SWAP1 DUP2 MSTORE PUSH1 0x20 ADD PUSH0 KECCAK256 DUP1 SLOAD DUP1 PUSH1 0x20 MUL PUSH1 0x20 ADD PUSH1 0x40 MLOAD SWAP1 DUP2 ADD PUSH1 0x40 MSTORE DUP1 SWAP3 SWAP2 SWAP1 DUP2 DUP2 MSTORE PUSH1 0x20 ADD PUSH0 SWAP1 JUMPDEST DUP3 DUP3 LT ISZERO PUSH2 0x506 JUMPI DUP4 DUP3 SWAP1 PUSH0 MSTORE PUSH1 0x20 PUSH0 KECCAK256 SWAP1 PUSH1 0x5 MUL ADD PUSH1 0x40 MLOAD DUP1 PUSH1 0xA0 ADD PUSH1 0x40 MSTORE SWAP1 DUP2 PUSH0 DUP3 ADD PUSH0 SWAP1 SLOAD SWAP1 PUSH2 0x100 EXP SWAP1 DIV PUSH20 0xFFFFFFFFFFFFFFFFFFFFFFFFFFFFFFFFFFFFFFFF AND PUSH20 0xFFFFFFFFFFFFFFFFFFFFFFFFFFFFFFFFFFFFFFFF AND PUSH20 0xFFFFFFFFFFFFFFFFFFFFFFFFFFFFFFFFFFFFFFFF AND DUP2 MSTORE PUSH1 0x20 ADD PUSH1 0x1 DUP3 ADD DUP1 SLOAD PUSH2 0x459 SWAP1 PUSH2 0x1A3D JUMP JUMPDEST DUP1 PUSH1 0x1F ADD PUSH1 0x20 DUP1 SWAP2 DIV MUL PUSH1 0x20 ADD PUSH1 0x40 MLOAD SWAP1 DUP2 ADD PUSH1 0x40 MSTORE DUP1 SWAP3 SWAP2 SWAP1 DUP2 DUP2 MSTORE PUSH1 0x20 ADD DUP3 DUP1 SLOAD PUSH2 0x485 SWAP1 PUSH2 0x1A3D JUMP JUMPDEST DUP1 ISZERO PUSH2 0x4D0 JUMPI DUP1 PUSH1 0x1F LT PUSH2 0x4A7 JUMPI PUSH2 0x100 DUP1 DUP4 SLOAD DIV MUL DUP4 MSTORE SWAP2 PUSH1 0x20 ADD SWAP2 PUSH2 0x4D0 JUMP JUMPDEST DUP3 ADD SWAP2 SWAP1 PUSH0 MSTORE PUSH1 0x20 PUSH0 KECCAK256 SWAP1 JUMPDEST DUP2 SLOAD DUP2 MSTORE SWAP1 PUSH1 0x1 ADD SWAP1 PUSH1 0x20 ADD DUP1 DUP4 GT PUSH2 0x4B3 JUMPI DUP3 SWAP1 SUB PUSH1 0x1F AND DUP3 ADD SWAP2 JUMPDEST POP POP POP POP POP DUP2 MSTORE PUSH1 0x20 ADD PUSH1 0x2 DUP3 ADD SLOAD DUP2 MSTORE PUSH1 0x20 ADD PUSH1 0x3 DUP3 ADD SLOAD DUP2 MSTORE PUSH1 0x20 ADD PUSH1 0x4 DUP3 ADD SLOAD DUP2 MSTORE POP POP DUP2 MSTORE PUSH1 0x20 ADD SWAP1 PUSH1 0x1 ADD SWAP1 PUSH2 0x3D4 JUMP JUMPDEST POP POP POP POP SWAP1 POP SWAP2 SWAP1 POP JUMP JUMPDEST PUSH2 0x519 PUSH2 0x1140 JUMP JUMPDEST DUP1 PUSH0 PUSH1 0x14 PUSH2 0x100 EXP DUP2 SLOAD DUP2 PUSH2 0xFFFF MUL NOT AND SWAP1 DUP4 PUSH2 0xFFFF AND MUL OR SWAP1 SSTORE POP POP JUMP JUMPDEST PUSH0 PUSH1 0x14 SWAP1 SLOAD SWAP1 PUSH2 0x100 EXP SWAP1 DIV PUSH2 0xFFFF AND DUP2 JUMP JUMPDEST PUSH2 0x553 PUSH2 0x1140 JUMP JUMPDEST PUSH2 0x55C PUSH0 PUSH2 0x11C7 JUMP JUMPDEST JUMP JUMPDEST PUSH0 PUSH1 0x1 PUSH0 SWAP1 SLOAD SWAP1 PUSH2 0x100 EXP SWAP1 DIV PUSH20 0xFFFFFFFFFFFFFFFFFFFFFFFFFFFFFFFFFFFFFFFF AND PUSH20 0xFFFFFFFFFFFFFFFFFFFFFFFFFFFFFFFFFFFFFFFF AND PUSH4 0xF53A470 CALLER PUSH1 0x40 MLOAD DUP3 PUSH4 0xFFFFFFFF AND PUSH1 0xE0 SHL DUP2 MSTORE PUSH1 0x4 ADD PUSH2 0x5B9 SWAP2 SWAP1 PUSH2 0x18C5 JUMP JUMPDEST PUSH0 PUSH1 0x40 MLOAD DUP1 DUP4 SUB DUP2 DUP7 GAS STATICCALL ISZERO DUP1 ISZERO PUSH2 0x5D3 JUMPI RETURNDATASIZE PUSH0 DUP1 RETURNDATACOPY RETURNDATASIZE PUSH0 REVERT JUMPDEST POP POP POP POP PUSH1 0x40 MLOAD RETURNDATASIZE PUSH0 DUP3 RETURNDATACOPY RETURNDATASIZE PUSH1 0x1F NOT PUSH1 0x1F DUP3 ADD AND DUP3 ADD DUP1 PUSH1 0x40 MSTORE POP DUP2 ADD SWAP1 PUSH2 0x5FB SWAP2 SWAP1 PUSH2 0x1B68 JUMP JUMPDEST SWAP1 POP PUSH0 DUP2 PUSH0 ADD MLOAD MLOAD GT PUSH2 0x643 JUMPI PUSH1 0x40 MLOAD PUSH32 0x8C379A000000000000000000000000000000000000000000000000000000000 DUP2 MSTORE PUSH1 0x4 ADD PUSH2 0x63A SWAP1 PUSH2 0x1BF9 JUMP JUMPDEST PUSH1 0x40 MLOAD DUP1 SWAP2 SUB SWAP1 REVERT JUMPDEST DUP3 PUSH1 0x2 PUSH0 DUP5 PUSH20 0xFFFFFFFFFFFFFFFFFFFFFFFFFFFFFFFFFFFFFFFF AND PUSH20 0xFFFFFFFFFFFFFFFFFFFFFFFFFFFFFFFFFFFFFFFF AND DUP2 MSTORE PUSH1 0x20 ADD SWAP1 DUP2 MSTORE PUSH1 0x20 ADD PUSH0 KECCAK256 DUP5 DUP2 SLOAD DUP2 LT PUSH2 0x693 JUMPI PUSH2 0x692 PUSH2 0x1C17 JUMP JUMPDEST JUMPDEST SWAP1 PUSH0 MSTORE PUSH1 0x20 PUSH0 KECCAK256 SWAP1 PUSH1 0x5 MUL ADD PUSH1 0x4 ADD SLOAD EQ PUSH2 0x6E3 JUMPI PUSH1 0x40 MLOAD PUSH32 0x8C379A000000000000000000000000000000000000000000000000000000000 DUP2 MSTORE PUSH1 0x4 ADD PUSH2 0x6DA SWAP1 PUSH2 0x1C8E JUMP JUMPDEST PUSH1 0x40 MLOAD DUP1 SWAP2 SUB SWAP1 REVERT JUMPDEST PUSH0 PUSH1 0x2 PUSH0 DUP5 PUSH20 0xFFFFFFFFFFFFFFFFFFFFFFFFFFFFFFFFFFFFFFFF AND PUSH20 0xFFFFFFFFFFFFFFFFFFFFFFFFFFFFFFFFFFFFFFFF AND DUP2 MSTORE PUSH1 0x20 ADD SWAP1 DUP2 MSTORE PUSH1 0x20 ADD PUSH0 KECCAK256 DUP5 DUP2 SLOAD DUP2 LT PUSH2 0x733 JUMPI PUSH2 0x732 PUSH2 0x1C17 JUMP JUMPDEST JUMPDEST SWAP1 PUSH0 MSTORE PUSH1 0x20 PUSH0 KECCAK256 SWAP1 PUSH1 0x5 MUL ADD PUSH1 0x3 ADD SLOAD GT PUSH2 0x783 JUMPI PUSH1 0x40 MLOAD PUSH32 0x8C379A000000000000000000000000000000000000000000000000000000000 DUP2 MSTORE PUSH1 0x4 ADD PUSH2 0x77A SWAP1 PUSH2 0x1CF6 JUMP JUMPDEST PUSH1 0x40 MLOAD DUP1 SWAP2 SUB SWAP1 REVERT JUMPDEST PUSH1 0x2 PUSH0 DUP4 PUSH20 0xFFFFFFFFFFFFFFFFFFFFFFFFFFFFFFFFFFFFFFFF AND PUSH20 0xFFFFFFFFFFFFFFFFFFFFFFFFFFFFFFFFFFFFFFFF AND DUP2 MSTORE PUSH1 0x20 ADD SWAP1 DUP2 MSTORE PUSH1 0x20 ADD PUSH0 KECCAK256 DUP4 DUP2 SLOAD DUP2 LT PUSH2 0x7D2 JUMPI PUSH2 0x7D1 PUSH2 0x1C17 JUMP JUMPDEST JUMPDEST SWAP1 PUSH0 MSTORE PUSH1 0x20 PUSH0 KECCAK256 SWAP1 PUSH1 0x5 MUL ADD PUSH1 0x3 ADD PUSH0 DUP2 SLOAD DUP1 SWAP3 SWAP2 SWAP1 PUSH2 0x7F1 SWAP1 PUSH2 0x1D41 JUMP JUMPDEST SWAP2 SWAP1 POP SSTORE POP PUSH32 0x762C2616349603AC16EBA0DE8E6141B79129A07AB63BD99E0A80B3A471716943 CALLER DUP4 DUP6 PUSH1 0x2 PUSH0 DUP8 PUSH20 0xFFFFFFFFFFFFFFFFFFFFFFFFFFFFFFFFFFFFFFFF AND PUSH20 0xFFFFFFFFFFFFFFFFFFFFFFFFFFFFFFFFFFFFFFFF AND DUP2 MSTORE PUSH1 0x20 ADD SWAP1 DUP2 MSTORE PUSH1 0x20 ADD PUSH0 KECCAK256 DUP8 DUP2 SLOAD DUP2 LT PUSH2 0x869 JUMPI PUSH2 0x868 PUSH2 0x1C17 JUMP JUMPDEST JUMPDEST SWAP1 PUSH0 MSTORE PUSH1 0x20 PUSH0 KECCAK256 SWAP1 PUSH1 0x5 MUL ADD PUSH1 0x3 ADD SLOAD PUSH1 0x40 MLOAD PUSH2 0x889 SWAP5 SWAP4 SWAP3 SWAP2 SWAP1 PUSH2 0x1D68 JUMP JUMPDEST PUSH1 0x40 MLOAD DUP1 SWAP2 SUB SWAP1 LOG1 POP POP POP JUMP JUMPDEST PUSH0 PUSH1 0x1 PUSH0 SWAP1 SLOAD SWAP1 PUSH2 0x100 EXP SWAP1 DIV PUSH20 0xFFFFFFFFFFFFFFFFFFFFFFFFFFFFFFFFFFFFFFFF AND PUSH20 0xFFFFFFFFFFFFFFFFFFFFFFFFFFFFFFFFFFFFFFFF AND PUSH4 0xF53A470 CALLER PUSH1 0x40 MLOAD DUP3 PUSH4 0xFFFFFFFF AND PUSH1 0xE0 SHL DUP2 MSTORE PUSH1 0x4 ADD PUSH2 0x8F1 SWAP2 SWAP1 PUSH2 0x18C5 JUMP JUMPDEST PUSH0 PUSH1 0x40 MLOAD DUP1 DUP4 SUB DUP2 DUP7 GAS STATICCALL ISZERO DUP1 ISZERO PUSH2 0x90B JUMPI RETURNDATASIZE PUSH0 DUP1 RETURNDATACOPY RETURNDATASIZE PUSH0 REVERT JUMPDEST POP POP POP POP PUSH1 0x40 MLOAD RETURNDATASIZE PUSH0 DUP3 RETURNDATACOPY RETURNDATASIZE PUSH1 0x1F NOT PUSH1 0x1F DUP3 ADD AND DUP3 ADD DUP1 PUSH1 0x40 MSTORE POP DUP2 ADD SWAP1 PUSH2 0x933 SWAP2 SWAP1 PUSH2 0x1B68 JUMP JUMPDEST SWAP1 POP PUSH0 DUP2 PUSH0 ADD MLOAD MLOAD GT PUSH2 0x97B JUMPI PUSH1 0x40 MLOAD PUSH32 0x8C379A000000000000000000000000000000000000000000000000000000000 DUP2 MSTORE PUSH1 0x4 ADD PUSH2 0x972 SWAP1 PUSH2 0x1BF9 JUMP JUMPDEST PUSH1 0x40 MLOAD DUP1 SWAP2 SUB SWAP1 REVERT JUMPDEST PUSH0 PUSH1 0x14 SWAP1 SLOAD SWAP1 PUSH2 0x100 EXP SWAP1 DIV PUSH2 0xFFFF AND PUSH2 0xFFFF AND DUP3 MLOAD GT ISZERO PUSH2 0x9D2 JUMPI PUSH1 0x40 MLOAD PUSH32 0x8C379A000000000000000000000000000000000000000000000000000000000 DUP2 MSTORE PUSH1 0x4 ADD PUSH2 0x9C9 SWAP1 PUSH2 0x1DF5 JUMP JUMPDEST PUSH1 0x40 MLOAD DUP1 SWAP2 SUB SWAP1 REVERT JUMPDEST PUSH0 PUSH1 0x40 MLOAD DUP1 PUSH1 0xA0 ADD PUSH1 0x40 MSTORE DUP1 CALLER PUSH20 0xFFFFFFFFFFFFFFFFFFFFFFFFFFFFFFFFFFFFFFFF AND DUP2 MSTORE PUSH1 0x20 ADD DUP5 DUP2 MSTORE PUSH1 0x20 ADD TIMESTAMP DUP2 MSTORE PUSH1 0x20 ADD PUSH0 DUP2 MSTORE PUSH1 0x20 ADD PUSH1 0x2 PUSH0 CALLER PUSH20 0xFFFFFFFFFFFFFFFFFFFFFFFFFFFFFFFFFFFFFFFF AND PUSH20 0xFFFFFFFFFFFFFFFFFFFFFFFFFFFFFFFFFFFFFFFF AND DUP2 MSTORE PUSH1 0x20 ADD SWAP1 DUP2 MSTORE PUSH1 0x20 ADD PUSH0 KECCAK256 DUP1 SLOAD SWAP1 POP DUP2 MSTORE POP SWAP1 POP PUSH1 0x2 PUSH0 CALLER PUSH20 0xFFFFFFFFFFFFFFFFFFFFFFFFFFFFFFFFFFFFFFFF AND PUSH20 0xFFFFFFFFFFFFFFFFFFFFFFFFFFFFFFFFFFFFFFFF AND DUP2 MSTORE PUSH1 0x20 ADD SWAP1 DUP2 MSTORE PUSH1 0x20 ADD PUSH0 KECCAK256 DUP2 SWAP1 DUP1 PUSH1 0x1 DUP2 SLOAD ADD DUP1 DUP3 SSTORE DUP1 SWAP2 POP POP PUSH1 0x1 SWAP1 SUB SWAP1 PUSH0 MSTORE PUSH1 0x20 PUSH0 KECCAK256 SWAP1 PUSH1 0x5 MUL ADD PUSH0 SWAP1 SWAP2 SWAP1 SWAP2 SWAP1 SWAP2 POP PUSH0 DUP3 ADD MLOAD DUP2 PUSH0 ADD PUSH0 PUSH2 0x100 EXP DUP2 SLOAD DUP2 PUSH20 0xFFFFFFFFFFFFFFFFFFFFFFFFFFFFFFFFFFFFFFFF MUL NOT AND SWAP1 DUP4 PUSH20 0xFFFFFFFFFFFFFFFFFFFFFFFFFFFFFFFFFFFFFFFF AND MUL OR SWAP1 SSTORE POP PUSH1 0x20 DUP3 ADD MLOAD DUP2 PUSH1 0x1 ADD SWAP1 DUP2 PUSH2 0xB0F SWAP2 SWAP1 PUSH2 0x1FA7 JUMP JUMPDEST POP PUSH1 0x40 DUP3 ADD MLOAD DUP2 PUSH1 0x2 ADD SSTORE PUSH1 0x60 DUP3 ADD MLOAD DUP2 PUSH1 0x3 ADD SSTORE PUSH1 0x80 DUP3 ADD MLOAD DUP2 PUSH1 0x4 ADD SSTORE POP POP PUSH32 0x16FD3C13E9D46923E0A8BCE11C7B473EC508A72E6C96CD2404B29CE972AFC29E DUP2 PUSH1 0x80 ADD MLOAD DUP3 PUSH0 ADD MLOAD DUP4 PUSH1 0x20 ADD MLOAD DUP5 PUSH1 0x40 ADD MLOAD PUSH1 0x40 MLOAD PUSH2 0xB74 SWAP5 SWAP4 SWAP3 SWAP2 SWAP1 PUSH2 0x2076 JUMP JUMPDEST PUSH1 0x40 MLOAD DUP1 SWAP2 SUB SWAP1 LOG1 POP POP POP JUMP JUMPDEST PUSH0 DUP1 PUSH1 0x3 DUP2 SWAP1 SSTORE POP PUSH0 JUMPDEST PUSH1 0x2 PUSH0 DUP5 PUSH20 0xFFFFFFFFFFFFFFFFFFFFFFFFFFFFFFFFFFFFFFFF AND PUSH20 0xFFFFFFFFFFFFFFFFFFFFFFFFFFFFFFFFFFFFFFFF AND DUP2 MSTORE PUSH1 0x20 ADD SWAP1 DUP2 MSTORE PUSH1 0x20 ADD PUSH0 KECCAK256 DUP1 SLOAD SWAP1 POP DUP2 LT ISZERO PUSH2 0xC56 JUMPI PUSH1 0x2 PUSH0 DUP5 PUSH20 0xFFFFFFFFFFFFFFFFFFFFFFFFFFFFFFFFFFFFFFFF AND PUSH20 0xFFFFFFFFFFFFFFFFFFFFFFFFFFFFFFFFFFFFFFFF AND DUP2 MSTORE PUSH1 0x20 ADD SWAP1 DUP2 MSTORE PUSH1 0x20 ADD PUSH0 KECCAK256 DUP2 DUP2 SLOAD DUP2 LT PUSH2 0xC22 JUMPI PUSH2 0xC21 PUSH2 0x1C17 JUMP JUMPDEST JUMPDEST SWAP1 PUSH0 MSTORE PUSH1 0x20 PUSH0 KECCAK256 SWAP1 PUSH1 0x5 MUL ADD PUSH1 0x3 ADD SLOAD PUSH1 0x3 PUSH0 DUP3 DUP3 SLOAD PUSH2 0xC42 SWAP2 SWAP1 PUSH2 0x20C0 JUMP JUMPDEST SWAP3 POP POP DUP2 SWAP1 SSTORE POP DUP1 DUP1 PUSH1 0x1 ADD SWAP2 POP POP PUSH2 0xB8B JUMP JUMPDEST POP PUSH1 0x3 SLOAD SWAP1 POP SWAP2 SWAP1 POP JUMP JUMPDEST PUSH0 DUP1 PUSH0 SWAP1 SLOAD SWAP1 PUSH2 0x100 EXP SWAP1 DIV PUSH20 0xFFFFFFFFFFFFFFFFFFFFFFFFFFFFFFFFFFFFFFFF AND SWAP1 POP SWAP1 JUMP JUMPDEST PUSH1 0x1 PUSH0 SWAP1 SLOAD SWAP1 PUSH2 0x100 EXP SWAP1 DIV PUSH20 0xFFFFFFFFFFFFFFFFFFFFFFFFFFFFFFFFFFFFFFFF AND DUP2 JUMP JUMPDEST PUSH2 0xCB5 PUSH2 0x128F JUMP JUMPDEST PUSH1 0x2 PUSH0 CALLER PUSH20 0xFFFFFFFFFFFFFFFFFFFFFFFFFFFFFFFFFFFFFFFF AND PUSH20 0xFFFFFFFFFFFFFFFFFFFFFFFFFFFFFFFFFFFFFFFF AND DUP2 MSTORE PUSH1 0x20 ADD SWAP1 DUP2 MSTORE PUSH1 0x20 ADD PUSH0 KECCAK256 DUP3 DUP2 SLOAD DUP2 LT PUSH2 0xD04 JUMPI PUSH2 0xD03 PUSH2 0x1C17 JUMP JUMPDEST JUMPDEST SWAP1 PUSH0 MSTORE PUSH1 0x20 PUSH0 KECCAK256 SWAP1 PUSH1 0x5 MUL ADD PUSH1 0x40 MLOAD DUP1 PUSH1 0xA0 ADD PUSH1 0x40 MSTORE SWAP1 DUP2 PUSH0 DUP3 ADD PUSH0 SWAP1 SLOAD SWAP1 PUSH2 0x100 EXP SWAP1 DIV PUSH20 0xFFFFFFFFFFFFFFFFFFFFFFFFFFFFFFFFFFFFFFFF AND PUSH20 0xFFFFFFFFFFFFFFFFFFFFFFFFFFFFFFFFFFFFFFFF AND PUSH20 0xFFFFFFFFFFFFFFFFFFFFFFFFFFFFFFFFFFFFFFFF AND DUP2 MSTORE PUSH1 0x20 ADD PUSH1 0x1 DUP3 ADD DUP1 SLOAD PUSH2 0xD7F SWAP1 PUSH2 0x1A3D JUMP JUMPDEST DUP1 PUSH1 0x1F ADD PUSH1 0x20 DUP1 SWAP2 DIV MUL PUSH1 0x20 ADD PUSH1 0x40 MLOAD SWAP1 DUP2 ADD PUSH1 0x40 MSTORE DUP1 SWAP3 SWAP2 SWAP1 DUP2 DUP2 MSTORE PUSH1 0x20 ADD DUP3 DUP1 SLOAD PUSH2 0xDAB SWAP1 PUSH2 0x1A3D JUMP JUMPDEST DUP1 ISZERO PUSH2 0xDF6 JUMPI DUP1 PUSH1 0x1F LT PUSH2 0xDCD JUMPI PUSH2 0x100 DUP1 DUP4 SLOAD DIV MUL DUP4 MSTORE SWAP2 PUSH1 0x20 ADD SWAP2 PUSH2 0xDF6 JUMP JUMPDEST DUP3 ADD SWAP2 SWAP1 PUSH0 MSTORE PUSH1 0x20 PUSH0 KECCAK256 SWAP1 JUMPDEST DUP2 SLOAD DUP2 MSTORE SWAP1 PUSH1 0x1 ADD SWAP1 PUSH1 0x20 ADD DUP1 DUP4 GT PUSH2 0xDD9 JUMPI DUP3 SWAP1 SUB PUSH1 0x1F AND DUP3 ADD SWAP2 JUMPDEST POP POP POP POP POP DUP2 MSTORE PUSH1 0x20 ADD PUSH1 0x2 DUP3 ADD SLOAD DUP2 MSTORE PUSH1 0x20 ADD PUSH1 0x3 DUP3 ADD SLOAD DUP2 MSTORE PUSH1 0x20 ADD PUSH1 0x4 DUP3 ADD SLOAD DUP2 MSTORE POP POP SWAP1 POP SWAP2 SWAP1 POP JUMP JUMPDEST PUSH2 0xE2C PUSH2 0x1140 JUMP JUMPDEST PUSH0 PUSH20 0xFFFFFFFFFFFFFFFFFFFFFFFFFFFFFFFFFFFFFFFF AND DUP2 PUSH20 0xFFFFFFFFFFFFFFFFFFFFFFFFFFFFFFFFFFFFFFFF AND SUB PUSH2 0xE9C JUMPI PUSH0 PUSH1 0x40 MLOAD PUSH32 0x1E4FBDF700000000000000000000000000000000000000000000000000000000 DUP2 MSTORE PUSH1 0x4 ADD PUSH2 0xE93 SWAP2 SWAP1 PUSH2 0x18C5 JUMP JUMPDEST PUSH1 0x40 MLOAD DUP1 SWAP2 SUB SWAP1 REVERT JUMPDEST PUSH2 0xEA5 DUP2 PUSH2 0x11C7 JUMP JUMPDEST POP JUMP JUMPDEST PUSH0 PUSH1 0x1 PUSH0 SWAP1 SLOAD SWAP1 PUSH2 0x100 EXP SWAP1 DIV PUSH20 0xFFFFFFFFFFFFFFFFFFFFFFFFFFFFFFFFFFFFFFFF AND PUSH20 0xFFFFFFFFFFFFFFFFFFFFFFFFFFFFFFFFFFFFFFFF AND PUSH4 0xF53A470 CALLER PUSH1 0x40 MLOAD DUP3 PUSH4 0xFFFFFFFF AND PUSH1 0xE0 SHL DUP2 MSTORE PUSH1 0x4 ADD PUSH2 0xF03 SWAP2 SWAP1 PUSH2 0x18C5 JUMP JUMPDEST PUSH0 PUSH1 0x40 MLOAD DUP1 DUP4 SUB DUP2 DUP7 GAS STATICCALL ISZERO DUP1 ISZERO PUSH2 0xF1D JUMPI RETURNDATASIZE PUSH0 DUP1 RETURNDATACOPY RETURNDATASIZE PUSH0 REVERT JUMPDEST POP POP POP POP PUSH1 0x40 MLOAD RETURNDATASIZE PUSH0 DUP3 RETURNDATACOPY RETURNDATASIZE PUSH1 0x1F NOT PUSH1 0x1F DUP3 ADD AND DUP3 ADD DUP1 PUSH1 0x40 MSTORE POP DUP2 ADD SWAP1 PUSH2 0xF45 SWAP2 SWAP1 PUSH2 0x1B68 JUMP JUMPDEST SWAP1 POP PUSH0 DUP2 PUSH0 ADD MLOAD MLOAD GT PUSH2 0xF8D JUMPI PUSH1 0x40 MLOAD PUSH32 0x8C379A000000000000000000000000000000000000000000000000000000000 DUP2 MSTORE PUSH1 0x4 ADD PUSH2 0xF84 SWAP1 PUSH2 0x1BF9 JUMP JUMPDEST PUSH1 0x40 MLOAD DUP1 SWAP2 SUB SWAP1 REVERT JUMPDEST DUP2 PUSH1 0x2 PUSH0 DUP6 PUSH20 0xFFFFFFFFFFFFFFFFFFFFFFFFFFFFFFFFFFFFFFFF AND PUSH20 0xFFFFFFFFFFFFFFFFFFFFFFFFFFFFFFFFFFFFFFFF AND DUP2 MSTORE PUSH1 0x20 ADD SWAP1 DUP2 MSTORE PUSH1 0x20 ADD PUSH0 KECCAK256 DUP4 DUP2 SLOAD DUP2 LT PUSH2 0xFDD JUMPI PUSH2 0xFDC PUSH2 0x1C17 JUMP JUMPDEST JUMPDEST SWAP1 PUSH0 MSTORE PUSH1 0x20 PUSH0 KECCAK256 SWAP1 PUSH1 0x5 MUL ADD PUSH1 0x4 ADD SLOAD EQ PUSH2 0x102D JUMPI PUSH1 0x40 MLOAD PUSH32 0x8C379A000000000000000000000000000000000000000000000000000000000 DUP2 MSTORE PUSH1 0x4 ADD PUSH2 0x1024 SWAP1 PUSH2 0x1C8E JUMP JUMPDEST PUSH1 0x40 MLOAD DUP1 SWAP2 SUB SWAP1 REVERT JUMPDEST PUSH1 0x2 PUSH0 DUP5 PUSH20 0xFFFFFFFFFFFFFFFFFFFFFFFFFFFFFFFFFFFFFFFF AND PUSH20 0xFFFFFFFFFFFFFFFFFFFFFFFFFFFFFFFFFFFFFFFF AND DUP2 MSTORE PUSH1 0x20 ADD SWAP1 DUP2 MSTORE PUSH1 0x20 ADD PUSH0 KECCAK256 DUP3 DUP2 SLOAD DUP2 LT PUSH2 0x107C JUMPI PUSH2 0x107B PUSH2 0x1C17 JUMP JUMPDEST JUMPDEST SWAP1 PUSH0 MSTORE PUSH1 0x20 PUSH0 KECCAK256 SWAP1 PUSH1 0x5 MUL ADD PUSH1 0x3 ADD PUSH0 DUP2 SLOAD DUP1 SWAP3 SWAP2 SWAP1 PUSH2 0x109B SWAP1 PUSH2 0x20F3 JUMP JUMPDEST SWAP2 SWAP1 POP SSTORE POP PUSH32 0xE8A76FC0F16D11A00D1E93B689B63D76CF60AF914DD3D915375DC41D01A0C3C8 CALLER DUP5 DUP5 PUSH1 0x2 PUSH0 DUP9 PUSH20 0xFFFFFFFFFFFFFFFFFFFFFFFFFFFFFFFFFFFFFFFF AND PUSH20 0xFFFFFFFFFFFFFFFFFFFFFFFFFFFFFFFFFFFFFFFF AND DUP2 MSTORE PUSH1 0x20 ADD SWAP1 DUP2 MSTORE PUSH1 0x20 ADD PUSH0 KECCAK256 DUP7 DUP2 SLOAD DUP2 LT PUSH2 0x1113 JUMPI PUSH2 0x1112 PUSH2 0x1C17 JUMP JUMPDEST JUMPDEST SWAP1 PUSH0 MSTORE PUSH1 0x20 PUSH0 KECCAK256 SWAP1 PUSH1 0x5 MUL ADD PUSH1 0x3 ADD SLOAD PUSH1 0x40 MLOAD PUSH2 0x1133 SWAP5 SWAP4 SWAP3 SWAP2 SWAP1 PUSH2 0x1D68 JUMP JUMPDEST PUSH1 0x40 MLOAD DUP1 SWAP2 SUB SWAP1 LOG1 POP POP POP JUMP JUMPDEST PUSH2 0x1148 PUSH2 0x1288 JUMP JUMPDEST PUSH20 0xFFFFFFFFFFFFFFFFFFFFFFFFFFFFFFFFFFFFFFFF AND PUSH2 0x1166 PUSH2 0xC61 JUMP JUMPDEST PUSH20 0xFFFFFFFFFFFFFFFFFFFFFFFFFFFFFFFFFFFFFFFF AND EQ PUSH2 0x11C5 JUMPI PUSH2 0x1189 PUSH2 0x1288 JUMP JUMPDEST PUSH1 0x40 MLOAD PUSH32 0x118CDAA700000000000000000000000000000000000000000000000000000000 DUP2 MSTORE PUSH1 0x4 ADD PUSH2 0x11BC SWAP2 SWAP1 PUSH2 0x18C5 JUMP JUMPDEST PUSH1 0x40 MLOAD DUP1 SWAP2 SUB SWAP1 REVERT JUMPDEST JUMP JUMPDEST PUSH0 DUP1 PUSH0 SWAP1 SLOAD SWAP1 PUSH2 0x100 EXP SWAP1 DIV PUSH20 0xFFFFFFFFFFFFFFFFFFFFFFFFFFFFFFFFFFFFFFFF AND SWAP1 POP DUP2 PUSH0 DUP1 PUSH2 0x100 EXP DUP2 SLOAD DUP2 PUSH20 0xFFFFFFFFFFFFFFFFFFFFFFFFFFFFFFFFFFFFFFFF MUL NOT AND SWAP1 DUP4 PUSH20 0xFFFFFFFFFFFFFFFFFFFFFFFFFFFFFFFFFFFFFFFF AND MUL OR SWAP1 SSTORE POP DUP2 PUSH20 0xFFFFFFFFFFFFFFFFFFFFFFFFFFFFFFFFFFFFFFFF AND DUP2 PUSH20 0xFFFFFFFFFFFFFFFFFFFFFFFFFFFFFFFFFFFFFFFF AND PUSH32 0x8BE0079C531659141344CD1FD0A4F28419497F9722A3DAAFE3B4186F6B6457E0 PUSH1 0x40 MLOAD PUSH1 0x40 MLOAD DUP1 SWAP2 SUB SWAP1 LOG3 POP POP JUMP JUMPDEST PUSH0 CALLER SWAP1 POP SWAP1 JUMP JUMPDEST PUSH1 0x40 MLOAD DUP1 PUSH1 0xA0 ADD PUSH1 0x40 MSTORE DUP1 PUSH0 PUSH20 0xFFFFFFFFFFFFFFFFFFFFFFFFFFFFFFFFFFFFFFFF AND DUP2 MSTORE PUSH1 0x20 ADD PUSH1 0x60 DUP2 MSTORE PUSH1 0x20 ADD PUSH0 DUP2 MSTORE PUSH1 0x20 ADD PUSH0 DUP2 MSTORE PUSH1 0x20 ADD PUSH0 DUP2 MSTORE POP SWAP1 JUMP JUMPDEST PUSH0 PUSH1 0x40 MLOAD SWAP1 POP SWAP1 JUMP JUMPDEST PUSH0 DUP1 REVERT JUMPDEST PUSH0 DUP1 REVERT JUMPDEST PUSH0 PUSH20 0xFFFFFFFFFFFFFFFFFFFFFFFFFFFFFFFFFFFFFFFF DUP3 AND SWAP1 POP SWAP2 SWAP1 POP JUMP JUMPDEST PUSH0 PUSH2 0x130A DUP3 PUSH2 0x12E1 JUMP JUMPDEST SWAP1 POP SWAP2 SWAP1 POP JUMP JUMPDEST PUSH2 0x131A DUP2 PUSH2 0x1300 JUMP JUMPDEST DUP2 EQ PUSH2 0x1324 JUMPI PUSH0 DUP1 REVERT JUMPDEST POP JUMP JUMPDEST PUSH0 DUP2 CALLDATALOAD SWAP1 POP PUSH2 0x1335 DUP2 PUSH2 0x1311 JUMP JUMPDEST SWAP3 SWAP2 POP POP JUMP JUMPDEST PUSH0 DUP2 SWAP1 POP SWAP2 SWAP1 POP JUMP JUMPDEST PUSH2 0x134D DUP2 PUSH2 0x133B JUMP JUMPDEST DUP2 EQ PUSH2 0x1357 JUMPI PUSH0 DUP1 REVERT JUMPDEST POP JUMP JUMPDEST PUSH0 DUP2 CALLDATALOAD SWAP1 POP PUSH2 0x1368 DUP2 PUSH2 0x1344 JUMP JUMPDEST SWAP3 SWAP2 POP POP JUMP JUMPDEST PUSH0 DUP1 PUSH1 0x40 DUP4 DUP6 SUB SLT ISZERO PUSH2 0x1384 JUMPI PUSH2 0x1383 PUSH2 0x12D9 JUMP JUMPDEST JUMPDEST PUSH0 PUSH2 0x1391 DUP6 DUP3 DUP7 ADD PUSH2 0x1327 JUMP JUMPDEST SWAP3 POP POP PUSH1 0x20 PUSH2 0x13A2 DUP6 DUP3 DUP7 ADD PUSH2 0x135A JUMP JUMPDEST SWAP2 POP POP SWAP3 POP SWAP3 SWAP1 POP JUMP JUMPDEST PUSH2 0x13B5 DUP2 PUSH2 0x1300 JUMP JUMPDEST DUP3 MSTORE POP POP JUMP JUMPDEST PUSH0 DUP2 MLOAD SWAP1 POP SWAP2 SWAP1 POP JUMP JUMPDEST PUSH0 DUP3 DUP3 MSTORE PUSH1 0x20 DUP3 ADD SWAP1 POP SWAP3 SWAP2 POP POP JUMP JUMPDEST DUP3 DUP2 DUP4 MCOPY PUSH0 DUP4 DUP4 ADD MSTORE POP POP POP JUMP JUMPDEST PUSH0 PUSH1 0x1F NOT PUSH1 0x1F DUP4 ADD AND SWAP1 POP SWAP2 SWAP1 POP JUMP JUMPDEST PUSH0 PUSH2 0x13FD DUP3 PUSH2 0x13BB JUMP JUMPDEST PUSH2 0x1407 DUP2 DUP6 PUSH2 0x13C5 JUMP JUMPDEST SWAP4 POP PUSH2 0x1417 DUP2 DUP6 PUSH1 0x20 DUP7 ADD PUSH2 0x13D5 JUMP JUMPDEST PUSH2 0x1420 DUP2 PUSH2 0x13E3 JUMP JUMPDEST DUP5 ADD SWAP2 POP POP SWAP3 SWAP2 POP POP JUMP JUMPDEST PUSH2 0x1434 DUP2 PUSH2 0x133B JUMP JUMPDEST DUP3 MSTORE POP POP JUMP JUMPDEST PUSH0 PUSH1 0xA0 DUP3 ADD SWAP1 POP PUSH2 0x144D PUSH0 DUP4 ADD DUP9 PUSH2 0x13AC JUMP JUMPDEST DUP2 DUP2 SUB PUSH1 0x20 DUP4 ADD MSTORE PUSH2 0x145F DUP2 DUP8 PUSH2 0x13F3 JUMP JUMPDEST SWAP1 POP PUSH2 0x146E PUSH1 0x40 DUP4 ADD DUP7 PUSH2 0x142B JUMP JUMPDEST PUSH2 0x147B PUSH1 0x60 DUP4 ADD DUP6 PUSH2 0x142B JUMP JUMPDEST PUSH2 0x1488 PUSH1 0x80 DUP4 ADD DUP5 PUSH2 0x142B JUMP JUMPDEST SWAP7 SWAP6 POP POP POP POP POP POP JUMP JUMPDEST PUSH0 PUSH1 0x20 DUP3 DUP5 SUB SLT ISZERO PUSH2 0x14A7 JUMPI PUSH2 0x14A6 PUSH2 0x12D9 JUMP JUMPDEST JUMPDEST PUSH0 PUSH2 0x14B4 DUP5 DUP3 DUP6 ADD PUSH2 0x1327 JUMP JUMPDEST SWAP2 POP POP SWAP3 SWAP2 POP POP JUMP JUMPDEST PUSH0 DUP2 MLOAD SWAP1 POP SWAP2 SWAP1 POP JUMP JUMPDEST PUSH0 DUP3 DUP3 MSTORE PUSH1 0x20 DUP3 ADD SWAP1 POP SWAP3 SWAP2 POP POP JUMP JUMPDEST PUSH0 DUP2 SWAP1 POP PUSH1 0x20 DUP3 ADD SWAP1 POP SWAP2 SWAP1 POP JUMP JUMPDEST PUSH2 0x14EF DUP2 PUSH2 0x1300 JUMP JUMPDEST DUP3 MSTORE POP POP JUMP JUMPDEST PUSH0 DUP3 DUP3 MSTORE PUSH1 0x20 DUP3 ADD SWAP1 POP SWAP3 SWAP2 POP POP JUMP JUMPDEST PUSH0 PUSH2 0x150F DUP3 PUSH2 0x13BB JUMP JUMPDEST PUSH2 0x1519 DUP2 DUP6 PUSH2 0x14F5 JUMP JUMPDEST SWAP4 POP PUSH2 0x1529 DUP2 DUP6 PUSH1 0x20 DUP7 ADD PUSH2 0x13D5 JUMP JUMPDEST PUSH2 0x1532 DUP2 PUSH2 0x13E3 JUMP JUMPDEST DUP5 ADD SWAP2 POP POP SWAP3 SWAP2 POP POP JUMP JUMPDEST PUSH2 0x1546 DUP2 PUSH2 0x133B JUMP JUMPDEST DUP3 MSTORE POP POP JUMP JUMPDEST PUSH0 PUSH1 0xA0 DUP4 ADD PUSH0 DUP4 ADD MLOAD PUSH2 0x1561 PUSH0 DUP7 ADD DUP3 PUSH2 0x14E6 JUMP JUMPDEST POP PUSH1 0x20 DUP4 ADD MLOAD DUP5 DUP3 SUB PUSH1 0x20 DUP7 ADD MSTORE PUSH2 0x1579 DUP3 DUP3 PUSH2 0x1505 JUMP JUMPDEST SWAP2 POP POP PUSH1 0x40 DUP4 ADD MLOAD PUSH2 0x158E PUSH1 0x40 DUP7 ADD DUP3 PUSH2 0x153D JUMP JUMPDEST POP PUSH1 0x60 DUP4 ADD MLOAD PUSH2 0x15A1 PUSH1 0x60 DUP7 ADD DUP3 PUSH2 0x153D JUMP JUMPDEST POP PUSH1 0x80 DUP4 ADD MLOAD PUSH2 0x15B4 PUSH1 0x80 DUP7 ADD DUP3 PUSH2 0x153D JUMP JUMPDEST POP DUP1 SWAP2 POP POP SWAP3 SWAP2 POP POP JUMP JUMPDEST PUSH0 PUSH2 0x15CA DUP4 DUP4 PUSH2 0x154C JUMP JUMPDEST SWAP1 POP SWAP3 SWAP2 POP POP JUMP JUMPDEST PUSH0 PUSH1 0x20 DUP3 ADD SWAP1 POP SWAP2 SWAP1 POP JUMP JUMPDEST PUSH0 PUSH2 0x15E8 DUP3 PUSH2 0x14BD JUMP JUMPDEST PUSH2 0x15F2 DUP2 DUP6 PUSH2 0x14C7 JUMP JUMPDEST SWAP4 POP DUP4 PUSH1 0x20 DUP3 MUL DUP6 ADD PUSH2 0x1604 DUP6 PUSH2 0x14D7 JUMP JUMPDEST DUP1 PUSH0 JUMPDEST DUP6 DUP2 LT ISZERO PUSH2 0x163F JUMPI DUP5 DUP5 SUB DUP10 MSTORE DUP2 MLOAD PUSH2 0x1620 DUP6 DUP3 PUSH2 0x15BF JUMP JUMPDEST SWAP5 POP PUSH2 0x162B DUP4 PUSH2 0x15D2 JUMP JUMPDEST SWAP3 POP PUSH1 0x20 DUP11 ADD SWAP10 POP POP PUSH1 0x1 DUP2 ADD SWAP1 POP PUSH2 0x1607 JUMP JUMPDEST POP DUP3 SWAP8 POP DUP8 SWAP6 POP POP POP POP POP POP SWAP3 SWAP2 POP POP JUMP JUMPDEST PUSH0 PUSH1 0x20 DUP3 ADD SWAP1 POP DUP2 DUP2 SUB PUSH0 DUP4 ADD MSTORE PUSH2 0x1669 DUP2 DUP5 PUSH2 0x15DE JUMP JUMPDEST SWAP1 POP SWAP3 SWAP2 POP POP JUMP JUMPDEST PUSH0 PUSH2 0xFFFF DUP3 AND SWAP1 POP SWAP2 SWAP1 POP JUMP JUMPDEST PUSH2 0x1687 DUP2 PUSH2 0x1671 JUMP JUMPDEST DUP2 EQ PUSH2 0x1691 JUMPI PUSH0 DUP1 REVERT JUMPDEST POP JUMP JUMPDEST PUSH0 DUP2 CALLDATALOAD SWAP1 POP PUSH2 0x16A2 DUP2 PUSH2 0x167E JUMP JUMPDEST SWAP3 SWAP2 POP POP JUMP JUMPDEST PUSH0 PUSH1 0x20 DUP3 DUP5 SUB SLT ISZERO PUSH2 0x16BD JUMPI PUSH2 0x16BC PUSH2 0x12D9 JUMP JUMPDEST JUMPDEST PUSH0 PUSH2 0x16CA DUP5 DUP3 DUP6 ADD PUSH2 0x1694 JUMP JUMPDEST SWAP2 POP POP SWAP3 SWAP2 POP POP JUMP JUMPDEST PUSH2 0x16DC DUP2 PUSH2 0x1671 JUMP JUMPDEST DUP3 MSTORE POP POP JUMP JUMPDEST PUSH0 PUSH1 0x20 DUP3 ADD SWAP1 POP PUSH2 0x16F5 PUSH0 DUP4 ADD DUP5 PUSH2 0x16D3 JUMP JUMPDEST SWAP3 SWAP2 POP POP JUMP JUMPDEST PUSH0 DUP1 PUSH1 0x40 DUP4 DUP6 SUB SLT ISZERO PUSH2 0x1711 JUMPI PUSH2 0x1710 PUSH2 0x12D9 JUMP JUMPDEST JUMPDEST PUSH0 PUSH2 0x171E DUP6 DUP3 DUP7 ADD PUSH2 0x135A JUMP JUMPDEST SWAP3 POP POP PUSH1 0x20 PUSH2 0x172F DUP6 DUP3 DUP7 ADD PUSH2 0x1327 JUMP JUMPDEST SWAP2 POP POP SWAP3 POP SWAP3 SWAP1 POP JUMP JUMPDEST PUSH0 DUP1 REVERT JUMPDEST PUSH0 DUP1 REVERT JUMPDEST PUSH32 0x4E487B7100000000000000000000000000000000000000000000000000000000 PUSH0 MSTORE PUSH1 0x41 PUSH1 0x4 MSTORE PUSH1 0x24 PUSH0 REVERT JUMPDEST PUSH2 0x1777 DUP3 PUSH2 0x13E3 JUMP JUMPDEST DUP2 ADD DUP2 DUP2 LT PUSH8 0xFFFFFFFFFFFFFFFF DUP3 GT OR ISZERO PUSH2 0x1796 JUMPI PUSH2 0x1795 PUSH2 0x1741 JUMP JUMPDEST JUMPDEST DUP1 PUSH1 0x40 MSTORE POP POP POP JUMP JUMPDEST PUSH0 PUSH2 0x17A8 PUSH2 0x12D0 JUMP JUMPDEST SWAP1 POP PUSH2 0x17B4 DUP3 DUP3 PUSH2 0x176E JUMP JUMPDEST SWAP2 SWAP1 POP JUMP JUMPDEST PUSH0 PUSH8 0xFFFFFFFFFFFFFFFF DUP3 GT ISZERO PUSH2 0x17D3 JUMPI PUSH2 0x17D2 PUSH2 0x1741 JUMP JUMPDEST JUMPDEST PUSH2 0x17DC DUP3 PUSH2 0x13E3 JUMP JUMPDEST SWAP1 POP PUSH1 0x20 DUP2 ADD SWAP1 POP SWAP2 SWAP1 POP JUMP JUMPDEST DUP3 DUP2 DUP4 CALLDATACOPY PUSH0 DUP4 DUP4 ADD MSTORE POP POP POP JUMP JUMPDEST PUSH0 PUSH2 0x1809 PUSH2 0x1804 DUP5 PUSH2 0x17B9 JUMP JUMPDEST PUSH2 0x179F JUMP JUMPDEST SWAP1 POP DUP3 DUP2 MSTORE PUSH1 0x20 DUP2 ADD DUP5 DUP5 DUP5 ADD GT ISZERO PUSH2 0x1825 JUMPI PUSH2 0x1824 PUSH2 0x173D JUMP JUMPDEST JUMPDEST PUSH2 0x1830 DUP5 DUP3 DUP6 PUSH2 0x17E9 JUMP JUMPDEST POP SWAP4 SWAP3 POP POP POP JUMP JUMPDEST PUSH0 DUP3 PUSH1 0x1F DUP4 ADD SLT PUSH2 0x184C JUMPI PUSH2 0x184B PUSH2 0x1739 JUMP JUMPDEST JUMPDEST DUP2 CALLDATALOAD PUSH2 0x185C DUP5 DUP3 PUSH1 0x20 DUP7 ADD PUSH2 0x17F7 JUMP JUMPDEST SWAP2 POP POP SWAP3 SWAP2 POP POP JUMP JUMPDEST PUSH0 PUSH1 0x20 DUP3 DUP5 SUB SLT ISZERO PUSH2 0x187A JUMPI PUSH2 0x1879 PUSH2 0x12D9 JUMP JUMPDEST JUMPDEST PUSH0 DUP3 ADD CALLDATALOAD PUSH8 0xFFFFFFFFFFFFFFFF DUP2 GT ISZERO PUSH2 0x1897 JUMPI PUSH2 0x1896 PUSH2 0x12DD JUMP JUMPDEST JUMPDEST PUSH2 0x18A3 DUP5 DUP3 DUP6 ADD PUSH2 0x1838 JUMP JUMPDEST SWAP2 POP POP SWAP3 SWAP2 POP POP JUMP JUMPDEST PUSH0 PUSH1 0x20 DUP3 ADD SWAP1 POP PUSH2 0x18BF PUSH0 DUP4 ADD DUP5 PUSH2 0x142B JUMP JUMPDEST SWAP3 SWAP2 POP POP JUMP JUMPDEST PUSH0 PUSH1 0x20 DUP3 ADD SWAP1 POP PUSH2 0x18D8 PUSH0 DUP4 ADD DUP5 PUSH2 0x13AC JUMP JUMPDEST SWAP3 SWAP2 POP POP JUMP JUMPDEST PUSH0 DUP2 SWAP1 POP SWAP2 SWAP1 POP JUMP JUMPDEST PUSH0 PUSH2 0x1901 PUSH2 0x18FC PUSH2 0x18F7 DUP5 PUSH2 0x12E1 JUMP JUMPDEST PUSH2 0x18DE JUMP JUMPDEST PUSH2 0x12E1 JUMP JUMPDEST SWAP1 POP SWAP2 SWAP1 POP JUMP JUMPDEST PUSH0 PUSH2 0x1912 DUP3 PUSH2 0x18E7 JUMP JUMPDEST SWAP1 POP SWAP2 SWAP1 POP JUMP JUMPDEST PUSH0 PUSH2 0x1923 DUP3 PUSH2 0x1908 JUMP JUMPDEST SWAP1 POP SWAP2 SWAP1 POP JUMP JUMPDEST PUSH2 0x1933 DUP2 PUSH2 0x1919 JUMP JUMPDEST DUP3 MSTORE POP POP JUMP JUMPDEST PUSH0 PUSH1 0x20 DUP3 ADD SWAP1 POP PUSH2 0x194C PUSH0 DUP4 ADD DUP5 PUSH2 0x192A JUMP JUMPDEST SWAP3 SWAP2 POP POP JUMP JUMPDEST PUSH0 PUSH1 0x20 DUP3 DUP5 SUB SLT ISZERO PUSH2 0x1967 JUMPI PUSH2 0x1966 PUSH2 0x12D9 JUMP JUMPDEST JUMPDEST PUSH0 PUSH2 0x1974 DUP5 DUP3 DUP6 ADD PUSH2 0x135A JUMP JUMPDEST SWAP2 POP POP SWAP3 SWAP2 POP POP JUMP JUMPDEST PUSH0 PUSH1 0xA0 DUP4 ADD PUSH0 DUP4 ADD MLOAD PUSH2 0x1992 PUSH0 DUP7 ADD DUP3 PUSH2 0x14E6 JUMP JUMPDEST POP PUSH1 0x20 DUP4 ADD MLOAD DUP5 DUP3 SUB PUSH1 0x20 DUP7 ADD MSTORE PUSH2 0x19AA DUP3 DUP3 PUSH2 0x1505 JUMP JUMPDEST SWAP2 POP POP PUSH1 0x40 DUP4 ADD MLOAD PUSH2 0x19BF PUSH1 0x40 DUP7 ADD DUP3 PUSH2 0x153D JUMP JUMPDEST POP PUSH1 0x60 DUP4 ADD MLOAD PUSH2 0x19D2 PUSH1 0x60 DUP7 ADD DUP3 PUSH2 0x153D JUMP JUMPDEST POP PUSH1 0x80 DUP4 ADD MLOAD PUSH2 0x19E5 PUSH1 0x80 DUP7 ADD DUP3 PUSH2 0x153D JUMP JUMPDEST POP DUP1 SWAP2 POP POP SWAP3 SWAP2 POP POP JUMP JUMPDEST PUSH0 PUSH1 0x20 DUP3 ADD SWAP1 POP DUP2 DUP2 SUB PUSH0 DUP4 ADD MSTORE PUSH2 0x1A08 DUP2 DUP5 PUSH2 0x197D JUMP JUMPDEST SWAP1 POP SWAP3 SWAP2 POP POP JUMP JUMPDEST PUSH32 0x4E487B7100000000000000000000000000000000000000000000000000000000 PUSH0 MSTORE PUSH1 0x22 PUSH1 0x4 MSTORE PUSH1 0x24 PUSH0 REVERT JUMPDEST PUSH0 PUSH1 0x2 DUP3 DIV SWAP1 POP PUSH1 0x1 DUP3 AND DUP1 PUSH2 0x1A54 JUMPI PUSH1 0x7F DUP3 AND SWAP2 POP JUMPDEST PUSH1 0x20 DUP3 LT DUP2 SUB PUSH2 0x1A67 JUMPI PUSH2 0x1A66 PUSH2 0x1A10 JUMP JUMPDEST JUMPDEST POP SWAP2 SWAP1 POP JUMP JUMPDEST PUSH0 DUP1 REVERT JUMPDEST PUSH0 DUP1 REVERT JUMPDEST PUSH0 PUSH2 0x1A87 PUSH2 0x1A82 DUP5 PUSH2 0x17B9 JUMP JUMPDEST PUSH2 0x179F JUMP JUMPDEST SWAP1 POP DUP3 DUP2 MSTORE PUSH1 0x20 DUP2 ADD DUP5 DUP5 DUP5 ADD GT ISZERO PUSH2 0x1AA3 JUMPI PUSH2 0x1AA2 PUSH2 0x173D JUMP JUMPDEST JUMPDEST PUSH2 0x1AAE DUP5 DUP3 DUP6 PUSH2 0x13D5 JUMP JUMPDEST POP SWAP4 SWAP3 POP POP POP JUMP JUMPDEST PUSH0 DUP3 PUSH1 0x1F DUP4 ADD SLT PUSH2 0x1ACA JUMPI PUSH2 0x1AC9 PUSH2 0x1739 JUMP JUMPDEST JUMPDEST DUP2 MLOAD PUSH2 0x1ADA DUP5 DUP3 PUSH1 0x20 DUP7 ADD PUSH2 0x1A75 JUMP JUMPDEST SWAP2 POP POP SWAP3 SWAP2 POP POP JUMP JUMPDEST PUSH0 PUSH1 0x40 DUP3 DUP5 SUB SLT ISZERO PUSH2 0x1AF8 JUMPI PUSH2 0x1AF7 PUSH2 0x1A6D JUMP JUMPDEST JUMPDEST PUSH2 0x1B02 PUSH1 0x40 PUSH2 0x179F JUMP JUMPDEST SWAP1 POP PUSH0 DUP3 ADD MLOAD PUSH8 0xFFFFFFFFFFFFFFFF DUP2 GT ISZERO PUSH2 0x1B21 JUMPI PUSH2 0x1B20 PUSH2 0x1A71 JUMP JUMPDEST JUMPDEST PUSH2 0x1B2D DUP5 DUP3 DUP6 ADD PUSH2 0x1AB6 JUMP JUMPDEST PUSH0 DUP4 ADD MSTORE POP PUSH1 0x20 DUP3 ADD MLOAD PUSH8 0xFFFFFFFFFFFFFFFF DUP2 GT ISZERO PUSH2 0x1B50 JUMPI PUSH2 0x1B4F PUSH2 0x1A71 JUMP JUMPDEST JUMPDEST PUSH2 0x1B5C DUP5 DUP3 DUP6 ADD PUSH2 0x1AB6 JUMP JUMPDEST PUSH1 0x20 DUP4 ADD MSTORE POP SWAP3 SWAP2 POP POP JUMP JUMPDEST PUSH0 PUSH1 0x20 DUP3 DUP5 SUB SLT ISZERO PUSH2 0x1B7D JUMPI PUSH2 0x1B7C PUSH2 0x12D9 JUMP JUMPDEST JUMPDEST PUSH0 DUP3 ADD MLOAD PUSH8 0xFFFFFFFFFFFFFFFF DUP2 GT ISZERO PUSH2 0x1B9A JUMPI PUSH2 0x1B99 PUSH2 0x12DD JUMP JUMPDEST JUMPDEST PUSH2 0x1BA6 DUP5 DUP3 DUP6 ADD PUSH2 0x1AE3 JUMP JUMPDEST SWAP2 POP POP SWAP3 SWAP2 POP POP JUMP JUMPDEST PUSH32 0x55736572206E6F74207265676973746572656400000000000000000000000000 PUSH0 DUP3 ADD MSTORE POP JUMP JUMPDEST PUSH0 PUSH2 0x1BE3 PUSH1 0x13 DUP4 PUSH2 0x13C5 JUMP JUMPDEST SWAP2 POP PUSH2 0x1BEE DUP3 PUSH2 0x1BAF JUMP JUMPDEST PUSH1 0x20 DUP3 ADD SWAP1 POP SWAP2 SWAP1 POP JUMP JUMPDEST PUSH0 PUSH1 0x20 DUP3 ADD SWAP1 POP DUP2 DUP2 SUB PUSH0 DUP4 ADD MSTORE PUSH2 0x1C10 DUP2 PUSH2 0x1BD7 JUMP JUMPDEST SWAP1 POP SWAP2 SWAP1 POP JUMP JUMPDEST PUSH32 0x4E487B7100000000000000000000000000000000000000000000000000000000 PUSH0 MSTORE PUSH1 0x32 PUSH1 0x4 MSTORE PUSH1 0x24 PUSH0 REVERT JUMPDEST PUSH32 0x5477656574206E6F7420666F756E640000000000000000000000000000000000 PUSH0 DUP3 ADD MSTORE POP JUMP JUMPDEST PUSH0 PUSH2 0x1C78 PUSH1 0xF DUP4 PUSH2 0x13C5 JUMP JUMPDEST SWAP2 POP PUSH2 0x1C83 DUP3 PUSH2 0x1C44 JUMP JUMPDEST PUSH1 0x20 DUP3 ADD SWAP1 POP SWAP2 SWAP1 POP JUMP JUMPDEST PUSH0 PUSH1 0x20 DUP3 ADD SWAP1 POP DUP2 DUP2 SUB PUSH0 DUP4 ADD MSTORE PUSH2 0x1CA5 DUP2 PUSH2 0x1C6C JUMP JUMPDEST SWAP1 POP SWAP2 SWAP1 POP JUMP JUMPDEST PUSH32 0x43616E6E6F742072656D6F7665206C696B650000000000000000000000000000 PUSH0 DUP3 ADD MSTORE POP JUMP JUMPDEST PUSH0 PUSH2 0x1CE0 PUSH1 0x12 DUP4 PUSH2 0x13C5 JUMP JUMPDEST SWAP2 POP PUSH2 0x1CEB DUP3 PUSH2 0x1CAC JUMP JUMPDEST PUSH1 0x20 DUP3 ADD SWAP1 POP SWAP2 SWAP1 POP JUMP JUMPDEST PUSH0 PUSH1 0x20 DUP3 ADD SWAP1 POP DUP2 DUP2 SUB PUSH0 DUP4 ADD MSTORE PUSH2 0x1D0D DUP2 PUSH2 0x1CD4 JUMP JUMPDEST SWAP1 POP SWAP2 SWAP1 POP JUMP JUMPDEST PUSH32 0x4E487B7100000000000000000000000000000000000000000000000000000000 PUSH0 MSTORE PUSH1 0x11 PUSH1 0x4 MSTORE PUSH1 0x24 PUSH0 REVERT JUMPDEST PUSH0 PUSH2 0x1D4B DUP3 PUSH2 0x133B JUMP JUMPDEST SWAP2 POP PUSH0 DUP3 SUB PUSH2 0x1D5D JUMPI PUSH2 0x1D5C PUSH2 0x1D14 JUMP JUMPDEST JUMPDEST PUSH1 0x1 DUP3 SUB SWAP1 POP SWAP2 SWAP1 POP JUMP JUMPDEST PUSH0 PUSH1 0x80 DUP3 ADD SWAP1 POP PUSH2 0x1D7B PUSH0 DUP4 ADD DUP8 PUSH2 0x13AC JUMP JUMPDEST PUSH2 0x1D88 PUSH1 0x20 DUP4 ADD DUP7 PUSH2 0x13AC JUMP JUMPDEST PUSH2 0x1D95 PUSH1 0x40 DUP4 ADD DUP6 PUSH2 0x142B JUMP JUMPDEST PUSH2 0x1DA2 PUSH1 0x60 DUP4 ADD DUP5 PUSH2 0x142B JUMP JUMPDEST SWAP6 SWAP5 POP POP POP POP POP JUMP JUMPDEST PUSH32 0x4D65737361676520746F6F206C6F6E6700000000000000000000000000000000 PUSH0 DUP3 ADD MSTORE POP JUMP JUMPDEST PUSH0 PUSH2 0x1DDF PUSH1 0x10 DUP4 PUSH2 0x13C5 JUMP JUMPDEST SWAP2 POP PUSH2 0x1DEA DUP3 PUSH2 0x1DAB JUMP JUMPDEST PUSH1 0x20 DUP3 ADD SWAP1 POP SWAP2 SWAP1 POP JUMP JUMPDEST PUSH0 PUSH1 0x20 DUP3 ADD SWAP1 POP DUP2 DUP2 SUB PUSH0 DUP4 ADD MSTORE PUSH2 0x1E0C DUP2 PUSH2 0x1DD3 JUMP JUMPDEST SWAP1 POP SWAP2 SWAP1 POP JUMP JUMPDEST PUSH0 DUP2 SWAP1 POP DUP2 PUSH0 MSTORE PUSH1 0x20 PUSH0 KECCAK256 SWAP1 POP SWAP2 SWAP1 POP JUMP JUMPDEST PUSH0 PUSH1 0x20 PUSH1 0x1F DUP4 ADD DIV SWAP1 POP SWAP2 SWAP1 POP JUMP JUMPDEST PUSH0 DUP3 DUP3 SHL SWAP1 POP SWAP3 SWAP2 POP POP JUMP JUMPDEST PUSH0 PUSH1 0x8 DUP4 MUL PUSH2 0x1E6F PUSH32 0xFFFFFFFFFFFFFFFFFFFFFFFFFFFFFFFFFFFFFFFFFFFFFFFFFFFFFFFFFFFFFFFF DUP3 PUSH2 0x1E34 JUMP JUMPDEST PUSH2 0x1E79 DUP7 DUP4 PUSH2 0x1E34 JUMP JUMPDEST SWAP6 POP DUP1 NOT DUP5 AND SWAP4 POP DUP1 DUP7 AND DUP5 OR SWAP3 POP POP POP SWAP4 SWAP3 POP POP POP JUMP JUMPDEST PUSH0 PUSH2 0x1EAB PUSH2 0x1EA6 PUSH2 0x1EA1 DUP5 PUSH2 0x133B JUMP JUMPDEST PUSH2 0x18DE JUMP JUMPDEST PUSH2 0x133B JUMP JUMPDEST SWAP1 POP SWAP2 SWAP1 POP JUMP JUMPDEST PUSH0 DUP2 SWAP1 POP SWAP2 SWAP1 POP JUMP JUMPDEST PUSH2 0x1EC4 DUP4 PUSH2 0x1E91 JUMP JUMPDEST PUSH2 0x1ED8 PUSH2 0x1ED0 DUP3 PUSH2 0x1EB2 JUMP JUMPDEST DUP5 DUP5 SLOAD PUSH2 0x1E40 JUMP JUMPDEST DUP3 SSTORE POP POP POP POP JUMP JUMPDEST PUSH0 SWAP1 JUMP JUMPDEST PUSH2 0x1EEC PUSH2 0x1EE0 JUMP JUMPDEST PUSH2 0x1EF7 DUP2 DUP5 DUP5 PUSH2 0x1EBB JUMP JUMPDEST POP POP POP JUMP JUMPDEST JUMPDEST DUP2 DUP2 LT ISZERO PUSH2 0x1F1A JUMPI PUSH2 0x1F0F PUSH0 DUP3 PUSH2 0x1EE4 JUMP JUMPDEST PUSH1 0x1 DUP2 ADD SWAP1 POP PUSH2 0x1EFD JUMP JUMPDEST POP POP JUMP JUMPDEST PUSH1 0x1F DUP3 GT ISZERO PUSH2 0x1F5F JUMPI PUSH2 0x1F30 DUP2 PUSH2 0x1E13 JUMP JUMPDEST PUSH2 0x1F39 DUP5 PUSH2 0x1E25 JUMP JUMPDEST DUP2 ADD PUSH1 0x20 DUP6 LT ISZERO PUSH2 0x1F48 JUMPI DUP2 SWAP1 POP JUMPDEST PUSH2 0x1F5C PUSH2 0x1F54 DUP6 PUSH2 0x1E25 JUMP JUMPDEST DUP4 ADD DUP3 PUSH2 0x1EFC JUMP JUMPDEST POP POP JUMPDEST POP POP POP JUMP JUMPDEST PUSH0 DUP3 DUP3 SHR SWAP1 POP SWAP3 SWAP2 POP POP JUMP JUMPDEST PUSH0 PUSH2 0x1F7F PUSH0 NOT DUP5 PUSH1 0x8 MUL PUSH2 0x1F64 JUMP JUMPDEST NOT DUP1 DUP4 AND SWAP2 POP POP SWAP3 SWAP2 POP POP JUMP JUMPDEST PUSH0 PUSH2 0x1F97 DUP4 DUP4 PUSH2 0x1F70 JUMP JUMPDEST SWAP2 POP DUP3 PUSH1 0x2 MUL DUP3 OR SWAP1 POP SWAP3 SWAP2 POP POP JUMP JUMPDEST PUSH2 0x1FB0 DUP3 PUSH2 0x13BB JUMP JUMPDEST PUSH8 0xFFFFFFFFFFFFFFFF DUP2 GT ISZERO PUSH2 0x1FC9 JUMPI PUSH2 0x1FC8 PUSH2 0x1741 JUMP JUMPDEST JUMPDEST PUSH2 0x1FD3 DUP3 SLOAD PUSH2 0x1A3D JUMP JUMPDEST PUSH2 0x1FDE DUP3 DUP3 DUP6 PUSH2 0x1F1E JUMP JUMPDEST PUSH0 PUSH1 0x20 SWAP1 POP PUSH1 0x1F DUP4 GT PUSH1 0x1 DUP2 EQ PUSH2 0x200F JUMPI PUSH0 DUP5 ISZERO PUSH2 0x1FFD JUMPI DUP3 DUP8 ADD MLOAD SWAP1 POP JUMPDEST PUSH2 0x2007 DUP6 DUP3 PUSH2 0x1F8C JUMP JUMPDEST DUP7 SSTORE POP PUSH2 0x206E JUMP JUMPDEST PUSH1 0x1F NOT DUP5 AND PUSH2 0x201D DUP7 PUSH2 0x1E13 JUMP JUMPDEST PUSH0 JUMPDEST DUP3 DUP2 LT ISZERO PUSH2 0x2044 JUMPI DUP5 DUP10 ADD MLOAD DUP3 SSTORE PUSH1 0x1 DUP3 ADD SWAP2 POP PUSH1 0x20 DUP6 ADD SWAP5 POP PUSH1 0x20 DUP2 ADD SWAP1 POP PUSH2 0x201F JUMP JUMPDEST DUP7 DUP4 LT ISZERO PUSH2 0x2061 JUMPI DUP5 DUP10 ADD MLOAD PUSH2 0x205D PUSH1 0x1F DUP10 AND DUP3 PUSH2 0x1F70 JUMP JUMPDEST DUP4 SSTORE POP JUMPDEST PUSH1 0x1 PUSH1 0x2 DUP9 MUL ADD DUP9 SSTORE POP POP POP JUMPDEST POP POP POP POP POP POP JUMP JUMPDEST PUSH0 PUSH1 0x80 DUP3 ADD SWAP1 POP PUSH2 0x2089 PUSH0 DUP4 ADD DUP8 PUSH2 0x142B JUMP JUMPDEST PUSH2 0x2096 PUSH1 0x20 DUP4 ADD DUP7 PUSH2 0x13AC JUMP JUMPDEST DUP2 DUP2 SUB PUSH1 0x40 DUP4 ADD MSTORE PUSH2 0x20A8 DUP2 DUP6 PUSH2 0x13F3 JUMP JUMPDEST SWAP1 POP PUSH2 0x20B7 PUSH1 0x60 DUP4 ADD DUP5 PUSH2 0x142B JUMP JUMPDEST SWAP6 SWAP5 POP POP POP POP POP JUMP JUMPDEST PUSH0 PUSH2 0x20CA DUP3 PUSH2 0x133B JUMP JUMPDEST SWAP2 POP PUSH2 0x20D5 DUP4 PUSH2 0x133B JUMP JUMPDEST SWAP3 POP DUP3 DUP3 ADD SWAP1 POP DUP1 DUP3 GT ISZERO PUSH2 0x20ED JUMPI PUSH2 0x20EC PUSH2 0x1D14 JUMP JUMPDEST JUMPDEST SWAP3 SWAP2 POP POP JUMP JUMPDEST PUSH0 PUSH2 0x20FD DUP3 PUSH2 0x133B JUMP JUMPDEST SWAP2 POP PUSH32 0xFFFFFFFFFFFFFFFFFFFFFFFFFFFFFFFFFFFFFFFFFFFFFFFFFFFFFFFFFFFFFFFF DUP3 SUB PUSH2 0x212F JUMPI PUSH2 0x212E PUSH2 0x1D14 JUMP JUMPDEST JUMPDEST PUSH1 0x1 DUP3 ADD SWAP1 POP SWAP2 SWAP1 POP JUMP INVALID LOG2 PUSH5 0x6970667358 0x22 SLT KECCAK256 PUSH13 0x97C400CB2CFB190AD64E411EB7 GASLIMIT PUSH28 0xBA2C490F053E80856E7E0EB2FF18020B64736F6C634300081A003300 "
				},
				"gasEstimates": {
					"creation": {
						"codeDepositCost": "1712000",
						"executionCost": "infinite",
						"totalCost": "infinite"
					},
					"external": {
						"MAX_TWEET_LENGTH()": "2583",
						"addLike(address,uint256)": "infinite",
						"changeTweetLength(uint16)": "infinite",
						"createTweet(string)": "infinite",
						"getAllTweets(address)": "infinite",
						"getTotalLikes(address)": "infinite",
						"getTweet(uint256)": "infinite",
						"owner()": "2582",
						"profileContract()": "infinite",
						"removeLike(uint256,address)": "infinite",
						"renounceOwnership()": "infinite",
						"transferOwnership(address)": "infinite",
						"tweets(address,uint256)": "infinite"
					}
				},
				"methodIdentifiers": {
					"MAX_TWEET_LENGTH()": "6eb10797",
					"addLike(address,uint256)": "f65a8f40",
					"changeTweetLength(uint16)": "58bfa4ab",
					"createTweet(string)": "7c9cd2bc",
					"getAllTweets(address)": "12e7ee1c",
					"getTotalLikes(address)": "820785cc",
					"getTweet(uint256)": "c3ad5ecb",
					"owner()": "8da5cb5b",
					"profileContract()": "a3974b21",
					"removeLike(uint256,address)": "7a639e39",
					"renounceOwnership()": "715018a6",
					"transferOwnership(address)": "f2fde38b",
					"tweets(address,uint256)": "05a1b4a9"
				}
			},
			"storageLayout": {
				"storage": [
					{
						"astId": 8,
						"contract": "practice/29_TwitterInteractionMain.sol:Twitter",
						"label": "_owner",
						"offset": 0,
						"slot": "0",
						"type": "t_address"
					},
					{
						"astId": 199,
						"contract": "practice/29_TwitterInteractionMain.sol:Twitter",
						"label": "MAX_TWEET_LENGTH",
						"offset": 20,
						"slot": "0",
						"type": "t_uint16"
					},
					{
						"astId": 202,
						"contract": "practice/29_TwitterInteractionMain.sol:Twitter",
						"label": "profileContract",
						"offset": 0,
						"slot": "1",
						"type": "t_contract(IProfile)194"
					},
					{
						"astId": 219,
						"contract": "practice/29_TwitterInteractionMain.sol:Twitter",
						"label": "tweets",
						"offset": 0,
						"slot": "2",
						"type": "t_mapping(t_address,t_array(t_struct(Tweet)213_storage)dyn_storage)"
					},
					{
						"astId": 489,
						"contract": "practice/29_TwitterInteractionMain.sol:Twitter",
						"label": "totalLikes",
						"offset": 0,
						"slot": "3",
						"type": "t_uint256"
					}
				],
				"types": {
					"t_address": {
						"encoding": "inplace",
						"label": "address",
						"numberOfBytes": "20"
					},
					"t_array(t_struct(Tweet)213_storage)dyn_storage": {
						"base": "t_struct(Tweet)213_storage",
						"encoding": "dynamic_array",
						"label": "struct Twitter.Tweet[]",
						"numberOfBytes": "32"
					},
					"t_contract(IProfile)194": {
						"encoding": "inplace",
						"label": "contract IProfile",
						"numberOfBytes": "20"
					},
					"t_mapping(t_address,t_array(t_struct(Tweet)213_storage)dyn_storage)": {
						"encoding": "mapping",
						"key": "t_address",
						"label": "mapping(address => struct Twitter.Tweet[])",
						"numberOfBytes": "32",
						"value": "t_array(t_struct(Tweet)213_storage)dyn_storage"
					},
					"t_string_storage": {
						"encoding": "bytes",
						"label": "string",
						"numberOfBytes": "32"
					},
					"t_struct(Tweet)213_storage": {
						"encoding": "inplace",
						"label": "struct Twitter.Tweet",
						"members": [
							{
								"astId": 204,
								"contract": "practice/29_TwitterInteractionMain.sol:Twitter",
								"label": "author",
								"offset": 0,
								"slot": "0",
								"type": "t_address"
							},
							{
								"astId": 206,
								"contract": "practice/29_TwitterInteractionMain.sol:Twitter",
								"label": "content",
								"offset": 0,
								"slot": "1",
								"type": "t_string_storage"
							},
							{
								"astId": 208,
								"contract": "practice/29_TwitterInteractionMain.sol:Twitter",
								"label": "timestamp",
								"offset": 0,
								"slot": "2",
								"type": "t_uint256"
							},
							{
								"astId": 210,
								"contract": "practice/29_TwitterInteractionMain.sol:Twitter",
								"label": "likes",
								"offset": 0,
								"slot": "3",
								"type": "t_uint256"
							},
							{
								"astId": 212,
								"contract": "practice/29_TwitterInteractionMain.sol:Twitter",
								"label": "id",
								"offset": 0,
								"slot": "4",
								"type": "t_uint256"
							}
						],
						"numberOfBytes": "160"
					},
					"t_uint16": {
						"encoding": "inplace",
						"label": "uint16",
						"numberOfBytes": "2"
					},
					"t_uint256": {
						"encoding": "inplace",
						"label": "uint256",
						"numberOfBytes": "32"
					}
				}
			},
			"userdoc": {
				"kind": "user",
				"methods": {},
				"version": 1
			}
		}
	}
}