{
	"practice/27_Interaction.sol": {
		"Game": {
			"abi": [
				{
					"inputs": [
						{
							"internalType": "address",
							"name": "_userContractAddress",
							"type": "address"
						}
					],
					"stateMutability": "nonpayable",
					"type": "constructor"
				},
				{
					"inputs": [],
					"name": "gameCount",
					"outputs": [
						{
							"internalType": "uint256",
							"name": "",
							"type": "uint256"
						}
					],
					"stateMutability": "view",
					"type": "function"
				},
				{
					"inputs": [
						{
							"internalType": "string",
							"name": "username",
							"type": "string"
						}
					],
					"name": "startGame",
					"outputs": [],
					"stateMutability": "nonpayable",
					"type": "function"
				},
				{
					"inputs": [],
					"name": "userContract",
					"outputs": [
						{
							"internalType": "contract IUser",
							"name": "",
							"type": "address"
						}
					],
					"stateMutability": "view",
					"type": "function"
				}
			],
			"devdoc": {
				"kind": "dev",
				"methods": {},
				"version": 1
			},
			"evm": {
				"assembly": "    /* \"practice/27_Interaction.sol\":316:639  contract Game {... */\n  mstore(0x40, 0x80)\n    /* \"practice/27_Interaction.sol\":399:471  constructor(address _userContractAddress) {... */\n  callvalue\n  dup1\n  iszero\n  tag_1\n  jumpi\n  0x00\n  dup1\n  revert\ntag_1:\n  pop\n  mload(0x40)\n  sub(codesize, bytecodeSize)\n  dup1\n  bytecodeSize\n  dup4\n  codecopy\n  dup2\n  dup2\n  add\n  0x40\n  mstore\n  dup2\n  add\n  swap1\n  tag_2\n  swap2\n  swap1\n  tag_3\n  jump\t// in\ntag_2:\n  pop\n    /* \"practice/27_Interaction.sol\":316:639  contract Game {... */\n  jump(tag_6)\n    /* \"#utility.yul\":88:205   */\ntag_8:\n    /* \"#utility.yul\":197:198   */\n  0x00\n    /* \"#utility.yul\":194:195   */\n  dup1\n    /* \"#utility.yul\":187:199   */\n  revert\n    /* \"#utility.yul\":334:460   */\ntag_10:\n    /* \"#utility.yul\":371:378   */\n  0x00\n    /* \"#utility.yul\":411:453   */\n  0xffffffffffffffffffffffffffffffffffffffff\n    /* \"#utility.yul\":404:409   */\n  dup3\n    /* \"#utility.yul\":400:454   */\n  and\n    /* \"#utility.yul\":389:454   */\n  swap1\n  pop\n    /* \"#utility.yul\":334:460   */\n  swap2\n  swap1\n  pop\n  jump\t// out\n    /* \"#utility.yul\":466:562   */\ntag_11:\n    /* \"#utility.yul\":503:510   */\n  0x00\n    /* \"#utility.yul\":532:556   */\n  tag_20\n    /* \"#utility.yul\":550:555   */\n  dup3\n    /* \"#utility.yul\":532:556   */\n  tag_10\n  jump\t// in\ntag_20:\n    /* \"#utility.yul\":521:556   */\n  swap1\n  pop\n    /* \"#utility.yul\":466:562   */\n  swap2\n  swap1\n  pop\n  jump\t// out\n    /* \"#utility.yul\":568:690   */\ntag_12:\n    /* \"#utility.yul\":641:665   */\n  tag_22\n    /* \"#utility.yul\":659:664   */\n  dup2\n    /* \"#utility.yul\":641:665   */\n  tag_11\n  jump\t// in\ntag_22:\n    /* \"#utility.yul\":634:639   */\n  dup2\n    /* \"#utility.yul\":631:666   */\n  eq\n    /* \"#utility.yul\":621:684   */\n  tag_23\n  jumpi\n    /* \"#utility.yul\":680:681   */\n  0x00\n    /* \"#utility.yul\":677:678   */\n  dup1\n    /* \"#utility.yul\":670:682   */\n  revert\n    /* \"#utility.yul\":621:684   */\ntag_23:\n    /* \"#utility.yul\":568:690   */\n  pop\n  jump\t// out\n    /* \"#utility.yul\":696:839   */\ntag_13:\n    /* \"#utility.yul\":753:758   */\n  0x00\n    /* \"#utility.yul\":784:790   */\n  dup2\n    /* \"#utility.yul\":778:791   */\n  mload\n    /* \"#utility.yul\":769:791   */\n  swap1\n  pop\n    /* \"#utility.yul\":800:833   */\n  tag_25\n    /* \"#utility.yul\":827:832   */\n  dup2\n    /* \"#utility.yul\":800:833   */\n  tag_12\n  jump\t// in\ntag_25:\n    /* \"#utility.yul\":696:839   */\n  swap3\n  swap2\n  pop\n  pop\n  jump\t// out\n    /* \"#utility.yul\":845:1196   */\ntag_3:\n    /* \"#utility.yul\":915:921   */\n  0x00\n    /* \"#utility.yul\":964:966   */\n  0x20\n    /* \"#utility.yul\":952:961   */\n  dup3\n    /* \"#utility.yul\":943:950   */\n  dup5\n    /* \"#utility.yul\":939:962   */\n  sub\n    /* \"#utility.yul\":935:967   */\n  slt\n    /* \"#utility.yul\":932:1051   */\n  iszero\n  tag_27\n  jumpi\n    /* \"#utility.yul\":970:1049   */\n  tag_28\n  tag_8\n  jump\t// in\ntag_28:\n    /* \"#utility.yul\":932:1051   */\ntag_27:\n    /* \"#utility.yul\":1090:1091   */\n  0x00\n    /* \"#utility.yul\":1115:1179   */\n  tag_29\n    /* \"#utility.yul\":1171:1178   */\n  dup5\n    /* \"#utility.yul\":1162:1168   */\n  dup3\n    /* \"#utility.yul\":1151:1160   */\n  dup6\n    /* \"#utility.yul\":1147:1169   */\n  add\n    /* \"#utility.yul\":1115:1179   */\n  tag_13\n  jump\t// in\ntag_29:\n    /* \"#utility.yul\":1105:1179   */\n  swap2\n  pop\n    /* \"#utility.yul\":1061:1189   */\n  pop\n    /* \"#utility.yul\":845:1196   */\n  swap3\n  swap2\n  pop\n  pop\n  jump\t// out\n    /* \"practice/27_Interaction.sol\":316:639  contract Game {... */\ntag_6:\n  dataSize(sub_0)\n  dup1\n  dataOffset(sub_0)\n  0x00\n  codecopy\n  0x00\n  return\nstop\n\nsub_0: assembly {\n        /* \"practice/27_Interaction.sol\":316:639  contract Game {... */\n      mstore(0x40, 0x80)\n      callvalue\n      dup1\n      iszero\n      tag_1\n      jumpi\n      0x00\n      dup1\n      revert\n    tag_1:\n      pop\n      jumpi(tag_2, lt(calldatasize, 0x04))\n      shr(0xe0, calldataload(0x00))\n      dup1\n      0x4d1975b4\n      eq\n      tag_3\n      jumpi\n      dup1\n      0x5000596b\n      eq\n      tag_4\n      jumpi\n      dup1\n      0xd542c4d5\n      eq\n      tag_5\n      jumpi\n    tag_2:\n      0x00\n      dup1\n      revert\n        /* \"practice/27_Interaction.sol\":337:358  uint public gameCount */\n    tag_3:\n      tag_6\n      tag_7\n      jump\t// in\n    tag_6:\n      mload(0x40)\n      tag_8\n      swap2\n      swap1\n      tag_9\n      jump\t// in\n    tag_8:\n      mload(0x40)\n      dup1\n      swap2\n      sub\n      swap1\n      return\n        /* \"practice/27_Interaction.sol\":365:390  IUser public userContract */\n    tag_4:\n      tag_10\n      tag_11\n      jump\t// in\n    tag_10:\n      mload(0x40)\n      tag_12\n      swap2\n      swap1\n      tag_13\n      jump\t// in\n    tag_12:\n      mload(0x40)\n      dup1\n      swap2\n      sub\n      swap1\n      return\n        /* \"practice/27_Interaction.sol\":479:636  function startGame(string memory username) external {... */\n    tag_5:\n      tag_14\n      0x04\n      dup1\n      calldatasize\n      sub\n      dup2\n      add\n      swap1\n      tag_15\n      swap2\n      swap1\n      tag_16\n      jump\t// in\n    tag_15:\n      tag_17\n      jump\t// in\n    tag_14:\n      stop\n        /* \"practice/27_Interaction.sol\":337:358  uint public gameCount */\n    tag_7:\n      sload(0x00)\n      dup2\n      jump\t// out\n        /* \"practice/27_Interaction.sol\":365:390  IUser public userContract */\n    tag_11:\n      0x01\n      0x00\n      swap1\n      sload\n      swap1\n      0x0100\n      exp\n      swap1\n      div\n      0xffffffffffffffffffffffffffffffffffffffff\n      and\n      dup2\n      jump\t// out\n        /* \"practice/27_Interaction.sol\":479:636  function startGame(string memory username) external {... */\n    tag_17:\n        /* \"practice/27_Interaction.sol\":589:598  gameCount */\n      0x00\n      dup1\n        /* \"practice/27_Interaction.sol\":589:600  gameCount++ */\n      dup2\n      sload\n      dup1\n      swap3\n      swap2\n      swap1\n      tag_19\n      swap1\n      tag_20\n      jump\t// in\n    tag_19:\n      swap2\n      swap1\n      pop\n      sstore\n      pop\n        /* \"practice/27_Interaction.sol\":479:636  function startGame(string memory username) external {... */\n      pop\n      jump\t// out\n        /* \"#utility.yul\":7:84   */\n    tag_21:\n        /* \"#utility.yul\":44:51   */\n      0x00\n        /* \"#utility.yul\":73:78   */\n      dup2\n        /* \"#utility.yul\":62:78   */\n      swap1\n      pop\n        /* \"#utility.yul\":7:84   */\n      swap2\n      swap1\n      pop\n      jump\t// out\n        /* \"#utility.yul\":90:208   */\n    tag_22:\n        /* \"#utility.yul\":177:201   */\n      tag_46\n        /* \"#utility.yul\":195:200   */\n      dup2\n        /* \"#utility.yul\":177:201   */\n      tag_21\n      jump\t// in\n    tag_46:\n        /* \"#utility.yul\":172:175   */\n      dup3\n        /* \"#utility.yul\":165:202   */\n      mstore\n        /* \"#utility.yul\":90:208   */\n      pop\n      pop\n      jump\t// out\n        /* \"#utility.yul\":214:436   */\n    tag_9:\n        /* \"#utility.yul\":307:311   */\n      0x00\n        /* \"#utility.yul\":345:347   */\n      0x20\n        /* \"#utility.yul\":334:343   */\n      dup3\n        /* \"#utility.yul\":330:348   */\n      add\n        /* \"#utility.yul\":322:348   */\n      swap1\n      pop\n        /* \"#utility.yul\":358:429   */\n      tag_48\n        /* \"#utility.yul\":426:427   */\n      0x00\n        /* \"#utility.yul\":415:424   */\n      dup4\n        /* \"#utility.yul\":411:428   */\n      add\n        /* \"#utility.yul\":402:408   */\n      dup5\n        /* \"#utility.yul\":358:429   */\n      tag_22\n      jump\t// in\n    tag_48:\n        /* \"#utility.yul\":214:436   */\n      swap3\n      swap2\n      pop\n      pop\n      jump\t// out\n        /* \"#utility.yul\":442:568   */\n    tag_23:\n        /* \"#utility.yul\":479:486   */\n      0x00\n        /* \"#utility.yul\":519:561   */\n      0xffffffffffffffffffffffffffffffffffffffff\n        /* \"#utility.yul\":512:517   */\n      dup3\n        /* \"#utility.yul\":508:562   */\n      and\n        /* \"#utility.yul\":497:562   */\n      swap1\n      pop\n        /* \"#utility.yul\":442:568   */\n      swap2\n      swap1\n      pop\n      jump\t// out\n        /* \"#utility.yul\":574:634   */\n    tag_24:\n        /* \"#utility.yul\":602:605   */\n      0x00\n        /* \"#utility.yul\":623:628   */\n      dup2\n        /* \"#utility.yul\":616:628   */\n      swap1\n      pop\n        /* \"#utility.yul\":574:634   */\n      swap2\n      swap1\n      pop\n      jump\t// out\n        /* \"#utility.yul\":640:782   */\n    tag_25:\n        /* \"#utility.yul\":690:699   */\n      0x00\n        /* \"#utility.yul\":723:776   */\n      tag_52\n        /* \"#utility.yul\":741:775   */\n      tag_53\n        /* \"#utility.yul\":750:774   */\n      tag_54\n        /* \"#utility.yul\":768:773   */\n      dup5\n        /* \"#utility.yul\":750:774   */\n      tag_23\n      jump\t// in\n    tag_54:\n        /* \"#utility.yul\":741:775   */\n      tag_24\n      jump\t// in\n    tag_53:\n        /* \"#utility.yul\":723:776   */\n      tag_23\n      jump\t// in\n    tag_52:\n        /* \"#utility.yul\":710:776   */\n      swap1\n      pop\n        /* \"#utility.yul\":640:782   */\n      swap2\n      swap1\n      pop\n      jump\t// out\n        /* \"#utility.yul\":788:914   */\n    tag_26:\n        /* \"#utility.yul\":838:847   */\n      0x00\n        /* \"#utility.yul\":871:908   */\n      tag_56\n        /* \"#utility.yul\":902:907   */\n      dup3\n        /* \"#utility.yul\":871:908   */\n      tag_25\n      jump\t// in\n    tag_56:\n        /* \"#utility.yul\":858:908   */\n      swap1\n      pop\n        /* \"#utility.yul\":788:914   */\n      swap2\n      swap1\n      pop\n      jump\t// out\n        /* \"#utility.yul\":920:1057   */\n    tag_27:\n        /* \"#utility.yul\":981:990   */\n      0x00\n        /* \"#utility.yul\":1014:1051   */\n      tag_58\n        /* \"#utility.yul\":1045:1050   */\n      dup3\n        /* \"#utility.yul\":1014:1051   */\n      tag_26\n      jump\t// in\n    tag_58:\n        /* \"#utility.yul\":1001:1051   */\n      swap1\n      pop\n        /* \"#utility.yul\":920:1057   */\n      swap2\n      swap1\n      pop\n      jump\t// out\n        /* \"#utility.yul\":1063:1216   */\n    tag_28:\n        /* \"#utility.yul\":1161:1209   */\n      tag_60\n        /* \"#utility.yul\":1203:1208   */\n      dup2\n        /* \"#utility.yul\":1161:1209   */\n      tag_27\n      jump\t// in\n    tag_60:\n        /* \"#utility.yul\":1156:1159   */\n      dup3\n        /* \"#utility.yul\":1149:1210   */\n      mstore\n        /* \"#utility.yul\":1063:1216   */\n      pop\n      pop\n      jump\t// out\n        /* \"#utility.yul\":1222:1466   */\n    tag_13:\n        /* \"#utility.yul\":1326:1330   */\n      0x00\n        /* \"#utility.yul\":1364:1366   */\n      0x20\n        /* \"#utility.yul\":1353:1362   */\n      dup3\n        /* \"#utility.yul\":1349:1367   */\n      add\n        /* \"#utility.yul\":1341:1367   */\n      swap1\n      pop\n        /* \"#utility.yul\":1377:1459   */\n      tag_62\n        /* \"#utility.yul\":1456:1457   */\n      0x00\n        /* \"#utility.yul\":1445:1454   */\n      dup4\n        /* \"#utility.yul\":1441:1458   */\n      add\n        /* \"#utility.yul\":1432:1438   */\n      dup5\n        /* \"#utility.yul\":1377:1459   */\n      tag_28\n      jump\t// in\n    tag_62:\n        /* \"#utility.yul\":1222:1466   */\n      swap3\n      swap2\n      pop\n      pop\n      jump\t// out\n        /* \"#utility.yul\":1472:1547   */\n    tag_29:\n        /* \"#utility.yul\":1505:1511   */\n      0x00\n        /* \"#utility.yul\":1538:1540   */\n      0x40\n        /* \"#utility.yul\":1532:1541   */\n      mload\n        /* \"#utility.yul\":1522:1541   */\n      swap1\n      pop\n        /* \"#utility.yul\":1472:1547   */\n      swap1\n      jump\t// out\n        /* \"#utility.yul\":1553:1670   */\n    tag_30:\n        /* \"#utility.yul\":1662:1663   */\n      0x00\n        /* \"#utility.yul\":1659:1660   */\n      dup1\n        /* \"#utility.yul\":1652:1664   */\n      revert\n        /* \"#utility.yul\":1676:1793   */\n    tag_31:\n        /* \"#utility.yul\":1785:1786   */\n      0x00\n        /* \"#utility.yul\":1782:1783   */\n      dup1\n        /* \"#utility.yul\":1775:1787   */\n      revert\n        /* \"#utility.yul\":1799:1916   */\n    tag_32:\n        /* \"#utility.yul\":1908:1909   */\n      0x00\n        /* \"#utility.yul\":1905:1906   */\n      dup1\n        /* \"#utility.yul\":1898:1910   */\n      revert\n        /* \"#utility.yul\":1922:2039   */\n    tag_33:\n        /* \"#utility.yul\":2031:2032   */\n      0x00\n        /* \"#utility.yul\":2028:2029   */\n      dup1\n        /* \"#utility.yul\":2021:2033   */\n      revert\n        /* \"#utility.yul\":2045:2147   */\n    tag_34:\n        /* \"#utility.yul\":2086:2092   */\n      0x00\n        /* \"#utility.yul\":2137:2139   */\n      0x1f\n        /* \"#utility.yul\":2133:2140   */\n      not\n        /* \"#utility.yul\":2128:2130   */\n      0x1f\n        /* \"#utility.yul\":2121:2126   */\n      dup4\n        /* \"#utility.yul\":2117:2131   */\n      add\n        /* \"#utility.yul\":2113:2141   */\n      and\n        /* \"#utility.yul\":2103:2141   */\n      swap1\n      pop\n        /* \"#utility.yul\":2045:2147   */\n      swap2\n      swap1\n      pop\n      jump\t// out\n        /* \"#utility.yul\":2153:2333   */\n    tag_35:\n        /* \"#utility.yul\":2201:2278   */\n      0x4e487b7100000000000000000000000000000000000000000000000000000000\n        /* \"#utility.yul\":2198:2199   */\n      0x00\n        /* \"#utility.yul\":2191:2279   */\n      mstore\n        /* \"#utility.yul\":2298:2302   */\n      0x41\n        /* \"#utility.yul\":2295:2296   */\n      0x04\n        /* \"#utility.yul\":2288:2303   */\n      mstore\n        /* \"#utility.yul\":2322:2326   */\n      0x24\n        /* \"#utility.yul\":2319:2320   */\n      0x00\n        /* \"#utility.yul\":2312:2327   */\n      revert\n        /* \"#utility.yul\":2339:2620   */\n    tag_36:\n        /* \"#utility.yul\":2422:2449   */\n      tag_71\n        /* \"#utility.yul\":2444:2448   */\n      dup3\n        /* \"#utility.yul\":2422:2449   */\n      tag_34\n      jump\t// in\n    tag_71:\n        /* \"#utility.yul\":2414:2420   */\n      dup2\n        /* \"#utility.yul\":2410:2450   */\n      add\n        /* \"#utility.yul\":2552:2558   */\n      dup2\n        /* \"#utility.yul\":2540:2550   */\n      dup2\n        /* \"#utility.yul\":2537:2559   */\n      lt\n        /* \"#utility.yul\":2516:2534   */\n      0xffffffffffffffff\n        /* \"#utility.yul\":2504:2514   */\n      dup3\n        /* \"#utility.yul\":2501:2535   */\n      gt\n        /* \"#utility.yul\":2498:2560   */\n      or\n        /* \"#utility.yul\":2495:2583   */\n      iszero\n      tag_72\n      jumpi\n        /* \"#utility.yul\":2563:2581   */\n      tag_73\n      tag_35\n      jump\t// in\n    tag_73:\n        /* \"#utility.yul\":2495:2583   */\n    tag_72:\n        /* \"#utility.yul\":2603:2613   */\n      dup1\n        /* \"#utility.yul\":2599:2601   */\n      0x40\n        /* \"#utility.yul\":2592:2614   */\n      mstore\n        /* \"#utility.yul\":2382:2620   */\n      pop\n        /* \"#utility.yul\":2339:2620   */\n      pop\n      pop\n      jump\t// out\n        /* \"#utility.yul\":2626:2755   */\n    tag_37:\n        /* \"#utility.yul\":2660:2666   */\n      0x00\n        /* \"#utility.yul\":2687:2707   */\n      tag_75\n      tag_29\n      jump\t// in\n    tag_75:\n        /* \"#utility.yul\":2677:2707   */\n      swap1\n      pop\n        /* \"#utility.yul\":2716:2749   */\n      tag_76\n        /* \"#utility.yul\":2744:2748   */\n      dup3\n        /* \"#utility.yul\":2736:2742   */\n      dup3\n        /* \"#utility.yul\":2716:2749   */\n      tag_36\n      jump\t// in\n    tag_76:\n        /* \"#utility.yul\":2626:2755   */\n      swap2\n      swap1\n      pop\n      jump\t// out\n        /* \"#utility.yul\":2761:3069   */\n    tag_38:\n        /* \"#utility.yul\":2823:2827   */\n      0x00\n        /* \"#utility.yul\":2913:2931   */\n      0xffffffffffffffff\n        /* \"#utility.yul\":2905:2911   */\n      dup3\n        /* \"#utility.yul\":2902:2932   */\n      gt\n        /* \"#utility.yul\":2899:2955   */\n      iszero\n      tag_78\n      jumpi\n        /* \"#utility.yul\":2935:2953   */\n      tag_79\n      tag_35\n      jump\t// in\n    tag_79:\n        /* \"#utility.yul\":2899:2955   */\n    tag_78:\n        /* \"#utility.yul\":2973:3002   */\n      tag_80\n        /* \"#utility.yul\":2995:3001   */\n      dup3\n        /* \"#utility.yul\":2973:3002   */\n      tag_34\n      jump\t// in\n    tag_80:\n        /* \"#utility.yul\":2965:3002   */\n      swap1\n      pop\n        /* \"#utility.yul\":3057:3061   */\n      0x20\n        /* \"#utility.yul\":3051:3055   */\n      dup2\n        /* \"#utility.yul\":3047:3062   */\n      add\n        /* \"#utility.yul\":3039:3062   */\n      swap1\n      pop\n        /* \"#utility.yul\":2761:3069   */\n      swap2\n      swap1\n      pop\n      jump\t// out\n        /* \"#utility.yul\":3075:3223   */\n    tag_39:\n        /* \"#utility.yul\":3173:3179   */\n      dup3\n        /* \"#utility.yul\":3168:3171   */\n      dup2\n        /* \"#utility.yul\":3163:3166   */\n      dup4\n        /* \"#utility.yul\":3150:3180   */\n      calldatacopy\n        /* \"#utility.yul\":3214:3215   */\n      0x00\n        /* \"#utility.yul\":3205:3211   */\n      dup4\n        /* \"#utility.yul\":3200:3203   */\n      dup4\n        /* \"#utility.yul\":3196:3212   */\n      add\n        /* \"#utility.yul\":3189:3216   */\n      mstore\n        /* \"#utility.yul\":3075:3223   */\n      pop\n      pop\n      pop\n      jump\t// out\n        /* \"#utility.yul\":3229:3654   */\n    tag_40:\n        /* \"#utility.yul\":3307:3312   */\n      0x00\n        /* \"#utility.yul\":3332:3398   */\n      tag_83\n        /* \"#utility.yul\":3348:3397   */\n      tag_84\n        /* \"#utility.yul\":3390:3396   */\n      dup5\n        /* \"#utility.yul\":3348:3397   */\n      tag_38\n      jump\t// in\n    tag_84:\n        /* \"#utility.yul\":3332:3398   */\n      tag_37\n      jump\t// in\n    tag_83:\n        /* \"#utility.yul\":3323:3398   */\n      swap1\n      pop\n        /* \"#utility.yul\":3421:3427   */\n      dup3\n        /* \"#utility.yul\":3414:3419   */\n      dup2\n        /* \"#utility.yul\":3407:3428   */\n      mstore\n        /* \"#utility.yul\":3459:3463   */\n      0x20\n        /* \"#utility.yul\":3452:3457   */\n      dup2\n        /* \"#utility.yul\":3448:3464   */\n      add\n        /* \"#utility.yul\":3497:3500   */\n      dup5\n        /* \"#utility.yul\":3488:3494   */\n      dup5\n        /* \"#utility.yul\":3483:3486   */\n      dup5\n        /* \"#utility.yul\":3479:3495   */\n      add\n        /* \"#utility.yul\":3476:3501   */\n      gt\n        /* \"#utility.yul\":3473:3585   */\n      iszero\n      tag_85\n      jumpi\n        /* \"#utility.yul\":3504:3583   */\n      tag_86\n      tag_33\n      jump\t// in\n    tag_86:\n        /* \"#utility.yul\":3473:3585   */\n    tag_85:\n        /* \"#utility.yul\":3594:3648   */\n      tag_87\n        /* \"#utility.yul\":3641:3647   */\n      dup5\n        /* \"#utility.yul\":3636:3639   */\n      dup3\n        /* \"#utility.yul\":3631:3634   */\n      dup6\n        /* \"#utility.yul\":3594:3648   */\n      tag_39\n      jump\t// in\n    tag_87:\n        /* \"#utility.yul\":3313:3654   */\n      pop\n        /* \"#utility.yul\":3229:3654   */\n      swap4\n      swap3\n      pop\n      pop\n      pop\n      jump\t// out\n        /* \"#utility.yul\":3674:4014   */\n    tag_41:\n        /* \"#utility.yul\":3730:3735   */\n      0x00\n        /* \"#utility.yul\":3779:3782   */\n      dup3\n        /* \"#utility.yul\":3772:3776   */\n      0x1f\n        /* \"#utility.yul\":3764:3770   */\n      dup4\n        /* \"#utility.yul\":3760:3777   */\n      add\n        /* \"#utility.yul\":3756:3783   */\n      slt\n        /* \"#utility.yul\":3746:3868   */\n      tag_89\n      jumpi\n        /* \"#utility.yul\":3787:3866   */\n      tag_90\n      tag_32\n      jump\t// in\n    tag_90:\n        /* \"#utility.yul\":3746:3868   */\n    tag_89:\n        /* \"#utility.yul\":3904:3910   */\n      dup2\n        /* \"#utility.yul\":3891:3911   */\n      calldataload\n        /* \"#utility.yul\":3929:4008   */\n      tag_91\n        /* \"#utility.yul\":4004:4007   */\n      dup5\n        /* \"#utility.yul\":3996:4002   */\n      dup3\n        /* \"#utility.yul\":3989:3993   */\n      0x20\n        /* \"#utility.yul\":3981:3987   */\n      dup7\n        /* \"#utility.yul\":3977:3994   */\n      add\n        /* \"#utility.yul\":3929:4008   */\n      tag_40\n      jump\t// in\n    tag_91:\n        /* \"#utility.yul\":3920:4008   */\n      swap2\n      pop\n        /* \"#utility.yul\":3736:4014   */\n      pop\n        /* \"#utility.yul\":3674:4014   */\n      swap3\n      swap2\n      pop\n      pop\n      jump\t// out\n        /* \"#utility.yul\":4020:4529   */\n    tag_16:\n        /* \"#utility.yul\":4089:4095   */\n      0x00\n        /* \"#utility.yul\":4138:4140   */\n      0x20\n        /* \"#utility.yul\":4126:4135   */\n      dup3\n        /* \"#utility.yul\":4117:4124   */\n      dup5\n        /* \"#utility.yul\":4113:4136   */\n      sub\n        /* \"#utility.yul\":4109:4141   */\n      slt\n        /* \"#utility.yul\":4106:4225   */\n      iszero\n      tag_93\n      jumpi\n        /* \"#utility.yul\":4144:4223   */\n      tag_94\n      tag_30\n      jump\t// in\n    tag_94:\n        /* \"#utility.yul\":4106:4225   */\n    tag_93:\n        /* \"#utility.yul\":4292:4293   */\n      0x00\n        /* \"#utility.yul\":4281:4290   */\n      dup3\n        /* \"#utility.yul\":4277:4294   */\n      add\n        /* \"#utility.yul\":4264:4295   */\n      calldataload\n        /* \"#utility.yul\":4322:4340   */\n      0xffffffffffffffff\n        /* \"#utility.yul\":4314:4320   */\n      dup2\n        /* \"#utility.yul\":4311:4341   */\n      gt\n        /* \"#utility.yul\":4308:4425   */\n      iszero\n      tag_95\n      jumpi\n        /* \"#utility.yul\":4344:4423   */\n      tag_96\n      tag_31\n      jump\t// in\n    tag_96:\n        /* \"#utility.yul\":4308:4425   */\n    tag_95:\n        /* \"#utility.yul\":4449:4512   */\n      tag_97\n        /* \"#utility.yul\":4504:4511   */\n      dup5\n        /* \"#utility.yul\":4495:4501   */\n      dup3\n        /* \"#utility.yul\":4484:4493   */\n      dup6\n        /* \"#utility.yul\":4480:4502   */\n      add\n        /* \"#utility.yul\":4449:4512   */\n      tag_41\n      jump\t// in\n    tag_97:\n        /* \"#utility.yul\":4439:4512   */\n      swap2\n      pop\n        /* \"#utility.yul\":4235:4522   */\n      pop\n        /* \"#utility.yul\":4020:4529   */\n      swap3\n      swap2\n      pop\n      pop\n      jump\t// out\n        /* \"#utility.yul\":4535:4715   */\n    tag_42:\n        /* \"#utility.yul\":4583:4660   */\n      0x4e487b7100000000000000000000000000000000000000000000000000000000\n        /* \"#utility.yul\":4580:4581   */\n      0x00\n        /* \"#utility.yul\":4573:4661   */\n      mstore\n        /* \"#utility.yul\":4680:4684   */\n      0x11\n        /* \"#utility.yul\":4677:4678   */\n      0x04\n        /* \"#utility.yul\":4670:4685   */\n      mstore\n        /* \"#utility.yul\":4704:4708   */\n      0x24\n        /* \"#utility.yul\":4701:4702   */\n      0x00\n        /* \"#utility.yul\":4694:4709   */\n      revert\n        /* \"#utility.yul\":4721:4954   */\n    tag_20:\n        /* \"#utility.yul\":4760:4763   */\n      0x00\n        /* \"#utility.yul\":4783:4807   */\n      tag_100\n        /* \"#utility.yul\":4801:4806   */\n      dup3\n        /* \"#utility.yul\":4783:4807   */\n      tag_21\n      jump\t// in\n    tag_100:\n        /* \"#utility.yul\":4774:4807   */\n      swap2\n      pop\n        /* \"#utility.yul\":4829:4895   */\n      0xffffffffffffffffffffffffffffffffffffffffffffffffffffffffffffffff\n        /* \"#utility.yul\":4822:4827   */\n      dup3\n        /* \"#utility.yul\":4819:4896   */\n      sub\n        /* \"#utility.yul\":4816:4919   */\n      tag_101\n      jumpi\n        /* \"#utility.yul\":4899:4917   */\n      tag_102\n      tag_42\n      jump\t// in\n    tag_102:\n        /* \"#utility.yul\":4816:4919   */\n    tag_101:\n        /* \"#utility.yul\":4946:4947   */\n      0x01\n        /* \"#utility.yul\":4939:4944   */\n      dup3\n        /* \"#utility.yul\":4935:4948   */\n      add\n        /* \"#utility.yul\":4928:4948   */\n      swap1\n      pop\n        /* \"#utility.yul\":4721:4954   */\n      swap2\n      swap1\n      pop\n      jump\t// out\n\n    auxdata: 0xa2646970667358221220725204a5e885630de73d9c476c59ddd1ad79e06297bc8cbbe2b0bcac2862b49664736f6c634300081a0033\n}\n",
				"bytecode": {
					"linkReferences": {},
					"object": "6080604052348015600e575f80fd5b5060405161049d38038061049d8339818101604052810190602e9190608a565b5060b0565b5f80fd5b5f73ffffffffffffffffffffffffffffffffffffffff82169050919050565b5f605e826037565b9050919050565b606c816056565b81146075575f80fd5b50565b5f815190506084816065565b92915050565b5f60208284031215609c57609b6033565b5b5f60a7848285016078565b91505092915050565b6103e0806100bd5f395ff3fe608060405234801561000f575f80fd5b506004361061003f575f3560e01c80634d1975b4146100435780635000596b14610061578063d542c4d51461007f575b5f80fd5b61004b61009b565b60405161005891906100f6565b60405180910390f35b6100696100a0565b6040516100769190610189565b60405180910390f35b610099600480360381019061009491906102ef565b6100c5565b005b5f5481565b60015f9054906101000a900473ffffffffffffffffffffffffffffffffffffffff1681565b5f808154809291906100d690610363565b919050555050565b5f819050919050565b6100f0816100de565b82525050565b5f6020820190506101095f8301846100e7565b92915050565b5f73ffffffffffffffffffffffffffffffffffffffff82169050919050565b5f819050919050565b5f61015161014c6101478461010f565b61012e565b61010f565b9050919050565b5f61016282610137565b9050919050565b5f61017382610158565b9050919050565b61018381610169565b82525050565b5f60208201905061019c5f83018461017a565b92915050565b5f604051905090565b5f80fd5b5f80fd5b5f80fd5b5f80fd5b5f601f19601f8301169050919050565b7f4e487b71000000000000000000000000000000000000000000000000000000005f52604160045260245ffd5b610201826101bb565b810181811067ffffffffffffffff821117156102205761021f6101cb565b5b80604052505050565b5f6102326101a2565b905061023e82826101f8565b919050565b5f67ffffffffffffffff82111561025d5761025c6101cb565b5b610266826101bb565b9050602081019050919050565b828183375f83830152505050565b5f61029361028e84610243565b610229565b9050828152602081018484840111156102af576102ae6101b7565b5b6102ba848285610273565b509392505050565b5f82601f8301126102d6576102d56101b3565b5b81356102e6848260208601610281565b91505092915050565b5f60208284031215610304576103036101ab565b5b5f82013567ffffffffffffffff811115610321576103206101af565b5b61032d848285016102c2565b91505092915050565b7f4e487b71000000000000000000000000000000000000000000000000000000005f52601160045260245ffd5b5f61036d826100de565b91507fffffffffffffffffffffffffffffffffffffffffffffffffffffffffffffffff820361039f5761039e610336565b5b60018201905091905056fea2646970667358221220725204a5e885630de73d9c476c59ddd1ad79e06297bc8cbbe2b0bcac2862b49664736f6c634300081a0033",
					"opcodes": "PUSH1 0x80 PUSH1 0x40 MSTORE CALLVALUE DUP1 ISZERO PUSH1 0xE JUMPI PUSH0 DUP1 REVERT JUMPDEST POP PUSH1 0x40 MLOAD PUSH2 0x49D CODESIZE SUB DUP1 PUSH2 0x49D DUP4 CODECOPY DUP2 DUP2 ADD PUSH1 0x40 MSTORE DUP2 ADD SWAP1 PUSH1 0x2E SWAP2 SWAP1 PUSH1 0x8A JUMP JUMPDEST POP PUSH1 0xB0 JUMP JUMPDEST PUSH0 DUP1 REVERT JUMPDEST PUSH0 PUSH20 0xFFFFFFFFFFFFFFFFFFFFFFFFFFFFFFFFFFFFFFFF DUP3 AND SWAP1 POP SWAP2 SWAP1 POP JUMP JUMPDEST PUSH0 PUSH1 0x5E DUP3 PUSH1 0x37 JUMP JUMPDEST SWAP1 POP SWAP2 SWAP1 POP JUMP JUMPDEST PUSH1 0x6C DUP2 PUSH1 0x56 JUMP JUMPDEST DUP2 EQ PUSH1 0x75 JUMPI PUSH0 DUP1 REVERT JUMPDEST POP JUMP JUMPDEST PUSH0 DUP2 MLOAD SWAP1 POP PUSH1 0x84 DUP2 PUSH1 0x65 JUMP JUMPDEST SWAP3 SWAP2 POP POP JUMP JUMPDEST PUSH0 PUSH1 0x20 DUP3 DUP5 SUB SLT ISZERO PUSH1 0x9C JUMPI PUSH1 0x9B PUSH1 0x33 JUMP JUMPDEST JUMPDEST PUSH0 PUSH1 0xA7 DUP5 DUP3 DUP6 ADD PUSH1 0x78 JUMP JUMPDEST SWAP2 POP POP SWAP3 SWAP2 POP POP JUMP JUMPDEST PUSH2 0x3E0 DUP1 PUSH2 0xBD PUSH0 CODECOPY PUSH0 RETURN INVALID PUSH1 0x80 PUSH1 0x40 MSTORE CALLVALUE DUP1 ISZERO PUSH2 0xF JUMPI PUSH0 DUP1 REVERT JUMPDEST POP PUSH1 0x4 CALLDATASIZE LT PUSH2 0x3F JUMPI PUSH0 CALLDATALOAD PUSH1 0xE0 SHR DUP1 PUSH4 0x4D1975B4 EQ PUSH2 0x43 JUMPI DUP1 PUSH4 0x5000596B EQ PUSH2 0x61 JUMPI DUP1 PUSH4 0xD542C4D5 EQ PUSH2 0x7F JUMPI JUMPDEST PUSH0 DUP1 REVERT JUMPDEST PUSH2 0x4B PUSH2 0x9B JUMP JUMPDEST PUSH1 0x40 MLOAD PUSH2 0x58 SWAP2 SWAP1 PUSH2 0xF6 JUMP JUMPDEST PUSH1 0x40 MLOAD DUP1 SWAP2 SUB SWAP1 RETURN JUMPDEST PUSH2 0x69 PUSH2 0xA0 JUMP JUMPDEST PUSH1 0x40 MLOAD PUSH2 0x76 SWAP2 SWAP1 PUSH2 0x189 JUMP JUMPDEST PUSH1 0x40 MLOAD DUP1 SWAP2 SUB SWAP1 RETURN JUMPDEST PUSH2 0x99 PUSH1 0x4 DUP1 CALLDATASIZE SUB DUP2 ADD SWAP1 PUSH2 0x94 SWAP2 SWAP1 PUSH2 0x2EF JUMP JUMPDEST PUSH2 0xC5 JUMP JUMPDEST STOP JUMPDEST PUSH0 SLOAD DUP2 JUMP JUMPDEST PUSH1 0x1 PUSH0 SWAP1 SLOAD SWAP1 PUSH2 0x100 EXP SWAP1 DIV PUSH20 0xFFFFFFFFFFFFFFFFFFFFFFFFFFFFFFFFFFFFFFFF AND DUP2 JUMP JUMPDEST PUSH0 DUP1 DUP2 SLOAD DUP1 SWAP3 SWAP2 SWAP1 PUSH2 0xD6 SWAP1 PUSH2 0x363 JUMP JUMPDEST SWAP2 SWAP1 POP SSTORE POP POP JUMP JUMPDEST PUSH0 DUP2 SWAP1 POP SWAP2 SWAP1 POP JUMP JUMPDEST PUSH2 0xF0 DUP2 PUSH2 0xDE JUMP JUMPDEST DUP3 MSTORE POP POP JUMP JUMPDEST PUSH0 PUSH1 0x20 DUP3 ADD SWAP1 POP PUSH2 0x109 PUSH0 DUP4 ADD DUP5 PUSH2 0xE7 JUMP JUMPDEST SWAP3 SWAP2 POP POP JUMP JUMPDEST PUSH0 PUSH20 0xFFFFFFFFFFFFFFFFFFFFFFFFFFFFFFFFFFFFFFFF DUP3 AND SWAP1 POP SWAP2 SWAP1 POP JUMP JUMPDEST PUSH0 DUP2 SWAP1 POP SWAP2 SWAP1 POP JUMP JUMPDEST PUSH0 PUSH2 0x151 PUSH2 0x14C PUSH2 0x147 DUP5 PUSH2 0x10F JUMP JUMPDEST PUSH2 0x12E JUMP JUMPDEST PUSH2 0x10F JUMP JUMPDEST SWAP1 POP SWAP2 SWAP1 POP JUMP JUMPDEST PUSH0 PUSH2 0x162 DUP3 PUSH2 0x137 JUMP JUMPDEST SWAP1 POP SWAP2 SWAP1 POP JUMP JUMPDEST PUSH0 PUSH2 0x173 DUP3 PUSH2 0x158 JUMP JUMPDEST SWAP1 POP SWAP2 SWAP1 POP JUMP JUMPDEST PUSH2 0x183 DUP2 PUSH2 0x169 JUMP JUMPDEST DUP3 MSTORE POP POP JUMP JUMPDEST PUSH0 PUSH1 0x20 DUP3 ADD SWAP1 POP PUSH2 0x19C PUSH0 DUP4 ADD DUP5 PUSH2 0x17A JUMP JUMPDEST SWAP3 SWAP2 POP POP JUMP JUMPDEST PUSH0 PUSH1 0x40 MLOAD SWAP1 POP SWAP1 JUMP JUMPDEST PUSH0 DUP1 REVERT JUMPDEST PUSH0 DUP1 REVERT JUMPDEST PUSH0 DUP1 REVERT JUMPDEST PUSH0 DUP1 REVERT JUMPDEST PUSH0 PUSH1 0x1F NOT PUSH1 0x1F DUP4 ADD AND SWAP1 POP SWAP2 SWAP1 POP JUMP JUMPDEST PUSH32 0x4E487B7100000000000000000000000000000000000000000000000000000000 PUSH0 MSTORE PUSH1 0x41 PUSH1 0x4 MSTORE PUSH1 0x24 PUSH0 REVERT JUMPDEST PUSH2 0x201 DUP3 PUSH2 0x1BB JUMP JUMPDEST DUP2 ADD DUP2 DUP2 LT PUSH8 0xFFFFFFFFFFFFFFFF DUP3 GT OR ISZERO PUSH2 0x220 JUMPI PUSH2 0x21F PUSH2 0x1CB JUMP JUMPDEST JUMPDEST DUP1 PUSH1 0x40 MSTORE POP POP POP JUMP JUMPDEST PUSH0 PUSH2 0x232 PUSH2 0x1A2 JUMP JUMPDEST SWAP1 POP PUSH2 0x23E DUP3 DUP3 PUSH2 0x1F8 JUMP JUMPDEST SWAP2 SWAP1 POP JUMP JUMPDEST PUSH0 PUSH8 0xFFFFFFFFFFFFFFFF DUP3 GT ISZERO PUSH2 0x25D JUMPI PUSH2 0x25C PUSH2 0x1CB JUMP JUMPDEST JUMPDEST PUSH2 0x266 DUP3 PUSH2 0x1BB JUMP JUMPDEST SWAP1 POP PUSH1 0x20 DUP2 ADD SWAP1 POP SWAP2 SWAP1 POP JUMP JUMPDEST DUP3 DUP2 DUP4 CALLDATACOPY PUSH0 DUP4 DUP4 ADD MSTORE POP POP POP JUMP JUMPDEST PUSH0 PUSH2 0x293 PUSH2 0x28E DUP5 PUSH2 0x243 JUMP JUMPDEST PUSH2 0x229 JUMP JUMPDEST SWAP1 POP DUP3 DUP2 MSTORE PUSH1 0x20 DUP2 ADD DUP5 DUP5 DUP5 ADD GT ISZERO PUSH2 0x2AF JUMPI PUSH2 0x2AE PUSH2 0x1B7 JUMP JUMPDEST JUMPDEST PUSH2 0x2BA DUP5 DUP3 DUP6 PUSH2 0x273 JUMP JUMPDEST POP SWAP4 SWAP3 POP POP POP JUMP JUMPDEST PUSH0 DUP3 PUSH1 0x1F DUP4 ADD SLT PUSH2 0x2D6 JUMPI PUSH2 0x2D5 PUSH2 0x1B3 JUMP JUMPDEST JUMPDEST DUP2 CALLDATALOAD PUSH2 0x2E6 DUP5 DUP3 PUSH1 0x20 DUP7 ADD PUSH2 0x281 JUMP JUMPDEST SWAP2 POP POP SWAP3 SWAP2 POP POP JUMP JUMPDEST PUSH0 PUSH1 0x20 DUP3 DUP5 SUB SLT ISZERO PUSH2 0x304 JUMPI PUSH2 0x303 PUSH2 0x1AB JUMP JUMPDEST JUMPDEST PUSH0 DUP3 ADD CALLDATALOAD PUSH8 0xFFFFFFFFFFFFFFFF DUP2 GT ISZERO PUSH2 0x321 JUMPI PUSH2 0x320 PUSH2 0x1AF JUMP JUMPDEST JUMPDEST PUSH2 0x32D DUP5 DUP3 DUP6 ADD PUSH2 0x2C2 JUMP JUMPDEST SWAP2 POP POP SWAP3 SWAP2 POP POP JUMP JUMPDEST PUSH32 0x4E487B7100000000000000000000000000000000000000000000000000000000 PUSH0 MSTORE PUSH1 0x11 PUSH1 0x4 MSTORE PUSH1 0x24 PUSH0 REVERT JUMPDEST PUSH0 PUSH2 0x36D DUP3 PUSH2 0xDE JUMP JUMPDEST SWAP2 POP PUSH32 0xFFFFFFFFFFFFFFFFFFFFFFFFFFFFFFFFFFFFFFFFFFFFFFFFFFFFFFFFFFFFFFFF DUP3 SUB PUSH2 0x39F JUMPI PUSH2 0x39E PUSH2 0x336 JUMP JUMPDEST JUMPDEST PUSH1 0x1 DUP3 ADD SWAP1 POP SWAP2 SWAP1 POP JUMP INVALID LOG2 PUSH5 0x6970667358 0x22 SLT KECCAK256 PUSH19 0x5204A5E885630DE73D9C476C59DDD1AD79E062 SWAP8 0xBC DUP13 0xBB 0xE2 0xB0 0xBC 0xAC 0x28 PUSH3 0xB49664 PUSH20 0x6F6C634300081A00330000000000000000000000 "
				},
				"gasEstimates": {
					"creation": {
						"codeDepositCost": "198400",
						"executionCost": "infinite",
						"totalCost": "infinite"
					},
					"external": {
						"gameCount()": "2402",
						"startGame(string)": "infinite",
						"userContract()": "infinite"
					}
				},
				"methodIdentifiers": {
					"gameCount()": "4d1975b4",
					"startGame(string)": "d542c4d5",
					"userContract()": "5000596b"
				}
			},
			"storageLayout": {
				"storage": [
					{
						"astId": 11,
						"contract": "practice/27_Interaction.sol:Game",
						"label": "gameCount",
						"offset": 0,
						"slot": "0",
						"type": "t_uint256"
					},
					{
						"astId": 14,
						"contract": "practice/27_Interaction.sol:Game",
						"label": "userContract",
						"offset": 0,
						"slot": "1",
						"type": "t_contract(IUser)9"
					}
				],
				"types": {
					"t_contract(IUser)9": {
						"encoding": "inplace",
						"label": "contract IUser",
						"numberOfBytes": "20"
					},
					"t_uint256": {
						"encoding": "inplace",
						"label": "uint256",
						"numberOfBytes": "32"
					}
				}
			},
			"userdoc": {
				"kind": "user",
				"methods": {},
				"version": 1
			}
		}
	}
}